:020000040800F2
:10000000D006002001010008113E0008A93A0008AE
:10001000CD3B0008B90C00086D6900080000000025
:100020000000000000000000000000006D4100081A
:100030000D26000800000000D13E00088549000898
:100040001B0100081B0100081B0100081B01000820
:100050001B0100081B0100081B0100081B01000810
:100060001B0100081B0100081B0100088D1400087B
:100070001B0100081B0100081B0100081B010008F0
:100080001B0100081B0100081B0100081B010008E0
:100090001B0100081B0100081B010008412D00087E
:1000A0001B0100081B0100081B0100081B010008C0
:1000B000994A00081B0100081B0100081B010008E9
:1000C0001B0100081B0100081B0100081B010008A0
:1000D0001B0100081B010008795F00081B010008D4
:1000E0001B0100081B0100081B010008DFF80CD0F1
:1000F00000F028FC00480047456D0008D0060020AD
:100100000648804706480047FEE7FEE7FEE7FEE7B1
:10011000FEE7FEE7FEE7FEE7FEE7FEE7394A0008F6
:10012000ED0000080649074A0868504343F23902C7
:10013000104408604008704701490860704700009B
:10014000AC0000206D4EC641F0B480EA0102D40F2D
:100150004200B2EB410F02D20246084611464A0065
:1001600042D0C30DDDB2C1F3C752AD1A202D35DA2E
:10017000C1F3160141F4000204B15242C5F1200658
:1001800002FA06F12A411044B3EBD05F23D0C4B188
:10019000012DA0EBC35009DCF0BC4FF0004202EA95
:1001A000C35200F50000DBB200F014BB400000F1C8
:1001B000807000EBC350A0F1807040EAD17049001C
:1001C00009E0490841EAC071A0EBC35000F5000006
:1001D000400800EBC350F0BC00F0F3BA61420122CA
:1001E00002EB4101001BF6E7F0BC704781F00041D3
:1001F000AAE780F00040A7E780EA010210B502F00C
:100200000043400026D04A0023D04FEA106101EBA2
:100210001261C0F35600C2F3560240F4000042F4EB
:100220000002A0FB0220A1F17F014FEA004014046C
:1002300001D000F1010050EA124001D44000491EF3
:10024000C2B20C0604EBD010401C4008802A02D039
:1002500003E0002010BD20F00100002900DA00209A
:10026000184310BD30B480EA010202F0004530F0BE
:10027000004221F0004015D0A0B1C0F3C753C2F333
:10028000C754C2F31601C0F31600E41A41F400018A
:1002900040F400027D34914201D3641C00E0490027
:1002A000002C02DA30BC002070474FF4000000231D
:1002B000914201D3891A034340084FEA4101F7D123
:1002C00051B1914202D14FF0004105E002D24FF00E
:1002D000010101E06FF0010103EBC450284430BC80
:1002E00000F06FBA2DE9FE4F804681EA0300C00F8F
:1002F0000C46009021F0004123F00045B8EB0200CD
:10030000A94105D24046214690461C460B4602466E
:1003100023F00040104304D14046214603B0BDE81D
:10032000F08F270DC7F30A00C3F30A510290401A59
:100330000190402866DAC3F3130040F4801B009854
:10034000924620B10023D2EB030A63EB0B0B01981A
:100350005946C0F14002504600F002FA06460D46EA
:1003600050465946019A00F01AFA10EB0800614114
:10037000002487EA115284EAE7731A433BD0009ABB
:100380003AB3019A012A4FEA075210DC001B61EBD5
:1003900002014FF0004202EA0752CDE90042001C80
:1003A00041F5801132462B4600F04EFAB6E7001BAD
:1003B00061EB0201001C41F5801300185B4120181D
:1003C000A2F5001747EB030140EAD570B6196D415D
:1003D00011E06D084FEA360645EAC0754FEA07524C
:1003E000001B61EB0201001C41F5801149084FEA36
:1003F00030000019514132462B4603B0BDE8F04FA2
:1004000000F015BA0098012240000023D0EB020250
:1004100063EBE073009821464FEAE074B8EB00000C
:1004200061EB0401E9E783F000435BE781F0004101
:1004300058E72DE9FE4F81EA030404F0004421F05F
:10044000004100944FF0000B23F0004350EA0104F8
:1004500002D052EA030404D10020014603B0BDE8F3
:10046000F08FC3F30A54C1F30A552C44A4F2F334B9
:100470000194A0FB0254C1F3130141F48011C3F3B2
:10048000130343F4801301FB024400FB034E840A70
:10049000970A44EA815447EA8357A4FB0768029508
:1004A0008D0A05FB07854FEA932C04FB0C542705A6
:1004B000029D4FEA065847EA1637B5EB08056EEB82
:1004C000070C870E920E47EA811742EA8312A7FBB8
:1004D0000201B6EB0B0164EB00042B0D43EA0C3375
:1004E0005E1844EB1C50DA465146E7FB0201C5F3A7
:1004F00013044FEA0B3343EA14534FEA0432019CCE
:1005000043EA0603A4F10C040294009CCDE900B474
:1005100000F09AF9A2E72DE9F04D81EA030404F016
:10052000004B21F0004514464FF0000A23F0004133
:1005300050EA050220D054EA01021DD0C5F30A5743
:100540000246C5F31303C1F31300C1F30A5640F486
:10055000801543F48013A7EB0608101BD64608F25B
:10056000FD3873EB050002D308F1010801E0921891
:100570005B41B8F1000F03DA00200146BDE8F08DC1
:1005800000204FF48011064684460EE0171B73EBE3
:10059000050705D3121B63EB050306434CEA010C68
:1005A00049084FEA300092185B4150EA0107EDD14B
:1005B00052EA030012D082EA040083EA05010843EC
:1005C00003D100224FF0004308E0101BAB4102D2E0
:1005D0000122002302E06FF0010253101AEB060023
:1005E0004CEB085110EB0A0041EB0B01BDE8F04D5C
:1005F00000F01DB9C10F80EAE0700844CA079623D5
:10060000002100F0E7B80EB5C10F80EAE0700844A1
:10061000CA07002140F233438DE80E000A460B461C
:1006200000F012F903B000BD0EB540F23341029163
:100630000021CDE900110A460B4600F005F903B090
:1006400000BD00F0004220F00040C10DC0F31600D4
:1006500040F400007F2901DA00207047962903DC6E
:10066000C1F19601C84001E096398840002AF4D0D3
:100670004042704720F00040C10DC0F3160040F426
:1006800000007F2901DA00207047962903DCC1F1C0
:100690009601C840704796398840704770B5C1F3DD
:1006A0000A5201F000450024C1F3130140F2FF3368
:1006B00041F480119A4201DA002070BD40F23343C8
:1006C0009A42A2F2334203DC524200F058F800E0B2
:1006D00090402C43F1D0404270BD00F0004230F019
:1006E00000400AD0C10D01F56071C0F3160042EA66
:1006F0000151C2084007114370470020014670476E
:1007000001F0004330B421F0004150EA010206D06C
:100710000A0DA2F56072C1F31301002A02DC30BC9D
:1007200000207047440F44EAC104C100E01830BC07
:1007300000EBC25000F045B8002801DBC0F10040DA
:10074000002901DBC1F1004181427047002801DB33
:10075000C0F10040002901DBC1F10041884270472F
:10076000202A04DB203A00FA02F100207047914071
:10077000C2F1200320FA03F3194390407047202A66
:1007800004DB203A21FA02F00021704721FA02F33B
:10079000D040C2F120029140084319467047202AF8
:1007A00006DBCB17203A41FA02F043EAE07306E099
:1007B00041FA02F3D040C2F12002914008431946A9
:1007C00070470029A8BF7047401C490008BF20F0AF
:1007D0000100704710B4B0FA80FC00FA0CF050EA47
:1007E000010404BF10BC704749B1CCF1200421FAC8
:1007F00004F411FA0CF118BF012121430843A3EBC3
:100800000C01CB1D0106000A002BBEBF002010BC4E
:10081000704700EBC35010440029A4BF10BC7047C0
:10082000401C490008BF20F0010010BC704710B503
:10083000002B08DA401C41F1000192185B411A4379
:1008400001D120F0010010BD2DE9F04D92469B46EC
:1008500011B1B1FA81F202E0B0FA80F22032904692
:10086000FFF77EFF04460F4640EA0A0041EA0B010B
:1008700053465A46084303D120463946BDE8F08D19
:10088000114653EA010015D0C8F140025046FFF767
:1008900076FF05460E46504659464246FFF760FF32
:1008A000084301D0012000E00020054346EAE0763D
:1008B0002C4337430A984FEA4453A0EB08004FEA11
:1008C000D4240A304FF0000244EA47544FEAD725B7
:1008D00002D500200146D1E7010510196941DDE983
:1008E000084500196941BDE8F04DA0E770B521F059
:1008F000004303430CD0C1F30A550024D5EB040593
:1009000064EB0403D617AD1AB34102DB00200146A5
:1009100070BD201841EB025170BD000030B50029B8
:1009200004DB4FF00044404264EB0101002B04DB88
:100930004FF00044524264EB0303994208BF9042D7
:1009400030BD0000064C074D06E0E06840F00103B2
:1009500094E8070098471034AC42F6D3FFF7CAFB7F
:1009600068910008889100082DE9F04D00231A468F
:100970001B1A8A4103DB00200146BDE8F08DC1F35C
:100980000A52C1F3130141F480154FF0000BD10757
:1009900002D100186D41521E0027044640F2FF119B
:1009A000384601EB620A3E468046024600204FF47C
:1009B0008011FFF7E4FEC2197141BB1846EB01003C
:1009C000B4EB030C75EB000C04D3E41A65EB0005E3
:1009D00017460E46241908F101006D41804634285F
:1009E000E3DDF91946EB0600091BA84103D24FF0DD
:1009F000FF32134601E0002213461BEB070046EBD3
:100A00000A51BDE8F04DFFF712BF21B1826842F0F4
:100A10000102826003E0826822F001028260704776
:100A200000B585B001214FF4017003F073FA002086
:100A3000009001208DF804008DF805004FF460202F
:100A400002900020039003208DF81000694618489A
:100A500000F050F8062301220321154800F072F837
:100A6000062302220421124800F06CF80623032218
:100A700005210F4800F066F801210D4800F01AF832
:100A800001210B48FFF7C1FF094800F0B7F800BF8C
:100A9000074800F024F80028FAD1054800F0BEF815
:100AA00000BF034800F011F80028FAD105B000BDDE
:100AB0000024014021B1826842F48072826003E028
:100AC000826822F4807282607047014600208A6842
:100AD00012F0040F01D0012000E000207047014611
:100AE00000208A6812F0080F01D0012000E00020E9
:100AF0007047000030B502460020002350680F4CBC
:100B000020400D790C6844EA052420435060906829
:100B10000B4C2040D1E902542C434D7944EA450462
:100B200020439060D06A20F470000C7C641EE4B214
:100B3000234340EA0350D06230BD0000FFFEF0FFC7
:100B4000FDF7F1FFF0B504460D4600200021092D08
:100B500011DDE068A5F10A0606EB4607072606FA4E
:100B600007F18843A5F10A0606EB460603FA06F1EB
:100B70000843E0600CE0206905EB4507072606FA0C
:100B800007F1884305EB450603FA06F108432061A7
:100B9000072A0FDA606B561E06EB86071F2606FA39
:100BA00007F18843561E06EB860605FA06F1084350
:100BB000606322E00D2A0FDA206BD61F06EB860752
:100BC0001F2606FA07F18843D61F06EB860605FAAC
:100BD00006F10843206310E0E06AA2F10D0606EB7F
:100BE00086071F2606FA07F18843A2F10D0606EBD9
:100BF000860605FA06F10843E062F0BD816841F01F
:100C000008018160704721B1826842F4A0028260CD
:100C100003E0826822F4A00282607047816841F09C
:100C2000040181607047000070B503F0AFFE4FF41F
:100C3000A06003F029F902F0D7F905F0A5F802F059
:100C400057F900F067FCFFF7EBFE1748006842F227
:100C50001072B0FBF2F1B1F1807F00D31DE021F002
:100C60007F40401E4FF0E022506150170F220028B5
:100C700007DA13071D0E0D4B00F00F04241F1D553E
:100C800003E013071C0E0A4B1C5400BF00204FF05A
:100C9000E02290610720106100BF01210548FFF7A5
:100CA000B2FF06F0F5FF70BD9800002018ED00E0DF
:100CB00000E400E00024014000BFFEE7012803D16A
:100CC000C102044A116004E04FF40061014A121DA0
:100CD00011607047100C0140D0E90021914211DDF4
:100CE0000268816891420DDDD0E90112914202DD76
:100CF0008168016001E0416801600121134A82F8C6
:100D0000291021E0D0E90012914211DD82680168CA
:100D100091420DDDD0E90112914202DD416801608E
:100D200001E0816801600021084A82F829100BE087
:100D3000D0E90012914207D182680168914203D143
:100D40000321024A82F8291070470000BC010020EC
:100D50002DE9FC5F8046894617469A46002001909F
:100D6000002502200090002614E13C46FF2C02DC06
:100D7000A020019028E0B4F5007F02DAA2200190C3
:100D800022E0B4F5407F02DAA42001901CE0B4F523
:100D9000806F02DAA620019016E0B4F5A06F02DAA7
:100DA000A820019010E0B4F5C06F02DAAA200190EB
:100DB0000AE0B4F5E06F02DAAC20019004E0B4F58B
:100DC000006F01DAAE200190464609F0FF0B0025C6
:100DD000BAF1000F5BD052E0FF2C02DCA0200190A2
:100DE00028E0B4F5007F02DAA220019022E0B4F5F9
:100DF000407F02DAA42001901CE0B4F5806F02DA93
:100E0000A620019016E0B4F5A06F02DAA8200190A8
:100E100010E0B4F5C06F02DAAA2001900AE0B4F540
:100E2000E06F02DAAC20019004E0B4F5006F01DA63
:100E3000AE20019003F010FB019803F099F903F044
:100E4000E7F82844C5B2E0B203F092F903F0E0F805
:100E50002844C5B203F000FB0199491CC8B203F055
:100E600087F903F0D5F82844C5B203F0FDF806F879
:100E7000010B601C84B203F011F803F0E5FB5FEA9C
:100E80000B00ABF1010101F0FF0BA5D180E003F0F5
:100E9000E3FA2844C5B2019803F06AF903F0B8F800
:100EA0002844C5B2E0B203F063F903F0B1F8284476
:100EB000C5B204203D49086053E016F8010B03F069
:100EC00057F903F0A5F82844C5B2601C84B2E117B5
:100ED00004EB11710911B4EB011142D103F0B4FB21
:100EE0000A2001F094FBFF2C02DCA020019028E0F6
:100EF000B4F5007F02DAA220019022E0B4F5407F31
:100F000002DAA42001901CE0B4F5806F02DAA6207A
:100F1000019016E0B4F5A06F02DAA820019010E06D
:100F2000B4F5C06F02DAAA2001900AE0B4F5E06FD0
:100F300002DAAC20019004E0B4F5006F01DAAE20D3
:100F4000019003F089FA019803F012F903F060F8B8
:100F50002844C5B2E0B203F00BF903F059F8284475
:100F6000C5B2ABF10100C0B25FEA000BA5D116F823
:100F7000010B03F0FDF803F04BF82844C5B203F071
:100F800063FB04200949091F08600A2001F03FFBA8
:100F900005B906E00098411EC9B2009100287FF40F
:100FA000E4AE00BFB0462846BDE8FC9F14080140EF
:100FB00030B5034613B94FF6FF7024E0D2B164296F
:100FC00009D140F2E734E41A0F4D35F8244004F516
:100FD0004874A0B217E040F2E734E41A0A4D55F81D
:100FE000244004F5487404EB84040625B4FBF5F4AE
:100FF000A0B208E040F2ED34E41A4C434FF47A75A5
:1010000094FBF5F4A0B230BD987D000878B50024BB
:10101000009442F21074A04200DB601E33B18F4C8A
:10102000A48A1CB90A2490FBF4F4A0B24FF47A7499
:1010300090FBF4F40A2594FBF5F605FB16443034D6
:10104000E4B28DF80040642490FBF4F494FBF5F6D0
:1010500005FB16443034E4B28DF801400A2490FBBD
:10106000F4F494FBF5F605FB16443034E4B28DF845
:1010700002400A2490FBF4F504FB15043034E4B27A
:101080008DF80340012A35D1744C64888CBB9DF8DF
:101090000040302C04D1724CB4F840400C8005E084
:1010A0009DF800406E4D35F814400C809DF80140CD
:1010B000302C0AD10C886A4DB5F84050AC4204D1AE
:1010C000674CB4F840404C8005E09DF80140644D09
:1010D00035F814404C809DF80240614D35F81440BD
:1010E00044F400448C809DF8034035F81440CC80D3
:1010F000B2E0FFE7022A24D1584C64880CBB9DF86B
:101100000040302C04D1564CB4F840400C8005E02F
:101110009DF80040524D35F814400C809DF8014078
:101120004F4D35F8144044F400444C809DF8024083
:1011300035F814408C809DF8034035F81440CC807D
:101140008AE0032A1AD1454C6488BCB99DF8004056
:10115000434D35F8144044F400440C809DF80140A0
:1011600035F814404C809DF8024035F814408C80CE
:101170009DF8034035F81440CC806DE0374CA478DE
:1011800014F0F00F29D09DF80040354D35F814408B
:101190000C809DF8014035F814404C809DF80240C9
:1011A00035F814408C809DF8034035F81440CC800D
:1011B000012A04D18C8844F400448C804CE0022A3B
:1011C00004D14C8844F400444C8045E0032A43D1C8
:1011D0000C8844F400440C803EE09DF80040302C24
:1011E00004D11F4CB4F840400C8005E09DF800404D
:1011F0001B4D35F814400C809DF80140302C0AD16D
:101200000C88174DB5F84050AC4204D1144CB4F8DA
:1012100040404C8005E09DF80140114D35F81440E8
:101220004C809DF80240302C0AD14C880C4DB5F80A
:101230004050AC4204D10A4CB4F840408C8005E0E8
:101240009DF80240064D35F814408C809DF803400F
:10125000034D35F81440CC8078BD0000B400002068
:10126000987C000878B50024009423B11AB90A24A8
:1012700090FBF4F4A0B24FF47A7490FBF4F40A25D6
:1012800094FBF5F605FB16443034E4B28DF80040CB
:10129000642490FBF4F494FBF5F605FB164430341B
:1012A000E4B28DF801400A2490FBF4F494FBF5F6C7
:1012B00005FB16443034E4B28DF802400A2490FB5A
:1012C000F4F504FB15043034E4B28DF80340012A30
:1012D00031D19DF80040302C04D1494CB4F8404045
:1012E0000C8005E09DF80040454D35F814400C8019
:1012F0009DF80140302C0AD10C88414DB5F8405082
:10130000AC4204D13E4CB4F840404C8005E09DF81E
:1013100001403B4D35F814404C809DF80240384D5B
:1013200035F8144044F400448C809DF8034035F8AF
:101330001440CC8062E0022A21D19DF80040302C7C
:1013400004D12F4CB4F840400C8005E09DF80040DB
:101350002B4D35F814400C809DF80140284D35F890
:10136000144044F400444C809DF8024035F8144089
:101370008C809DF8034035F81440CC803EE09DF809
:101380000040302C04D11E4CB4F840400C8005E0E5
:101390009DF800401A4D35F814400C809DF801402E
:1013A000302C0AD10C88164DB5F84050AC4204D10F
:1013B000134CB4F840404C8005E09DF80140104DBE
:1013C00035F814404C809DF80240302C0AD14C88EE
:1013D0000B4DB5F84050AC4204D1094CB4F8404034
:1013E0008C8005E09DF80240054D35F814408C8056
:1013F0009DF80340024D35F81440CC8078BD0000C4
:10140000987C000818B502460B464FF6FF70009016
:1014100010E012F8010B9DF8004080EA04019DF8ED
:101420000100094C645C60408DF800000748405C96
:101430008DF801001800A3F10104E3B2E9D1BDF871
:101440000040204618BD0000D48E0008D48F00084C
:1014500001460C4A116000230B4AC2F8CC3000222E
:10146000094BA3F8E02000BF064A1268002AFBD10E
:10147000054AD2F8CC20044BB3F8E030B2FBF3F2CB
:1014800090B2704730000020B40000201948D0F816
:10149000C4001849B1F8BC1008441649C1F8C4008A
:1014A0000846D0F8C810B0F8BE0001441148C0F892
:1014B000C810D0F8CC10B0F8C00001440D48C0F8F6
:1014C000CC10B0F8DC00401C0A49A1F8DC0008464A
:1014D000B0F8DE00401CA1F8DE000846B0F8E000DD
:1014E000401CA1F8E0000448406840F001000249B7
:1014F00048607047B40000200000024021B102683B
:1015000042F00102026004E002684FF6FE731A40E6
:101510000260704700B58DB00121084602F0DAFC88
:101520001A4800F039F81A4802901A48039000202F
:101530000490032005900020069080200790400032
:1015400008908000099020200A9000020B90002053
:101550000C9002A90D4800F0CEF80B208DF8040085
:1015600001208DF805008DF806008DF8070001A810
:1015700002F050FC01220221044800F0B3F80121DE
:101580000248FFF7BBFF0DB000BD0000080002409D
:101590004C2401407001002001684FF6FE7211409A
:1015A00001600021016041608160C1604B49884257
:1015B00008D14A490839496841F00F01474A083AB9
:1015C00051608AE045491431884208D143490839BD
:1015D000496841F0F001414A083A51607DE03F49D5
:1015E0002831884208D13D490839496841F4706181
:1015F0003A4A083A516070E038493C31884208D193
:1016000036490839496841F47041344A083A516012
:1016100063E032495031884208D13049083949687D
:1016200041F470212D4A083A516056E02B4964314B
:10163000884208D129490839496841F47001274A8C
:10164000083A516049E025497831884208D1234958
:101650000839496841F07061204A083A51603CE01D
:101660001F49884206D1011F096841F00F01021F7E
:10167000116032E01A491431884208D11849091F13
:10168000096841F0F001164A121F116025E0144963
:101690002831884208D11249091F096841F4706154
:1016A0000F4A121F116018E00D493C31884208D1E1
:1016B0000B49091F096841F47041094A121F116062
:1016C0000BE007495031884207D10549091F0968D5
:1016D00041F47021024A121F116070470800024055
:1016E000080402401AB103680B43036002E0036878
:1016F0008B430360704710B50022026847F6F07311
:101700009A430C6A8B6823430C6923434C69234337
:101710008C692343CC6923434C6A23438C6A23435B
:101720001A430260CB6843600B6883604B68C360F8
:1017300010BD00002DE9F04F97B007460D46144646
:101740001E46DDF88090301B01D4014600E0414286
:1017500007F164025143C82291FBF2F8B44204DD60
:10176000A54202DD4FF0000805E0B44203DAA542CD
:1017700001DA4FF00008B8F57A7F14DA4046FEF738
:1017800042FFAE4AAE4BCDE90E0105F057FC0022F8
:10179000AC4BCDE91001FEF749FECDE91201FEF791
:1017A0007DFF824610E0A8F57A70FEF72CFF00223C
:1017B000A54BCDE9100105F041FC81F00041CDE9D8
:1017C0001201FEF76BFF82460AF5FA5840F6B83070
:1017D000804500DA804608FB07F014909B480068BB
:1017E00015909B4908EB0100FEF704FF1290601B67
:1017F000139001D4139901E0139949420846FEF76A
:10180000F9FE0790FEF769FF924A934BCDE9080174
:1018100005F014FCCDE90C01904907FB01F0FEF73F
:10182000F2FECDE90A01DDE90C23FEF702FECDE967
:101830000E01FEF765FF11901299FEF713FD834923
:101840000860AC4204DA0846006880F00040086096
:1018500083491598FEF7D0FC12907C4801681298D5
:10186000FEF772FC7F491390FEF7FCFC7749086095
:10187000764815990068FEF7B9FC8346B14506DD48
:10188000A54204DDB8F1000F01DD4FF00008A6EB22
:10189000090AB6EB090001D4014600E041428A463C
:1018A0004E453FDD07F12800032190FBF1F038445D
:1018B0000990FEF7A8FECDE90C013846FEF7A3FE1D
:1018C000CDE908015046FEF795FE0190FEF705FFB1
:1018D0004FF06632644BCDE9020105F0AFFB002208
:1018E000624BCDE90401FEF7FDFCCDE90601DDE91F
:1018F0000823FEF79EFDCDE90A01DDE90C23FEF782
:101900000AFECDE910015846FEF7E7FECDE90E01CB
:10191000DDE91023FEF7E6FCCDE91201FEF7F0FE4B
:10192000834640E04E453EDA07F12800032190FB54
:10193000F1F038440990FEF766FECDE90C01384617
:10194000FEF761FECDE908015046FEF753FE019017
:10195000FEF7C3FE4FF06632434BCDE9020105F0BE
:101960006DFB0022424BCDE90401FEF75FFDCDE99E
:101970000601DDE90823FEF75CFDCDE90A01DDE99A
:101980000C23FEF7C8FDCDE910015846FEF7A5FE71
:10199000CDE90E01DDE91023FEF7A4FCCDE912012B
:1019A000FEF7AEFE8346AC4222DB1498FEF72BFE18
:1019B000CDE90E01601BFEF726FE4FF033322D4BB2
:1019C000CDE90A0105F03AFBCDE90C01DDE90E2372
:1019D000FEF72FFDCDE91001FEF792FE2649129089
:1019E000FEF740FC59461390FEF7AEFB834621E01C
:1019F0001498FEF708FECDE90E01281BFEF703FE42
:101A00004FF033321B4BCDE90A0105F017FBCDE94E
:101A10000C01DDE90E23FEF70CFDCDE91001FEF708
:101A20006FFE16491290FEF71DFC59461390FEF703
:101A30008BFB8346584617B0BDE8F08FD7A3703DA7
:101A40000AD7F33F0078B4400000F03F4400002084
:101A5000A08601009A9999999999E93FC0C62D00ED
:101A60000000A0400000C0406666EE3F0000244039
:101A7000000024C03333F33F00606A4600606AC64A
:101A8000F0B50546FE48B0F9744041F28830844212
:101A90000ADD0024FA4890F8BA0003281DDA032072
:101AA000F74981F8BA0018E0F54890F8BA00032821
:101AB00003D10020F24981F8BA00F148408A38B1D8
:101AC00004EBC400052190FBF1F000F5A07004B216
:101AD000EB48808A08B9601D04B2CA2D7DD025DC90
:101AE000672D7BD011DC042D79D007DC85B3012D67
:101AF00076D0022D75D0032D74D104E1642D72D0FF
:101B0000652D71D0662DF7D1A7E16B2D6DD006DC68
:101B1000682D6BD0692D6AD06A2DEDD166E26C2DEF
:101B200066D0C82D65D0C92DE6D119E340F22D113C
:101B3000681A8D427DD014DCCF2D7BD009DCCB2DF3
:101B400079D0CC2D78D0CD2D77D0CE2DD4D1B2E395
:101B500018E0D02D72D0D12D71D0B5F5967FCBD1B4
:101B6000FEE363286CD006DC01286AD0022869D025
:101B70000328C1D1F5E3642865D065287BD06628A9
:101B8000BAD1EFE3261E01DB314600E0714288B294
:101B9000BB490A7D0123BB49FFF764FB002C04DA33
:101BA000B948B0F85A00B7490880B54890F8BA006B
:101BB000032809D1B248007830B94FF48070B14998
:101BC000C880888048800880AD490A7DB1F8AC1093
:101BD00088B20123AB4908310CE0E1E26FE1BFE0DC
:101BE0000BE049E0FEE3EBE00CE132E298E1CAE110
:101BF00074E293E2FFF70AFA2AE2261E01DB31467D
:101C000000E0714288B29E490A7D01239D49FFF799
:101C100029FB002C04DA9C48B0F85A009949088046
:101C2000974890F8BA00032815D19548007890B9E4
:101C30000AE0E4E360E3D3E2F2E211E37DE3A1E34F
:101C4000F0E3F0E3F0E3F0E34FF480708D49C880F7
:101C50008880488008808A49B1F8821088B20023C1
:101C6000012288490831FFF7D1F98748B0F89E0072
:101C700084490881C0E7EEE3261E01DB314600E01F
:101C8000714288B27E490A7D01237E49FFF7EAFA54
:101C9000002C04DA7C48B0F85A007A490880784869
:101CA00090F8BA00032809D17548007830B94FF48C
:101CB00080707449C8808880488008807048B0F976
:101CC0008000B0F57A7F0EDB6D48B0F980000A2104
:101CD00090FBF1F086B2002301226A4908313046B8
:101CE000FFF794F909E06649B1F8801088B2002343
:101CF000022264490831FFF789F96348B0F8860089
:101D00006049088178E7261E01DB314600E0714218
:101D100088B25B490A7D01235A49FFF7A3FA002CD8
:101D200004DA5948B0F85A0056490880544890F8E7
:101D3000BA00032809D15248007830B94FF48070B6
:101D40005049C8808880488008804D490A7DB1F894
:101D5000761088B201234B490831FFF757F94BE75A
:101D6000261E01DB314600E0714288B244490A7DFB
:101D700001234449FFF776FA002C04DA4248B0F810
:101D80005A00404908803E4890F8BA00032809D11B
:101D90003B48007830B94FF480703A49C880888059
:101DA0004880088036498889002301223549083156
:101DB000FFF72CF93448B0F8820032490881DDE39E
:101DC0003148B0F8BE002F4908802F48B0F8A6006F
:101DD00048802D48B0F88A0088802B48B0F8A800C9
:101DE000C8802948B0F8400008812748B0F8400072
:101DF00048812548B0F8400088812348B0F8620047
:101E0000C881BBE32048B0F840001E4908801E4846
:101E1000B0F8400048801C48B0F8920088801A480A
:101E2000B0F89C00C8801848B0F8400008811648F7
:101E3000B0F8400048811448B0F84000888110484C
:101E4000008A20B11048B0F89600C88104E00E481E
:101E5000B0F894000B49C88190E30B48B0F84000FB
:101E6000084908800848B0F8860048800648B0F85D
:101E70005A0088800448B0F88C00C880024805E009
:101E8000B40000205C020020987C0008B0F84000FC
:101E90000881FE48B0F840004881FC48B0F8400096
:101EA0008881FB48408A20B1F848B0F88C00C8818E
:101EB00004E0F648B0F88600F649C8815EE3F348CE
:101EC000B0F8AA00F3490880F048B0F89C004880B8
:101ED000EE48B0F892008880EC48B0F8A800C880BE
:101EE000EA48B0F840000881E848B0F8400048816E
:101EF000E748808A50B1E548B0F8600040F40040FF
:101F00008881E248B0F86200C88108E0DF48B0F894
:101F10006200E0498881DD48B0F86000C8812DE3A7
:101F2000DA48B0F89000DB490880D848B0F8A6003D
:101F30004880D648B0F886008880D448B0F892002F
:101F4000C880D248B0F840000881D148C08A60B14A
:101F5000CE48B0F8A6004881CC48B0F8A6008881E9
:101F6000CA48B0F8A400C8810CE0C848B0F8A00086
:101F7000C8494881C548B0F8AE008881C348B0F868
:101F80009A00C881FAE2C148B0F8A800C1490880A7
:101F9000BE48B0F8AA004880BC48B0F8A4008880C9
:101FA000BA48B0F89C00C880B848B0F84000088132
:101FB000B748008B60B1B548B0F840004881B348DD
:101FC000B0F89E008881B148B0F89C00C8810CE050
:101FD000AE48B0F89E00AF494881AC48B0F88C00DC
:101FE0008881AA48B0F88C00C881C7E2A748B0F839
:101FF0008400A8490880A548B0F8AA004880A348F2
:10200000B0F8B4008880A148B0F8B400C8809F48F8
:10201000B0F8400008819E48408B60B19B48B0F802
:10202000400048819948B0F89E0088819748B0F8F0
:102030009C00C8810CE09548B0F89E009549488105
:102040009248B0F88C0088819048B0F88C00C88124
:1020500094E28E48B0F840008E4908808B48B0F872
:10206000980048808948B0F89E0088808748B0F87A
:102070008600C8808548B0F8400008818448808B7D
:1020800060B98248B0F89E0048818048B0F88C0062
:1020900088817E48B0F88C00C8811EE07C48808B27
:1020A00001280DD17948B0F89E007A4948817748D7
:1020B000B0F89C0088817548B0F86200C8810CE0D7
:1020C0007248B0F89E00734948817048B0F89C008F
:1020D00088816E48B0F86400C8814FE26B48B0F860
:1020E00040006C4908806948B0F840004880674863
:1020F000B0F8920088806548B0F88800C8806449CC
:10210000C98B88B200231A4662490831FEF77EFF68
:102110005E48B0F840005F4908812FE25B48B0F8A4
:10212000BE005C4908805948B0F8A600488057486E
:10213000B0F88A0088805548B0F8A800C880534895
:10214000B0F8400008815148B0F8400048814F483D
:10215000B0F8400088814D48B0F86400C8810DE2B5
:102160004A48B0F882004B4908804848B0F89800C7
:1021700048804648B0F85A0088804448B0F890003B
:10218000C8804349098C88B20023012241490831A3
:10219000FEF73CFF3D48B0F840003E490881EDE1C4
:1021A0003A48B0F882003B4908803848B0F89800B7
:1021B00048803648B0F85A0088803448B0F8980013
:1021C000C8803349498C88B2002301223149083143
:1021D000FEF71CFF2D48B0F85A002E490881CDE1CA
:1021E0002A48B0F890002B4908802848B0F88600AB
:1021F00048802648B0F85A0088802448B0F89000FB
:10220000C8802349898C88B20023012221490831E2
:10221000FEF7FCFE1D48B0F886001E490881ADE1BE
:102220001A48B0F890001B4908801848B0F886009A
:1022300048801648B0F85A0088801448B0F89800D2
:10224000C8801349C98C88B2002301221149083182
:10225000FEF7DCFE0D48B0F886000E4908818DE1DE
:102260000A48B0F8A6000B4908800848B0F89E005C
:1022700048800648B0F88C0088800448B0F8A80070
:10228000C8800349098D88B2002305E0987C0008C6
:10229000B40000205C0200201A46B949FEF7B6FEE1
:1022A000B848B0F8A800B64908390881B548B0F870
:1022B0004000488162E1B348B0F8A600B04908394F
:1022C0000880B048B0F89E004880AE48B0F88C0056
:1022D0008880AC48B0F8A800C880AB49498D88B266
:1022E00000230122A649FEF791FEA648B0F882001D
:1022F000A3490839088141E1A248B0F8A600A049E5
:10230000083908809F48B0F8A80048809D48B0F878
:10231000840088809B48B0F8B200C8809A49898DB3
:1023200088B2002302229649FEF770FE9548B0F865
:10233000A80093490839088120E19248B0F8A60026
:102340008F49083908808F48B0F8A80048808D4828
:10235000B0F8840088808B48B0F8B200C88002E0F2
:1023600028E077E0C9E08849C98D88B200230222BD
:102370008349FEF74BFE8348B0F8A0008049083936
:102380000881FBE07F48B0F85A007D490839088091
:102390007C48B0F88A0048807A48B0F8A400888069
:1023A0007848B0F85A00C880774991F8420000F0A8
:1023B00021FAE3E07348B0F8BE007149083908809B
:1023C0007048B0F8A60048806E48B0F88A0088804F
:1023D0006C48B0F8A800C8806A48B0F8400008818E
:1023E000684800E0C9E0B0F8400048816548B0F8AE
:1023F000400088816348B0F86600C881BEE061484B
:10240000B0F840005E49083908805E48B0F84000E6
:1024100048805C48B0F8400088805A48B0F86200B4
:10242000C880ABE018E001E013E038E05548B0F8B0
:1024300040005349083908805248B0F840004880AD
:102440005048B0F8400088804E48B0F86400C8801A
:1024500094E093E092E039E04A48B0F8BE00484981
:10246000083908804748B0F8A60048804548B0F8C9
:102470008A0088804348B0F8A800C8804148B0F876
:10248000400008813F48B0F8400048813D48B0F81E
:10249000400088813B48B0F86800C8816EE03A4847
:1024A000D0F8D4000A21B0FBF1F086B2002302225A
:1024B000334908393046FEF7D5FE3349C98E88B214
:1024C00000231A462E49FEF7A1FD57E02E48D0F80A
:1024D000D4000A21B0FBF1F086B200230222284981
:1024E00008393046FEF7BEFE2749098F88B200231F
:1024F00003222349FEF78AFD40E02348B0F97C001F
:102500000A2190FBF1F6002E01DB304600E070421C
:1025100087B2002301221A4908393846FEF776FDB2
:102520001948B0F97C00002818DA1748B0F97C0087
:10253000642190FBF1F6002E01DB304600E0704292
:1025400087B200231A460E4908393846FEF75EFD69
:102550000C48B0F85A000A49083948800948B0F8D0
:102560008A000749083908800749498F88B2002343
:102570001A460349FEF74AFD00E000BF00BFF0BD68
:1025800064020020987C0008B400002010B50024EC
:1025900000211D4801834FF4487141870021C18605
:1025A0004FF47A71018714210186012181824183D0
:1025B000002181834FF4FA61C1878910018441842D
:1025C000A02181840221C18401210185C821418586
:1025D000642181853221C18500BF08E0002204F119
:1025E0001B0009490E3121F81020601CC4B2142CC4
:1025F000F4DBAA200449C88100231A46642102485A
:102600000E30FEF7A5FB10BDB40000207047014658
:1026100005E0002001E0421CD0B2FF28FBDB0A00ED
:10262000A1F1010399B2F4D1704700000B2873D2D5
:10263000DFE800F0D74E6006AFC3731E36879B00FD
:102640006949897A022912D06849B1F8A810684A04
:1026500011806649B1F8861041F400415180634908
:10266000B1F89E1091806149B1F8A010D180B9E015
:102670005D49897A022912D05C49B1F8A8105C4AF8
:1026800011805A49B1F8861041F4004151805749F0
:10269000B1F8A61091805549B1F8A810D180A1E0F9
:1026A0005149897A022912D05049B1F8A810504AEC
:1026B00011804E49B1F8861041F4004151804B49D8
:1026C000B1F8A41091804949B1F88A10D18089E00D
:1026D0004649B1F88210464A11804449B1F8981031
:1026E00051804249B1F85A1091804049B1F8901098
:1026F000D18077E03D49B1F882103D4A11803B49D5
:10270000B1F8981051803949B1F85A109180374981
:10271000B1F89810D18065E063E03449B1F89010C9
:10272000334A11803149B1F8A81041F40041518079
:102730002E49B1F89E1091802C49B1F8A010D1809B
:1027400050E02A49B1F89010294A11802749B1F880
:10275000A81041F4004151802449B1F8A61091809D
:102760002249B1F8A810D1803CE02049B1F8A81066
:102770001F4A11801D49B1F8A41041F40041518055
:102780001A49B1F8A61091801849B1F8A810D18063
:1027900028E01649B1F88C10154A11801349B1F898
:1027A000AA1041F4004151801049B1F85A109180AB
:1027B0000E49B1F86210D18014E00C49B1F88C10C8
:1027C0000B4A11800949B1F8AA1041F40041518027
:1027D0000649B1F85A1091800449B1F86410D180CB
:1027E00000E000BF00BF7047B4000020987C0008E4
:1027F0005C02002010B5002100220A2390FBF3F3B5
:102800003033D9B20A2390FBF3F403FB14033033C3
:10281000DAB21B4B33F811301A4C2381184B33F8C2
:1028200012306381164BB3F85A30A38100F11A03BA
:10283000D9B2154B33F911300A2B04DD104BB3F824
:102840006030E3811BE0104B33F811300A2B0DD1BF
:102850000B4BB3F85A300A4CB4F862402343094C8E
:10286000A381074BB3F86030E38108E0064B33F9EE
:1028700011303033024C34F81330024CE38110BD78
:10288000987C00085C020020C2000020F8B50446D5
:102890000025022C74D10020FC498880084641782C
:1028A000007800EBC00202EB001001EB8000CC28A6
:1028B00067D017DC6C287DD00BDC04287BD003DCD0
:1028C00048B3032878D17DE0642876D06B28F9D10D
:1028D000D8E0C82872D0C92871D0CA2870D0CB28B7
:1028E000F0D142E1B0F5967F6BD008DCA0F1CD00CD
:1028F000052861D2DFE800F0FEFDFCFBFA00B0F530
:10290000C87F7DD0A0F5807091387AD0012879D029
:102910000228D7D1FBE1DD48808B022803D10320B8
:10292000DA49C88007E2D948408A88B90020009077
:10293000D648B0F8AC0082B2012341F294114FF4B2
:10294000C87003F077FC00B2D049A1F8AC0010E0E9
:1029500000200090CD48B0F8AC0082B2012342F2D2
:10296000E4014FF4826003F065FC00B2C749A1F8AE
:10297000AC00C648408A28B9C448B0F9AC500CE055
:10298000DAE10AE1C148B0F9AC00A0F5A07000EBB3
:102990008000092190FBF1F005B2BC48C5871820E2
:1029A000BA490881084690F8E200032801D101F0F5
:1029B00081FBC0E17DE04BE0BCE156E09FE0A2E09E
:1029C000BAE078E1B148808B18B10320AF49C880E4
:1029D000B1E1AE48408AF8B9AC48B0F9AC0000EBC0
:1029E000401000EB4000642190FBF1F086B2002023
:1029F0000090A648B0F8760082B20123314602E08A
:102A00005DE160E170E14FF4C87003F013FC01B2C6
:102A10009E48A0F876101AE09C48B0F9AC0000EB94
:102A2000401000EB4000642190FBF1F086B20020E2
:102A300000909648B0F8760082B2012331464FF4F8
:102A4000826003F0F7FB01B29048A0F8761072E1C3
:102A5000002000908D488289012340F2E731002058
:102A600003F0E8FB8949888165E18848C08BB0F5AF
:102A70005E7F03D104208549087002E0022083496B
:102A8000087058E18148408840F0F0007F49488054
:102A90000846808B30B10846808B401E01B27B48CF
:102AA000818302E0022179488183072077490881E8
:102AB00041E17648808B18B103207449C8803AE11F
:102AC000002000907148C08B82B200234FF47A71CD
:102AD000184603F0AFFB01B26C48C183B0F91E0089
:102AE000FF2808DC08206949088107E0D0E0B4E04D
:102AF0009CE082E069E00020644908811BE101203C
:102B00006249087017E16148808B18B103205F4962
:102B1000C88010E1002000905C48008C82B2002345
:102B200040F2E7311E2003F085FB01B257480184D3
:102B3000092056490881FEE05448808B18B10320D3
:102B40005249C880F7E0012000905048408C82B282
:102B5000002340F2E7311E2003F06CFB01B24B482A
:102B600041840A2049490881E5E04848808B18B132
:102B700003204649C880DEE0002000904348808C56
:102B800082B20023FA21642003F054FB01B23F48D3
:102B900081840B203D490881CDE03C48808B18B1F1
:102BA00003203A49C880C6E0002000903748C08C16
:102BB00082B200230A21184603F03CFB01B23348DD
:102BC000C1840C2031490881B5E03048808B18B1B0
:102BD00003202E49C880AEE0002000902B48008DD5
:102BE00082B200231E21184603F024FB01B22748BD
:102BF00001850D20254908819DE02448808B18B16E
:102C000003202249C88096E0002000901F48408D94
:102C100082B200234FF4FA71642003F00BFB01B27F
:102C20001A4841850E201949088184E01748808B95
:102C300018B103201549C8807DE01448808D82B208
:102C4000002340F2BF31184603F0A6FA01B20F4844
:102C500081850F200D4908816DE00C48808B18B1EB
:102C600003200A49C88066E0002000900748C08D14
:102C700082B200236321184603F0DCFA01B2034854
:102C8000C18510200149088155E00000B4000020F2
:102C9000002000902948B0F8420082B2002314219D
:102CA000012003F0C7FA01B22448A0F84210002026
:102CB000224948803FE00220204908703BE0022082
:102CC0001E49087037E0002000901C48C08E82B278
:102CD0000023C821184603F0ADFA01B21748C18697
:102CE00014201649088126E0002000901348008F28
:102CF00082B200234FF496614FF4487003F09AFAC1
:102D000001B20E48018715200C49088113E000200C
:102D100000900A48408F82B2002340F214514FF4D1
:102D20002F7003F087FA01B2044841871620034947
:102D3000088100E000BF00BFF8BD0000B400002023
:102D400010B56348006810F0400F7DD04020604906
:102D500008606048C08A18B15F480078642831DA9A
:102D60005C48B0F9820040F2E731884224DA4FF043
:102D70008040808A40F001004FF080418882554AAF
:102D8000B2F8EC10B2F8822090B20122FEF710F9EE
:102D90004FF0804188854FF6FE7008824D48B0F8AC
:102DA000820020B10846008840F0010008804FF4FE
:102DB00080704A49086037E04FF480704749091F26
:102DC000086031E04348B0F8EE0078B9414AB2F803
:102DD000EC10B2F8822090B20022FEF7E9F83D49EB
:102DE000A1F8F2004FF480703C4908603948B0F80F
:102DF000EE10B0F8EE00401C364AA2F8EE00104685
:102E0000B0F8F200814204D14FF480703349091FB9
:102E100008604FF08040808A40F001004FF0804110
:102E200088824FF6FE7008822A4890F8EA006428EB
:102E30004CDA284890F8E800401CC0B2254981F8D7
:102E4000E8000A2842D100E040E0084690F8EA0095
:102E50000A2810DDB1F8E410214A92FBF1F11D4A75
:102E6000B2F8EC20881800EBD071C1F34F01194A79
:102E7000A2F8EC1008E01748B0F8E400184991FBFC
:102E8000F0F01449A1F8EC001248B0F8EC006E28FC
:102E900004DC64200F49A1F8EC0003E078200D4920
:102EA000A1F8EC000B48B0F8EC00052190FBF1F024
:102EB0000849A1F8F600084690F8EA00401C81F89D
:102EC000EA000020A1F8E40081F8E80010BD00004D
:102ED00014040140B400002027000020140C01401D
:102EE000A0860100014908607047000014040140F9
:102EF0000EB50121084601F00DF80621002000F072
:102F0000F3F84020FFF7EEFF4020019000208DF8FD
:102F1000080008208DF8090001208DF80A0001A89A
:102F200000F018F80A48006820F0400008490860DE
:102F300017208DF8000000208DF8010001208DF889
:102F400002008DF80300684600F064FF0EBD00002B
:102F500004040140002123498279002A3AD00A461C
:102F6000126803689A430B461A600A1D12680368C8
:102F70009A430B1D1A60027911440A6803681A43C8
:102F80000A60184A0832126803689A43154B0833DE
:102F90001A601A1D126803689A43124B0C331A60A8
:102FA0004279102A0ED11A1F126803681A430D4B7A
:102FB00008331A601A1D126803681A43094B0C3350
:102FC0001A600DE00749427911440A6803681A4300
:102FD0000A6005E0027911440A6803689A430A60AE
:102FE000704700000004014008B50121082000F0EE
:102FF00091FF02208DF802004FF4C850ADF8000098
:1030000010208DF803006946344800F08DF840F236
:103010000640ADF8000048208DF8030069462F48AF
:1030200000F082F80121042000F074FF0720ADF8C1
:10303000000014208DF803006946294800F074F858
:103040003820ADF8000000208DF8030069462448C0
:1030500000F06AF84FF4A650ADF8000004208DF897
:10306000030069461E4800F05FF84FF48070ADF829
:10307000000010208DF803006946194800F054F84C
:103080004FF40070ADF8000018208DF80300694679
:10309000134800F049F80121102000F03BFF4FF6E3
:1030A000FF70ADF8000010208DF8030069460D4850
:1030B00000F03AF807210A4800F0C1F84FF48051B7
:1030C000064800F0BAF84FF48071044800F0B5F8F3
:1030D00048F2FF01034800F0B4F808BD000C0140BD
:1030E000000801400010014030B500228B071C0F82
:1030F0000F2303FA04F20B4B8C1053F82430934344
:10310000084C8D1044F8253023468C1053F8243099
:103110008C07240F00FA04F42343024C8D1044F86A
:10312000253030BD080001402DE9F0410246002560
:103130000026002000230024002791F803C00CF093
:103140000F0591F803C01CF0100F03D091F802C0D6
:103150004CEA050591F800C0BCF1000F31D01468AD
:1031600000202BE04FF0010C0CFA00F3B1F800C086
:103170000CEA03069E4220D183004FF00F0C0CFA9C
:1031800003F7BC4305FA03FC4CEA040491F803C0BE
:10319000BCF1280F06D14FF0010C0CFA00FCC2F86C
:1031A00014C00AE091F803C0BCF1480F05D14FF0FC
:1031B000010C0CFA00FCC2F810C0401C0828D1D346
:1031C0001460B1F800C0BCF1FF0F34DD546800207A
:1031D0002EE000F1080C4FF0010808FA0CF3B1F8EA
:1031E00000C00CEA03069E4221D183004FF00F0C71
:1031F0000CFA03F7BC4305FA03FC4CEA040491F80B
:1032000003C0BCF1280F05D100F1080C08FA0CF836
:10321000C2F8148091F803C0BCF1480F07D100F147
:10322000080C4FF0010808FA0CF8C2F81080401C96
:103230000828CED35460BDE8F08141617047016138
:103240007047C1607047000010B501460022314848
:10325000314B1B6850F8230088421CD300BF17E095
:103260002D480068202803D12A48D0F8801011E0AA
:103270002848294B1B6850F82300884205D326486C
:103280000068401C244B186000E003E0501C42B270
:10329000212AE5DB1EE0002214E01E481E4B1B68BD
:1032A00050F82300884205D81B480068401E1A4B7E
:1032B000186000E008E018480068012800D103E029
:1032C000501C42B2212AE8DB00BF13480068401CB2
:1032D000114B186010480068401E0E4B53F8200038
:1032E0000D4C246853F82430C31A0A480A4C246849
:1032F00050F82400081A4FF4FA746043B0FBF3F35B
:10330000054800686043A0F598508838C11A08B293
:1033100010BD0000508E00083C00002030B504466F
:1033200000230CB90B4B00E00B4B33F81250501E2E
:1033300033F81000281A4FF47A7555436D1A684314
:103340004FF47A7590FBF5F033F81250281A01B259
:10335000084630BD388D0008C48D000870B50B4696
:103360000BB9314900E03149314C246831F814403F
:10337000844222DC00221DE02D4C246831F81440E8
:10338000844205DC2A4C2468641C294D2C6005E02D
:10339000274C2468641E264D2C600DE0244C2468C4
:1033A000452C05DDB1F88A004524214D2C6003E051
:1033B000541CE2B2462ADFDB1BE0002216E01C4C64
:1033C0002468012C03DA0124194D2C6010E0184CFC
:1033D000246831F81440844205DB154C2468641ECF
:1033E000134D2C6000E003E0541CE2B2462AE6DBF9
:1033F00000BF0F4C246831F814500D4C2468641E33
:1034000031F814402D1B0A4C246831F81440241A5A
:1034100042F21076744394FBF5F5054C246836119E
:103420007443C5EB041070BD388D0008C48D0008CE
:10343000400000202DE9F0411D48D0F8CC001C4987
:10344000B1F8E0104900B0FBF1F084B2072C01DACA
:10345000002401E0E01F84B2B4F5E17F0FDA2046DA
:10346000FDF7E2F80546134A134BFCF7E2FF074667
:10347000FDF714F901B20E48A0F880100EE02046C6
:10348000FDF7D2F805460D4A0D4BFCF7D2FF074673
:10349000FDF704F901B20648A0F8801000210448A5
:1034A000C0F8CC1000200249A1F8E000BDE8F0818E
:1034B000B4000020713D0AD7A370F53F5C8FC2F5C0
:1034C000285CF33F2DE9F041064600240025002743
:1034D0004948D0F8C850B0F8DE70642F05DD0021EF
:1034E000A0F8DE10C0F8C81001E0BDE8F08195FB3F
:1034F000F7F54148B0F93A00684300EB800040001E
:1035000040F61E41491B90FBF1F5002406E0601CCB
:1035100036F8100026F81400601C44B2092CF6DBC3
:103520002846FFF791FE7082718A3348A0F87C101C
:103530000025002404E036F914000544601C44B260
:103540000A2CF8DB0A2095FBF0F52B48B0F97A003D
:10355000A84208DA2848B0F87A00801C01B2264850
:10356000A0F87A100CE02448B0F97A00A84207DDF0
:103570002148B0F87A00801E01B21F48A0F87A10E6
:103580001D48B0F97A0041F69021884203DD1A48BF
:10359000A0F87A100AE01848B0F97A0010F5FA6F2E
:1035A00004DA4FF630011448A0F87A101248B0F946
:1035B0007A00002812DD1048B0F97A004FF47A71D1
:1035C00090FBF1F044B20C48B0F97A0090FBF1F2B4
:1035D00001FB120018B1601C44B200E00124E2B209
:1035E000054BB3F97A10B3F91000FFF797FE0249C3
:1035F000C1F8D00000BF78E7B40000202DE9F04FFB
:1036000089B0064600200890059006900790002596
:103610008346002481468246F148D0F8C490B0F831
:10362000DCA0BAF1640F06DD0020ED49A1F8DC0052
:10363000C1F8C40002E009B0BDE8F08F99FBFAF0D0
:10364000E749A1F8AE000846B0F9360000FB0AF4DD
:10365000A14502DDA9EB040901E04FF000094FEAA2
:103660000A30FCF7C7FFDE490490B1F93800FCF7D7
:10367000C1FF03904846FCF7BDFF4FF08441019025
:10368000FCF7BAFD02900399FCF7B6FD8046049959
:10369000FCF7E8FD0746FCF7EDFFD149C1F8D4007F
:1036A0000846D0F8D400D1F8D0104418002506E020
:1036B000681C56F8200046F82500681C45B2042D09
:1036C000F6DBC748B0F910102046FFF747FE30611F
:1036D0000024002504E056F825000444681C45B287
:1036E000052DF8DB322094FBF0F4BD48C0F8A04073
:1036F0000146D1F8A810601A01D4014600E0414209
:10370000042902DDB648C0F8A840B548B0F97840B1
:10371000D0F8A8000A2190FBF1F001B2B048A0F85F
:1037200078100146B1F97410081B01D4014600E07D
:1037300041420C46642C00DD64244FFA84FBA84807
:1037400090F8E200042833D1A548B0F93E00A5491D
:10375000B1F90010884206D00120A349087000206A
:10376000A249087027E09E48B0F93E00A049B1F98F
:103770000010884206DC9A48B0F97810B0F93E0093
:1037800081420EDD9648B0F93E009949B1F900102A
:10379000884210DB9248B0F97810B0F93E008142BF
:1037A00009DB01209349087002209049087002E06B
:1037B00001208D4908708A48B0F878008C4908804B
:1037C0008748C08F874908808549B1F97820B1F9C9
:1037D0003E10501A01D4014600E041420C46322C02
:1037E00009DD01208049087080480078022802D154
:1037F00001207E490870642C0CDD7949B1F978000C
:10380000FCF7F8FE7C49086000207A490870764988
:103810000870D2E074480078012831D1BBF1020F62
:1038200020DD0BF10500FCF7E5FE6D490490B1F9D0
:10383000781001EB8100FCF7DDFE03905846FCF7A1
:10384000D9FE02906C4801680298FCF7D5FC8046CE
:103850000399FCF779FC07460499FCF703FD6649D8
:10386000086009E05E49B1F97800FCF7C3FE6249DF
:10387000086000205C49087000205E4908709CE0E8
:10388000574890F8E200042872D15A48007880B373
:103890005348B0F97810B0F93E00081A0590059821
:1038A000322805DD059832380790322005900CE06B
:1038B000059810F1320F06DA0598323007906FF054
:1038C0003100059001E00020079005980A2805DBEB
:1038D00005980A3806900A2005900DE0059810F129
:1038E0000A0F07DC05980A3006906FF00900059072
:1038F00002E011E0002006900521059890FBF1F010
:103900000322069991FBF2F10844079901443448D7
:10391000B0F93E000C1802E03148B0F97840304967
:10392000B1F97410081B01D4014600E04142059131
:103930000598052803DD4FF07A5008900DE00598B2
:10394000032802DD2D48089007E00598022802DDD3
:103950002B48089001E02B4808902448007840B993
:103960001F49B1F97800FCF745FE2349086024E0BF
:1039700019E01B48B0F97400A04207DD1E48089901
:103980000068FCF733FC1C49086016E01448B0F9E5
:103990007400A04211DA184808990068FCF7D4FBBB
:1039A0001549086009E00E49B1F97800FCF722FEDC
:1039B0001149086000200F4908700F480068FCF7A3
:1039C0008CFE0746104A114BFCF78CFCCDE9020136
:1039D000FCF764FE01B20248A0F8741000BF2AE6AA
:1039E000B40000204A0000201F0000201E0000201C
:1039F0004C0000202000002050000020CDCC4C3E88
:103A00009A99193ECDCCCC3DCDCCCCCCCCCCEC3F96
:103A10000448B0F93E0000EB800040000149C1F8C5
:103A2000A4007047B400002070B5002501201A4999
:103A3000088014211948A0F8821000201849088035
:103A400000BF154800880028FBDC00BF1448008830
:103A50000028FBDC00211148A0F882101920FDF796
:103A6000F7FC0446B4F5A07F05DD092500212846B2
:103A700003F042F805E024B906250021284603F0AA
:103A80003BF84FF4FA700749086000BF054800682A
:103A90000028FBD170BD000028000020B4000020E9
:103AA0002A0000203000002000BFFEE710B50446C9
:103AB00074B94FF480510E48FFF7BFFB4FF4FA5032
:103AC0000C49086000BF0B4800680028FBD10EE0DD
:103AD000012C0CD121030648FFF7B1FB4FF4FA503B
:103AE0000449086000BF034800680028FBD110BDEE
:103AF000000C0140300000200A2001E0411EC8B245
:103B00000028FBD17047000010B500202E49A1F815
:103B1000EE0044F62060A1F8F000A1F8F200642065
:103B2000A1F8EC0001230022022127480E30FDF706
:103B30000FF968B92448C089AA2807D101230022B7
:103B4000642121480E30FDF703F901E0FEF71EFD68
:103B50001D48B0F91E00FF2802DD00211A48C1836C
:103B6000002119480183B0F92C00642190FBF1F089
:103B70004FF4616148431449B1F92C10642291FB60
:103B8000F2F302FB1311C1EB011100EB810080B2D3
:103B90000D49A1F89A00A1F89A000846408A20B978
:103BA0000846C08FA1F8AC000DE00748B0F93E0010
:103BB00000EBC000052190FBF1F000F5A07000B211
:103BC0000149A1F8AC0010BDB400002000BFFEE721
:103BD0002DE9FC4782460AF11900FCF714FD064660
:103BE0000022114B03F02AFA044600224FF08043D2
:103BF000FCF71FFC804600220C4BFCF714FCCDE9BF
:103C00000001FCF74BFD8246BAF1960F02DD4FF042
:103C1000960A04E0BAF10A0F01DA4FF00A0A0FFA25
:103C20008AF0BDE8FC8700000000E03F000024406F
:103C30002DE9FF5F044689469246A9EB0A0101F58A
:103C4000C870FCF7D7FC04F10A0101EB8101019077
:103C50008800FCF7CFFC00900199FCF703FB83463A
:103C6000FCF73BFD0022084BCDE9020103F0E6F929
:103C700007460022054BFCF7DCFB0546FCF70EFD72
:103C800000B204B0BDE8F09F0000E03F0000344007
:103C9000322809D10021054A9180518011460978C6
:103CA00011B901211170517070470000B40000205B
:103CB00002287BDD282879DA00213D4A9180518055
:103CC0001146097831B101293CD0022948D0042994
:103CD0006AD15AE03649897A0A2291FBF2F302FB53
:103CE000131169B932494978022905DA304949780E
:103CF000491C2F4A517024E000212D4A517020E0C8
:103D00002B49897A0A2291FBF2F302FB1311012954
:103D100003D10321264A517013E02549897A0A22EA
:103D200091FBF2F302FB131102290AD120494978D1
:103D3000042903D102211E4A517002E004211C4AC9
:103D4000517032E01A494978082905DA184949784A
:103D5000491C174A517002E00021154A517024E0B5
:103D60001349497809290CDA11494978491CC9B223
:103D70000F4A5170082907D101220D49A1F84220AC
:103D800002E000210A4A51700FE0094949780329ED
:103D900006DA07494978491C054A517003E005E0F5
:103DA0000021034A517000E000BF00BF70470000CF
:103DB000B400002003281BD10021144A91805180B7
:103DC0001146097809B3002111701146897A11B999
:103DD000002151700AE00D49897A012903D103219C
:103DE0000A4A517002E00421084A5170FF200CE099
:103DF00032280AD10549097839B90221034A1170DC
:103E0000012151700021918051807047B400002041
:103E10007047000070B5002100230F22C4780CB356
:103E2000164C246804F4E064C4F5E064210AC1F18E
:103E30000403CA40447804FA03F18478144021430F
:103E400009010F4C0678A155047804F01F050124E0
:103E5000AC4005786D114FF0E02606EB8505C5F8FE
:103E6000004109E0047804F01F050124AC40054D31
:103E70000678761145F8264070BD00000CED00E094
:103E800000E400E080E100E002490143024A1160E1
:103E9000704700000000FA050CED00E000B50220BC
:103EA0000A490860FFF728FE01200849091F086039
:103EB000FFF722FE02200549091F0860FFF71CFEDC
:103EC000022002490860FFF717FE00BD14080140F8
:103ED0007047000029B1064A52690243044B5A61F7
:103EE00004E0034A52698243014B5A617047000063
:103EF0000010024029B1064AD2690243044BDA613C
:103F000004E0034AD2698243014BDA617047000042
:103F10000010024029B1064A92690243044B9A619B
:103F200004E0034A92698243014B9A6170470000A2
:103F30000010024030B500210022002400232D4D46
:103F40006D6805F00C0121B1042905D0082923D1A1
:103F500005E0294D056022E0284D05601FE0254D54
:103F60006D6805F47012234D6D6805F480340225E8
:103F700005EB92421CB9224D554305600BE01D4DE7
:103F80006D6815F4003F03D01E4D5543056002E0F7
:103F90001A4D5543056002E0174D056000BF00BF94
:103FA000144D6D6805F0F0010909174D6B5C05684B
:103FB000DD4045600F4D6D6805F4E061090A124D62
:103FC0006B5C4568DD4085600A4D6D6805F46051A5
:103FD000C90A0D4D6B5C4568DD40C560054D6D68D7
:103FE00005F44041890B094D6B5CC568B5FBF3F5E1
:103FF000056130BD0010024000127A00001BB700BE
:1040000000093D00808D5B008100002091000020B0
:1040100010B5E124022013490860FFF76DFD01206F
:104020001049091F0860FFF767FD02200D49091FAD
:104030000860FFF761FD07E0601EC0B2040003D115
:1040400000F002FB012010BD06480C38006810F09B
:10405000010FF1D1022003490860FFF74DFD002058
:10406000F1E700001408014000B50022082314E025
:104070005006020E02200E490860FFF73DFD0220A7
:104080000B49091F0860FFF737FD09480C38006825
:1040900010F0010F01D042F001021800A3F101015C
:1040A000CBB2E5D1022002490860104600BD0000F5
:1040B0001408014000200E4948608860C86008610B
:1040C000C88208830B48D0F8A8000A2190FBF1F1C0
:1040D000074841620162C1610020054981F828005A
:1040E0000420054981F82900002004490870704720
:1040F000F8010020B4000020BC0100201E000020B8
:1041000038B500201649087016480078F8B90846F6
:10411000407815490978884219D111488078AB2830
:1041200015D102210E48401CFDF76CF900900C4897
:10413000C0789DF80110884209D1094800799DF89E
:104140000010884203D106484078064908700024D0
:1041500003E0002002490855641C082CF9DB38BD37
:10416000340000207F000020800000207047000005
:1041700000B50246082319E0022011490860FFF744
:10418000BBFC12F0800F04D001200D49091F08600C
:1041900002E001200A490860FFF7AEFC5006020E5B
:1041A00002200749091F0860FFF7A6FC1800A3F1C9
:1041B0000101CBB2E0D102200149086000BD00003E
:1041C0001408014010B500F001F810BD0CB5002036
:1041D000019000903648006840F48030344908600F
:1041E00000BF3348006800F4003000900198401C84
:1041F0000190009818B90198B0F5A06FF1D12C4842
:10420000006810F4003F02D00120009001E000207F
:1042100000900098012849D12648006840F010001D
:10422000244908600846006820F00300086008463A
:10423000006840F0020008601D4840681C49486062
:104240000846406840F4605048600846406840F4C2
:10425000E06048600846406840F480404860084696
:10426000406820F47C1048600846406840F488109C
:1042700048600846006840F08070086000BF0C4845
:10428000006810F0007FFAD00948406820F0030071
:10429000074948600846406840F00200486000BF97
:1042A0000348406800F00C000828F9D10CBD00005C
:1042B0000010024000200240322834D11A49097807
:1042C00029BB0021184A918051801146897A022920
:1042D00014DA1146897A491CC9B29172012910D1A8
:1042E0001146B1F93E10B2F92E205143642291FBE0
:1042F000F2F10AB20C49A1F8762002E000210A4A44
:1043000091720949897A19B90021074A51700AE066
:104310000549897A012903D10321034A517002E03A
:104320000421014A51707047B4000020022873DD57
:10433000282871DA0021474A91801146497812787D
:1043400002EBC20303EB021201EB8201CC294FD036
:104350000FDC6C2950D005DCF1B103291DD00429F4
:1043600074D141E0C92940D0CA293FD0CB296DD1B1
:104370003DE0D0293FD006DCCD295AD0CE2938D017
:10438000CF2963D136E0A1F58071913906D001299A
:1043900005D002295AD103E000BF00BF00BF00BF13
:1043A0002C494988802903D140212A4A51801AE0AA
:1043B00028494988402903D12021264A518012E00A
:1043C00024494988202903D11021224A51800AE03A
:1043D00020494988102903D180211E4A518002E0DA
:1043E00040211C4A518032E000BF00BF00BF00BF27
:1043F00000BF00BF00BF00BF16494988802903D114
:104400004021144A518013E012494988402904D1BF
:104410002021104A51800BE01AE00E4949882029DA
:1044200003D180210B4A518002E04021094A51808A
:104430000DE008494988402904D18021054A51806E
:1044400003E003E04021034A518000E000BF00BFC9
:1044500070470000B400002000B501201749086033
:10446000642002F03BFB022014490860642002F043
:1044700035FB12480838006808B9012000E0002028
:1044800010F0010F01D0012000BD01200B49091DD2
:104490000860642002F022FB08480838006810F029
:1044A000010F01D00120EFE702200449091D086037
:1044B000642002F013FB0020E6E700001008014032
:1044C00010B500245B48B0F8900040F400405A4911
:1044D00008805848B0F8A60040F40040488055488D
:1044E000B0F8860040F4004088805248B0F892004E
:1044F00040F40040C8805148C08AB0B14D48B0F87F
:10450000400008814B48B0F8A60040F400404881C4
:104510004848B0F8A60040F4004088814548B0F80B
:10452000A40040F40040C88116E04248B0F84000C2
:10453000414908813F48B0F8A00040F4004048815C
:104540003C48B0F8AE0040F4004088813948B0F8EB
:104550009A0040F40040C881002410E040F6C410E6
:10456000FEF755F83648FEF7ADFF3448B0F87C103A
:10457000A0F87A103348FFF741F8601CC4B20A2C47
:10458000ECDB2C48B0F8860040F400402A49088053
:104590002848B0F8900040F4004048802748B0F91F
:1045A0001E000A2190FBF1F0C0B23030214931F8F1
:1045B0001000214988802148B0F91E000A2190FB93
:1045C000F1F201FB1200C0B230301A4931F810008C
:1045D0001949C8801748B0F8860008811548B0F816
:1045E0008C0048811348B0F85A0088811348408AEB
:1045F00020B11048B0F88C00C88104E00D48B0F834
:1046000086000D49C881002410E040F6D860FDF70F
:10461000FEFF0B48FEF756FF0848B0F87C10A0F8E4
:104620007A100848FEF7EAFF601CC4B20A2CECDBE3
:1046300010BD0000987C000870020020B40000202B
:10464000AC0200209802002000B502200C4908604E
:10465000642002F043FA012009490860642002F056
:104660003DFA02200649091F0860642002F036FA6C
:1046700001200349091F0860642002F02FFA00BDE1
:104680001408014010B5AE480088002804DDAC488D
:104690000088401EAA490880AA48006820B1A9489D
:1046A0000068401EA7490860A748007800B910BDFF
:1046B000A648008844F62061884204DAA3480088AE
:1046C000401CA2490880A2480088002809DDA048B3
:1046D0000088401E9E4908800846008808B9FFF7F8
:1046E0000FFD9C480088002805DD9A480088401E80
:1046F0009849088003E09548008801F081FB9648BE
:104700000088322869D017DC17284AD00BDC0A2829
:1047100033D003DC28B3032873D12AE00D2834D02A
:104720001428F9D135E01E283FD0212845D028286B
:1047300047D03128F0D14CE04F2870D008DC3B281E
:1047400053D03C2855D045285CD04628E4D15DE0C4
:10475000502868D0532870D05A2876D05C28DBD1F6
:1047600081E07E4800887E49C8607E4800880861F4
:10477000B8E000207A49C860B4E0784840887849B9
:10478000C860784840880861ACE000207449C8607F
:10479000A8E0724880887249C860724880880861C1
:1047A000A0E000206E49C8609CE06C48C0886C495D
:1047B000C8606C48C088086194E000206849C860FF
:1047C00090E0664800896649C860664800890861CB
:1047D00088E000206249C86084E060484089604900
:1047E000C8606048408908617CE000205C49C8607E
:1047F00078E05A4880895A49C8605A4880890861D7
:1048000070E06EE000205649C8606BE05348C089F4
:104810005349C8605348C089086163E0FFE700203E
:104820004F49C8605EE04D48008A4D49C860881510
:104830004D49086056E000E007E000204849C860A4
:1048400088154949091D08604CE0454840686FF3E8
:104850000F00434948600846406844F24441084319
:104860003F4948603EE03E48806810F4807F03D0B6
:1048700001203E49087002E000203C490870384899
:10488000806810F4007F03D001203949087002E0ED
:104890000020374908703248806810F4806F03D0D8
:1048A00001203449087002E00020324908702C4889
:1048B000806810F4006F03D001202F49087002E0D7
:1048C00000202D490870264840686FF30F002449E6
:1048D00048600846406842F2222108432049486067
:1048E00000E000BF00BF1C4800885C2803DB0020FC
:1048F0001949088004E018480088401C16490880BF
:104900001E48B0F8E40042F20F71884206DA1B48F4
:10491000B0F8E400401C1949A1F8E40018480088E8
:10492000B0F5967F05DA16480088401C14490880C7
:1049300004E000201249088000F0BAFF00BFB6E68C
:104940002A00002030000020000000201A00002073
:104950002C0000202E0000201600002070020020F5
:104960000010014002000020100801402200002039
:10497000230000202100002024000020B40000209B
:104980001C00002010B5FFF77DFE10BD10B5002102
:1049900000200022214B5B6803F00C0121B10429A7
:1049A00006D0082928D107E01D4B1E4C236027E0C4
:1049B0001D4B1C4C236023E0184B5B6803F4701004
:1049C000164B5B6803F48032022303EB904022B95C
:1049D000164B4343134C23600DE0104B5B6813F4FC
:1049E000003F04D0124B43430E4C236003E00E4BB8
:1049F00043430C4C236003E0094B0A4C236000BF87
:104A000000BF064B5B68C3F303130A4CE15C054B24
:104A10001B68CB40034C236010BD00000010024017
:104A200000127A0098000020001BB70000093D002A
:104A3000808D5B009C00002010B51348006840F09A
:104A400001001149086008464068104908400E49B5
:104A50004860084600680E4908400B49086008464F
:104A6000006820F4802008600846406820F4FE00BA
:104A700048604FF41F008860FFF7A4FB4FF0006010
:104A80000449086010BD0000001002400000FFF85B
:104A9000FFFFF6FE08ED00E04FF08040008A10F0C6
:104AA000010F27D014480088002813DD4FF48070D0
:104AB0001249086010480088401E0F4908800846C7
:104AC000008818B900210E48A0F8821007200D496F
:104AD00008800AE00C480078012803D10002074949
:104AE000086002E00120084908704FF6FE704FF0A0
:104AF000804108827047000028000020100C01400F
:104B0000B40000202A0000204800002021B10288C3
:104B100042F08002028004E002884FF67F731A4060
:104B200002807047CA43028270471AB183890B43DF
:104B3000838102E083898B4383817047002202884E
:104B40001D4B98420ED01D4B98420BD0B0F1804FB8
:104B500008D01B4B984205D01A4B984202D01A4BF2
:104B6000984204D14FF68F731A404B881A43174B63
:104B7000984207D0164B984204D04FF6FF431A4094
:104B8000CB881A4302808B8883850B8803850A4B68
:104B900098420BD0094B984208D00E4B984205D052
:104BA0000D4B984202D00D4B984201D10B7A0386EF
:104BB0000123838270470000002C01400034014033
:104BC0000004004000080040000C004000100040BD
:104BD00000140040004001400044014000480140F2
:104BE00038B5FE48007864287EDAFC480078401C1E
:104BF000FA49087008460078012802D1FEF71AFC2D
:104C0000A0E0F64800780228FAD0F448007803289B
:104C10000FD1FEF70FFCF248B0F98000B0F5967F97
:104C2000EEDB0A20EE4981F8BA002020EB4908703B
:104C300088E0EA4800781E282BDAFEF7FBFBE848FC
:104C4000B0F982000A2808DAE548B0F88200401C72
:104C500001B2E348A0F8821074E0E148B0F98200A4
:104C6000642808DADE48B0F882000A3001B2DC4875
:104C7000A0F8821066E01E20D8490870D848B0F825
:104C8000800000285ED14FF4FA71D548A0F8821058
:104C900058E0D2480078202802D1FEF7CBFB51E043
:104CA000CE48007821280DD1FEF7C4FBCD484068DE
:104CB000CC498860084600684860C948D0F8A00020
:104CC00008603FE0C548007822280ED1FEF7B2FB0D
:104CD000C4484068C3498860084600684860C048C6
:104CE000D0F8A00008602DE03BE0BC480078232805
:104CF00028D1BC484068BB498860084600684860C5
:104D0000B748D0F8A00008600020B7490870B44840
:104D1000008DC0EB0010800000EB8000401CB34908
:104D20008882AF48B0F89A0000EB8000B049088054
:104D3000FEF780FBAA48B0F8A000AE4908806420C6
:104D4000A6490870AC48FEF7BDFBA548B0F87C103A
:104D5000A0F87A10A948FEF751FC0020A849087075
:104D6000F7E39E4800786428FADBFEF751FE9C4882
:104D7000B0F88200A34908809F48FEF7A3FB9F4834
:104D8000FEF73CFCA048007804280AD1954840680A
:104D9000944988600846006848609148D0F8A000AF
:104DA000086099480078032817D19048416A016249
:104DB0000146496A8A4AD2F8A820881A01D40146D5
:104DC00000E04142092904DD8548D0F8A810874851
:104DD000416286481C30FBF77FFF8148807A0028BB
:104DE0007ED17F4890F8E200C8B97D48D0F8A40091
:104DF0007B49D1F8A810401A40F2DC5188420ADC05
:104E00000420774981F8E2000020784981F82900E0
:104E10007E49086003E00120714981F8E200704892
:104E200090F8E20000287DD06D4890F8E20001285B
:104E300069D16E48808A90B36948B0F9820040F227
:104E4000E731884211DA6948808A052190FBF1F147
:104E50006348008DC0EB0010C1EB80016048408DBD
:104E6000084401B25E48A0F882106048808A401E63
:104E70005E4988825A48D0F8A410D0F8A800B1EB57
:104E8000400F02DC0020594988825548D0F8A8001C
:104E900042F21071884202DD002054498882534852
:104EA000808A50BB4E48D0F8A410D0F8A800B1EBCF
:104EB000400F11DC01204D4981F8280002204849AB
:104EC00081F8E2000846D0F8A8005149086040F295
:104ED000E7314348A0F882104148B0F9820000E071
:104EE00081E240F2E631884208DA3D48B0F88200BB
:104EF000801C01B23A48A0F8821004E040F2E73189
:104F00003748A0F88210364890F8E200022863D1B2
:104F1000364890F8280001282AD13148D0F8A80056
:104F20003B4900E0CBE10968401A3A4908602C4847
:104F3000D0F8A400096801EB8101B0EB810F04DD1A
:104F400034480068B0F57A7F0DDB0220274981F8EC
:104F5000280000202E4988844EF66020C860204832
:104F6000D0F8A800086040F2E7311D48A0F8821090
:104F70001E4890F8280002287DD100211848A0F88A
:104F800082102348808C0F2870DB1549D1F8A810B7
:104F90001F4A1268881A01D4014600E041421C4AA7
:104FA000928C42F6F8235A4392FBF1F1194A1160B0
:104FB0001748C06811460968884203D9104600683E
:104FC0001349C8601248C06812490968884229D349
:104FD000064890F829001FE04EE00000270000205E
:104FE000B4000020C00200201F000020BC010020EF
:104FF0006400002058000020AC020020980200202D
:105000001E00002056000020660000205C000020EA
:10501000340200206000002020B1FE4890F82900F2
:10502000032823D1FC48008B012802D10021FA4833
:1050300001830420F84981F8E2000820F54981F84D
:105040002800F649C868FEF7C3FDF3490886012029
:1050500081F8E300002322220221EF483030FBF7E1
:1050600077FE0020ED49C884ED490860EB48808C4C
:10507000401CEA498884D0E0E74890F8E200032821
:10508000F9D1E84890F82800D8B9E348D0F8A4004E
:10509000E149D1F8A810884205DD40F2E731DE4849
:1050A000A0F8821003E00021DB48A0F88210D94864
:1050B00090F82900012803D10B20DA4981F8280053
:1050C000ABE0D548D0F8A410D0F8A8000A3081424F
:1050D00005DD40F2E731D048A0F882100BE0CE4861
:1050E000D0F8A810D0F8A4000A30814203DD0021D6
:1050F000C948A0F88210CB4890F828000A2865DD3E
:10510000C84890F828000B2809D1C24890F8290017
:10511000002803D10C20C34981F828007DE0C14854
:1051200090F828000C2809D1BA4890F829000128E5
:1051300073D10D20BB4981F828006EE0B94890F882
:1051400028000D2808D1B34890F82900E8BB0E20AC
:10515000B44981F8280060E0B24890F828000E2891
:105160000DD1AC4890F82900012856D11020AD4946
:1051700081F82800A848D0F8A800C8604DE0A948E8
:1051800090F8280010283FD1A648C08A401CA549A5
:10519000C882A04890F82900B8B9112081F82800E9
:1051A00000219D480183D0F8A8009E494860042052
:1051B000994981F8E2009B4BDA685968D88AFEF772
:1051C00037FD95490886012001E026E021E081F8BD
:1051D000E3000023222202218F483030FBF7B8FD84
:1051E0008D48D0F8A4008C49D1F8A810401A8A49FB
:1051F000B1F9301000FB01F404EBD4714810FBF757
:10520000F9F98749086008E00B20864981F82800F1
:1052100003E00B20834981F828007F4890F8E200E2
:1052200004284CD17C48D0F8A410D0F8A800B1EBE9
:10523000400F07DD0020774981F82800764981F882
:10524000E20024E0744890F8E30000BB7248D0F814
:10525000A40000EB800101EBC0006F49D1F8A81059
:1052600001EB8101B0EB810F0ADC6B48D0F8A400A0
:105270006949D1F8A810401A41F29411884206DD1C
:105280000020644981F82800634981F8E2006248FF
:10529000008B012814D16048D0F8A4005E49D1F8F1
:1052A000A810401AB0F5FA7F0ADA03205A4981F8AB
:1052B000E200FEF7FFFE0020564981F82A008AE04E
:1052C0005948007804287AD15348D0F8A800524DA4
:1052D0000090D5F8A430554D6A6829684E4DB5F94F
:1052E0003000FCF727FA04464D4801682046FAF7DB
:1052F0002BFF4B4908602846D0F8A4002946D1F876
:10530000A810401A2946B1F93010484348490860AE
:10531000002143480068FBF70FFA26D22846D0F850
:10532000A4002946D1F8A810884211DA4048006844
:10533000FBF760F904463A4801682046FBF706FA95
:1053400009D23B480068FBF755F93549086002E08F
:10535000002033490860374931480068FBF7ECF911
:105360000FD234482E4908600BE02B48D0F8A81023
:10537000D0F8A40000F57A70814202DD00202849AF
:1053800008602D4926480068FAF76CFF0446FBF7D1
:1053900058F901B22048A0F8821028492048006836
:1053A000FBF7D4F902D225481D4908601A48B0F924
:1053B0008200002804DA00211748A0F882100AE0D1
:1053C0001548B0F98200B0F57A7F04DB40F2E7318E
:1053D0001148A0F882101048B0F89A0000EB800045
:1053E0001749088085E00C48807A012849D1144883
:1053F00001880088401E124A108061B30648B0F947
:105400007810B0F9760081421CDB00210248A0F838
:1054100082101CE0BC010020B400002034020020F7
:105420005C000020F801002066000020C00200207F
:105430006000002000401CC60000C8420050C34766
:105440006400002040F2E731F748A0F88210002005
:10545000F549888107E00020F34988720846007802
:1054600008B9002048700020F0490860F04981F830
:10547000280081F82A00EC4981F8E200EB49086035
:1054800037E0E948807A022826D1E748808901B2CE
:10549000E548A0F882100020E4490860E44981F85A
:1054A000280081F82A00E04981F8E200DF4908601D
:1054B000DD4890F8BA00032809D0DB4890F8BA001C
:1054C000072804D0D84890F8BA00082811D1002045
:1054D000D54981F8BA000CE00021D348A0F8821029
:1054E0000020D2490860D24981F82800CE4981F8CD
:1054F000E200CD4890F8BA000B2820D2DFE800F097
:105500001F171F0C18191A0D0E06070000BF0021E7
:10551000C548A0F8821013E000BF00BFC248807ADF
:10552000022803D00021C048A0F8821008E000BF84
:1055300000BF00BF0021BC48A0F8821000E000BFFF
:1055400000BFBC480078052804D10020B949087084
:1055500006E051E1B7480078401CB649087038BDF4
:10556000B148C08A18B10020AF49A1F8EE00FDF79C
:1055700061FFAD4890F8E200042802D00020AE4957
:105580000870AE48006810F4805F1CD0A648D0F8C0
:10559000A010B0F97A00081AB0F5FA7F13DAA8481B
:1055A000008820B1A6480088401EA5490880A4486C
:1055B0000088F0B99C4890F8BA00D0B908209A4900
:1055C00081F8BA0015E09E480088052804DA9C4856
:1055D0000088401C9A490880934890F8BA0008282F
:1055E00007D197480088052803DB00208E4981F801
:1055F000BA008D48D0F8A010B0F97A00081A6428D3
:1056000019DA8948B0F98200B0F5967F1CDB86482C
:1056100090F8BA00062817D0834890F8BA000428FA
:1056200012D0814890F8BA0005280DD007207E4995
:1056300081F8BA0008E07C4890F8BA00072803D146
:105640000020794981F8BA007E480088B0F5FA7FD9
:105650001FDB7548B0F88000D8B9734890F8BA00DD
:10566000042816D0704890F8BA00052811D0764862
:105670000078052807DD00207349087006206A4974
:1056800081F8BA0008E070480078401C6E49087044
:1056900002E000206C4908706348B0F980000028DF
:1056A00008DD614890F8BA00062803D100205E4961
:1056B00081F8BA006548006810F0020F0CD1644808
:1056C00001780078401C624A1070032910DD042024
:1056D000554981F8BA000BE000205D490870524836
:1056E00090F8BA00042803D100204F4981F8BA008D
:1056F0005648006810F0040F0CD156480178007825
:10570000401C544A1070032910DD0520464981F8D9
:10571000BA000BE000204F490870434890F8BA00E7
:10572000052803D10020404981F8BA003E48B0F96D
:105730008010B0F9240000EB8000B1EB400F0FDDCA
:1057400045480078401CC0B243490870032803D183
:105750000920354981F8BA0000203349888102E0E8
:1057600000203D49087037480088A0B92E48B0F99C
:10577000800014280FDB39480078401CC0B237493C
:105780000870032803D10A20274981F8BA000020B5
:105790002549888102E0002030490870224890F8AD
:1057A000E200042871D12048807AD8BB22480078D2
:1057B000C0B31D4890F8BA00F8B91B48B0F93E10C4
:1057C000B0F9200001441848B0F97400814204DAAD
:1057D0000120154981F8BA0065E01348B0F974104A
:1057E000B0F9220001441048B0F93E0081425ADA73
:1057F00002200D4981F8BA0055E00B4890F8BA0034
:1058000001282DD10848B0F93E10B0F9200001441C
:105810000548B0F97400814245DB0020024981F857
:10582000BA0040E031E00000B40000205C0000203D
:10583000BC010020660000201E0000200808014076
:10584000540000205600002067000020080C014092
:1058500068000020690000206A0000206B00002022
:10586000124890F8BA0002281DD11048B0F97410FF
:10587000B0F9220001440D48B0F93E00814212DB2C
:1058800000200A4981F8BA000DE0084890F8BA00F3
:10589000012804D0054890F8BA00022803D100205E
:1058A000024981F8BA0000BF59E60000B4000020A8
:1058B00010B56C480078B0B16B48007898B16B486F
:1058C0000079FF2804DA69480079401C67490871AB
:1058D00066490879FEF76EFA64490871FA2064494E
:1058E000A1F8F80088E06348007860B35F4800786A
:1058F000FF2804DA5D480078401C5C4908705C4869
:10590000808BB8B15A48C088A0B1594800780128A6
:1059100003D15748407807280CD05548007830B953
:105920005348407818B95248808B022802D103208E
:105930004F49C8804D49087800F0CCFCFA204C490A
:10594000A1F8F80058E04C48007860B34748407828
:10595000FF2804DA45484078401C444948704448D0
:10596000808BB8B14248C088A0B141480078012876
:1059700003D13F48407807280CD03D48007830B923
:105980003B48407818B93A48808B022802D103205E
:105990003749C88035494878FCF778FFFA20344900
:1059A000A1F8F80028E02F48007888B12F488078C7
:1059B000FF2804DA2D488078401C2C4988702B4938
:1059C0008878FEF765F9FA202949A1F8F80013E074
:1059D0002548007880B12548C078FF2804DA23489C
:1059E000C078401C2149C8702049C878FEF764FC83
:1059F000FA201F49A1F8F8001E48007810B90020CD
:105A00001A4908701C48007810B9002017494870DE
:105A10001648007950B11348007838B91248007818
:105A200020B90020114908718870C8700D480078AD
:105A300048B90E48007918B90C498878FEF738F94A
:105A400000200A4988700848007848B9074800795A
:105A500018B90649C878FEF769FC00200349C870E8
:105A600010BD000021000020220000206C0000205A
:105A7000B4000020230000202400002010B5BE4800
:105A80008088002857D1BC484088002853D1BA48A4
:105A9000008900284FD0B84909894FF6FF7303EAFF
:105AA0004102B5490B890E3101EB4300002302216D
:105AB000FBF74EF9B04800890F2818D1AE48B0F96D
:105AC0002C00642190FBF1F04FF461614843AA4936
:105AD000B1F92C10642291FBF2F302FB1311C1EB1C
