:020000040800F2
:10000000604E002035CD000839CD00083BCD0008FA
:100010003DCD00083FCD000841CD000800000000A4
:1000200000000000000000000000000043CD0008B8
:1000300045CD000800000000D3CC0008F9110008ED
:100040004BCD00084BCD00084BCD00084BCD000830
:100050004BCD00084BCD0008FF6F00084BCD0008CA
:100060004BCD00084BCD00084BCD00087F7F00082A
:100070004BCD00084BCD00084BCD00084BCD000800
:100080004BCD00084BCD00084BCD00084BCD0008F0
:100090004BCD00084BCD00084BCD00084BCD0008E0
:1000A0004BCD0008E36F00084BCD00084BCD000896
:1000B0008B6F0008AB6F0008C76F00084BCD0008BE
:1000C0004BCD00084BCD00084BCD00084BCD0008B0
:1000D0004BCD0008411200084BCD00084BCD000865
:1000E0004BCD00084BCD00084BCD000800F002F8C6
:1000F00000F03AF80AA090E8000C82448344AAF188
:100100000107DA4501D100F02FF8AFF2090EBAE885
:100110000F0013F0010F18BFFB1A43F0010318473B
:10012000C8180100E8180100103A24BF78C878C147
:10013000FAD8520724BF30C830C144BF04680C60ED
:10014000704700000023002400250026103A28BF35
:1001500078C1FBD8520728BF30C148BF0B60704739
:100160001FB51FBD10B510BD0EF0B0F91146FFF759
:10017000F7FF02F050FB0EF0CEF903B4FFF7F2FFE9
:1001800003BC0EF0CFF900001CB5002100200022B6
:1001900000920192F74A92F89A20032A04DAF54A6B
:1001A000B2F8A020002A72DDF24AB2F8A0100AE0EC
:1001B0004A1EF04BA23333F81230EE4AA23222F834
:1001C00011304A1E91B20029F2DCEA4A92F89A20D4
:1001D000032A74DBE74AB2F8A0200A2A06DAE54AC5
:1001E000B2F8A020521CE34BA3F8A020E14AB2F9D8
:1001F000062002EB82025000DE4AB2F85020121AAA
:1002000012B2ADF80020DB4AB2F8A0200A2A57D17A
:10021000BDF90020322A09DDBDF80020323A12B2C1
:10022000ADF804203222ADF8002012E0BDF9002024
:1002300012F1320F0ADABDF80020323212B2ADF8F4
:1002400004206FF03102ADF8002002E00022ADF88A
:100250000420BDF90020092A09DBBDF80020093A75
:1002600012B2ADF802200922ADF8002013E0BDF96A
:10027000002012F1090F0BDCBDF80020093212B288
:10028000ADF802206FF00802ADF8002003E0A7E00F
:100290000022ADF80220BDF90030032493FBF4F3F3
:1002A0000344BDF9022002EBD27403EB6403BDF8F2
:1002B000044023441BB2AF4CA4F8A2300AE01EE075
:1002C000BDF9002002EBD27300EB63031BB2A94C13
:1002D000A4F8A2300020002106E0A64AA23232F99A
:1002E000112010444A1C91B2A24AB2F8A0208A42BE
:1002F000F3DCA04AB2F8A02090FBF2F025E09D4A82
:10030000B2F8A020002A20DD9A4AB2F85020994B7A
:10031000A3F8A2200020002106E0964AA23232F97A
:10032000112010444A1C91B2924AB2F8A0208A428D
:10033000F3DC904AB2F8A02090FBF2F08D4AB2F8BC
:10034000A020521E8B4BA3F8A0208A4A928932B17A
:1003500000EBC002052392FBF3F202F5A070854A80
:100360009289CAB941F2883290420ADD0020814A5E
:1003700092F88C200B2A28DA0D227E4B83F88C20F1
:1003800023E07C4A92F88C200D2A1ED1794A1278FB
:10039000784B83F88C2018E042F2684290420ADDE4
:1003A0000020744A92F88C200D2A0EDA0D22714B2F
:1003B00083F88C2009E06F4A92F88C200D2A04D132
:1003C0006C4A12786B4B83F88C20002804DD02B253
:1003D000684BA3F8442003E00022664BA3F84420B6
:1003E0001CBD1CB500210020002200920192624A2F
:1003F00092F89A20032A04DA5F4AB2F8A020002A71
:1004000072DD5D4AB2F8A0100AE04A1E5A4BA233D0
:1004100033F81230584AA23222F811304A1E91B2F3
:100420000029F2DC544A92F89A20032A74DB524ADB
:10043000B2F8A0200A2A06DA4F4AB2F8A020521CCD
:100440004D4BA3F8A0204C4AB2F9062002EB8202E1
:100450005000494AB2F85020121A12B2ADF80020EA
:10046000454AB2F8A0200A2A57D1BDF90020322A05
:1004700009DDBDF80020323A12B2ADF80420322274
:10048000ADF8002012E0BDF9002012F1320F0ADAB7
:10049000BDF80020323212B2ADF804206FF0310204
:1004A000ADF8002002E00022ADF80420BDF90020E4
:1004B000092A09DBBDF80020093A12B2ADF8022082
:1004C0000922ADF8002013E0BDF9002012F1090F58
:1004D0000BDCBDF80020093212B2ADF802206FF03B
:1004E0000802ADF8002003E0BCE00022ADF80220D5
:1004F000BDF90030032493FBF4F30344BDF902205B
:1005000002EBD27403EB6403BDF8044023441BB236
:10051000194CA4F8A2300AE01EE0BDF9002002EB5D
:10052000D27300EB63031BB2134CA4F8A23000207B
:10053000002106E0104AA23232F9112010444A1C70
:1005400091B20D4AB2F8A0208A42F3DC0A4AB2F80E
:10055000A02090FBF2F02CE0074AB2F8A020002A7D
:1005600027DD054AB2F85020034BA3F8A220002053
:10057000002109E0B83A0020843B0020F94A32F912
:10058000112010444A1C91B2F64AA23AB2F8A020B7
:100590008A42F3DCF34AA23AB2F8A02090FBF2F0D0
:1005A000F04AA23AB2F8A020521EEE4BA23BA3F8AA
:1005B000A020EC4AA23A928932B100EBC002052396
:1005C00092FBF3F202F5A070E64AA23A9289F2B9E0
:1005D00041F2883290420CDD0020E24AA23A92F8C1
:1005E0008C200D2A31DA0D22DE4BA23B83F88C20C1
:1005F0002BE0DC4AA23A92F88C200D2A25D1D94A68
:10060000A23A1278D74BA23B83F88C201DE042F22D
:10061000684290420CDD0020D24AA23A92F88C2027
:100620000D2A12DA0D22CF4BA23B83F88C200CE06E
:10063000CC4AA23A92F88C200D2A06D1C94AA23A95
:100640001278C84BA23B83F88C20002805DD02B24B
:10065000C44BA23BA3F8442004E00022C14BA23BC0
:10066000A3F844201CBD1CB50021002000220092EC
:100670000192BD4A92F89A20032A04DABA4AB2F8E3
:10068000A020002A72DDB84AB2F8A0100AE04A1E83
:10069000B54BA23333F81230B34AA23222F81130EC
:1006A0004A1E91B20029F2DCAF4A92F89A20032A3E
:1006B00074DBAD4AB2F8A0200A2A06DAAA4AB2F8D8
:1006C000A020521CA84BA3F8A020A74AB2F90620EC
:1006D00002EB82025000A44AB2F85020121A12B261
:1006E000ADF80020A04AB2F8A0200A2A57D1BDF9DF
:1006F0000020322A09DDBDF80020323A12B2ADF8EE
:1007000004203222ADF8002012E0BDF9002012F1E1
:10071000320F0ADABDF80020323212B2ADF80420EE
:100720006FF03102ADF8002002E00022ADF80420A5
:10073000BDF90020092A09DBBDF80020093A12B2F0
:10074000ADF802200922ADF8002013E0BDF9002029
:1007500012F1090F0BDCBDF80020093212B2ADF81E
:1007600002206FF00802ADF8002003E0A7E00022AD
:10077000ADF80220BDF90030032493FBF4F30344E9
:10078000BDF9022002EBD27403EB6403BDF8044010
:1007900023441BB2744CA4F8A2300AE01EE0BDF959
:1007A000002002EBD27300EB63031BB26E4CA4F883
:1007B000A2300020002106E06B4AA23232F911205B
:1007C00010444A1C91B2684AB2F8A0208A42F3DC75
:1007D000654AB2F8A02090FBF2F025E0624AB2F838
:1007E000A020002A20DD604AB2F850205E4BA3F81A
:1007F000A2200020002106E05B4AA23232F911203B
:1008000010444A1C91B2584AB2F8A0208A42F3DC44
:10081000554AB2F8A02090FBF2F0534AB2F8A0205B
:10082000521E514BA3F8A0204F4A928932B100EBDF
:10083000C002052392FBF3F202F5A0704A4A9289A6
:10084000CAB941F2883290420ADD0020464A92F845
:100850008C200D2A28DA0D22434B83F88C2023E0CC
:10086000414A92F88C200D2A1ED13F4A12783E4B05
:1008700083F88C2018E042F2684290420ADD0020A2
:10088000394A92F88C200D2A0EDA0D22364B83F865
:100890008C2009E0344A92F88C200D2A04D1324A87
:1008A0001278314B83F88C20002804DD02B22E4BE5
:1008B000A3F8442003E000222B4BA3F844201CBDE6
:1008C0001CB500210020002200920192274A92F8D4
:1008D0009A20032A04DA254AB2F8A020002A78DDFB
:1008E000224AB2F8A0100AE04A1E204BA23333F885
:1008F00012301E4AA23222F811304A1E91B200294B
:10090000F2DC1A4A92F89A20032A7ADB174AB2F8E4
:10091000A0200A2A06DA154AB2F8A020521C134B6E
:10092000A3F8A020114AB2F9062002EB820250007F
:100930000E4AB2F85020121A12B2ADF800200B4A3B
:10094000B2F8A0200A2A5DD1BDF90020322A0FDDBD
:10095000BDF80020323A12B2ADF804203222ADF8D0
:10096000002018E0263C0020503C00201C3D0020C8
:10097000BDF9002012F1320F0ADABDF80020323240
:1009800012B2ADF804206FF03102ADF8002002E0A1
:100990000022ADF80420BDF90020092A09DBBDF8CA
:1009A0000020093A12B2ADF802200922ADF8002069
:1009B00013E0BDF9002012F1090F0BDCBDF8002097
:1009C000093212B2ADF802206FF00802ADF8002033
:1009D00003E0A7E00022ADF80220BDF900300324B7
:1009E00093FBF4F30344BDF9022002EBD27403EB52
:1009F0006403BDF8044023441BB2F84CA4F8A230B1
:100A00000AE01EE0BDF9002002EBD27300EB6303A5
:100A10001BB2F24CA4F8A2300020002106E0EF4AFD
:100A2000A23232F9112010444A1C91B2EB4AB2F8BA
:100A3000A0208A42F3DCE94AB2F8A02090FBF2F051
:100A400025E0E64AB2F8A020002A20DDE34AB2F809
:100A50005020E24BA3F8A2200020002106E0DF4A4C
:100A6000A23232F9112010444A1C91B2DB4AB2F88A
:100A7000A0208A42F3DCD94AB2F8A02090FBF2F021
:100A8000D64AB2F8A020521ED44BA3F8A020D34AD5
:100A9000928932B100EBC002052392FBF3F202F51A
:100AA000A070CE4A9289CAB941F2883290420ADDDA
:100AB0000020CA4A92F88C200D2A28DA0D22C74B52
:100AC00083F88C2023E0C54A92F88C200D2A1ED191
:100AD000C24A1278C14B83F88C2018E042F2684277
:100AE00090420ADD0020BD4A92F88C200D2A0EDAD1
:100AF0000D22BA4B83F88C2009E0B84A92F88C207A
:100B00000D2A04D1B54A1278B44B83F88C20002802
:100B100004DD02B2B14BA3F8442003E00022AF4B46
:100B2000A3F844201CBD10B50AF0A8FE4FF4803095
:100B30000AF0C3FE0AF000FF01282BD110200AF0B2
:100B400097F802200AF07EF800200AF03EFF4FF4EA
:100B5000E0600AF04CFF4FF4E0600AF03FFF4FF412
:100B60000021C8100AF014FF01200AF01DFF4FF405
:100B700080400AF056FF00BF39200AF0C1FE00286D
:100B8000FAD002200AF013FF00BF0AF019FF08286C
:100B9000FBD101E000BFFEE700200AF04BFF10BDD3
:100BA00008B502208DF80200FF20ADF800000020FB
:100BB0008DF8030069468A480AF044FB4FF48060D0
:100BC000ADF8000004208DF80300694684480AF05F
:100BD00039FB4FF40070ADF8000018208DF80300C9
:100BE00069467F480AF02EFB4FF47940ADF80000CB
:100BF00028208DF80300694679480AF023FB40F667
:100C00000740ADF8000004208DF8030069467548E0
:100C10000AF018FBE020ADF8000014208DF8030066
:100C2000694670480AF00EFB4FF4E040ADF8000052
:100C300010208DF8030069466A480AF003FB48F269
:100C40001830ADF8000028208DF80300694665488B
:100C50000AF0F8FA0120ADF8000000208DF803003A
:100C6000694661480AF0EEFA3E20ADF800004820DF
:100C70008DF8030069465C480AF0E4FA4FF4FE5030
:100C8000ADF8000010208DF80300694656480AF0C0
:100C9000D9FA4FF46040ADF8000048208DF8030009
:100CA000694651480AF0CEFA0420ADF80000102041
:100CB0008DF8030069464D480AF0C4FA4FF40071FC
:100CC00047480AF069FB47F2E00146480AF064FB36
:100CD0004FF4FE5144480AF061FB042143480AF0F6
:100CE0005DFB08BD00B585B025208DF81000002003
:100CF0008DF811008DF8120001208DF813004FF4CB
:100D0000164000900020ADF80400ADF80600ADF8E4
:100D10000800ADF80C0004A80AF009FC6946344844
:100D20000BF009FE012132480BF073FE012240F264
:100D300025512F480BF079FE012240F227712C48F3
:100D40000BF073FE05B000BD1FB519208DF80C0027
:100D500000208DF80D008DF80E0001208DF80F0099
:100D600003A80AF0E4FB44F62060ADF80400052077
:100D7000ADF800000020ADF80200ADF806008DF8D7
:100D8000080069461B480BF022F8002119480BF0B7
:100D9000A5FB1848008840F00C0016490880012186
:100DA00014480BF07CFD0122114612480BF0B0FAFA
:100DB0001FBD40B10E490C31098841F008010C4AB1
:100DC0000C32118008E00A490C3109884FF6F7729D
:100DD0001140074A0C321180704700001C3D002072
:100DE00000080140000C01400010014000140140C7
:100DF00000380140002C014030B1F849098841F029
:100E00000401F64A118006E0F44909884FF6FB72A6
:100E10001140F24A118070471FB51C208DF80C005C
:100E200000208DF80D008DF80E0001208DF80F00C8
:100E300044F62060ADF804000520ADF80000002065
:100E4000ADF80200ADF8060003A80AF070FB694691
:100E50004FF080400AF0BBFF00214FF080400BF0C4
:100E60003DFB4FF08040008840F00C004FF0804187
:100E70000880012188070BF012FD0122114690071E
:100E80000BF046FA1FBD1FB51D208DF80C00002089
:100E90008DF80D008DF80E0001208DF80F0044F63E
:100EA0002060ADF804000520ADF800000020ADF88A
:100EB0000200ADF8060003A80AF039FB6946C848ED
:100EC0000AF085FF0021C6480BF008FBC4480088E3
:100ED00040F00C00C24908800121C1480BF0DFFC42
:100EE00001221146BE480BF013FA1FBD10B50A4689
:100EF000FF23BC4C237063700FE010F8013BB94C2A
:100F0000247883EA0401B74B5B78B74C645C634098
:100F1000B44C2370B54B5B5C63701300A2F101020B
:100F2000EBD110BD10B50446AE4804723930AD495E
:100F30004860052009F0ECF9AA4840680178A94802
:100F40004068401CA74B5860A4480C380BF0C9FD02
:100F50001420FFF72EFF10BD2DE9F0470546884607
:100F600017461C46DDF8209000269E4880F8398000
:100F700080F83A70062F1FD1002180F83B1080F8CE
:100F80003C40601C84B235F814000112954880F88A
:100F90003D1015F8141080F83E1006213930FFF787
:100FA000A5FF9048017880F83F10417880F8401004
:100FB0000820FFF7B7FF3FE04FEA4960010E89487C
:100FC00080F83B1015E035F8140002123046711C11
:100FD000CEB2C01C834939310A542046611C8CB200
:100FE00015F810203046711CCEB2C01C7D49393135
:100FF0000A545FEA0900A9F1010101F0FF09E2D1F9
:10100000784890F83B00C11C76483930FFF76EFFF6
:10101000744802783046711CCEB2C01C7149393117
:101020000A5470484278F01C0A54393991F83B1040
:10103000491DC8B2FFF776FFBDE8F0871FB51E2037
:101040008DF80C0000208DF80D008DF80E000120A9
:101050008DF80F0044F62060ADF804000520ADF8CF
:1010600000000020ADF80200ADF8060003A80AF069
:101070005EFA69465E480AF0AAFE00215C480BF061
:101080002DFA5B48008840F00C0059490880012186
:1010900057480BF004FC0122114655480BF038F973
:1010A0001FBD10B54FF496500AF0D8FD04200AF089
:1010B000C1FD01200AF0D6FD01200AF0EEFD10BDB1
:1010C0000EB5012009F0B5FD002101200AF0BDF99F
:1010D0000120019000208DF808000C208DF80900F7
:1010E00001208DF80A0001A809F028FD01208DF8E3
:1010F000030000208DF8010001208DF80200062079
:101100008DF8000068460AF012FA0EBD00B585B0F1
:101110000020009001208DF804008DF805004FF4A8
:10112000602002900020039009208DF8100069468D
:10113000304809F0ECF90623012200212D4809F07E
:101140007EFA0623022201212A4809F078FA0623B2
:1011500003220221274809F072FA06230422032100
:10116000244809F06CFA062305220421214809F0DD
:1011700066FA06231A4605211E4809F060FA06237E
:10118000072219461B4809F05AFA062308220721AC
:10119000184809F054FA062309220A21154809F0D3
:1011A0004EFA0121134809F0DEF90121114809F036
:1011B000E5F9104809F0F9F900BF0E4809F0FAF90D
:1011C0000028FAD10B4809F0FFF900BF094809F0DF
:1011D00000FA0028FAD105B000BD00000C3801402B
:1011E00000040040783E00208E0401088E050108AE
:1011F000000800400024014010B5FA480078401C67
:10120000F8490870F848B0F87E0041F28831884209
:1012100006DAF548B0F87E00401CF349A1F87E00DC
:10122000F248408944F62061884204DAEF48408958
:10123000401CEE49488107F0A3FB07F0A6FA10BD59
:1012400070B50BF025FD054640F22551E8480BF03E
:10125000ABFC00283CD0E6480BF047FCC4B2E348A6
:101260004089052805DDE14844740020DF494872C3
:1012700010E0DE48407A0A2804DADC48407A401C54
:10128000DA494872D948407A082803DAD748417ABF
:10129000113044540020D54948810846407A072837
:1012A00016D10846407CD0490978884203D0CF48FF
:1012B000407C1E280CD1CD48C07C48B9012006F0E6
:1012C00087F90020C9494872CA49086808F08AFBB2
:1012D00040F22771C6480BF067FCB0B1C348017AF1
:1012E000007A401EC14A107200290BDD104640688A
:1012F000017810464068401C13465860BC480BF00B
:10130000F0FB02E00020FFF754FD28460BF0C4FC80
:1013100070BD00B58DB0B84809F0E4FAB748029046
:10132000B14824300390002004900920059000204B
:1013300006908020079040000890800009902020AF
:101340000A9000020B9000200C9002A9AA4809F014
:1013500062FB0B208DF8040001208DF805008DF84C
:1013600006008DF8070001A80AF0E1F80122022129
:10137000A14809F086FB01219F4809F077FB0DB0D9
:1013800000BD10B54FF4FE519D480AF007F84FF428
:10139000E0419C480AF000F804219B4809F0FEFF58
:1013A000FFF7C1FB01214FF6FD700AF0D3FBFFF7F9
:1013B000F7FB012108460AF0C0FB012108460AF0AC
:1013C000D6FB012102200AF0D2FB012104200AF001
:1013D000CEFBFFF7B9FCFFF71FFDFFF754FDFFF74A
:1013E0002DFE10BD45F25552884B1A601A465060CA
:1013F00091604AF6AA221A604CF6CC421A607047F5
:101400002DE9F0410546002400260BF041FC07467B
:101410002C79687900EB042084B2E8787C4931F8B3
:101420001060E87821F81040E878801E752880F078
:10143000AE86DFE810F07500A600F3002401550128
:1014400078019B01BE01E101EB01F501FF010902F9
:101450002B024D026F0291029B02A502AF02B9025C
:10146000C302CD02D702E102210355038903AC0672
:10147000AC06AC06AC06BD03C703D103DB03E50332
:10148000EF03F90303040D04170421042B043504AE
:101490004B04610477048D049704A104AB04B504E4
:1014A000BF04C904D304DD04E704FB0405050F05EC
:1014B000190523052D05370541054B0555055F0524
:1014C000690573057D05870591059B05A505AF0594
:1014D000B905C305CD05D705DA05DD05E005E3054A
:1014E000ED05F70501060B060C0615061606200687
:1014F0002A0634063E06AC06AC06AC06AC06AC06C4
:10150000AC06AC06AC06AC06AC06AC06AC064806AF
:1015100054065F066A06750680068B069606A106C7
:1015200020B23C49A1F87C000846808938B1A4F17A
:10153000200000EB8000092190FBF1F084B23548D7
:101540000078022807D1642060433249B1F92410A1
:1015500090FBF1F084B200202E4981F89A0021B26C
:101560002C48C180002302221146801D0BF0F7FC9D
:101570002849B1F9060006F0FFFC2649C1F88000B1
:1015800015E320B22449A1F87C000846808938B1CF
:10159000A4F1200000EB8000092190FBF1F084B25F
:1015A0001D480078022807D1642060431A49B1F928
:1015B000241090FBF1F084B20020174981F89A00C2
:1015C00021B21548C180002342220221801D0BF068
:1015D000C6FC1149B1F9060006F0CEFC0E49C1F86F
:1015E0008000CDE71D000020FC370020783E002061
:1015F00000380140E8370020080002404C24014038
:1016000000100140000C0140001401400030004077
:1016100026390020B83A0020843B002020B2FE4941
:10162000A1F87C000846808938B1A4F1200000EBC5
:101630008000092190FBF1F084B2F748007802287D
:1016400007D164206043F449B1F9241090FBF1F014
:1016500084B20020F04981F89A0021B2EE48C1809E
:10166000002382220221801D0BF079FCEA49B1F9A6
:10167000060006F081FCE849C1F8800080E720B24E
:10168000E649A1F87C000846808938B1A4F1200021
:1016900000EB8000092190FBF1F084B2DF48007874
:1016A000022807D164206043DC49B1F9241090FB83
:1016B000F1F084B20020D94981F89A0021B2D748CC
:1016C000C1800023C2220221801D0BF048FCD349B7
:1016D000B1F9060006F050FCD049C1F880004FE790
:1016E00004F0010474B128781E280BD1CC4890F87E
:1016F0008E0018B921B2CA48018106E031B2C8484B
:10170000018102E021B2C6480181C5480089E9781B
:10171000C44A22F81100002304220221C0480830E4
:101720000BF01DFC2CE704F0010474B128781E288E
:101730000BD1BD4890F88E0018B921B2BA4801818A
:1017400006E031B2B848018102E021B2B648018119
:10175000B5480089E978B34A22F8110000234422F1
:101760000221B14808300BF0FAFB09E704F001044C
:1017700074B128781E280BD1A74890F88E0018B9AC
:1017800021B2A548018106E031B2A348018102E0FF
:1017900021B2A1480181A0480089E978A14A22F834
:1017A00011000023842202219B4808300BF0D7FB54
:1017B000E6E604F0010474B128781E280BD197489E
:1017C00090F88E0018B921B29448018106E031B238
:1017D0009248018102E021B2904801818F4800893E
:1017E000E978904A22F811000023C42202218B4894
:1017F00008300BF0B4FBC3E621B2894841810023D5
:10180000062202210A300BF0AAFBB9E621B2864873
:1018100041810023462202210A300BF0A0FBAFE6F3
:1018200021B27D4841810023862202210A300BF03B
:1018300096FBA5E621B2794841810023C622022108
:101840000A300BF08CFB9BE621B27548818174B1A4
:10185000B0F9060000EBC000052190FBF1F020304C
:1018600000B26F49A1F87C006E49888006E06C48A0
:10187000C0886B49A1F87C006A498880002308224F
:10188000022167480C300BF06AFB79E621B266480A
:10189000818174B1B0F9060000EBC000052190FB16
:1018A000F1F0203000B26049A1F87C005D49C880A9
:1018B00006E05D48C0885C49A1F87C005949C880B1
:1018C00000234822022158480C300BF048FB57E611
:1018D00021B25148818174B1B0F9060000EBC0001B
:1018E000052190FBF1F0203000B24B49A1F87C00BB
:1018F0004C49088106E04848C0884749A1F87C0067
:101900004849088100238822022143480C300BF00B
:1019100026FB35E621B24148818174B1B0F9060059
:1019200000EBC000052190FBF1F0203000B23B49F4
:10193000A1F87C003B49488106E03848C088374917
:10194000A1F87C00374948810023C822022133488E
:101950000C300BF004FB13E621B23148C1810023A7
:101960000A2202210E300BF0FAFA09E621B22E48C3
:10197000C18100234A2202210E300BF0F0FAFFE56C
:1019800021B22548C18100238A2202210E300BF0AA
:10199000E6FAFDE321B22148C1810023CA220221D7
:1019A0000E300BF0DCFAF3E321B21D480182002374
:1019B0000C22022110300BF0D2FAE9E321B21A48CE
:1019C000018200234C22022110300BF0C8FADFE321
:1019D00021B21148018200238C22022110300BF029
:1019E000BEFAD5E321B20D4801820023CC220221A8
:1019F00010300BF0B4FACBE3022C26D10848007863
:101A000002281BD00648B0F97C000549B1F9241022
:101A1000484364210AE00000503C00201C3D0020A7
:101A2000B83A002026390020843B002090FBF1F0DA
:101A300000B2F949A1F87C00F8498880F648B0F86E
:101A40006C00F549A1F89C0013E0F34800780228E7
:101A50000FD1F148B0F97C0064214843EE49B1F957
:101A6000241090FBF1F000B2EB49A1F87C00EB49A7
:101A70008880E9490C708BE3022C1AD1E848007881
:101A800002280FD0E648B0F97C00E549B1F92410EE
:101A90004843642190FBF1F000B2E149A1F87C00D9
:101AA000DE49C880DE48B0F86C00DD49A1F89C0032
:101AB00013E0DB48007802280FD1D948B0F97C0048
:101AC00064214843D649B1F9241090FBF1F000B2EB
:101AD000D349A1F87C00D149C880D1490C7057E3A3
:101AE000022C1AD1CF48007802280FD0CD48B0F987
:101AF0007C00CC49B1F924104843642190FBF1F0FB
:101B000000B2C849A1F87C00C4490881C548B0F8B2
:101B10006C00C449A1F89C0013E0C2480078022878
:101B20000FD1C048B0F97C0064214843BD49B1F9E8
:101B3000241090FBF1F000B2BA49A1F87C00B7493B
:101B40000881B8490C7023E3022C1AD1B6480078FA
:101B500002280FD0B448B0F97C00B349B1F9241081
:101B60004843642190FBF1F000B2AF49A1F87C003A
:101B7000AA494881AC48B0F86C00AB49A1F89C0078
:101B800013E0A948007802280FD1A748B0F97C00DB
:101B900064214843A449B1F9241090FBF1F000B24C
:101BA000A149A1F87C009D4948819F490C70EFE252
:101BB00021B29948818200231022022114300BF0B7
:101BC000CEF9E5E221B2964881820023502202211B
:101BD00014300BF0C4F9DBE221B292488182002379
:101BE0009022022114300BF0BAF9D1E221B28E48D2
:101BF00081820023D022022114300BF0B0F9C7E219
:101C000021B28548C18200231222022116300BF036
:101C1000A6F9BDE221B28248C182002352220221EC
:101C200016300BF09CF9B3E221B27E48C18200234A
:101C30009222022116300BF092F9A9E221B27A48E1
:101C4000C1820023D222022116300BF088F99FE2D4
:101C500021B27148018300231422022118300BF0B5
:101C60007EF995E221B26E480183002354220221BD
:101C700018300BF074F98BE221B26A48018300231B
:101C80009422022118300BF06AF981E221B26648F1
:101C900001830023D422022118300BF060F977E28F
:101CA00021B25D484184B0F92200C0EB00104FF62C
:101CB000FF7101EA80005849A1F86C0000231E2240
:101CC0000221554822300BF04AF961E221B2544812
:101CD0004184B0F92200C0EB00104FF6FF7101EA19
:101CE00080004F49A1F86C0000235E2202214C487D
:101CF00022300BF034F94BE221B24A484184B0F96A
:101D00002200C0EB00104FF6FF7101EA8000454948
:101D1000A1F86C0000239E220221424822300BF0E1
:101D20001EF935E221B240484184B0F92200C0EBEF
:101D300000104FF6FF7101EA80003B49A1F86C00EA
:101D40000023DE220221384822300BF008F91FE27E
:101D500021B23148818400232022022124300BF05B
:101D6000FEF815E221B22E48818400236022022170
:101D700024300BF0F4F80BE221B22A4881840023CE
:101D8000A022022124300BF0EAF801E221B2264819
:101D900081840023E022022124300BF0E0F8F7E1F7
:101DA00021B21D48C18300231A2202211E300BF0EC
:101DB000D6F8EDE121B21A48C18300235A2202214C
:101DC0001E300BF0CCF8E3E121B21648C1830023AA
:101DD0009A2202211E300BF0C2F8D9E121B212483A
:101DE000C1830023DA2202211E300BF0B8F8CFE1C4
:101DF00021B20948018400231C22022120300BF06B
:101E0000AEF8C5E121B20648018400235C2202211C
:101E100020300BF0A4F8BBE1B83A002026390020AE
:101E2000843B0020503C00201C3D002021B2FE4895
:101E3000018400239C22022120300BF090F8A7E1BE
:101E400021B2FA4801840023DC22022120300BF069
:101E500086F89DE121B2F648418300231622022133
:101E60001A300BF07CF893E121B2F2484183002351
:101E7000562202211A300BF072F889E121B2EA48A9
:101E800041830023962202211A300BF068F87FE18B
:101E900021B2E64841830023D62202211A300BF0FA
:101EA0005EF875E121B2E248818300231822022105
:101EB0001C300BF054F86BE121B2DE488183002323
:101EC000582202211C300BF04AF861E121B2D648B9
:101ED00081830023982202211C300BF040F857E147
:101EE00021B2D24881830023D82202211C300BF07A
:101EF00036F84DE121B2CE48C184002322220221CE
:101F000026300BF02CF843E121B2CA48C1840023EB
:101F10006222022126300BF022F839E121B2C248B8
:101F2000C1840023A222022126300BF018F82FE1F1
:101F300021B2BE48C1840023E222022126300BF0E8
:101F40000EF825E121B2BA4801850023242202219E
:101F500028300BF004F81BE121B2B64801850023BC
:101F60006422022128300AF0FAFF11E121B2AE48C2
:101F700001850023A422022128300AF0F0FF07E1A6
:101F800021B2AA4801850023E422022128300AF068
:101F9000E6FFFDE021B2A64841850023262202216A
:101FA0002A300AF0DCFFF3E021B2A2484185002389
:101FB000662202212A300AF0D2FFE9E021B29A48D3
:101FC00041850023A62202212A300AF0C8FFDFE063
:101FD00021B2964841850023E62202212A300AF0E8
:101FE000BEFFD5E092484480D2E092484480CFE0E2
:101FF0008D484480CCE08D484480C9E021B28C48B3
:1020000081850023282202212C300AF0A8FFBFE09E
:1020100021B2884881850023682202212C300AF0F1
:102020009EFFB5E021B2804881850023A8220221CD
:102030002C300AF094FFABE021B27C48818500236C
:10204000E82202212C300AF08AFFA1E0A0E07A48C1
:10205000448000236A220221801C0AF080FF97E05E
:1020600096E021B27148C1850023EA2202212E3078
:102070000AF075FF8CE021B26D48018600232C2206
:10208000022130300AF06BFF82E021B269480186FC
:1020900000236C22022130300AF061FF78E021B287
:1020A000614801860023AC22022130300AF057FF3C
:1020B0006EE021B25D4801860023EC22022130301F
:1020C0000AF04DFF64E020B25B49888000234FF4A2
:1020D000807202215848001D0AF041FF58E021B2E9
:1020E0005548C18000234FF481720221801D0AF0FF
:1020F00036FF4DE021B25048018100234FF4827237
:10210000022108300AF02BFF42E021B24A48418107
:1021100000234FF4837202210A300AF020FF37E0D7
:1021200021B24548818100234FF4847202210C3092
:102130000AF015FF2CE021B23F48C18100234FF483
:10214000857202210E300AF00AFF21E021B23A48DE
:10215000018200234FF48672022110300AF0FFFE44
:1021600016E021B23448418200234FF487720221E5
:1021700012300AF0F4FE0BE021B22F4881820023D6
:102180004FF48872022114300AF0E9FE00E000BF2B
:1021900000BF38460AF080FDBDE8F0811FB500247D
:1021A00000BF1420FEF728FE55202449A1F80401A1
:1021B0004AF60A70A1F80601A8E0214903AA0868B6
:1021C000002107F05AFB002408E01E48005D01A929
:1021D000085500211B480155601CC4B2082CF4DBD3
:1021E000062101A8FEF782FE1648113800789DF8F6
:1021F0000A10884233D11348113840789DF80B10EB
:1022000088422CD19DF80700401CC0B28DF8070011
:102210009DF80500032836D19DF804000649097889
:1022200088421DD110E00000503C00201C3D0020E1
:10223000B83A0020843B0020FC37002026390020DB
:10224000E8370020893E00209DF8090000909DF8A5
:102250000730F74801780322F648FEF77DFE55E087
:10226000F3480078012851D19DF804001E284DD173
:102270009DF8090000909DF8073003221E21ED48CB
:10228000FEF76AFE42E09DF8050004280BD19DF898
:10229000090000909DF80730E54801780422E648DF
:1022A000FEF75AFE32E09DF8050006282ED19DF873
:1022B00004001E2815D10AF0EBFC054600240AE0B4
:1022C00001A8FFF79DF89DF80700401CC0B28DF8EB
:1022D0000700601CC4B2042CF2DB28460AF0DCFCC8
:1022E00014E09DF80400D249097888420ED101A873
:1022F000FFF786F8012000909DF80700401E83B28A
:10230000CB4801780622CB48FEF726FE55E786B07B
:10231000142101A80CF09CF800BF47F2305005F0E2
:10232000B5F805F045FAFEF7CBFEFEF7F2FFFEF733
:10233000EDFEFEF7B6FEFEF7D5FC002409E0002115
:10234000BB48483040F82410243020F81410601C9A
:10235000C4B2092CF3DB0121B84808F044F905F0B8
:10236000A7FD012007F0FAF9B5490860002007F041
:10237000F5F9B3494860002007F0F0F9B0498860EA
:10238000002007F0EBF9AE49C860002007F0E6F93D
:10239000AB4908610523AB4A0021AB4807F06AFC52
:1023A0000623AA4A0021AA4807F064FC0723A94A89
:1023B0000021A94807F05EFC0823A84A0021A8488C
:1023C00007F058FC0423A74A0021AFF22F2007F0A2
:1023D00051FC40F252310420FFF704F81AE201A840
:1023E00000F03AFAFDF7D0FEFDF7FBFFFEF73BF9F0
:1023F000FEF766FA9C48006810F4006F0CD08C4819
:10240000B0F8800032280BDA8948B0F88000401C10
:102410008749A1F8800003E000208549A1F88000E9
:102420009148006810F4806F0CD08148B0F88200A9
:1024300032280BDA7E48B0F88200401C7C49A1F8B3
:10244000820003E000207A49A1F8820086480068F3
:1024500010F0040F0CD07648B0F8840032280BDA64
:102460007348B0F88400401C7149A1F8840003E06F
:1024700000206F49A1F884007B48006810F0020F2B
:102480000CD06B48B0F8860032280BDA6848B0F8F8
:102490008600401C6649A1F8860003E000206449DC
:1024A000A1F886007148B0F84400634988807048FC
:1024B000B0F84400C8806F48B0F8440008816E4806
:1024C000B0F8440048816948B0F8480088826848FC
:1024D000B0F84800C8826748B0F8480008836648EA
:1024E000B0F8480048835348B0F8B6005F49B1F9E6
:1024F00046104843642190FBF1F04F4988834D48D2
:10250000B0F8B6005A49B1F946104843642190FB2F
:10251000F1F04949C8834748B0F8B6005549B1F9C8
:1025200046104843642190FBF1F043490884414838
:10253000B0F8B6005049B1F946104843642190FB09
:10254000F1F03D4948844948008910B90120888547
:1025500047E04648007818B900203749888540E0B0
:10256000424890F88C000B2805DB404890F88C001E
:102570003149888535E03D48007801281ED13B4827
:1025800090F88D00012803D102202B49888528E08E
:10259000364890F88D00022804D0344890F88D0019
:1025A000042803D10420244988851AE02F4890F894
:1025B0008D00032815D12049888512E02B4800782A
:1025C000022803D105201C4988850AE027480078A5
:1025D000032803D106201849888502E00120164906
:1025E00088852348008918B901201349C8856AE005
:1025F0001F48007818B900200F49C88563E01C48BF
:1026000090F88C000B2805DB194890F88C000A49DB
:10261000C88558E016480078012845D1144890F83C
:102620008D0001282AD102200349C8854BE0000013
:10263000FC37002026390020D63800200024014035
:10264000E837002004090020F73B00089C11002017
:10265000F5480008341A0020C9550008CC22002093
:10266000AD620008DC300020080C0140B83A0020C0
:10267000843B0020503C00201C3D00206E4890F818
:102680008D00022804D06C4890F88D00042803D1F6
:1026900004206A49C88516E0674890F88D00032831
:1026A00011D16649C8850EE063480078022803D13D
:1026B00005206249C88506E05F480078032802D1FA
:1026C00006205E49C8855E48008918B901205B492B
:1026D000088643E05A48007818B900205749088610
:1026E0003CE0574890F88C000B2805DB544890F8E4
:1026F0008C005249088631E05148007801281ED1EB
:102700004F4890F88D00012803D102204B490886DC
:1027100024E04B4890F88D00022804D0484890F8F7
:102720008D00042803D104204449088616E044485B
:1027300090F88D00032811D1404908860EE04048EA
:102740000078022803D105203C49088606E03C4871
:102750000078032802D106203849088639480089C4
:1027600018B901203549488643E03648007818B941
:102770000020324948863CE0324890F88C000B2813
:1027800005DB304890F88C002C49488631E02D4814
:10279000007801281ED12B4890F88D00012803D124
:1027A00002202649488624E0264890F88D00022819
:1027B00004D0244890F88D00042803D104201F4938
:1027C000488616E01F4890F88D00032811D11B4958
:1027D00048860EE01B480078022803D105201749DF
:1027E000488606E017480078032802D106201349DE
:1027F00048861548B0F88A001449A1F8B4000320AF
:1028000004F0E6FE4AF6AA201149086041F2883039
:1028100007F07EFDE3E500BFFEF7B3FD05F091FF95
:102820000A230C4A0021AFF2195007F023FA06F0F0
:1028300028F800E0F0E7FDE7843B0020D6380020D0
:10284000503C00201C3D0020FC3700202639002091
:1028500000300040E43700202DE9F0470546002411
:1028600008270026A046FE4830F81700642801DA41
:10287000BDE8F0870AF00CFA8146F948243850F890
:102880002760243030F817800021243840F82710C2
:10289000243020F8171048460AF0FEF996FBF8F6A7
:1028A000EF486C38B0F9040070434FF4A571484309
:1028B000EC49212202FB161190FBF1F6002406E000
:1028C000601C35F8100025F81400601C44B2042C7C
:1028D000F6DB30460BF086FB28812889E2498887A1
:1028E0000026002404E035F914000644601C44B2BC
:1028F000052CF8DB052096FBF0F000B2D8496C39C6
:1029000008830846B0F9180041F65831884203DDC3
:102910000846D3496C390883D1486C38B0F918009F
:10292000002814DDCE486C38B0F918004FF47A71E5
:1029300090FBF1F044B2CA486C38B0F9180090FB33
:10294000F1F201FB120018B1601C44B200E0012456
:10295000E2B2C3486C38B0F9181001200BF0A7FBA5
:10296000BF496C39C861E2B20846B0F918100020BE
:102970000BF09DFBBA496C39086200BF78E72DE97E
:10298000FE4F0025002400260027B54830F815002A
:10299000642801DABDE8FE8F0AF07AF98246B04871
:1029A000243850F82560243030F815700021243880
:1029B00040F82510243020F8151050460AF06CF924
:1029C00096FBF7F0A949A1F87000A5486C38B0F95A
:1029D000060000FB07F4A64201DD361B00E00026DE
:1029E000C7EB07300DF09CFA9D496C390290B1F9A4
:1029F00008000DF095FA019030460DF091FA9C49CF
:102A000000900DF0D9FA834601990DF0D5FA814670
:102A100002990DF087F980460DF062FA93498867B4
:102A20000846B0F87800904988869048408930B1CF
:102A30008E48806F8A496C39C969441805E08B4813
:102A4000806F87496C39096A44188848B0F90A10C0
:102A500020460BF048FB854948670846406F0A212D
:102A600090FBF1F001B28148A0F850100146496F87
:102A70000246D2F88420881A01D4014600E041427F
:102A8000042904DD7948406F7849C1F8840077480B
:102A900090F89A0003287CDA7448B0F8A000012866
:102AA0007FDA7248B0F95040808930B104EBC4003D
:102AB000052190FBF1F000F5A0746C48808988BB7B
:102AC00041F2883084421EDD00240120674981F8EC
:102AD0008E00084690F88C000D2802DA0D2081F84F
:102AE0008C006248008918B16048007803284BD1F7
:102AF0005E4890F88C000D2846D15C4800785B4910
:102B000081F88C0040E0594890F88C000D2804D1E1
:102B100056480078554981F88C000020534981F8C7
:102B20008E0031E0FFE742F2684084421EDD00245F
:102B300001204E4981F88E00084690F88C000D283F
:102B400002DA0D2081F88C004848008918B1474806
:102B50000078032818D1454890F88C000D2813D12F
:102B600042480078414981F88C000DE03F4890F8D8
:102B70008C000D2804D13D4800783C4981F88C0038
:102B800000203A4981F88E00002C06DD20B237493A
:102B900000E006E0A1F8440003E000203349A1F87A
:102BA000440000BFF6E62DE9FE4F01250024002673
:102BB00000272B4830F81500642801DABDE8FE8FA5
:102BC0000AF066F882462648243850F825602430FA
:102BD00030F815700021243840F82510243020F8F2
:102BE000151050460AF058F896FBF7F02149A1F865
:102BF00070001B486C38B0F90A0000FB07F4A642CD
:102C000001DD361B00E00026C7EB07300DF088F928
:102C100013496C390290B1F90C000DF081F9019063
:102C200030460DF07DF9124900900DF0C5F983464C
:102C300001990DF0C1F9814602990DF073F88046B3
:102C40000DF04EF90B4988670846B0F87800064940
:102C5000C8860848846F408990B10648806F0BE0B1
:102C600068380020E78F0100D6380020B83A0020ED
:102C700000000442843B0020FC49C969441804E078
:102C8000FB48806FF949096A4418F948B0F90A10FD
:102C900020460BF090FAF64948670846406F0A2133
:102CA00090FBF1F001B2F248A0F850100146496FD4
:102CB0000246D2F88420881A01D4014600E041423D
:102CC000042904DDEA48406FE949C1F88400E84876
:102CD00090F89A0003287CDAE548B0F8A0000128B3
:102CE0007FDAE348B0F95040808930B104EBC4008A
:102CF000052190FBF1F000F5A074DD48808988BBC8
:102D000041F2883084421EDD00240120D84981F838
:102D10008E00084690F88C000D2802DA0D2081F80C
:102D20008C00D348008918B1D148007803284BD1D2
:102D3000CF4890F88C000D2846D1CD480078CC497A
:102D400081F88C0040E0CA4890F88C000D2804D12E
:102D5000C7480078C64981F88C000020C44981F832
:102D60008E0031E0FFE742F2684084421EDD00241D
:102D70000120BF4981F88E00084690F88C000D288C
:102D800002DA0D2081F88C00B948008918B1B848E2
:102D90000078032818D1B64890F88C000D2813D17C
:102DA000B3480078B24981F88C000DE0B04890F843
:102DB0008C000D2804D1AE480078AD4981F88C0014
:102DC0000020AB4981F88E00002C06DD20B2A84916
:102DD00000E006E0A1F8440003E00020A449A1F8C7
:102DE000440000BFEAE62DE9FE4F0225002400263C
:102DF00000279E486C3030F81500642801DABDE8E1
:102E0000FE8F09F045FF82469848483050F825600B
:102E1000243030F815700021243840F82510243073
:102E200020F81510504609F037FF96FBF7F091494E
:102E3000A1F870008D48B0F90E0000FB07F4A6421F
:102E400001DD361B00E00026C7EB07300DF068F807
:102E500086490290B1F910000DF062F801903046F9
:102E60000DF05EF8844900900DF0A6F883460199B4
:102E70000DF0A2F8814602990CF054FF80460DF047
:102E80002FF87C4988670846B0F878007B490887A6
:102E90007848846F408928B17648806F7349C96942
:102EA000441804E07348806F7049096A44187148F7
:102EB000B0F90A1020460BF0E6F96E49486708465B
:102EC000406F0A2190FBF1F001B26A48A0F850105F
:102ED0000146496F0246D2F88420881A01D401467F
:102EE00000E04142042904DD6248406F6149C1F8B5
:102EF0008400604890F89A0003287CDA5D48B0F8B6
:102F0000A00001287FDA5B48B0F95040808930B1D9
:102F100004EBC400052190FBF1F000F5A0745548C6
:102F2000808988BB41F2883084421EDD0024012064
:102F3000504981F88E00084690F88C000D2802DA7E
:102F40000D2081F88C004B48008918B14948007861
:102F500003284BD1474890F88C000D2846D14548AE
:102F60000078444981F88C0040E0424890F88C0099
:102F70000D2804D13F4800783E4981F88C0000209C
:102F80003C4981F88E0031E0FFE742F2684084421C
:102F90001EDD00240120374981F88E00084690F894
:102FA0008C000D2802DA0D2081F88C003148008950
:102FB00018B130480078032818D12E4890F88C00BA
:102FC0000D2813D12B4800782A4981F88C000DE098
:102FD000284890F88C000D2804D12648007825490F
:102FE00081F88C000020234981F88E00002C06DD3A
:102FF00020B2204900E006E0A1F8440003E00020F0
:103000001C49A1F8440000BFF9E62DE9FE4F032555
:1030100000240026002715486C3030F8150064287D
:1030200001DABDE8FE8F09F033FE82460F484830D2
:1030300050F82560243030F815700021243840F80D
:103040002510243020F81510504609F025FE96FB77
:10305000F7F00B49A1F870000448B0F9120000FB2A
:1030600007F4A6420EDD361B0DE00000FC37002001
:10307000843B0020503C002000000442D638002051
:103080001C3D00200026C7EB07300CF049FFFE492D
:103090000290B1F914000CF043FF019030460CF09F
:1030A0003FFFFA4900900CF087FF834601990CF02E
:1030B00083FF814602990CF035FE80460CF010FF2C
:1030C000F34988670846B0F87800F2494887F04825
:1030D000408928B1EE48806FEB49C969441804E083
:1030E000EB48806FE849096A4418E948B0F90A10CA
:1030F00020460BF030F9E64948670846406F0A2140
:1031000090FBF1F001B2E248A0F850100146496F7F
:103110000246D2F88420881A01D4014600E04142D8
:10312000042904DDDA48406FD949C1F88400D84841
:1031300090F89A0003287CDAD548B0F8A00001285E
:103140007FDAD348B0F95040808930B104EBC40035
:10315000052190FBF1F000F5A074CD48808988BB73
:1031600041F2883084421EDD00240120C84981F8E4
:103170008E00084690F88C000D2802DA0D2081F8A8
:103180008C00C348008918B1C148007803284BD18E
:10319000BF4890F88C000D2846D1BD480078BC4946
:1031A00081F88C0040E0BA4890F88C000D2804D1DA
:1031B000B7480078B64981F88C000020B44981F8FE
:1031C0008E0031E0FFE742F2684084421EDD0024B9
:1031D0000120AF4981F88E00084690F88C000D2838
:1031E00002DA0D2081F88C00A948008918B1A8489E
:1031F0000078032818D1A64890F88C000D2813D128
:10320000A3480078A24981F88C000DE0A04890F80E
:103210008C000D2804D19E4800789D4981F88C00CF
:1032200000209B4981F88E00002C06DD20B29849D1
:1032300000E006E0A1F8440003E000209449A1F872
:10324000440000BFEDE62DE9F05F07244FF00009D0
:103250004FF0000A8C486C3030F81400642801DA12
:10326000BDE8F09F09F014FD83468748483050F8C8
:103270002490243030F814A00021243840F8241081
:10328000243020F81410584609F006FDC9EB491007
:1032900000EB80014FF47A700AFB00F0B1FBF0F014
:1032A00001B27D484180A0F14401B1F946000CF023
:1032B0003CF90746794A7A4B0CF08AF905460CF03E
:1032C00005F901B274484438A0F84610B0F8460039
:1032D00000EB8000400001B26F484438A0F846106F
:1032E00088B26C49888100BFBAE72DE9F05F0624F7
:1032F0004FF000094FF0000A63486C3030F81400BA
:10330000642801DABDE8F09F09F0C2FC83465E48FC
:10331000483050F82490243030F814A0002124388C
:1033200040F82410243020F81410584609F0B4FC5A
:10333000C9EB491000EB80014FF47A700AFB00F0F2
:10334000B1FBF0F001B257484180A0F14401B1F95E
:1033500046000CF0EAF80746504A514B0CF038F999
:1033600005460CF0B3F801B24E484438A0F84610B8
:10337000B0F8460000EB8000400001B249484438F4
:10338000A0F8461088B24349C88100BFBAE72DE9CA
:10339000F05F05244FF000094FF0000A3A486C3006
:1033A00030F81400642801DABDE8F09F09F070FCE1
:1033B00083463548483050F82490243030F814A023
:1033C0000021243840F82410243020F814105846E6
:1033D00009F062FCC9EB491000EB80014FF47A70F0
:1033E0000AFB00F0B1FBF0F001B22F484180A0F1E0
:1033F0004401B1F946000CF098F80746274A284BDB
:103400000CF0E6F805460CF061F801B226484438A5
:10341000A0F84610B0F8460000EB8000400001B272
:1034200021484438A0F8461088B21A49088200BFE3
:10343000BAE72DE9F05F04244FF000094FF0000ACD
:1034400011486C3030F81400642801DABDE8F09FB0
:1034500009F01EFC83460C48483050F82490243074
:1034600030F814A00021243840F82410243020F82B
:103470001410584609F010FCC9EB491000EB80010C
:103480004FF47A7012E00000FC3700200000044284
:103490001C3D0020D6380020FC3A00209A999999CA
:1034A0009999E13FC83B0020943C00200AFB00F0C2
:1034B000B1FBF0F001B2FC484180A0F14401B1F948
:1034C00046000CF032F80746F84AF94B0CF080F849
:1034D00005460BF0FBFF01B2F3484438A0F8461054
:1034E000B0F8460000EB8000400001B2EE484438DE
:1034F000A0F8461088B2EF49488200BFA6E710B591
:1035000000240021EC48A0F848100020EA49A1F866
:10351000900044F62060A1F89200A1F894004FF6C4
:10352000FF70A1F86E000846847B0121C1814FF431
:10353000FA6006F0EDFEFFF786FEDF48B0F94600C0
:1035400028280EDB41F2883006F0E2FEFFF77BFE12
:10355000D948B0F94600282803DB1220D64981F863
:103560008C00FFF70CFAD44890F88C00122828D071
:1035700025E0D148B0F84800401C01B2CE48A0F880
:1035800048100A2900DB1BE0CB48008920B9002144
:10359000C948A0F8481013E040F6B83006F0B8FE6D
:1035A000FFF751FEC448B0F94610B0F9480000EBEF
:1035B0008000642202EB4000814200DB00E0D8E79B
:1035C00000BFFFF7DCF9BC4890F88C00112826DA20
:1035D00023E0B948B0F94800642808DAB648B0F8E2
:1035E00048000A3001B2B448A0F8481000E015E0E5
:1035F000B148008920B90021AF48A0F848100DE07B
:1036000040F6B83006F084FEFFF71DFEAA48B0F978
:103610004600B0F57A7F00DD00E0DAE700BFA6489B
:10362000C481C08920B1A44890F88C000B280FDB1E
:103630000021A148A0F8481000209F49A1F890005F
:1036400044F62060A1F892000021012003F064FFFD
:10365000FFF795F910BD10B5002400219748A0F898
:10366000481000209549A1F8900044F62060A1F888
:103670009200A1F894004FF6FF70A1F86E00084682
:10368000847B0121C1814FF4FA6006F041FEFFF70F
:103690002CFE8A48B0F9460028280EDB41F288301B
:1036A00006F036FEFFF721FE8448B0F946002828D0
:1036B00003DB1220814981F88C00FFF774FA7F4800
:1036C00090F88C00122828D025E07C48B0F84800FB
:1036D000401C01B27948A0F848100A2900DB1BE021
:1036E0007648008920B900217448A0F8481013E0FA
:1036F00040F6B83006F00CFEFFF7F7FD6F48B0F962
:103700004610B0F9480000EB8000642202EB400054
:10371000814200DB00E0D8E700BFFFF744FA6748CA
:1037200090F88C00112826DA23E06448B0F94800AC
:10373000642808DA6148B0F848000A3001B25F48EE
:10374000A0F8481000E015E05C48008920B900218D
:103750005A48A0F848100DE040F6B83006F0D8FD01
:10376000FFF7C3FD5548B0F94600B0F57A7F00DD9C
:1037700000E0DAE700BF5148C481C08920B14F485A
:1037800090F88C000B2813DB00214C48A0F848105F
:1037900000204A49A1F8900044F62060A1F8920068
:1037A0004FF6FF70A1F86E000021022003F0B4FE76
:1037B000FFF7F9F910BD10B5002400214048A0F82A
:1037C000481000203E49A1F8900044F62060A1F87E
:1037D0009200A1F894004FF6FF70A1F86E00084621
:1037E000847B0121C1814FF4FA6006F091FDFFF75F
:1037F000CEFD3348B0F9460028280EDB41F2883070
:1038000006F086FDFFF7C3FD2D48B0F946002828D5
:1038100003DB12202A4981F88C00FFF7E4FA2848DC
:1038200090F88C00122828D025E02548B0F84800F0
:10383000401C01B22248A0F848100A2900DB1BE016
:103840001F48008920B900211D48A0F8481013E046
:1038500040F6B83006F05CFDFFF799FD1848B0F966
:103860004610B0F9480000EB8000642202EB4000F3
:10387000814200DB00E0D8E700BFFFF7B4FA104850
:1038800090F88C00112835DA32E00D48B0F9480084
:10389000642817DA0A48B0F848000A3001B208482C
:1038A000A0F848100FE00000603D00209A99999917
:1038B0009999E13FD6380020B83A0020843B002097
:1038C000503C002015E0FE48008920B90021FC484A
:1038D000A0F848100DE040F6B83006F019FDFFF7EB
:1038E00056FDF748B0F94600B0F57A7F00DD00E0FC
:1038F000CBE700BFF248C481C08920B1F04890F8FE
:103900008C000B2813DB0021ED48A0F848100020A4
:10391000EB49A1F8900044F62060A1F892004FF620
:10392000FF70A1F86E000021032003F0F5FDFFF702
:103930005AFA10BD10B500240021E248A0F8481042
:103940000020E049A1F8900044F62060A1F8920020
:10395000A1F894004FF6FF70A1F86E000846847B32
:103960000121C1814FF4FA6006F0D2FCFFF761FD3E
:10397000D448B0F9460028280EDB41F2883006F022
:10398000C7FCFFF756FDCF48B0F94600282803DBF7
:103990001220CC4981F88C00FFF737FBC94890F81A
:1039A0008C00122828D025E0C648B0F84800401CFA
:1039B00001B2C448A0F848100A2900DB1BE0C14846
:1039C000008920B90021BF48A0F8481013E040F654
:1039D000B83006F09DFCFFF72CFDBA48B0F9461050
:1039E000B0F9480000EB8000642202EB4000814205
:1039F00000DB00E0D8E700BFFFF707FBB14890F815
:103A00008C00112826DA23E0AE48B0F9480064287B
:103A100008DAAC48B0F848000A3001B2A948A0F86A
:103A2000481000E015E0A748008920B90021A5480A
:103A3000A0F848100DE040F6B83006F069FCFFF73A
:103A4000F8FCA048B0F94600B0F57A7F00DD00E050
:103A5000DAE700BF9B48C481C08920B1994890F83B
:103A60008C000B2813DB00219648A0F8481000209A
:103A70009449A1F8900044F62060A1F892004FF616
:103A8000FF70A1F86E000021042003F045FDFFF750
:103A9000BCFA10BD8C48D0F880008C49086000202A
:103AA00088608B48C860002048828748D0F884002E
:103AB0000A2190FBF1F18548C161816141610020DB
:103AC000824981F82000032081F8210000207E49EE
:103AD00081F89A0070477F48D0F880007E490860DE
:103AE000002088607A48C860002048827948D0F871
:103AF00084000A2190FBF1F17748C1618161416145
:103B00000020754981F82000032081F82100002061
:103B1000704981F89A0070476948D0F880006F4971
:103B20000860002088606A48C860002048826448B5
:103B3000D0F884000A2190FBF1F16848C1618161ED
:103B400041610020654981F8200081F821005C492D
:103B500081F89A0070475B48D0F88000604908609F
:103B6000002088605A48C860002048825548D0F834
:103B700084000A2190FBF1F15948C16181614161E2
:103B80000020574981F8200081F821004D4981F833
:103B90009A0070472EE053480078401CC0B251494B
:103BA0000870042801DD012008704E4800780128C3
:103BB00006D0022809D003280CD0042814D10EE026
:103BC0004949486805F00EFF0FE04749886805F04D
:103BD00009FF0AE04449C86805F004FF05E04249CE
:103BE000086905F0FFFE00E000BF00BF40F6C2100C
:103BF00006F08EFBCFE78CB04FF05A0803200B90F5
:103C000041F2883500264FF0000900270020079078
:103C1000089009900A9000248246834606900590F9
:103C20000120049000BF284908703049888600BFF1
:103C300012E04FF4FA6006F06BFBFEF7A0FEFFF710
:103C400002FB08980990079808901F48406F07905A
:103C50000BF1010000F0FF0BBBF10A0FE9DB1A4882
:103C6000408BC0EB0010012101EB80001749088256
:103C70001548B0F92200C0EB00104FF6FF7101EAC1
:103C800080001149A1F86C000846B0F86C00A1F85A
:103C90009C00B1F9060004F06FF90B49C1F88000EF
:103CA0000846808B87B24FF47A7006F031FB092307
:103CB0000F4A0021AFF2231005F0DCFFFBE3000008
:103CC000503C00201C3D0020B83A0020E83D002078
:103CD000A0860100843B00200C3E0020303E0020E6
:103CE000543E002000000020E83700202639002044
:103CF000D4290020F94903AA4868002105F0BDFD38
:103D0000022003F065FCF648B0F848001FFA80F97D
:103D1000FEF735FEF348C1698161F148D0F884109F
:103D2000F048C16100F12101143003F089FC0998C9
:103D30000A900898099007980890E948406F079002
:103D4000E748008970BB4FF6FF70E549A1F86E00A7
:103D500044F62060A1F890000846408BC0EB0010AC
:103D6000012101EB8000DF490882DD48808B87B2AA
:103D70000021012003F0D0FB0021D948A0F8481011
:103D8000FFF788FEFFF75FFA0020D54981F88D0024
:103D90000021012003F088FB0021D148818200200E
:103DA00004908BE70498B8B9CD480078CC4981F8E5
:103DB0008C000121084603F077FBC94800780128F0
:103DC0000AD10020C6490870FFF799FBC448007863
:103DD00010B90120C2490870C148007A0490C04857
:103DE000007801287DD1BE4890F88D0008BBBC4802
:103DF000406F00F6AC50BA49D1F88010884214DD0B
:103E00000420B74981F88D000846D0F88000496F3A
:103E1000401AB349B1F92610484300EBD071029023
:103E200048100CF07DF8824603E00120AC4981F88F
:103E30008D00AB4890F88D0001283ED1A948008A3A
:103E400040B340F2E330874202DA781D87B201E0E6
:103E500040F2E73739B2A248A0F84810A148008ADA
:103E6000401EA04908829E48406F42F2D871084423
:103E70009B49D1F88010884203DD002099490882CF
:103E800008E09748406F42F21071884202DD00203E
:103E9000944908829348008A78B99148808B87B208
:103EA0008F48D0F884008F49086002208C4981F83F
:103EB0008D0001208B4981F82000894890F88D0001
:103EC00002287CD1874890F82000012824D184481A
:103ED000D0F8840083490968441A8148D0F88000EA
:103EE00000E08BE204EB8401B0EB810F02DDB4F55E
:103EF0007A7F0CDB02207B4981F820000020488279
:103F00004EF6602048607648D0F88400086040F2A1
:103F1000E7317348A0F84810724890F82000022852
:103F200057D100216E48A0F848106E48408A0328F7
:103F30004ADB6B49D1F884106A4A1268881A01D4A6
:103F4000014600E04142674A528A4DF2D8635A4323
:103F500092FBF1F463484068A04201DD614844608F
:103F600060484068A04208DB5E4890F8210020B11C
:103F70005C4890F82100022826D15948808A0128FF
:103F800002D10021564881820420554981F88D00D4
:103F90000820544981F82000486809F099FF5049E9
:103FA000C884012081F89B000846C08C4E49A1F8C6
:103FB0008C000023222206214948263000E008E038
:103FC00008F0CDFF4FF0000A4648408A401C4549A2
:103FD0004882434890F88D0003281ED1414890F84C
:103FE0002000D8B93E48D0F880003D49D1F884106F
:103FF000884205DD40F2E7313948A0F8481003E077
:1040000000213748A0F84810364890F821000128D0
:10401000E3D10B20334981F82000F9E03048D0F893
:104020008010D0F884000A30814205DD40F2E7318B
:104030002B48A0F848100BE02948D0F88410D0F89D
:1040400080000A30814203DD00212548A0F8481095
:10405000244890F820000A287DDD224890F82000AE
:104060000B2809D11F4890F821000028D5D10C2039
:104070001C4981F82000CBE01A4890F820000C2859
:1040800009D1184890F821000128C6D10D20154902
:1040900081F82000BCE0134890F820000D2809D1D9
:1040A000104890F821000028B7D10E200D4981F862
:1040B0002000ADE00B4890F820000E2816D10948EA
:1040C00090F82100012807D11020064981F820002E
:1040D0000348D0F88400C8609AE00000E837002068
:1040E000B83A0020E83D002026390020FE4890F82C
:1040F000200010287ED1FC4890F8210020B1FA4819
:1041000090F82100022872D11120F74981F820008F
:104110000021F6488182F648A0F84410F348D0F810
:104120008400F14988600420F04981F88D00002066
:1041300081F89A00EC4BDA689968588A09F0F3FE26
:10414000EA49C884B1F92620E749498A02EB4100CF
:1041500000EBD07100E057E0C1F34F01E24A518219
:104160001046408A01B2E14801851146488AC117CC
:1041700000EB91718910DD4A5185DB49488AC117EE
:1041800000EB91718910A0EB8101022905DD104639
:10419000408D401C01B210464185D448C08CD449A2
:1041A000A1F88C00D148008DA1F89400CF48408D33
:1041B000A1F89C000120CD4981F89B000023222218
:1041C0000621CA48263008F0CAFEC848D0F8800048
:1041D000C649D1F88410401AC449B1F926104843A1
:1041E00000EBD071029048100BF09AFE8246BE4858
:1041F000408A00E003E0401CBB49488208E00B20F5
:10420000B94981F8200003E00B20B74981F820006C
:10421000B64890F88D0004287ED1B448D0F88400C8
:1042200000EB80008100B148D0F88000B1EBC00FF6
:1042300007DA0020AC4981F82000AC4981F88D00F4
:1042400024E0AA4890F89B0000BBA848D0F8800062
:1042500000EB800101EBC000A449D1F8841001EB10
:104260008101B0EB810F0ADCA048D0F880009F49A3
:10427000D1F88410401A41F29411884206DD0020E2
:10428000994981F82000994981F88D009748808AE2
:1042900001280FD19548D0F880009449D1F88410B6
:1042A000401AB0F5FA7F05DA0320904981F88D00B5
:1042B000FFF7F0FB8D4890F89A00E0B98B48406F0B
:1042C0008A49D1F88010884204DD0220874981F8AC
:1042D0009A0032E08548406F8449D1F880108842C6
:1042E00004DA0120814981F89A0026E003207F4901
:1042F00081F89A0021E07D4890F89A0001280CD1BD
:104300007A48406F7949D1F88010884215DB032044
:10431000764981F89A0010E00FE1744890F89A000D
:1043200002280AD17148406F7049D1F88010884244
:1043300003DC04206D4981F89A006C48D0F88400B1
:10434000DFF8A8C10090DCF88030BCF92600DDE978
:10435000071208F037FF514602900BF075FC8246B9
:104360006248D0F880006149D1F88410401A5F4952
:10437000B1F9261000FB01F4002150460BF0E8FDD6
:104380001ED25A48D0F880005849D1F8841088428B
:104390000CDA20460BF0C4FD514602900BF0D8FE1B
:1043A00006D220460BF0BCFD824601E04FF0000A29
:1043B000504950460BF0CCFD0DD2DFF838A10AE091
:1043C0004A48D0F88410D0F8800000F57A70814215
:1043D00001DD4FF0000A484950460BF0B9FE01D20A
:1043E000DFF814A1454950460BF09CFC02900BF0FD
:1043F0005BFD01B23D48A0F848109EE03B480078C4
:10440000022859D10020394981F89A000846B0F8AD
:104410009C10B0F89C00401E344AA2F89C00B9B130
:104420001046B0F944000A2190FBF1F03049898828
:10443000884204DB00211046A0F8481004E040F256
:10444000E7312A48A0F8481000202849488074E045
:1044500000212648A0F8481001202449087000BF18
:104460000020214981F82000204981F88D00D1F8F1
:1044700080101E4A526F891A1C4AB2F9262001FB8D
:1044800002F00BF04DFD82461848B0F86C00174959
:10449000A1F89C000846B0F97C0064214843134908
:1044A000B1F9241090FBF1F000B21049A1F87C00A2
:1044B0000F49888041E012E20C48007803282DD192
:1044C0000A48408801B20948A0F848104FF0000A95
:1044D0000020064981F89A00034981F82000034929
:1044E00081F88D000CE00000E83D0020B83A002083
:1044F0002639002000401CC60050C3470000C842B7
:10450000D1F88010F74A526F891AF64AB2F926207C
:1045100001FB02F00BF004FD82460EE00021F148A1
:10452000A0F848108A460020EE4981F89A00EE492A
:1045300081F82000EB4981F88D00EA48B0F9480085
:10454000002804DA0021E748A0F848100AE0E5480E
:10455000B0F94800B0F57A7F04DB40F2E731E1487A
:10456000A0F84810DF4890F88C000B38092823D2B7
:10457000DFE800F019220F0510220607110000BF26
:1045800000BF0021D748A0F84810012002F08CFF9E
:1045900017E000BF00BF0021D248A0F8481001205A
:1045A00002F082FF0DE00021CE48A0F84810012162
:1045B000084602F079FF04E00121084602F074FF8A
:1045C00000BF00BFC748C08918B90020C549A1F87D
:1045D0009000FEF738FEC548806810F4004F02D105
:1045E00017200B9009E00B98401E0004000C0B9064
:1045F00003D10E20BB4981F88C00BA48B0F94400C1
:10460000B0F57A7F34DAA8F101001FFA80F8B548D6
:10461000B0F87000A84202DDB248B0F87050B1485E
:10462000B0F87000B04202DAAE48B0F8706040F204
:10463000DE30814502DBA81B092804DD4FF05A0853
:10464000002542F22836B8F1000F16D1A81B0A281F
:1046500008DAA44890F88C000F2803DA0F20A1494B
:1046600081F88C004FF05A0842F22836002504E009
:104670004FF05A08002542F2283607990A98401A46
:10468000B0F5FA6F20DDDDE9091088421CDBDDE9B9
:104690000810884218DBDDE90710884214DB9148D6
:1046A00090F88C000D280FDA05210A9890FBF1F0A4
:1046B000079A0A99891A884206DA0120894981F8FD
:1046C0009800142081F89900864890F898000128F5
:1046D00027D1844890F8990018B3824890F899003F
:1046E000401E10F0FF007F4981F8990001D181F848
:1046F00098007C4890F88C000D2812DA7C48B0F9BC
:10470000180000EB80004FF47A7101EB400007992C
:10471000884206DD0020734981F898000F2081F857
:104720008C00704890F88C000F2810D17048B0F9B8
:10473000180000EB80004FF47A7101EB40000799FC
:10474000884204DA67480078664981F88C00B9F538
:10475000FA7F18DB6348B0F84600A0B9614890F8CA
:104760008C000D280CDA0698052804DD10205D4920
:1047700081F88C0009E00698401CC0B2069004E065
:104780000020069001E000200690564890F88C002A
:10479000102808D15348B0F8460020B1514800789D
:1047A000504981F88C004F4890F88C000D2829DA88
:1047B0004C48B0F94610B0F91E00814203DD1120CB
:1047C000484981F88C004748B0F8480078B9454816
:1047D000B0F946002D280ADB0598401CC0B20590B0
:1047E000102806D112203F4981F88C0001E00020FA
:1047F00005903F48B0F88000052803DB13203949B5
:1048000081F88C00374890F88D00042834D1354861
:1048100090F89A0003282FDB3248007801282BD12A
:10482000304890F88C000B2826DA2E48B0F9160094
:104830002C49B1F97C1001EB810100EB41002949C1
:10484000B1F94410884204DA0B20264981F88C0023
:1048500044E02448B0F94410B0F918000844214954
:10486000B1F97C1001EB8101B0EB410F36DA0C207D
:104870001C4981F88C0031E01A4890F88C000B2814
:1048800014D11848B0F916001649B1F97C1001EBA3
:10489000810100EB41001349B1F9441088421DDB4E
:1048A000104800780F4981F88C0017E00D4890F807
:1048B0008C000C2812D10B48B0F94410B0F9180044
:1048C00008440849B1F97C1001EB8101B0EB410FBC
:1048D00004DB04480078034981F88C0000BFFFF72F
:1048E00009BA0000B83A0020E83D0020001001405D
:1048F000FC3700208CB04FF05A0803200B9041F297
:10490000883500264FF00009002700200790089006
:1049100009900A9000248246834606900590012063
:10492000049000BFF9490870F949C88600BF12E039
:104930004FF4FA6005F0ECFCFEF735F9FEF7D5FC14
:104940000898099007980890F048406F07900BF17D
:10495000010000F0FF0BBBF10A0FE9DBEB48408BD5
:10496000C0EB0010012101EB8000EA490882E74812
:10497000B0F92200C0EB00104FF6FF7101EA800091
:10498000E249A1F86C000846B0F86C00A1F89C0060
:10499000B1F9060003F0F0FADC49C1F880000846DE
:1049A000808B87B24FF47A7005F0B2FCFAE3DA49F3
:1049B00003AA8868002104F060FFD448B0F84800DA
:1049C0001FFA80F9FEF7EFF8D248C1698161CF483C
:1049D000D0F88410CF48C16100F12101143002F0F9
:1049E0002FFE09980A900898099007980890C748E0
:1049F000406F0790C548008970BB4FF6FF70C349F0
:104A0000A1F86E0044F62060A1F890000846408BA3
:104A1000C0EB0010012101EB8000BE490882BB48B9
:104A2000808B87B20021022002F076FD0021B7487A
:104A3000A0F84810FFF74FF8FEF757FC0020B349E5
:104A400081F88D000021022002F02EFD0021AF48E8
:104A5000818200200490A9E70498B8B9AB48007897
:104A6000AA4981F88C000121022002F01DFDA7480F
:104A7000007801280AD10020A4490870FEF7EBFD58
:104A8000A248007810B90120A04908709F48007A18
:104A900004909E4A0799D2F88020881A01D40146D2
:104AA00000E04142B1F57A7F03DD0020974981F8AB
:104AB0009A009648007801287DD1944890F88D009E
:104AC00008BB9248406F00F6AC509049D1F8801076
:104AD000884214DD04208D4981F88D000846D0F805
:104AE0008000496F401A8949B1F92610484300EB0C
:104AF000D071029048100BF013FA824603E00120B7
:104B0000824981F88D00814890F88D0001283ED1BE
:104B10008048008A40B340F2E330874202DA781DD1
:104B200087B201E040F2E73739B27848A0F8481080
:104B30007848008A401E774908827448406F42F2E4
:104B4000D87108447149D1F88010884203DD0020F3
:104B50007049088208E06D48406F42F21071884247
:104B600002DD00206B4908826A48008A78B96748EC
:104B7000808B87B26548D0F88400664908600220BF
:104B8000624981F88D000120624981F820005F4868
:104B900090F88D0002287CD15E4890F82000012812
:104BA00024D15A48D0F884005A490968441A574811
:104BB000D0F8800000E08BE204EB8401B0EB810FC1
:104BC00002DDB4F57A7F0CDB0220524981F8200027
:104BD000002048824EF6602048604C48D0F884009F
:104BE000086040F2E7314948A0F84810494890F879
:104BF0002000022857D100214448A0F84810454819
:104C0000408A03284ADB4149D1F88410414A12689E
:104C1000881A01D4014600E041423E4A528A4DF2D0
:104C2000D8635A4392FBF1F43A484068A04201DD50
:104C30003848446037484068A04208DB354890F85F
:104C4000210020B1334890F82100022826D12F48B6
:104C5000808A012802D100212C48818204202B491E
:104C600081F88D0008202B4981F82000486809F060
:104C70002FF92649C884012081F89B000846C08C82
:104C80002349A1F88E000023622206211F48263006
:104C900000E008E008F063F94FF0000A1D48408A80
:104CA000401C1C494882194890F88D0003281ED1E9
:104CB000184890F82000D8B91448D0F8800013495B
:104CC000D1F88410884205DD40F2E7310F48A0F8A2
:104CD000481003E000210D48A0F848100D4890F856
:104CE00021000128E3D10B200A4981F82000F8E0D7
:104CF0000648D0F88010D0F884000A3081420DDDDB
:104D000040F2E7310148A0F8481013E0843B00204E
:104D1000263900200C3E0020E8370020FD48D0F85E
:104D20008410D0F880000A30814203DD0021F94868
:104D3000A0F84810F84890F820000A287EDDF648D0
:104D400090F820000B2809D1F34890F821000028A2
:104D5000CDD10C20F04981F82000C2E0EE4890F857
:104D600020000C2809D1EC4890F821000128BED180
:104D70000D20E94981F82000B3E0E74890F82000D1
:104D80000D2809D1E44890F821000028AFD10E2069
:104D9000E14981F82000A4E0DF4890F820000E28C7
:104DA0000DD1DD4890F82100012807D11020DA4903
:104DB00081F82000D748D0F88400C86091E0D64838
:104DC00090F8200010287DD1D34890F8210020B120
:104DD000D14890F82100022872D11120CE4981F8E3
:104DE00020000021CB488182CC48A0F84610C94859
:104DF000D0F88400C84988600420C64981F88D0035
:104E0000002081F89A00C44BDA689968588A09F042
:104E10008AF8C049C884B1F92620BF49498A02EB03
:104E2000410000EBD071C1F34F01BB4A51821046E3
:104E3000408A01B2B7480185114600E04DE0488A3A
:104E4000C11700EB91718910B24A5185B249488A65
:104E5000C11700EB91718910A0EB8101022905DDDA
:104E60001046408D401C01B210464185A948C08CB7
:104E7000AA49A1F88E00A748008DA1F89600A54880
:104E8000408DA1F89E000120A24981F89B000023DB
:104E9000622206219F48263008F061F89D48D0F82C
:104EA00080009C49D1F88410401A9A49B1F9261023
:104EB000484300EBD071029048100BF031F8824665
:104EC000954800E004E0408A401C9349488208E08D
:104ED0000B20914981F8200003E00B208E4981F8D6
:104EE00020008C4890F88D0004287CD18948D0F8A7
:104EF000840000EB800081008648D0F88000B1EB90
:104F0000C00F07DA0020844981F82000814981F828
:104F10008D0024E07F4890F89B0000BB7D48D0F8CE
:104F2000800000EB800101EBC0007A49D1F88410C9
:104F300001EB8101B0EB810F0ADC7648D0F88000EC
:104F40007449D1F88410401A41F29411884206DD68
:104F50000020714981F820006E4981F88D006D486C
:104F6000808A01280FD16B48D0F880006949D1F8B8
:104F70008410401AB0F5FA7F05DA0320654981F8FC
:104F80008D00FEF7A8FD634890F89A00E0B96148EB
:104F9000406F6049D1F88010884204DD02205D49ED
:104FA00081F89A0033E05B48406F5A49D1F880108D
:104FB000884204DA0120574981F89A0027E003204B
:104FC000544981F89A0022E0524890F89A0001284A
:104FD0000DD15048406F4F49D1F88010884216DB00
:104FE00003204C4900E011E181F89A000FE04948A4
:104FF00090F89A0002280AD14648406F4549D1F8F6
:105000008010884203DC0420424981F89A0041481C
:10501000D0F88400DFF8FCC00090DCF88030BCF9E8
:105020002600DDE9071208F052FA514602900AF014
:105030000BFE82463748D0F880003649D1F88410FC
:10504000401A3449B1F9261000FB01F40021504602
:105050000AF07EFF1ED22F48D0F880002D49D1F8EB
:10506000841088420CDA20460AF05AFF514602901A
:105070000BF06EF806D220460AF052FF824601E09D
:105080004FF0000A264950460AF062FF0DD2DFF8C1
:1050900090A00AE01F48D0F88410D0F8800000F5F6
:1050A0007A70814201DD4FF0000A1E4950460BF034
:1050B0004FF801D2DFF86CA01B4950460AF032FECF
:1050C00002900AF0F1FE01B21248A0F848109DE0EB
:1050D00010480078022866D100200E4981F89A0015
:1050E0000846B0F89C10B0F89C00401E094AA2F88F
:1050F0009C0021B31046B0F944000A2190FBF1F066
:105100000649C988884211DB00211046A0F84810E2
:1051100011E00000843B00200C3E002026390020D6
:1051200000401CC60050C3470000C84240F2E731AF
:10513000FC48A0F848100020FA49488066E00021A9
:10514000F848A0F848100120F649087000BF002078
:10515000F54981F82000F34981F88D00D1F88010DD
:10516000F04A526F891AEF4AB2F9262001FB02F089
:105170000AF0D6FE8246EB48B0F86C00E949A1F887
:105180009C000846B0F97C0064214843E549B1F928
:10519000241090FBF1F000B2E249A1F87C00E34951
:1051A000C88033E00EE2DF48007803281FD1DD48D5
:1051B000408801B2DB48A0F848104FF0000A0020F8
:1051C000D84981F89A00D84981F82000D54981F85A
:1051D0008D00D1F88010D34A526F891AD14AB2F9A2
:1051E000262001FB02F00AF09BFE82460EE0002121
:1051F000CC48A0F848108A460020CA4981F89A0095
:10520000C94981F82000C74981F88D00C548B0F927
:105210004800002804DA0021C248A0F848100AE03B
:10522000C048B0F94800B0F57A7F04DB40F2E731BE
:10523000BC48A0F84810BB4890F88C000B380928EF
:1052400023D2DFE800F019220F0510220607110013
:1052500000BF00BF0021B348A0F84810022002F0B0
:1052600023F917E000BF00BF0021AE48A0F84810A6
:10527000022002F019F90DE00021AA48A0F8481018
:105280000121022002F010F904E00121022002F0C5
:105290000BF900BF00BFA348C08918B90020A1497D
:1052A000A1F89000FEF721F8A148806810F4804F23
:1052B00002D117200B9009E00B98401E0004000C4F
:1052C0000B9003D10E20974981F88C009548B0F9D6
:1052D0004400B0F57A7F34DAA8F101001FFA80F8B3
:1052E0009048B0F87000A84202DD8E48B0F87050C7
:1052F0008C48B0F87000B04202DA8A48B0F87060AA
:1053000040F2DE30814502DBA81B092804DD4FF0A6
:105310005A08002542F22836B8F1000F16D1A81B12
:105320000A2808DA7F4890F88C000F2803DA0F204B
:105330007C4981F88C004FF05A0842F2283600254B
:1053400004E04FF05A08002542F2283607990A98DF
:10535000401AB0F5FA6F20DDDDE9091088421CDB48
:10536000DDE90810884218DBDDE90710884214DB0C
:105370006C4890F88C0013280FDA05210A9890FBEE
:10538000F1F0079A0A99891A884206DA01206549DC
:1053900081F89800142081F89900624890F89800EC
:1053A000012827D15F4890F8990018B35D4890F81C
:1053B0009900401E10F0FF005A4981F8990001D170
:1053C00081F89800574890F88C00132812DA594851
:1053D000B0F9180000EB80004FF47A7101EB400047
:1053E0000799884206DD00204E4981F898000F2079
:1053F00081F88C004B4890F88C000F2810D14D4854
:10540000B0F9180000EB80004FF47A7101EB400016
:105410000799884204DA43480078424981F88C00B1
:10542000B9F5FA7F18DB3F48B0F84600A0B93D480F
:1054300090F88C0013280CDA0698052804DD10205B
:10544000384981F88C0009E00698401CC0B20690EB
:1054500004E00020069001E000200690314890F81A
:105460008C00102808D12F48B0F8460020B12D48F4
:1054700000782C4981F88C002A4890F88C00132879
:1054800029DA2848B0F94610B0F91E00814203DD40
:105490001120244981F88C002248B0F8480078B9DE
:1054A0002048B0F946002D280ADB0598401CC0B200
:1054B0000590102806D112201A4981F88C0001E0CD
:1054C000002005901B48B0F88200052803DB13205C
:1054D000144981F88C00134890F88D0004283ED1BF
:1054E000104890F89A00032839DB0E48007801280C
:1054F00035D10C4890F88C000B2830DA0948B0F907
:1055000016000849B1F97C1001EB810100EB410064
:105510000449B1F9441088420EDA0B20014981F8A0
:105520008C004EE0843B00200C3E002026390020F9
:1055300000100140FC370020FE48B0F94410B0F9DB
:1055400018000844FB49B1F97C1001EB8101B0EB74
:10555000410F36DA0C20F74981F88C0031E0F5482C
:1055600090F88C000B2814D1F248B0F91600F149DC
:10557000B1F97C1001EB810100EB4100ED49B1F97B
:10558000441088421DDBEB480078EA4981F88C0022
:1055900017E0E84890F88C000C2812D1E548B0F9E3
:1055A0004410B0F918000844E249B1F97C1001EB4D
:1055B0008101B0EB410F04DBDE480078DD4981F862
:1055C0008C0000BFFFF7F3B98CB04FF05A080320EE
:1055D0000B9041F2883500264FF00009002700208B
:1055E0000790089009900A9000248246834606900E
:1055F00005900120049000BFCF490870CF4908876B
:1056000000BF12E04FF4FA6004F082FEFDF7EBFBFE
:10561000FDF7BDFE0898099007980890C648406FAE
:1056200007900BF1010000F0FF0BBBF10A0FE9DB63
:10563000C148408BC0EB0010012101EB8000C04944
:105640000882BD48B0F92200C0EB00104FF6FF7190
:1056500001EA8000B849A1F86C000846B0F86C0077
:10566000A1F89C00B1F9060002F086FCB249C1F82D
:1056700080000846808B87B24FF47A7004F048FEB1
:10568000FBE3B04903AAC868002104F0F6F8AA4871
:10569000B0F848001FFA80F9FDF7A5FBA848C169DA
:1056A0008161A548D0F88410A548C16100F12101AD
:1056B000143001F0C5FF09980A90089809900798DE
:1056C00008909D48406F07909B48008970BB4FF63B
:1056D000FF709949A1F86E0044F62060A1F890008F
:1056E0000846408BC0EB0010012101EB800094497B
:1056F00008829148808B87B20021032001F00CFFC3
:1057000000218D48A0F84810FEF706FAFDF73FFE8D
:105710000020894981F88D000021032001F0C4FE9A
:1057200000218548818200200490A9E70498B8B937
:1057300081480078804981F88C000121032001F024
:10574000B3FE7D48007801280AD100207A4908700C
:10575000FEF731F87848007810B9012076490870D2
:105760007548007A0490744A0799D2F88020881A04
:1057700001D4014600E04142B1F57A7F03DD00200B
:105780006D4981F89A006C48007801287DD16A48FB
:1057900090F88D0008BB6848406F00F6AC50664931
:1057A000D1F88010884214DD0420634981F88D000F
:1057B0000846D0F88000496F401A5F49B1F92610B9
:1057C000484300EBD071029048100AF0A9FB8246D2
:1057D00003E00120584981F88D00574890F88D006A
:1057E00001283ED15648008A40B340F2E330874258
:1057F00002DA781D87B201E040F2E73739B24E484D
:10580000A0F848104E48008A401E4D4908824A4878
:10581000406F42F2D87108444749D1F8801088425D
:1058200003DD00204649088208E04348406F42F209
:105830001071884202DD0020414908824048008AF8
:1058400078B93D48808B87B23B48D0F884003C490A
:1058500008600220384981F88D000120384981F81C
:105860002000354890F88D0002286DD1344890F81A
:105870002000012824D13048D0F88400304909683C
:10588000441A2D48D0F8800000E099E204EB84012E
:10589000B0EB810F02DDB4F57A7F0CDB02202849E2
:1058A00081F82000002048824EF66020486022489F
:1058B000D0F88400086040F2E7311F48A0F8481093
:1058C0001F4890F82000022861D100211A48A0F852
:1058D00048101B48408A032854DB1749D1F884102C
:1058E000174A1268881A01D4014600E04142144A5E
:1058F000528A4DF2D8635A4392FBF1F41048406843
:10590000A04201DD0E4844600D484068A04208DB1B
:105910000B4890F8210020B1094890F82100022896
:1059200030D10548808A012802D1002102488182B5
:1059300004200AE0843B0020503C0020263900204F
:10594000303E0020E837002021E0FE4981F88D003C
:105950000820FD4981F82000486808F0B9FAF949A3
:10596000C884012081F89B000846C08CF749A1F843
:1059700090000023A2220621F248263007F0EFFA19
:105980004FF0000AF048408A401CEF494882ED4839
:1059900090F88D0003281ED1EB4890F82000D8B96C
:1059A000E848D0F88000EA49D1F88410884205DD43
:1059B00040F2E731E348A0F8481003E00021E14855
:1059C000A0F84810E04890F821000128E3D10B200E
:1059D000DD4981F82000F0E0DA48D0F88010D0F8F6
:1059E00084000A30814205DD40F2E731D548A0F855
:1059F00048100BE0D348D0F88410D0F880000A306B
:105A0000814203DD0021CF48A0F84810CE4890F82D
:105A100020000A287EDDCC4890F820000B2809D110
:105A2000C94890F821000028D5D10C20C64981F83A
:105A30002000C2E0C44890F820000C2809D1C248D8
:105A400090F821000128C6D10D20BF4981F820001F
:105A5000B3E0BD4890F820000D2809D1BA4890F86D
:105A600021000028B7D10E20B74981F82000A4E01A
:105A7000B54890F820000E280DD1B34890F82100C9
:105A8000012807D11020B04981F82000AD48D0F896
:105A90008400C86091E0AC4890F8200010287DD1C7
:105AA000A94890F8210020B1A74890F821000228C9
:105AB00072D11120A44981F820000021A1488182DF
:105AC000A248A0F848109F48D0F884009E498860FA
:105AD00004209C4981F88D00002081F89A009A4B9F
