:020000040800F2
:10000000F00800208D520008213A0008233A000829
:10001000253A0008273A0008293A000800000000A5
:100020000000000000000000000000002B3A000863
:100030002D3A0008000000002F3A0008313A00086D
:10004000A7520008A7520008A7520008A7520008AC
:10005000A7520008A7520008A7520008A75200089C
:10006000A7520008A7520008A75200082D1A00083E
:10007000A7520008A7520008A7520008A75200087C
:10008000A7520008A7520008A7520008A75200086C
:10009000A7520008A7520008A75200080519000837
:1000A000A7520008A7520008A7520008A75200084C
:1000B000131A0008A7520008A7520008A752000808
:1000C000A7520008A7520008A7520008A75200082C
:1000D000A7520008A7520008A7520008A75200081C
:1000E000A7520008A7520008A752000800F002F823
:1000F00000F03AF80AA090E8000C82448344AAF188
:100100000107DA4501D100F02FF8AFF2090EBAE885
:100110000F0013F0010F18BFFB1A43F0010318473B
:100120002084000040840000103A24BF78C878C1C1
:10013000FAD8520724BF30C830C144BF04680C60ED
:10014000704700000023002400250026103A28BF35
:1001500078C1FBD8520728BF30C148BF0B60704739
:100160001FB51FBD10B510BD05F0C6F81146FFF74D
:10017000F7FF00F0A6FE05F0E4F803B4FFF7F2FF86
:1001800003BC05F0E5F80000F0B5002801DB0546EA
:1001900000E04542002742F21074A54200DB651ED4
:1001A000FC4C4FF00A0C23B1A38A13B990FBFCF06E
:1001B00000B24FF47A7395FBF3F393FBFCF40CFB62
:1001C0001433642495FBF4F494FBFCF60CFB164406
:1001D00095FBFCF696FBFCFE0CFB1E6E0CFB16550D
:1001E000EC4E303330343035B6F802C00EF1300EFC
:1001F000E94EDBB2E4B20EF0FF0EEDB2012A04D0FC
:10020000022A1BD0032A2AD02CE0BCF1000F29D1EE
:10021000302B05D036F813200A80302C02D003E0B2
:100220000F80FAE70A883AB136F814204A8036F887
:100230001E2042F4004210E04F80F8E7BCF1000FAE
:1002400010D1302B07D036F813200A8036F814204E
:1002500042F4004223E00F80F8E78A8048E0BCF1D6
:10026000000F15D01CF0F00F27D036F813300B809C
:1002700036F814404C8036F81E708F8036F81550D2
:10028000CD80012A0DD0022A0FD0032A11D032E0EE
:1002900036F8132042F400420A8036F814204A80CF
:1002A00022E047F400428A8025E044F400424A807C
:1002B00021E043F400420A801DE0302B05D036F8DF
:1002C00013200A80302C02D003E00F80FAE70A885E
:1002D00032B136F814204A80BEF1300F02D003E06C
:1002E0004F80F9E74A8812B136F81E20B5E78F80B3
:1002F00036F81520CA80002802DA4FF480400880C2
:10030000F0BDF0B500274FF00A0C13B10AB9B0FBED
:10031000FCF04FF47A73B0FBF3F3B3FBFCF40CFB8B
:1003200014336424B0FBF4F4B4FBFCF5B0FBFCF62E
:100330000CFB1544B6FBFCF50CFB15650CFB160617
:1003400030333034303530369348012A09D0022A10
:100350001DD0302B2AD030F813200A80302C27D023
:1003600028E0302B05D030F813200A80302C02D042
:1003700003E00F80FAE70A883AB130F814204A8087
:1003800030F8152042F400420EE04F80F8E7302BA1
:1003900008D030F813200A8030F8142042F40042CC
:1003A0004A8011E00F80F7E78A8011E00F80D5E7DF
:1003B0000A882AB130F814204A80302D02D003E098
:1003C0004F80FAE74A8812B130F81520ECE78F80A9
:1003D00030F81600C880F0BD0A22B0FBF2F110B56B
:1003E00001F1300302FB11026B4CDBB26B4930327E
:1003F00034F813300B8134F812204A814FF48042D4
:100400008A811B30634AC0B202EB40004FF47C5239
:10041000B0F90E000A2801DDCA8110BD03D14FF4E6
:100420008C408881F8E704EB4000B0F86000C88198
:1004300010BD2DE9FC4F574D41F288342946B5F9DE
:10044000747091F8BA20B1F912300193B1F9141017
:100450000026A74206DD0027032A13D2032285F8CF
:10046000BA200FE0032A01D185F8BA603BB107EB4F
:10047000C703052293FBF2F202F5A07217B209B985
:100480007F1D3FB2454C4FF4F04804F108024FF491
:10049000C06E4FF4645B4FF4E24C4FF4DA490092C3
:1004A000CA2876D06ADC3B4A4FF4A8436728B2F9E1
:1004B00044A075D02DDCB2F944204FF4807A02EBD1
:1004C000820204286DD00BDC00286BD001286AD092
:1004D000022869D003281AD1002F66DB384641E193
:1004E000642863D0652862D0662810D12680A4F8DD
:1004F00002B04FF48041A180A4F806C02681668135
:10050000A68101995846002922D0A4F80EC0BDE862
:10051000FC8F6C287ED01CDC68287CD069287BD0BE
:100520006A287AD06B28F2D126804FF46050608020
:100530004FF4B841A180A4F806B02681B5F91C009B
:1005400000286BD061810128A38168D04FF4B640A8
:10055000BAE26D287ED0C8287DD0C928D7D14FF403
:10056000EE4020804FF4605060804FF48040A080C7
:100570004FF4EC40E080B5F9200013E2B0F5967F2F
:100580006AD01BDCA0F1CB004FF4DC410828BED2BE
:100590000EE0DFE18C0000206E7200089401002064
:1005A00052E108E15CE081E0ADE0DAE02DE13AE122
:1005B000DFE800F0FCFBFAF9F8F7F6F5B0F5C87FD4
:1005C00072D00CDCA0F580702D386ED001289ED141
:1005D00026806680A6804FF4B640E08097E7FF490A
:1005E0004FF00A02A0F58070D1F8D4109138B1FB19
:1005F000F2F17CD001287BD0022888D1B5F97C109B
:100600000A2091FBF0F0002800DA4042002300B2FB
:10061000012205E079E12EE14AE15FE171E122E1A9
:10062000EF49FFF7B1FDB5F97C0000280EDA64212F
:1006300090FBF1F0002800DA4042002300B21A4695
:10064000E749FFF7A1FD4FF4804060804FF4F2408E
:10065000208002E063E16FE111E2B5F93A000BE2BC
:10066000002F01DB384600E0784200EB4200CAB2BE
:1006700080B20123DA49FFF744FE002F02DA4FF47B
:100680008040208095F8BA00032809D1287838B92D
:10069000A4F806A0A4F804A0A4F802A0A4F800A05E
:1006A0002A7DB5F9AC0084E0FFE1F8E1002F01DB21
:1006B000384600E0784200EB4200CAB280B2012323
:1006C000C749FFF71EFE002F02DA4FF4804020805A
:1006D00095F8BA00032809D1287838B9A4F806A0FB
:1006E000A4F804A0A4F802A0A4F800A001E0EDE1A1
:1006F000F5E1B5F98200002301220099FFF744FDDE
:100700004FF4B8409DE1002F01DB384600E078420D
:1007100000EB4200CAB280B20123B149FFF7F1FDFC
:10072000002F02DA4FF48040208095F8BA000328A9
:1007300009D1287838B9A4F806A0A4F804A0A4F830
:1007400002A0A4F800A0B5F980100A2091FBF0F0F7
:1007500000B2002301220099FFF716FDA4F808B0AB
:10076000D5E6784200EB4200CAB280B201239C4930
:10077000FFF7C7FD002F02DA4FF48040208095F884
:10078000BA00032809D1287838B9A4F806A0A4F83B
:1007900004A0A4F802A0A4F800A02A7D07E061E16B
:1007A00051E13DE12AE11DE103E1EDE0DFE0B5F9D2
:1007B000760001239DE1002F01DB384600E07842FE
:1007C00000EB4200CAB280B201238549FFF799FDD0
:1007D000002F02DA4FF48040208095F8BA000328F9
:1007E00009D1287838B9A4F806A0A4F804A0A4F880
:1007F00002A0A4F800A0B5F90C0000230122009982
:10080000FFF7C2FC4FF4EE401BE14FF40060208084
:10081000A4F802904FF4F240A080A4F8068026814C
:100820006681A6811FE0268066804FF44050A0803C
:10083000E38026816681A681288A10B14FF4E040CA
:1008400042E14FF460603FE14FF4785020806380D4
:100850004FF44050A080A4F806802681668129B11B
:100860004FF43F40A081A4F80EE050E6A4F80CE05D
:100870004FF47C5028E14FF4EC402080A4F8029023
:10088000A4F804B04FF44050E0802681E88A30B1EB
:10089000A4F80A90A4F80C904FF4A04014E14FF48F
:1008A000E64060814FF4FC40A0814FF45C500BE1C6
:1008B000A4F800804FF4785060804FF4A040A080EE
:1008C000E3802681298B184621B166814FF4B84117
:1008D000A181F9E04FF4B840608113E04FF4F84093
:1008E0002080401060804FF4B640A080E0802681D8
:1008F000688B0028EED066814FF4B840A081E38178
:1009000005E66181A4F80CC0FFE526804FF4B840ED
:100910006080A4F804C0A4F806905046ACE026809D
:1009200066804FF44050A0804FF4BC40E08000232C
:10093000B5F91E001A4637E04FF400602080A4F895
:1009400002904FF4F240A080A4F8068026816681D0
:10095000A681FBE54FF4EE4020804FF460506080AC
:100960004FF48046A680E080B5F922001AE04FF4EB
:10097000EC402080A4F802B04FF48041A180E080D8
:100980005E46B5F924000DE04FF4EC402080A4F859
:1009900002B04FF48040A0804FF46050E080B5F981
:1009A00026005E46002301220099FFF7EDFB268119
:1009B000ADE5A4F800904FF4B8406080A4F804C0FE
:1009C000A4F806800023B5F928001A460099FFF71D
:1009D000DBFBA4F80880668199E500008C0000200C
:1009E00094010020A4F800904FF4B8406080A4F86F
:1009F00004C0A4F80680B5F92A00FEE6A4F8009029
:100A0000A4F802804FF4F840A080E180B5F92C00F2
:100A1000002302220099FFF7B7FBA4F8088076E5CF
:100A2000A4F80090A4F802804FF4F840A080E18080
:100A3000B5F92E00002302220099FFF7A5FB4FF421
:100A4000E640208163E54FF4804020804FF4F2417E
:100A500061804FF4A041A180E08095F84200BDE89C
:100A6000FC4FB9E4F94800231A468089F64900B2E0
:100A7000FFF78AFBB5F9300000231A4639E04FF43E
:100A800000602080A4F802904FF4F240A080A4F807
:100A9000068026816681A6814FF49E4014E0268060
:100AA0006680A680A4F806E031E54FF4006020805F
:100AB000A4F802904FF4F240A080A4F806802681AA
:100AC0006681A6814FF4CC40E08120E588B2002306
:100AD0000222DD49FFF715FCB5F93600CCE788B2F4
:100AE00000230222D849FFF70CFCB5F93800002397
:100AF0000322009902B0BDE8F04FFFF745BB30B4C8
:100B0000D34900204FF4487308834B87C88640F2CE
:100B1000FA330B8714230B8601238B824B83888344
:100B20004FF4FA64CC87A4100C844C84A0248C84E9
:100B30000224CC840B85C8234B8564238B85322308
:100B40000246CB85A1F8442001EB4003401CC0B213
:100B5000A3F846201428F7D3AB20C8810023BC4853
:100B6000642130BC1A460E3002F06BBD2DE9F04115
:100B7000B54C00261C3C44F620606680A080E080D6
:100B8000B34864250E3024F8EC5901233246022183
:100B9000074602F056FD20B9E089AB282DD0FFF7BB
:100BA000AEFFB4F91E00FF2800DDE6832683B4F90A
:100BB0002C104FF4616291FBF5F0424305FB1010DD
:100BC000C0EB001002EB8000A4F89A00608AD8B154
:100BD000B4F93E00052100EBC00090FBF1F000F5F8
:100BE000A07081B2B4F84400404200EB800001EBF9
:100BF0004000A4F8AC00BDE8F0810123002264218C
:100C0000384602F01EFDCCE7E08FEAE730B48F4BA8
:100C10008D4C9049D8881434002203F10E053228F7
:100C200046D017DC172830D00BDC0A282FD003DC85
:100C300038B303287CD128E00D2826D0142877D19A
:100C40002AE01E282CD021281FD028282CD031287B
:100C50006ED11AE04F2818D008DC3B2815D03C286C
:100C60002AD0452811D0462862D129E04FF480755A
:100C7000502829D053282BD05A282ED05C2857D161
:100C800033E02488CC602C8804E0CA6050E064889B
:100C9000CC606C880C614BE0A488CC60AC88F9E730
:100CA000E488CC60EC88F5E72489CC602C89F1E7F6
:100CB0006489CC606C89EDE7A489CC60AC89E9E7F4
:100CC000E489CC60EC89E5E7248ACC60624902E0E3
:100CD000CA606149091D0D602AE04C686FF30F047A
:100CE0004C604C6844F2444520E08C68E5054FF0C8
:100CF000010401D5DC7000E0DA708D68AD0501D526
:100D00001C7100E01A718D686D0501D59C7000E0C2
:100D10009A708D682D0501D55C7100E05A714C68A0
:100D20006FF30F044C604C6842F222252C434C6058
:100D30005C2801D3DA8001E0401CD88018780028B4
:100D400016D0188944F62061884201D2401C1881CF
:100D50003F4942F20F74B1F8E400A04202D2401CB5
:100D6000A1F8E4005889B0F5967F03D2401C588161
:100D700030BC70475A8130BC02F0DCBA2DE9F04F2C
:100D8000334A31494FF4F044927A4FF439464FF4E4
:100D9000B84A4FF4DA474FF4EE484FF460594FF435
:100DA00080454FF4EC4C4FF4784E4FF4E24B0B2857
:100DB00026D2DFE800F0251E27063F532E0F1433FE
:100DC0003800022A1CD00C804E80A1F804A04FF4F9
:100DD000E6404BE0022A13D00C804E8027E0022A26
:100DE0000ED00C804E804FF4A04088804FF4F2402B
:100DF0003CE0A1F80080A1F802908D80A1F806C027
:100E0000BDE8F08FA1F80080A1F8029048468D80DF
:100E10002CE0A1F800C0A1F802E0D6E7A1F800C0DC
:100E2000A1F802E003E00C804FF4504048808F802E
:100E3000CC80E5E7A1F800B04FF43E4048808D80BB
:100E40004FF4C06012E00000940100200000002078
:100E50008C0000200010014010080140A1F800B0F3
:100E60004FF43E4048808D804FF4B640C880C7E7BD
:100E70004FF40061012802D0954801607047944802
:100E8000001FFAE704E00021491CC9B2FF29FBD387
:100E90000100A0F1010080B2F5D1704770B50446A1
:100EA0000D4645F2555003F03DFA204603F03DFA59
:100EB000284603F03DFA03F03EFABDE8704003F027
:100EC0003FBA002400F02CFB7D2003F07AFA824F19
:100ED000804D00264FF00109A7F58E7A012844D0F5
:100EE0004FF4E05038807E804FF45B40B8804FF480
:100EF000C060F8804FF4804038817881B881F881F3
:100F000044F62060FFF7BEFFFFF730FE85F8009043
:100F100000F079FF0AF1C80006834660C6820660C9
:100F20008682CAF8C4602E81DFF8AC810420A8F163
:100F30001408B8F8101041F48061A8F81010FA21D4
:100F4000FFF7ACFFAB465D46BBF80800B0F57A7F13
:100F5000F9D32E8168780A2818D2401CC0B2687074
:100F6000052816D00A2814D015E003F038FB85F8C0
:100F700000904FF47C5038807880B880F8803881B9
:100F80007881B881F881FFF7F1FDCDE785F8019010
:100F900001E002F05DFC6878C007D4D100F0D2FF18
:100FA0009AF80000554605280AD2DFE800F003054C
:100FB00011141800687801E068786430FFF739FA96
:100FC00095F8BA0020B3052C0FD2297859B10CE05E
:100FD0006878C830F2E7687800F59670EEE76878D0
:100FE00000F5C870EAE7FFF7C9FE34B1052C09D057
:100FF0000A2C0BD2641CE4B20EE0688B0028F9D0F6
:10100000012000E00020FFF733FFF3E7002403E0B6
:1010100000242046FFF72CFF6A884FF00000D2B171
:10102000A988C44609FA00F31A420FD0CB070DD0A5
:1010300027F81060401CC0B20828F3D30A46491CA8
:101040002846A980192A10D346800DE03CF81030BC
:1010500027F81030EEE7414631F8102027F810202D
:10106000401CC0B20828F7D3AE80B8F810103982FF
:10107000B8F812007882E88858B1401EE8803E81B6
:101080004FF4605078814FF4B840B8814FF4645009
:10109000F881B5F8F80098B1401E0004000CA5F8DE
:1010A000F8000DD1287803280AD248B1AE806E80AE
:1010B0002E70A87A18B1012805D0022805D06E70CC
:1010C00003F039F93FE7032000E004206870F7E7F8
:1010D000140C014000000020A801002080B1BAB12A
:1010E000614A6429A2EB80000DD0D0F89C0F062144
:1010F00000F5487000EB8000B0FBF1F080B2704763
:101100004FF6FF707047B0F89C0F00F54870F5E798
:10111000A0F2ED30404248434FF47A7190FBF1F079
:10112000ECE730B5524B514C00211A6854F822209C
:10113000824210D31A68202A0AD054F822508542DD
:1011400018D3521C491C49B21A602129F2DB11E064
:101150004FF420700EE01A6854F82250854207D8E8
:10116000521E1A60012A03D0491C49B22129F2DB20
:10117000511C1960196804EB810252F8043C54F8C0
:1011800021209B1A801A4FF4FA725043B0FBF3F0FF
:1011900001EB4102C2EBC111C0EB8100A0F59850F8
:1011A000883800B230BD10B5B0B130488C3802EB91
:1011B000420430F8123000EB4200C4EBC21230F8A7
:1011C000020CC1EBC201181A48434FF47A7190FB2C
:1011D000F1F0181A00B210BD2648E8E730B5B1B1F9
:1011E00022498C39224C626831F8122082424FF039
:1011F000000215DC636831F81350854209DC5B1C82
:101200006360452B07DDB1F88A0045220CE01949DF
:10121000E8E75A1E08E0521CD2B2462AEAD30FE091
:101220006368012B02DA0122626009E031F8135091
:10123000854205DB5B1E521CD2B26360462AEFD3A7
:10124000626831F8123001EB420131F8021C591A80
:10125000181A42F21073584390FBF1F019114A43E7
:10126000C0EB021030BD0000707300082884000835
:101270002800002010830008F8B50121082003F0A1
:1012800080F902208DF802004FF41060ADF80000E4
:10129000BA4E10248DF803406946304602F069FFCB
:1012A00040F20640ADF8000048208DF80300694682
:1012B000304602F05EFF0121042003F062F90720AE
:1012C000ADF800001420AE4F8DF803006946384693
:1012D00002F04FFF3820ADF8000000208DF8030029
:1012E0006946384602F045FF4FF4A650ADF80000BD
:1012F00004208DF803006946384602F03AFF2501C4
:10130000ADF800508DF803406946384602F031FFD1
:101310006001ADF8000018208DF8030069463846DA
:1013200002F027FF0121102003F02BF94FF6FF7088
:10133000ADF800008DF80340924C6946204602F05B
:1013400018FF0721384602F07CFF2946304602F09C
:101350007AFF0021204602F07DFFF8BD7FB5012114
:10136000084603F017F944F62060ADF804000520A4
:10137000ADF8000000248507ADF80240ADF8064046
:101380006946284603F0E8F90021284603F042FDAB
:10139000288840F00C0028800121284603F0B9FE7F
:1013A00001221146284603F094FC1C208DF80C0005
:1013B0008DF80D408DF80E4001208DF80F0003A828
:1013C00002F03DFB7FBD3EB50121084603F0D9F890
:1013D0000621002002F07FFF402002F06BFE40203B
:1013E000002500908DF8045008208DF80500012498
:1013F0008DF80640684602F0FFFD6348016821F061
:101400004001016017208DF808008DF809508DF813
:101410000A408DF80B4002A802F011FB3EBD10B54A
:1014200086B001214FF4017003F0ABF801218DF873
:10143000041000208DF805104FF46021CDE9021052
:1014400000900320514C8DF810006946204602F0B0
:1014500065FB062301220321204602F0DFFB062361
:1014600002220421204602F0D9FB06230322052193
:10147000204602F0D3FB0121204602F081FB01212E
:10148000204602F073FB204602F08DFB204602F05E
:101490008FFB0028FAD1204602F091FB204602F093
:1014A00093FB0028FAD106B010BD10B501218CB015
:1014B000084603F05DF8364C204602F0ABFC33489A
:1014C00034494C30CDE9000100210320CDE9021060
:1014D0008020CDE904104000069080000790202075
:1014E00008900002CDE909016946204602F0FFFCA0
:1014F0000B208DF82C0001218DF82D108DF82E1069
:101500008DF82F100BA802F09AFA01220221204632
:1015100002F022FD0121204602F013FD0CB010BDA7
:1015200010B503F06FFE4FF4A06002F083FAFFF7EE
:10153000A3FEFFF713FFFFF746FFFFF7B6FFFFF726
:101540006EFF154842F210710068B0FBF1F0B0F187
:10155000807F0CD220F07F414FF0E020491E416196
:101560000E4AF02111700021816107210161BDE85F
:1015700010400121054802F02EBB0000000C014084
:101580000008014000100140040401400024014013
:1015900008000240480100207800002023ED00E010
:1015A0002DE9FF5F14468046DDF838A01F460D4642
:1015B000181B00D5404208F164014843C82190FB44
:1015C000F1F0BC4203DDA54201DD002006E0BC4293
:1015D00001DAA542F9DBB0F57A7F0ADA04F0E9FE18
:1015E000914A924B03F02CFF0022914B05F068F8D2
:1015F00009E0A0F57A7004F0DCFE00228D4B03F0C8
:101600001FFF81F0004104F077FE00F5FA5640F626
:10161000B830864200DA064606FB08F0009086489D
:10162000006801908548304405F0C4FB0390601BBE
:10163000B0F1000B01DACBF1000005F0BBFB05F0C7
:101640001BFA7F4A7F4B03F0FBFE89467E490290DE
:1016500008FB01F004F0ADFE4B46029A04F0FCFEDC
:1016600004F004FC039905F0A7FADFF8CC91AC4232
:10167000C9F8000003DA80F00040C9F8000073499F
:10168000019805F0E3FBD9F8001005F021FA704944
:1016900005F092FAC9F80000019905F0D5FC8146E1
:1016A000B7EB0A0600D57642032208F1280090FB2A
:1016B000F2F0404457451DDD04F07BFE07464046EE
:1016C000019104F076FE80468A46304605F072FBB2
:1016D00005F0D2F94FF066325E4B03F0B1FE002206
:1016E0005D4B04F0F5FB4246534604F0B5FE3A4626
:1016F000019B1DE02ADA04F05CFE02908A46404617
:1017000004F057FE80460F46304605F053FB05F0C7
:10171000B3F94FF066324F4B03F092FE00224F4B6D
:1017200004F0CEFF42463B4604F096FE5346029A32
:1017300004F08AFC06460F46484605F09DF93246FD
:101740003B4604F0C5FB04F091FB8146DFF810A195
:1017500000984FF03338AC4212DB04F02AFE044606
:101760000D46584604F025FE4246534603F068FEF7
:1017700022462B4604F070FE04F078FB394911E054
:1017800004F017FE06460F46281B04F012FE4246E0
:10179000534603F055FE32463B4604F05DFE04F02E
:1017A00065FB314905F008FA04B04946BDE8F05F31
:1017B00005F08EB910B5193004F0FBFD00222B4B5B
:1017C00003F03EFE012205F0E6FC0022224B05F06C
:1017D00069F804F091FD962801DD962002E00A28C0
:1017E00000DA0A2000B210BD70B50446881A00F570
:1017F000C87005F0DFFA05460A3404EB8400800067
:1018000005F0D8FA294605F0D7F905F035F9002298
:10181000164B03F015FE0022154B04F01DFE04F0DC
:101820006BFD00B270BD0000D7A3703D0AD7F33F37
:101830000078B4400000F03F30000020A086010096
:101840009A9999999999E93FC0C62D000000A04046
:101850000000C0406666EE3F00002440000024C047
:101860003333F33F00606A4600606AC60000E03F21
:1018700000003440FD49B1F93E0000EB800040001B
:10188000C1F8A400704710B5D0E90021F84C91428E
:1018900009DD8368934206DD994201DD036000E0C3
:1018A000016001200AE08A420BDD83689A4208DD6C
:1018B000994201DD016000E00360002084F8290006
:1018C00010BD8A42FCD180688242F9D10320F5E73D
:1018D000E8480021E54A41608160C1600161C18240
:1018E0000183D2F8A8200A2392FBF3F2426202623B
:1018F000C261DF4A80F82810042082F82900DE48FF
:10190000017070472DE9F047DC48016849067ED533
:1019100040210160D54C060721468515DFF860930C
:10192000B1F88200E28AB1F8EC104FF6FE78A9F126
:1019300004071AB1D34A1278642A1BD2B4F9822060
:1019400040F2E7339A4213DAB28A42F00102B282DD
:101950000122FFF7C3FBB085A6F81080B4F882001F
:1019600018B1308840F001003080C9F800501AE00A
:101970003D6018E0B4F8EE2032B90022FFF7AEFB6C
:10198000A4F8F200C9F8005034F8EE0F411C218091
:10199000A188EE3C884200D13D60B08A40F0010051
:1019A000B082A6F8108094F8EA0064282FD294F848
:1019B000E810491CC9B284F8E8100A2927D1B249B5
:1019C0000A280AD934F8E42FB1FBF2F12289114434
:1019D000C1F34F012181E43C05E0B4F8E420B1FB00
:1019E000F2F1A4F8EC1089B26E2902D8642101E06A
:1019F0000DE07821A4F8EC1089B20522B1FBF2F1D8
:101A0000E434401C6182A071002020802071BDE878
:101A1000F0874FF08040018AC90706D0984A8115A7
:101A2000121F11604FF6FE71018270478F48BC3063
:101A300002888168114481604288C1681144C16094
:101A40008288016911440161018C491C0184418C27
:101A5000491C4184818C491C81848C48416841F037
:101A600001014160704770B5804D04460021B5F812
:101A7000DE00D5F8C83064285FDD93FBF0F000226B
:101A8000A5F8DE20C5F8C82000EB8003B5F93A20A0
:101A90005B005A43A0F61E40404292FBF0F004EB7C
:101AA0004102528824F81120491C49B20929F6DB69
:101AB000FFF737FB6082A5F87C000020014634F96F
:101AC0001120491C49B210440A29F8DB0A2190FB75
:101AD000F1F1B5F97A00884202DA00F1020002E081
:101AE00003DDA0F10200A5F87A00B5F97A0041F60D
:101AF0009021884202DDA5F87A1007E06449884207
:101B000002DAA5F87A100EE000280CDDB5F97A109B
:101B10004FF47A7391FBF3F203FB121150B219B137
:101B2000401C40B200E00120C2B2B5F97A10B5F90C
:101B30001000FFF738FBC5F8D00070BD2DE9F05F4D
:101B40004A4A07460026B2F8DC00D2F8C4103446F0
:101B500064287DDD91FBF0F39046AE32D685C2F865
:101B600016601380B8F936204243914201DD8D1A88
:101B700000E00025000305F01DF98246B8F93800A1
:101B800005F018F98146284605F014F9052105F0FD
:101B900030FB494605F05AF9514605F00DF805F0BD
:101BA000E9F8C8F8D400D8F8D010084407EB84014D
:101BB000496847F82410641C64B2042CF6DB4546DF
:101BC000B8F91010FFF70AFB00213861084657F8F2
:101BD0002020401C40B211440528F8DB322091FB44
:101BE000F0F1C5F8A010D5F8A800081A00D54042B9
:101BF000042801DDC5F8A81005F174054FF00A01AD
:101C00006A6BB5F9040092FBF1F10CB2AC8035F9C6
:101C10007429101A00D54042642800DD6420AA46C9
:101C200095F8E2E0DFF86C90134BDFF86C801B4D09
:101C300047B24FF0010CBEF1040F31D088F800C05C
:101C40000A482C81B0F93E00E8808346201A00E063
:101C5000D7E0B0F1000A01DACAF10000322845DD10
:101C600088F800C01978022933D034E08C000020B5
:101C7000BC010020F80100202200002014040140D3
:101C8000140C014025000020A08601000000024045
:101C900030F8FFFF24000020230000203400002043
:101CA000BAF93E00B5F90610884203D088F800C0A2
:101CB0001E70C5E7B5F90810884201DC844203DDD7
:101CC0008842BDDB8442BBDB89F800C0022018706B
:101CD000B6E783F800C0642808DD204605F06AF8FE
:101CE000A86189F8006088F800607EE098F800003C
:101CF000012807D0BEF1040F25D0204605F05AF880
:101D0000A8611DE0022F15DD781D05F053F880460F
:101D100004EB840005F04EF80446384605F04AF816
:101D2000A96905F093F8214604F0D2FE414604F07B
:101D300043FFE5E7204605F03DF8A86188F800601C
:101D400089F8006051E099F8000050B35046BAF1AC
:101D5000320F03DDAAF1320132200CE06FF0310CBA
:101D60006FF00907604503DA0AF13201604608E0C6
:101D700031460A2803DBA0F10A060A2004E0B84233
:101D800002DC00F10A0638464FF0050790FBF7F039
:101D90004FF0030796FBF7F6064401EB0B000644F1
:101DA00000E02646901B00D54042052802DD4FF09A
:101DB0007A5108E0032801DDFA4904E0022801DD38
:101DC000F94900E0F949187830B1B24208DDA86954
:101DD00005F03AF9A86108E0204604F0EBFFF9E7C6
:101DE00003DAA86904F074FEF4E7A86904F044FE7D
:101DF000EF4AF04B04F06CF804F07EFAEE49A1F8DB
:101E00007400BDE8F09F2DE9F041EC4FEC4DEA4E37
:101E1000388F2880B88D688037F85A09A880308AB2
:101E2000002410B1B7F8960001E0B7F89400E880FC
:101E3000F08A58B1B7F840002881B7F8A60040F4FE
:101E400000406881A881B7F8A4000DE0703737F82A
:101E5000300C2881388E40F400406881F88F40F4BF
:101E60000040A881788D703F40F40040E88140F642
:101E7000C4184046FFF706F8D248FFF7F4FDB6F85D
:101E80007C00A6F87A00CF481438FFF757FE641C90
:101E9000E4B20A2CEDD3B7F886000A2240F40040E1
:101EA0002880B7F8900040F400406880B6F91E0022
:101EB00090FBF2F1CBB202FB110007EB4303C0B27F
:101EC000B3F8603007EB4000AB80B0F860005A37E1
:101ED000E880B88D2881788E688137F85A09A88102
:101EE000708A10B1B7F88C0001E0B7F88600E8817D
:101EF000002440F6D8652846FEF7C4FFB148FFF736
:101F0000B2FDB6F87C00A6F87A00AE481438FFF7A8
:101F100015FE641CE4B20A2CEDD3BDE8F081A6499D
:101F2000B1F8E020D1F8CC00B0FBF2F000B2A1F89B
:101F3000800010B1401EA1F88000002041F8CC0FB5
:101F4000888270472DE9FC5FDFF87C82DFF874A29D
:101F50009E4D98F800000024974E40F2E7374FF06E
:101F6000010B0AF1140A64287ED2401CC0B288F822
:101F70000000012818D0022815D02023032816D0ED
:101F80001E2834D2FFF7CBFFB6F92400B6F9801033
:101F900000EB8000814217DD092086F8BA0088F83E
:101FA0000030A6F882408CE0FFF7B9FF89E0FFF728
:101FB000B6FFB6F98000B0F5967F04DB0A2086F8FC
:101FC000BA0088F800307CE0B6F982000A2801DA0D
:101FD000401C02E0642803DA0A30A6F8820070E0B0
:101FE0001E2088F8000059BB4FF4FA70F5E720284E
:101FF00008D0212816D0222814D0232821D0272821
:1020000046D05EE0FFF78BFFB6F88000C0B970489D
:102010000168890755D50068400752D5062086F823
:10202000BA004EE0FFF77BFFDAF80410CAF8081098
:10203000DAF80010CAF80410D6F8A010CAF8001098
:102040003FE0DAF80410CAF80810DAF80010643635
:10205000CAF804105F48F16BCAF80010047036F833
:102060003C0CC0EB001000E039E000EB80010BEB12
:102070008100A882F08E584B00EB80005882FFF759
:102080004EFFB08F1882F08B9882F783643E18E081
:10209000FFF745FFB6F9800004F08BF900224F4BA3
:1020A00004F0DAF900224E4B03F0CEFF04F054F9AD
:1020B0004C4908804848808AA6F88200642088F845
:1020C00000004048FFF7CFFC7A36708830803D48EA
:1020D0001438FFF733FD44480470BDE8FC9FFFF758
:1020E000C9FBB146B6F882003B4EF0813548FFF798
:1020F000BAFC34481438FFF721FD3078042802D0A8
:1021000003280DD01AE0DAF80410CAF80810DAF83B
:102110000010CAF80410D9F8A010CAF800100DE099
:10212000686A2862D9F8A810401A00D540420928E8
:1021300000DD696225481C30FFF7A5FB99F80A000D
:10214000C0B14946012879D0022878D0A1F8824050
:10215000F46185F8284089F8E24099F8BA004D46C4
:102160000B286DD2DFE800F06CF06CEFF0F0F0EFD0
:10217000EFF0F00099F8E2001C4B10B1012839D0C3
:102180007CE009F1A400D0E90012891A40F2DC5287
:1021900091422DDC042189F8E21085F82940F46190
:1021A000C1E10000CDCC4C3E9A99193ECDCCCC3D3E
:1021B000CDCCCCCCCCCCEC3F8C000020C87200083D
:1021C000A80100207002002025000020BC01002092
:1021D000080C0140230000203400002000806B40E8
:1021E000000059400C000020220000203402002092
:1021F00089F8E2B0A88A00B3B9F982104A46B94218
:102200000CDA0521B0FBF1FC118DC1EB0111CCEB17
:102210008101B2F82AC06144A2F88210401EA8824F
:10222000D2F8A410D9F8A800B1EB400F00DCAC82C2
:1022300042F21071884204DDAC8205E0EEE107E273
:102240002FE2A88A00287DD14946D1E92920B2EBA6
:10225000400F07DC85F828B0022281F8E2201860E0
:10226000A1F88270B1F9820040F2E632904203DABE
:10227000801CA9F8820001E0A9F8827099F8E200B8
:10228000FD490091022803D04A4603287ED046E14A
:1022900095F82800012818D1D9F8A8101868081A4C
:1022A0003062D9F8A4C000EB8008BCEB880F02DDD7
:1022B000B0F57A7F07DB022085F828009C844EF673
:1022C00060201960D860A9F8827095F8280002286B
:1022D000B9D1A9F88240998C98460F2965D3D9F8CD
:1022E000A800D8F80030CC46C01A42F6F82342467F
:1022F00001FB03F100D5404291FBF0F13162D0685F
:10230000884200D9D160D068884204D395F829105A
:1023100009B1032949D1BCF818306146012B00D11D
:102320000C8304238CF8E2300821E14685F828105C
:10233000FFF740FAD149A9F8300089F8E3B00988DD
:10234000019102E056E0A7E1A9E1B1F5967F0AD23A
:1023500004F02FF84FF03332C94B04F07DF803F04E
:10236000CBFFA9F830000198B0F52F7F14D2B9F94E
:10237000300004F01EF84FF06632C24B04F06CF8E7
:1023800003F0BAFF00B2A9F8300000E013E01E2805
:1023900002DD1C21A9F8301000232222022100981E
:1023A00001F04FF9A8F82640F461B8F82410491C50
:1023B000A8F82410B3E0B44B4FF00B0E93F82800AC
:1023C00040B1D2E929C101F10A08C44513DDA2F8E0
:1023D000827016E0A432D2E90001884202DDA9F839
:1023E000827001E0A9F8824095F82900012801D106
:1023F00083F828E00CE10CF10A0C614501DDA2F83C
:1024000082400A28F4D90B2811D00C2815D00D28A9
:102410001BD00E281ED01028EAD1D88A401C80B2CA
:10242000D88295F829C0BCF1000F1CD0F0E095F8D7
:102430002900002808D10C2004E095F82900012883
:1024400002D10D2083F82800E2E095F8290080BB36
:102450000E20F7E795F8290001282AD1102083F8EB
:102460002800D960D4E04FF0110C83F828C0A9F8F7
:1024700018404FF0040C596089F8E2C0B9F83020D8
:10248000F282C846DA68FFF7AFF97C49A8F8300055
:1024900088F8E3B00988B1F5967F0BD203F089FF85
:1024A0004FF0FF3204F077FE03F026FFA8F830006B
:1024B00003E061E0B1F52F7F12D2B8F9300003F0EC
:1024C00078FF4FF033326E4B03F0C6FF03F014FF7A
:1024D00000B2A8F830001E2802DD1C20A8F8300049
:1024E000B8F9300020B1F18A01EB4101884202DDE8
:1024F000F08AA8F83000002322220221009801F07F
:10250000A0F808F1A401D1E90002B8F93010801A4E
:10251000484300EBD070401004F04CFCF06199F897
:10252000E200042874D14946D1E92930B3EB400FC9
:1025300010DC91F8E3208AB903EB830202EBC302BB
:1025400000EB800CB2EB8C0F04DC1A1A41F2941CE5
:10255000624503DD85F8284081F8E2400A8B012AB4
:102560000BD11A1AB2F5FA7F07DA032089F8E200D4
:10257000FFF7AEF985F82A404AE03278042A47D1BD
:102580000D460090DAE9001235F9300FFFF708F830
:10259000F16904F09DFAF061D5E91D12B5F900501A
:1025A0008B1A6B438046336210F1FF4F14D3914274
:1025B00010DA184604F0FEFB414604F013FD03D286
:1025C000306A04F0F7FBF0613048F169814207D9C5
:1025D000F06105E0F46103E001F57A718A42F9DC0B
:1025E000F0692B49054604F0E7FA04F0A7FB294AF5
:1025F00000B2A9F88200954200DDF261002802DAFB
:10260000A9F8824004E0B0F57A7F01DBA9F8827076
:10261000B9F89A0000EB800070829EE5708A421E35
:10262000728260B1B1F97800B1F97620904202DB94
:10263000A1F8824001E0A1F882708C8103E08C72E5
:10264000087800B94C70F46105F8284FAC7082E549
:102650008889A1F88200F46105F8284FAC7081F8F0
:10266000E24091F8BA00032803D0072801D00828D7
:10267000D3D189F8BA4070E5BC0000200C000020DE
:102680003333E33F6666E63FF801002000401CC696
:102690000000C8420050C347A87A022801D0A5F81C
:1026A00082403078052802D0401C307015E5347027
:1026B000E88A08B1A5F8EE40FFF731FC95F8E23062
:1026C000042B01D08C4804708C480068C00415D5D8
:1026D000B5F97A10D5F8A000401AB0F5FA7F0DDAF6
:1026E000B08920B1401E0004000CB08114D195F8CF
:1026F000BA0088B9082085F8BA000DE0B08905282D
:1027000001D2401CB08195F8BA00082804D1B089E4
:10271000052801D385F8BA40B5F97A10D5F8A0009C
:10272000411AC82931DAB5F9821040F2B6320727CA
:1027300091421BDB95F8BA10062917D0042915D051
:10274000052913D0328A904200DA30827289521CF5
:1027500092B27281782A0BD3328A801A642803DA03
:10276000042901D285F8BA70748101E07481308245
:10277000DAE90001081AB0F5FA7F0EDD95F8BA0023
:1027800004280AD285F8BA7007E07481308295F87F
:10279000BA00072801D185F8BA40F189B1F5FA7F6E
:1027A00013D3B5F8800080B995F8BA0004280CD08E
:1027B00005280AD07078052804D97470062085F899
:1027C000BA000DE0401C70700AE07470B5F980002A
:1027D000002805DD95F8BA00062801D185F8BA4031
:1027E000474A1068800708D4B078471CB7700328A0
:1027F0000AD9042085F8BA0006E0B47095F8BA004A
:10280000042801D185F8BA401068400708D4F07850
:10281000421CF27003280AD9052085F8BA0006E0A8
:10282000F47095F8BA00052801D185F8BA40B5F9D9
:102830002420B5F9800002EB8202B0EB420F0ADDE2
:102840003279521CD2B23271032A02D1092285F8A0
:10285000BA20AC8100E0347161B919280ADB7079C3
:10286000401CC0B27071032802D10A2085F8BA005A
:10287000AC8100E07471042B37D1A87AA0BB1E484C
:10288000007888B395F8BA0088B1012824D00228CE
:102890007FF40CAFB5F97400B5F922100844B5F90E
:1028A0003E108842FFF602AF85F8BA4015E4B5F94C
:1028B0003E00B5F920104218B5F974108A4202DAC8
:1028C00085F8BAB009E4B5F9222011448142EDDA65
:1028D000022085F8BA00E9E6B5F93E00B5F9201006
:1028E0000844B5F97410DCE7FFE795F8BA00012851
:1028F000DAD00228D8D0D9E622000020080801400A
:10290000080C014030B5C01E252847D2FE4B0020E0
:10291000802498801878597800EBC00202EB0010F0
:1029200001EB80001946402220254988CC281BD085
:1029300011DC6D2818D007DC28B3032823D0042825
:1029400012D06C282AD10FE0C9280DD0CA280BD08C
:10295000CB2823D108E0D02806D00CDCCD2820D00D
:10296000CE2801D0CF2819D180291CD0402916D0DB
:1029700020291AD017E0A0F58070913803D00128E3
:1029800001D002280AD180290DD0402907D0202962
:1029900002D0102909D006E01020588030BD5D809B
:1029A00030BD402901D05A8030BD5C8030BD70B54B
:1029B000C01E252812D2D44B002418469C805C806F
:1029C00040781A78411CC9B24AB1012A1ED0022AA5
:1029D0001FD0042A02D1032824D2597070BD9D7AD9
:1029E0000A22B5FBF2F602FB165242B1012A09D0C7
:1029F000022AF3D1042807D00420587070BD0228A1
:102A0000EBD30FE00320F8E70220F6E70928E4D330
:102A100008E00A2806D259700829EFD10120A3F84E
:102A2000420070BD5C7070BD322812D1B649087882
:102A300000280ED100228A804A80887A022815D286
:102A4000401CC0B28872012804D080B10CD0042090
:102A500048707047B1F93E00B1F92E20504364220E
:102A600090FBF2F0A1F876000320F1E78A724A7039
:102A70007047322809D1A448002181804180017823
:102A8000002902D10121017041707047F0B59E4EBE
:102A9000059D012413B1B38A03B90A24738813F086
:102AA000700F08D05F064FF6FF7607D504EB84035E
:102AB00006EA430413E08023738010E09F0606D5E6
:102AC00004EBC40303EB041306EA830407E0DB060C
:102AD00005D504EB4403C3EBC41306EAC30435B1C4
:102AE0001019884201DC00B2F0BD0846F0BD111B90
:102AF0008142FBDB08B2F0BDF0B5834E05460120F4
:102B0000748814F0700F03D0660604D50A2005E01F
:102B10008024748002E0A40600D5642064246BB194
:102B2000104480B2B0FBF4F204FB12023B2A01D93C
:102B3000283080B2884200D90846F0BD824202D9CE
:102B4000101A80B200E00020B0FBF4F104FB110188
:102B50003B2901D9283880B2A842EED22846F0BDE0
:102B60002DE9F843022874D1674D00260223AE8078
:102B70002878697800EBC00202EB001001EB8009B5
:102B800029460327B1F91C404FF496784FF4C870DA
:102B9000B9F1CC0F7ED040DC2A464FF0090CB2F9D7
:102BA0001E2040F2E731B9F16C0F74D021DCB9F18D
:102BB000040F71D00EDC29464FF48268B1F912304F
:102BC000B1F9AC20B9F1000F51D0B9F1030F7ED1AA
:102BD000F4BB85E0B9F1640F7BD0B9F16B0F76D10E
:102BE0006888002C40F0F000688073D0641EAC83CD
:102BF000A8E00120B9F1C90F6DD006DCB9F16D0F65
:102C00006AD0B9F1C80F62D199E0B9F1CA0F7DD08D
:102C1000B9F1CB0F5BD1DCB9CFE0C14577D009DC8E
:102C2000A9F1CD09B9F1050F51D2DFE809F0DEEBCA
:102C3000FCFAF90081457FD0A9F58079B9F19109B5
:102C400066D0B9F1010F73D0B9F1020F3FD101E0A5
:102C50003CE03CE00096B5F93A20002340F21451E4
:102C60004FF42F70FFF712FF6887162088E0022CC0
:102C70002CD0002B4FF0010300962ED042F2E4013D
:102C80004046FFF703FFA5F8AC00688A0028B5F9B5
:102C9000AC0002E09CE057E041E006D0A0F5A07057
:102CA00000EB800090FBFCF000B2B5F8441001EBA3
:102CB000810100EB4100E8871820288195F8E200A7
:102CC000032804D1BDE8F843FEF702BEEF80BDE85B
:102CD000F8832EE035E057E045E041F29411D0E76B
:102CE000094A64247632002BB2F93610B2F900207A
:102CF00001EB411101EB410191FBF4F109B24FF0FD
:102D00000103009606D004E08C00002049E013E0A7
:102D1000AEE04046FFF7BAFEA5F87600D7E700968A
:102D2000B5F90C2001230020FFF7B0FEA881CEE703
:102D3000A9E0B2F55E7F01D02B70C8E704202870AF
:102D4000C5E7AB8307201BE0002CBFD108350096F8
:102D50006421B5F93C2000234842FFF797FEA8877D
:102D60001B202880B3E7002CB0D100234FF47A71E8
:102D700018460096FFF78AFEE883FF2802DC082049
:102D80002881A4E72E81A2E7002C9FD10096B5F9F7
:102D9000202000231E20FFF779FE2884A5F808C014
:102DA00095E7002C92D10090B5F9222000231E2037
:102DB000FFF76CFE68840A20E2E70096B5F924204C
:102DC00000234146A020FFF761FEA8840B20D7E72F
:102DD000002CBAD100960023B5F926200A21184606
:102DE000FFF754FEE8840C20CAE7002CADD1009612
:102DF0000023B5F928201E211846FFF747FE288535
:102E00000D20BDE7002CA0D10096B5F92A200023A3
:102E10004FF4FA716420FFF739FE68850E20AFE7A2
:102E20001AE00CE0FFE7002C8FD10023AA8D40F2BE
:102E3000BF311846FFF760FEA8850F20A0E7002CE1
:102E400092D100960023B5F92E2063211846FFF792
:102E50001DFEE885102093E70096B5F94220002377
:102E600014210120FFF712FEA5F842006E802EE724
:102E700000960023B5F93620C8211846FFF706FE54
:102E8000E88614207CE70096B5F9382000234FF43B
:102E900096614FF44870FFF7F9FD288715206FE71A
:102EA0002DE9F84F022844D1FB4E00270423B780B8
:102EB0003078717800EBC00202EB001001EB800467
:102EC00032464FF4C870B2F91C504FF003084FF06F
:102ED000090A4FF00A0B40F2E7314FF0010CC92C00
:102EE00069D049DC5288682C42F0F00276D02EDCA2
:102EF00033464FF00209B3F91230642C6FD01ADC5C
:102F000032464FF48267B2F9AC207CB3032C67D011
:102F1000042C0ED196F8BA0009280AD00A2808D045
:102F2000CDF800C0B6F90C2001230020FFF7AEFD5C
:102F3000B081BDE8F88F652C7ED0D7480521662C7E
:102F4000B0F93E0079D0672CF3D19DBBC9E06C2C61
:102F500074D00CDC692C72D06A2C71D06B2CE8D147
:102F60007280022D6DDA6D1CB583FAE039E06D2CAC
:102F700068D0C82CDDD11AE04FF49679D02C7CD0E3
:102F800008DCA4F1CA04062CD3D2DFE804F0F1F087
:102F9000EFEEEDEC40F29112A4F2911194426DD05B
:102FA0000ADCD12C6BD04C456AD08442C1D186F862
:102FB00000C0BEE749E000E1012970D00229B8D184
:102FC000CDF800C0B6F93A20002340F214514FF476
:102FD0002F70FFF75BFD70871620EAE09BE05BE057
:102FE00039E0022D31D0002B4FF00103CDF800C0A5
:102FF0002ED042F2E4013846FFF748FDA6F8AC00B7
:10300000708A0028B6F9AC0006D0A0F5A07000EBDD
:10301000800191FBFAF000B2B6F8441001EB810197
:1030200000EB4100F0871820308196F8E200032879
:10303000BFD1BDE8F84F06E032E03DE099E076E030
:1030400083E08DE0A5E0FEF743BCA6F8068070E7BC
:1030500041F29411D0E7002DF7D18F4A64247632E3
:10306000002BB2F93610B2F9002001EB411101EB4F
:10307000410191FBF4F109B203E0FEE01FE10FE131
:103080001BE14FF00103CDF800C000D03846FFF738
:10309000FDFCA6F876004CE786F8009049E71AE1B7
:1030A000002DD2D1308A20B137827280A6F808C0B4
:1030B0003FE7A6F810C0F8E7002DC6D143B17782EC
:1030C000A6F8AC00754807807280A6F8089030E733
:1030D00000EBC00090FBF1F0A6F812C000F5A07064
:1030E000EEE7B48A8CB190FBFBF000EB800040006F
:1030F000B78200B2F0872BB100EBC00090FBF1F07B
:1031000000F5A070A6F8AC0001E0A6F814C072802B
:10311000A6F808800DE7002D97D1F08A012804D089
:10312000A6F816C07280338103E7F782FAE7002D14
:103130008BD1308B30B196F8E200032800D0378372
:103140007280F6E6A6F818C0FAE7002D84D1708BDD
:1031500018B17783728006202BE0A6F81AC0F9E731
:10316000B783072025E07CE06CE05DE04EE03FE0C7
:1031700031E0002D95D10836CDF800C06421B6F9B4
:103180003C2000234842FFF781FCB0871B203080A1
:10319000CFE6002D85D1CDF800C00023B6F91E2062
:1031A0004FF47A711846FFF771FCF083FF2802DCB8
:1031B00008203081BDE63781BBE6002DACD1CDF8CB
:1031C00000C0B6F9202000231E20FFF75FFC3084EA
:1031D000A6F808A0ADE6002D9ED10097B6F92220F2
:1031E00000231E20FFF752FC7084A6F808B0A0E66A
:1031F000002D91D1CDF800C0B6F924200023494616
:10320000A020FFF743FCB0840B20D2E7002D8FD124
:10321000CDF800C00023B6F926200A211846FFF792
:1032200035FCF0840C20C4E7002D8FD1CDF800C010
:103230000023B6F928201E211846FFF727FC308509
:103240000D20B6E7002D95D1CDF800C0B6F92A20A3
:1032500000234FF4FA716420FFF718FC70850E20EC
:10326000A7E7002D86D1B28D012340F2BF310020A7
:10327000FFF742FCB0850F209BE7002D8AD1CDF8E7
:1032800000C00023B6F92E2063211846FFF7FEFB8D
:10329000F08510208DE700008C0000202000002029
:1032A000CDF800C0B6F94220002314210120FFF719
:1032B000EDFBA6F8420077803BE6337039E6CDF8A7
:1032C00000C00023B6F93620C8211846FFF7DEFB00
:1032D000F08614206DE7CDF800C0B6F93820002341
:1032E0004FF496614FF44870FFF7D0FB30871520FC
:1032F0005FE7664A0023032811780AD0322807D1F5
:10330000002905D102211170012151709380538051
:103310007047938053800029FAD01370907A28B1B7
:10332000012805D004205070FF2070475370FBE740
:103330000320F8E72DE9F05FDFF85491DFF854A19E
:10334000FA2699F800B0514F9AF800C00025524C67
:10335000BBF1000F0CD0BCF1000F09D02079FF2881
:1033600001D2401C2071C0B2FFF7C3FF207163E09F
:103370004A484FF0030E90F800804448B8F1000F1F
:10338000C3884278B0F91C1000781BD094F800C0B4
:10339000BCF1FF0F03D20CF1010C84F800C061B145
:1033A0005BB1012801D030B902E0072A03D104E063
:1033B0000AB9022901D1A7F806E00CF0FF00FFF7D7
:1033C0006FFD39E0DFF8D88098F80080B8F1000F81
:1033D0001BD094F801C0BCF1FF0F03D20CF1010C1B
:1033E00084F801C061B15BB1012801D030B902E0BD
:1033F000072A03D104E00AB9022901D1A7F806E09F
:103400000CF0FF00FFF7ACFB16E0BBF1000F08D09B
:10341000A078FF2801D2401CA070C0B2FFF729FBA2
:103420000AE0BCF1000F0CD0E078FF2801D2401C6C
:10343000E070C0B2FFF7F8FA1848A7F8F860007813
:1034400000B925701648007800B96570207948B138
:1034500099F8000070B99AF8000050B92571A5706C
:10346000E57003E099F8001021B910B9A078FFF7D2
:103470009EFAA5709AF80000002805D1207910B9AD
:10348000E078FFF73FFAE570BDE8F09F8C00002080
:10349000020000200300002058000020040000204B
:1034A0000500002004E00021491CC9B23F29FBD3DC
:1034B0000100A0F1010080B2F5D170470A20401E42
:1034C00010F0FF00FBD1704730B5F84C01222260AC
:1034D0006420FFF7E7FF022323606420FFF7E2FF89
:1034E000F24D083D286838B1241D22606420FFF7A2
:1034F000D9FF2868C00701D0012030BD23606420B7
:10350000FFF7D0FF002030BD10B5E84A0224121D9D
:1035100014606420FFF7C6FF012313606420FFF7E7
:10352000C1FFE24A14606420FFF7BCFF1360BDE8EE
:1035300010406420B6E710B5DC4C0223241DE121C5
:103540002360FFF7BBFF221F01201060FFF7B6FFCB
:103550001360FFF7B3FFD548083803E0491E11F0A8
:10356000FF0107D00268D207F8D12360FFF7A6FF5A
:10357000002010BDFFF7C8FF012010BDCB4900B5EA
:10358000091D02220A60FFF799FF01200860FFF77A
:1035900095FFC6480260FFF791FF0A605DF804EBF3
:1035A0008CE7C24A00B5121D02211160FFF786FFA9
:1035B000BE4B01201860FFF781FF1960FFF77EFF07
:1035C00011605DF804EB79E770B5B84B08211B1D5D
:1035D0000125022402461E1F0DE0FFF76FFF1006B3
:1035E00001D5356000E01D60FFF768FF5006020E50
:1035F0003460FFF763FF0800A1F10101C9B21C604C
:10360000EBD170BD70B5A94CA84E241D0021082235
:103610000223251F083E0CE04806010E2360FFF739
:103620004DFF2B60FFF74AFF3068C00701D041F023
:1036300001011000A2F10102D2B2EDD123600846CF
:1036400070BD2DE9FF5F0025A8464FF002094FF439
:10365000007A4FF4407BEFE0029CFF2C01D8A025BC
:103660001FE0544501D2A2251BE05C4501D2A425F0
:1036700017E0B4F5806F01D2A62512E0B4F5A06F73
:1036800001D2A8250DE0B4F5C06F01D2AA2508E04B
:10369000B4F5E06F01D2AC2503E0B4F5006F00D2C1
:1036A000AE25DDE90060C7B203984FF00008E8BB23
:1036B0004FE0FF2C01D8A0251FE0544501D2A225E0
:1036C0001BE05C4501D2A42517E0B4F5806F01D260
:1036D000A62512E0B4F5A06F01D2A8250DE0B4F53F
:1036E000C06F01D2AA2508E0B4F5E06F01D2AC2585
:1036F00003E0B4F5006F00D2AE25FFF7E5FE2846E3
:10370000FFF762FFFFF717FF00EB080CE0B2FFF7CF
:103710005BFFFFF710FF8444FFF7D6FE681CC0B2C2
:10372000FFF752FFFFF707FF604400E00BE000F0F7
:10373000FF08FFF767FF641C06F8010BA4B2FFF750
:1037400030FFFFF7E1FE3800A7F10107FFB2B0D16B
:103750006FE0FFF7B9FE84462846FFF735FFFFF715
:10376000EAFE8444E0B2FFF72FFFFFF7E4FE604477
:1037700000F0FF084D490420091D086045E0761C53
:10378000FFF722FFFFF7D7FE4044641C00F0FF085C
:10379000A4B2200739D1FFF7B7FE0A20FDF772FB6C
:1037A000FF2C01D8A0251FE0544501D2A2251BE023
:1037B0005C4501D2A42517E0B4F5806F01D2A6259F
:1037C00012E0B4F5A06F01D2A8250DE0B4F5C06FEA
:1037D00001D2AA2508E0B4F5E06F01D2AC2503E0E0
:1037E000B4F5006F00D2AE25FFF76EFE2846FFF756
:1037F000EBFEFFF7A0FE00EB080CE0B2FFF7E4FEE3
:10380000FFF799FE604400F0FF087F1E307817F044
:10381000FF07B4D1FFF7D8FEFFF78DFE404400F05C
:10382000FF08FFF771FE2149042008600A20FDF718
:1038300029FBB8F1000F07D05FEA0900A9F10101E7
:1038400001F0FF097FF408AF04B04046BDE8F09FE7
:1038500070B5174C0025A08838BB608828BB20892C
:1038600018B34FF6FF7101EA400204EB40000E303E
:1038700000230221FFF7E5FE208964220F2804D0EF
:10388000102817D003281FD026E0B4F92C104FF4CD
:10389000616391FBF2F0434302FB1010C0EB001098
:1038A00003EB8000A4F89A0016E016E0100801402F
:1038B0008C000020B4F93E00B4F92E10484390FB70
:1038C000F2F0A4F8760007E0A08A28B9002330229D
:1038D00002215048FFF7B5FE258194F8BA10E9B3EC
:1038E0004D480B291CD2DFE801F01B0608110B0D17
:1038F0000F1315171900042100E00521418010E085
:103900000921FBE70A21F9E70621F7E70121F5E79D
:103910000221F3E70321F1E70721EFE70821EDE7B3
:103920004580B4F94610428891421BD00580018839
:10393000C1F12E03C1F12F0504EB430304EB450550
:10394000491CDB8989B2EB8101801329EFD3A4F8EC
:1039500046200023382228212E4800E002E00830CB
:10396000FFF76FFE618A2D480029018A04D001F417
:103970007E4141F4007103E001F47D4141F4807126
:103980000182218A0029018A04D001F45F4141F4B7
:10399000804103E001F43F4141F400510182B4F859
:1039A00082100029018A02D041F4007101E001F483
:1039B0007D410182A17A49B101291FD00229018AE2
:1039C00001F47E4120D001F4634115E0018A01F445
:1039D0006F41018294F8E220012A08D001F47E416F
:1039E000018289B24A0505D501F47B4104E041F426
:1039F0008071F5E741F48061018270BD018A01F4B4
:103A00007A4141F40061F7E701F4774141F48051D4
:103A1000F2E70000CA0000205E00002094010020B0
:103A20007047FEE7FEE7FEE7FEE770477047704726
:103A3000FDF7ECB82749084327490860704770B57F
:103A40000F23C278017801244FF0E025DAB1224A31
:103A5000126802F4E062C2F5E062120AC2F10406E2
:103A6000D3404278B24086781E401C4B1643320148
:103A7000CA54007800F01F018C40400905EB80001B
:103A8000C0F8004170BD01F01F008440480905EBFB
:103A90008000C0F8804170BD114A114001430E48BA
:103AA000001F016070470C4A121D0029116801D0E7
:103AB000014300E08143116070474FF0E02104288A
:103AC000086903D020F004000861704740F004004A
:103AD000FAE700000000FA050CED00E000E400E069
:103AE00080FFFF1FC54910B5884202D1012144154E
:103AF0000AE0C349884202D10121041504E0C1490A
:103B000088420AD10121CC03204600F04CFD20461A
:103B1000BDE81040002100F046BD10BD10B5426860
:103B2000B94B0C791A400B6842EA042213434360F4
:103B30008268B64B1A40D1E9024323434C7942EAEA
:103B4000440213438360C26A097C22F47002491E56
:103B5000C9B242EA0151C16210BD00210160017188
:103B600041718160C1600121017470470029816841
:103B700002D041F0010101E021F0010181607047B4
:103B80000029816802D041F4807101E021F4807144
:103B900081607047002A4268C9B201D00A4300E040
:103BA0008A4342607047816841F008018160704734
:103BB000014600208968090700D501207047816807
:103BC00041F004018160704701460020896849077F
:103BD00000D5012070470029816802D041F4A0017E
:103BE00001E021F4A001816070470146002089684E
:103BF000490200D5012070474268491E22F4604204
:103C000042EA4131416070470029416802D041F4E5
:103C1000006101E021F400614160704770B5072642
:103C200009290AD9C568A1F10A0404EB4404A64095
:103C3000B543A3401D43C56007E0056901EB41049E
:103C4000A640B543A3401D4305611F23072A09D29F
:103C5000446B521E02EB820293409C4391400C4302
:103C6000446370BD0D2A09D2046BD21F02EB82029D
:103C700093409C4391400C43046370BDC46A0D3A69
:103C800002EB820293409C4391400C43C46270BD9E
:103C90000029816802D041F4801101E021F48011F3
:103CA00081607047C06C80B2704754484C300068E7
:103CB00070470029416802D041F4806101E021F49D
:103CC0008061416070470029416802D041F4805111
:103CD00001E021F4805141607047826822F4E042A3
:103CE0000A43826070470029816802D041F4004194
:103CF00001E021F40041816070470029816802D011
:103D000041F4021101E021F4021181607047014683
:103D100000208968890200D50120704770B5072608
:103D200009290AD9C568A1F10A0404EB4404A64094
:103D3000B543A3401D43C56007E0056901EB41049D
:103D4000A640B543A3401D430561836BC3F30154F3
:103D5000121B921C02EB82021F249440A343914049
:103D60000B43836370BD826B491E22F4401242EA0A
:103D700001518163704708B508440090026008BD96
:103D800008B5084428300090006880B208BD426839
:103D90001F4B1A400A43426070474162826270477B
:103DA000426822F01F020A434260704713490831FB
:103DB0000028086802D040F4000001E020F4000070
:103DC000086070470246002012680A4200D00120B5
:103DD0007047C9430160704710B50246002054681F
:103DE0000B0AC9B20C401168194202D0002C00D055
:103DF000012010BD6FEA11210160704700240140CD
:103E000000280140003C0140FFFEF0FFFDF7F1FFFC
:103E1000FFFD3FFF01684FF6FE7211400160002177
:103E2000016041608160C1606A496A4A0839904214
:103E300003D1486840F00F0006E0664A1432904211
:103E400004D1486840F0F00048607047614A283269
:103E5000904203D1486840F47060F5E75D4A3C3217
:103E6000904203D1486840F47040EDE7594A50321F
:103E7000904203D1486840F47020E5E7554A643227
:103E8000904203D1486840F47000DDE7514A78322F
:103E9000904203D1486840F07060D5E74E4A111F48
:103EA000904203D1086840F00F0006E04A4A1432FD
:103EB000904204D1086840F0F00008607047464A1C
:103EC0002832904203D1086840F47060F5E7424A16
:103ED0003C32904203D1086840F47040EDE73E4A1E
:103EE00050329042EAD1086840F47020E5E730B5DE
:103EF000026847F6F0739A430C6A8B682343D1E952
:103F000004452C4323438C692343CC6923434C6AE7
:103F100023438C6A234313430360CA6842600A68E0
:103F200082604968C16030BD0021016041608160EC
:103F3000C160016141618161C1610162416281626F
:103F400070470029016802D041F0010102E04FF6FC
:103F5000FE72114001607047002A026801D00A43D6
:103F600000E08A430260704741607047406880B259
:103F7000704702460020D10002D51749083901E0F8
:103F8000144908390968114200D001207047C10066
:103F900003D51149091F086070470E490839486068
:103FA000704702460020D10002D50B49083901E0D4
:103FB000084908390968114200D001207047C10042
:103FC00003D50549091F0860704702490839486050
:103FD00070470000080002400804024037490020F2
:103FE0000860091D0860091D0860091D0860334943
:103FF000334814310860704730B5304A837901681E
:1040000053B313688B431360111D0B680468A343FB
:104010000B60017911440B68046823430B60274B44
:10402000083319680468A14319601C1D21680568DC
:10403000A94321604179102905D011440A6800681C
:1040400002430A6030BD1968026811431960216893
:1040500000680143216030BD0079104402688A4342
:10406000026030BD0021016001710C22427181713A
:104070007047124910310A6802430A6070470146CE
:104080000E4A0020143212680A4200D00120704704
:104090000A49143108607047084A01460020126836
:1040A000064B0A4014331B680B4202D0002A00D092
:1040B0000120704701491431086070470004014035
:1040C000FFFF0F008E4910B5884206D10121042060
:1040D00000F069FA002104203BE08A49884206D1B9
:1040E0000121082000F05FFA0021082031E0864914
:1040F000884206D10121102000F055FA002110203D
:1041000027E08249884206D10121202000F04BFAA5
:10411000002120201DE07E49884206D10121402057
:1041200000F041FA0021402013E07A49884206D18C
:104130000121802000F037FA0021802009E0764933
:1041400088420AD184150121204600F02CFA002172
:104150002046BDE8104000F026BA10BD10B5012180
:10416000084600F020FA0021BDE81040012000F0D0
:104170001ABAF0B5CC78002204F00F03E40601D59A
:104180008C7823430C784FF00F0C4FF0010EDCB10C
:1041900005680E880EFA02F42640A64210D1960059
:1041A0000CFA06F725EA070703FA06F5CE783D4331
:1041B000282E02D0482E02D002E0446100E00461C3
:1041C000521C082AE5D305600A88FF2A1CD94468D6
:1041D000002202F108060EFA06F50E882E40AE42C5
:1041E0000ED196000CFA06F7BC4303FA06F7CE7818
:1041F0003C43282E00D14561CE78482E00D1056180
:10420000521C082AE5D34460F0BD4FF6FF710180CF
:10421000022181700421C17070470246002092681B
:104220000A4200D001207047806880B27047024681
:104230000020D2680A4200D001207047C06880B2D6
:10424000704701617047416170470AB10161704771
:1042500041617047C160704741F480328261816181
:1042600082618169806970472C4B10B51A684FF6DE
:104270008074224042EA00100843186010BD2849AB
:10428000C8617047F0B5254C002801DAE36900E009
:104290006368450D2E0185B2C0F30157B540C0F3E8
:1042A0000342032F05D0C6020AD503269640B34326
:1042B00007E023F07062636823F07063636002E0DC
:1042C000AB4343F0706201B12A43002801DAE26196
:1042D000F0BD6260F0BD10B58A0721F003040F49FC
:1042E000120F21440F238C6893409C438C608B6891
:1042F000904003438B6010BD0949DC310860704772
:1043000000080140000C0140001001400014014071
:1043100000180140001C0140002001400000014045
:10432000000020420D49086070470C494860704702
:104330000A498860704709494AF6AA200860704710
:1043400006494CF6CC4008607047044A01460020FC
:10435000D2680A4200D001207047000000300040BF
:10436000A748016841F0010101604168A54A114078
:1043700041600168A44A11400160016821F4802174
:104380000160416821F4FE0141604FF41F0181602A
:1043900070479B490A6822F480320A600A6822F456
:1043A00080220A60B0F5803F07D0B0F5802F03D19E
:1043B000086840F4A02008607047086840F4803026
:1043C000F9E70346002059098D4A01290AD002293C
:1043D0000AD0516A03F01F02012393400B4200D020
:1043E000012070471168F5E7116AF3E718B500205E
:1043F0004FF4A06400903120FFF7E3FF0099491CBF
:104400000091A14201D00028F5D03120FFF7D9FF5B
:10441000002800D0012018BD794A116821F0F80168
:1044200041EAC00010607047784908607047744BDB
:104430005A68084322F47C1210435860704773494D
:10444000086670476E4A516821F0030101435160CC
:1044500070476B48406800F00C007047684A51682C
:1044600021F0F001014351607047654A516821F421
:10447000E061014351607047614A516821F4605125
:1044800041EAC000506070475D4A0029517A01D06E
:10449000014300E08143517270475C49D8310860A4
:1044A0007047574A516821F44041014351607047B9
:1044B0005349002281F8202081F82020012802D0D1
:1044C000042802D1052081F8200070475049086077
:1044D00070474B490A6A02430A6270474C494439A3
:1044E0000860704730B5464A51684A4B11F00C01DC
:1044F00003D0042903D0082903D0036016E04649FD
:1045000013E05168536801F470114FF0020413F482
:10451000803F04EB914104D053689B0303D53F4B8C
:1045200002E03F4B00E03C4B5943016051680F23D0
:1045300003EA11113B4B5C5C0168E1404160546847
:10454000072505EA14241C5D21FA04F484605468EC
:1045500005EAD4241B5DD940C1605268032303EAF5
:104560009232304B1B1F9A5CB1FBF2F1016130BDFE
:10457000234A0029516901D0014300E08143516180
:1045800070471F4A0029916901D0014300E081432F
:10459000916170471A4A0029D16901D0014300E0B6
:1045A0008143D1617047164A0029D16801D0014387
:1045B00000E08143D1607047114A0029116901D0A0
:1045C000014300E08143116170471149403908609F
:1045D00070470E49C86470470949C8717047084858
:1045E000416A41F0807141627047054A01460020EE
:1045F00092680A4200D001207047014988727047D2
:10460000001002400000FFF8FFFFF6FE00004242EB
:104610008004424200127A00001BB700808D5B00CC
:1046200000093D0066000020F94910B5884202D11A
:104630000121C41486E0B0F1804F09D0F5498842C9
:104640000DD101210220FFF7B7FF0021022064E015
:1046500001210846FFF7B0FF002101205DE0EE498F
:10466000884206D101210420FFF7A6FF0021042083
:1046700053E0EA49884206D101210820FFF79CFF58
:104680000021082049E0E649884206D10121102096
:10469000FFF792FF002110203FE0E249884206D157
:1046A00001212020FFF788FF0021202035E0DE498E
:1046B000884202D10121441444E0DC49884202D1FD
:1046C0000121CC043EE0DA49884202D101210C05E7
:1046D00038E0D849884202D101214C0532E0D64960
:1046E000884206D101214020FFF766FF00214020CB
:1046F00013E0D249884206D101218020FFF75CFFF8
:104700000021802009E0CE4988420AD18415012188
:104710002046FFF751FF00212046BDE81040FFF77B
:104720004BBFC849884202D101210C040AE0C649A6
:10473000884202D101214C0404E0C44988420AD1D4
:1047400001218C042046FFF72EFF2046BDE81040D3
:104750000021FFF728BF10BD30B50288AC4CB24D28
:10476000A0420DD0A8420BD0B0F1804F08D0A94B89
:10477000984205D0A84B984202D0A84B984203D14A
:1047800022F070034A881A43A54B984206D0A54BE5
:10479000984203D022F44073CA881A4302808A8860
:1047A00082850A880285A0420AD0A84208D0A54A7C
:1047B000904205D0A44A904202D0A44A904201D12E
:1047C000097A01860121818230BD30B5028C22F048
:1047D00001020284028C8388048B22F0020224F0FE
:1047E00073050C882C430D8915434A882A43884D4C
:1047F000A8420BD08C4DA84208D0924DA84205D0BB
:10480000914DA84202D0914DA8420DD122F0080549
:104810004A8923F440732A4322F004058A882A43F4
:104820008D891D43CB892B4383800483C98881866E
:10483000028430BD70B5028C22F010020284028C1A
:104840008388048B0D8824F4E6464FF6FF7404EA4F
:10485000052535430E8922F0200204EA0616164388
:104860004A8804EA02123243694EB04202D06E4EC8
:10487000B04215D122F080064A8923F4406304EA4D
:104880000212324322F040068A8804EA02123243BE
:104890008E8904EA86061E43CB8904EA83033343E8
:1048A00083800583C9880187028470BD70B5028C3E
:1048B00022F480720284028C8388848B0D8824F019
:1048C000730425430E894FF6FF7422F4007204EA44
:1048D000062616434A8804EA022232434C4EB0426E
:1048E00002D0514EB04215D122F400664A8923F419
:1048F000405304EA0222324322F480668A8804EAA2
:10490000022232438E8904EA06161E43CB8904EA4A
:104910000313334383808583C9888187028470BDF4
:1049200070B5028C22F480520284058C8288838BBD
:104930000C8823F4E6464FF6FF7303EA042434435D
:1049400025F400560D8903EA053535434E8803EA00
:1049500006362E432E4DA84202D0334DA84205D133
:1049600022F480458A8903EA82122A438280848362
:10497000C988A0F84010068470BD828B22F4406282
:104980008283828B4FF6FF7303EA01210A438283FD
:104990007047828B22F00C028283828B0A438283CF
:1049A0007047028B22F440620283028B4FF6FF7342
:1049B00003EA01210A4302837047F0B5048C24F016
:1049C00010040484078B048C4FF6FF7527F473479B
:1049D00005EA03333B4305EA02221A430C4B05EA7E
:1049E000011698420ED0104B98420BD0B0F1804F78
:1049F00008D0084B984205D0074B984202D0074B8D
:104A0000984225D124F02001314341F0100124E0E7
:104A1000002C01400004004000080040000C004051
:104A2000001000400014004000340140004C0140E0
:104A3000005001400054014000180040001C00409C
:104A40000020004000400140004401400048014077
:104A500024F0A0030B4343F0100102830184F0BD56
:104A6000028B22F00C020283028B0A4302837047FE
:104A700070B5048C24F001040484058B048C4FF67B
:104A8000FF7606EA0313134325F0F305F84A2B4398
:104A900090420ED0F74A90420BD0B0F1804F08D030
:104AA000F54A904205D0F54A904202D0F44A90422D
:104AB00002D124F0020201E024F00A020A4342F08B
:104AC00001010383018470BD2DE9F84F0D460446B2
:104AD0000888E74FDFF89CC3DFF89C83DFF89C93DE
:104AE0004988AA882B894FF0804A48B304282FD0E0
:104AF0004FF6FF760828934632D0208C9E4620F44D
:104B000080502084A38B208C06EA0132009223F48B
:104B1000734306EA0B221A4306EA0E331343BC42E0
:104B20000AD0644508D0544506D0444504D04C45CD
:104B300002D0D34A944242D120F40050009940E080
:104B40002046FFF795FFE9882046BDE8F84F87E744
:104B50002046FFF732FFE9882046BDE8F84F20E7FE
:104B6000208C20F480702084B4F81CE0208C06EAAD
:104B7000031306EA01222EF0F30E43EA0B0343EA85
:104B80000E030092BC420AD0644508D0544506D0BA
:104B9000444504D04C4502D0B94A944203D120F494
:104BA0000070009901E020F42060084340F4807018
:104BB000A3832084E9882046BDE8F84FE9E620F485
:104BC0000240084340F48050A3832084E9882046B3
:104BD000BDE8F84FD1E62DE9F0410C4600264988A2
:104BE0000746012501B90226A288012A00D1022523
:104BF000208823890028384610D0FFF7DEFEE188A0
:104C00003846FFF7CEFE23892A4631463846FFF75D
:104C10002FFFE1883846BDE8F04121E7FFF728FF84
:104C2000E1883846FFF71CFF23892A46314638467B
:104C3000FFF7C3FEE1883846BDE8F041B1E610B5A4
:104C40000A884B88CC881A438B8823431A430B89E4
:104C50001A434B8989891A430A43A0F8442010BD9E
:104C60004FF6FF71818000210180C1804180017277
:104C700070470021018041808180C1800181418194
:104C80008181C181704700210180418001228280A1
:104C9000C180018170470021018041808180C180F5
:104CA00001814181818170470029018802D041F052
:104CB000010101E021F0010101807047002930F875
:104CC000441F02D041F4004101E0C1F30E01018014
:104CD0007047002A828901D00A4300E08A4382811A
:104CE0007047818270471143A0F848107047002A2E
:104CF000828901D00A4300E08A438281704701899A
:104D000021F0070101817047028922F070020A43F5
:104D10000281704700B50346FFF7F6FF188940F09F
:104D20000700188100BD70B516460D46602904467F
:104D30004FF0010231460AD0FFF79AFE294620467D
:104D4000FFF7E2FF208940F00700208170BDFFF7E8
:104D500034FEF3E730B504894FF6FF7505EA032307
:104D60001343E4B20B432343038130BD10B5044623
:104D7000FFF7F0FF208940F07700208110BD10B5CB
:104D80000446FFF7E7FF208940F48040208110BDF2
:104D9000018582827047028822F070020A430280F5
:104DA000704770B50589048B068C25F007050D4307
:104DB0004FF6FC410C4040F201110C434FF6FF71DD
:104DC00001EA031126F022061143314305810483D1
:104DD000018470BD028B22F070020A430283704787
:104DE000028B4FF6FF7322F4E04203EA01211143E4
:104DF00001837047828B22F070020A4382837047DE
:104E0000828B4FF6FF7322F4E04203EA0121114343
:104E1000818370470029018802D041F0800101E0C0
:104E200021F08001018070470029818802D041F083
:104E3000040101E021F0040181807047002981888C
:104E400002D041F0080101E021F0080181807047A3
:104E50000029818802D041F0010101E021F0010127
:104E600081807047028B22F008020A430283704758
:104E7000002C0140003401400004004000080040C4
:104E8000000C0040028B4FF6FF7322F4006203EA2D
:104E9000012111430183EAE7828B22F008020A43D1
:104EA0008283E4E7828B4FF6FF7322F4006203EA09
:104EB000012111438183DAE7028B22F004020A43C5
:104EC0000283D4E7028B4FF6FF7322F4806203EA79
:104ED000012111430183CAE7828B22F004020A43B5
:104EE0008283C4E7828B4FF6FF7322F4806203EA69
:104EF000012111438183BAE7028B22F080020A4329
:104F00000283B4E7028B4FF6FF73C2F30E0203EA8B
:104F1000012111430183AAE7828B22F080020A4318
:104F20008283A4E7828B4FF6FF73C2F30E0203EA7B
:104F30000121114381839AE7028C22F002020A4385
:104F4000028494E7028C22F008020A4302848EE76E
:104F5000028C4FF6FF7322F0200203EA0111114385
:104F6000018484E7028C4FF6FF7322F0800203EA8B
:104F70000111114301847AE7028C4FF6FF7322F48A
:104F8000007203EA01211143018470E7028C4FF69D
:104F9000FF7322F4006203EA01211143018466E7F2
:104FA000028C4FF6FF7322F4005203EA01311143E1
:104FB00001845CE710B50123048C8B409C4304847E
:104FC000038C8A401343038410BD10B50423048C62
:104FD0008B409C430484038C8A401343038410BD9C
:104FE00030B50124058C00F118038C40A5430584DD
:104FF00089B108290FD0091FC1F34E001844016878
:1050000021F4E041016001684FF6FF7303EA0222D8
:105010001143016030BD03EB5100016821F07001C4
:1050200001600168F4E70029018802D041F0020123
:1050300001E021F00201018019E70029018802D076
:1050400041F0040101E021F0040101800FE7002993
:10505000818802D041F0800101E021F0800181804F
:1050600005E7028822F00802028002880A430280D3
:10507000FDE6828822F07002828082880A43828064
:10508000F5E6028922F00702028102890A430281C1
:10509000EDE6028922F08002028102890A43028140
:1050A000E5E68184E3E68185E1E68186DFE6018746
:1050B000DDE68187DBE6A0F84010D8E6028822F41E
:1050C0004072028002880A430280D0E6808ECEE6DB
:1050D000008FCCE6808FCAE6B0F84000C7E6808C2F
:1050E000C5E6008DC3E602460020128A0A4200D0BF
:1050F0000120BCE6C9430182B9E602460020138ABA
:1051000092890B4202EA010202D0002A00D001205B
:10511000ADE6C9430182AAE60CB5002251480092CF
:105120000192016841F4803101604FF4A06301688D
:1051300001F4003101910099491C0091019911B9C4
:1051400000999942F3D10168890339D50121019170
:1051500045490A6842F010020A600A6822F0030218
:105160000A600A6842F002020A60416841604168D0
:1051700041F460514160416841F4E061416041683F
:1051800041F480414160416821F47C1141604168F3
:1051900041F410214160016841F0807101600168B3
:1051A0008901FCD5416821F003014160416841F06B
:1051B000020141604168C1F381010229FAD10CBDAD
:1051C00001920CBD274810B5016841F00101016052
:1051D0004168264A114041600168254A114001603A
:1051E000016821F480210160416821F4FE014160E1
:1051F0004FF41F018160FFF78FFF1E494FF00060E1
:10520000086010BD174A10B550681B4B10F00C0118
:105210001A4803D0042903D0082903D0036016E0FC
:10522000174913E05168536801F470114FF00204FC
:1052300013F4803F04EB914104D053689B0303D5E2
:10524000104B02E0104B00E00D4B594301605168D8
:105250000A4AC1F30311121D515C0268CA40026080
:1052600010BD000000100240002002400000FFF8C6
:10527000FFFFF6FE08ED00E000127A007800002043
:10528000001BB700808D5B0000093D000948804786
:1052900009480047FEE7FEE7FEE7FEE7FEE7FEE718
:1052A000FEE7FEE7FEE7FEE704480549054A064B30
:1052B00070470000C5510008ED000008F002002012
:1052C000F0080020F0040020F00400207047704730
:1052D000704710B500F008F8006810BD10B504461E
:1052E00000F002F8046010BD0048704790020020F2
:1052F00000487047900200207546FFF7F9FFAE4660
:1053000005006946534620F00700854618B020B5D1
:10531000FFF7CAFFBDE820404FF000064FF000073E
:105320004FF000084FF0000B21F00701AC46ACE84D
:10533000C009ACE8C009ACE8C009ACE8C0098D46BA
:1053400070470446AFF300802046FAF716FF0000CE
:1053500001491820ABBEFEE7260002007047490055
:1053600050EAC12018BF04204A0D18BF40F00100C8
:1053700040F2FF72B2EB515F08BF40F0020001281B
:1053800008BF052070472DE9F0414F1E00EBC70113
:105390000446D1E9000115461E4637F006020DD03D
:1053A0002A46334601F058F87F1E04EBC703D3E9C1
:1053B000002300F08DFD37F00602F1D1022F25D039
:1053C000042F13D0062F18BFBDE8F0812A463346BC
:1053D00001F042F8D4E90A2300F07AFD2A46334668
:1053E00001F03AF8D4E9082300F072FD2A4633466A
:1053F00001F032F8D4E9062300F06AFD2A4633466C
:1054000001F02AF8D4E9042300F062FD2A4633466D
:1054100001F022F8D4E9022300F05AFD2A4633466F
:1054200001F01AF8D4E90023BDE8F04100F050BDC6
:10543000024A0020110701F0AEBE000001FDFFFF8F
:105440002DE9F04D16460F460546020094B01C4665
:1054500021F0004123F0004014BF4FF0010C4FF049
:10546000000C0CEB470CFE4B0CEB03084FEA630CF3
:10547000E0452DD35FEA060818BF4FF0010808EB9E
:1054800044089844F74B984522D3F74B50EA060C52
:1054900002D09F4205D14AB914B000201946BDE898
:1054A000F08D002A08BF4FF0000C01D04FF0010C26
:1054B0000CEB470313F5001F0AD8002E14BF4FF062
:1054C000010C4FF0000C0CEB440313F5001F08D93E
:1054D00014B03246234628463946BDE8F04D00F068
:1054E000F7BCDFF888B34FF0000A002FB8BF58456B
:1054F00023DADF4B9842A8BF4FF0020A1DDADA4BDD
:1055000083421ADCDB4B03EB2053142B08DDC3F181
:10551000340C26FA0CF303FA0CFCB4450DD108E068
:105520005EB9C3F1140C20FA0CF303FA0CFC8445A9
:1055300003D103F00103C3F1020A51EA020321D1AE
:10554000002C1FDA002F18BFBAF1020F02D0BAF1F7
:10555000010F0BD00220FFF7C1FE14B00022BDE8FE
:10556000F04D13461046C04900F06EBD0220FFF713
:10557000B5FE14B02A463B46BDE8F04D0020BA49BE
:1055800000F062BD33006DD1584525D107F1804050
:1055900010F5801001BF002A0020B34914B008BFE5
:1055A000BDE8F08DB048884207DC002CA1BF18464A
:1055B000214614B0BDE8F08D07E0002CBFBF1846AF
:1055C00084F0004114B0BDE8F08DAB497944D1E9D5
:1055D000000114B0BDE8F08DDFF88CC2604526D123
:1055E000002C1FDA19B1594513D1DAB90AE0002AA3
:1055F00040F0DA829D4A394614B0002062F31E0161
:10560000BDE8F08D0020394614B060F31E01BDE8FE
:10561000F08D07DA14B03B46BDE8F04D002061463E
:1056200000F012BD14B010463946BDE8F08D594562
:1056300018DAB4F1804F0DD0A4F10053B3F1FF5349
:1056400010D13B1E0EDB14B01046BDE8F04D1946DC
:1056500000F0E6BB3B4614B01046BDE8F04D1946DD
:1056600000F0FABE27F00043A2BBE1B1594538D1A2
:10567000002F06DD002CA1BF0020594614B0BDE864
:10568000F08D002F01DD002C1FDB002F16DA002C1F
:1056900014DBBAF1010F4FF0000014BF73497749D2
:1056A00014B0BDE8F08DBAF1020F18BF002F0CD076
:1056B000BAF1010F09D1002F07DA0CE0002FB8BFB3
:1056C000002C0EDABAF1010F05D0002014B001460B
:1056D000BDE8F08D05E014B000204FF00041BDE8BA
:1056E000F08D4FF0010C0CEBE7720D9252EA0A02BA
:1056F0000BD0634A90427DDD624B634A984216DDCF
:105700008A420EDB002C1CDB2CE00120FFF7E6FDBB
:1057100014B00022BDE8F04D13461046114600F0CB
:1057200093BC5148884202DC002C0ADC1AE091420A
:1057300002DA002C16DA04E04B4B99421EDD002CF5
:1057400010DD0220FFF7CAFD40F2013200204FF0C9
:10575000E04101F020FD454A14B061F31E021146FC
:10576000BDE8F08D0220FFF7B9FDFFF761FE3E4A6C
:1057700014B061F31E021146BDE8F08D00222846E8
:10578000394601F08FF8054688466FF0010201F0B6
:1057900002FD4FF055323D4B00F092FF2A46434642
:1057A00000F05AFE00223A4B00F08AFF07468B4673
:1057B0002A4643461046194600F04EFE3A465B46DE
:1057C00000F04AFE09910C904FF0C042314B284640
:1057D000414600F041FE07468B462F4A2D4B099962
:1057E0000C9800F039FECDE901102C4A2C4B2846CC
:1057F000414600E019E000F02FFEDDE9013201F042
:1058000051F83A465B460591089000F061FB00258F
:1058100088463A465B46284601F044F8059B089ABC
:1058200000F04EFF024600F076B90020B1F5801F6F
:1058300007DA35222846194601F0ADFC05466FF01F
:10584000340000EB2150A0F2FF300190C1F31300AF
:1058500040F07F6141F0405102911249884223E0BB
:10586000FFFF1F00FFFF0F000000F03F0000F07F70
:105870000000404301FCFFFF682F00000000F0FF24
:105880000000E0410000F043FFFFEF3F5555D53FDA
:105890000000E03F4715F73FFE822B6544DF5DF8CF
:1058A0000BAE543E8E980300D8BF4FF0000B0EDDB8
:1058B000FE498142C8BF4FF0010B08DC01984FF050
:1058C000000B401C01900298A0F580100290F8484F
:1058D0000299784400EBCB000B911090D0E90023A3
:1058E000284600F0DFFF009010980791D0E90023D0
:1058F00028460B9900F0ECFA02460B460020ED49D1
:1059000000F0A2FB05910B4602460890079900980B
:1059100000F0A2FD0690E8488846002778440299E6
:1059200000680E904FF0005040EA610000EB8B40A1
:1059300000F5002110980291D0E900230E9800F0A4
:10594000B1FF2A460B9B00F0BBFE3A46434600F0EF
:1059500083FD05460B9138464146029B0E9A00F0A6
:105960007BFD079B009A00F0ABFE2A460B9B00F0E4
:1059700099FF059B089A00F06FFD0B911090069A15
:1059800043461046194600F067FD05460246CB48DF
:105990000B46009106217844FFF7F5FC009B2A4650
:1059A000029108901046194600F056FD029B089A95
:1059B00000F052FD05460591434638461946069AC1
:1059C00000F086FA0B9B109A00F046FD2A46059BD4
:1059D00000F07EFA3A464346059108901046194673
:1059E00000F03AFD0022B64B00910C9000F070FAE6
:1059F000059B089A00F06CFA0D463A46B04B3846C3
:105A000000F050FF009B0C9A00F04CFF059B089A99
:105A100000F056FE11913A460C902B461046414636
:105A200000F01AFD079100904346069A11990C98D0
:105A300000F012FD804603912B463A460B991098D0
:105A400000F00AFD4246039B00F042FA05918046B1
:105A50000B4602460799009800F03AFA00200F46DC
:105A60000546079B009A00F01DFF4246059B00F08B
:105A700027FE804609914FF06042924B28463946F6
:105A800000F0EAFC009102908F4A8E4B4046099943
:105A900000F0E2FC804603918C4A8D4B2846394643
:105AA00000F0DAFC4246039B00F012FA894A7A447D
:105AB00002EBCB03D3E9002300F00AFA069003912E
:105AC000019800F076FC0746DDE902030591069A8D
:105AD000009900F0FDF9804A7A4402EBCB0BDBE938
