:020000040800F2
:10000000B8AF0020BD010008C72900085729000823
:10001000C529000807280008CD32000800000000AC
:10002000000000000000000000000000252C000877
:100030004D28000800000000492A0008D92F0008B8
:10004000D7010008D7010008D7010008D701000830
:10005000D7010008D7010008D7010008D701000820
:10006000D7010008D7010008D7010008D701000810
:10007000D7010008D7010008D7010008D701000800
:10008000D7010008D7010008D7010008D7010008F0
:10009000D7010008D7010008D7010008D7010008E0
:1000A000D7010008D7010008D7010008D7010008D0
:1000B000D7010008D7010008D7010008D7010008C0
:1000C000D7010008D7010008D7010008D7010008B0
:1000D000D701000891300008D53000081D31000814
:1000E000D7010008D7010008D701000800F002F886
:1000F00000F054F80AA090E8000C82448344AAF16E
:100100000107DA4501D100F049F8AFF2090EBAE86B
:100110000F0013F0010F18BFFB1A43F0010318473B
:100120005463000074630000103A24BF78C878C19B
:10013000FAD8520724BF30C830C144BF04680C60ED
:10014000704700000023002400250026103A28BF35
:1001500078C1FBD8520728BF30C148BF0B60704739
:10016000672905F0A087782900F0488100207047B2
:100170001FB59DE8030000F0E7FB01F081F90400E2
:100180000020002105F0DAFD401C60600020002105
:1001900005F0EAFDE0601FBD10B510BD01F052FC96
:1001A0001146FFF7E5FF03F08BFE01F0A3FE03B459
:1001B000FFF7F2FF03BC01F0D1FE000009488047C1
:1001C00009480047FEE7FEE7FEE7FEE7FEE7FEE739
:1001D000FEE7FEE7FEE7FEE704480549054A064B51
:1001E0007047000041300008ED000008B81B0020F7
:1001F000B8AF0020B8AB0020B8AB002070B5064601
:1002000000F086FB056806F10B0020F00704B442FD
:100210009CBF002070BD2B466A68BAB11068A0422E
:1002200010D304F1080188423CBF5068586007D3DE
:100230005168101941601168091B01605860146011
:10024000101D70BD13465268002AE7D1214628468A
:1002500000F066FB0028DED170BD70B50446051FB6
:1002600000F056FB0068002C14BF446870BD002CE1
:1002700018BFAC423CBF20466468F8D301680A1836
:10028000AA4218BF456003D12A680546114401609F
:1002900028684119A1421CBF6C6070BD616869602B
:1002A00021680844286070BD70B50D460646041FDD
:1002B00000F02EFBD0F800C0C5B1E6B105F10B008F
:1002C00020F00703AB423CBF002070BD206898427D
:1002D00038BFDCF8042013D3C11A08292FD3E01843
:1002E00040F8041B2360FFF7B8FF28E03046FFF713
:1002F000B4FF002070BD2846BDE87040FFF77EBF08
:10030000002A18BFA2423CBF94465268F8D3011994
:10031000914216D111680844984212D3C11A082993
:100320003CBF2060506808D35168E01841602168E4
:1003300012681144C91A01602360CCF80400201D22
:1003400070BD181FFFF75AFF050007D021680A1F6C
:10035000211D00F038FA201DFFF77FFF284670BDF1
:1003600010B5044600F0CCFA0068005DC00602D566
:1003700004F1200010BD204610BD00000FB41CB5D4
:10038000084B06AA7B4469460090059800F083FD5F
:1003900004460020694600F091FD20461CBC5DF833
:1003A00014FB0000350B000070B504468569006839
:1003B000C10601D5302600E02026C00708D070BD58
:1003C000D4E9012130469047206A00F10100206203
:1003D0006D1EF5D570BD70B5044685690078C007FF
:1003E00008D170BDD4E9012120209047206A00F196
:1003F000010020626D1EF5D570BD000070B5044689
:100400000D4621461068AFF300802188090502D50A
:10041000104A7A4402E00F4A7A440E32002104F175
:10042000240307E000F00F064FEA1010965D5E54BB
:1004300001F101010028F5D103462078000704D519
:10044000702D02D009B1113202232046BDE8704060
:1004500000F0B0BA905F00002DE9F05F89460446D5
:100460004FF0000ADFF878B1FB44C0F820A0204626
:10047000E1688847002875D0252806D0D4E90121F5
:100480009047206A401C2062F1E700265F46204624
:10049000E16888472028054608DB312D06D207EBA6
:1004A000050010F8200C08B10643F0E7B00701D5AD
:1004B00026F00406C4F81CA00027C4F818A02A2DB2
:1004C00009D0284602F077FF38B304EB8708303DA7
:1004D000C8F8185019E059F8041B204604EB8702AD
:1004E0009161E1688847012F054618D1E06900282D
:1004F00020DA26F020061DE0D8F8180000EB800076
:1005000005EB40003038C8F818002046E1688847FD
:10051000054602F050FF0028EED1012F0AD02E2D03
:1005200008D12046E16888477F1C0546022F46F027
:100530002006C4DBA069002803DA404246F0010629
:10054000A061F00701D026F010066C2D0BD0682DAD
:1005500009D04C2D39D06A2D35D0742D35D07A2D57
:1005600033D016E038E0E1682F4620468847B8428D
:10057000054609D16C2F26D04FF48060E168064310
:1005800020468847054604E06C2F1AD04FF480704F
:1005900006430DB3A5F14100192802D8203546F4D1
:1005A00000664A462946204626604E46FFF7D8FD9B
:1005B00080B101280BD0F61D26F0070000F10809D4
:1005C00055E74020E4E78020D8E70020D6E706F191
:1005D00004094CE7284651E7206ABDE8F09F000077
:1005E000625F00000FB400B58DB010A909900091B2
:1005F0000B904FF0FF300A9000200C900648784492
:100600000690064878446A4607900F9909A800F0BA
:10061000B3FE0DB05DF814FB970D0000AF0D0000A8
:1006200040EA0103024630B59B0710D14FF0013478
:1006300000E008C208C91D1B9D4315EAC41FF8D07D
:1006400013F0FF0102F8011B0DD01B0AF8E711F8A7
:10065000013B002B02F8013B05D011F8013B002BB8
:1006600002F8013BF3D130BD10B5431C02E010F895
:10067000011B71B18107FAD14FF0013202C88C1A07
:100680008C4314EAC211F9D0C01A0A0603D0C01E66
:1006900010BDC01A10BD0A0401D0801E10BD090291
:1006A000FCD0401E10BD40EA010370B59B072ED15F
:1006B0004FF00136042A2AD308C810C9121F9D1B07
:1006C0009D4315EAC61517D0D8B2E1B2401A50EAD8
:1006D000056110D198B2A1B2401A50EA05410AD181
:1006E00023F07F4024F07F41401A50EA052102D1D7
:1006F000180EA0EB146070BDA342DBD018BA21BA6B
:10070000884201D9012070BD4FF0FF3070BD0AB999
:10071000002070BD10F8013B11F8014B63B1A342FA
:100720000AD1521E08D010F8013B11F8014B1BB141
:10073000A34201D1521EEDD1181B70BD032A40F215
:10074000308010F0030C00F0158011F8013BBCF173
:10075000020F624498BF11F801CB00F8013B38BF8B
:1007600011F8013BA2F1040298BF00F801CB38BF99
:1007700000F8013B11F0030300F02580083AC0F0B7
:10078000088051F8043B083A51F804CBA0E808105F
:10079000F5E7121D5CBF51F8043B40F8043BAFF392
:1007A0000080D20724BF11F8013B11F801CB48BFEC
:1007B00011F8012B24BF00F8013B00F801CB48BF22
:1007C00000F8012B704710B5203AC0F00B80B1E85B
:1007D0001850203AA0E81850B1E81850A0E8185076
:1007E000BFF4F5AF5FEA027C24BFB1E81850A0E87F
:1007F000185044BF18C918C0BDE810405FEA827C99
:1008000024BF51F8043B40F8043B08BF7047D207AF
:1008100028BF31F8023B48BF11F8012B28BF20F850
:10082000023B48BF00F8012B70474FF0000200B5B3
:10083000134694469646203922BFA0E80C50A0E803
:100840000C50B1F12001BFF4F7AF090728BFA0E8B1
:100850000C5048BF0CC05DF804EB890028BF40F87D
:10086000042B08BF704748BF20F8022B11F0804FBF
:1008700018BF00F8012B70474FF0013C50F8042BD3
:1008800051F8043B9A4221D1A2EB0C03934313EAA3
:10089000CC1317D150F8042B51F8043B9A4215D1D0
:1008A000A2EB0C03934313EACC130BD150F8042BA7
:1008B00051F8043B9A4209D1A2EB0C03934313EA8B
:1008C000CC13DBD04FF00000704700BFD01A01BA44
:1008D000B1FA81F101F0180122FA01F0CB40C1F127
:1008E0002001DBB2C0B2C01A2CFA01F3D11A914335
:1008F00011EAC311E6D17047704770477047000096
:1009000010B500F0BDFD001D10BD00BF315400004A
:10091000004870475C1B0020704770477047704765
:1009200038B504460A4600206946AFF30080002827
:1009300008BF38BD02460099204600F0A9FD0120FD
:1009400038BD012001F076B8F8B5AFF30080054658
:1009500000200C46102000BF0646A819A0420DD961
:10096000324669460020AFF30080070008BF01F05F
:1009700061F80098A04218BF0546C419FFF7C8FFE8
:1009800005600746F01D20F007004619284600F0D4
:100990000AF8B44208BFF8BDA21B31463868BDE86A
:1009A000F84000F075BD00210160C0E901107047FA
:1009B000102070472DE9F0470D46994692460446AF
:1009C00000F124080168880604D5E06921F01001CF
:1009D000216000E00120A84202DDA0EB050700E055
:1009E0000027A16907EB050202EB0900A1EB00005B
:1009F000A0612078C00602D42046FFF7D5FC00266F
:100A000008E0D4E901211AF806009047206A401C4A
:100A1000761C20624E45F4DB2078C0060AD52046BD
:100A2000FFF7C2FC06E0D4E9012130209047206A9C
:100A3000401C2062381EA7F10107F4DC07E0D4E96E
:100A4000012118F805009047206A401C2062281EEA
:100A5000A5F10105F3DC2046FFF7BDFC2078000678
:100A600002D50220BDE8F0870120FBE770472DE9A1
:100A7000FF4F0C461E464FF0FF378BB0D2E9000106
:100A8000DDF860800A908A46C1F30A5505B93D46F3
:100A9000002108464FF00000BAF1000F00F44000BA
:100AA00005DA00EB80004FF4400101EA50004FEA04
:100AB0009059B9F1010F00DDB9460A9850EA4A0091
:100AC0000ED044F61050A5F2FF3545432F14B8F16F
:100AD000000F1ED07542291E1EDDC9F100021CE068
:100AE000B8F1010F4FF0000001D0302103E0F243D4
:100AF00005E02154401CB042FBDB304600220021BF
:100B000021540B99C1F80880C1E900200FB0BDE85D
:100B1000F08FBD1B6D1CDEE74A4600DA694206A86D
:100B200000F016FF06AB07CB03AB07C350460A998C
:100B300001F05BFA8DE80700A0F500501F38009027
:100B40000398002D09DD42F21F014A46084403A91B
:100B50000390684601F0E5FC08E0A0F500504A4625
:100B60001F3803A90390684601F003FD8DE80700D4
:100B70000004000C03D04FF0FF30410800E01046A5
:100B8000B8F1000F03D00022009215461FE0751E39
:100B900006D400F097FC02F1300262556D1EF8D5C4
:100BA000B3460122084302D000227F1C04E02078D3
:100BB000302801D100227F1E002A099787D01DE02E
:100BC000112D07DA00F07EFC303262556D1C50EAC0
:100BD0000102F5D108430FD10021681E05E0235C16
:100BE000625C6354491C2254401E8142F7DBAB46D1
:100BF000A81B401E099001E0009848B1002004F8AD
:100C00000B000B98099AC0F80880C0E9002B7DE71B
:100C100011264FF000085AE72DE9F04F88460446A8
:100C2000D21D22F0070191B0D1E90001CDE90A01FE
:100C300002F04DFB02460B98C00F01D02D2007E0BB
:100C40002068810701D52B2002E0202101EAC000A5
:100C5000032A099001D0072A05DB034641462046B6
:100C600000F07EFC0FE12078800601D5E06900E00D
:100C70000620B8F1650F814606D0B8F1660F18D08E
:100C8000B8F1670F72D132E00020B9F1110F009076
:100C900001DB112301E009F101030AAA01A90CA853
:100CA000FFF7E5FEDDE90C70002609F1010583463A
:100CB00048E001204B4600904FF000470AAA01A9E6
:100CC0000CA8FFF7D4FEDDE90DB00C995D460026B7
:100CD00018B909F1010001EB0005B9EB050003D4D7
:100CE000C0F1FF3609F10105A5EB09002BE0B9F1D0
:100CF000010F01DA4FF001090020B9F1110F009046
:100D0000484601DD112300E003460AAA01A90CA808
:100D1000FFF7ADFEDDE90C704D46002683462078D6
:100D200000070AD4AB4500DA5D4601A8012D04DDB9
:100D3000411911F8011C302907D04F4502DA17F18B
:100D4000040F04DA0120824610E06D1EEEE7002F4A
:100D500002DCED1B3E4403E0781CA84200DD0546A2
:100D6000A7EB060000F1010A4FF0004720780007CA
:100D700003D4AA4501DB4FF0FF3A0021B7F1004F41
:100D80000DF143088DF8431023D002202B23002FB0
:100D900001DA7F422D234FF00A0C011EA0F1010061
:100DA00000DC4FB197FBFCF10CFB11720F4602F116
:100DB000300208F8012DF0E7A8F101000370218846
:100DC000090501D5452100E06521A0F1010800F8E1
:100DD000011C09980FA9A1EB080707F1070700B14B
:100DE000012000EB050101EBEA70A1693844A1EB99
:100DF0000000A0F10100A0612078C00602D42046C6
:100E0000FFF7D2FA099830B1D4E901219047206A5E
:100E100000F1010020622078C00620D52046FFF7AF
:100E2000C3FA1CE0002E04DBB34502DD01A8805D9F
:100E300000E03020D4E901219047206A761C401C54
:100E4000BAF1010A20620AD100F01AFBC0680168F9
:100E5000405CD4E901219047206A401C2062281E92
:100E6000A5F10105DEDC07E0D4E9012118F8010B4A
:100E70009047206A401C2062381EA7F10107F3DC6E
:100E80002046FFF7A8FA022011B040E601694A1C8B
:100E900002610878704700B58FB0CDE901310021BB
:100EA000059105497944CDE9031011466846FFF7DD
:100EB000D3FA0FB000BD0000E5FFFFFF0A6802F89B
:100EC000010B0A60704700002DE9FF4F064689B00C
:100ED0000878FF2806D0491C2D2805D000244FF0A3
:100EE000000908E000200CE00124F8E709EB890381
:100EF000491C00EB43090878FF28F7D114B1C9F168
:100F000000008146107800252C46AA4629462D2847
:100F100001D02B2804D1521C2D2813D0002082464A
:100F20008B461078FF280FD04FF0000C0A21521C7E
:100F3000A5FB017804FB018105FB0C11C5194BEBE6
:100F40000104EEE70120EAE7002108464FF0000027
:100F5000BAF1000F02D000EB80004008C0F38158C6
:100F6000B8F1010F01DD4FF0FF380C9809EB0007D5
:100F700055EA040006D14FEACA70C6E900B00DB0C8
:100F8000BDE8F08F17F5FA7F4FF0020904DA4FEA57
:100F9000CA70C6E900B00BE0B7F5FA7F0DDDF04886
:100FA0007844D0E90010C6E9001040EACA707060C9
:100FB00000F06AFAC0F80090E1E7391E02DAC8F1E1
:100FC000000200E0424600DA794206A800F0C0FCC8
:100FD00006AB07CB03AB07C344F23E005BEA040158
:100FE0000090584604D144F21E012C465D46009103
:100FF000210C0904014306D10099240444EA154454
:101000002D041039009104F07F41014306D100996D
:10101000240244EA15642D020839009104F070415D
:10102000014306D10099240144EA15742D01091FDA
:10103000009104F04041014306D10099A40044EA24
:101040009574AD00891E009104F00041084304D15D
:1010500000986D196441401E009042466846002F7A
:10106000CDE9014503A902DD01F097FA01E001F0A5
:101070006CFABAF1000F04460D4601D084F000442A
:1010800040F2FF7724F00040284303D0C4F30A5015
:10109000B84212D100F0F8F9C0F80090C4F30A5039
:1010A000B8420AD1AF487844D0E90010C6E9001030
:1010B00004F000410843706061E7C6E900545EE750
:1010C0002DE9FF4F1F464FF0000A4FF0FF3845460D
:1010D00091B0D7E90146CDF83CA000F0D1F9C06845
:1010E0000168405C1090B96912986D1C8847396A94
:1010F000814688470028F6D119F101000AD0002E58
:1011000024F4D06412DDB9F12B0F08D0B9F12D0F02
:101110000CD102E0404615B032E744F48064B9696E
:1011200012986D1C88478146A6F10106600504A946
:1011300001D52D2000E02B20002E01F1010B0DF137
:1011400030088DF810003FDDB9F1690F08D0B9F112
:10115000490F05D0B9F16E0F02D0B9F14E0F1CD175
:101160003B4601A80095A0E85002DDE912126FF09D
:10117000020004F0FEFFC11CCDD10EE0B969129847
:101180006D1C884781461398761E44F400740560F0
:101190000F98401C002E0F9016DDB9F1300FEDD0E6
:1011A000B9F1780F02D0B9F1580F0DD10F9801287D
:1011B0000AD13B46CDE90054DDE91212001F029628
:1011C00004F0D5FFC11CA6D1109989453ED144F049
:1011D000800406E01399681CAAF1010A44F4007423
:1011E0000860B969761E12986D1C884730288146C0
:1011F000F0D02BE01099894505D1200603D4761E46
:1012000044F0800418E0484602F0D5F808B3761E92
:101210000DF123018B4544F4007408D2A9F130008C
:101220000BF8010B200607D5AAF1010003E0200608
:1012300002D40AF101008246A00502D51399681C68
:101240000860B96912986D1C88478146002ED1DC70
:1012500054E0002E52DDB9F1650F02D0B9F1450F0F
:101260004CD1A0054AD5B969761E12986D1C24F49C
:1012700040748847002E81460DDD2B2804D0B9F13B
:101280002D0F08D144F48074B96912986D1C8847F9
:101290008146A6F10106E00501D52D2100E02B21B4
:1012A00008F8011BCDF8008021E0761E0DF1390110
:1012B000884544F400740CD2A9F1300010F0FF000E
:1012C00088F8000002D10099884509D908F1010881
:1012D00006E0E00501D5244801E042F20F708246A5
:1012E000B96912986D1C8847814613980560002ED5
:1012F00004DD484602F05FF80028D6D1F96912985B
:101300008847FF2053468BF8000088F80000002033
:101310000A900B9004AA0CA90AA8FFF7D5FDA00516
:1013200002D46FF00100F6E614F0240F0AD0E007B3
:1013300014D13868DDE90A12031D3B600068C0E97A
:1013400000120BE00AA9684601F0DEFFE00705D1B4
:101350003868009A011D3960006802602846DAE6A4
:10136000F0540000EA530000F1D8FFFF0268114476
:101370001378016018467047D1600549794451617E
:1013800004497944116200211161114600F028B925
:10139000EDFFFFFFC9010000426842B1016811F88A
:1013A000013B23B1521EC0E90012184670470121CB
:1013B000C160881E704742685AB1C368016843B96A
:1013C00083688B4205D0491E521CC0E900120020E0
:1013D00070474FF0FF3070470FB4002300B589B05D
:1013E0000CA900910B99CB60204B7B440693204BBA
:1013F0007B44079304236FF00042CDE901321D4A7C
:101400007A446B4608920246002004F0AEFE09B012
:101410005DF814FB70B506464FF0FF3015460C46DC
:10142000324686B00091CDE9010169460020049062
:1014300004A8FFF7D1FF03460498211825B108B18D
:101440000A4600E022462A6000280DD0002B02DD6B
:101450000098884208D03246081B69460094CDE9BE
:10146000010404A8FFF7B8FF06B070BDABFFFFFF93
:10147000C3FFFFFF4B01000000487047541B0020D2
:1014800000487047741B002000487047541B002020
:10149000034640688C46002818BF88423CBF03467C
:1014A0004068F8D318681844884207D00CF103004C
:1014B00020F00700001D411A521A0146081D0A605B
:1014C000FEF7CBBE30B5B0F10A024FEA900E71F1D3
:1014D00000034EEA817EB0EB0E0061EB91014FEA12
:1014E000101E4EEA017E10EB0E0041EB11114FEA87
:1014F000102E4EEA016E10EB0E0041EB11214FEA67
:10150000104E4EEA014E10EB0E0041EB1141401817
:1015100041F100014FEAD00040EA41704FEAD101A9
:1015200010EB80054FEA810444EA907444EB010417
:101530006D1944EB0404521BA3414FF0000348BF54
:101540000A3200D530BD401C41F1000130BD10B55C
:101550000446FFF7D5F90068005D00F0010010BDFA
:101560002DE9F0411F46044603260168072A01F4CD
:10157000006004DB08B116A505E016A503E008B17C
:1015800015A500E015A521F010002060A069C01E7F
:10159000A0610FB1401EA0612046FEF705FF4FB1CC
:1015A000D4E9012138469047206A401C2062C01CC3
:1015B000206206E0206AFAE7D4E9012115F8010B60
:1015C0009047761EF8D22046FEF705FFBDE8F08171
:1015D0004E414E006E616E00494E4600696E6600D7
:1015E0002DE9F34F4FF0000A0C4656468DB001200E
:1015F0000C9001F10C000B9062690B98012190474F
:1016000005002DD0252D2CD0216A8847C0B16269F4
:101610000B9801219047216A88470028F7D1626919
:10162000411E0B98904700E0761CA1690D988847F1
:10163000216A88470028F7D1E1690D988847DBE7E0
:10164000A1690D988847A842074601D1761CD3E7C7
:10165000E1690D9888477F1C02D1BAF1000F6FD065
:101660006AE162690B9800273D46394690472A286F
:1016700004D162690B98012190470125DFF8CC82E3
:1016800062690B9801219047A0F130010A290AD222
:101690004745E5DC07EB870100EB4107303FDFD42E
:1016A00045F01005ECE7E90601D46FF000476C281F
:1016B0000AD04C2814D0682815D06A280DD0742878
:1016C0001CD07A281AD01DE062690B98012190473E
:1016D0006C2802D045F0040514E045F002050DE049
:1016E00045F020050AE062690B98012190476828BF
:1016F00002D045F0080505E045F4006562690B98E5
:1017000001219047C4E9015765283DD019DC5828CC
:1017100079D00CDC452837D004DC252826D0412898
:101720009ED131E046282FD0472899D12CE05B2864
:101730007FD0612828D063287BD0642890D159E0DD
:10174000F5E06F2847D008DC66281DD067281BD03D
:10175000692821D06E2816D127E0702844D073283C
:1017600067D0752846D078280DD14CE0A1690D9836
:101770008847252805463FF469AFE1690D988847F9
:101780006D1C3FF46AAFD7E00D9923466A466FF0AF
:10179000010004F0EAFCC4E045F0400023464FF0AD
:1017A00000026060A80735D43DE0206800F1040124
:1017B00021600068290501D506701DE7290701D5BC
:1017C000068019E7A90704D54FEAE671C0E9006170
:1017D00012E7066010E745F0400023464FF008028C
:1017E0006060A80716D41EE040F60E0125EA01004D
:1017F000606016E045F0400023464FF00A0260604A
:10180000A80707D40FE045F040006060A80708D59E
:10181000234610220D996FF00100AFF3008080E0A5
:1018200007E0102223460D996FF00100AFF300800E
:1018300077E04FF0000963284F46C8464B46CB4639
:1018400002D05B2806D038E0E80601D40120A06071
:10185000012732E06269D4F80CB00B98012190475F
:101860005E2807D14FF0010949466269D4F80CB0EF
:101870000B989047216939B900210B4603AA42F819
:101880002130491C0829FADBD8B3216949B308F192
:10189000010862690B98012190475D28F4D1B9F1E4
:1018A000000F09D0002003A951F82020D24341F8AD
:1018B0002020401C0828F7DB03AB20690028207992
:1018C0004FEA40701ED05B462246CDF80080CDE93D
:1018D00001970D9900286FF0010020DAAFF3008026
:1018E0001FE0C11700EBD16203A9531122F01F02C0
:1018F00001EB8301821A0B680120904003430B60C7
:10190000C7E719E00D99224600286FF00100009703
:1019100002DAAFF3008004E0AFF3008001E0AFF340
:10192000008000280ADA401C06D10C9820B14FF044
:10193000FF300FB0BDE8F08F5046FAE7E90701D15C
:101940000AF1010A064400200C9055E6CCCCCC0CE0
:101950002DE9F047814616468AB035487844D0E9EB
:10196000002380680092CDE90130314878440C387A
:10197000D0E90223006903924FF03702CDE9043029
:1019800041F69B30014491FBF2F0A0F1800502FB8F
:1019900010141B3C02D56442012000E00020DFF857
:1019A00090A080460027FA44AAF1C60A0DE0E0079D
:1019B00009D03246684607EB47010AEB810100F087
:1019C000D8FD8DE8070064107F1C002CEFD1184F64
:1019D0007F44B43F17E0E80713D007EB04100DF184
:1019E000180A90E80E00AAE80E00C068F04201D183
:1019F00098190890324606A903A800F0BAFD03AB77
:101A000007C36D10641C002DE5D132466946B8F15C
:101A1000000F03A802D000F084FD01E000F0A9FD52
:101A2000C9E90001C9F808200AB0BDE8F087000044
:101A3000FC4A000010B500F069FABDE8104000F063
:101A40005FBA70477546FFF717FDAE460500694659
:101A5000534620F00700854618B020B5FEF7BCFBC2
:101A6000BDE820404FF000064FF000074FF000089F
:101A70004FF0000B21F00701AC46ACE8C009ACE820
:101A8000C009ACE8C009ACE8C0098D46704710B584
:101A9000FFF7FAFC006810BD10B50446FFF7F4FC30
:101AA000046010BD2DE9FF4F1F464FF03C0987B081
:101AB0004FF00042DDE9141001F10108DDF858A0F3
:101AC00002EA4050039000200490834605460446F5
:101AD0000590B969461E08988847AAF1010A029044
:101AE000BAF1000F37DD02982E2815D0102100F032
:101AF0004EFA00282ADB4FF0010B0499014316D05F
:101B0000B9F1000F0BDB4A46C11700F02DFA05436F
:101B10000C43A9F1040905E00120059007E008B194
:101B200045F0010501200490059800B9361DB969FA
:101B3000089808F101088847BBF1000FAAF1010AD3
:101B40000290CDD00999C1F80080C9E702987028A9
:101B500008D0502806D0F96908988847BBF1000FD3
:101B600014D04FE0002002900120BBF1000F049040
:101B700009D0B969089808F101088847AAF1010954
:101B8000B9F1000F07DCF969089888476FF0010088
:101B90000BB0BDE8F08F2B2804D02D280CD14FF0CE
:101BA000FF300490B969089808F101088847A9F145
:101BB0000109B9F1000FE6DD411CE4D00A2100F073
:101BC000E6F90028DFDB029908F1010801EB810149
:101BD00000EB41000290B969089888470A2100F09B
:101BE000D6F9099AA9F10109B9F1000FC2F80080EC
:101BF00001DD0028E7DAF969089888470499029816
:101C000000FB016655EA040001D103989CE004F052
:101C10004041090004D1A40044EA9574AD00B61E09
:101C200004F00041080002D16D196441761E159838
:101C300010F0240F03D04FF00B095C4803E04FF085
:101C400028096FF07D008246564507DAAAEB0601A7
:101C50008944B9F1410F01DD4FF041090120002114
:101C6000A9F1010200F080F9024628400B4621400C
:101C7000084301D0012100E00021501E029143F1F0
:101C8000FF3128402140084301D0012000E000201E
:101C90000299834651EA0B014FD0002108464FF0CC
:101CA0000000039900F4400039B100EB80004FF4CC
:101CB000400100EBD07001EA60008015012802DDD0
:101CC0004FF0FF3000E013D0401C36D0029860B3D4
:101CD000BBF1000F0CD14A460120002100F044F96D
:101CE00028402140084301D0012000E00020E0B15D
:101CF00001204A46002100F037F9034640190A4600
:101D000061412D1A8C4111D3B9F1400F09DD1598AD
:101D100010F0240F02D0AAF1340603E0AAF117064E
:101D200000E0761C00254FF0004406E05B1E42F107
:101D3000FF3220EA030521EA0204CAF10100B042A1
:101D400006DA1B49039808430190002000900EE03A
:101D5000039AC4F3D321E80A0A43164940EA4450DF
:101D60000A433146CDE90002684601F019FB159897
:101D700010F0240F0BD01598C00715D13868DDE995
:101D80000012031D3B600068C0E900120CE002A8CD
:101D9000694601F0B9FA1598C00705D13868029A6A
:101DA000011D3960006802604046F1E602FCFFFF59
:101DB0000000F07F0000F03F2DE9FF4F92461D46E6
:101DC00085B04FF00041DDE9124BDDE914727F1E52
:101DD00001EA4B50434940F0FF4940EA0108002125
:101DE00022F020004928049102D04E282BD04FE049
:101DF0003DA00126D0E9001280680091CDE90120C4
:101E0000A9690698641C88477F1E014606D41DF800
:101E1000060018B121F0200181420BD0E969069833
:101E20008847032E34D0082E32D06FF0010009B05D
:101E3000BDE8F08F761C032E01D0082EE0D1601C87
:101E4000CAF80000DCE7A9690698641C88477F1E71
:101E50002AD420F02000412826D1A9690698641CC4
:101E600088477F1E20D420F020004E281CD1A9696D
:101E70000698641C88477F1E48F4002849F48009AE
:101E8000CAF8004001D4282806D0E9690698884796
:101E90005FEACB7012D022E0A9690698641C8847DB
:101EA0007F1E01D4002803DAE96906988847BCE759
:101EB0002928F1D1641CCAF80040E9E71BF0240F7F
:101EC00007D028680499031D2B600068C0E900183A
:101ED00005E02868021D2A600068C0F800902046CE
:101EE000A5E700000000F07F494E46494E4954598D
:101EF000000000000446AFF300802046FEF757F9CB
:101F0000002801D000F02AB87047000010B5012861
:101F100005D0002103A000F048F8012010BD09A160
:101F2000F8E7000053494752544D454D3A204F754C
:101F300074206F662068656170206D656D6F7279C1
:101F4000000000003A2048656170206D656D6F7279
:101F50007920636F7272757074656400014918208E
:101F6000ABBEFEE726000200B2F120030AD5C2F1A3
:101F7000200301FA02F120FA03F300FA02F041EA29
:101F80000301704700FA03F14FF0000070473A2850
:101F900000D2303820F02002412A01D3A2F13700CC
:101FA000884201D34FF0FF30704770B505460C46AC
:101FB0000A2000E06D1C00F011F835B128780028E7
:101FC000F8D102E0641C00F009F814B12078002870
:101FD000F8D1BDE870400A20AFF3008008B569462B
:101FE0008DF800000320ABBE08BD5FEA400C08BFBF
:101FF00091F0000F4FEA8C234FEAC12243EA51517E
:102000004FEA1C5018BF00F5F0404FEA300018BFEF
:1020100041F000415FEA6C5C00F02980BCF1FF3FB9
:1020200008BF40F080407047130C06BF12044FF009
:10203000100C4FF0000C130E04BF12020CF1080C30
:10204000130F04BF12010CF1040C930F04BF920094
:102050000CF1020CD30F04BF52000CF1010C11461D
:102060004FF00002A0F11F00A0EB0C00704711F030
:10207000004F08BF704731F000413FF4D5AF0B0C63
:1020800006BF09044FF0100C4FF0000C0B0E04BFFC
:1020900009020CF1080C0B0F04BF09010CF1040C30
:1020A0008B0F04BF89000CF1020CCB0F04BF490059
:1020B0000CF1010CCCF12003A0EB0C0022FA03F38D
:1020C00002FA0CF241EA030100F10100704720F02E
:1020D0007F4C80EA030023F07F47ACEB070303F556
:1020E0007C5300F0004003F1FF032DE980494FEAE3
:1020F000154B09B44FEA144325EA0B4E24EA034872
:102100000FF2042606EB132749083E785FEA3202F5
:1021100003FB0667C7F5000707FB06F64FEA5437CF
:102120004FEAD64606F1020607FB066CCCF1005CCE
:102130004FEA1C472CEA074C07FB06F40CFB06F59C
:1021400004EB15464FEA961634BF00204FF00040CE
:102150004FEAD13706FB07FC4FEA1C4C0CFB0BF790
:10216000D21B03FB0CF761EB07010CFB0EF7B0EB86
:10217000074072EB17420CFB08F734BFA2EB074293
:10218000B2EB074261EB17414FEA0C444FEA91076B
:1021900006FB07FC4FEA1C4C0CFB0BF7B0EBC740EF
:1021A00072EB573203FB0CF734BFA2EBC742B2EB22
:1021B000C74261EB57310CFB0EF7B0EBC70072EB77
:1021C00057720CFB08F734BFA2EBC702B2EBC70291
:1021D00061EB5771039F4FEA816141EA921104EB71
:1021E000CC044FEAD1374FEA826206FB07FC42EA91
:1021F00090124FEA80604FEA1C4C0CFB0BF7D21B8D
:1022000003FB0CF761EB07010CFB0EF7B0EB07408B
:1022100072EB17420CFB08F734BFA2EB0742B2EB9C
:10222000074261EB17414FEA8C554FEA910704EBE7
:102230009C2406FB07FC4FEA1C4C0CFB0BF7B0EB95
:10224000C74072EB573203FB0CF734BFA2EBC74217
:10225000B2EBC74261EB57310CFB0EF7B0EBC70096
:1022600072EB57720CFB08F734BFA2EBC702B2EB5C
:10227000C70261EB577115EB4C254FEA816141EACA
:1022800092114FEA82624FEAD13742EA901206FB7E
:1022900007FC44F100044FEA80604FEA1C4C0CFB41
:1022A0000BF7D21B03FB0CF761EB07010CFB0EF7DE
:1022B000B0EB074072EB17420CFB08F734BFA2EB00
:1022C0000742B2EB074261EB174115EB1C154FEAD1
:1022D000813141EA92414FEA823242EA90424FEA2A
:1022E00080304FEA0C7644F1000448EA03434EEA9A
:1022F0000B484FF0000EB2EB080C71EB030724BF44
:10230000624639464EEB0E0E4FF0000B001852415C
:1023100049414BEB0B0BB2EB080C71EB03077BF164
:10232000000B24BF624639464EEB0E0E4FF0000BF9
:102330000018524149414BEB0B0BB2EB080C71EB0F
:1023400003077BF1000B24BF624639464EEB0E0EAD
:1023500051EA020718BF46F0010616EB0E7655F15A
:10236000000254F1000103D5BDE88901BDE80088F1
:10237000BDE88901BDE80048B619524141EB0101B1
:10238000A3F10103704780807F7E7D7C7B7A797822
:10239000777676757473727171706F6E6E6D6C6C2A
:1023A0006B6A6A69686867666665646463636261CC
:1023B0006160605F5F5E5E5D5D5C5C5B5B5A5A594D
:1023C00059585857575656555555545453535252B9
:1023D0005251515050504F4F4F4E4E4D4D4D4C4C11
:1023E0004C4B4B4B4A4A4A4949494848484747475A
:1023F0004746464645454544444444434343434297
:10240000424242414141000046EA0646A3F570536C
:102410004FEA164646EA42564FEAD22242EA415273
:1024200010B54FEAD121A3F1010300F017F820F015
:10243000004000F1010C00F0004701EB0050114694
:10244000BCF5006F40EA070000D210BD02484FF013
:10245000000140EA070010BD0000F07F002B26D4E9
:10246000770021D01CB54FEA370703B44FF01000B6
:102470004FF010014FF000000FBCBDE810400BF111
:10248000010BBBF1010F08BF5FEA170722BF12F172
:10249000010211F101014FF0004143F1000300F08E
:1024A000004043EA00007047F9D35708DAE746EAEC
:1024B000064613F1400F4FEA16461FDD13F1200FB9
:1024C000DFBF16430A46002120335B42C8D0C3F168
:1024D000200746EA064602FA07F74FEA164646EA9A
:1024E0000706C3F1200722FA03F201FA07F721FADF
:1024F00003F14FF0000342EA0702B1E746EA0206A1
:1025000046EA06464FEA164646EA0106BCBF46EAD8
:102510000646360C4FF000034FF000024FF000016A
:102520009EE72DE9C048934630B491E8380007C8CB
:1025300031EA400C48BF34EA430C03D5FFF7C7FD2E
:10254000FFF78CFFF0BCBDE800882DE9C04893463A
:1025500030B491E8380007C831EA400C48BF34EA8B
:10256000430C03D5FFF7B3FDFFF74EFFF0BCBDE80A
:1025700000882DE9C048934630B491E8380007C878
:1025800010F0804F08BF13F0804F03D100F019F80E
:10259000FFF764FFF0BCBDE800882DE9C048934612
:1025A00030B491E8380007C810F0804F08BF13F02E
:1025B000804F03D100F005F8FFF726FFF0BCBDE81F
:1025C000008820F07F4780EA030023F07F4C07EB70
:1025D0000C03A3F57C5300F00040A3F1FE0392F03E
:1025E000000F00F0B38095F0000F00F077802DE928
:1025F00001494FEA11404FEA144621EA004800FB26
:1026000006FC24EA064708FB06F607FB08F800FB71
:1026100007F718EB06484CEB164C4FEA124B18EB39
:1026200007484FEA15464CEB174022EA0B4E0BFBCE
:1026300006FC25EA06470EFB06F607FB0EFE0BFB23
:1026400007F71EEB064E4CEB164C4FF000061EEB48
:10265000074E4CEB174B18EB0B0840F1000018EB42
:102660000E0B58EB000840F100008F1A4FF00001EC
:102670003CBFC943661B14BFB5EB040C00213CBF33
:10268000C943F61B4FEA17444EEA8E0E27EA04456B
:102690004FEA1C4704FB07622CEA074C05FB07F7CF
:1026A0000CFB05F604FB0CFC16EB074642EB17424D
:1026B00016EB0C4642EB1C421BEB060658EB0202E3
:1026C000414146EA9E0601D5BDE80189B61952414D
:1026D00041EB0101A3F10103BDE801894FEA144573
:1026E0004FEA114724EA054621EA074C05FB07F4A7
:1026F00006FB07F70CFB06F105FB0CFC11EB074191
:1027000044EB17444FEA124711EB0C4144EB1C44D5
:1027100022EA074C05FB07F206FB07F70CFB06F65F
:1027200005FB0CFC16EB074642EB174216EB0C467A
:1027300042EB1C456A1854F1000148BF7047B619B6
:10274000524141EB0101A3F10103704795F0000FE5
:1027500037D04FEA11424FEA144721EA024624EAF1
:10276000074C02FB07F106FB07F70CFB06F402FB24
:102770000CFC14EB074441EB17414FEA154714EBEF
:102780000C4441EB1C4125EA074C02FB07F506FB14
:1027900007F70CFB06F602FB0CFC16EB074645EBB5
:1027A000174516EB0C4645EB1C42121951F100017E
:1027B00048BF7047B619524141EB0101A3F1010333
:1027C00070474FEA14454FEA114724EA054621EACB
:1027D000074C05FB07F106FB07F70CFB06F24FF071
:1027E000000605FB0CFC12EB074241EB174112EB14
:1027F0000C4251EB1C4148BF7047921841EB01015C
:10280000A3F101037047FEE778B50F4B4FF6FF7257
:10281000ADF8002003F580740DE09DF8002010F85D
:10282000015B6A409DF801509E5C75408DF8005038
:10283000A25C8DF801200A00A1F10101C9B2ECD11E
:10284000BDF8000078BD0000A66100087047F0B533
:10285000CC78002204F00F03E40601D58C782343E2
:102860000C784FF00F0C4FF0010EDCB105680E88AC
:102870000EFA02F42640A64210D196000CFA06F792
:1028800025EA070703FA06F5CE783D43282E02D045
:10289000482E02D002E0446100E00461521C082A84
:1028A000E5D305600A88FF2A1CD94468002202F19A
:1028B00008060EFA06F50E882E40AE420ED196009E
:1028C0000CFA06F7BC4303FA06F7CE783C43282EF1
:1028D00000D14561CE78482E00D10561521C082AEE
:1028E000E5D34460F0BD0000F0B5144C002801DAD7
:1028F000E36900E06368450D2E0185B2C0F301571E
:10290000B540C0F30342032F05D0C6020AD5032603
:102910009640B34307E023F07062636823F070636E
:10292000636002E0AB4343F0706201B12A430028C8
:1029300001DAE261F0BD6260F0BD0000000001401C
:102940000246002092680A4200D00120704741618F
:10295000704701617047FEE770B504460D4645F2C9
:10296000555000F029F8204600F01AF8284600F0EB
:102970001DF800F00DF8BDE8704000F001B800004F
:1029800002494CF6CC40086070470000003000401F
:1029900002494AF6AA200860704700000030004053
:1029A00001494860704700000030004001498860DC
:1029B0007047000000300040014908607047000087
:1029C00000300040FEE770474FF4A06000F032B8DE
:1029D00070B50F23C278017801244FF0E025DAB1F9
:1029E000124A126802F4E062C2F5E062120AC2F111
:1029F0000406D3404278B24086781E400C4B164302
:102A00003201CA54007800F01F018C40400905EBE8
:102A10008000C0F8004170BD01F01F0084404809EB
:102A200005EB8000C0F8804170BD00000CED00E0B7
:102A300000E400E0024908430249086070470000D2
:102A40000000FA050CED00E0704700002DE9F047AA
:102A50004FF400513348FFF773FF0025324B01223A
:102A6000012804D05D62187901280AD00FE09D6228
:102A7000187960B9586A401C5862102807D11A7139
:102A800005E0986A401C9862102800D11D71274803
:102A90001979274E41705879264C07274FF0050CBD
:102AA00008B1F1B13AE0C9B30020914600EB400211
:102AB00006EBC20292F81780B8F1000F0DD0127A1F
:102AC0005AB100EB400202EBC00204EB4202D774A1
:102AD000958282F8129082F811C0401C3C28E5DBF8
:102AE0001CE000204FF0030900EB400506EBC50594
:102AF00095F81780B8F1000F0DD02D7A5DB100EB7D
:102B0000400505EBC00504EB4505EF74A5F81490EE
:102B1000AA7485F811C0401C3C28E5DB5971BDE85A
:102B2000F0870000000C0140140000203E1B002034
:102B30002E0D002060000020044A0029516901D0B8
:102B4000014300E0814351617047000000100240E2
:102B5000044A0029D16901D0014300E08143D161D9
:102B60007047000000100240044A0029916901D01A
:102B7000014300E081439161704700000010024072
:102B800030B5224A5168224B11F00C0103D00429C0
:102B900003D0082903D0036016E01E4913E05168F2
:102BA000536801F470114FF0020413F4803F04EBFA
:102BB000914104D053689B0303D5174B02E0174B98
:102BC00000E0144B5943016051680F2303EA1111CF
:102BD000134B5C5C0168E14041605468072505EADD
:102BE00014241C5D21FA04F48460546805EAD4249A
:102BF0001B5DD940C1605268032303EA9232084B3F
:102C00001B1F9A5CB1FBF2F1016130BD0010024064
:102C100000127A00001BB700808D5B0000093D00A8
:102C200004000020704700002DE9F041DFF86480C7
:102C300006464FF4007739464046FFF78AFE0024E7
:102C4000154D09E0641C284600F03CFB8021284615
:102C500000F09BFA0028F9D0315D0029F2D10D2156
:102C6000284600F02FFB8021284600F08EFA00282D
:102C7000F9D00A21284600F025FB4021284600F023
:102C800084FA0028F9D039464046BDE8F041FFF704
:102C90005EBE000000080140004800402DE9F04100
:102CA000041D002505704079434E444F5A2802D038
:102CB0005B2849D079E00F212046FFF7A5FDE17B95
:102CC000C0F30722914270D1217CC0B281426CD105
:102CD0002078DFF8ECC0401E00EB400101EBC003A0
:102CE000A2780CF8132000EB400106EBC1000CEBBE
:102CF000430382714FF4FA625A805D70227994F82E
:102D000003C002EB0C229A8026F83120A179627967
:102D100001EB0221D9808181E1794172217A3971F7
:102D2000A17A627A01EB02214180217BE27A01EBF8
:102D300002218180A17B627B01EB022181822149FA
:102D40004FF47A60C88330E00F212046FFF75CFD26
:102D5000E17BC0F30722914227D1217CC0B281429E
:102D600023D12078A17879712179E278401E01EB96
:102D7000022100EB4000F98006EBC0006179C171CF
:102D8000A1790172217AE27901EB0221C181A17A54
:102D9000627A01EB02210182217BE27A01EB0221BE
:102DA0004182617B8175A17B817200202554401C8A
:102DB0001428FBDBBDE8F0812E0D0020481B00200D
:102DC000600000201400002070B5074D0024AC8086
:102DD000A81D01F093FE00214FF480606A18491C81
:102DE00094718142FADB70BD280900200CB50022E5
:102DF000264800920192016841F4803101604FF44D
:102E0000A063016801F4003101910099491C00910F
:102E1000019911B900999942F3D10168890333D519
:102E2000012101911A490A6842F010020A600A68F9
:102E300022F003020A600A6842F002020A60416856
:102E4000416041684160416841F48061416041688E
:102E500021F47C114160416841F4E811416001684E
:102E600041F08071016001688901FCD5416821F061
:102E700003014160416841F0020141604168C1F3D2
:102E800081010229FAD10CBD01920CBD0010024053
:102E9000002002402DE9F0474FF480514848FFF7E9
:102EA0004FFD484F00250126012804D0FD62B87966
:102EB00001280AD00FE03D63B87960B9F86A401C78
:102EC000F862102807D1BE7105E0386B401C3863EA
:102ED000102800D1BD71DFF8F0C0B979DFF8EC80BF
:102EE0008CF80210F879DFF8E89007224FF0030A17
:102EF00008B101B32BE051B3ACF806509CF80500C3
:102F000028B38CF80550002000EB400308EBC30306
:102F1000DC7D64B11B7A53B100EB400303EBC004CA
:102F200009EB4403DA749D829E7483F811A0401C5F
:102F30003C28E9DB0BE09CF8000040B12548C37851
:102F40008078C0EB001003EB8000ACF80600F9714C
:102F5000388A401C80B23882B0F57A7F2ED93D8203
:102F6000BCF80600002829D0401E0004000CACF874
:102F7000060023D18CF805604B4600EB400101EBC5
:102F8000C00103EB4101401CCD733C28F5DB002060
:102F9000544600EB400108EBC101CD7D5DB1097ADB
:102FA00049B100EB400101EBC00103EB4101CA74E0
:102FB0008E828E744C74401C3C28EADBBDE8F0879E
:102FC000000C0140140000203E1B00202E0D0020AC
:102FD00060000020481B002014494A8801202AB1C3
:102FE0004A88521E4A804A8802B948704A8B2AB1E0
:102FF0004A8B521E4A834A8B02B948760C494A884A
:103000002AB14A88521E4A804A8802B90870094982
:103010000A8812B10A88521E0A8007490A8812B12A
:103020000A88521E0A80054908707047F808002077
:10303000280900202C0000202E0000201E00002067
:103040000F4810B5016841F00101016041680D4A67
:103050001140416001680C4A11400160016821F48F
:1030600080210160416821F4FE0141604FF41F019D
:103070008160FFF7BBFE05494FF00060086010BD9E
:10308000001002400000FFF8FFFFF6FE08ED00E030
:1030900070B50E4C40F225552946204600F07CF8CC
:1030A000002812D02946204600F05FF8204600F0A4
:1030B00005F907490B780A1D98540878132802D29D
:1030C0000878401C08700320488070BD003801401B
:1030D000F808002070B50F4C40F2255529462046CF
:1030E00000F05AF8002813D02946204600F03DF899
:1030F000204600F0E3F808490B7E01F11C029854C9
:10310000087E132802D2087E401C087603204883DC
:1031100070BD000000440040F808002070B50F4C5E
:1031200040F225552946204600F036F8002814D0F4
:103130002946204600F019F8204600F0BFF808495B
:103140008B888A1D9854888840F2FF32904202D2C0
:103150008888401C88800420488070BD004800405A
:1031600028090020C943018070470A0A01219140C3
:10317000C943018070470029818902D041F4005180
:1031800001E021F40051818170470246002012883D
:103190000A4200D00120704770B501F01F050126DA
:1031A0000024C1F3421306FA05F2012B0FD0022BC3
:1031B0000FD0838A4FEA11210088134206FA01F6E4
:1031C00000EA060001D000B10124204670BD8389C9
:1031D000F0E7038AEEE710B5C1F3421301F01F04D4
:1031E0000121A140012B07D0022B07D01430002A67
:1031F000026805D00A4304E00C30F8E71030F6E727
:103200008A43026010BD000030B50446008A85B0D4
:103210000D464CF6FF710840E98801432182A089E0
:103220004EF6F3110840A9882A8911436A8902439E
:103230001143A181A08A4FF6FF410840A9890143AB
:10324000A1826846FFF79CFC1B48844201D1039889
:1032500000E00298A1890904002900EBC00101EBFC
:103260000010296802DA4FEA410101E04FEA8101CA
:10327000B0FBF1F06422B0FBF2F14FEA01114FEA2A
:1032800011136FF018056B4300EB8300A3891D0435
:103290004FF0320306D503EBC000B0FBF2F000F0B4
:1032A000070005E003EB0010B0FBF2F000F00F00A8
:1032B0000843208105B030BD003801408088C0F34C
:1032C00008007047C1F3080181807047FEE749009C
:1032D00050EAC12018BF04204A0D18BF40F0010079
:1032E00040F2FF72B2EB515F08BF40F002000128CC
:1032F00008BF052070470000024A0020110702F0B5
:1033000006BF000001FDFFFF10B50446D1E9000132
:1033100000F002F8206010BD38B504460D466A463C
:1033200000F08EFA00987E30009000281FDC00220A
:1033300013462046294602F073FD18D02046294640
:1033400002F028FD0446002140F608004FF000007E
:1033500040F60801014040F608004FF0000034F04C
:10336000004004BF0220FEF797FB204638BD0098BE
:10337000FF280DDB0220FEF78FFB002213462046BC
:10338000294602F055FE8CBF04484FF0FF4038BD7F
:1033900020462946BDE8384002F0FCBC000080FF12
:1033A00010B504460A46D4E90003194600F048FD6A
:1033B000C4E9000110BD30380A2801D2012070474D
:1033C0000020704719B110B1826812B104E00020EA
:1033D0007047816005E0024610680028FBD111604B
:1033E0004A60012070472DE9F0410D4606991F46BD
:1033F00014465FEA000806D02DB124B131B1E0686F
:1034000040F400760BE00020BDE8F0811946284624
:1034100000F0BCF90500F7D0E06820F40076A08940
:10342000800503D4206A08B179688847E6602146A0
:1034300040462562BDE8F041FFF7C4BF2DE9F041E9
:10344000284C0025207A401CC0B220720A2820D9BE
:103450000021254B012625720C2701EB410000EBD2
:10346000C10203EB4200B0F802C0BCF1000F0DD066
:10347000B0F802C0ACF1010CA0F802C0B0F802C074
:10348000BCF1000F02D1467003F81270491C3C29B0
:10349000E3DB207A052823D1FFF7D8FA1348007818
:1034A00010B1FFF7F7FC02E01148C5804571A08B11
:1034B00044F62561884202D2A08B401CA083607A2A
:1034C000012807D1208C41F28831884202D2208C19
:1034D000401C2084E08B002802D0E08B401EE0835B
:1034E000BDE8F0811400002060000020481B00208F
:1034F0003E1B002010B588B103687BB1426881682B
:10350000914206D25C5C202C03D8491C81600028C3
:10351000F5D1914201D1491E816010BD002010BD3E
:10352000FFF750BF08B500230093024BFFF75BFF86
:1035300008BD00005400002010B5044800F099F8C0
:10354000002801D02021C16010BD000054000020DF
:1035500070B505460E46124800F08BF804001CD0EA
:103560000820E060C4E906560E4A0F4B2846314653
:1035700002F05EFD02D86FF000400DE000220B4B20
:103580002846314602F0CAFC02D84FF0004003E062
:103590002846314602F080FC6061204670BD000084
:1035A000540000200000C0FFFFFFDF410000E0C129
:1035B00010B5044800F05DF8002801D04021C1603A
:1035C00010BD00005400002070B504460F4E19E0F5
:1035D000A0892568C0050AD4A06820B1FFF7F4FFD0
:1035E000A089C00503D4206908B171688847A08903
:1035F000800503D4206A08B1716888477168204645
:1036000088472C46002CE3D170BD000054000020F8
:10361000002901DA0020704700F070B901004FF076
:10362000000001D0896803E0002070470968401C51
:103630000029FBD17047002200F06BB9002803D0AD
:10364000007B202801D0002070470120704700280F
:1036500003D0007B082801D000207047012070476C
:10366000002803D0007B402801D0002070470120B3
:10367000704710B5016828208847040002D028212F
:10368000FDF7D3F8204610BD00221146AFF30080AD
:103690002DE9F04788B00C46054692461C21684645
:1036A000FDF7C3F831480026002D066046605AD069
:1036B00028460095FCF7D8FF401CDFF8B090CDE914
:1036C0000106D9E90212D9F810000491CDE90520CC
:1036D000B04609F10800FFF7CCFF06002BD0009898
:1036E0006F4608B1029808B100200CE00198042848
:1036F00008D903221EA10098FCF7D5FF10B9029843
:10370000C01C02903846FFF7F5FE0146304600F037
:1037100001FF68B1BAF1000F14D06846FFF7EAFE66
:10372000DDE90101814203D202990098405C48B171
:103730003046FFF749FFDDE90121404691420AD2B8
:1037400008460BE01CB102990098084420603046FE
:1037500008B0BDE8F087110000D0481E0CB1291850
:103760002160C9E900500020F2E700004C00002071
:10377000EFBBBF00014A002100F04ABF5400002007
:1037800001494968084700005400002070B50C4604
:1037900006000DD0FCF768FF401C236805469847DB
:1037A000040005D02A463146FCF7C8FF204670BD0C
:1037B000002070BD2DE9F04104001CD02268D2B178
:1037C000636813B1A068984215D24FF00046B14229
:1037D00011D2A568491C6818834202D35019BDE86C
:1037E000F081216939B9B0F1804F06D3B04202D2DD
:1037F0006FF0004602E00020F1E74600236A002750
:103800002BB1314610469847050012D00CE0A16953
:103810003046884705000CD0A2682168521CFCF78E
:103820008DFFE16920688847C4E90056A0682844F4
:10383000D5E7E1692068884767602760DBE700001B
:1038400010B5144600222260114A21F00043934231
:10385000A8BF10BD53EA000208BF10BDB3F5801F1A
:10386000A8BF226807DA362202F051FC6FF0350259
:1038700021F000432260DFF81CC06FF31E510CEBF7
:1038800023531A4441F0FF5141F00051226010BD12
:103890000000F07F02FCFFFF00EB400101EBC001E4
:1038A000154800EB41008188C28801F5FA71914208
:1038B000818802D201F5FA7107E0C28801F5C8716A
:1038C0009142818803D201F5C87141817047C28855
:1038D00001F596719142818802D201F59671F4E763
:1038E000C288C8319142818801D2C831EDE7C288CF
:1038F0009142EBD2C188E8E760000020002807D0A1
:10390000806801E00068491E002801D00029F9D133
:1039100070472DE9F041884628B1B8F1000F02D078
:10392000856822B90CE00020BDE8F0812D6835B330
:103930004046296AFCF7A0FF0028F7D11FE02D6858
:10394000EDB12E6A5FEA0804F9D0002EF7D0B44238
:1039500015D002E098B1641C761C2078FCF700FDBD
:1039600007463078FCF7FCFC87422078F2D0FCF761
:10397000F7FC04463078FCF7F3FC201ADFD1284628
:10398000D2E70000F8B501211C20FFF7EDF8012176
:103990004020FFF7D1F801208DF8020010208DF8AB
:1039A00003004CF204001F4DADF8000069462846A4
:1039B000FEF74DFF4FF4F0501B4EADF80000AC1475
:1039C00069463046FEF743FF4820184FADF8000027
:1039D00069463846FEF73BFF08213846FEF7B7FF39
:1039E00048208DF803004FF47060ADF80000694680
:1039F0003846FEF72CFF04208DF8030044F40050F5
:103A0000ADF8000069462846FEF721FF4CF204019C
:103A10002846FEF79CFF4FF4F0513046FEF797FF23
:103A2000F8BD0000000C01400008014000100140FA
:103A300000B585B06846FFF7A3F8019842F210710F
:103A4000B0FBF1F0B0F1807F0CD220F07F414FF05D
:103A5000E020491E4161044AF0211170002181617A
:103A60000721016105B000BD23ED00E070B5FFF74F
:103A70009FFD314C0546E08802F03DFAFFF768FDF6
:103A800002462EA12846FFF74DFD207802F033FABA
:103A9000FFF75EFD02462AA12846FFF743FDE078C6
:103AA00002F029FAFFF754FD024626A12846FFF747
:103AB00039FD607802F01FFAFFF74AFD024623A1A4
:103AC0002846FFF72FFDA07802F015FAFFF740FD1A
:103AD00002461FA12846FFF725FD2079A4F561665F
:103AE00000EB400036F8300002F005FAFFF730FD39
:103AF000024619A12846FFF715FD207900EB40008A
:103B000006EBC000408802F0F6F9FFF721FD0246FF
:103B100014A12846FFF706FD2846FFF72BFE0446B2
:103B20002846FFF751FD2046FFF77EF82046BDE806
:103B30007040FFF725BE00003E1B002064656C004E
:103B40006F6B0000616C61726D000000736967004B
:103B500073746279000000006F75745F74656D7036
:103B6000000000006F75745F690000002DE9F047E8
:103B7000FFF71EFD614C8146E08802F0BCF9FFF7BB
:103B8000E7FC02465EA14846FFF7CCFC607902F0F4
:103B9000B2F9FFF7DDFC02465AA14846FFF7C2FC26
:103BA000207902F0A8F9FFF7D3FC024656A1484657
:103BB000FFF7B8FC207802F09EF9FFF7C9FC024637
:103BC00052A14846FFF7AEFC607802F094F9FFF787
:103BD000BFFC02464EA14846FFF7A4FCA07802F0C5
:103BE0008AF9FFF7B5FC02464AA14846FFF79AFC5E
:103BF000E07802F080F9FFF7ABFC024647A14846A7
:103C0000FFF790FCFFF798FC8046024645A1484626
:103C1000FFF788FC0025A4F10A075CE0FFF7C8FC69
:103C20000646424805EB450100EBC104A08902F0BD
:103C300062F9FFF78DFC02463DA13046FFF772FCAA
:103C4000E07902F058F9FFF783FC024639A13046CB
:103C5000FFF768FC607A02F04EF9FFF779FC024644
:103C600035A13046FFF75EFCE08902F044F9FFF72A
:103C70006FFC024631A13046FFF754FC208A02F067
:103C80003AF9FFF765FC02462DA13046FFF74AFCE2
:103C9000608A02F030F9FFF75BFC024629A130464A
:103CA000FFF740FC207A02F026F9FFF751FC0246AC
:103CB00025A13046FFF736FCA07D02F01CF9FFF786
:103CC00047FC024621A13046FFF72CFC3146404616
:103CD000FFF726FC6D1C387AA8429FDC4846FFF7A8
:103CE00049FD04464846FFF76FFC2046FEF79CFF5F
:103CF0002046BDE8F047FFF743BD0000481B002009
:103D00007353560070776D0063660000735357005D
:103D10006353570064656C5F6D00000064656C5F01
:103D20007300000064617461000000002E0D00202B
:103D3000535600006D6F64006A6B00004968000014
:103D400041680000416C0000656E000076657200FD
:103D50002DE9F047FFF7F0FB81460025DFF8BC8036
:103D600049E0FFF725FC2E4F05EB4504064637F8E2
:103D7000340002F0C0F8FFF7EBFB024629A1304601
:103D8000FFF7D0FB07EBC404608802F0B4F8FFF73C
:103D9000DFFB024624A13046FFF7C4FBA08802F0F7
:103DA000AAF8FFF7D5FB024620A13046FFF7BAFB81
:103DB000E07902F0A0F8FFF7CBFB02461CA13046E9
:103DC000FFF7B0FBA07902F096F8FFF7C1FB0246BF
:103DD00018A13046FFF7A6FBA07A02F08CF8FFF797
:103DE000B7FB024614A13046FFF79CFB314648461C
:103DF000FFF796FB6D1C98F80800A842B1DC484616
:103E0000FFF7B8FC04464846FFF7DEFB2046FEF706
:103E10000BFF2046BDE8F047FFF7B2BC3E1B002079
:103E20002E0D002050560000490000006F757400F0
:103E30006D6F6400636F6400636865636B0000000E
:103E40002DE9F04106460C4640F2FF75174635EA6B
:103E5000145030D000221346304601F0E1FF2AD042
:103E60003A463046214602F052F906460C4635EAFB
:103E7000145010D000221346304601F0D1FF1AD161
:103E80000220FDF709FEFFF737FA0A46214662F3E2
:103E90001E01BDE8F0810220FDF7FEFD40F2013277
:103EA00000204FF0E04102F032F90A46214662F369
:103EB0001E01BDE8F08130462146BDE8F0810000DA
:103EC000FEF782FDFFF7B4FD01F050FEFFF75AFD4B
:103ED000264E0C200121307225480E228170C270BE
:103EE000017041704FF42F710620FEF735FD214F10
:103EF000214C002507F13008A07A012802D1A572D3
:103F0000FFF79CFA787801280FD0787E01280FD02F
:103F100098F800104046012910D0A08B44F620618B
:103F2000884213D3707968B10EE07D70114802E0C9
:103F30007D7610481830FEF7B1FEDDE70570FEF71C
:103F400043FFD9E7F08820B1C820A083608B18B167
:103F500004E001F01BFCF9E701F07CFB208B08B9C1
:103F600000F00CF8FEF714FDC6E700003E1B002031
:103F7000481B0020F8080020140000202DE9F05F05
:103F80000022534C104600EB400101EBC00114F835
:103F9000113003B1012204EB41014978012900D11C
:103FA0000122401C3C28EEDBDFF828A14A4D4B4F94
:103FB0004B4E4FF480414FF4004B4FF001084FF04F
:103FC0000009DAB130780028504602D0FEF7C1FC73
:103FD00001E0FEF7BCFC4FF480514248FEF7B7FC0D
:103FE00040214148FEF7B3FC59465046FEF7B1FC6C
:103FF0003078C043307085F8038022E05046FEF7E9
:10400000A6FC59465046FEF7A2FC85F80390F08BBB
:10401000E0B30022104600EB400107EBC101CB7D6D
:1040200013B1097A01B10122401C3C28F3DB72B3C1
:104030004FF480512B48FEF78CFC40212A48FEF7B4
:1040400086FC0122002000EB400107EBC101CB7D83
:1040500073B1097A61B100EB400101EBC00104EBDF
:104060004101CB888988591A6431C82900D90022B6
:10407000401C3C28E7DBF08B28B34FF0040150468E
:10408000EAB1FEF766FC85F800801CE000E00EE077
:1040900070784FF480510028124802D0FEF759FC86
:1040A00001E0FEF754FC7078C0437070C5E7402112
:1040B0000D48FEF74EFC4FF480510A48BFE7FEF76B
:1040C00046FC85F8009041F288303083BDE8F09FCF
:1040D00060000020000C01403E1B00202E0D00203F
:1040E0001400002000080140001001402DE9F041BB
:1040F00007460026C8680C463546B0F57A7F59D287
:10410000401CE0602168A068095C5B2952D1401C1A
:10411000A0602046FFF7EEF94CB1D4E901108842C7
:1041200003D22268125C5D2A33D0884203D3A06890
:10413000401EA0603EE0401E04F11008A060404612
:10414000FFF797FA88B30EB3286045600546A0686C
:10415000401CA0602046FFF7CDF92146284600F01C
:10416000D9F920B32046FFF7C5F904B3D4E901100B
:10417000884203D22168095C2C29E0D06268904211
:1041800015D22168085C5D2811D102E0064635464B
:10419000DDE7E068401EE0602020C7E90260A0681B
:1041A000401CA0600120BDE8F081FFE716B1304659
:1041B000FFF70AFA0020F6E7034610B50020024692
:1041C000995CA1F13004092C01D830380AE0A1F142
:1041D0004104052C01D8373804E0A1F16104052C15
:1041E00008D857380844032A00D20001521C042A78
:1041F000E6D310BD002010BD2DE9F04192B04FF084
:10420000000C05460C004FF02E076046CDF840C06C
:104210003CD02168D1B36E4627E022681144425C4D
:10422000342A1BD00ADCA2F12B01092922D2DFE8B3
:1042300001F015211517211515151500382A0DD077
:1042400006DC352A0AD0362A08D0372A12D105E0F2
:10425000392A03D0452A01D0652A0BD1325400E017
:104260003754401C3F2805D224B1A16863680A185E
:104270009A42D2D306F800C0B04610A9304601F0E9
:1042800077FA0F4610990646884503D1002012B0F0
:10429000BDE8F081124A134B30463946C5E906673E
:1042A00001F0C6FE02D86FF000400DE000220E4B78
:1042B0003046394601F032FE02D84FF0004003E0AC
:1042C0003046394601F0E8FD68610820E860109A40
:1042D000A168A2EB08000844A0600120D7E7000015
:1042E0000000C0FFFFFFDF410000E0C12DE9F04109
:1042F00007460026C8680C463546B0F57A7F76D268
:10430000401CE060002C72D0D4E9011088426ED2CB
:104310002168095C7B296AD1401CA0602046FFF718
:10432000E9F8D4E90110884203D22268125C7D2AA0
:104330004CD08842A0F10100A06058D204F11008CE
:104340004046FFF796F9E8B3F6B1286045600546A8
:10435000A068401CA0602046FFF7CCF82146284604
:1043600000F047F878B32046FFF7C4F828692862C0
:10437000002028613CB3D4E90110884234D221687E
:10438000095C3A2930D102E006463546E0E7401C98
:10439000A0602046FFF7AEF82146284600F0BAF8A4
:1043A00088B12046FFF7A6F8D4E90110884203D26D
:1043B0002168095C2C29C3D06268904214D221681C
:1043C000085C01E00FE00FE07D280DD1E068401EA1
:1043D000E0604020C7E90260A068401CA0600120A6
:1043E000BDE8F08103E016B13046FFF7EDF800209C
:1043F000F6E72DE9F84F8146D1F800C088684FF004
:10440000000A0CEB0008CDF800A01CF8000008F131
:1044100001050E462C465746222875D100217068AA
:1044200007E05C2B04D1521C824269D2491C641CF7
:10443000641CA4EB0C02824202D22378222BF0D11E
:10444000A4EB0C0282425BD22078222858D1A4EB44
:104450000800401A3169401C8847070054D0009773
:104460003DE029785C2905D000986D1C00F8011BFF
:10447000009034E00221601B012841DB6878662847
:1044800014D008DC22281DD02F281BD05C2819D07E
:10449000622835D108E06E280ED072280ED074281C
:1044A0000ED075282CD112E0082200E00C220098D2
:1044B00000F8012B009011E00A22F8E70D22F6E740
:1044C0000922F4E7009A02F8010B009206E06A461E
:1044D0002146284601F061FB010011D00D44A542A0
:1044E000BFD3009981F800A01021C9E903173068F3
:1044F000201A401CB0600120BDE8F88F04E0FFE7FF
:1045000017B171693846884715B13068281AB0600C
:104510000020F1E770B50C0005465ED02168002947
:104520005BD0A0686368021D9A4205D80844042243
:1045300031A1FCF7B8F878B3A0686268411D012684
:10454000914206D82168052208442DA1FCF7ABF85A
:1045500028B3A0686268011D914206D82168042230
:10456000084429A1FCF79FF8E8B1D4E90101814290
:1045700003D22268525C222A1DD0814221D22268B5
:10458000525C2D2A02D0303A092A1AD821462846F0
:10459000BDE87040FFF730BE0420E86006E0EE6042
:1045A000A068401D04E002206E61E860A068001D64
:1045B000A060012070BD21462846BDE87040FFF78D
:1045C00018BF814203D22268525C5B2A07D0814225
:1045D00003D22068405C7B2807D0002070BD2146B4
:1045E0002846BDE87040FFF781BD21462846BDE85A
:1045F0007040FFF77BBE00006E756C6C0000000021
:1046000066616C73650000007472756500000000DF
:10461000F0B589B00F460646144624216846FCF7DB
:1046200004F94FF480752168284688470597CDE93D
:10463000000594E8070006AB07C3009888B36946F5
:10464000304600F0F3F940B3684601F098FAA268EA
:1046500000263AB102990098491C904705001CD0E9
:10466000009617E002982168401C8847050014D086
:10467000DDE90110401C814201D20A4601E0029AA4
:10468000521C28460099FCF759F802982E5461688C
:1046900000988847284609B0F0BD009808B16168C5
:1046A00088470020F7E72DE9F04185680C000FD01E
:1046B00001212046FFF77EF800280AD05B21017017
:1046C000A068401CA060E068401C0027E06025E076
:1046D0000020BDE8F0812146284600F0A7F9002817
:1046E000F7D0204601F04BFA2868B0B1606908B1F4
:1046F000022600E00126711C2046FFF75BF8002827
:10470000E7D02C2100F8011B616911B1202100F8CC
:10471000011B0770A0683044A0602D68002DDAD11D
:1047200002212046FFF746F80028D2D05D21017013
:104730004770E068401EE0600120CAE72DE9F043C1
:104740008BB0D0E906675FEA01084FF000044FF034
:104750002E091DD032463B461DA16846FBF70EFED2
:10476000054608AA1CA16846FBF73CFF012806D1B4
:10477000DDE9080132463B4601F052FB06D03246E5
:104780003B4616A16846FBF7F9FD05461A2D03D3F3
:1047900000200BB0BDE8F083691C4046FFF70AF823
:1047A0000028F6D069462E2306E00A5D4A4501D16D
:1047B000035500E00255641CAC42F6D300210155BC
:1047C000D8F8080041190120C8F80810E1E70000F6
:1047D00025312E3135670000256C670025312E31DB
:1047E000376700002DE9F04785680C0003D0606949
:1047F00020B1022603E00020BDE8F0870126711CED
:104800002046FEF7D7FF0028F6D07B2100F8011BD9
:10481000E1684FF00A08491CE160616909B180F85C
:104820000080A0684FF0000930440927A06053E0E1
:1048300080B12046E168FEF7BDFF0028DCD00021F2
:1048400002E000F8017B491CE2688A42F9D8A068BE
:104850001044A0602146286A00F060F80028CBD000
:10486000204601F08CF9606908B1022600E00126BB
:1048700031462046FEF79EFF0028BDD03A2100F8C1
:10488000011B616901B10770A06821463044A06036
:10489000284600F0CBF80028AED0204601F06FF992
:1048A000606900B10120296801B101214618711C1D
:1048B0002046FEF77FFF00289ED0296811B12C21E9
:1048C00000F8011B616909B100F8018B80F80090C4
:1048D000A0683044A0602D686069002DA8D110B197
:1048E000E168491C00E002212046FEF763FF002832
:1048F00082D0616941B1002102E000F8017B491CCE
:10490000E268521E8A42F8D87D21017080F8019039
:10491000E068401EE06001206EE700002DE9F047EE
:104920000A0006464FF0000402D026B1014620E0FE
:104930000020BDE8F08703211046FEF73BFF00286A
:10494000F7D037A1FBF76CFE5AE00C2827D006DC25
:10495000082824D0092822D00A2806D11FE00D28D3
:104960001DD022281BD05C2819D0202800D2641D1D
:10497000491C08780028E8D1881B0719F91C104643
:10498000FEF718FF0500D4D04FF022084FF00009C1
:1049900085F800802CB16C1C4FF05C0A28E0641C88
:1049A000E6E73A463146681CFBF7C8FE23E01F28BD
:1049B00003D9222801D05C2830D104F801AB327829
:1049C00050460C2A23D006DC082A1ED0092A24D0FF
:1049D0000A2A06D11DE00D2A1DD0222A12D05C2AF7
:1049E0001CD010A12046FBF7C9FC241D761C641CBA
:1049F00030780028DBD1E81980F8018080F8029037
:104A0000012096E784F80080F0E7622006E0662047
:104A100004E06E2002E0722000E074202070E5E7E0
:104A200022220000752530347800000070B50400A3
:104A30000D4613D095B1207B102843D008DC012807
:104A400016D002281ED004280AD0082806D121E05A
:104A500020283CD040283FD0802820D0002070BDA6
:104A600005212846FEF7A6FE0028F8D01DA106E085
:104A700006212846FEF79EFE0028F0D01BA1FBF77A
:104A8000CFFD1DE005212846FEF794FE0028E6D064
:104A900018A1F4E72046BDE87040FFF74FBE20693B
:104AA0000028DCD0FBF7E0FD401C06460146284606
:104AB000FEF780FE0028D2D032462169FBF73EFE89
:104AC000012070BD2069BDE87040FFF727BF204678
:104AD000BDE87040FFF7E7BD2046BDE87040FFF736
:104AE00081BE00006E756C6C0000000066616C7326
:104AF00065000000747275650000000070B5FEF777
:104B0000C3FD0446FEF7ACFD00B329A12046FEF725
:104B100092FD0546FEF79BFDC0B16969102941D29F
:104B2000DFE801F040080B0E1115191D2125292D74
:104B30003135393DFEF79AFF34E0FFF717F831E0E1
:104B4000FFF706F92EE0204600F00EFC2AE0204692
:104B500000F086F926E0204600F0D8F922E0204651
:104B600000F0A4FB1EE0204600F082FA1AE0204686
:104B700000F0D8F816E0204600F0ECFA12E02046EB
:104B800000F02CFB0EE0204600F010F90AE0204671
:104B900000F010F806E0204600F068F802E0204639
:104BA00000F00EFA2046BDE87040FEF70DBD000093
:104BB000696400002DE9F0411EA423A1FEF73BFD2E
:104BC0000646FEF73BFD80B33046FEF727FD05465F
:104BD0001F48017AA94228D1002423E0214630460B
:104BE000FEF716FD0746FEF732FDD0B1B88A80B257
:104BF000A0F12901B1F5E67F13D2164904EB440276
:104C000001EB82010A22088104EB440101EBC40399
:104C1000114901EB4301CA74888201208874032082
:104C20004874641CAC42D9DB0CA42046BDE8F041BA
:104C3000FDF7FABF7B22616E73776572223A2265B7
:104C40007272227D00000000646174610000000047
:104C50003E1B00208E160020600000207B22616E2B
:104C600073776572223A226F6B227D002DE9F04145
:104C70001EA423A1FEF7DFFC0646FEF7DFFC80B38F
:104C80003046FEF7CBFC05461F48017AA94228D1E1
:104C9000002423E021463046FEF7BAFC0746FEF723
:104CA000D6FCD0B1B88A80B2A0F12901B1F5E67F77
:104CB00013D2164904EB440201EB82010B22488116
:104CC00004EB440101EBC403114901EB4301CA7435
:104CD00088820120887403204874641CAC42D9DBAC
:104CE0000CA42046BDE8F041FDF79EBF7B22616E1B
:104CF00073776572223A22657272227D000000008D
:104D000064617461000000003E1B00208E160020CC
:104D1000600000207B22616E73776572223A226FF9
:104D20006B227D002DE9F04114A419A1FEF783FC4C
:104D30000546FEF78CFCD8B1A88A0204120C01D0FB
:104D4000012A15D11449002001260523114D0327FE
:104D50000C7A0AE000EB400101EBC00105EB4101D8
:104D6000401CCB748A828E744F748442F2DC0BA494
:104D70002046BDE8F041FDF757BF00007B22616E81
:104D800073776572223A22657272227D00000000FC
:104D900063660000600000203E1B00207B22616EE5
:104DA00073776572223A226F6B227D002DE9F04104
:104DB0001DA422A1FEF73FFC0646FEF73FFC70B3A0
:104DC0003046FEF72BFC05461E48017AA94226D143
:104DD000002421E021463046FEF71AFC0746FEF784
:104DE00036FCC0B1B88A80B2411E9F2913D816493B
:104DF00004EB440201EB82010922C88004EB440168
:104E000001EBC403114901EB4301CA7488820120FC
:104E1000887403204874641CAC42DBDB0CA420467D
:104E2000BDE8F041FDF700BF7B22616E73776572CC
:104E3000223A22657272227D000000006461746172
:104E4000000000003E1B00208E16002060000020A5
:104E50007B22616E73776572223A226F6B227D002E
:104E60002DE9F05F1CA421A1FEF7E5FB8346FEF7C8
:104E7000E5FB58B35846FEF7D1FB05461D48017ABD
:104E8000A94223D1002401264FF00C09DFF86880E5
:104E90004FF0030A17E021465846FEF7B9FB0746D4
:104EA000FEF7D5FB70B1387D01280BD104EB44002F
:104EB00000EBC40108EB410181F813908E828E74DF
:104EC00081F811A0641CAC42E5DB0CA42046BDE8CF
:104ED000F05FFDF7A9BE00007B22616E73776572FB
:104EE000223A22657272227D0000000064617461C2
:104EF000000000003E1B0020600000207B22616E4D
:104F000073776572223A226F6B227D002DE9F041A2
:104F10001DA422A1FEF78FFB0646FEF78FFB68B3A8
:104F20003046FEF77BFB05461E48017AA94225D193
:104F3000002420E021463046FEF76AFB0746FEF7D4
:104F400086FBB8B1397D09B1012913D1164804EBAC
:104F5000440200EB82000422817004EB440000EB69
:104F6000C403124800EB4300C274818201218174A2
:104F700003214174641CAC42DCDB0DA42046BDE877
:104F8000F041FDF751BE00007B22616E73776572C0
:104F9000223A22657272227D000000006461746111
:104FA000000000003E1B00208E1600206000002044
:104FB0007B22616E73776572223A226F6B227D00CD
:104FC0002DE9F05F1DA422A1FEF735FB8346FEF715
:104FD00035FB68B35846FEF721FB05461E48017AAB
:104FE000A94225D100244FF00D081C4E4FF00109B5
:104FF0004FF0030A19E021465846FEF709FB074621
:10500000FEF725FB80B1B88A80B202280CD204EBEF
:10501000440101EBC40106EB410181F81380888251
:1050200081F8129081F811A0641CAC42E3DB0CA45F
:105030002046BDE8F05FFDF7F7BD00007B22616E02
:1050400073776572223A22657272227D0000000039
:1050500064617461000000003E1B002060000020BD
:105060007B22616E73776572223A226F6B227D001C
:105070002DE9F04100248046254625A629A1FEF70A
:10508000DAFA0746FEF7E3FA40B1B88A81B2264859
:10509000027A8A4202D9491ECCB2047123A1404649
:1050A000FEF7C9FA0746FEF7D2FA20B1B88A80B2F5
:1050B000642800D2C5B21EA14046FEF7BCFA0746DE
:1050C000FEF7C5FAF8B1B88A80B2E5B11A4A04EB26
:1050D000440102EBC101194AC9790123117007216A
:1050E00003220028164E04EB440000EBC40006EB3C
:1050F0004000C17403D005F50075858200E082820E
:10510000837442740FA63046BDE8F041FDF78CBDB4
:105110007B22616E73776572223A22657272227DFC
:1051200000000000636800003E1B00206F757400E3
:1051300073775F6F757400002E0D0020480000200B
:10514000600000207B22616E73776572223A226FC5
:105150006B227D002DE9F04114A419A1FEF76BFA32
:105160000546FEF774FAD8B1A88A0204120C01D0E1
:10517000012A15D11449002001260823114D0327C7
:105180000C7A0AE000EB400101EBC00105EB4101A4
:10519000401CCB748A828E744F748442F2DC0BA460
:1051A0002046BDE8F041FDF73FBD00007B22616E67
:1051B00073776572223A22657272227D00000000C8
:1051C00070776D00600000203E1B00207B22616E26
:1051D00073776572223A226F6B227D002DE9F05FB2
:1051E00025A42AA1FEF727FA8346FEF727FAC0B3C3
:1051F0005846FEF713FA05462648017AA94230D1EF
:105200000024A0F596670326DFF88C804FF0010993
:1052100024E021465846FEF7FBF98246FEF717FACE
:10522000D8B11C49BAF814000A3180B20979E9B141
:10523000A0F5826141F6D44291420ED804EB4401BC
:1052400027F8210004EB440101EBC40208EB420102
:10525000CE74888281F812904E74641CAC42D8DB04
:105260000EA42046BDE8F05FFDF7DEBCA0F5C871D6
:1052700041F20402E0E700007B22616E7377657201
:10528000223A22657272227D00000000646174611E
:10529000000000003E1B0020600000207B22616EA9
:1052A00073776572223A226F6B227D002DE9F047F9
:1052B0001FA424A1FEF7BFF98146FEF7BFF980B312
:1052C0004846FEF7ABF905462048017AA94228D1A5
:1052D0000024DFF87C80032620E021464846FEF7C4
:1052E00097F90746FEF7B3F9B8B1B88A194A04EB43
:1052F0004401000402EBC101000CC87504EB440139
:1053000001EBC40308EB43014FF00702CA740DD050
:1053100000208882012088744E74641CAC42DCDB5F
:105320000DA42046BDE8F047FDF77EBC8E82F1E774
:105330007B22616E73776572223A22657272227DDA
:105340000000000064617461000000003E1B00204A
:10535000600000202E0D00207B22616E7377657245
:10536000223A226F6B227D002DE9F04781460FF231
:10537000DC083AA1FEF75FF90446FEF768F930B39E
:10538000A08A41F6547182B2A2F5C87088421ED834
:10539000334E002006F561610623324D01274FF0A0
:1053A000030C0C7A11E000EB400106EBC101097A15
:1053B00051B100EB400101EBC00105EB4101CB74A1
:1053C0008A828F7481F811C0401C8442EBDC26A1D4
:1053D0004846FEF730F90546FEF739F9244C20B16E
:1053E000A88A80B23C2800D2A07022A14846FEF7CD
:1053F00022F90546FEF72BF920B1A88A80B23C2895
:1054000000D2E0701DA14846FEF715F90546FEF7EB
:105410001EF930B1A88A0004000C01D0012800D187
:10542000207018A14846FEF706F90546FEF70FF969
:1054300030B1A88A0004000C01D0012800D16070AE
:105440004046BDE8F047FDF7EFBB00007B22616EF0
:1054500073776572223A226F6B227D007353560078
:105460002E0D00206000002064656C5F6D00000060
:10547000481B002064656C5F7300000073746279E0
:105480000000000073796E63000000002DE9FC4706
:10549000DFF8B49005464FF480684FF4006A1E2888
:1054A00001D8414600E051464846FDF752FA002037
:1054B00001466E463154401C0628FBDB8DF8005037
:1054C000AA208DF8010002213046FDF79DF9010A5E
:1054D0008DF802108DF803001E2D4FF0000414D833
:1054E0001A4F315D3846FDF7EDFE80213846FDF755
:1054F0004CFE0028F9D0641C042CF2DB4021384615
:10550000FDF743FE0028F9D013E0114F315D384616
:10551000FDF7D8FE80213846FDF737FE0028F9D088
:10552000641C042CF2DB40213846FDF72EFE0028D7
:10553000F9D01E2D01D8414600E051464846FDF7FE
:1055400006FABDE8FC870000000801400044004066
:105550000038014000EB400303EBC0030748012281
:1055600000EB4300C2738181017C012901D000203E
:1055700070470021C1730174012070476000002052
:105580002DE9FC47DFF8C0900C4605464FF48068D3
:105590004FF4006A1E2801D8414600E051464846B3
:1055A000FDF7D7F9002001466E463154401C06280D
:1055B000FBDB8DF800505C208DF80100200A8DF88F
:1055C00002008DF8034004213046FDF71DF9010A61
:1055D0008DF804108DF805001E2D4FF0000414D82E
:1055E0001A4F315D3846FDF76DFE80213846FDF7D4
:1055F000CCFD0028F9D0641C062CF2DB4021384693
:10560000FDF7C3FD0028F9D013E0114F315D384696
:10561000FDF758FE80213846FDF7B7FD0028F9D088
:10562000641C062CF2DB40213846FDF7AEFD002855
:10563000F9D01E2D01D8414600E051464846FDF7FD
:1056400086F9BDE8FC8700000008014000440040E6
:10565000003801402DE9F041424C0026A08A401C50
:1056600081B2A182608A814200D3A682E18A491C6C
:1056700089B2E1823C2900D9E082A08A3A4D00EB50
:10568000400101EBC00105EB410101278A7C012AA1
:1056900020D0CA7B012A33D0401CC0B2FFF7F6FEEF
:1056A0003248618A007A884210D3E38A03EB4300D0
:1056B00000EBC30005EB4000817C01292ED0C17BAB
:1056C000012941D05B1CD8B2FFF7E0FE19206083AE
:1056D000BDE8F0818A8A401CC97CC0B200F0C6FADD
:1056E000A08A00EB400101EBC00005EB4000C6744E
:1056F0008682417C11B1491E4174D1E78674CFE79F
:10570000401C8989C0B2FFF73BFFA08A00EB400133
:1057100001EBC00005EB40000774C1E7828AC17C41
:105720005B1CD8B200F0A2FAE08A00EB400101EB6A
:10573000C00005EB4000C6748682417C11B1491E51
:105740004174C3E78674C1E781895B1CD8B2FFF757
:1057500017FFE08A00EB400101EBC00005EB4000C1
:105760000774B3E714000020600000203E1B0020F7
:1057700000B583B00A460021CDE900110146684614
:10578000FBF748FEDDE9000103B000BD2DE9F04361
:105790006E4D6F480023E98940781C4631B150B9FD
:1057A000A97841B10321A970EC7004E018B1AC7084
:1057B000EC706C722C84E881A978664F664E4FF0CD
:1057C000010869B3012972D002296FD003296AD177
:1057D000E87800EB400107EBC101CA7D002A7CD0CC
:1057E000097A002979D000EB400101EBC00106EBFA
:1057F00041018A88CB889A426FD2C988FFF7AAFEF6
:1058000000280CD0E87800EB400101EBC00106EB6A
:1058100041018A7B521CD2B28A73022A7ED08FE069
:10582000A94600283FD003EB430000EBC30006EB82
:10583000400103EB430207EBC2024C81D57D4DB121
:10584000127A3AB116F8100020B9487810B9184603
:10585000FEF722F85B1C9BB23C2BE4D34FF6FF73A0
:105860004A46A9F80C30002000EB400107EBC101CB
:10587000CD7D6DB1097A59B100EB400101EBC0015A
:1058800006EB4101498919B19589A94200D291815C
:10589000401C80B23C28E7D39089984203D282F81A
:1058A000028089F80340BDE8F08300E016E0E87864
:1058B00000EB400101EBC00106EB4101498921B138
:1058C000A989FFF747FE10B1E878401CE870E87836
:1058D0003C28E8D3EC7002202DE02FE0012103EBFF
:1058E000430007EBC000C27D9AB1007A88B103EB98
:1058F000430000EBC30016F8102052B906EB40003D
:10590000427832B9428922B18088AA89904200D275
:1059100000215B1C9BB23C2BE1D300E00DE009B100
:10592000AC70C0E7404685F80980298CB1F57A6FE4
:10593000B9D36C722C84A870B5E78C73401CE870E6
:10594000E8783C28AFD3EC70EAE7000014000020B0
:10595000481B00202E0D00206000002030B587B0CD
:10596000012144F20900FDF7FFF801210420FCF7B2
:10597000BBFF4020ADF8100003208DF81200182066
:10598000204C8DF8130004A92046FCF760FF80210D
:10599000ADF8101004218DF8131004A92046FCF76F
:1059A00056FF25208DF8140000248DF815400120A5
:1059B0008DF816008DF8170005A8FDF709F8124DAF
:1059C000012240F225512846FDF705FC4FF4E13055
:1059D0000090ADF808400C20ADF80440ADF80A0086
:1059E000ADF80640ADF80C4069462846FDF70CFCC2
:1059F00001212846FDF7BFFB40212846FDF7B2FBF9
:105A000007B030BD000C01400038014030B5012125
:105A100087B04804FDF79CF801210520FDF7A4F8A4
:105A20000424ADF8104003208DF812001820214DF9
:105A30008DF8130004A92846FCF709FF0821ADF8EA
:105A400010108DF8134004A92846FCF700FF26200B
:105A50008DF8140000248DF8154001208DF81600F3
:105A60008DF8170005A8FCF7B3FF134D012240F293
:105A700025512846FDF7AFFB4FF4E1300090ADF81B
:105A800008400C20ADF80440ADF80A00ADF806401F
:105A9000ADF80C4069462846FDF7B6FB01212846C3
:105AA000FDF769FB40F2E5512846FDF75BFB07B0C7
:105AB00030BD0000000801400044004030B5012125
:105AC00087B08804FDF744F801210920FDF74CF860
:105AD0004FF48060ADF8100003208DF812001820FC
