:020000040800F2
:10000000F006002001010008D92600088D24000810
:1000100015260008650C000837470008000000009E
:10002000000000000000000000000000492E000851
:100030009D160008000000009927000809310008FB
:100040001B0100081B0100081B0100081B01000820
:100050001B0100081B0100081B0100081B01000810
:100060001B0100081B0100081B01000825100008E7
:100070001B0100081B0100081B0100081B010008F0
:100080001B0100081B0100081B0100081B010008E0
:100090001B0100081B0100081B010008BD16000819
:1000A0001B0100081B0100081B0100081B010008C0
:1000B0001D3200081B0100081B0100081B0100087D
:1000C0001B0100081B0100081B0100081B010008A0
:1000D0001B010008054400081B0100081B01000863
:1000E0001B0100081B0100081B010008DFF80CD0F1
:1000F00000F0FEFB0048004789490008F006002098
:100100000648804706480047FEE7FEE7FEE7FEE7B1
:10011000FEE7FEE7FEE7FEE7FEE7FEE7BD3100088B
:10012000ED000008F0B480EA0102D40F4200B2EB07
:10013000410F02D20246084611464A0042D0C30D82
:10014000DDB2C1F3C752AD1A202D35DAC1F3160165
:1001500041F4000204B15242C5F1200602FA06F150
:100160002A411044B3EBD05F23D0C4B1012DA0EBE2
:10017000C35009DCF0BC4FF0004202EAC35200F564
:100180000000DBB200F0FCBA400000F1807000EB30
:10019000C350A0F1807040EAD170490009E04908DD
:1001A00041EAC071A0EBC35000F50000400800EB2D
:1001B000C350F0BC00F0DBBA6142012202EB410106
:1001C000001BF6E7F0BC704781F00041AAE780F021
:1001D0000040A7E780EA010210B502F000434000AA
:1001E00026D04A0023D04FEA106101EB1261C0F320
:1001F0005600C2F3560240F4000042F40002A0FB95
:100200000220A1F17F014FEA0040140401D000F167
:10021000010050EA124001D44000491EC2B20C064F
:1002200004EBD010401C4008802A02D003E00020DC
:1002300010BD20F00100002900DA0020184310BD95
:1002400030B480EA010202F0004530F0004221F0B3
:10025000004015D0A0B1C0F3C753C2F3C754C2F3D6
:100260001601C0F31600E41A41F4000140F4000244
:100270007D34914201D3641C00E04900002C02DA75
:1002800030BC002070474FF400000023914201D39E
:10029000891A034340084FEA4101F7D151B1914215
:1002A00002D14FF0004105E002D24FF0010101E020
:1002B0006FF0010103EBC450284430BC00F057BA82
:1002C0002DE9FE4F804681EA0300C00F0C460090E6
:1002D00021F0004123F00045B8EB0200A94105D20E
:1002E0004046214690461C460B46024623F00040FD
:1002F000104304D14046214603B0BDE8F08F270DDE
:10030000C7F30A00C3F30A510290401A0190402833
:1003100066DAC3F3130040F4801B0098924620B1C4
:100320000023D2EB030A63EB0B0B01985946C0F193
:100330004002504600F0EAF906460D46504659463E
:10034000019A00F002FA10EB08006141002487EAEC
:10035000115284EAE7731A433BD0009A3AB3019AE8
:10036000012A4FEA075210DC001B61EB02014FF03B
:10037000004202EA0752CDE90042001C41F580111B
:1003800032462B4600F036FAB6E7001B61EB02015D
:10039000001C41F5801300185B412018A2F50017DE
:1003A00047EB030140EAD570B6196D4111E06D08C5
:1003B0004FEA360645EAC0754FEA0752001B61EB6B
:1003C0000201001C41F5801149084FEA3000001974
:1003D000514132462B4603B0BDE8F04F00F0FDB965
:1003E0000098012240000023D0EB020263EBE0738F
:1003F000009821464FEAE074B8EB000061EB04017D
:10040000E9E783F000435BE781F0004158E72DE91D
:10041000FE4F81EA030404F0004421F000410094FF
:100420004FF0000B23F0004350EA010402D052EADF
:10043000030404D10020014603B0BDE8F08FC3F3EC
:100440000A54C1F30A552C44A4F2F3340194A0FBDE
:100450000254C1F3130141F48011C3F3130343F4B5
:10046000801301FB024400FB034E840A970A44EA0E
:10047000815447EA8357A4FB076802958D0A05FB60
:1004800007854FEA932C04FB0C542705029D4FEA85
:10049000065847EA1637B5EB08056EEB070C870ED2
:1004A000920E47EA811742EA8312A7FB0201B6EBDC
:1004B0000B0164EB00042B0D43EA0C335E1844EB94
:1004C0001C50DA465146E7FB0201C5F313044FEA1C
:1004D0000B3343EA14534FEA0432019C43EA060308
:1004E000A4F10C040294009CCDE900B400F082F960
:1004F000A2E72DE9F04D81EA030404F0004B21F05E
:10050000004514464FF0000A23F0004150EA05026E
:1005100020D054EA01021DD0C5F30A570246C5F3A4
:100520001303C1F31300C1F30A5640F4801543F4DA
:100530008013A7EB0608101BD64608F2FD3873EBB4
:10054000050002D308F1010801E092185B41B8F1FF
:10055000000F03DA00200146BDE8F08D00204FF4C3
:100560008011064684460EE0171B73EB050705D382
:10057000121B63EB050306434CEA010C49084FEAE2
:10058000300092185B4150EA0107EDD152EA0300B6
:1005900012D082EA040083EA0501084303D1002255
:1005A0004FF0004308E0101BAB4102D201220023B0
:1005B00002E06FF0010253101AEB06004CEB0851F9
:1005C00010EB0A0041EB0B01BDE8F04D00F005B95E
:1005D000C10F80EAE0700844CA079623002100F0AA
:1005E000CFB80EB5C10F80EAE0700844CA070021F9
:1005F00040F233438DE80E000A460B4600F0FAF84D
:1006000003B000BD0EB540F2334102910021CDE9A7
:1006100000110A460B4600F0EDF803B000BD20F0D3
:100620000040C10DC0F3160040F400007F2901DA3C
:1006300000207047962903DCC1F19601C84070473D
:1006400096398840704770B5C1F30A5201F00045F1
:100650000024C1F3130140F2FF3341F480119A42A8
:1006600001DA002070BD40F233439A42A2F23342D5
:1006700003DC524200F059F800E090402C43F1D0E6
:10068000404270BD00F0004230F000400AD0C10D81
:1006900001F56071C0F3160042EA0151C20840073B
:1006A0001143704700200146704701F0004330B409
:1006B00021F0004150EA010206D00A0DA2F5607255
:1006C000C1F31301002A02DC30BC00207047440F44
:1006D00044EAC104C100E01830BC00EBC25000F095
:1006E00046B80000002801DBC0F10040002901DB12
:1006F000C1F1004181427047002801DBC0F1004098
:10070000002901DBC1F1004188427047202A04DB47
:10071000203A00FA02F1002070479140C2F1200314
:1007200020FA03F3194390407047202A04DB203A53
:1007300021FA02F00021704721FA02F3D040C2F101
:1007400020029140084319467047202A06DBCB1748
:10075000203A41FA02F043EAE07306E041FA02F37C
:10076000D040C2F120029140084319467047002949
:10077000A8BF7047401C490008BF20F00100704727
:1007800010B4B0FA80FC00FA0CF050EA010404BF87
:1007900010BC704749B1CCF1200421FA04F411FADD
:1007A0000CF118BF012121430843A3EB0C01CB1D21
:1007B0000106000A002BBEBF002010BC704700EBF2
:1007C000C35010440029A4BF10BC7047401C49000E
:1007D00008BF20F0010010BC704710B5002B08DAEC
:1007E000401C41F1000192185B411A4301D120F0F5
:1007F000010010BD2DE9F04D92469B4611B1B1FAB2
:1008000081F202E0B0FA80F220329046FFF77EFFDC
:1008100004460F4640EA0A0041EA0B0153465A4695
:10082000084303D120463946BDE8F08D114653EA0E
:10083000010015D0C8F140025046FFF776FF05468B
:100840000E46504659464246FFF760FF084301D026
:10085000012000E00020054346EAE0762C433743C0
:100860000A984FEA4453A0EB08004FEAD4240A3018
:100870004FF0000244EA47544FEAD72502D5002042
:100880000146D1E7010510196941DDE90845001964
:100890006941BDE8F04DA0E770B521F00043034386
:1008A0000CD0C1F30A550024D5EB040564EB040316
:1008B000D617AD1AB34102DB0020014670BD2018E7
:1008C00041EB025170BD000030B5002904DB4FF050
:1008D0000044404264EB0101002B04DB4FF0004474
:1008E000524264EB0303994208BF904230BD0000BE
:1008F000064C074D06E0E06840F0010394E807006D
:1009000098471034AC42F6D3FFF7F4FBB86D0008FB
:10091000D86D00082DE9F04D00231A461B1A8A41B4
:1009200003DB00200146BDE8F08DC1F30A52C1F39C
:10093000130141F480154FF0000BD10702D10018CC
:100940006D41521E0027044640F2FF11384601EB6C
:10095000620A3E468046024600204FF48011FFF7AF
:10096000E4FEC2197141BB1846EB0100B4EB030C65
:1009700075EB000C04D3E41A65EB000517460E4630
:10098000241908F101006D4180463428E3DDF9198E
:1009900046EB0600091BA84103D24FF0FF32134675
:1009A00001E0002213461BEB070046EB0A51BDE8AD
:1009B000F04DFFF712BF21B1826842F00102826060
:1009C00003E0826822F001028260704700B585B0C2
:1009D00001214FF4017001F011FF0020009001206F
:1009E0008DF804008DF805004FF46020029000207F
:1009F000039003208DF810006946184800F050F865
:100A0000062301220321154800F072F80623022272
:100A10000421124800F06CF80623032205210F4838
:100A200000F066F801210D4800F01AF801210B488A
:100A3000FFF7C1FF094800F0B7F800BF074800F012
:100A400024F80028FAD1054800F0BEF800BF03489A
:100A500000F011F80028FAD105B000BD00240140D3
:100A600021B1826842F48072826003E0826822F4DD
:100A7000807282607047014600208A6812F0040F7D
:100A800001D0012000E000207047014600208A6864
:100A900012F0080F01D0012000E000207047000094
:100AA00030B502460020002350680F4C20400D79DD
:100AB0000C6844EA05242043506090680B4C2040A9
:100AC000D1E902542C434D7944EA45042043906017
:100AD000D06A20F470000C7C641EE4B2234340EA28
:100AE0000350D06230BD0000FFFEF0FFFDF7F1FFC4
:100AF000F0B504460D4600200021092D11DDE06807
:100B0000A5F10A0606EB4607072606FA07F1884311
:100B1000A5F10A0606EB460603FA06F10843E06073
:100B20000CE0206905EB4507072606FA07F1884324
:100B300005EB450603FA06F108432061072A0FDAA0
:100B4000606B561E06EB86071F2606FA07F18843E0
:100B5000561E06EB860605FA06F10843606322E09E
:100B60000D2A0FDA206BD61F06EB86071F2606FA22
:100B700007F18843D61F06EB860605FA06F10843FF
:100B8000206310E0E06AA2F10D0606EB86071F263F
:100B900006FA07F18843A2F10D0606EB860605FA70
:100BA00006F10843E062F0BD816841F00801816010
:100BB000704721B1826842F4A002826003E082683B
:100BC00022F4A00282607047816841F004018160D4
:100BD0007047000070B502F09BFA4FF4A06001F07E
:100BE000B7FD00F0BFFE03F0D1FB00F03FFE00F0C8
:100BF0005DFAFFF7EBFE01211648FFF7DAFF04F07C
:100C0000F1FE1548006842F21072B0FBF2F1B1F14A
:100C1000807F00D31DE021F07F40401E4FF0E02296
:100C2000506150170F22002807DA13071D0E0B4BD7
:100C300000F00F04241F1D5503E013071C0E084B82
:100C40001C5400BF00204FF0E0229061072010618B
:100C500000BF70BD002401408400002018ED00E0BA
:100C600000E400E000BFFEE7D0E90021914211DD81
:100C70000268816891420DDDD0E90112914202DDE6
:100C80008168016001E0416801600121134A82F836
:100C9000291021E0D0E90012914211DD826801683B
:100CA00091420DDDD0E90112914202DD41680160FF
:100CB00001E0816801600021084A82F829100BE0F8
:100CC000D0E90012914207D182680168914203D1B4
:100CD0000321024A82F8291070470000A401002075
:100CE0002DE9FC5F8046894617469A460020019010
:100CF000002502200090002614E13C46FF2C02DC77
:100D0000A020019028E0B4F5007F02DAA220019033
:100D100022E0B4F5407F02DAA42001901CE0B4F593
:100D2000806F02DAA620019016E0B4F5A06F02DA17
:100D3000A820019010E0B4F5C06F02DAAA2001905B
:100D40000AE0B4F5E06F02DAAC20019004E0B4F5FB
:100D5000006F01DAAE200190464609F0FF0B002536
:100D6000BAF1000F5BD052E0FF2C02DCA020019012
:100D700028E0B4F5007F02DAA220019022E0B4F569
:100D8000407F02DAA42001901CE0B4F5806F02DA03
:100D9000A620019016E0B4F5A06F02DAA820019019
:100DA00010E0B4F5C06F02DAAA2001900AE0B4F5B1
:100DB000E06F02DAAC20019004E0B4F5006F01DAD4
:100DC000AE20019002F0E6F8019802F03FF801F041
:100DD000CBFD2844C5B2E0B202F038F801F0C4FD02
:100DE0002844C5B202F0D6F80199491CC8B202F0F5
:100DF0002DF801F0B9FD2844C5B201F0E1FD06F877
:100E0000010B601C84B201F0ADFC02F013F95FEA43
:100E10000B00ABF1010101F0FF0BA5D180E002F066
:100E2000B9F82844C5B2019802F010F801F09CFD11
:100E30002844C5B2E0B202F009F801F095FD28445B
:100E4000C5B204203D49086053E016F8010B01F0DB
:100E5000FDFF01F089FD2844C5B2601C84B2E11792
:100E600004EB11710911B4EB011142D102F0E2F867
:100E70000A2000F014FCFF2C02DCA020019028E0E6
:100E8000B4F5007F02DAA220019022E0B4F5407FA1
:100E900002DAA42001901CE0B4F5806F02DAA620EB
:100EA000019016E0B4F5A06F02DAA820019010E0DE
:100EB000B4F5C06F02DAAA2001900AE0B4F5E06F41
:100EC00002DAAC20019004E0B4F5006F01DAAE2044
:100ED000019002F05FF8019801F0B8FF01F044FDC5
:100EE0002844C5B2E0B201F0B1FF01F03DFD284455
:100EF000C5B2ABF10100C0B25FEA000BA5D116F894
:100F0000010B01F0A3FF01F02FFD2844C5B202F050
:100F100091F804200949091F08600A2000F0BFFB6E
:100F200005B906E00098411EC9B2009100287FF47F
:100F3000E4AE00BFB0462846BDE8FC9F140801405F
:100F400030B5034613B94FF6FF7024E0D2B16429DF
:100F500009D140F2E734E41A0F4D35F8244004F586
:100F60004874A0B217E040F2E734E41A0A4D55F88D
:100F7000244004F5487404EB84040625B4FBF5F41E
:100F8000A0B208E040F2ED34E41A4C434FF47A7515
:100F900094FBF5F4A0B230BDEC59000818B5024638
:100FA0000B464FF6FF70009010E012F8010B9DF811
:100FB000004080EA04019DF80100094C645C604037
:100FC0008DF800000748405C8DF801001800A3F17F
:100FD0000104E3B2E9D1BDF80040204618BD00008D
:100FE000286B0008286C000801460C4A1160002399
:100FF0000B4AC2F8CC300022094BA3F8E02000BF16
:10100000064A1268002AFBD1054AD2F8CC20044BCC
:10101000B3F8E030B2FBF3F290B270471C0000204E
:101020009C0000201948D0F8C4001849B1F8BE103F
:1010300008441649C1F8C4000846D0F8C810B0F8F2
:10104000C00001441148C0F8C810D0F8CC10B0F866
:10105000C20001440D48C0F8CC10B0F8DC00401CC0
:101060000A49A1F8DC000846B0F8DE00401CA1F8EF
:10107000DE000846B0F8E000401CA1F8E00004489B
:10108000406840F001000249486070479C00002021
:101090000000024021B1026842F00102026004E057
:1010A00002684FF6FE731A400260704700B58DB0BB
:1010B0000121084601F072FB1A4800F039F81A487D
:1010C00002901A480390002004900320059000200D
:1010D0000690802007904000089080000990202012
:1010E0000A9000020B9000200C9002A90D4800F01D
:1010F000CEF80B208DF8040001208DF805008DF846
:1011000006008DF8070001A801F0E8FA012202218B
:10111000044800F0B3F801210248FFF7BBFF0DB00F
:1011200000BD0000080002404C2401405A0100208C
:1011300001684FF6FE7211400160002101604160BC
:101140008160C1604B49884208D14A4908394968E1
:1011500041F00F01474A083A51608AE0454914318D
:10116000884208D143490839496841F0F001414AB1
:10117000083A51607DE03F492831884208D13D4915
:101180000839496841F470613A4A083A516070E0A0
:1011900038493C31884208D136490839496841F418
:1011A0007041344A083A516063E032495031884214
:1011B00008D130490839496841F470212D4A083A6C
:1011C000516056E02B496431884208D129490839D9
:1011D000496841F47001274A083A516049E02549BD
:1011E0007831884208D123490839496841F0706153
:1011F000204A083A51603CE01F49884206D1011F4D
:10120000096841F00F01021F116032E01A491431E0
:10121000884208D11849091F096841F0F001164AAF
:10122000121F116025E014492831884208D1124963
:10123000091F096841F470610F4A121F116018E01C
:101240000D493C31884208D10B49091F096841F416
:101250007041094A121F11600BE007495031884262
:1012600007D10549091F096841F47021024A121F7C
:101270001160704708000240080402401AB1036878
:101280000B43036002E003688B430360704710B5B3
:101290000022026847F6F0739A430C6A8B68234376
:1012A0000C6923434C6923438C692343CC69234352
:1012B0004C6A23438C6A23431A430260CB68436021
:1012C0000B6883604B68C36010BD00002DE9F04FD0
:1012D00097B007460D4614461E46DDF88090301B39
:1012E00001D4014600E0414207F164025143C822A3
:1012F00091FBF2F8B44204DDA54202DD4FF0000894
:1013000005E0B44203DAA54201DA4FF00008B8F56F
:101310007A7F14DA4046FFF764F9AE4AAE4BCDE966
:101320000E0103F0CFFB0022AC4BCDE91001FFF71B
:101330006BF8CDE91201FFF786F9824610E0A8F5B7
:101340007A70FFF74EF90022A54BCDE9100103F0AA
:10135000B9FB81F00041CDE91201FFF774F9824633
:101360000AF5FA5840F6B830804500DA804608FBA6
:1013700007F014909B48006815909B4908EB01000A
:10138000FFF726F91290601B139001D4139901E026
:10139000139949420846FFF71BF90790FFF772F9C6
:1013A000924A934BCDE9080103F08CFBCDE90C0187
:1013B000904907FB01F0FFF714F9CDE90A01DDE9D7
:1013C0000C23FFF724F8CDE90E01FFF76EF9119019
:1013D0001299FEF735FF83490860AC4204DA0846EB
:1013E000006880F00040086083491598FEF7F2FE1F
:1013F00012907C4801681298FEF794FE7F49139082
:10140000FEF71EFF77490860764815990068FEF7D9
:10141000DBFE8346B14506DDA54204DDB8F1000FD1
:1014200001DD4FF00008A6EB090AB6EB090001D474
:10143000014600E041428A464E453FDD07F1280063
:10144000032190FBF1F038440990FFF7CAF8CDE989
:101450000C013846FFF7C5F8CDE908015046FFF703
:10146000B7F80190FFF70EF94FF06632644BCDE903
:10147000020103F027FB0022624BCDE90401FEF7D5
:101480001FFFCDE90601DDE90823FEF7C0FFCDE926
:101490000A01DDE90C23FFF72CF8CDE910015846CD
:1014A000FFF7F0F8CDE90E01DDE91023FEF708FFA4
:1014B000CDE91201FFF7F9F8834640E04E453EDAE8
:1014C00007F12800032190FBF1F038440990FFF761
:1014D00088F8CDE90C013846FFF783F8CDE908011B
:1014E0005046FFF775F80190FFF7CCF84FF06632E1
:1014F000434BCDE9020103F0E5FA0022424BCDE96E
:101500000401FEF781FFCDE90601DDE90823FEF7BE
:101510007EFFCDE90A01DDE90C23FEF7EAFFCDE904
:1015200010015846FFF7AEF8CDE90E01DDE91023B2
:10153000FEF7C6FECDE91201FFF7B7F88346AC42CD
:1015400022DB1498FFF74DF8CDE90E01601BFFF781
:1015500048F84FF033322D4BCDE90A0103F0B2FACF
:10156000CDE90C01DDE90E23FEF751FFCDE91001B5
:10157000FFF79BF826491290FEF762FE594613903A
:10158000FEF7D0FD834621E01498FFF72AF8CDE955
:101590000E01281BFFF725F84FF033321B4BCDE926
:1015A0000A0103F08FFACDE90C01DDE90E23FEF705
:1015B0002EFFCDE91001FFF778F816491290FEF7DB
:1015C0003FFE59461390FEF7ADFD8346584617B0CF
:1015D000BDE8F08FD7A3703D0AD7F33F0078B44041
:1015E0000000F03F30000020A08601009A999999F0
:1015F0009999E93FC0C62D000000A0400000C040FE
:101600006666EE3F00002440000024C03333F33F01
:1016100000606A4600606AC610B5002400211E48BA
:1016200001834FF4487141870021C1864FF47A71DC
:1016300001871421018601218182418340F2DC511E
:1016400081834FF4FA61C187C18589100184418487
:10165000A02181840221C18401210185C821418505
:10166000012181850021C18300BF08E0002204F12F
:101670001B0009490E3121F81020601CC4B2142C43
:10168000F4DBAA200449C88100231A4664210248D9
:101690000E30FFF725FB10BD9C000020704701466F
:1016A00005E0002001E0421CD0B2FF28FBDB0A006D
:1016B000A1F1010399B2F4D17047000010B563485D
:1016C000006810F0400F7DD04020604908606048FD
:1016D000C08A18B15F480078642831DA5C48B0F9F4
:1016E000820040F2E731884224DA4FF08040808A5D
:1016F00040F001004FF080418882554AB2F8EC106A
:10170000B2F8822090B20122FFF71AFC4FF080411C
:1017100088854FF6FE7008824D48B0F8820020B1EF
:101720000846008840F0010008804FF480704A4964
:10173000086037E04FF480704749091F086031E0C6
:101740004348B0F8EE0078B9414AB2F8EC10B2F86C
:10175000822090B20022FFF7F3FB3D49A1F8F2008E
:101760004FF480703C4908603948B0F8EE10B0F88A
:10177000EE00401C364AA2F8EE001046B0F8F20027
:10178000814204D14FF480703349091F08604FF043
:101790008040808A40F001004FF0804188824FF6FF
:1017A000FE7008822A4890F8EA0064284CDA28483B
:1017B00090F8E800401CC0B2254981F8E8000A28EA
:1017C00042D100E040E0084690F8EA000A2810DD27
:1017D000B1F8E410214A92FBF1F11D4AB2F8EC2075
:1017E000881800EBD071C1F34F01194AA2F8EC1030
:1017F00008E01748B0F8E400184991FBF0F01449EC
:10180000A1F8EC001248B0F8EC006E2804DC64206B
:101810000F49A1F8EC0003E078200D49A1F8EC0095
:101820000B48B0F8EC00052190FBF1F00849A1F855
:10183000F600084690F8EA00401C81F8EA00002013
:10184000A1F8E40081F8E80010BD00001404014094
:101850009C00002013000020140C0140A086010011
:101860000149086070470000140401400EB50121D1
:10187000084600F0C3FF0621002000F013F94020C5
:10188000FFF7EEFF4020019000208DF808000820AF
:101890008DF8090001208DF80A0001A800F018F861
:1018A0000A48006820F040000849086017208DF8B9
:1018B000000000208DF8010001208DF802008DF855
:1018C0000300684600F00AFF0EBD0000040401405A
:1018D000002123498279002A3AD00A461268036817
:1018E0009A430B461A600A1D126803689A430B1D3F
:1018F0001A60027911440A6803681A430A60184A98
:101900000832126803689A43154B08331A601A1D8F
:10191000126803689A43124B0C331A604279102AFA
:101920000ED11A1F126803681A430D4B08331A6050
:101930001A1D126803681A43094B0C331A600DE034
:101940000749427911440A6803681A430A6005E0AE
:10195000027911440A6803689A430A6070470000DC
:101960000004014008B50121084600F047FF48483F
:10197000406800F0E060464948600846406840F032
:10198000007048600121082000F038FF02208DF827
:1019900002004FF4C850ADF8000010208DF803008D
:1019A00069463C4800F09EF840F23E60ADF8000009
:1019B00048208DF803006946364800F093F801216D
:1019C000042000F01BFF0720ADF8000014208DF864
:1019D00003006946304800F085F83820ADF8000073
:1019E00000208DF8030069462B4800F07BF84FF487
:1019F0000640ADF8000048208DF8030069462648EF
:101A000000F070F84FF48650ADF8000004208DF817
:101A100003006946204800F065F84FF41060ADF807
:101A2000000010208DF8030069461B4800F05AF8AA
:101A30000121102000F0E2FE4FF6FF70ADF800002B
:101A400010208DF803006946144800F04BF8072178
:101A5000114800F01BF90121202000F0CFFE0420E6
:101A6000ADF8000048208DF8030069460C4800F0EE
:101A700039F84FF48051074800F006F94FF48071AF
:101A8000044800F001F90021044800F001F908BD04
:101A900000000140000C014000080140001001401E
:101AA0000014014030B500228B071C0F0F2303FAEE
:101AB00004F20B4B8C1053F824309343084C8D10D8
:101AC00044F8253023468C1053F824308C07240F1B
:101AD00000FA04F42343024C8D1044F8253030BD45
:101AE000080001402DE9F0410246002500260020B3
:101AF00000230024002791F803C00CF00F0591F893
:101B000003C01CF0100F03D091F802C04CEA050589
:101B100091F800C0BCF1000F31D0146800202BE018
:101B20004FF0010C0CFA00F3B1F800C00CEA030608
:101B30009E4220D183004FF00F0C0CFA03F7BC43F8
:101B400005FA03FC4CEA040491F803C0BCF1280F29
:101B500006D14FF0010C0CFA00FCC2F814C00AE0E8
:101B600091F803C0BCF1480F05D14FF0010C0CFAFD
:101B700000FCC2F810C0401C0828D1D31460B1F892
:101B800000C0BCF1FF0F34DD546800202EE000F1EE
:101B9000080C4FF0010808FA0CF3B1F800C00CEA89
:101BA00003069E4221D183004FF00F0C0CFA03F77D
:101BB000BC4305FA03FC4CEA040491F803C0BCF1F1
:101BC000280F05D100F1080C08FA0CF8C2F81480AF
:101BD00091F803C0BCF1480F07D100F1080C4FF099
:101BE000010808FA0CF8C2F81080401C0828CED36F
:101BF0005460BDE8F0810000F0B50A4600230024DF
:101C00000021002500F00046B6F1004F02D11D4E24
:101C1000F16901E01B4E7168C0F3034583B200F423
:101C20004016B6F5401F08D121F07061154E766858
:101C300026F07066134F7E6012E000F48016B6F551
:101C4000801F06D1032606FA05F4A14341F0706116
:101C500006E0460D360103FA06F6B14341F0706125
:101C600022B1460D360103FA06F6314300F0004674
:101C7000B6F1004F02D1034EF16101E0014E7160F7
:101C8000F0BD0000000001404161704701617047F4
:101C9000C160704710B5014600223148314B1B68C6
:101CA00050F8230088421CD300BF17E02D4800687D
:101CB000202803D12A48D0F8801011E02848294B69
:101CC0001B6850F82300884205D326480068401C52
:101CD000244B186000E003E0501C42B2212AE5DBEF
:101CE0001EE0002214E01E481E4B1B6850F8230023
:101CF000884205D81B480068401E1A4B186000E057
:101D000008E018480068012800D103E0501C42B2E6
:101D1000212AE8DB00BF13480068401C114B186003
:101D200010480068401E0E4B53F820000D4C2468EC
:101D300053F82430C31A0A480A4C246850F8240087
:101D4000081A4FF4FA746043B0FBF3F305480068D7
:101D50006043A0F598508838C11A08B210BD000041
:101D6000A46A00082800002030B5044600230CB9FE
:101D70000B4B00E00B4B33F81250501E33F81000A1
:101D8000281A4FF47A7555436D1A68434FF47A75E3
:101D900090FBF5F033F81250281A01B2084630BD16
:101DA0008C690008186A000870B50B460BB93149F8
:101DB00000E03149314C246831F81440844222DC7F
:101DC00000221DE02D4C246831F81440844205DCCB
:101DD0002A4C2468641C294D2C6005E0274C24689B
:101DE000641E264D2C600DE0244C2468452C05DD36
:101DF000B1F88A004524214D2C6003E0541CE2B266
:101E0000462ADFDB1BE0002216E01C4C2468012C74
:101E100003DA0124194D2C6010E0184C246831F8C5
:101E20001440844205DB154C2468641E134D2C605D
:101E300000E003E0541CE2B2462AE6DB00BF0F4C90
:101E4000246831F814500D4C2468641E31F8144095
:101E50002D1B0A4C246831F81440241A42F21076E3
:101E6000744394FBF5F5054C246836117443C5EBB7
:101E7000041070BD8C690008186A00082C0000204E
:101E80002DE9F0412348D0F8CC002249B1F8E01008
:101E90004900B0FBF1F084B2072C01DA002401E024
:101EA000E01F84B2B4F5E17F0FDA2046FEF7AAFB0B
:101EB0000546194A194BFEF7AAFA0746FEF7C3FB77
:101EC00001B21448A0F880100EE02046FEF79AFBFD
:101ED0000546134A134BFEF79AFA0746FEF7B3FB83
:101EE00001B20C48A0F880100A48B0F98000B0F5A3
:101EF000E16F04DD4FF4E1610648A0F88010002195
:101F00000448C0F8CC1000200249A1F8E000BDE868
:101F1000F08100009C000020713D0AD7A370F53FBE
:101F20005C8FC2F5285CF33F2DE9F04106460024A2
:101F3000002500274948D0F8C850B0F8DE70642F5B
:101F400005DD0021A0F8DE10C0F8C81001E0BDE8F2
:101F5000F08195FBF7F54148B0F93A00684300EB92
:101F60008000400040F61E41491B90FBF1F5002423
:101F700006E0601C36F8100026F81400601C44B21D
:101F8000092CF6DB2846FFF785FE7082718A3348FC
:101F9000A0F87C100025002404E036F91400054464
:101FA000601C44B20A2CF8DB0A2095FBF0F52B48A4
:101FB000B0F97A00A84208DA2848B0F87A00801C04
:101FC00001B22648A0F87A100CE02448B0F97A0053
:101FD000A84207DD2148B0F87A00801E01B21F48F0
:101FE000A0F87A101D48B0F97A0041F69021884295
:101FF00003DD1A48A0F87A100AE01848B0F97A0010
:1020000010F5FA6F04DA4FF630011448A0F87A1090
:102010001248B0F97A00002812DD1048B0F97A00B1
:102020004FF47A7190FBF1F044B20C48B0F97A00A9
:1020300090FBF1F201FB120018B1601C44B200E009
:102040000124E2B2054BB3F97A10B3F91000FFF79F
:102050008BFE0249C1F8D00000BF78E79C00002049
:102060002DE9F04F89B006460020089005900690B3
:10207000079000258346002481468246F148D0F827
:10208000C490B0F8DCA0BAF1640F06DD0020ED4981
:10209000A1F8DC00C1F8C40002E009B0BDE8F08F8F
:1020A00099FBFAF0E749A1F8B0000846B0F936000C
:1020B00000FB0AF4A14502DDA9EB040901E04FF0A1
:1020C00000094FEA0A30FEF783FADE490490B1F9BD
:1020D0003800FEF77DFA03904846FEF779FA4FF094
:1020E00084410190FEF776F802900399FEF772F8AA
:1020F00080460499FEF7A4F80746FEF790FAD14906
:10210000C1F8D4000846D0F8D400D1F8D010441853
:10211000002506E0681C56F8200046F82500681CDB
:1021200045B2042DF6DBC748B0F910102046FFF782
:102130003BFE30610024002504E056F825000444ED
:10214000681C45B2052DF8DB322094FBF0F4BD4845
:10215000C0F8A0400146D1F8A810601A01D4014689
:1021600000E04142042902DDB648C0F8A840B54865
:10217000B0F97840D0F8A8000A2190FBF1F001B244
:10218000B048A0F878100146B1F97410081B01D4CA
:10219000014600E041420C46642C00DD64244FFA05
:1021A00084FBA84890F8E200042833D1A548B0F990
:1021B0003E00A549B1F90010884206D00120A3498C
:1021C00008700020A249087027E09E48B0F93E0040
:1021D000A049B1F90010884206DC9A48B0F978109D
:1021E000B0F93E0081420EDD9648B0F93E009949B3
:1021F000B1F90010884210DB9248B0F97810B0F9BC
:102200003E00814209DB0120934908700220904979
:10221000087002E001208D4908708A48B0F8780003
:102220008C4908808748C08F874908808549B1F963
:102230007820B1F93E10501A01D4014600E0414225
:102240000C46322C09DD0120804908708048007856
:10225000022802D101207E490870642C0CDD7949E6
:10226000B1F97800FEF7B4F97C49086000207A499A
:10227000087076490870D2E074480078012831D19E
:10228000BBF1020F20DD0BF10500FEF7A1F96D494E
:102290000490B1F9781001EB8100FEF799F90390F1
:1022A0005846FEF795F902906C4801680298FDF7D0
:1022B00091FF80460399FDF735FF07460499FDF726
:1022C000BFFF6649086009E05E49B1F97800FEF792
:1022D0007FF96249086000205C49087000205E496F
:1022E00008709CE0574890F8E200042872D15A48E0
:1022F000007880B35348B0F97810B0F93E00081A5E
:1023000005900598322805DD05983238079032206F
:1023100005900CE0059810F1320F06DA059832307E
:1023200007906FF03100059001E0002007900598BC
:102330000A2805DB05980A3806900A2005900DE06A
:10234000059810F10A0F07DC05980A3006906FF027
:102350000900059002E011E0002006900521059893
:1023600090FBF1F00322069991FBF2F108440799E2
:1023700001443448B0F93E000C1802E03148B0F98D
:1023800078403049B1F97410081B01D4014600E0CF
:10239000414205910598052803DD4FF07A500890D9
:1023A0000DE00598032802DD2D48089007E0059808
:1023B000022802DD2B48089001E02B4808902448B1
:1023C000007840B91F49B1F97800FEF701F92349B7
:1023D000086024E019E01B48B0F97400A04207DD52
:1023E0001E4808990068FDF7EFFE1C49086016E0DA
:1023F0001448B0F97400A04211DA1848089900682E
:10240000FDF790FE1549086009E00E49B1F9780022
:10241000FEF7DEF81149086000200F4908700F48E8
:102420000068FEF72FF90746104A114BFDF748FFE9
:10243000CDE90201FEF707F901B20248A0F87410D5
:1024400000BF2AE69C000020360000200B00002080
:102450000A000020380000200C0000203C00002072
:10246000CDCC4C3E9A99193ECDCCCC3D9A999999B8
:102470009999E93F0448B0F93E0000EB8000400024
:102480000149C1F8A40070479C00002000BFFEE78E
:1024900010B5044674B94FF480510E48FFF7F4FBB1
:1024A0004FF4FA500C49086000BF0B480068002840
:1024B000FBD10EE0012C0CD121030648FFF7E6FB0F
:1024C0004FF4FA500449086000BF03480068002830
:1024D000FBD110BD000C01401C0000200A2001E0CF
:1024E000411EC8B20028FBD1704770B505460C46A6
:1024F00045F2555000F028F8284600F019F820461B
:1025000000F01CF800F00CF800F002F870BD0000BC
:102510004CF6CC4001490860704700000030004094
:102520004AF6AA20014908607047000000300040C8
:102530000149486070470000003000400149886050
:1025400070470000003000400149086070470000FB
:102550000030004010B500202C49A1F8EE0044F6F0
:102560002060A1F8F000A1F8F2006420A1F8EC00CE
:102570000C202749088001230022022123480E3025
:10258000FEF7AEFB68B92148C089AA2807D101230C
:10259000002264211D480E30FEF7A2FB01E0FFF788
:1025A0003BF81A48B0F91E00FF2802DD0021174849
:1025B000C183002115480183408A48B91348C08F60
:1025C0001249A1F8AC000846808BA1F8AE001BE0D0
:1025D0000E48B0F93E0000EBC000052190FBF1F081
:1025E00000F5A07000B20949A1F8AC000846B0F9A6
:1025F0001C0000EBC000052190FBF1F000F5A0707D
:1026000000B20249A1F8AE0010BD00009C000020FD
:102610002600002000BFFEE72DE9FC4782460AF1B4
:102620001900FDF7DEFF06460022114B02F04AFAC0
:10263000044600224FF08043FDF7E9FE8046002269
:102640000C4BFDF7DEFECDE90001FDF7FCFF8246F5
:10265000BAF1960F02DD4FF0960A04E0BAF10A0FC4
:1026600001DA4FF00A0A0FFA8AF0BDE8FC87000091
:102670000000E03F000024402DE9FF5F044689464A
:102680009246A9EB0A0101F5C870FDF7A1FF04F11C
:102690000A0101EB810101908800FDF799FF00908C
:1026A0000199FDF7CDFD8346FDF7ECFF0022084BB5
:1026B000CDE9020102F006FA07460022054BFDF7BC
:1026C000A6FE0546FDF7BFFF00B204B0BDE8F09FCF
:1026D0000000E03F000034407047000070B500216A
:1026E00000230F22C4780CB3164C246804F4E06471
:1026F000C4F5E064210AC1F10403CA40447804FA35
:1027000003F184781440214309010F4C0678A15548
:10271000047804F01F050124AC4005786D114FF0DA
:10272000E02606EB8505C5F8004109E0047804F0D1
:102730001F050124AC40054D0678761145F826406A
:1027400070BD00000CED00E000E400E080E100E07E
:1027500002490143024A1160704700000000FA0577
:102760000CED00E000B502200A490860FFF7B6FE54
:1027700001200849091F0860FFF7B0FE0220054943
:10278000091F0860FFF7AAFE022002490860FFF750
:10279000A5FE00BD140801407047000029B1064A9B
:1027A00052690243044B5A6104E0034A526982436E
:1027B000014B5A61704700000010024029B1064ADF
:1027C000D2690243044BDA6104E0034AD2698243CE
:1027D000014BDA61704700000010024029B1064A3F
:1027E00012690243044B1A6104E0034A12698243EE
:1027F000014B1A61704700000010024029B1064ADF
:1028000092690243044B9A6104E0034A926982434D
:10281000014B9A61704700000010024029B1064A3E
:10282000D2680243044BDA6004E0034AD268824370
:10283000014BDA6070470000001002400348406A14
:1028400040F080700149486270470000001002406B
:1028500030B500210022002400232D4D6D6805F0C5
:102860000C0121B1042905D0082923D105E0294D07
:10287000056022E0284D05601FE0254D6D6805F4D8
:102880007012234D6D6805F48034022505EB9242E9
:102890001CB9224D554305600BE01D4D6D6815F4C4
:1028A000003F03D01E4D5543056002E01A4D5543CD
:1028B000056002E0174D056000BF00BF144D6D6854
:1028C00005F0F0010909174D6B5C0568DD404560B6
:1028D0000F4D6D6805F4E061090A124D6B5C4568A7
:1028E000DD4085600A4D6D6805F46051C90A0D4DE3
:1028F0006B5C4568DD40C560054D6D6805F4404181
:10290000890B094D6B5CC568B5FBF3F5056130BDFE
:102910000010024000127A00001BB70000093D00C1
:10292000808D5B006E0000207E00002010B5014607
:102930000022002300204A11012A02D1094C2368F9
:1029400006E0022A02D1074C236A01E0054C636AC3
:1029500001F01F02012494401C4201D0012000E03C
:10296000002010BD0010024010B5E12402201349E0
:102970000860FFF7B3FD01201049091F0860FFF749
:10298000ADFD02200D49091F0860FFF7A7FD07E014
:10299000601EC0B2040003D100F04CFB012010BD4A
:1029A00006480C38006810F0010FF1D102200349ED
:1029B0000860FFF793FD0020F1E7000014080140D4
:1029C00000B50022082314E05006020E02200E4932
:1029D0000860FFF783FD02200B49091F0860FFF71D
:1029E0007DFD09480C38006810F0010F01D042F05D
:1029F00001021800A3F10101CBB2E5D10220024986
:102A00000860104600BD00001408014000200E4977
:102A100048608860C8600861C88208830B48D0F8A5
:102A2000A8000A2190FBF1F1074841620162C161EF
:102A30000020054981F828000420054981F8290073
:102A40000020044908707047E00100209C0000202D
:102A5000A40100200A00002038B500240020F54918
:102A6000087008464078F449097888423DD1F14819
:102A700080785C283AD10421EE48401CFEF78EFA9B
:102A80000090EC4840799DF801108842EED1E94869
:102A900080799DF800108842E8D1E6480079E54940
:102AA000C97800EB012084B2E448408A50B9B4F5FB
:102AB000C87F18DB41F29410844214DC21B2DF4855
:102AC000C18710E0B4F5826F0DDB42F2E40084426E
:102AD00009DCA4F5A07000EB8000092190FBF1F067
:102AE00001B2D648C18702F023FE98E1D148807830
:102AF000AA2814D10221CF48401CFEF74FFA0090BB
:102B0000CC48C0789DF801108842EED1C9480079C0
:102B10009DF800108842E8D102F00AFE7FE1C54826
:102B20008078AB2878D10521C248401CFEF736FAE0
:102B30000090C04880799DF801108842D5D1BD48E9
:102B4000C0799DF800108842CFD1BA484079B94980
:102B5000097900EB012084B2B648C078C01E0B286A
:102B600078D2DFE800F0063A4478AAD3DDE8F7F53A
:102B7000F400B248408A98B9B4F5C87F2CDB41F222
:102B80009410844228DC20B2AC49A1F8AC0008467D
:102B9000B0F9AC10C185C1871020A84908811BE09D
:102BA000B4F5826F18DB42F2E400844214DC20B2F8
:102BB000A249A1F8AC000846B0F9AC00A0F5A0709D
:102BC00000EB8000092190FBF1F001B29B48C18528
:102BD000C187102099490881DCE00CB1012C05D196
:102BE00021B296484183062094490881D2E00CB175
:102BF000012C2ED121B29148418202208F490881B7
:102C00000846408A48B90846C08FA1F8AC0008467B
:102C1000808BA1F8AE001CE0C0E08848B0F93E000F
:102C200000EBC000052190FBF1F000F5A07000B2B0
:102C30008249A1F8AC000846B0F91C0000EBC000C6
:102C4000052190FBF1F000F5A07000B27B49A1F8DE
:102C5000AE009FE09DE07948408A90B9B4F5C87F06
:102C60002ADB41F29410844226DC20B27349A1F899
:102C7000AE000846B0F8AE10818307206F49088186
:102C80001AE0B4F5826F17DB42F2E400844213DCF1
:102C900020B26A49A1F8AE000846B0F9AE00A0F52E
:102CA000A07000EB8000092190FBF1F001B26348B5
:102CB00081830720614908816CE034B900205F49B5
:102CC00088720846C18DC1871FE0012C06D1012002
:102CD0005A4988720846818BC18716E0032C03D1BC
:102CE00003205649887210E05248007902280CD11E
:102CF00050484079642808DA0220504988724D48CB
:102D0000407900EB80004000888143E00CB1012C49
:102D100005D121B24948C18204204849088139E0DF
:102D2000002C07DDA02C05DC21B2444881840B2057
:102D3000424908812EE0282C08DDB4F5FA7F05DC35
:102D400021B23E48018409203C49088122E016E076
:102D50000CE0FFE7282C08DDB4F5FA7F05DC21B292
:102D6000364841840A203549088113E0012C05D1F9
:102D70000020334908700120324908700AE00CB184
:102D8000012C05D121B22D48018201202B49088157
:102D900000E000BF00BF02F0CBFC40E02548807897
:102DA000CA283CD105212348401CFEF7F7F80090C3
:102DB000204880799DF80110884230D11D48C079A3
:102DC0009DF8001088422AD11A484079194909799A
:102DD00000EB012084B21748C078012806D00228F1
:102DE0000BD0032810D0042818D114E021B21348C6
:102DF000418716201149088110E021B20F48C18691
:102E000014200E49088109E021B20C4801871520E1
:102E10000A49088102E002F045FB00BF00BF00251F
:102E200004E0002003494855681C85B20A2DF8DBF0
:102E300038BD000080020020200000209C000020FF
:102E400022000020230000207047000000B5024649
:102E5000082319E0022011490860FFF73FFB12F038
:102E6000800F04D001200D49091F086002E00120F5
:102E70000A490860FFF732FB5006020E022007499C
:102E8000091F0860FFF72AFB1800A3F10101CBB26C
:102E9000E0D102200149086000BD00001408014093
:102EA00010B500F001F810BD0CB5002001900090A5
:102EB0003648006840F480303449086000BF334829
:102EC000006800F4003000900198401C01900098C8
:102ED00018B90198B0F5A06FF1D12C48006810F432
:102EE000003F02D00120009001E0002000900098F7
:102EF000012849D12648006840F0100024490860A4
:102F00000846006820F0030008600846006840F0AA
:102F1000020008601D4840681C4948600846406837
:102F200040F4605048600846406840F4E060486003
:102F30000846406840F4804048600846406820F4F5
:102F40007C1048600846406840F4102048600846FD
:102F5000006840F08070086000BF0C48006810F006
:102F6000007FFAD00948406820F003000749486014
:102F70000846406840F00200486000BF03484068CF
:102F800000F00C000828F9D10CBD00000010024030
:102F90000020024000B5012017490860642001F0BC
:102FA0007FFC022014490860642001F079FC12487B
:102FB0000838006808B9012000E0002010F0010F77
:102FC00001D0012000BD01200B49091D08606420CB
:102FD00001F066FC08480838006810F0010F01D0C5
:102FE0000120EFE702200449091D0860642001F078
:102FF00057FC0020E6E700001008014010B500244F
:103000000FE040F6D860FEF74AFB0748FEF78CFF5A
:103010000648B0F87C10A0F87A100548FFF720F8B1
:10302000641C0A2CEDDB10BDD00200209C000020A7
:10303000BC02002000B502200C490860642001F0A9
:103040002FFC012009490860642001F029FC0220BE
:103050000649091F0860642001F022FC0120034991
:10306000091F0860642001F01BFC00BD140801402A
:1030700010B51F480088002804DD1D480088401E48
:103080001B4908801B48006820B11A480068401E90
:103090001849086018480088002809DD164800888B
:1030A000401E154908800846008808B9FFF7D4FC7F
:1030B0001248007800B910BD1148008844F620611C
:1030C000884204DA0E480088401C0D4908800D48EB
:1030D000B0F8E40042F20F71884206DA0948B0F80D
:1030E000E400401C0749A1F8E40000BFE3E700004A
:1030F000160000201C000020180000200000002006
:10310000060000209C00002010B5FFF7B1FF10BDA5
:1031100010B5002100200022214B5B6803F00C0158
:1031200021B1042906D0082928D107E01D4B1E4CE7
:10313000236027E01D4B1C4C236023E0184B5B6889
:1031400003F47010164B5B6803F48032022303EB28
:10315000904022B9164B4343134C23600DE0104BB3
:103160005B6813F4003F04D0124B43430E4C2360C2
:1031700003E00E4B43430C4C236003E0094B0A4C25
:10318000236000BF00BF064B5B68C3F303130A4C08
:10319000E15C054B1B68CB40034C236010BD000075
:1031A0000010024000127A0084000020001BB700CB
:1031B00000093D00808D5B008800002010B5134899
:1031C000006840F001001149086008464068104955
:1031D00008400E494860084600680E4908400B49FF
:1031E00008600846006820F48020086008464068AF
:1031F00020F4FE0048604FF41F008860FFF750FE87
:103200004FF000600449086010BD0000001002404B
:103210000000FFF8FFFFF6FE08ED00E04FF08040F1
:10322000008A10F0010F27D014480088002813DD11
:103230004FF480701249086010480088401E0F4902
:1032400008800846008818B900210E48A0F88210AE
:1032500007200D4908800AE00C480078012803D1B6
:1032600000020749086002E00120084908704FF693
:10327000FE704FF08041088270470000140000206B
:10328000100C01409C00002016000020340000209B
:1032900021B1028842F08002028004E002884FF6E9
:1032A0007F731A4002807047CA43028270471AB186
:1032B00083890B43838102E083898B438381704739
:1032C000002202881D4B98420ED01D4B98420BD015
:1032D000B0F1804F08D01B4B984205D01A4B984252
:1032E00002D01A4B984204D14FF68F731A404B8884
:1032F0001A43174B984207D0164B984204D04FF60A
:10330000FF431A40CB881A4302808B8883850B8841
:1033100003850A4B98420BD0094B984208D00E4BBC
:10332000984205D00D4B984202D00D4B984201D1E6
:103330000B7A03860123838270470000002C014032
:10334000003401400004004000080040000C004030
:1033500000100040001400400040014000440140C3
:10336000004801402DE9F84FFE48007864287DDAD6
:10337000FC480078401CFB4908700846007801288A
:1033800002D1FEF77DFDD0E0F64800780228FAD0A1
:10339000F448007803280FD1FEF772FDF248B0F927
:1033A0008000B0F5967FEEDB0A20EF49A1F8BC0063
:1033B0002020EC490870B8E0EA4800781E282BDA93
:1033C000FEF75EFDE848B0F982000A2808DAE64810
:1033D000B0F88200401C01B2E348A0F88210A4E0DB
:1033E000E148B0F98200642808DADF48B0F88200CA
:1033F0000A3001B2DC48A0F8821096E01E20D949BC
:103400000870D948B0F880000028BCD14FF4FA7198
:10341000D548A0F8821088E0D2480078202802D150
:10342000FEF72EFD81E0CF48007821280DD1FEF770
:1034300027FDCE484068CD4988600846006848604E
:10344000C948D0F8A00008606FE0C648007822287C
:103450000FD1FEF715FDC5484068C449886008468D
:1034600000684860C048D0F8A00000E06CE0086048
:103470005BE0BC480078232830D1BC484068BB4999
:103480008860084600684860B748D0F8A000086027
:103490000020B7490870B448008DC0EB00108000D0
:1034A00000EB8000401CB3498882AF48B0F89A0016
:1034B00000EB8000B0490880FEF7E2FCAA48B0F8B3
:1034C000A000AE490880A848B0F88200AC49088046
:1034D00040F2E731A448A0F8821026E0A148007825
:1034E000272822D1FEF7CCFC9F49B1F98000FDF7D7
:1034F0006FF88246FDF7C6F880460022A14BFCF724
:1035000086FF06460022A04BFCF7F3FF0446FDF7BA
:103510009AF800B29D4908809948008801B2924803
:10352000A0F8821064208F4908709948FEF7FCFCCF
:103530008D48B0F87C10A0F87A109648FEF790FD00
:10354000002095490870FCE3864800786428FADB7F
:10355000FEF790FF8448B0F88200904908808C48BC
:10356000FEF7E2FC8B48FEF77BFD8D4800780428CF
:103570000AD17E4840687D498860084600684860F6
:103580007948D0F8A000086085480078032817D152
:103590007848416A01620146496A734AD2F8A82014
:1035A000881A01D4014600E04142092904DD6E4831
:1035B000D0F8A8106F4841626E481C30FDF754FBEC
:1035C0006948807A02287DDA4FF480717548FEF7E9
:1035D0005DFB654890F8E200C8B96348D0F8A400E4
:1035E0006149D1F8A810401A40F2DC5188420ADC47
:1035F00004205D4981F8E20000205E4981F829003D
:103600006949086003E00120574981F8E200564803
:1036100090F8E20000287DD0534890F8E20001289D
:1036200069D15448808A90B34F48B0F9820040F283
:10363000E731884211DA4F48808A052190FBF1F189
:103640004948008DC0EB0010C1EB80014648408D19
:10365000084401B24448A0F882104648808A401EBF
:10366000444988824048D0F8A410D0F8A800B1EBB3
:10367000400F02DC00203F4988823B48D0F8A80078
:1036800042F21071884202DD00203A4988823948AE
:10369000808A50BB3448D0F8A410D0F8A800B1EB11
:1036A000400F13DC0120334981F8280002202E4905
:1036B00081F8E2000846D0F8A8003C49086040F2D2
:1036C000E73100E06BE32848A0F882102648B0F903
:1036D000820040F2E631884208DA2348B0F88200DE
:1036E000801C01B22048A0F8821004E040F2E731CB
:1036F0001D48A0F882101C4890F8E20002286ED104
:103700001C4890F8280001282AD11748D0F8A800B2
:10371000264900E06FE20968401A2549086012480E
:10372000D0F8A400096801EB8101B0EB810F04DD42
:103730001F480068B0F57A7F0DDB02200D4981F843
:1037400028000020194988844EF66020C860064889
:10375000D0F8A800086040F2E7310348A0F88210D2
:10376000044827E0130000209C000020E402002011
:103770000B000020A4010020500000204400002085
:103780005800002000806B400000594024000020B9
:10379000D0020020BC0200200A00002042000020CD
:1037A0005200002000080140480000201C020020B8
:1037B0004C00002090F8280002287DD10021FE480E
:1037C000A0F88210FD48808C0F2876DBFA49D1F8EA
:1037D000A810FA4A1268881A02D4014601E083E070
:1037E0004142F64A928C42F6F8235A4392FBF1F199
:1037F000F34A1160F148C06811460968884203D94C
:1038000010460068ED49C860EC48C068EC4909689A
:10381000884208D3EB4890F8290020B1E94890F895
:10382000290003285AD1E448008B012802D1002145
:10383000E14801830420E04981F8E2000820E149E1
:1038400081F82800DD49C868FEF7E6FEDA490886F7
:10385000012081F8E300DC48B0F90000B0F5967F64
:103860000FDAB1F93000FCF7BCFE06460022D74B58
:10387000FCF7CDFD0446FCF7E6FE01B2CE4801861A
:1038800020E0D148B0F90000B0F52F7F1ADACA491C
:10389000B1F93000FCF7A5FE06464FF06632CC4B7E
:1038A000FCF7B5FD0446FCF7CEFE01B2C248018626
:1038B000B0F930001E2801E086E00FE002DD1C2197
:1038C000BD480186002322220221BB483030FDF78B
:1038D00007FA0020B949C884BE490860B748808CFF
:1038E000401CB64988841DE1B34890F8E2000328E3
:1038F000F9D1B94890F82800D8B9AF48D0F8A40059
:10390000AD49D1F8A810884205DD40F2E731AA4858
:10391000A0F8821003E00021A748A0F88210A9486F
:1039200090F829000128DED10B20AB4981F828004E
:10393000F8E0A148D0F8A410D0F8A8000A308142DD
:1039400005DD40F2E7319C48A0F882100BE09A4870
:10395000D0F8A810D0F8A4000A30814203DD00217D
:103960009548A0F882109C4890F828000A287CDD31
:10397000994890F828000B2809D1924890F829001E
:103980000028B0D10C20944981F82800CAE0924860
:1039900090F828000C2809D18A4890F829000128BD
:1039A000A1D10D208C4981F82800BBE08A4890F80D
:1039B00028000D2809D1834890F82900002803D158
:1039C0000E20854981F82800ACE0834890F8280053
:1039D0000E280DD17B4890F82900012807D110202E
:1039E0007D4981F828007448D0F8A800C86099E0A3
:1039F000794890F8280010287DD17748C08A401C6B
:103A00007549C8826F4890F82900002874D11120A8
:103A100081F82800002168480183D0F8A8006E4989
:103A200048600420644981F8E2000846008E6B4932
:103A30000880694BDA685968D88AFEF71DFE5E492E
:103A40000886012081F8E3005F48B0F90000B0F576
:103A5000967F11DAB1F93000FCF7C3FD064600226B
:103A60005A4BFCF7D4FC044600E057E0FCF7EBFDB2
:103A700001B2514801861DE05348B0F90000B0F58D
:103A80002F7F17DA4C49B1F93000FCF7AAFD064642
:103A90004FF03332524BFCF7BAFC0446FCF7D3FD2F
:103AA00001B245480186B0F930001E2802DD1C2114
:103AB000414801864048008E40B13F48B0F930008F
:103AC0004649098801EB4101884204DD43480088EA
:103AD00001B23948018600232222022136483030C3
:103AE000FDF7FEF83448D0F8A4003349D1F8A81007
:103AF000401A314901E00CE014E0B1F9301000FB4C
:103B000001F404EBD4714810FCF762FD3149086000
:103B100008E00B20304981F8280003E00B202E49F3
:103B200081F82800244890F8E200042863D1224854
:103B3000D0F8A410D0F8A800B1EB400F07DD0020AA
:103B4000204981F828001C4981F8E20024E01A4845
:103B500090F8E30000BB1848D0F8A40000EB800107
:103B600001EBC0001449D1F8A81001EB8101B0EBC2
:103B7000810F0ADC1048D0F8A4000F49D1F8A81032
:103B8000401A41F29411884206DD00200D4981F867
:103B90002800094981F8E2000748008B01282BD151
:103BA0000548D0F8A4000449D1F8A810401AB0F58F
:103BB000FA7F21DA032015E09C0000201C0200207F
:103BC0004C000020A4010020240000200000E03F61
:103BD0006666E63F48000020E00100205A00002011
:103BE0003333E33FFB4981F8E200FEF70FFF00208B
:103BF000F94981F82A00B7E0F848007804287DD117
:103C0000F448D0F8A800F34D0090D5F8A430F44D56
:103C10006A682968EF4DB5F93000FDF757FB044697
:103C2000F04801682046FCF77DFAEE490860284616
:103C3000D0F8A4002946D1F8A810401A2946B1F9B5
:103C400030104843E84908600021E6480068FCF766
:103C500049FD26D22846D0F8A4002946D1F8A8105C
:103C6000884211DAE0480068FCF7B2FC0446DD48FF
:103C700001682046FCF740FD09D2DB480068FCF7EC
:103C8000A7FCD849086002E00020D6490860D7495F
:103C9000D4480068FCF726FD0FD2D448D14908600B
:103CA0000BE0CC48D0F8A810D0F8A40000F57A704A
:103CB000814202DD0020CB490860CD49C948006837
:103CC000FCF71AFD02D2CA48C6490860C148D0F8BC
:103CD000A400C049D1F8A810401AC6490860096874
:103CE000C54A1268891ABB4AB2F9302001FB02F0BA
:103CF000FCF777FC82460022C04B00E034E0FCF782
:103D000086FB06460F46B7480068FCF7BBFC8046BA
:103D100032463B46FCF7D4FA0446FCF794FCB8491B
:103D2000086008460068642190FBF1F001B2A948E0
:103D3000A0F88210B0F98200002806DA0021A54818
:103D400000E014E2A0F882100AE0A248B0F9820074
:103D5000B0F57A7F04DB40F2E7319E48A0F882108C
:103D6000A4480068A44908609A48B0F89A0000EB9B
:103D70008000A44908809748B0F9740041F2883166
:103D800088425BDD00219348A0F87410B0F9BC00B4
:103D9000032853DA03208F49A1F8BC004EE08D4878
:103DA000807A02282AD1C1019748FDF76FFF894820
:103DB000808901B28748A0F88210002089490860F4
:103DC000854981F8280081F82A00824981F8E200BB
:103DD000844908607F48B0F8BC00032809D07D48BA
:103DE000B0F8BC00072804D07A48B0F8BC00082816
:103DF00024D100207749A1F8BC001FE04FF4807166
:103E00008148FDF741FF00217248A0F88210002090
:103E10007049A1F8BC00734908606F4981F8280017
:103E20006C4981F8E2000846B0F9740041F288312B
:103E3000884203DD00216748A0F874106548B0F996
:103E4000BC000B2820D2DFE800F01F171F0C181948
:103E50001A0D0E06070000BF00215E48A0F8821070
:103E600013E000BF00BF5B48807A022803D0002126
:103E70005848A0F8821008E000BF00BF00BF002132
:103E80005448A0F8821000E000BF00BF53480078FB
:103E9000052803D100205149087006E04F480078FA
:103EA000401C4E490870BDE8F88F4A48C08A18B1D6
:103EB00000204849A1F8EE00FDF7E2FF454890F8E0
:103EC000E200042802D00020504908704E48083013
:103ED000006810F4805F1CD03E48D0F8A010B0F904
:103EE0007A00081AB0F5FA7F13DA4948008820B141
:103EF00047480088401E4649088045480088F0B978
:103F00003448B0F8BC00D0B908203249A1F8BC0050
:103F100015E03F480088052804DA3D480088401C29
:103F20003B4908802B48B0F8BC00082807D1384826
:103F30000088052803DB00202649A1F8BC0025489D
:103F4000D0F8A010B0F97A00081A642819DA2148CC
:103F5000B0F98200B0F5967F1CDB1E48B0F8BC00BB
:103F6000062817D01B48B0F8BC00042812D0194806
:103F7000B0F8BC0005280DD007201649A1F8BC00F8
:103F800008E01448B0F8BC00072803D1002011490C
:103F9000A1F8BC001F480088C82845DB0D48B0F9CF
:103FA0008000052840DA0B48B0F8BC0004283BD05C
:103FB0000848B0F8BC00052836D017480078052816
:103FC0002CDD00201449087006200249A1F8BC002D
:103FD0002DE000009C000020A401002052000020E1
:103FE000E4020020480000204C00002000401CC6D5
:103FF0000050C34760000020640000200000204003
:104000005C00002050000020000801400A00002051
:104010004000002042000020530000207A48007831
:10402000401C7949087002E0002077490870774801
:10403000B0F98000002808DD7448B0F8BC000628FC
:1040400003D100207149A1F8BC007148006810F04C
:10405000020F0CD16F4801780078401C6D4A107037
:10406000032910DD04206949A1F8BC000BE0002001
:10407000684908706548B0F8BC00042803D10020E6
:104080006249A1F8BC006248006810F0040F0CD12E
:10409000614801780078401C5F4A1070032910DDE8
:1040A00005205A49A1F8BC000BE000205A490870CD
:1040B0005648B0F8BC00052803D100205349A1F8A8
:1040C000BC005248B0F98010B0F9240000EB800029
:1040D000B1EB400F0FDD51480078401CC0B24F4992
:1040E0000870032803D109204849A1F8BC0000202A
:1040F0004649888102E00020484908704848008805
:10410000A0B94248B0F9800014280FDB4548007878
:10411000401CC0B243490870032803D10A203B4920
:10412000A1F8BC0000203949888102E000203D4907
:104130000870364890F8E200042854D13348807A59
:10414000D8BB39480078C0B33048B0F8BC00F8B9E3
:104150002E48B0F93E10B0F9200001442B48B0F9C8
:104160007400814204DA01202849A1F8BC0048E02B
:104170002648B0F97410B0F9220001442348B0F980
:104180003E0081423DDA02202049A1F8BC0038E01F
:104190001E48B0F8BC00012810D11C48B0F93E10F0
:1041A000B0F9200001441948B0F97400814228DBBD
:1041B00000201649A1F8BC0023E014E01348B0F831
:1041C000BC0002281DD11148B0F97410B0F92200CA
:1041D00001440E48B0F93E00814212DB00200B4939
:1041E000A1F8BC000DE00948B0F8BC00012804D0DB
:1041F0000648B0F8BC00022803D100200349A1F80A
:10420000BC0000BF4FE60000530000209C000020CF
:10421000080C0140540000205500002056000020EA
:1042200042000020570000200A00002010B553482B
:10423000808828BB5148408810BB50480089F8B19D
:104240004E4909894FF6FF7303EA41024B490B8936
:104250000E3101EB430000230221FCF741FD4748EA
:104260000089032809D14548808A30B900233022CB
:10427000022142483E30FCF733FD00203F490881CF
:104280003E48B0F8BC00002871D04FF480503C4943
:104290004861401008613948B0F9BC000B282FD2A2
:1042A000DFE800F02E060A1A0E12161E22262A0039
:1042B00004203449088027E005203249088023E0A3
:1042C0000920304908801FE00A202E4908801BE0A1
:1042D00006202C49088017E001202A49088013E0B5
:1042E0000220284908800FE00320264908800BE0BF
:1042F00007202449088007E008202249088003E0BD
:1043000000202049088000BF00BF1C48B0F94400CD
:104310001C490988884230D000201B49088014E0DD
:1043200019480088C0F12D0114480E3030F81110E2
:1043300015480088C0F12E0210480E3020F81210E7
:1043400011480088401C104908800F480088132835
:10435000E6DB0C48008801B20848A0F844100023AE
:10436000362228214430FCF7BBFC06E0FFE74FF47F
:104370000060034948614000086110BD9C000020B6
:10438000001001406A000020680000201FB50121D4
:104390000846FEF713FA44F62060ADF80400052045
:1043A000ADF800000020ADF80200ADF80600694647
:1043B0004FF08040FEF784FF00214FF08040FEF771
:1043C00067FF4FF08040008840F00C004FF08041C4
:1043D000088001218807FEF767FF01221146900738
:1043E000FEF765FF1C208DF80C0000208DF80D00F5
:1043F0008DF80E0001208DF80F0003A8FEF76EF96E
:104400001FBD000010B540F22551294800F0CEF83C
:10441000B8B140F22551264800F05FF825480078F1
:104420000A2804DA23480078401C224908702048F2
:1044300000F078F91F4909781E4A505403201E499C
:10444000088040F227711A4800F0B0F8D8B11B4834
:1044500002780078401C194B18701948815C144888
:1044600000F065F915480078112820D1002240F2AB
:1044700027710F4800F0C4F8012240F226610C4871
:1044800000F0BEF813E040F22661094800F08EF813
:1044900068B1002009490870002240F226610448F2
:1044A00000F0AEF84FF400610648FDF7EDFB10BDDB
:1044B0000038014080020020180000206D0000201C
:1044C0009E0200200008014001F40072B2F5007F56
:1044D00000D100BFCA430280704710B500220023FC
:1044E000A1F510646A3C00D100BF0A120124944077
:1044F000A3B2DC43048010BD21B1828942F4005292
:10450000828104E082894DF6FF731A4082817047F0
:1045100010B504462048844209D101218803FEF7E2
:104520007DF900214FF48040FEF778F932E01B4816
:10453000844209D101214804FEF750F900214FF4CB
:104540000030FEF74BF925E01548844209D10121DE
:104550008804FEF743F900214FF48020FEF73EF96E
:1045600018E01048844209D10121C804FEF736F949
:1045700000214FF40020FEF731F90BE00A48844295
:1045800008D101210805FEF729F900214FF4801018
:10459000FEF724F910BD000000380140004400403F
:1045A00000480040004C00400050004070B50246FA
:1045B0000024002300250020A1F510666A3E00D1EA
:1045C00000BFC1F3421501F01F03012606FA03F3F1
:1045D000012D02D19689334006E0022D02D1168AC0
:1045E000334001E0968A33400C12012606FA04F4A7
:1045F0001688344013B10CB1012000E0002070BDDA
:10460000F0B503460024002600250020A1F5106720
:104610006A3F00D100BF1846C1F3421401F01F06E3
:10462000012707FA06F5012C01D10C3004E0022C19
:1046300001D1103000E014301AB107682F43076031
:1046400002E00768AF430760F0BD00002DE9F047C6
:1046500086B005460E460024A24600BFA1460027AC
:10466000B08900B100BF2F462C8A4CF6FF70044081
:10467000F08804432C82AC894EF6F3100440B088D5
:1046800031890843718908430443AC81AC8A4FF6F1
:10469000FF400440B0890443AC8201A8FEF7D8F87B
:1046A0001F48874202D1DDF810A001E0DDF80CA020
:1046B000A88910F4004F08D00AEBCA0000EB0A10DA
:1046C00031684900B0FBF1F807E00AEBCA0000EBE3
:1046D0000A1031688900B0FBF1F86420B8FBF0F0F3
:1046E00004012009642101FB1089A88910F4004FFE
:1046F00008D0322000EBC900B0FBF1F000F0070059
:10470000044308E0322000EB09106421B0FBF1F013
:1047100000F00F0004432C8106B0BDE8F0870000D4
:104720000038014001468888C0F308007047C1F393
:1047300008028280704700BFFEE7490050EAC120AE
:1047400018BF04204A0D18BF40F0010040F2FF726C
:10475000B2EB515F08BF40F00200012808BF0520FE
:1047600070472DE9F0414F1E00EBC7010446D1E927
:10477000000115461E4637F006020DD02A46334684
:10478000FBF745FE7F1E04EBC703D3E90023FBF7CD
:1047900097FD37F00602F1D1022F25D0042F13D058
:1047A000062F18BFBDE8F0812A463346FBF72FFEDF
:1047B000D4E90A23FBF784FD2A463346FBF727FE9C
:1047C000D4E90823FBF77CFD2A463346FBF71FFE9E
:1047D000D4E90623FBF774FD2A463346FBF717FEA0
:1047E000D4E90423FBF76CFD2A463346FBF70FFEA2
:1047F000D4E90223FBF764FD2A463346FBF707FEA4
:10480000D4E90023BDE8F041FBF75ABD024A00207D
:104810001107FCF741B8000001FDFFFF02E008C8E6
:10482000121F08C1002AFAD170477047002001E02A
:1048300001C1121F002AFBD1704700000149086026
:10484000704700009800002030B5002400250120AA
:104850001049088005211048A0F8821000200F4957
:10486000088000BF0B4800880028FBDC00BF0B4815
:1048700000880028FBDC00210748A0F882101620E1
:10488000FCF7B2FB05460F2D03DD0B24204600F09C
:1048900015F830BD140000209C00002016000020F8
:1048A000014605E0002001E0421CD0B23F28FBDBBE
:1048B0000A00A1F1010399B2F4D1704701B20A4A8A
:1048C000A2F8BC1000280DDD00220749A1F88220C3
:1048D0000121064A1170064A117000BF0449097887
:1048E0000029FBD1704700009C0000200000002040
:1048F0002200002008B522480068012121EA10109A
:104900009DF8001060F3000100911E48006801212D
:1049100021EAD0309DF8001060F341010091184861
:104920000068012121EAD0009DF8001060F38201A7
:10493000009114480068012121EA90209DF80010A0
:1049400060F3C30100910F480068012121EA502063
:104950009DF8001060F304110091094800680121DE
:1049600021EA50209DF8001060F3451100919DF858
:10497000000020F0400000909DF8000008BD0000FD
:10498000080C014008080140FCF724F94FF40060CE
:104990004349486140000861FFF7ACFF4149087096
:1049A0007D20FDF7C3FF01280BD1FDF747FF012054
:1049B0003D490870FDF7CEFD00203C49A1F8BC0040
:1049C0002DE0FDF7C7FD374801783848C183032043
:1049D0003649887200F0EAFE35480068012121EA74
:1049E0005010344908800846008808B100F0E6FEFF
:1049F00001202D490870FEF701FB00212B48A0F88B
:104A0000E010C0F8CC10A0F8DE10C0F8C810A0F874
:104A1000DC10C0F8C41000202749088000BFFA212C
:104A20000420FDF762FD3AE00AE000211F48A0F8EB
:104A300082104FF480712148FDF726F9FDF770FDD3
:104A40001A48408B0028F0D000BF1B480088B0F502
:104A50007A7FFADB002018490880194800780A2874
:104A600005DA17480078401C1549087002E001205B
:104A70001349087012480078052803D010480078C0
:104A80000A2801D1FFF7D2FB0D48007810F0010F82
:104A900000D004E0FEF766FCFDF742FD00BFC3E76F
:104AA0000010014020000020000000209C00002099
:104AB000080C01401A0000200600002000080140F8
:104AC000010000202DE9F04D16460F460546020074
:104AD00094B01C4621F0004123F0004014BF4FF079
:104AE000010C4FF0000C0CEB470CFE4B0CEB0308D9
:104AF0004FEA630CE0452DD35FEA060818BF4FF07C
:104B0000010808EB44089844F74B984522D3F74B2B
:104B100050EA060C02D09F4205D14AB914B00020D9
:104B20001946BDE8F08D002A08BF4FF0000C01D0F7
:104B30004FF0010C0CEB470313F5001F0AD8002EB1
:104B400014BF4FF0010C4FF0000C0CEB440313F5B5
:104B5000001F08D914B03246234628463946BDE81E
:104B6000F04DFBF7ADBBDFF888B34FF0000A002F24
:104B7000B8BF584523DADF4B9842A8BF4FF0020A6E
:104B80001DDADA4B83421ADCDB4B03EB2053142B88
:104B900008DDC3F1340C26FA0CF303FA0CFCB4451F
:104BA0000DD108E05EB9C3F1140C20FA0CF303FA3E
:104BB0000CFC844503D103F00103C3F1020A51EA5E
:104BC000020321D1002C1FDA002F18BFBAF1020F07
:104BD00002D0BAF1010F0BD00220FFF72FFE14B064
:104BE0000022BDE8F04D13461046C049FBF781BCDA
:104BF0000220FFF723FE14B02A463B46BDE8F04DE5
:104C00000020BA49FBF775BC33006DD1584525D15A
:104C100007F1804010F5801001BF002A0020B34941
:104C200014B008BFBDE8F08DB048884207DC002C06
:104C3000A1BF1846214614B0BDE8F08D07E0002C56
:104C4000BFBF184684F0004114B0BDE8F08DAB49F9
:104C50007944D1E9000114B0BDE8F08DDFF88CC2D1
:104C6000604526D1002C1FDA19B1594513D1DAB9A4
:104C70000AE0002A40F0DA829D4A394614B000204A
:104C800062F31E01BDE8F08D0020394614B060F3D8
:104C90001E01BDE8F08D07DA14B03B46BDE8F04DCB
:104CA00000206146FBF725BC14B010463946BDE82C
:104CB000F08D594518DAB4F1804F0DD0A4F10053AE
:104CC000B3F1FF5310D13B1E0EDB14B01046BDE80C
:104CD000F04D194600F044BD3B4614B01046BDE807
:104CE000F04D1946FBF793BB27F00043A2BBE1B19F
:104CF000594538D1002F06DD002CA1BF00205946B0
:104D000014B0BDE8F08D002F01DD002C1FDB002F5B
:104D100016DA002C14DBBAF1010F4FF0000014BFBB
:104D20007349774914B0BDE8F08DBAF1020F18BF8E
:104D3000002F0CD0BAF1010F09D1002F07DA0CE0D7
:104D4000002FB8BF002C0EDABAF1010F05D00020F9
:104D500014B00146BDE8F08D05E014B000204FF01E
:104D60000041BDE8F08D4FF0010C0CEBE7720D92A5
:104D700052EA0A020BD0634A90427DDD624B634ADD
:104D8000984216DD8A420EDB002C1CDB2CE0012051
:104D9000FFF754FD14B00022BDE8F04D1346104655
:104DA0001146FBF7A6BB5148884202DC002C0ADC06
:104DB0001AE0914202DA002C16DA04E04B4B9942D9
:104DC0001EDD002C10DD0220FFF738FD40F201321D
:104DD00000204FF0E041FBF75FFD454A14B061F35E
:104DE0001E021146BDE8F08D0220FFF727FDFFF7F8
:104DF0000DFD3E4A14B061F31E021146BDE8F08D70
:104E0000002228463946FBF7FCFA054688466FF033
:104E10000102FBF741FD4FF055323D4BFBF7F4FA31
:104E20002A464346FBF7F3FA00223A4BFBF7ECFA2B
:104E300007468B462A46434610461946FBF7E7FAD3
:104E40003A465B46FBF7E3FA09910C904FF0C042FB
:104E5000314B28464146FBF7DAFA07468B462F4A84
:104E60002D4B09990C98FBF7D2FACDE901102C4A89
:104E70002C4B2846414600E019E0FBF7C8FADDE973
:104E80000132FBF7BEFA3A465B4605910890FBF704
:104E900017FA002588463A465B462846FBF7B1FAE2
:104EA000059B089AFBF7B0FA024600F076B900209D
:104EB000B1F5801F07DA352228461946FBF7ECFCCE
:104EC00005466FF0340000EB2150A0F2FF30019056
:104ED000C1F3130040F07F6141F04051029112494B
:104EE000884223E0FFFF1F00FFFF0F000000F03F9C
:104EF0000000F07F0000404301FCFFFF5C21000048
:104F00000000F0FF0000E0410000F043FFFFEF3F32
:104F10005555D53F0000E03F4715F73FFE822B6512
:104F200044DF5DF80BAE543E8E980300D8BF4FF0BF
:104F3000000B0EDDFE498142C8BF4FF0010B08DCBB
:104F400001984FF0000B401C01900298A0F58010D2
:104F50000290F8480299784400EBCB000B91109036
:104F6000D0E900232846FBF74CFA009010980791EF
:104F7000D0E9002328460B99FBF7A2F902460B461D
:104F80000020ED49FBF7B5FA05910B460246089063
:104F900007990098FBF73BFA0690E84888460027F7
:104FA0007844029900680E904FF0005040EA61008A
:104FB00000EB8B4000F5002110980291D0E900230E
:104FC0000E98FBF71EFA2A460B9BFBF71DFA3A4692
:104FD0004346FBF71CFA05460B9138464146029BB7
:104FE0000E9AFBF714FA079B009AFBF70DFA2A4674
:104FF0000B9BFBF706FA059B089AFBF708FA0B9147
:105000001090069A434610461946FBF700FA0546EB
:105010000246CB480B46009106217844FFF7A1FBDE
:10502000009B2A460291089010461946FBF7EFF9BB
:10503000029B089AFBF7EBF9054605914346384673
:105040001946069AFBF73CF90B9B109AFBF7DFF920
:105050002A46059BFBF734F93A46434605910890EA
:1050600010461946FBF7D3F90022B64B00910C907D
:10507000FBF726F9059B089AFBF722F90D463A46FD
:10508000B04B3846FBF7BDF9009B0C9AFBF7B9F91A
:10509000059B089AFBF7B8F911913A460C902B46FC
:1050A00010464146FBF7B3F9079100904346069A34
:1050B00011990C98FBF7ABF9804603912B463A46C1
:1050C0000B991098FBF7A3F94246039BFBF7F8F8FE
:1050D000059180460B46024607990098FBF7F0F8C9
:1050E00000200F460546079B009AFBF78AF94246C7
:1050F000059BFBF789F9804609914FF06042924B7E
:1051000028463946FBF783F9009102908F4A8E4B6F
:1051100040460999FBF77BF9804603918C4A8D4BF9
:1051200028463946FBF773F94246039BFBF7C8F85C
:10513000894A7A4402EBCB03D3E90023FBF7C0F89A
:10514000069003910198FBF74CFA0746DDE902034C
:105150000591069A0099FBF7B3F8804A7A4402EB6E
:10516000CB0BDBE90023FBF7ABF83A46059BFBF7DB
:10517000A7F8002588463A462846059BFBF741F9E3
:10518000DBE90023FBF73DF9009B029AFBF739F9B5
:10519000039B069AFBF738F90246002006900D980B
:1051A000654FAAF10103184301D16D4F069000200D
:1051B0000B46009030462146FBF729F982468B4684
:1051C000234630461946009AFBF71BF92A46434608
:1051D000FBF71DF952465B46FBF772F806468A4616
:1051E0002A46434621460098FBF711F904460D462E
:1051F00032465346FBF764F85A4A8B46914226DB07
:10520000ABEB020353EA000210D122462B46FBF718
:10521000F8F880460591544A544B30465146FBF706
:105220004FF84246059BFBF74FFB30D20220FFF7B9
:1052300005FB40F2013200204FF0E041FBF72CFB70
:105240000A46394614B062F31E01BDE8F08D484BA2
:105250002BF000429A421AD3464A0BEB020353EA60
:10526000000208D122462B46FBF7CBF832465346C4
:10527000FBF72AFB0BD80220FFF7E0FAFFF7C6FA8C
:105280000A46394614B062F31E01BDE8F08D2BF0DA
:1052900000403949394A01EB20514FF00008824261
:1052A00023DA481C4FF4801121FA00F05844C0F36F
:1052B0000A51334AA1F2FF317A44324B1268CB4093
:1052C00020EA0303C0F3130040F4801CC1F1140072
:1052D0002CFA00F8BBF1000FB8BFC8F10008204657
:1052E0002946FBF78EF804460D4622462B463046EB
:1052F0005146FAF7E5FF4FF0000B5A46224B58464D
:105300000591FBF784F800900791204A204B5846FE
:105310000599FBF77CF80491029022462B465846EB
:105320000599FBF76EF832465346FBF76DF831E00E
:105330007AB60B00CE1D00000000F03F0C1E0000EE
:105340003A1D00000000084009C7EE3FFD033ADCAB
:10535000F5015B14E02F3EBE121C0000D81B0000BC
:105360000000F0BF00009040FE822B654715973C7F
:1053700000CC904000346F3F01FCFFFF0000E03F95
:10538000F41A0000FFFF0F00432EE63F396CA80C13
:10539000615C20BE3F4A404BFBF739F8049B029A00
:1053A000FAF78EFF06468A46079B009AFAF788FFAF
:1053B00004460D46079B009AFBF723F832465346F6
:1053C000FBF722F8064622462B460991104619465D
:1053D000FBF71DF88346024630488A460B460521F6
:1053E0007844FFF7BEF95A465346FBF710F82246B9
:1053F0002B46FBF709F882468B4632462046294663
:10540000099BFBF704F83246099BFAF759FF05910F
:10541000089000224FF0804350465946FAF7F1FFBA
:105420000646009152465B4620462946FAF7EFFFB2
:105430003246009BFBF75DF8059B089AFAF7E1FFFF
:1054400022462B46FAF7DDFF0022154BFAF7DCFF68
:105450000D46044601EB08510815002810DC4246B1
:1054600020462946FBF718FAFFF767F9042808BF1A
:10547000FFF7CCF9424620462946FBF70DFA0446D1
:1054800006980B4614B022463946BDE8F04DFAF7AF
:10549000BEBF0000EF39FAFE422EE63FA41900001D
:1054A0000000F03F38B52B48D0F8D4000A21B0FBFB
:1054B000F1F084B24FF400612748FCF7E7FB27487E
:1054C0000078274908702748807848702548C078B8
:1054D00088702012C8700C711E48B0F87400000A61
:1054E00048711C4890F8740088711A48408F000A6F
:1054F000C871184890F83A0008721648C08E000A21
:105500004872144890F8360088721248008F000ADA
:10551000C872104890F8380008730E48B0F87C0044
:10552000000A48730B4890F87C0088730F210C48E0
:10553000FBF734FD00909DF801000949C8739DF800
:1055400000000874012240F227710748FFF758F85D
:1055500038BD00009C000020000801402000002011
:105560009E020020800200200038014038B5054628
:105570004FF400612E48FCF789FB2E48408A58B151
:105580002C48B0F9740000EBC000052190FBF1F04D
:1055900000F5A07084B203E02648B0F8740084B22D
:1055A000254805705A2024494870224890F8BC00CC
:1055B00088702012C8700C711E48B0F8AC00000A48
:1055C00048711C4890F8AC0088711A48007CC8717A
:1055D0001848807C08721748B0F88000000A4872AA
:1055E000144890F8800088721248B0F88200000ACF
:1055F000C872104890F88200087310480088000AAA
:1056000048730E48008888730F210B48FBF7C6FCCF
:1056100000909DF801000849C8739DF800000874C7
:10562000012240F227710648FEF7EAFF38BD00006C
:10563000000801409C0000209E0200202400002061
:105640000038014038B504464FF400613048FCF79B
:105650001DFB304804705B202E4948702E48807D29
:1056600088702D48B0F8AE00000AC8702A4890F83B
:10567000AE0008712848807A48712748807E88717A
:105680002548808C000AC871234890F824000872CD
:105690002148008C000A48721F4890F82000887248
:1056A0001D48408C000AC8721B4890F822000873FD
:1056B0001A48008848731A48008818B90020194908
:1056C00008700DE01848007818B1032015490870DB
:1056D00006E014480078012802D002201149087021
:1056E000104800780B4988730F210A48FBF756FCD5
:1056F00000909DF801000749C8739DF800000874E8
:10570000012240F227710948FEF77AFF38BD0000F8
:10571000000801409E0200209C000020260000207E
:105720001A00002023000020220000200038014041
:1057300010B50948007838B10020074908700748BB
:105740000078FFF713FF06E00120034908700348C3
:105750000078FFF777FF10BD6C00002020000020CC
:105760002DE9F04106460F46FBF7D4F804000D463C
:1057700018BF0120284320F00040C0F17F6000F1F5
:10578000E040C00F0ED0301C18BF0120384320F07D
:105790000040C0F17F6000F1E040C00F04BF012075
:1057A000FFF74CF820462946BDE8F08140F6B830B6
:1057B00000BF011EA0F10100FBDC70472DE9F041A4
:1057C000002700204649087000214648A0F88210B2
:1057D0000020FCF75DFE4448006810F0020F11D075
:1057E00078204249086008E03F48006810F0020F46
:1057F00003D104273846FFF761F83C4800680028C9
:10580000F2D103E004273846FFF758F8364800681D
:1058100010F0040F11D078203449086008E03248B5
:10582000006810F0040F03D105273846FFF746F84B
:105830002E4800680028F2D103E005273846FFF71C
:105840003DF84FF4C870FBF7CFFB0446142C03DD82
:105850000A273846FFF732F82548006810F4805FC1
:105860000BD06420FBF71BFF2148006810F4805F19
:1058700003D008273846FFF721F84FF47A6000F08C
:1058800039F886B20120FCF703FE4FF47A6000F08D
:1058900031F885B2A81B84B240F6E440604340F67C
:1058A000FF7190FBF1F084B20020FCF7F1FDB6F53A
:1058B0007A6F02DCB5F57A6F03DD03273846FEF711
:1058C000FDFF462C08DD742C02DCFEF7BDFF03E073
:1058D0000B273846FEF7F2FFFEF7B6FFBDE8F08172
:1058E000220000209C000020080C01401C00002029
:1058F0000808014001460B48016000200A4AC2F82E
:10590000C400A2F8DC0000BF064800680028FBD1F4
:105910000548D0F8C400044AB2F8DC20B0FBF2F02D
:1059200000B270471C0000209C00002000B587B02A
:105930002A48FEF7EDFD012144F20900FCF75EFF65
:1059400001210420FCF758F94020ADF8180003208D
:105950008DF81A001C208DF81B0006A92048FCF7C2
:10596000C1F88020ADF8180004208DF81B0006A9AE
:105970001B48FCF7B7F825208DF8040000208DF8AF
:10598000050002208DF8060001208DF8070001A80F
:10599000FCF7A4FE012240F225511048FEF730FE2C
:1059A0004FF4E13002900020ADF80C00ADF80E008D
:1059B000ADF81000ADF814000C20ADF8120002A9EB
:1059C0000648FEF743FE01210448FEF795FD40F22C
:1059D000E5510248FEF778FD07B000BD00380140F0
:1059E000000C014010B5FFF7A1FF10BD0000000042
:1059F00016020000A202000004030000530300008E
:105A000095030000CF0300000304000033040000EE
:105A10005F04000087040000AE040000D204000010
:105A2000F4040000140500003305000051050000D7
:105A30006D05000089050000A3050000BD050000FC
:105A4000D6050000EE050000050600001C0600005B
:105A500032060000480600005D06000071060000E6
:105A60008506000099060000AC060000BF06000095
:105A7000D2060000E4060000F60600000807000059
:105A8000190700002A0700003A0700004B07000032
:105A90005B0700006B0700007B0700008A0700001F
:105AA0009A070000A9070000B8070000C607000019
:105AB000D5070000E3070000F1070000FF07000022
:105AC0000D0800001B080000280800003608000030
:105AD00043080000500800005D0800006A0800004C
