:020000040800F2
:100000006050002015DB000819DB00081BDB00082E
:100010001DDB00081FDB000821DB000800000000DA
:1000200000000000000000000000000023DB0008CA
:1000300025DB000800000000B3DA00084F120008BA
:100040002BDB00082BDB00082BDB00082BDB000878
:100050002BDB00082BDB00084D7900082BDB0008A8
:100060002BDB00082BDB00082BDB00087F8D000852
:100070002BDB00082BDB00082BDB00082BDB000848
:100080002BDB00082BDB00082BDB00082BDB000838
:100090002BDB00082BDB00082BDB00082BDB000828
:1000A0002BDB0008F57800082BDB00082BDB0008B1
:1000B000C37700081F7800089D7800082BDB000834
:1000C0002BDB00082BDB00082BDB00082BDB0008F8
:1000D0002BDB0008971200082BDB00082BDB000845
:1000E000B77D00082BDB00082BDB000800F002F8CE
:1000F00000F03AF80AA090E8000C82448344AAF188
:100100000107DA4501D100F02FF8AFF2090EBAE885
:100110000F0013F0010F18BFFB1A43F0010318473B
:10012000A02F0100C02F0100103A24BF78C878C169
:10013000FAD8520724BF30C830C144BF04680C60ED
:10014000704700000023002400250026103A28BF35
:1001500078C1FBD8520728BF30C148BF0B60704739
:100160001FB51FBD10B510BD0FF0BEFC1146FFF747
:10017000F7FF02F06BFE0FF0DCFC03B4FFF7F2FFB9
:1001800003BC0FF0DFFC00001CB5002100200022A2
:1001900000920192F74A92F89A20032A04DAF54A6B
:1001A000B2F8A020002A72DDF24AB2F8A0100AE0EC
:1001B0004A1EF04BA23333F81230EE4AA23222F834
:1001C00011304A1E91B20029F2DCEA4A92F89A20D4
:1001D000032A74DBE74AB2F8A0200A2A06DAE54AC5
:1001E000B2F8A020521CE34BA3F8A020E14AB2F9D8
:1001F000062002EB82025000DE4AB2F85020121AAA
:1002000012B2ADF80020DB4AB2F8A0200A2A57D17A
:10021000BDF90020322A09DDBDF80020323A12B2C1
:10022000ADF804203222ADF8002012E0BDF9002024
:1002300012F1320F0ADABDF80020323212B2ADF8F4
:1002400004206FF03102ADF8002002E00022ADF88A
:100250000420BDF90020092A09DBBDF80020093A75
:1002600012B2ADF802200922ADF8002013E0BDF96A
:10027000002012F1090F0BDCBDF80020093212B288
:10028000ADF802206FF00802ADF8002003E0A7E00F
:100290000022ADF80220BDF90030032493FBF4F3F3
:1002A0000344BDF9022002EBD27403EB6403BDF8F2
:1002B000044023441BB2AF4CA4F8A2300AE01EE075
:1002C000BDF9002002EBD27300EB63031BB2A94C13
:1002D000A4F8A2300020002106E0A64AA23232F99A
:1002E000112010444A1C91B2A24AB2F8A0208A42BE
:1002F000F3DCA04AB2F8A02090FBF2F025E09D4A82
:10030000B2F8A020002A20DD9A4AB2F85020994B7A
:10031000A3F8A2200020002106E0964AA23232F97A
:10032000112010444A1C91B2924AB2F8A0208A428D
:10033000F3DC904AB2F8A02090FBF2F08D4AB2F8BC
:10034000A020521E8B4BA3F8A0208A4A928932B17A
:1003500000EBC002052392FBF3F202F5A070854A80
:100360009289CAB941F2883290420ADD0020814A5E
:1003700092F88C200B2A28DA0D227E4B83F88C20F1
:1003800023E07C4A92F88C200D2A1ED1794A1278FB
:10039000784B83F88C2018E042F2684290420ADDE4
:1003A0000020744A92F88C200D2A0EDA0D22714B2F
:1003B00083F88C2009E06F4A92F88C200D2A04D132
:1003C0006C4A12786B4B83F88C20002804DD02B253
:1003D000684BA3F8442003E00022664BA3F84420B6
:1003E0001CBD1CB500210020002200920192624A2F
:1003F00092F89A20032A04DA5F4AB2F8A020002A71
:1004000072DD5D4AB2F8A0100AE04A1E5A4BA233D0
:1004100033F81230584AA23222F811304A1E91B2F3
:100420000029F2DC544A92F89A20032A74DB524ADB
:10043000B2F8A0200A2A06DA4F4AB2F8A020521CCD
:100440004D4BA3F8A0204C4AB2F9062002EB8202E1
:100450005000494AB2F85020121A12B2ADF80020EA
:10046000454AB2F8A0200A2A57D1BDF90020322A05
:1004700009DDBDF80020323A12B2ADF80420322274
:10048000ADF8002012E0BDF9002012F1320F0ADAB7
:10049000BDF80020323212B2ADF804206FF0310204
:1004A000ADF8002002E00022ADF80420BDF90020E4
:1004B000092A09DBBDF80020093A12B2ADF8022082
:1004C0000922ADF8002013E0BDF9002012F1090F58
:1004D0000BDCBDF80020093212B2ADF802206FF03B
:1004E0000802ADF8002003E0BCE00022ADF80220D5
:1004F000BDF90030032493FBF4F30344BDF902205B
:1005000002EBD27403EB6403BDF8044023441BB236
:10051000194CA4F8A2300AE01EE0BDF9002002EB5D
:10052000D27300EB63031BB2134CA4F8A23000207B
:10053000002106E0104AA23232F9112010444A1C70
:1005400091B20D4AB2F8A0208A42F3DC0A4AB2F80E
:10055000A02090FBF2F02CE0074AB2F8A020002A7D
:1005600027DD054AB2F85020034BA3F8A220002053
:10057000002109E0503B00201C3C0020F94A32F9E0
:10058000112010444A1C91B2F64AA23AB2F8A020B7
:100590008A42F3DCF34AA23AB2F8A02090FBF2F0D0
:1005A000F04AA23AB2F8A020521EEE4BA23BA3F8AA
:1005B000A020EC4AA23A928932B100EBC002052396
:1005C00092FBF3F202F5A070E64AA23A9289F2B9E0
:1005D00041F2883290420CDD0020E24AA23A92F8C1
:1005E0008C200D2A31DA0D22DE4BA23B83F88C20C1
:1005F0002BE0DC4AA23A92F88C200D2A25D1D94A68
:10060000A23A1278D74BA23B83F88C201DE042F22D
:10061000684290420CDD0020D24AA23A92F88C2027
:100620000D2A12DA0D22CF4BA23B83F88C200CE06E
:10063000CC4AA23A92F88C200D2A06D1C94AA23A95
:100640001278C84BA23B83F88C20002805DD02B24B
:10065000C44BA23BA3F8442004E00022C14BA23BC0
:10066000A3F844201CBD1CB50021002000220092EC
:100670000192BD4A92F89A20032A04DABA4AB2F8E3
:10068000A020002A72DDB84AB2F8A0100AE04A1E83
:10069000B54BA23333F81230B34AA23222F81130EC
:1006A0004A1E91B20029F2DCAF4A92F89A20032A3E
:1006B00074DBAD4AB2F8A0200A2A06DAAA4AB2F8D8
:1006C000A020521CA84BA3F8A020A74AB2F90620EC
:1006D00002EB82025000A44AB2F85020121A12B261
:1006E000ADF80020A04AB2F8A0200A2A57D1BDF9DF
:1006F0000020322A09DDBDF80020323A12B2ADF8EE
:1007000004203222ADF8002012E0BDF9002012F1E1
:10071000320F0ADABDF80020323212B2ADF80420EE
:100720006FF03102ADF8002002E00022ADF80420A5
:10073000BDF90020092A09DBBDF80020093A12B2F0
:10074000ADF802200922ADF8002013E0BDF9002029
:1007500012F1090F0BDCBDF80020093212B2ADF81E
:1007600002206FF00802ADF8002003E0A7E00022AD
:10077000ADF80220BDF90030032493FBF4F30344E9
:10078000BDF9022002EBD27403EB6403BDF8044010
:1007900023441BB2744CA4F8A2300AE01EE0BDF959
:1007A000002002EBD27300EB63031BB26E4CA4F883
:1007B000A2300020002106E06B4AA23232F911205B
:1007C00010444A1C91B2684AB2F8A0208A42F3DC75
:1007D000654AB2F8A02090FBF2F025E0624AB2F838
:1007E000A020002A20DD604AB2F850205E4BA3F81A
:1007F000A2200020002106E05B4AA23232F911203B
:1008000010444A1C91B2584AB2F8A0208A42F3DC44
:10081000554AB2F8A02090FBF2F0534AB2F8A0205B
:10082000521E514BA3F8A0204F4A928932B100EBDF
:10083000C002052392FBF3F202F5A0704A4A9289A6
:10084000CAB941F2883290420ADD0020464A92F845
:100850008C200D2A28DA0D22434B83F88C2023E0CC
:10086000414A92F88C200D2A1ED13F4A12783E4B05
:1008700083F88C2018E042F2684290420ADD0020A2
:10088000394A92F88C200D2A0EDA0D22364B83F865
:100890008C2009E0344A92F88C200D2A04D1324A87
:1008A0001278314B83F88C20002804DD02B22E4BE5
:1008B000A3F8442003E000222B4BA3F844201CBDE6
:1008C0001CB500210020002200920192274A92F8D4
:1008D0009A20032A04DA254AB2F8A020002A78DDFB
:1008E000224AB2F8A0100AE04A1E204BA23333F885
:1008F00012301E4AA23222F811304A1E91B200294B
:10090000F2DC1A4A92F89A20032A7ADB174AB2F8E4
:10091000A0200A2A06DA154AB2F8A020521C134B6E
:10092000A3F8A020114AB2F9062002EB820250007F
:100930000E4AB2F85020121A12B2ADF800200B4A3B
:10094000B2F8A0200A2A5DD1BDF90020322A0FDDBD
:10095000BDF80020323A12B2ADF804203222ADF8D0
:10096000002018E0BE3C0020E83C0020B43D002000
:10097000BDF9002012F1320F0ADABDF80020323240
:1009800012B2ADF804206FF03102ADF8002002E0A1
:100990000022ADF80420BDF90020092A09DBBDF8CA
:1009A0000020093A12B2ADF802200922ADF8002069
:1009B00013E0BDF9002012F1090F0BDCBDF8002097
:1009C000093212B2ADF802206FF00802ADF8002033
:1009D00003E0A7E00022ADF80220BDF900300324B7
:1009E00093FBF4F30344BDF9022002EBD27403EB52
:1009F0006403BDF8044023441BB2FE4CA4F8A230AB
:100A00000AE01EE0BDF9002002EBD27300EB6303A5
:100A10001BB2F84CA4F8A2300020002106E0F54AF1
:100A2000A23232F9112010444A1C91B2F14AB2F8B4
:100A3000A0208A42F3DCEF4AB2F8A02090FBF2F04B
:100A400025E0EC4AB2F8A020002A20DDE94AB2F8FD
:100A50005020E84BA3F8A2200020002106E0E54A40
:100A6000A23232F9112010444A1C91B2E14AB2F884
:100A7000A0208A42F3DCDF4AB2F8A02090FBF2F01B
:100A8000DC4AB2F8A020521EDA4BA3F8A020D94AC3
:100A9000928932B100EBC002052392FBF3F202F51A
:100AA000A070D44A9289CAB941F2883290420ADDD4
:100AB0000020D04A92F88C200D2A28DA0D22CD4B46
:100AC00083F88C2023E0CB4A92F88C200D2A1ED18B
:100AD000C84A1278C74B83F88C2018E042F268426B
:100AE00090420ADD0020C34A92F88C200D2A0EDACB
:100AF0000D22C04B83F88C2009E0BE4A92F88C206E
:100B00000D2A04D1BB4A1278BA4B83F88C200028F6
:100B100004DD02B2B74BA3F8442003E00022B54B3A
:100B2000A3F844201CBD10B50BF098FD4FF48030A5
:100B30000BF0B3FD0BF0F0FD01282BD110200AF0D3
:100B400089FF02200AF070FF00200BF02EFE4FF408
:100B5000E0600BF03CFE4FF4E0600BF02FFE4FF432
:100B60000021C8100BF004FE01200BF00DFE4FF425
:100B700080400BF047FE00BF39200BF0B1FD00288C
:100B8000FAD002200BF003FE00BF0BF009FE08288C
:100B9000FBD101E000BFFEE700200BF03CFE10BDE2
:100BA00008B502208DF80200FF20ADF800000020FB
:100BB0008DF80300694690480BF036FA4FF48060D8
:100BC000ADF8000004208DF8030069468A480BF058
:100BD0002BFA4FF40070ADF8000018208DF80300D8
:100BE000694685480BF020FA0320ADF80000042088
:100BF0008DF80300694681480BF016FA4FF46070D7
:100C0000ADF8000004208DF8030069467C480BF025
:100C10000BFA4FF47050ADF8000004208DF803007B
:100C2000694677480BF000FA3C20ADF80000102030
:100C30008DF80300694672480BF0F6F90120ADF813
:100C4000000004208DF8030069466E480BF0ECF9B3
:100C5000E020ADF8000014208DF8030069466748D5
:100C60000BF0E2F94FF44040ADF8000010208DF891
:100C70000300694661480BF0D7F94FF48070ADF876
:100C8000000010208DF8030069465F480BF0CCF996
:100C90001020ADF8000000208DF803006946594887
:100CA0000BF0C2F94FF47E40ADF8000048208DF8FB
:100CB0000300694654480BF0B7F94FF47070ADF873
:100CC000000010208DF8030069464E480BF0ACF987
:100CD0004FF44060ADF8000010208DF80300694625
:100CE00046480BF0A1F94FF44040ADF80000102049
:100CF0008DF80300694642480BF096F94FF40071F5
:100D00003D480BF03DFA4CF2E0013C480BF038FA5C
:100D10004FF480713C480BF033FA4FF4707139484E
:100D20000BF030FA4FF4406134480BF029FA4FF4DD
:100D3000404133480BF024FA08BD00B585B02520AA
:100D40008DF8100000208DF811008DF812000120A0
:100D50008DF813004FF4E13000900020ADF804004E
:100D6000ADF80600ADF80800ADF80C0004A80BF0D3
:100D7000D0FA694625480CF0CEFC012123480CF03E
:100D800038FD012240F2255120480CF03EFD0122A1
:100D900040F227711D480CF038FD05B000BD1FB5AD
:100DA00019208DF80C0000208DF80D008DF80E0034
:100DB00001208DF80F0003A80BF0ABFA44F6206079
:100DC000ADF804000520ADF800000020ADF80200E9
:100DD000ADF806008DF8080069460D480BF0E7FEF7
:100DE00000210B480CF06AFA0948008840F00C001A
:100DF00007490FE0B43D002000080140000C01400D
:100E0000001801400010014000140140003801406A
:100E1000002C014008800121FE480CF030FC01222A
:100E20001146FC480CF064F91FBD30B1FA4909883D
:100E300041F00801F84A118006E0F74909884FF6A9
:100E4000F7721140F44A1180704730B1F2490988B5
:100E500041F00401F04A118006E0EF4909884FF69D
:100E6000FB721140EC4A118070471FB51C208DF8B1
:100E70000C0000208DF80D008DF80E0001208DF87B
:100E80000F0044F62060ADF804000520ADF8000026
:100E90000020ADF80200ADF8060003A80BF039FA07
:100EA00069464FF080400BF082FE00214FF08040F9
:100EB0000CF004FA4FF08040008840F00C004FF036
:100EC00080410880012188070CF0D9FB01221146DE
:100ED00090070CF00DF91FBD1FB51D208DF80C00FB
:100EE00000208DF80D008DF80E0001208DF80F0008
:100EF00044F62060ADF804000520ADF800000020A5
:100F0000ADF80200ADF8060003A80BF002FA69463E
:100F1000C2480BF04CFE0021C0480CF0CFF9BF488E
:100F2000008840F00C00BD4908800121BB480CF04E
:100F3000A6FB01221146B9480CF0DAF81FBD10B526
:100F40000A46FF23B64C237063700FE010F8013B94
:100F5000B34C247883EA0401B14B5B78B14C645CF8
:100F60006340AF4C2370B04B5B5C6370131EA2F107
:100F70000102EBD110BD10B50446A948047200F27D
:100F8000A110A749486005200AF0A8F8A4484068C5
:100F90000178A3484068401CA14B58609E480C381B
:100FA0000CF08FFC1420FFF740FF10BD2DE9F04737
:100FB0000546884617461C46DDF8209000269848CE
:100FC00080F8A18180F8A271062F20D1002180F83D
:100FD000A31180F8A441601C84B235F814000112FA
:100FE0008F4880F8A51115F8141080F8A611062175
:100FF00000F2A110FFF7A3FF8948017880F8A7113C
:10100000417880F8A8110820FFF7B5FF3BE04FEAD0
:101010004960010E824880F8A31113E035F81400EE
:1010200002123046711CCEB2C01C80490A542046C0
:10103000611C8CB215F810203046711CCEB2C01C59
:101040007A490A54B9F10000A9F1010101F0FF0940
:10105000E4D1734890F8A301C11C7448FFF76FFFF7
:101060006F4802783046711CCEB2C01C6F490A54DA
:101070006B484278F01C0A54694991F8A311491D44
:10108000C8B2FFF778FFBDE8F0871FB51E208DF8C6
:101090000C0000208DF80D008DF80E0001208DF859
:1010A0000F0044F62060ADF804000520ADF8000004
:1010B0000020ADF80200ADF8060003A80BF029F9F6
:1010C00069465B480BF073FD002159480CF0F6F8B7
:1010D0005748008840F00C005549088001215448C9
:1010E0000CF0CDFA0122114651480CF001F81FBD59
:1010F00010B54FF496500BF0A1FC04200BF08AFCC5
:1011000001200BF09FFC01200BF0B7FC10BD0EB5C9
:1011100001200AF07EFC002101200BF08AF801205A
:10112000019000208DF808000C208DF809000120A6
:101130008DF80A0001A80AF0E5FB01208DF80300F4
:1011400000208DF8010001208DF8020006208DF8A6
:10115000000068460BF0DDF80EBD00B585B000203C
:10116000009001208DF804008DF805004FF46020F8
:1011700002900020039009208DF8100069462D4848
:101180000AF0A7F80623012200212A480AF039F9BB
:1011900006230222012127480AF033F906230322FD
:1011A000022124480AF02DF90623042203212148B4
:1011B0000AF027F90623052204211E480AF021F926
:1011C00006231A4605211B480AF01BF906230722AD
:1011D000194618480AF015F9062308220721154870
:1011E0000AF00FF9062309220E2112480AF009F924
:1011F000012110480AF099F801210E480AF0A0F8E0
:101200000C480AF0B4F800BF0A480AF0B5F8002804
:10121000FAD111E0002C01400C38014000040040DC
:10122000103F00205A1B01085A1C0108B140002041
:101230000008004000240140FE480AF0A7F800BF63
:10124000FC480AF0A8F80028FAD105B000BD10B596
:10125000F9480078401CF8490870F848B0F87E005A
:1012600041F28831884206DAF448B0F87E00401C2A
:10127000F249A1F87E00F248408944F62061884294
:1012800004DAEF484089401CED49488108F076FABD
:1012900008F079F910BD70B50CF0EAFB054640F294
:1012A0002551E8480CF070FB00287DD0E5480CF093
:1012B0000CFBC4B2E2484089052805DDE0484474CF
:1012C0000020DF49487228E0DD48407A0A2805DA24
:1012D000DB48407A401CDA4948721AE0D848807CE2
:1012E000162809D1D648407A962805DAD448407A9B
:1012F000401CD34948720CE0D148407C312808D1C9
:10130000CF48407A1E2804DACD48407A401CCC49A8
:101310004872CB48417A113044540020C849488172
:101320000846407A072817D10846407CC349097807
:10133000884203D0C248407C30280DD1C048807C10
:10134000162809D0012007F025F80020BC49487272
:10135000BD49086809F030FAB948407A932813D19A
:10136000B748407CB549097888420DD1B448807CA3
:10137000162809D1012007F00DF80020B049487265
:10138000B149086809F018FAAD48407A1C2813D111
:10139000AB48407C31280FD1A948807C06280BD16E
:1013A000012006F0F7FF00E006E00020A4494872A3
:1013B000A549086809F000FA40F22771A1480CF02D
:1013C000E3FAB0B19E48017A007A401E9C4A10723E
:1013D00000290BDD10464068017810464068401C2B
:1013E0001346586097480CF06CFA02E00020FFF7B3
:1013F0001CFD28460CF040FB70BD00B58DB0934835
:101400000AF052F98B484C3002908C4824300390FB
:10141000002004900920059000200690802007906D
:10142000400008908000099020200A9000020B9054
:1014300000200C9002A985480AF0CFF90B208DF806
:10144000040001208DF805008DF806008DF80700D6
:1014500001A80AF05EFF012202217C480AF0F3F99C
:1014600001217A480AF0E4F90DB000BD10B54FF43F
:10147000707177480AF086FE4FF4406175480AF0B3
:101480007FFE4FF4404174480AF07AFE4FF4404129
:1014900070480AF075FE4FF4807170480AF070FED3
:1014A000FFF741FB01214FF6FD700BF047FAFFF704
:1014B00077FB012108460BF034FA012108460BF0B6
:1014C0004AFA012102200BF046FA012104200BF018
:1014D00042FAFFF764FCFFF7C8FCFFF7FDFCFFF7DB
:1014E000D4FD10BD45F255525D4B1A601A4650604E
:1014F00091604AF6AA221A604CF6CC421A607047F4
:101500002DE9F0410546002400260CF0B1FA07460B
:101510002C79687900EB042084B2E878514931F8DD
:101520001060E87821F81040E878801E752880F077
:10153000BA86DFE810F07500C300F40025015601FB
:1015400079019C01BF01E201EC01F60100020A02EF
:101550002C024E0270029D02A702B102BB02C5021C
:10156000CF02D902E302ED02210355038903B80635
:10157000B806B806B806BD03C703D103DB03E5030D
:10158000EF03F90303040D04170421042B043504AD
:101590004B04610477049704A104AB04B504BF04B1
:1015A000C904D304DD04E704F104FB0405050F05B9
:1015B000190523052D05370541054B0555055F0523
:1015C000690573057D05870591059B05A505AF0593
:1015D000B905C305CD05D705DA05DD05E005E30549
:1015E000ED05F70501060B0615061E061F0620066B
:1015F0002A0634063E06B806B806B806B806B80687
:10160000B806B806B806B806B806B806B80648065A
:1016100054065F066A06750680069706A206AD06A2
:1016200020B21149A1F87C000846808920B3A4F1BA
:1016300020001BE000240140AD0000209438002071
:10164000103F002000380140803800200800024090
:1016500000100140000C014000180140001401403E
:1016600000300040BE390020503B002000EB8000DD
:10167000092190FBF1F084B2F8480078022807D1E4
:1016800064206043F549B1F9241090FBF1F084B275
:101690000020F24981F89A0021B2F048C18000236D
:1016A00002221146801D0CF04BFBEC49B1F90600FB
:1016B00007F062FBE949C1F88000F8E220B2E8498E
:1016C000A1F87C000846808938B1A4F1200000EB25
:1016D0008000092190FBF1F084B2E14800780228F3
:1016E00007D164206043DE49B1F9241090FBF1F08A
:1016F00084B20020DA4981F89A0021B2D848C1802A
:10170000002342220221801D0CF01AFBD449B1F9BA
:10171000060007F031FBD249C1F88000CDE720B2C6
:10172000D049A1F87C000846808938B1A4F1200096
:1017300000EB8000092190FBF1F084B2C9480078E9
:10174000022807D164206043C649B1F9241090FBF8
:10175000F1F084B20020C34981F89A0021B2C14857
:10176000C180002382220221801D0CF0E9FABD49CC
:10177000B1F9060007F000FBBA49C1F880009CE708
:1017800020B2B949A1F87C000846808938B1A4F19B
:10179000200000EB8000092190FBF1F084B2B248F8
:1017A0000078022807D164206043AF49B1F92410C2
:1017B00090FBF1F084B20020AB4981F89A0021B28D
:1017C000A948C1800023C2220221801D0CF0B8FA72
:1017D000A549B1F9060007F0CFFAA349C1F8800086
:1017E0006BE704F0010474B1287830280BD19B48D2
:1017F00090F88E0018B921B29848018106E031B204
:101800009648018102E021B2944801819348008901
:10181000E978964A22F811000023042202218F4819
:1018200008300CF08DFA48E704F0010474B1287810
:1018300030280BD18A4890F88E0018B921B2884818
:10184000018106E031B28648018102E021B284487C
:10185000018183480089E978844A22F81100002335
:10186000442202217E4808300CF06AFA25E704F091
:10187000010474B1287830280BD17A4890F88E0092
:1018800018B921B27748018106E031B2754801816B
:1018900002E021B27348018172480089E978734AF5
:1018A00022F811000023842202216E4808300CF037
:1018B00047FA02E704F0010474B1287830280BD10C
:1018C000694890F88E0018B921B26748018106E096
:1018D00031B26548018102E021B26348018162486A
:1018E0000089E978614A22F811000023C42202210C
:1018F0005D4808300CF024FADFE621B257484181F8
:101900000023062202210A300CF01AFAD5E621B291
:10191000534841810023462202210A300CF010FA7C
:10192000CBE621B24F4841810023862202210A30B2
:101930000CF006FAC1E621B24B4841810023C622D1
:1019400002210A300CF0FCF9B7E621B2434881814C
:1019500074B1B0F9060000EBC000052190FBF1F076
:10196000203000B23D49A1F87C004049888006E063
:101970003A48C0883949A1F87C003C498880002356
:101980000822022135480C300CF0DAF995E621B234
:101990003348818174B1B0F9060000EBC000052125
:1019A00090FBF1F0203000B22D49A1F87C002F49C6
:1019B000C88006E02A48C0882949A1F87C002B4944
:1019C000C88000234822022125480C300CF0B8F9C9
:1019D00073E621B22348818174B1B0F9060000EBAF
:1019E000C000052190FBF1F0203000B21D49A1F8A4
:1019F0007C001E49088106E01A48C0881949A1F8F0
:101A00007C001A49088100238822022115480C30E5
:101A10000CF096F951E621B21348818174B1B0F906
:101A2000060000EBC000052190FBF1F0203000B271
:101A30000D49A1F87C000D49488106E00A48C0889C
:101A40000949A1F87C00094948810023C8220221E4
:101A500005480C300CF074F92FE60000503B0020D4
:101A60001C3C0020E83C0020B43D0020BE39002092
:101A700021B2F748C18100230A2202210E300CF066
:101A80005FF91AE621B2F348C18100234A220221FC
:101A90000E300CF055F910E621B2EF48C181002359
:101AA0008A2202210E300CF04BF9FDE321B2EB4803
:101AB000C1810023CA2202210E300CF041F9F3E368
:101AC00021B2E348018200230C22022110300CF0E5
:101AD00037F9E9E321B2DF48018200234C220221D9
:101AE00010300CF02DF9DFE321B2DB480182002336
:101AF0008C22022110300CF023F9D5E321B2D74813
:101B000001820023CC22022110300CF019F9CBE322
:101B1000022C1AD1CE48007802280FD0CC48B0F958
:101B20007C00CB49B1F924104843642190FBF1F0CB
:101B300000B2C749A1F87C00C9498880C448B0F800
:101B40006C00C349A1F89C0013E0C148007802284A
:101B50000FD1BF48B0F97C0064214843BC49B1F9BA
:101B6000241090FBF1F000B2B949A1F87C00BC4907
:101B70008880B7490C7097E3022C1AD1B5480078D9
:101B800002280FD0B348B0F97C00B249B1F9241053
:101B90004843642190FBF1F000B2AE49A1F87C000B
:101BA000AF49C880AB48B0F86C00AA49A1F89C00C6
:101BB00013E0A848007802280FD1A648B0F97C00AD
:101BC00064214843A349B1F9241090FBF1F000B21D
:101BD000A049A1F87C00A249C8809E490C7063E32B
:101BE000022C1AD19C48007802280FD09A48B0F9EC
:101BF0007C009949B1F924104843642190FBF1F02D
:101C000000B29549A1F87C00954908819248B0F846
:101C10006C009149A1F89C0013E08F4800780228DD
:101C20000FD18D48B0F97C00642148438A49B1F94D
:101C3000241090FBF1F000B28749A1F87C0088499C
:101C4000088185490C702FE3022C1AD18348007853
:101C500002280FD08148B0F97C008049B1F92410E6
:101C60004843642190FBF1F000B27C49A1F87C006C
:101C70007B4948817948B0F86C007849A1F89C000C
:101C800013E07648007802280FD17448B0F97C0040
:101C9000642148437149B1F9241090FBF1F000B27E
:101CA0006E49A1F87C006E4948816C490C70FBE2DA
:101CB00021B26748818200231022022114300CF0E7
:101CC0003FF8F1E221B263488182002350220221D1
:101CD00014300CF035F8E7E221B25F48818200232E
:101CE0009022022114300CF02BF8DDE221B25B4887
:101CF00081820023D022022114300CF021F8D3E29B
:101D000021B25348C18200231222022116300CF066
:101D100017F8C9E221B24F48C182002352220221A2
:101D200016300CF00DF8BFE221B24B48C1820023FF
:101D30009222022116300CF003F8B5E221B2474896
:101D4000C1820023D222022116300BF0F9FFABE250
:101D500021B23F48018300231422022118300BF0E6
:101D6000EFFFA1E221B23B4801830023542202216C
:101D700018300BF0E5FF97E221B2374801830023CA
:101D80009422022118300BF0DBFF8DE221B23348A0
:101D900001830023D422022118300BF0D1FF83E20B
:101DA00021B22B484184B0F92200C0EB00104FF65D
:101DB000FF7101EA80002649A1F86C0000231E2271
:101DC0000221234822300BF0BBFF6DE221B22148F3
:101DD0004184B0F92200C0EB00104FF6FF7101EA18
:101DE00080001C49A1F86C0000235E2202211948E2
:101DF00022300BF0A5FF57E221B217484184B0F919
:101E00002200C0EB00104FF6FF7101EA800012497A
:101E1000A1F86C0000239E2202210F4822300BF013
:101E20008FFF41E221B20D484184B0F92200C0EB9E
:101E300000104FF6FF7101EA80000849A1F86C001C
:101E40000023DE220221054822300BF079FF2BE22D
:101E5000503B00201C3C0020E83C0020B43D00200A
:101E6000BE39002021B2F9488184002320220221BA
:101E700024300BF065FF17E221B2F548818400237E
:101E80006022022124300BF05BFF0DE221B2F14809
:101E900081840023A022022124300BF051FF03E2B1
:101EA00021B2ED4881840023E022022124300BF08E
:101EB00047FFF9E121B2E548C18300231A2202213C
:101EC0001E300BF03DFFEFE121B2E148C18300235A
:101ED0005A2202211E300BF033FFE5E121B2DD482A
:101EE000C18300239A2202211E300BF029FFDBE17F
:101EF00021B2D948C1830023DA2202211E300BF01F
:101F00001FFFD1E121B2D148018400231C2202210C
:101F100020300BF015FFC7E121B2CD48018400232A
:101F20005C22022120300BF00BFFBDE121B2C94839
:101F3000018400239C22022120300BF001FFB3E139
:101F400021B2C54801840023DC22022120300BF09D
:101F5000F7FEA9E121B2BD484183002316220221E8
:101F60001A300BF0EDFE9FE121B2B9484183002306
:101F7000562202211A300BF0E3FE95E121B2B5485A
:101F800041830023962202211A300BF0D9FE8BE107
:101F900021B2B14841830023D62202211A300BF02E
:101FA000CFFE81E121B2A9488183002318220221BA
:101FB0001C300BF0C5FE77E121B2A54881830023D8
:101FC000582202211C300BF0BBFE6DE121B2A1486A
:101FD00081830023982202211C300BF0B1FE63E1C3
:101FE00021B29D4881830023D82202211C300BF0AE
:101FF000A7FE59E121B29548C18400232222022183
:1020000026300BF09DFE4FE121B29148C1840023A0
:102010006222022126300BF093FE45E121B28D4869
:10202000C1840023A222022126300BF089FE3BE16D
:1020300021B28948C1840023E222022126300BF01C
:102040007FFE31E121B28148018500232422022153
:1020500028300BF075FE27E121B27D480185002371
:102060006422022128300BF06BFE1DE121B2794879
:1020700001850023A422022128300BF061FE13E128
:1020800021B2754801850023E422022128300BF09B
:1020900057FE09E121B26D48418500232622022125
:1020A0002A300BF04DFEFFE021B269484185002344
:1020B000662202212A300BF043FEF5E021B265488A
:1020C00041850023A62202212A300BF039FEEBE0E5
:1020D00021B2614841850023E62202212A300BF01B
:1020E0002FFEE1E059484480DEE059484480DBE0BF
:1020F00058484480D8E058484480D5E021B253483D
:1021000081850023282202212C300BF019FECBE020
:1021100021B24F4881850023682202212C300BF028
:102120000FFEC1E021B24B4881850023A822022185
:102130002C300BF005FEB7E021B247488185002323
:10214000E82202212C300BF0FBFDADE04348048077
:1021500000232A2202213D482E300BF0F1FDA3E09E
:102160003F48448000236A220221801C0BF0E8FDD6
:102170009AE099E098E021B23448018600232C22AD
:10218000022130300BF0DCFD8EE021B230480186B8
:1021900000236C22022130300BF0D2FD84E021B20A
:1021A0002C4801860023AC22022130300BF0C8FD00
:1021B0007AE021B2284801860023EC220221303047
:1021C0000BF0BEFD70E020B22549888000234FF45B
:1021D000807202212248001D0BF0B2FD64E021B2A2
:1021E0001F48C18000234FF481720221801D0BF033
:1021F000A7FD59E021B21A48018100234FF48272F1
:10220000022108300BF09CFD4EE021B214484181C0
:1022100000234FF4837202210A300BF091FD43E05A
:1022200021B20F48818100234FF4847202210C30C7
:102230000BF086FD38E021B20948C18100234FF43C
:10224000857202210E300BF07BFD2DE0503B00200B
:102250001C3C0020E83C0020B43D00201000002081
:102260009438002021B2F948018200234FF486728D
:10227000022110300BF064FD16E021B2F3484182D8
:1022800000234FF48772022112300BF059FD0BE04E
:1022900021B2EE48818200234FF48872022114306B
:1022A0000BF04EFD00E000BF00BF38460BF0E4FB32
:1022B000BDE8F081AAB0002500BF1420FEF7C5FDDF
:1022C0005520E349A1F804014AF60A70A1F8060175
:1022D00039E3E04929AA0868002108F0B8F9DE4886
:1022E000407CDA49097888426FD1DB48807C162827
:1022F000FAD10BF0BDFB804600250AE0D64811302C
:10230000405D01A948550021D34811304155681C52
:10231000C5B2942DF2DB922101A8FEF710FE4046D3
:102320000BF0AAFBCC4800789DF896108842CFD1DC
:10233000C94840789DF897108842C9D1C3480078B1
:102340008DF89C0006208DF89D0000208DF89E00E1
:102350000DF1060402208DF89F00002512E014F80C
:10236000010B8DF8A00014F8010B8DF8A10027A82F
:10237000FFF7C6F89DF89F00401CC0B28DF89F0083
:10238000681CC5B2042DEADB0DF116040A208DF895
:102390009F00002512E014F8010B8DF8A00014F83E
:1023A000010B8DF8A10027A8FFF7AAF89DF89F0060
:1023B000401CC0B28DF89F00681CC5B2042DEADB3A
:1023C00012208DF89F00002513E035E114F8010B71
:1023D0008DF8A00014F8010B8DF8A10027A8FFF7D5
:1023E0008FF89DF89F00401CC0B28DF89F00681CBC
:1023F000C5B2042DEADB16208DF89F00002512E0FF
:1024000014F8010B8DF8A00014F8010B8DF8A10051
:1024100027A8FFF775F89DF89F00401CC0B28DF803
:102420009F00681CC5B2042DEADB1A208DF89F00BE
:10243000002512E014F8010B8DF8A00014F8010B30
:102440008DF8A10027A8FFF75BF89DF89F00401CBE
:10245000C0B28DF89F00681CC5B2042DEADB2620AF
:102460008DF89F00002512E014F8010B8DF8A000F4
:1024700014F8010B8DF8A10027A8FFF741F89DF88B
:102480009F00401CC0B28DF89F00681CC5B2042D8F
:10249000EADB2A208DF89F00002512E014F8010BDA
:1024A0008DF8A00014F8010B8DF8A10027A8FFF704
:1024B00027F89DF89F00401CC0B28DF89F00681C53
:1024C000C5B2042DEADB2E208DF89F00002512E016
:1024D00014F8010B8DF8A00014F8010B8DF8A10081
:1024E00027A8FFF70DF89DF89F00401CC0B28DF89B
:1024F0009F00681CC5B2042DEADB32208DF89F00D6
:10250000002512E014F8010B8DF8A00014F8010B5F
:102510008DF8A10027A8FEF7F3FF9DF89F00401C4F
:10252000C0B28DF89F00681CC5B2042DEADB3620CE
:102530008DF89F00002512E014F8010B8DF8A00023
:1025400014F8010B8DF8A10027A8FEF7D9FF9DF81C
:102550009F00401CC0B28DF89F00681CC5B2042DBE
:10256000EADB3A208DF89F00002512E014F8010BF9
:102570008DF8A00014F8010B8DF8A10027A8FEF734
:10258000BFFF9DF89F00401CC0B28DF89F00681CE3
:10259000C5B2042DEADB3E208DF89F00002512E035
:1025A00014F8010B8DF8A00014F8010B8DF8A100B0
:1025B00027A8FEF7A5FF9DF89F00401CC0B28DF82C
:1025C0009F00681CC5B2042DEADB42208DF89F00F5
:1025D000002512E014F8010B8DF8A00014F8010B8F
:1025E0008DF8A10027A8FEF78BFF9DF89F00401CE7
:1025F000C0B28DF89F00681CC5B2042DEADB0DF156
:102600008E0452208DF89F00002512E014F8010B73
:102610008DF8A00014F8010B8DF8A10027A8FEF793
:102620006FFF9DF89F00401CC0B28DF89F00681C92
:10263000C5B2042D7EDAE9E70748407C31287AD11B
:102640000BF016FA8046002511E0000094380020B7
:10265000BE39002080380020103F0020FA48405D3D
:1026600001A948550021F8484155681CC5B21D2DE7
:10267000F4DB1B2101A8FEF762FC40460BF0FCF9DD
:10268000F148113800789DF81F10884252D1EE4869
:10269000113840789DF820108842F7D1EB48007837
:1026A0008DF89C0006208DF89D0000208DF89E007E
:1026B0009DF807008DF89F009DF808008DF8A00098
:1026C0009DF809008DF8A1009DF89F00401CC0B244
:1026D0008DF89F00DD49087800EBD0714910A0EB20
:1026E000410149B3D9490978481C00EBD071491020
:1026F000C1F11B0101AA565C9DF89F700BF0B8F95F
:10270000804606F00100002802DD27A8FEF7F8FE4B
:1027100006F00200002806DD781CC0B28DF89F008C
:1027200027A8FEF7EDFE06F0040000280ADDB81C1D
:10273000C0B202E084E049E013E08DF89F0027A8D2
:10274000FEF7DEFE06F00800002806DDF81CC0B229
:102750008DF89F0027A8FEF7D3FE40460BF08CF9BA
:10276000F1E0BA490978481C00EBD0714910C1F179
:102770001B0101AA565C9DF89F7006F0100000280E
:1027800002DD27A8FEF7BCFE06F02000002806DDCB
:10279000781CC0B28DF89F0027A8FEF7B1FE06F0A6
:1027A0004000002806DDB81CC0B28DF89F0027A8A5
:1027B000FEF7A6FE06F080000028D1DDF81CC0B2AE
:1027C0008DF89F0027A8FEF79BFEBCE0002508E0DF
:1027D0009D48405D27A9485500219B484155681CEC
:1027E000C5B2082DF4DB062127A8FEF7A8FB964802
:1027F000113800789DF8A210884221D192481138F2
:1028000040789DF8A31088421AD19DF89F00401C83
:10281000C0B28DF89F009DF89D00032824D19DF83B
:102820009C008A49097888420BD19DF8A10000904C
:102830009DF89F308548017803228548FEF7B6FB56
:1028400081E08248007801287DD19DF89C001E28F7
:1028500079D19DF8A10000909DF89F3003221E21A0
:102860007B48FEF7A3FB6EE09DF89D0004280BD18A
:102870009DF8A10000909DF89F30744801780422D3
:102880007448FEF793FB5EE09DF89D0006282FD16B
:102890009DF89C00302815D10BF0EAF88046002501
:1028A0000AE027A8FEF72CFE9DF89F00401CC0B24E
:1028B0008DF89F00681CC5B2042DF2DB40460BF07A
:1028C000DBF840E09DF89C006049097888423AD1E5
:1028D00027A8FEF715FE012000909DF89F00401EDE
:1028E00083B25A48017806225948FEF75FFB2AE076
:1028F0009DF89D00AA2826D15448007852491139E4
:1029000081F8A101AA215048113880F8A2110321B1
:1029100080F8A311012180F8A411002180F8A511ED
:10292000082180F8A611062100F2A110FEF707FB8E
:1029300045481138017880F8A711417880F8A8112E
:102940000820FEF718FBC4E486B0142101A80DF09E
:102950008DF800BF47F2305005F072FC05F009FE1B
:10296000FEF7D5FBFEF749FDFEF7F7FBFEF7C0FBD0
:10297000FEF7E3F9002409E000213448483040F82C
:102980002410243020F81410601CC4B2092CF3DB8E
:102990000121314808F009FD06F07FF901202F4997
:1029A000088007F0C5FD2E490860002007F0C0FD33
:1029B0002B494860002007F0BBFD294988600020B2
:1029C00007F0B6FD2649C860002007F0B1FD244994
:1029D00008610523234A0021234808F035F806231F
:1029E000224A0021224808F02FF80723214A00211B
:1029F000214808F029F80823204A0021204808F03F
:102A000023F804231F4A0021AFF2577008F01CF886
:102A100040F252310420FEF765FD16E201A800F0F5
:102A20003DFAFDF7B1FBFDF7DCFCFDF71CFEFDF701
:102A300047FF1548006800F4007020B100200349EA
:102A4000A1F880002EE021E0213F002094380020F2
:102A5000BE3900206E390020002401401000002003
:102A6000803800209C09002089430008341200208F
:102A700095500008CC1A0020A75D000864230020B0
:102A8000B56A00087431002008180140F748B0F812
:102A90008000322806DAF548B0F88000401CF3497F
:102AA000A1F88000F248006800F4807020B1002096
:102AB000EE49A1F882000BE0EC48B0F88200322821
:102AC00006DAEA48B0F88200401CE849A1F8820022
:102AD000E748006800F0800020B10020E349A1F839
:102AE00084000BE0E148B0F88400322806DADF48C1
:102AF000B0F88400401CDD49A1F88400DD4800687E
:102B000000F0020020B10020D849A1F886000BE0B7
:102B1000D648B0F88600322806DAD448B0F88600E5
:102B2000401CD249A1F88600D348B0F84400D349EC
:102B30008880D348B0F84400C880D248B0F8440038
:102B40000881D148B0F844004881CB48B0F848002B
:102B50008882CB48B0F84800C882CA48B0F848001C
:102B60000883C948B0F848004883C848B0F8B600A0
:102B7000C149B1F946104843642190FBF1F0BF49C7
:102B80008883C248B0F8B600BD49B1F94610484341
:102B9000642190FBF1F0B949C883BC48B0F8B60095
:102BA000B849B1F946104843642190FBF1F0B349AC
:102BB0000884B648B0F8B600B349B1F946104843A6
:102BC000642190FBF1F0AD494884AB48008910B90D
:102BD0000120888547E0A848007818B90020A74957
:102BE000888540E0A44890F88C000B2805DBA248BB
:102BF00090F88C00A149888535E09F48007801282D
:102C00001ED19D4890F88D00012803D102209B49D8
:102C1000888528E0984890F88D00022804D09648CE
:102C200090F88D00042803D10420944988851AE087
:102C3000914890F88D00032815D19049888512E0BD
:102C40008D480078022803D105208C4988850AE048
:102C500089480078032803D106208849888502E046
:102C60000120864988858648008918B90120834952
:102C7000C88543E08248007818B900207F49C8859C
:102C80003CE07F4890F88C000B2805DB7C4890F8EE
:102C90008C007A49C88531E07948007801281ED136
:102CA000774890F88D00012803D102207349C88528
:102CB00024E0734890F88D00022804D0704890F802
:102CC0008D00042803D104206C49C88516E06C48A7
:102CD00090F88D00032811D16849C8850EE0684836
:102CE0000078022803D105206449C88506E06448BD
:102CF0000078032802D106206049C8856148008910
:102D000018B901205D49088643E05E48007818B98B
:102D100000205A4908863CE05A4890F88C000B285D
:102D200005DB584890F88C005449088631E0554836
:102D3000007801281ED1534890F88D00012803D156
:102D400002204E49088624E04E4890F88D00022863
:102D500004D04C4890F88D00042803D10420474942
:102D6000088616E0474890F88D00032811D14349A2
:102D700008860EE043480078022803D105203F4929
:102D8000088606E03F480078032802D106203B4928
:102D900008863D48008918B901203849488643E033
:102DA0003948007818B90020344948863CE0364854
:102DB00090F88C000B2805DB334890F88C002F49E5
:102DC000488631E03048007801281ED12E4890F81E
:102DD0008D00012803D102202849488624E02A4892
:102DE00090F88D00022804D0274890F88D00042820
:102DF00003D104202149488616E0234890F88D002D
:102E0000032811D11D4948860EE01F48007802288A
:102E100003D105201949488606E01B48007803289D
:102E200002D10620154948861048B0F88A00174993
:102E3000A1F8B400032005F0ADFA4AF6AA2014491F
:102E4000086041F2883008F049F9E7E500BFFEF775
:102E50000DFB06F074FB0A230E4A0021AFF2175057
:102E600007F0F2FD06F00BFC17E00000943800209C
:102E700008180140080C0140503B00206E3900202A
:102E80001C3C0020E83C0020B43D0020BE3900205E
:102E9000003000407C380020D9E7FDE72DE9F047FD
:102EA0000546002408270026A046FE4830F81700F3
:102EB000642801DABDE8F0870AF0DAFD8146F948B6
:102EC000243850F82760243030F817800021243847
:102ED00040F82710243020F8171048460AF0CCFD9F
:102EE00096FBF8F6EF486C38B0F9040070434FF4E5
:102EF000A5714843EC49212202FB161190FBF1F623
:102F0000002406E0601C35F8100025F81400601C51
:102F100044B2042CF6DB30460CF072FB2881288981
:102F2000E24988870026002404E035F914000644AD
:102F3000601C44B2052CF8DB052096FBF0F000B2D3
:102F4000D8496C3908830846B0F9180041F6583161
:102F5000884203DD0846D3496C390883D1486C3870
:102F6000B0F91800002814DDCE486C38B0F918000C
:102F70004FF47A7190FBF1F044B2CA486C38B0F962
:102F8000180090FBF1F201FB120018B1601C44B272
:102F900000E00124E2B2C3486C38B0F918100120F7
:102FA0000CF093FBBF496C39C861E2B20846B0F936
:102FB000181000200CF089FBBA496C39086200BF78
:102FC00078E72DE9F04F85B0002500240026A146C2
:102FD000B44830F81500642802DA05B0BDE8F08F77
:102FE0000AF046FD0490AF48243850F8256024309C
:102FF00030F815900021243840F82510243020F8AE
:10300000151004980AF038FD96FBF9F0A849A1F8CC
:103010007000A84800680DF0F1FD0746A64AA74BCE
:103020000DF03CFECDE90201A149B1F870000DF0B0
:10303000E5FD0746A04AA24B0DF030FECDE90001A8
:10304000DDE902230DF052FB82460DF093FD984915
:10305000A1F870000846B0F87000964908609148E1
:103060006C38B0F9060000FB09F4A64201DD361BFE
:1030700000E00026C9EB09300EF0B8FA89496C3936
:103080000390B1F908000EF0B1FA834630460EF015
:10309000ADFA8C4902900EF0F5FA824659460EF0D0
:1030A000F1FA804603990EF0A3F907460EF07EFA76
:1030B0007F4988670846B0F878007C4988867C4854
:1030C000408930B17A48806F76496C39C9694418B3
:1030D00005E07748806F73496C39096A4418744871
:1030E000B0F90A1020460CF00CFB714948670846FD
:1030F000406F0A2190FBF1F001B26D48A0F850102A
:103100000146496F0246D2F88420881A002801DB64
:10311000014600E04142042904DD6548406F6449EE
:10312000C1F88400624890F89A0003287DDA60486C
:10313000B0F8A00001287DDA5D48B0F950408089E0
:1031400030B104EBC400052190FBF1F000F5A07450
:103150005748808988BB41F2883084421EDD0024B4
:103160000120534981F88E00084690F88C000D2804
:1031700002DA0D2081F88C004D48008918B14C48C6
:10318000007803284BD14A4890F88C000D2846D18E
:1031900047480078464981F88C0040E0444890F860
:1031A0008C000D2804D142480078414981F88C00F8
:1031B00000203F4981F88E0031E0FFE742F268408D
:1031C00084421EDD00240120394981F88E00084622
:1031D00090F88C000D2802DA0D2081F88C0034481C
:1031E000008918B132480078032818D1304890F887
:1031F0008C000D2813D12E4800782D4981F88C00C1
:103200000DE02B4890F88C000D2804D12848007858
:10321000274981F88C000020254981F88E00002C78
:1032200004DD20B22249A1F8440003E00020204937
:10323000A1F8440000BFD0E62DE9F04F85B001258C
:1032400000240026A146174830F81500642802DA49
:1032500005B0BDE8F08F0AF00BFC0490114824384B
:1032600050F82560243030F815900021243840F8BB
:103270002510243020F8151004980AF0FDFB96FB69
:10328000F9F01149A1F87000104800680DF0B6FC83
:103290000746094A094B0DF001FDCDE902010A4933
:1032A00016E0000000390020E78F01006E39002091
:1032B000503B0020180000209A9999999999C93F8C
:1032C0009999E93F000004421C3C00201C000020AA
:1032D000B1F870000DF092FC0746FD4AFD4B0DF071
:1032E000DDFCCDE90001DDE902230DF0FFF98246A6
:1032F0000DF040FCF849A1F870000846B0F87000E5
:10330000F6490860F648B0F90A0000FB09F4A64245
:1033100001DD361B00E00026C9EB09300EF066F92E
:10332000EF490390B1F90C000EF060F98346304686
:103330000EF05CF9EB4902900EF0A4F98246594672
:103340000EF0A0F9804603990EF052F807460EF0F1
:103350002DF9E14988670846B0F87800E249C88647
:10336000DD48846F408928B1DB48806FDC49C9693A
:10337000441804E0D848806FD949096A4418D648EF
:10338000B0F90A1020460CF024FAD34948670846E1
:10339000406F0A2190FBF1F001B2CF48A0F8501025
:1033A0000146496F0246D2F88420881A002801DBC2
:1033B000014600E04142042904DDC748406FC64988
:1033C000C1F88400C44890F89A0003287DDAC24806
:1033D000B0F8A00001287DDABF48B0F950408089DC
:1033E00030B104EBC400052190FBF1F000F5A074AE
:1033F000B948808988BB41F2883084421EDD0024B0
:103400000120B54981F88E00084690F88C000D28FF
:1034100002DA0D2081F88C00AF48008918B1AE485F
:10342000007803284BD1AC4890F88C000D2846D189
:10343000A9480078A84981F88C0040E0A64890F897
:103440008C000D2804D1A4480078A34981F88C0091
:103450000020A14981F88E0031E0FFE742F2684088
:1034600084421EDD002401209B4981F88E0008461D
:1034700090F88C000D2802DA0D2081F88C00964817
:10348000008918B194480078032818D1924890F820
:103490008C000D2813D1904800788F4981F88C005A
:1034A0000DE08D4890F88C000D2804D18A480078F2
:1034B000894981F88C000020874981F88E00002C12
:1034C00004DD20B28449A1F8440003E000208249D1
:1034D000A1F8440000BFBBE62DE9F04F85B00225FE
:1034E00000240026A1467E486C3030F81500642880
:1034F00002DA05B0BDE8F08F0AF0BAFA0490784815
:10350000483050F82560243030F8159000212438D8
:1035100040F82510243020F8151004980AF0ACFA71
:1035200096FBF9F07149A1F87000714800680DF040
:1035300065FB0746664A6F4B0DF0B0FBCDE9020113
:103540006A49B1F870000DF059FB0746604A614BBB
:103550000DF0A4FBCDE90001DDE902230DF0C6F872
:1035600082460DF007FB6149A1F870000846B0F8EB
:1035700070005F4908605A48B0F90E0000FB09F47A
:10358000A64201DD361B00E00026C9EB09300EF033
:103590002DF853490390B1F910000EF027F8834637
:1035A00030460EF023F84F4902900EF06BF8824639
:1035B00059460EF067F8804603990DF019FF07464B
:1035C0000DF0F4FF494988670846B0F8780046498D
:1035D00008874648846F408928B14448806F404935
:1035E000C969441804E04148806F3D49096A44189C
:1035F0003E48B0F90A1020460CF053F93B494867A1
:103600000846406F0A2190FBF1F001B23748A0F85C
:1036100050100146496F0246D2F88420881A0028CB
:1036200001DB014600E04142042904DD2F48406FE0
:103630002E49C1F884002D4890F89A0003287CDABE
:103640002A48B0F8A000012877DA2848B0F950409D
:10365000808930B104EBC400052190FBF1F000F546
:10366000A0742248808988BB41F2883084421EDDE4
:10367000002401201D4981F88E00084690F88C0036
:103680000D2802DA0D2081F88C001848008918B145
:1036900016480078032862D1144890F88C000D2851
:1036A0005DD112480078114981F88C0057E00F482D
:1036B00090F88C000D2804D10C4800780B4981F853
:1036C0008C000020094981F88E0048E014E00000D9
:1036D0009A9999999999E93F1C3C00201C00002077
:1036E00094380020000004426E390020E83C00209D
:1036F000200000209999C93F42F26840844220DDB1
:1037000000240120FE4981F88E00084690F88C00C4
:103710000D2802DA0D2081F88C00F948008918B1D3
:10372000F748007803281AD1F54890F88C000D2846
:1037300015D1F3480078F24900E01BE081F88C00D5
:103740000DE0EF4890F88C000D2804D1EC4800788B
:10375000EB4981F88C000020E94981F88E00002CAB
:1037600004DD20B2E649A1F8440003E00020E4496A
:10377000A1F8440000BFBCE62DE9F04F85B0032559
:1037800000240026A146DF4830F81500642802DA3C
:1037900005B0BDE8F08F0AF06BF90490D9482438E1
:1037A00050F82560243030F815900021243840F876
:1037B0002510243020F8151004980AF05DF996FBC6
:1037C000F9F0D149A1F87000D04800680DF016FA60
:1037D0000746CF4ACF4B0DF061FACDE90201CA4945
:1037E000B1F870000DF00AFA0746C94ACA4B0DF04D
:1037F00055FACDE90001DDE902230CF077FF82469E
:103800000DF0B8F9C049A1F870000846B0F8700092
:10381000BE490860BB486C38B0F9120000FB09F4DF
:10382000A64201DD361B00E00026C9EB09300DF091
:10383000DDFEB4496C390390B1F914000DF0D6FEE9
:10384000834630460DF0D2FEB44902900DF01AFFC7
:10385000824659460DF016FF804603990DF0C8FDCB
:1038600007460DF0A3FEA84988670846B0F878001F
:10387000AB494887A448408930B1A348806FA1492B
:103880006C39C969441805E09F48806F9D496C39BF
:10389000096A44189C48B0F90A1020460CF069F8EF
:1038A000994948670846406F0A2190FBF1F001B240
:1038B0009548A0F850100146496F0246D2F884207E
:1038C000881A002801DB014600E04142042904DD9A
:1038D0008D48406F8C49C1F884008B4890F89A005D
:1038E00003287CDA8848B0F8A00001287FDA8648EF
:1038F000B0F95040808930B104EBC400052190FB41
:10390000F1F000F5A0748048808988BB41F28830CE
:1039100084421EDD002401207B4981F88E00084688
:1039200090F88C000D2802DA0D2081F88C00764882
:10393000008918B17448007803284BD1724890F878
:103940008C000D2846D1704800786F4981F88C00B2
:1039500040E06D4890F88C000D2804D16A4800784A
:10396000694981F88C000020674981F88E0031E0B8
:10397000FFE742F2684084421EDD002401206249D4
:1039800081F88E00084690F88C000D2802DA0D2090
:1039900081F88C005C48008918B15B4800780328E6
:1039A00018D1594890F88C000D2813D1564800784A
:1039B000554981F88C000DE0534890F88C000D2893
:1039C00004D151480078504981F88C0000204E49BC
:1039D00081F88E00002C06DD20B24B4900E006E0A5
:1039E000A1F8440003E000204749A1F8440000BFCB
:1039F000CEE62DE9F05F07244FF000094FF0000AF2
:103A0000404830F81400642801DABDE8F09F0AF05D
:103A10002FF883463B48243850F82490243030F85F
:103A200014A00021243840F82410243020F8141069
:103A300058460AF021F8C9EB491000EB80014FF419
:103A40007A700AFB00F0B1FBF0F001B2354841801A
:103A5000A0F14401B1F946000DF0B9F807462C4A2F
:103A6000314B0DF01BF905460DF054F801B22D480D
:103A70004438A0F84610B0F8460000EB8000400043
:103A800001B228484438A0F8461088B224498881F9
:103A900000BFBAE72DE9F05F06244FF000094FF0B0
:103AA000000A184830F81400642801DABDE8F09FD5
:103AB00009F0DEFF83461348243850F82490243060
:103AC00030F814A00021243840F82410243020F8C5
:103AD0001410584609F0D0FFC9EB491000EB8001E3
:103AE0004FF47A700AFB00F0B1FBF0F001B20F481E
:103AF0004180A0F14401B1F946000DF068F817E0EB
:103B0000E83C002000390020B43D002024000020C3
:103B10009A9999999999C93F9999E93F0000044266
:103B20006E390020943B00209999E13F603C0020D1
:103B30000746FE4AFE4B0DF0B1F805460CF0EAFFD1
:103B400001B2FC48A0F84610B0F8460000EB800037
:103B5000400001B2F748A0F8461088B2F649C88183
:103B600000BFA3E72DE9F05F05244FF000094FF0F7
:103B7000000AF24830F81400642801DABDE8F09F2A
:103B800009F076FF8346ED48243850F8249024301D
:103B900030F814A00021243840F82410243020F8F4
:103BA0001410584609F068FFC9EB491000EB80017A
:103BB0004FF47A700AFB00F0B1FBF0F001B2E0487C
:103BC0004180A0F14401B1F946000DF000F807462C
:103BD000D64AD74B0DF062F805460CF09BFF01B2B8
:103BE000D7484438A0F84610B0F8460000EB8000F3
:103BF000400001B2D2484438A0F8461088B2CE49FD
:103C0000088200BFBAE72DE9F05F04244FF00009F5
:103C10004FF0000AC94830F81400642801DABDE802
:103C2000F09F09F025FF8346C448243850F82490BB
:103C3000243030F814A00021243840F82410243017
:103C400020F81410584609F017FFC9EB491000EB93
:103C500080014FF47A700AFB00F0B1FBF0F001B282
:103C6000B8484180A0F14401B1F946000CF0AFFF23
:103C70000746AE4AAE4B0DF011F805460CF04AFF70
:103C800001B2B0484438A0F84610B0F8460000EB46
:103C90008000400001B2AB484438A0F8461088B21A
:103CA000A549488200BFBAE710B500240021A64804
:103CB000A0F848100020A449A1F8900044F6206024
:103CC000A1F89200A1F894004FF6FF70A1F86E00E1
:103CD0000846847B0121C1814FF4FA6007F0FEF9A8
:103CE000FFF787FE9848B0F946001E2805DB41F231
:103CF000883007F0F3F9FFF77CFEFFF762F992488E
:103D000090F88C00122828D025E08F48B0F84800A1
:103D1000401C01B28C48A0F848100A2900DB1BE0C7
:103D20008948008920B900218748A0F8481013E08D
:103D300040F6B83007F0D2F9FFF75BFE8248B0F9E1
:103D40004610B0F9480000EB8000642202EB40000E
:103D5000814200DB00E0D8E700BFFFF732F97A4884
:103D600090F88C00112826DA23E07748B0F9480053
:103D7000642808DA7448B0F848000A3001B2724882
:103D8000A0F8481000E015E06F48008920B9002134
:103D90006D48A0F848100DE040F6B83007F09EF9E5
:103DA000FFF727FE6848B0F94600B0F57A7F00DDDE
:103DB00000E0DAE700BF6448C481C08920B16248EE
:103DC00090F88C000B280FDB00215F48A0F848100A
:103DD00000205D49A1F8900044F62060A1F892000F
:103DE0000021012004F076FAFFF7EBF810BD10B5C2
:103DF000002400214F48A0F8481000204D49A1F8A8
:103E0000900044F62060A1F89200A1F894004FF6CB
:103E1000FF70A1F86E000846847B0121C1814FF438
:103E2000FA6007F05BF9FFF735FE4248B0F946004B
:103E30001E2805DB41F2883007F050F9FFF72AFE13
:103E4000FFF7FAF93B4890F88C00122828D025E0BB
:103E50003848B0F84800401C01B23648A0F8481075
:103E60000A2900DB1BE03348008920B900213148D2
:103E7000A0F8481013E040F6B83007F02FF9FFF72C
:103E800009FE2C48B0F94610B0F9480000EB80005C
:103E9000642202EB4000814200DB00E0D8E700BF73
:103EA000FFF7CAF9234890F88C00112826DA23E09E
:103EB0002048B0F94800642808DA1E48B0F84800E5
:103EC0000A3001B21B48A0F8481000E015E019487C
:103ED000008920B900211748A0F848100DE040F6ED
:103EE000B83007F0FBF8FFF7D5FD1248B0F94600EF
:103EF000B0F57A7F00DD00E0DAE700BF0D48C4814D
:103F0000C08920B10B4890F88C000B2824DB0021DD
:103F10000848A0F8481000200649A1F8900044F68F
:103F20002060A1F892004FF6FF700FE09A999999DE
:103F30009999E13F1C3C00206E3900200039002097
:103F40002C3D0020F83D0020503B0020A1F86E00E1
:103F50000021022004F0BEF9FFF76EF910BD10B584
:103F600000240021F748A0F848100020F549A1F8E6
:103F7000900044F62060A1F89200A1F894004FF65A
:103F8000FF70A1F86E000846847B0121C1814FF4C7
:103F9000FA6007F0A3F8FFF7E5FDEA48B0F946003C
:103FA0001E2805DB41F2883007F098F8FFF7DAFDAC
:103FB000FFF792FAE34890F88C00122828D025E009
:103FC000E048B0F84800401C01B2DE48A0F84810B4
:103FD0000A2900DB1BE0DB48008920B90021D94811
:103FE000A0F8481013E040F6B83007F077F8FFF774
:103FF000B9FDD448B0F94610B0F9480000EB800094
:10400000642202EB4000814200DB00E0D8E700BF01
:10401000FFF762FACB4890F88C00112826DA23E0EB
:10402000C848B0F94800642808DAC648B0F8480023
:104030000A3001B2C348A0F8481000E015E0C148BA
:10404000008920B90021BF48A0F848100DE040F6D3
:10405000B83007F043F8FFF785FDBA48B0F94600DD
:10406000B0F57A7F00DD00E0DAE700BFB548C48133
:10407000C08920B1B34890F88C000B2813DB0021D5
:10408000B048A0F848100020AE49A1F8900044F6CE
:104090002060A1F892004FF6FF70A1F86E00002199
:1040A000032004F017F9FFF717FA10BD10B500242C
:1040B0000021A548A0F848100020A349A1F89000CD
:1040C00044F62060A1F89200A1F894004FF6FF702A
:1040D000A1F86E000846847B0121C1814FF4FA608B
:1040E00006F0FCFFFFF78FFD9748B0F946001E2849
:1040F00005DB41F2883006F0F1FFFFF784FDFFF7A2
:104100003BFB914890F88C00122828D025E08E487F
:10411000B0F84800401C01B28B48A0F848100A29AA
:1041200000DB1BE08848008920B900218648A0F800
:10413000481013E040F6B83006F0D0FFFFF763FDFB
:104140008148B0F94610B0F9480000EB80006422C5
:1041500002EB4000814200DB00E0D8E700BFFFF740
:104160000BFB794890F88C00112826DA23E076487A
:10417000B0F94800642808DA7348B0F848000A30FB
:1041800001B27148A0F8481000E015E06E480089BF
:1041900020B900216C48A0F848100DE040F6B83076
:1041A00006F09CFFFFF72FFD6748B0F94600B0F519
:1041B0007A7F00DD00E0DAE700BF6348C481C08990
:1041C00020B1614890F88C000B2813DB00215E4879
:1041D000A0F8481000205C49A1F8900044F6206047
:1041E000A1F892004FF6FF70A1F86E0000210420A4
:1041F00004F070F8FFF7C0FA10BD5448D0F8800002
:1042000053490860002088605248C86000204882F6
:104210004E48D0F884000A2190FBF1F14C48C1616E
:104220008161416100204A4981F82000032081F822
:1042300021000020454981F89A0070474648D0F88F
:10424000800046490860002088604248C86000201D
:1042500048824148D0F884000A2190FBF1F13F48A0
:10426000C1618161416100203C4981F82000032047
:1042700081F821000020384981F89A0070473148C0
:10428000D0F8800036490860002088603148C86056
:10429000002048822B48D0F884000A2190FBF1F1DD
:1042A0002F48C1618161416100202D4981F82000C2
:1042B00081F82100234981F89A0070472248D0F8FC
:1042C000800028490860002088602248C8600020DB
:1042D00048821D48D0F884000A2190FBF1F1214862
:1042E000C1618161416100201E4981F8200081F88F
:1042F0002100154981F89A00704744E01A48007877
:10430000401CC0B218490870042801DD0120087063
:1043100015480078012806D0022809D003280CD0BF
:1043200004282AD124E01149486806F045FA25E01E
:104330000E49886806F040FA20E00C49C86806F08B
:104340003BFA1BE0E83C0020B43D0020503B00203D
:10435000803E0020A08601001C3C0020A43E0020DE
:10436000C83E0020EC3E00202800002080380020BD
:10437000FC49086906F020FA00E000BF00BF40F6E3
:10438000C21006F0ABFEB9E790B04FF05A0800BF7C
:1043900041F2883500264FF00009002700200C90DC
:1043A0000D900E900F900024824683460B900A9049
:1043B0000120099000BFEC490870EC49888600BFD5
:1043C00012E04FF4FA6006F089FEFEF7FAFDFFF7FF
:1043D00010FB0D980E900C980D90E348406F0C90D8
:1043E0000BF1010000F0FF0BBBF10A0FE9DBDE4827
:1043F000408BC0EB0010012101EB8000DC490882FA
:10440000D948B0F92200C0EB00104FF6FF7101EA65
:104410008000D549A1F86C000846B0F86C00A1F8FE
:104420009C00B1F9060004F0A7FCCF49C1F8800058
:104430000846808B87B24FF47A7006F04FFE09234E
:10444000CC4A0021AFF24D1006F0FEFAFEE3C5495A
:1044500008AA4868002106F0FAF8022003F09AFF43
:10446000C148B0F848001FFA80F9FEF7AAFDC0481D
:10447000C1698161BC48D0F88410BD48C16100F1B8
:104480002101143003F0BCFF0E980F900D980E9090
:104490000C980D90B448406F0C90B348008970BBE5
:1044A0004FF6FF70B049A1F86E0044F62060A1F805
:1044B00090000846408BC0EB0010012101EB80000A
:1044C000AB490882A848808B87B20021012003F005
:1044D00001FF0021A448A0F84810FFF78EFEFFF767
:1044E00088FA0020A04981F88D000021012003F006
:1044F000B5FE00219C48818200200990A6E7FFE7D5
:104500000998C8B998480078974981F88C0001212A
:10451000084603F0A3FE9448007801280AD1002041
:1045200091490870FFF7C0FB8F48007810B901204F
:104530008D49087009F01FFF8B48007A09908A485E
:10454000007801287DD1884890F88D0008BB864806
:10455000406F00F6AC508449D1F88010884214DDD9
:104560000420814981F88D000846D0F88000496F09
:10457000401A7D49B1F92610484300EBD0710790ED
:1045800048100DF033F8824603E00120764981F8A7
:104590008D00754890F88D0001283ED17448008A3E
:1045A00040B340F2E330874202DA781D87B201E07F
:1045B00040F2E73739B26C48A0F848106C48008ADE
:1045C000401E6B4908826848406F42F2D871084427
:1045D0006549D1F88010884203DD002064490882D3
:1045E00008E06148406F42F21071884202DD00200D
:1045F0005F4908825E48008A78B95B48808B87B241
:104600005948D0F884005A4908600220564981F878
:104610008D000120564981F82000534890F88D0004
:1046200002287DD1524890F82000012824D14E481C
:10463000D0F884004E490968441A4B48D0F88000ED
:1046400000E0C1E204EB8401B0EB810F02DDB4F5C0
:104650007A7F0CDB0220464981F820000020488246
:104660004EF6602048604048D0F88400086040F270
:10467000E7313D48A0F848103D4890F82000022856
:1046800058D100213848A0F848103948408A0328FA
:104690004BDB3549D1F88410354A1268881A002856
:1046A00001DB014600E04142314A528A4DF2D863B3
:1046B0005A4392FBF1F42E484068A04201DD2C4899
:1046C00044602B484068A04208DB294890F821004C
:1046D00020B1274890F82100022826D12248808A5C
:1046E000012802D100212048818204201E4981F83E
:1046F0008D0008201E4981F8200048680AF0F6FE67
:104700001949C884012081F89B000846C08C1749CC
:10471000A1F88C000023222206211348263000E055
:1047200008E009F00DFB4FF0000A1148408A401CD8
:104730000F4948820C4890F88D00032829D10C4875
:1047400090F8200030BB0848D0F880000649D1F826
:104750008410884210DD40F2E7310348A0F8481089
:104760000EE0000080380020503B0020BE390020C1
:10477000803E00206C2A00200021FE48A0F848104E
:10478000FD4890F821000128D8D10B20FA4981F882
:104790002000F0E0F748D0F88010D0F884000A300C
:1047A000814205DD40F2E731F248A0F848100BE005
:1047B000F048D0F88410D0F880000A30814203DD40
:1047C0000021EC48A0F84810EB4890F820000A2897
:1047D0007EDDE94890F820000B2809D1E64890F8E2
:1047E00021000028D5D10C20E34981F82000C2E047
:1047F000E14890F820000C2809D1DF4890F821000A
:104800000128C6D10D20DC4981F82000B3E0DA4848
:1048100090F820000D2809D1D74890F821000028F1
:10482000B7D10E20D44981F82000A4E0D24890F8F6
:1048300020000E280DD1D04890F82100012807D182
:104840001020CD4981F82000CA48D0F88400C86003
:1048500091E0C94890F8200010287DD1C64890F812
:10486000210020B1C44890F82100022872D1112003
:10487000C14981F820000021BE488182BF48A0F8CC
:104880004410BC48D0F88400BB4988600420B94972
:1048900081F88D00002081F89A00B74BDA6899689A
:1048A000588A0AF04EFEB349C884B1F92620B249AD
:1048B000498A02EB410000EBD071C1F34F01AE4ACF
:1048C00051821046408A01B2AA480185114600E093
:1048D0004DE0488AC11700EB91718910A54A5185B6
:1048E000A549488AC11700EB91718910A0EB81019D
:1048F000022905DD1046408D401C01B2104641855D
:104900009C48C08C9D49A1F88C009A48008DA1F864
:1049100094009848408DA1F89C000120954981F8A9
:104920009B000023222206219248263009F008FA33
:104930009048D0F880008F49D1F88410401A8D49F2
:10494000B1F92610484300EBD071079048100CF0E5
:104950004DFE8246884800E004E0408A401C8649BB
:10496000488208E00B20844981F8200003E00B20F6
:10497000814981F820007F4890F88D0004287AD181
:104980007C48D0F88010D0F88400B1EB400F07DDF0
:104990000020794981F82000764981F88D0024E0D3
:1049A000744890F89B0000BB7248D0F8800000EB80
:1049B000800101EBC0006F49D1F8841001EB810147
:1049C000B0EB810F0ADC6B48D0F880006949D1F860
:1049D0008410401A41F29411884206DD0020664995
:1049E00081F82000634981F88D006248808A01289F
:1049F0000FD16048D0F880005E49D1F88410401A89
:104A0000B0F5FA7F05DA03205A4981F88D00FFF7E7
:104A1000F4FB584890F89A00E0B95648406F554961
:104A2000D1F88010884204DD0220524981F89A00B2
:104A300032E05048406F4F49D1F88010884204DA84
:104A400001204C4981F89A0026E00320494981F869
:104A50009A0021E0474890F89A0001280CD1454877
:104A6000406F4449D1F88010884215DB032041494A
:104A700081F89A0010E039E13E4890F89A00022847
:104A80000AD13C48406F3B49D1F88010884203DC92
:104A90000420384981F89A003648D0F88400DFF8BD
:104AA000D4C00090DCF88030BCF92600DDE90C129F
:104AB00009F096FE514607900CF02CFC82463049D6
:104AC00050460CF0ABFE01D2DFF8B4A02948D0F874
:104AD00080002849D1F88410401A2A4908600968E2
:104AE000294A1268891A234AB2F92620514301EB58
:104AF000410148000CF07AFD514606900CF00AFC8A
:104B000007900CF037FD21490860214800680CF03F
:104B10005EF8204A204BCDE900010CF0BFF8CDE94A
:104B200004011A4800680CF052F81A4A1B4BCDE9F0
:104B300000010CF0B3F8CDE90201DDE904230BF02C
:104B4000D5FDCDE906010BF0E5FF104908600846E8
:104B50000068642190FBF1F001B20648A0F848100B
:104B6000B0F9480000281BDA00210248A0F84810DC
:104B700021E00000503B0020803E0020BE39002094
:104B80000050C347380000203C00002030000020C7
:104B9000340000209A9999999999C93F9999E93FC8
:104BA000F748B0F94800B0F57A7F04DB40F2E7310E
:104BB000F348A0F84810F3480068F3490860F34848
:104BC0000068F349086091E0ED48007802285AD166
:104BD0000020EB4981F89A000846B0F89C10B0F824
:104BE0009C00401EE64AA2F89C00B9B11046B0F9FC
:104BF00044000A2190FBF1F0E6498988884204DBF1
:104C000000211046A0F8481004E040F2E731DC48EB
:104C1000A0F848100020DA49488067E00021D84811
:104C2000A0F848100120D649087000BF0020DA49DA
:104C300081F82000D24981F88D00D1F88010D04A47
:104C4000526F891ACE4AB2F9262000E020E201FB19
:104C500002F00CF0CBFC8246C948B0F86C00C849A1
:104C6000A1F89C000846B0F97C0064214843C4497F
:104C7000B1F9241090FBF1F000B2C149A1F87C0019
:104C8000C449888032E0BE48007803281FD1BC4860
:104C9000408801B2BA48A0F848104FF0000A00203E
:104CA000B74981F89A00BC4981F82000B44981F8DD
:104CB0008D00D1F88010B24A526F891AB04AB2F909
:104CC000262001FB02F00CF091FC82460EE0002150
:104CD000AB48A0F848108A460020A94981F89A00FC
:104CE000AD4981F82000A64981F88D00A448B0F9AB
:104CF0004800002804DA0021A148A0F848100AE082
:104D00009F48B0F94800B0F57A7F04DB40F2E73104
:104D10009B48A0F848109A4890F88C000B380A2855
:104D200025D2DFE800F01B2411051208060713093D
:104D300000BF00BF00BF00BF00219148A0F848108D
:104D4000012003F08BFA17E000BF00BF00218C4860
:104D5000A0F84810012003F081FA0DE000218848F6
:104D6000A0F848100121084603F078FA04E0012178
:104D7000084603F073FA00BF00BF8148C08918B924
:104D800000207F49A1F89000FEF733FE7C48B0F97F
:104D90004400B0F57A7F34DAA8F101001FFA80F8F8
:104DA0007748B0F87000A84202DD7548B0F870503E
:104DB0007348B0F87000B04202DA7148B0F8706021
:104DC00040F2DE30814502DBA81B092804DD4FF0EC
:104DD0005A08002542F22836B8F1000F16D1A81B58
:104DE0000A2808DA664890F88C000F2803DA0F20AA
:104DF000634981F88C004FF05A0842F228360025AA
:104E000004E04FF05A08002542F228360C990F981A
:104E1000401AB0F5FA6F20DDDDE90E1088421CDB88
:104E2000DDE90D10884218DBDDE90C10884214DB47
:104E3000534890F88C000D280FDA05210F9890FB4D
:104E4000F1F00C9A0F99891A884206DA01204C4930
:104E500081F89800142081F89900494890F898004A
:104E6000012827D1464890F8990018B3444890F893
:104E70009900401EC0B2424981F8990010B9002043
:104E800081F898003E4890F88C000D2812DA4348CB
:104E9000B0F9180000EB80004FF47A7101EB40008C
:104EA0000C99884206DD0020354981F898000F20D2
:104EB00081F88C00324890F88C000F2810D13748C8
:104EC000B0F9180000EB80004FF47A7101EB40005C
:104ED0000C99884204DA2A480078294981F88C0024
:104EE000B9F5FA7F18DB2648B0F84600A0B9244887
:104EF00090F88C000D280CDA0B98052804DD1020A2
:104F00001F4981F88C0009E00B98401CC0B20B903F
:104F100004E000200B9001E000200B90184890F86E
:104F20008C00102808D11648B0F8460020B114486B
:104F30000078134981F88C00114890F88C000D28F6
:104F400039DA0F48B0F94610B0F91E00814203DD8E
:104F500011200B4981F88C000948B0F84800F8B9D5
:104F60000748B0F946002D281ADB0A98401CC0B249
:104F70000A90102816D11220014981F88C0011E006
:104F8000503B0020380000203C0000203000002072
:104F900034000020BE390020803E002094380020DC
:104FA00000200A90FE48B0F88000052803DB13209B
:104FB000FC4981F88C00FB4890F88D00042834D11E
:104FC000F84890F89A0003282FDBF648007801286B
:104FD0002BD1F44890F88C000B2826DAF148B0F970
:104FE0001600F049B1F97C1001EB810100EB4100A2
:104FF000EC49B1F94410884204DA0B20E94981F800
:105000008C0044E0E748B0F94410B0F918000844B7
:10501000E449B1F97C1001EB8101B0EB410F36DAC4
:105020000C20E04981F88C0031E0DE4890F88C00DB
:105030000B2814D1DB48B0F91600DA49B1F97C101D
:1050400001EB810100EB4100D649B1F944108842DF
:105050001DDBD4480078D34981F88C0017E0D14893
:1050600090F88C000C2812D1CE48B0F94410B0F959
:1050700018000844CB49B1F97C1001EB8101B0EB79
:10508000410F04DBC7480078C64981F88C0000BF97
:10509000FFF7DDB990B04FF05A0800BF41F28835F4
:1050A00000264FF00009002700200C900D900E9074
:1050B0000F900024824683460B900A9001200990AD
:1050C00000BFB9490870B949C88600BF12E04FF463
:1050D000FA6006F003F8FEF7AFF8FEF7DBFC0D9878
:1050E0000E900C980D90B048406F0C900BF10100A1
:1050F00000F0FF0BBBF10A0FE9DBAB48408BC0EBC4
:105100000010012101EB8000A9490882A648B0F9EE
:105110002200C0EB00104FF6FF7101EA8000A249A7
:10512000A1F86C000846B0F86C00A1F89C00B1F939
:10513000060003F021FE9C49C1F880000846808BE0
:1051400087B24FF47A7005F0C9FFFCE3994908AAC9
:105150008868002105F07BFA9348B0F848001FFAF0
:1051600080F9FEF769F89248C16981618E48D0F8EC
:1051700084108F48C16100F12101143003F040F91F
:105180000E980F900D980E900C980D908648406FD9
:105190000C908548008970BB4FF6FF708249A1F8DA
:1051A0006E0044F62060A1F890000846408BC0EBEA
:1051B0000010012101EB80007D4908827A48808B34
:1051C00087B20021022003F085F800217648A0F87C
:1051D0004810FFF733F8FEF75DFC0020724981F8B4
:1051E0008D000021022003F039F800216E488182F1
:1051F00000200990A9E7FFE70998C8B96A48007834
:10520000694981F88C000121022003F027F86648E3
:10521000007801280AD1002063490870FEF7E7FDF5
:105220006148007810B901205F49087009F043F91E
:105230005D48007A09905C4A0C99D2F88020881A5F
:10524000002801DB014600E04142B1F57A7F03DD31
:105250000020554981F89A005348007801287DD1F3
:10526000514890F88D0008BB4F48406F00F6AC5095
:105270004D49D1F88010884214DD04204A4981F854
:105280008D000846D0F88000496F401A4649B1F9B0
:105290002610484300EBD071079048100CF0A6F997
:1052A000824603E00120404981F88D003E4890F895
:1052B0008D0001283ED13E48008A40B340F2E330E1
:1052C000874202DA781D87B201E040F2E73739B24F
:1052D0003548A0F848103648008A401E34490882F4
:1052E0003148406F42F2D87108442F49D1F88010FC
:1052F000884203DD00202E49088208E02A48406FDA
:1053000042F21071884202DD0020294908822848B3
:10531000008A78B92448808B87B22348D0F884006B
:10532000234908600220204981F88D00012020498E
:1053300081F820001C4890F88D0002287ED11C487E
:1053400090F82000012824D11748D0F8840018498B
:105350000968441A1448D0F8800000E0B3E204EB76
:105360008401B0EB810F02DDB4F57A7F0CDB022003
:105370000F4981F82000002048824EF660204860E6
:105380000948D0F88400086040F2E7310648A0F8E8
:105390004810074890F82000022865D100210BE052
:1053A00094380020503B00201C3C0020BE390020D7
:1053B000A43E002080380020F748A0F84810F748A5
:1053C000408A03284BDBF449D1F88410F34A126871
:1053D000881A002801DB014600E04142EF4A528A68
:1053E0004DF2D8635A4392FBF1F4EC484068A04276
:1053F00001DDEA484460E9484068A04208DBE7482C
:1054000090F8210020B1E54890F82100022826D12B
:10541000E148808A012802D10021DF4881820420EE
:10542000DD4981F88D000820DC4981F820004868BA
:105430000AF05CF8D849C884012000E014E081F843
:105440009B000846C08CD649A1F88E00002362223A
:105450000621D148263008F073FC4FF0000ACF48EF
:10546000408A401CCD494882CB4890F88D000328E3
:105470001ED1CA4890F82000D8B9C748D0F880009B
:10548000C549D1F88410884205DD40F2E731C248B1
:10549000A0F8481003E00021BF48A0F84810BF481A
:1054A00090F821000128E3D10B20BC4981F82000AD
:1054B000F0E0B948D0F88010D0F884000A3081427A
:1054C00005DD40F2E731B448A0F848100BE0B248DF
:1054D000D0F88410D0F880000A30814203DD00212A
:1054E000AD48A0F84810AD4890F820000A287DDDAE
:1054F000AA4890F820000B2809D1A84890F821006C
:105500000028D5D10C20A54981F82000C2E0A3488D
:1055100090F820000C2809D1A04890F8210001281B
:10552000C6D10D209D4981F82000B3E09B4890F83A
:1055300020000D2809D1994890F821000028B7D102
:105540000E20964981F82000A4E0944890F82000AD
:105550000E280DD1914890F82100012807D1102084
:105560008E4981F820008C48D0F88400C86091E012
:105570008A4890F8200010287ED1884890F82100B1
:1055800020B1864890F82100022872D11120834969
:1055900081F820000021804881828148A0F84610CF
:1055A0007D48D0F884007D49886004207A4981F8DC
:1055B0008D00002081F89A00784BDA689968588A43
:1055C00009F0BFFF7449C884B1F926207349498A9C
:1055D00002EB410000EBD071C1F34F016F4A5182E1
:1055E0001046408A01B26C48018500E04EE0114649
:1055F000488AC11700EB91718910674A5185674944
:10560000488AC11700EB91718910A0EB8101022932
:1056100005DD1046408D401C01B2104641855E48B4
:10562000C08C5F49A1F88E005B48008DA1F8960000
:105630005948408DA1F89E000120574981F89B00F0
:105640000023622206215448263008F079FB524894
:10565000D0F880005049D1F88410401A4E49B1F971
:105660002610484300EBD071079048100BF0BEFFA6
:1056700082464A48408A00E003E0401C474948828D
:1056800008E00B20454981F8200003E00B20434946
:1056900081F82000404890F88D0004287AD13E48D7
:1056A000D0F88010D0F88400B1EB400F07DD002067
:1056B0003A4981F82000384981F88D0024E03648C5
:1056C00090F89B0000BB3448D0F8800000EB8001CC
:1056D00001EBC0003049D1F8841001EB8101B0EB3F
:1056E000810F0ADC2C48D0F880002B49D1F88410B7
:1056F000401A41F29411884206DD0020274981F8C2
:105700002000254981F88D002348808A01280FD187
:105710002148D0F880002049D1F88410401AB0F513
:10572000FA7F05DA03201C4981F88D00FEF786FD1B
:10573000194890F89A00E0B91748406F1649D1F817
:105740008010884204DD0220134981F89A0039E074
:105750001148406F1049D1F88010884204DA0120C6
:105760000D4981F89A002DE003200B4981F89A0039
:1057700028E0094890F89A00012813D10648406FA4
:105780000549D1F8801088421CDB0320024981F8CA
:105790009A0017E029E100001C3C0020A43E0020F4
:1057A000BE390020FE4890F89A0002280AD1FC4831
:1057B000406FFB49D1F88010884203DC0420F8498F
:1057C00081F89A00F648D0F88400DFF8D4C300903E
:1057D000DCF88030BCF92600DDE90C1209F085F90F
:1057E000514607900BF096FD8246EE4950460CF06C
:1057F00015F801D2DFF8ACA3E948D0F88000E849F9
:10580000D1F88410401AE84908600968E74A12682C
:10581000891AE34AB2F92620514301EB41014800BD
:105820000BF0E4FE514606900BF074FD07900BF070
:10583000A1FEDF490860DF4800680BF0C8F9DE4AC6
:10584000DE4BCDE900010BF029FACDE90401D8487F
:1058500000680BF0BCF9D84AD94BCDE900010BF038
:105860001DFACDE90201DDE904230AF03FFFCDE98D
:1058700006010BF04FF9CE49086008460068642124
:1058800090FBF1F001B2C648A0F84810B0F948000A
:10589000002804DA0021C248A0F848100AE0C048F5
:1058A000B0F94800B0F57A7F04DB40F2E731BC483C
:1058B000A0F84810BC480068BC490860BC480068B3
:1058C000BC49086091E0B648007802285AD100200F
:1058D000B34981F89A000846B0F89C10B0F89C00D3
:1058E000401EAF4AA2F89C00B9B11046B0F944007E
:1058F0000A2190FBF1F0B349C988884204DB0021FA
:105900001046A0F8481004E040F2E731A448A0F89F
:1059100048100020A249488067E00021A048A0F874
:10592000481001209E49087000BF0020A64981F858
:1059300020009B4981F88D00D1F88010984A526F61
:10594000891A974A00E02CE2B2F9262001FB02F006
:105950000BF04CFE82469248B0F86C009049A1F8DA
:105960009C000846B0F97C00642148438C49B1F999
:10597000241090FBF1F000B28949A1F87C00914914
:10598000C88032E08648007803281FD184484088C8
:1059900001B28348A0F848104FF0000A0020804967
:1059A00081F89A00884981F820007D4981F88D00AE
:1059B000D1F880107A4A526F891A794AB2F92620B2
:1059C00001FB02F00BF012FE82460EE0002174484B
:1059D000A0F848108A460020714981F89A007A4957
:1059E00081F820006E4981F88D006D48B0F94800BB
:1059F000002804DA00216A48A0F848100AE0684844
:105A0000B0F94800B0F57A7F04DB40F2E731644832
:105A1000A0F84810624890F88C000B380A2825D26C
:105A2000DFE800F01B24110512080607130900BF68
:105A300000BF00BF00BF00215948A0F84810022055
:105A400002F00CFC17E000BF00BF00215448A0F892
:105A50004810022002F002FC0DE000215048A0F89E
:105A600048100121022002F0F9FB04E0012102208C
:105A700002F0F4FB00BF00BF4948C08918B90020FC
:105A80004749A1F89000FEF705F84548B0F94400F1
:105A9000B0F57A7F34DAA8F101001FFA80F84048A7
:105AA000B0F87000A84202DD3D48B0F870503C48A4
:105AB000B0F87000B04202DA3948B0F8706040F2D5
:105AC000DE30814502DBA81B092804DD4FF05A08AF
:105AD000002542F22836B8F1000F16D1A81B0A287B
