:020000040800F2
:10000000E84B0020C9010008E9410008F12D000873
:10001000E7410008910500080D4F000800000000AE
:10002000000000000000000000000000454500083E
:10003000E50500080000000081420008394B000877
:10004000E3010008E3010008E3010008E301000800
:10005000E3010008E3010008E3010008E3010008F0
:10006000E3010008E3010008E3010008E3010008E0
:10007000E3010008E3010008E3010008E3010008D0
:10008000E3010008E3010008E3010008E3010008C0
:10009000E3010008E3010008E3010008E3010008B0
:1000A000E3010008E3010008E3010008E3010008A0
:1000B000E3010008E3010008E3010008E301000890
:1000C000E3010008E3010008E3010008E301000880
:1000D000E3010008B94C0008FD4C00084D4D000834
:1000E000E3010008E3010008E301000800F002F862
:1000F00000F05AF80AA090E8000C82448344AAF168
:100100000107DA4501D100F04FF8AFF2090EBAE865
:100110000F0013F0010F18BFFB1A43F0010318473B
:100120008CF30000ACF300000A444FF0000C10F810
:10013000013B13F0070408BF10F8014B1D1108BF65
:1001400010F8015B641E05D010F8016B641E01F805
:10015000016BF9D113F0080F1EBF10F8014BAD1C55
:100160000C1B09D16D1E58BF01F801CBFAD505E073
:1001700014F8016B01F8016B6D1EF9D59142D6D3CD
:10018000704700000023002400250026103A28BFF5
:1001900078C1FBD8520728BF30C148BF0B607047F9
:1001A0001FB51FBD10B510BD00F078F91146FFF75F
:1001B000F7FF09F0DBF900F096F903B4FFF7F2FF5F
:1001C00003BC00F09BF9000009488047094800473C
:1001D000FEE7FEE7FEE7FEE7FEE7FEE7FEE7FEE7F7
:1001E000FEE7FEE704480549054A064B7047000054
:1001F000C94B0008ED000008E8450020E84B00204E
:10020000E8470020E8470020032A40F2308010F041
:10021000030C00F0158011F8013BBCF1020F6244A1
:1002200098BF11F801CB00F8013B38BF11F8013B32
:10023000A2F1040298BF00F801CB38BF00F8013BDF
:1002400011F0030300F06780083AC0F0088051F80D
:10025000043B083A51F804CBA0E80810F5E7121D5A
:100260005CBF51F8043B40F8043BAFF30080D20779
:1002700024BF11F8013B11F801CB48BF11F8012B45
:1002800024BF00F8013B00F801CB48BF00F8012B68
:100290007047431A28BF9A427FF6B6AF032A10442C
:1002A000114440F2268010F0030F1EBF11F8013DEB
:1002B000521E00F8013D10F0030F7FF4F6AF11F06D
:1002C000030300F09F80083AC0F00B8051F8043D12
:1002D000083A51F804CD40F8043D40F804CDFFF74A
:1002E000F3BF121D5CBF51F8043D40F8043DAFF36D
:1002F0000080D20724BF11F8013D11F801CD48BF9D
:1003000011F8012C24BF00F8013D00F801CD48BFD1
:1003100000F8012C704710B5203AC0F00B80B1E80E
:100320001850203AA0E81850B1E81850A0E818502A
:10033000BFF4F5AF5FEA027C24BFB1E81850A0E833
:10034000185044BF18C918C0BDE810405FEA827C4D
:1003500024BF51F8043B40F8043B08BF7047D20764
:1003600028BF31F8023B48BF11F8012B28BF20F805
:10037000023B48BF00F8012B704702F0FF0343EA3D
:10038000032242EA024200F069B84FF0000200B5D1
:10039000134694469646203922BFA0E80C50A0E8A8
:1003A0000C50B1F12001BFF4F7AF090728BFA0E856
:1003B0000C5048BF0CC05DF804EB890028BF40F822
:1003C000042B08BF704748BF20F8022B11F0804F64
:1003D00018BF00F8012B7047704770477047431AE9
:1003E00028BF9A427FF697AF104410F0030F1144D4
:1003F0001EBF11F8013D521E00F8013D10F0030F21
:100400007FF4F6AF103AC0F00A8010B531E9185009
:10041000103A20E91850BFF4F9AFBDE81040530777
:1004200024BF31E9081020E9081044BF51F8043D09
:1004300040F8043D12F0030F08BF7047D20728BFF1
:1004400031F8023D48BF11F8012C28BF20F8023DC9
:1004500048BF00F8012C70474FF000020429C0F09B
:10046000128010F0030C3FF492AFCCF1040CBCF1FD
:10047000020F18BF00F8012BA8BF20F8022BA1EB38
:100480000C01FFF784BF5FEAC17C24BF00F8012B99
:1004900000F8012B48BF00F8012B7047754600F0AB
:1004A00029F8AE4605006946534620F00700854608
:1004B00018B020B5FFF796FEBDE820404FF00006CB
:1004C0004FF000074FF000084FF0000B21F007013C
:1004D000AC46ACE8C009ACE8C009ACE8C009ACE87F
:1004E000C0098D4670470446AFF300802046FFF7F1
:1004F00064FE00000048704788450020014918202C
:10050000ABBEFEE726000200704702F073BC10B5D8
:10051000044602F02BFD200AA02101EB4000C0B2EE
:1005200002F0EAFC02F05CFDE0B202F0E5FC02F051
:1005300057FD02F01BFDA12002F0DEFC02F050FD91
:10054000002002F077FC044602F02CFD204610BD8E
:1005500070B50D46044602F009FD200AA02202EB08
:100560004000C0B202F0C8FC02F03AFDE0B202F076
:10057000C3FC02F035FD284602F0BEFC02F030FD5F
:1005800002F010FDBDE870404FF4FA5008F096BB41
:10059000FEE7000038B44FF6FF72ADF800204A1EA7
:1005A000D2B200291CBF0E4B03F5807C13D09DF8FE
:1005B000001010F8014B61409DF801405D5C6C40FB
:1005C0008DF800401CF801108DF801101100A2F107
:1005D0000102D2B2EBD1BDF8000038BC7047000078
:1005E00054A20008704700002DE9F0474FF00A0AB6
:1005F0000325002001F0BCFC00F05AFD6FF07F40A5
:1006000001F0B8FC564801F0B9FC01F063FD554C0F
:100610002B265327607F4FF07B084FF0A30900285B
:100620002A467DD0002150A000F0C4FE32460021B1
:1006300050A000F0BFFE3A46002151A000F0BAFEE3
:100640004246002151A000F0B5FE4A46002152A0CA
:1006500000F0B0FE4FF6FF7001F08CFC207D00280A
:10066000208804BFA08060880ED04E4900EBC000F7
:10067000A1FB002080082030A080608800EBC00033
:10068000A1FB001080082030E0800321CB2000F087
:100690006FFF207D00280CBF4348444800F00AFE4D
:1006A0002B21CB2000F064FF207D00280CBF3E48AA
:1006B0003E4800F0FFFDA5880321962000F058FF7A
:1006C0000321284600F0DEFDE5882B21962000F06E
:1006D0004FFF0321284600F0D5FD53218C2000F068
:1006E00047FF207A022100F0CDFD314800F0E2FD05
:1006F000607A022100F0C6FD2E4800F0DBFDA07DEF
:100700007B2108F05FFDE07DA32108F05BFD4AF24C
:10071000FF5001F02FFCEE2240F23D13CA2100E011
:1007200006E0022000F04EFEBDE8F04708F0C2BC33
:10073000514621A000F03EFE3246514622A000F074
:1007400039FE3A46514624A000F034FE4246514656
:1007500025A000F02FFE4A46514627A078E700006A
:10076000A8CA000874170020576F726B54656D702B
:10077000000000005374427954656D700000000061
:100780005374427944656C61790000004175746F5F
:10079000537442790000000053796E6348656174B8
:1007A00000000000CDCCCCCC34A2000838A2000858
:1007B00030A200082CA20008E6B8A9E5BAA6E8AE67
:1007C000BEE5AE9A00000000E5BE85E69CBAE6B83C
:1007D000A9E5BAA600000000E5BE85E69CBAE5BB27
:1007E000B6E697B600000000E887AAE58AA8E5BE4D
:1007F00085E69CBA00000000E58D87E6B8A9E59083
:100800008CE6ADA5000000002DE9F047264E0F460E
:1008100080461D4614461021304600F066F9DFF888
:100820008C90B115484600F060F92A2003F07AFE5A
:10083000B115484600F05BF9C8F3072003F072FEDB
:1008400008F0FF0003F06EFEB115484600F04DF9C8
:100850002B2003F067FEB115484600F048F9C7F3B6
:10086000072003F05FFEF8B203F05CFEB1154846C6
:1008700000F03BF92C2003F055FEB115484600F07E
:1008800036F9002D0ADD2088000A03F04BFE20789F
:1008900003F048FE6D1EA41C002DF4DC3046BDE8BC
:1008A000F047102100F023B900080140000C01407E
:1008B0002DE9F05F0646884640F2C32002FB00F1B6
:1008C0004FF47A7091FBF0F702FB02F102EBD27069
:1008D00001EB600B1446B118234A301B7F1C1268D1
:1008E000526E13680A4641469847012538E000BF1A
:1008F00005FB05F004FB040159451CDDBC4219DD74
:10090000194B06EB050AA6EB05091B68AAF10102C3
:1009100008EB04015B6E09F101001B689847124B5C
:10092000AAF10102A8EB04011B6809F101005B6E4A
:100930001B689847641E0C4B3219301B1B6892468B
:1009400008EB05015B6E81461B689847064B5246D3
:10095000A8EB05011B6848465B6E1B6898476D1C39
:10096000BD42C5DDBDE8F09FE800002010B50020C5
:1009700001F0FEFA6FF07F4001F0FCFA012001F077
:100980002BFB002001F030FB002001F037FB0020A2
:1009900001F0F2FA0448006801F0F0FABDE81040F6
:1009A000002001F0F5BA0000E40000202DE9F0017C
:1009B00091F803C000220CF00F031CF0100F1CBFB5
:1009C00091F802C04CEA030391F800C00F270126FA
:1009D000BCF1000F18BF04681CD00D8806FA02FC99
:1009E00005EA0C05654511D1950007FA05F824EADA
:1009F000080403FA05F52C43CD78282D08BFC0F86C
:100A000014C003D0482D08BFC0F810C0521C082ADB
:100A1000E3D304600A88FF2A87BF44680022BDE848
:100A2000F001704702F1080C0D8806FA0CFC05EA8B
:100A30000C05654511D1950007FA05F824EA08046C
:100A400003FA05F52C43CD78282D08BFC0F814C053
:100A5000CD78482D08BFC0F810C0521C082AE1D339
:100A60004460BDE8F001704770B4DFF86CC010F06E
:100A7000004F14BFDCF81C20DCF80420C0F3034452
:100A80004FF4401333EA00054FEA50534FEA031383
:100A900086B206FA03F316D010F4801F08BF9A43FB
:100AA00003D0032505FA04F4A24342F07062002942
:100AB00018BF1A4310F0004F14BFCCF81C20CCF81C
:100AC000042070BC7047DCF8044022F0706224F00F
:100AD0007064CCF80440EAE70000014002460020C0
:100AE00092680A4218BF0120704741617047016156
:100AF000704700002DE9F04FDFF828B191B04FF0BA
:100B0000FF35DBF80030B3F922100691DE69B3F946
:100B100024A0F469A189814206D8E289824203D3E4
:100B2000471AD4F8008012E0D4E90181002970D07E
:100B30000A8882426DD84D8885426AD3801A82B273
:100B4000486800EB8200B0F90070B0F90250781CE0
:100B50005FD0307EA27C014600FB02F9207CCDE90B
:100B60000710B3F92A60304602F0C4FFC0B20E90FD
:100B7000DBF8001007FB0980A37C8A6B0127CDE915
:100B80000402CDE90273C869089AC17E807ECDE96E
:100B90000001DDE90603514602F002FB681C18D093
:100BA00046F0020002F0A6FFDBF80000A37C05FB84
:100BB0000981826BCDE90273CDE90412C069089AFC
:100BC000C17E807ECDE90001DDE90603514602F0D9
:100BD000E7FADBF800005D46C069417E007E814295
:100BE00014D9022E12D086F0040002F083FF286888
:100BF000C069027EC37E857E02FB03A1437E089A04
:100C00000698534402FB050202F0A0FC0E9802F085
:100C100071FFDBF80000627C418C1144418411B00B
:100C2000BDE8F08FE800002004480068C069C06992
:100C300009B1027C0A60407C70470000E800002097
:100C4000022008807047C06982898A4202D8C2891E
:100C50008A4210D2806880B102888A420DD84388C7
:100C60008B420AD3406800EB8100A0EB8200B0F910
:100C70000000002801DB01207047002070470000C1
:100C80002DE9F0432F4C034687B020681946B0F990
:100C90002A80C069C06900F082F800284ED04168FF
:100CA0000088181A01EBC0054046AE7802F022FF1A
:100CB000814620686A680123816BCDE90236CDE95F
:100CC0000421C169CB7E8A7ECDE900230B7EB0F979
:100CD00024102A78B0F9220002F062FA2068C06974
:100CE000477E067EB7421DD9C07E47434643B8F1D2
:100CF000020F17D000F000FC804600F0E5FB01F089
:100D000039F921682A78CB69B1F92200B1F92410A8
:100D1000DB7E02FB0302CB19314402F017FC404694
:100D200001F028F9484602F0E5FE20686A78C369B8
:100D3000B0F922109B7E02FB0311418407B0BDE88D
:100D4000F0830000E800002030B50E4C05460B464D
:100D500020682946C069C06900F021F8002810D039
:100D60004168008824682A1A0120E46900EBC20067
:100D7000085CA47E6043002B03D011F8321061435D
:100D8000196030BDE800002001200880704700B5E0
:100D9000C06900F004F8002800D0012000BD06E082
:100DA00002888A4202D842888A4202D28068002899
:100DB000F6D17047002801D005F016B9704738B554
:100DC0000546FFF7F7FF040009D000F0B3F82A4604
:100DD0000021009001F0E6FF684600F0CDF82046C3
:100DE00038BD0000024A106021F0030050607047D7
:100DF0005444002010B5002814D004460A48406B23
:100E000010F8341000290DD002290BD2042101EB77
:100E1000C4014158486805F09FF82046BDE81040DD
:100E200006F0E0BF10BD000094430020002805D06C
:100E3000034AD16B016001B14860D0637047000084
:100E4000944300202DE9F041044606F0C3FD2848F4
:100E5000E41C24F00305016C2D1DA94200D90D46A8
:100E6000C46B13E054F8042CAA420ED184B121685B
:100E700009B162684A60616809B122680A60C26BA0
:100E8000A24231D12168C1632EE02468002CE9D14F
:100E90008046816BC0680F1857F8040C3E1A306802
:100EA00038B1002006F0FAFF57F8040C3E1A3068FB
:100EB000D0B97068A84217DB3044441B3046241D6B
:100EC00006F0A4FFD8F80C10491BC8F80C10D8F88D
:100ED00014102944C8F814107068401B02D0314621
:100EE00005F03AF844F8045C2046BDE8F0810000C3
:100EF0009443002010B5002406F06CFD0C490F202F
:100F000001EBC002526C1AB101EBC000406C08E06A
:100F1000401EF5D508E04168A14200D90C46806822
:100F200010B180680028F6D1A4F10C0010BD0000BB
:100F3000944300200549CA69521CCA61496B01EB00
:100F4000C0010A78521C0A7000F02EB894430020A9
:100F500010B5FFF7CFFF64220649B0F5800F04D922
:100F600090FBF2F0096A484310BD096A4143B1FBA6
:100F7000F2F010BD944300200A4902684B6B52F80E
:100F8000082C03EBC2021378022B03D3CB690BB1FD
:100F90005B1ECB611178491E11700021016008466B
:100FA0007047000094430020002806D00349042223
:100FB00002EBC000496B085808307047944300208A
:100FC00070B50C46054600F01FFBC1B2234628460B
:100FD000BDE87040002200F001B80000F0B52D27F8
:100FE0001C68B0F1004F08D0002600280DDA651CFF
:100FF0001D6027704042012408E0651C01261D6029
:101000006FF000402770491E01E00024091BC9B29F
:101010002AB3491EC9B222E00C46491EC9B2944205
:1010200005D1124C27781C68651C1D602770104C78
:1010300054F8215090FBF5F4E4B20A2C11D804FBCB
:10104000150011B90EB1641CE4B20A2C02D10124BE
:10105000491CC9B21D686F1C30341F602C700029F8
:10106000DAD1196800200870F0BD0000DC00002013
:1010700060E9000810B5C2B2CBB2D21A00D5524214
:1010800093B25B43C0F30722C1F30724121B00D5C0
:101090005242000C92B2A0EB114002FB023200B2AD
:1010A000002801DA404200B280B200FB002010BDEF
:1010B00010B50021084600F05BFA43F6FF7250427B
:1010C000BDE8104013460146AFF300802DE9FC4116
:1010D00007461C4615460E46042002F00BFD8046CE
:1010E0001148C068C16C006D0F4406440D440444AF
:1010F000ADF80070ADF80450ADF80260ADF80640F0
:10110000684604F0CBFB07E023462A4631463846C2
:1011100002F01CFA04F084FB0028F5D1404602F0EE
:10112000E9FCBDE8FC810000DC0000202DE9F04175
:101130001C4616460D460746022B02DB0020BDE882
:10114000F0811C20FFF77EFE0028F8D00DB105616C
:101150000AE0094A52F8241009B905E011460A6864
:10116000002AFBD109690161846186820021016046
:101170004160C0E90217E2E70001002070B51D469A
:10118000FFF7D4FF040009D000F00EF8E068006813
:1011900020B90348006800EB85008465204670BDD7
:1011A000E8000020FFF742BE70B590B38269022AC2
:1011B00030DA1E4C54F8221019B944F8220032E0FB
:1011C00019464B68002BFBD106E0CB68C5681B684D
:1011D0002D68AB4203DD09680029F6D11AE0C1B1E0
:1011E000CB68C6681B683668B3420CD1838A012B72
:1011F00005D008E01946DB681B68AB4203DB0B68CF
:10120000002BF7D129B14B6833B118604A684260AE
:1012100004E0FFE7012070BD44F8220048608842E6
:1012200000D100210160002070BD000000010020FD
:101230000A4A816952F82130834202D1036842F898
:101240002130416809B102680A60016809B1426849
:101250004A600021016041607047000000010020E9
:10126000022801DB00207047054951F8200004E006
:10127000C16809680029F6D000680028F8D17047D5
:1012800000010020002200F00AB81FB503A9CDF824
:101290000CD0FFF795FE684600F00CF81FBD1FB597
:1012A00003ABCDF80CD0FFF799FE684600F002F8CA
:1012B0001FBD00002DE9FC4706005BD000F024F9BB
:1012C0003B4C81462068B0F9228000F027F9216864
:1012D00007468A8CD01B888441E000BF47F6FF7127
:1012E000304601F011FC82460146304601F0E2FB37
:1012F0002168054691F82C0000F0030001283FD03A
:10130000022839D000204A8C101A4884ADF8000019
:101310006A1E1044ADF80400888CADF80200A9F1F3
:1013200001010844ADF806006A465146304601F016
:1013300091F92168BDF8020088845146304600F0DA
:10134000E7FE064430780A281CD00D281AD0BDF8D4
:101350000000216828444884307818B1761C307821
:101360000028BBD12068818C39448184818D21F093
:1013700003018185BDE8FC8705EBD5704010C2E70D
:101380002846C0E7206890F82C1001F003010129DD
:101390000BD0022909D0018C418431780A29DBD194
:1013A000828C02EB09018184D6E7A0F82280F4E761
:1013B000E8000020024B1B6859849A84FFF77ABF2B
:1013C000E80000202DE9FC411C4C2468E66C94F8F0
:1013D00018C03718206DACF1010C4518C418A7EBE4
:1013E0000C001644ADF8000006EB0C00ADF804004C
:1013F000A5EB0C00ADF8020004EB0C00ADF8060004
:10140000684604F04BFA15E032462946384601F0AA
:10141000C9FF32462146384601F0C4FF621E691CEE
:10142000384602F069F8621E691C304602F064F822
:1014300004F0F6F90028E7D1BDE8FC81E8000020BF
:1014400010B5002400E0012400F004F80028FAD1CF
:10145000204610BD094810B50068002410B180472F
:1014600000B1012403F0F2FE00B101240448006839
:1014700010B1804700B10124204610BD0C010020AE
:101480000801002070B51646094A1268D36C1C1872
:10149000106D4518002004F001FA06E03246294696
:1014A0002046FFF705FA04F0BBF90028F6D170BD1D
:1014B000E8000020034951F82000C1688A6A082129
:1014C000104700000001002010B502F06FF8BDE8E1
:1014D000104002F007B9000002490968C9694A686A
:1014E00000211047E8000020024A1268D2695268C1
:1014F00010470000E800002010B502F05FF8BDE8DA
:10150000104002F0EFB8000002480068C069407E59
:1015100070470000E800002001F012BB0A490020DB
:10152000096891F82C2002F00C02042A07D0082A3E
:1015300001D00C2A02D1C869007E40087047C869F2
:10154000007E401E70470000E8000020024951F86C
:10155000200000690068704700010020024951F82E
:1015600020000069406870470001002006F078B94B
:1015700070B50D4606F074F90446284606F078F971
:10158000204370BD2DE9F0411948016821F00101A7
:1015900001601848012585601749016000681749F6
:1015A000884200D0FEE700F087FF154E2E203070F5
:1015B00000F0CBFE134806F0D5F907F02BFE0746E6
:1015C00002F04AF810B102F05BF838B902F061F8A5
:1015D000044602F04AF8214602F086FA0021084645
:1015E00000F0DEFC03F094FE75703846BDE8F08133
:1015F000002000E000300240C2A507F4CDB5E8B5F8
:10160000DC0000206044002010B5011E01DD024610
:1016100000E04A42064B012053F82040944202D891
:10162000401C0A28F8DB002900DA401C10BD00002D
:1016300060E900081CB520B90C480068006E00285D
:1016400012D0FFF777FC009044696846FFF794FCDE
:10165000002C09D02046FFF76DFC01908168896855
:10166000884701A8FFF788FC1CBD0000E8000020A7
:1016700001490A4600F002B801F0FFFF2DE9F043EE
:1016800087B015460C465FEA000842D0002000F003
:1016900073FC814620480068066E4046FFF74AFC0E
:1016A00000900068806900F04BFC074640F6FF7030
:1016B000C44204D10098B0F90440B0F90650009833
:1016C000611E0289ADF804401144ADF8081041894B
:1016D000681E0844ADF80650ADF80A0003F018FC87
:1016E0006846FFF749FC01A804F0D8F806E02A464E
:1016F0002146404600F04EFB04F092F80028F6D157
:10170000384600F01DFC304600F066F9484600F00F
:1017100033FC07B0BDE8F083E80000202DE9FE4F60
:1017200083461A488A461A4900680C9E9846407CAF
:101730009146002751F82040E1680968042903D048
:101740002468002CF8D100E01CB9FFF789FD041EC5
:1017500019D0E0680121C26A20469047050011D0E7
:101760002469A0688047401C02D10A4C46F001065B
:101770000096CDE9015443464A465146584600F08A
:10178000AFF907463846BDE8FE8F0000E8000020AC
:1017900000010020D4F0000838B5040018D00D482E
:1017A0000068006EA04201D100F0C0FB2046FFF7A8
:1017B000C1FB0090406908B100F0A1FD00980068ED
:1017C000FFF7F0FC6846FFF7D7FB2046FFF712FB58
:1017D00038BD0000E80000202DE9FF4FDFF8389108
:1017E000074683B0D9F800009A468B46447C4B48A4
:1017F00000570128204606DD01F034FF054620464B
:1018000001F044FF05E001F015FF0546204601F018
:1018100017FF04461FB302A901A8FFF77DFEB7F921
:101820000000002800DA0020B7F902608046002E90
:1018300000DA002601984119B7F90400491E06F0A4
:101840005EF9054602980119B7F90600491E06F02F
:1018500056F9A5EB0802841B521C641C03E04FF0F0
:10186000000846462A46BAF1000F01D1C4F1000A29
:10187000002A4FDD002C4DDD109800905346314674
:101880004046FFF74BFF5FEA000A10D000F06AF80D
:101890000746A04206D0D9F80000806C10B1322172
:1018A00004F0D2FA504600F097F8002521E059469E
:1018B00005988847012007B0BDE8F08F611BB94249
:1018C00002DA504600F072F83DB1721941465046B6
:1018D00000F0A4F85046FFF7ADFE5946059888473A
:1018E0000F48016809B1002088475046FFF7C0FE45
:1018F0003D44A542E2DB5046FFF74EFF002000F0DA
:101900006BF8A74206D0D9F80000806C10B13321E3
:1019100004F09AFA0020CEE7E80000202001002021
:10192000EC01002038B5002460B1FFF703FB009004
:10193000006800698068804702F03CFC0446684605
:10194000FFF71AFB204638BD38B5002808D0FFF74E
:10195000F1FA00F1180400906846FFF70DFB2046ED
:1019600038BD000038B5002418B907480068006E7B
:1019700038B1FFF7DFFA0090B0F90A406846FFF788
:10198000FBFA204638BD0000E800002070B505468F
:101990000024284604F03AFC641C18B1BDE87040ED
:1019A00000F068B8052CF4DB70BD000038B50C46BB
:1019B00020B908480068006E00280AD0FFF7BAFA7C
:1019C0000090B0F90A10A14200DD44816846FFF79B
:1019D000D3FA38BDE8000020F8B50F4E0500306896
:1019E000046E16D00CB100F0A1FA03F07DFB28467E
:1019F000FFF7A0FA009031680D660068FFF7D4FB8E
:101A00006846FFF7B9FA02F0D1F802F04DF8204627
:101A1000F8BD00F08BFAFAE7E80000207CB5154627
:101A20000C4620B912480068006E00281FD0FFF74E
:101A300081FA2DB20090C58024B2848002F034F87F
:101A40000098406980B1FFF775FA009A0190B2F9E9
:101A500008108180B2F90A20C28011B10AB1048055
:101A6000458001A8FFF788FA6846FFF785FA7CBD34
:101A7000E800002001490A4600F002B801F0FFFF2B
:101A80007FB515460C46060028D0FFF753FA40F6FE
:101A9000FF710190CC4203D1B0F90440B0F9065077
:101AA0000289611E1144ADF80840ADF80C1041895F
:101AB000681E0844ADF80E00ADF80A5001A8FFF703
:101AC0005BFA02A803F0EAFE06E02A462146304609
:101AD00000F048F903F0A4FE0028F6D17FBD000015
:101AE0002DE9FF4FDFF8E8B083B01C46DBF80010AB
:101AF000DDE9106092464FF000084B7C4246129997
:101B0000FFF714FB050060D028698068804702F069
:101B100051FB81460AFB09F1C91DCF08FFF718FAEE
:101B2000F10705D1C11700EB9170801000EB400068
:101B3000002C09DC1FB11838B0FBF7F000E00020E2
:101B40006442A04200DC0446F00707D10090DDE9C2
:101B500003012346524600F05BFB8046002C03DC69
:101B60002846FFF71FFB30E004FB07F01830F107B1
:101B700002D0FFF71FF901E0FFF721F906001CD0A2
:101B8000FFF7D8F901900560039981800499C1801D
:101B9000A0F808A04481C0F81480C0E9037901A826
:101BA000FFF7EAF91298AE602861DBF80000407C8C
:101BB000A861304607B0BDE8F08F2846FFF7F2FA7B
:101BC000B8F1000001D0FFF715F90020F2E700009E
:101BD000E80000202DE9F74F8EB0144689460E9894
:101BE000FFF7A8F90990B0F908B0B0F90A600068E9
:101BF000006940680C9009A8FFF7BEF9564D574F91
:101C00002868407C57F82000C1688A6A08219047FC
:101C10000790182801D3202007902868407C57F8A7
:101C200020000069069003C80B904D48814201D006
:101C3000012000E000200A90002000F087FB00282F
:101C40007DD1286809EB0B01B0F90C20891A491ED7
:101C5000002902DDABEB010500E05D46B0F908109C
:101C6000494505DDA1EB090189446D1A089101E0A0
:101C700000210891002D6BDDB0F90E20A119891A01
:101C8000491E002902DDA6EB010800E0B046B0F9CC
:101C90000A00A04204DD061B3444A8EB060800E05D
:101CA0000026B8F1000F53DD089801900DA95F469A
:101CB000DDF830A00E980091FFF746FE774300EB69
:101CC000870101982B4601EB800200994846CDE937
:101CD00000A1214600F016FD0090002838D00A9897
:101CE000E8B1DDE906322946009800F0DFFBB0B923
:101CF0000698009FDA46D0F810C0BCF1000F05D05E
:101D000004235A4639463846E04708E00B993868BC
:101D1000884701C7AAF101005FEA000AF6D10099DD
:101D20000020079ACDE90301059001200090CDE93C
:101D3000010221460346641C2A46484600E007E0AB
:101D400001F02EFAA8F10100761C5FEA0008ABD181
:101D500011B0BDE8F08F0000E80000200001002075
:101D600003370008F8B515460E460746FFF7E2F8B8
:101D7000009000681621C068426A0020904704461F
:101D80006846FFF7F9F8002C03D02A46314638465A
:101D9000A047F8BDF8B516460F46050012D0FFF76C
:101DA000C9F8009044696846FFF7E6F82846FFF74F
:101DB000B9FD0346082800DD2CB1324639462846D5
:101DC00006F06EFAF8BD32463946284606F008FCA1
:101DD000F8BD10B5002821D009B30AB3B1F900400D
:101DE000B2F900309C4200DA23460380B1F9024088
:101DF000B2F902309C4200DA23464380B1F9044034
:101E0000B2F904309C4200DD23468380B1F906100C
:101E1000B2F90620914200DC1146C18010BD114686
:101E20000A6802604968416010BD00280BD0038831
:101E30000B44038083881944818041881144418088
:101E4000C1881144C180704770B5094C0020D4E9A5
:101E500000218A420AD0D2E90056104605F01EFD44
:101E600020603146284603F035FB012070BD00009C
:101E7000D00100202DE9FC41154DDDE908742D68E5
:101E8000B5F90860864200DD3046B5F90C6096422F
:101E900000DA3246824219DBB5F90A608E4200DD73
:101EA0003146B5F90E509D4200DA2B468B420DDBD0
:101EB00000E02C46E5682D6825B1042D02D0256888
:101EC000002DF6D1CDE9007401F0D8FCBDE8FC810D
:101ED000E8000020B0F90220B1F906309A4213DC84
:101EE000B1F90220B0F906309A420DDCB0F90020B9
:101EF000B1F904309A4207DCB1F90010B0F90400DE
:101F0000814201DC012070470020704701460248F1
:101F100070220068FEF7FFB9E80000200249702235
:101F20000968FEF7F8B90000E800002010B501F0DC
:101F300071FD01F03BFEBDE8104002F0E9BF00007A
:101F400070B5094D0446022C2868467C09D220460B
:101F5000FFF786F928B128684474FFF7E7FF0348C4
:101F60000460304670BD0000E800002060010020E1
:101F700001F070BD01F0A6BD01F0BCBD03490968C8
:101F8000CA6900B1C861104670470000E80000202F
:101F9000024909688A7E887610467047E80000206A
:101FA000094A30B41080094A1180094A1268537CEA
:101FB000084A52F82330DA68146A0A46A4460146F1
:101FC00030BC184660470000280100202A0100208C
:101FD000E800002000010020024909680A7E087616
:101FE00010467047E800002003490968B1F92C2029
:101FF0008885104670470000E80000200349096802
:10200000B1F92A204885104670470000E8000020FA
:1020100002480068002800D000477047E001002017
:1020200002498A6802B98860FFF7F2BFD001002038
:1020300010B5040009D005F003FF204606F000F9B2
:102040002046BDE81040FEF7D5BE10BD38B50C46A1
:1020500060B1FEF76FFF00908089204201D001241B
:1020600000E000246846FEF787FF00E001242046D8
:1020700038BD000038B505460020286006480468D1
:1020800044B12046FEF756FF00900069286068467C
:10209000FEF772FF204638BD2002002038B504004C
:1020A0004FF000000D46086011D02046FEF742FFB9
:1020B0000090846844B16846FEF75EFF2046FEF754
:1020C00039FF0090006928606846FEF755FF2046FA
:1020D00038BD00000249014808607047D8E6000892
:1020E000EC0000202DE9F041084E044605683068F8
:1020F000016828468847074630684168284688476F
:10210000284420603846BDE8F0810000EC00002043
:102110002DE9F0410C4606460025064F05E03868DB
:1021200041683046884706440544641EF7D2284675
:10213000BDE8F081EC0000202DE9F0411E46069C30
:102140001746884605463A46A8687F1C3346D0F8AD
:1021500004C041462846E047641EF4D1BDE8F08142
:1021600070B5B0F90040091BB0F904408C422CDD79
:1021700000F11404B0F902500069521B02FB004048
:10218000CA1800EBE104521ED010B0EBE10501F0DB
:1021900007034FF0FF0102F0070221FA03F0C2F13A
:1021A000070201FA02F1CEB221780FD001436D1E71
:1021B00004F8011B002D05DDFF2229462046FEF70D
:1021C000DCF82C4420783043207070BD304001434F
:1021D000217070BD10B5B0F90030B0F90240C91AD5
:1021E00000F114030069121B02FB003000EBE10058
:1021F00001F0070302788021D9400A43027010BD24
:10220000B0F90610026951431430FEF7BEB8000061
:102210002DE9F843804602F10F000011470003FB4F
:1022200007F01C46154689461430FEF7C8FD060027
:1022300013D0FEF77FFE0090A0F80080A0F8029077
:102240008580C480064981600121818107616846DB
:10225000FEF792FE3046BDE8F8830020FBE7000061
:1022600060F1000870B5B0F90660B0F904400B6881
:1022700000F1140596421BDD0069A34202FB0050E9
:1022800000EBE30214DA641EE010A0EBE30512F8A1
:10229000010B03F00704A040C4B206E045B10833C7
:1022A00012F8014B23F007036D1E002CF6D004E05A
:1022B000002070BD6006040E5B1C2006FAD5FF2CC2
:1022C00007D0184602E06406240E401C6606FAD4C5
:1022D00000E0D81DC443640705D006E012F8014BA6
:1022E000FF2C09D108306D1EF8D5C01A401C0B60B8
:1022F00070BD6206140E401C2206FAD4F5E738B50C
:102300000546FEF717FE00908189491E0CB28481B4
:102310006846FEF731FE002C02D12846FEF76AFD22
:1023200038BD00004FF430510148FEF75BBD00009E
:102330009417002003490A6810440A68821A002A88
:10234000FBDC7047D0000020704770470EB508B125
:1023500002AA00E00022002301A9684600F05CFB0D
:102360000EBD0000074910B50C7818B101200870A7
:10237000801E03E0002008706FF07F4000F096FEA2
:10238000204610BD2201002010B5082A0EDC0346AD
:10239000012A18D0022A56D0042A76D010F8042B2D
:1023A00003F8012B491EF9D1012010BD102A08DCC9
:1023B0004FEA000230F8043B22F8023B491EF9D1F3
:1023C000F2E7002010BD10F8042BD207120E491EB0
:1023D00034D010F8044B491E04F0010442EA841280
:1023E0002CD010F8044B491E04F0010442EA4412B8
:1023F00024D010F8044B491E04F0010442EA0412F0
:102400001CD010F8044B491E04F0010442EAC40237
:1024100014D010F8044B491E04F0010442EA84026F
:102420000CD010F8044B491E04F0010442EA4402A7
:1024300004D010F8044B04F00104224303F8012BEC
:102440000029C0D1B0E710F8042B9207120E491EE4
:1024500015D010F8044B491E04F0030442EA04129C
:102460000DD010F8044B491E04F0030442EA840224
:1024700005D010F8044B04F003042243491E03F86E
:10248000012B0029DFD18FE7FFE710F8042B12079B
:10249000120E491E05D010F8044B04F00F0422431D
:1024A000491E03F8012B0029EFD17DE738B5002440
:1024B000009400F01BF838BD0A4810B58169002966
:1024C0000ED101218161FFF72DFF01F081FB05494C
:1024D00005481C310860BDE81040084600F05ABCB1
:1024E00010BD0000DC000020BD7B00082DE9F0419C
:1024F0000D460699044601B901461F68082A09DC01
:102500000E46012A1AD0022A5BD0042A7DD0082A5E
:1025100013D18DE0102A07DCD3F810C00E46BCF1B1
:10252000000F04D0022389E00020BDE8F08101CC37
:10253000B84726F8020B6D1EF9D189E001CCB847E7
:10254000C0074FEA10686D1E36D001CCB84748EA84
:10255000801000F0FF086D1E2ED001CCB84748EA6D
:10256000401000F0FF086D1E26D001CCB84748EAA5
:10257000001000F0FF086D1E1ED001CCB84748EADD
:10258000C00000F0FF086D1E16D001CCB84748EA25
:10259000800000F0FF086D1E0ED001CCB84748EA5D
:1025A000400000F0FF086D1E06D001CCB84740EA9D
:1025B000080000F0FF086D1E06F8018B002DBDD14C
:1025C00046E001CCB84780074FEA10686D1E16D070
:1025D00001CCB84748EA001000F0FF086D1E0ED08D
:1025E00001CCB84748EA800000F0FF086D1E06D015
:1025F00001CCB84740EA080000F0FF086D1E06F85D
:10260000018B002DDDD123E0FFE701CCB8470007A7
:102610004FEA10686D1E06D001CCB84740EA0800AA
:1026200000F0FF086D1E06F8018B002DEDD10FE0C4
:10263000D3F810C0BCF1000F04D001232A46204675
:10264000E04705E001CCB84706F8010B6D1EF9D153
:1026500001206AE77CB5064628480D46006868B147
:10266000002003F01BF906E06A462946304603F0D5
:102670008BFE03F0D5F80028F6D17CBD10680090E1
:102680001F4C506801902268BDF8000032F84C1FC2
:102690000844ADF80000BDF8020091880844ADF888
:1026A0000200BDF8040011880844ADF80400BDF82C
:1026B000060091880844ADF80600684603F0EEF87D
:1026C0000EE000BF2068BDF800106A464184BDF8E6
:1026D000021081842946304603F056FE03F0A0F82C
:1026E0000028EFD1206830F8221F428D891A01801E
:1026F0004188C28D891A41807CBD000024010020E0
:10270000E80000202DE9FF4F8DB00020DDF86CA01F
:10271000164600901D4604460246CAF8000008AB63
:1027200003A902A800F078F918B1002011B0BDE8A3
:10273000F08F0898854200DD0546614F0B95614991
:102740003868407C51F82010049109690691FEF721
:10275000B1FE05903868407CFEF700FF5A4981467B
:10276000884204D05949894501D0012000E0002069
:102770000A9001CE1A9988478346000E079077D0B9
:10278000009870BB0D9800EB04084D480068B0F944
:102790000800404503DDA0EB0807804600E0002765
:1027A0000298049900EB840000EB8700CDE900015A
:1027B0000B990D98421809920E9B40461946521EDD
:1027C000FFF758FB01200090059818280ADA0298B4
:1027D000DDE9052300EB840000EB8700E91B00F036
:1027E00079F812E00A9880B1029800EB840000EBBF
:1027F00087070998A0EB080849463868884701C749
:10280000A8F101005FEA0008F6D13148C06980B341
:10281000DDE9020700EB840007EB8402CDE9020248
:102820002B4C361F3046E4692B460299A047FF2106
:102830003068B1EB106F02D10298006804E0029A90
:102840001268B1EB126F01D1039A1060029806F181
:102850000406001D02900398001D03906D1EE7D131
:102860000397DAF8000040F00101CAF8001020E0F8
:1028700021E0FFE70798FF2811D0C0F1FF0202987E
:1028800050F82410584600F02DFA039941F824001E
:10289000DAF8000040F00101CAF8001005E00298E3
:1028A000039950F8240041F82400641C6D1E7FF445
:1028B00060AF03983AE7039941F824B0E8E70000D5
:1028C000E80000200001002003370008013700085D
:1028D000F80100202DE9F05F0C1E16DD5E68014650
:1028E00000EB8405082A12DC611E012A26D0022A88
:1028F00047D0042A6AD0082A07D1071917F8010D12
:10290000B04745F8040D641EF8D1BDE8F09F102AC9
:10291000FBDC5F693FB12246BC46BDE8F04F0223B5
:102920005DF804EB604701EB440700BF37F8020D88
:10293000B04745F8040D641EF8D1E6E700EBE1006E
:1029400001F0070710F801A98146802020FA07F856
:10295000B5F104050AEA0800C7F10701C840B0470D
:1029600045F804093FB14FEA48604FEA10687F1EFE
:10297000641EEFD1C9E719F801A907274FF0010834
:10298000F6E700EBA10001F0030710F801A981466A
:102990007900C02020FA01F84FF0060BB5F10405CC
:1029A0000AEA0800ABEB4701C840B04745F8040904
:1029B0003FB14FEA88604FEA10687F1E641EEFD176
:1029C000A3E7032719F801A9B846F7E700EB610070
:1029D000012710F801A9A7438146B900F02020FA89
:1029E00001F84FF0040B2D1F0AEA0800ABEB87013A
:1029F000C840B04745F804093FB14FEA08704FEAB4
:102A000010687F1E641EEFD17FE719F801A9012726
:102A10004FF00F08F6E700002DE9F047224C06467C
:102A20001F46A06990468946002540B90120A06153
:102A300004F120011D480860084600F0ABF9606908
:102A400030B91B480068606110B900F0F6FD6061A4
:102A500007B138604EB1A06830B960698000FEF7F8
:102A6000F1F9A06000B901253060B9F1000F0AD07A
:102A7000E06830B960698000FEF7E4F9E06000B911
:102A80000125C9F80000B8F1000F0AD0206930B95B
:102A900060698000FEF7D6F9206100B90125C8F809
:102AA00000002846BDE8F087F8010020317C0008CE
:102AB0001801002073B5124A01A9009812689047C6
:102AC00000240090C8B10F4900250968C969496907
:102AD00059B10A684AB1019990477CBD6846FFF731
:102AE00001FB0546FEF7F8FC04440198401E0190E6
:102AF000F4D5284600F032F8044420467CBD00009E
:102B00003C010020E800002073B50D460098002429
:102B100090B10A490968C969496959B14A684AB115
:102B2000294690477CBD6846FFF7DCFA20B10A28A9
:102B300002D0641CAC42F6DB20467CBDE8000020DD
:102B4000044AB2F9002002600348B0F900000860AE
:102B500070470000280100202A01002038B5002419
:102B600069460094FEF7C0FC0099814200DD0C1A12
:102B7000204638BDB0F90030B1F90020934200DAA8
:102B80000280B0F90230B1F90220934200DA4280AB
:102B9000B0F90430B1F90420934200DD8280B0F92D
:102BA0000620B1F906108A4200DDC180704770B579
:102BB000B1F90040B2F900309C4200DD23460380A9
:102BC000B1F90250B2F90240A54200DD2C46448022
:102BD000B1F90460B2F90450AE4200DA354685809E
:102BE000B1F90610B2F90620914200DB1146C1800E
:102BF0009D4201DBA14201DA002070BD012070BDC1
:102C0000014602480068407C00F002B8E80000205D
:102C10002DE9F84301268946044602285DDA304F43
:102C20007A6802B190472E4D5FEA090005F1100560
:102C300032D0012803D0B9F1020F4ED118E055F877
:102C4000240088B92046FEF70BFB009018B3C0683B
:102C50000D21426A6846904702003ED049460098DE
:102C6000904755F824000026401C45F8240034E025
:102C70002046FEF7F5FA009068B1C0680D21426A5F
:102C800068469047040028D0386800B1804749461C
:102C90000098A047002620E055F82400A846012807
:102CA00012D12046FEF7DCFA009068B1C0680D2111
:102CB000426A68469047050006D0386800B18047F0
:102CC00049460098A847002658F8241009B1012267
:102CD00000E00022891A48F824103046BDE8F88345
:102CE000B801002070B5FF23B3EB116F29D0C3B238
:102CF00000F47F4500F47F04060E534355435443CC
:102D00005643C2F1FF00CAB202FB003201F47F4316
:102D100003FB005301F47F0505FB0044090E01FB92
:102D20000065C2F307204FF47F4101EA1322090234
:102D300001EA14214FF07F43104303EA054308439F
:102D4000184370BD2DE9F04F0646DDE90CB9154674
:102D50000C4600208046584519D20B9F4FF0FF0AC1
:102D600001CE08CCAAEB106202FB09F2B2FBFAF129
:102D7000CAB21946FFF7B6FF20F07F4001C57F1E9B
:102D8000EED1099804EB800408F10100E2E7BDE808
:102D9000F08F000002494A694260486170470000B4
:102DA000DC00002010B502E000F8011B521E0AB141
:102DB0008307F9D1930818D001EB014402F0030214
:102DC00004EB042406E010C01B1F10C040F8084BA1
:102DD00040F8044C042BF6DA01E010C05B1E002B17
:102DE000FBD102E000F8011B521E002AFAD110BDEF
:102DF000FEE7000038B50121042001F0BBFA0320F2
:102E0000ADF8000010218DF80310084C8DF8020079
:102E100069462046FDF7CAFD03212046FDF767FEFF
:102E2000034801214160016038BD000000080140F5
:102E300080012142F0B5DFF8B8C006460022DCF878
:102E4000000020F00F00CCF80000DCF8000040F09B
:102E50000800CCF80000274B104614460125C3F8A3
:102E6000844101270021491C4629FCDB7F1EF9D241
:102E7000C3F8845151060A0ED3F8001100291CBF73
:102E8000511CCAB200270021491C4629FCDB7F1EC9
:102E9000F9D2401CC0B20828E1D3C3F88441DCF861
:102EA000000020F00F00CCF80000DCF8000040F03B
:102EB0000300CCF800006EB1C3F88041022005F099
:102EC000FDFEC3F88451022005F0F8FEC3F88441EA
:102ED0001046F0BDC3F88051022005F0EFFEC3F8A4
:102EE0008451022005F0EAFEC3F88441F0E70000B7
:102EF00000080140000021421A4930B40A6822F05B
:102F00000F020A600A6842F003020A60164B4FF093
:102F1000000CC3F884C162460124C109C3F88011C2
:102F20004006000E01250021491C4629FCDB6D1ED0
:102F3000F9D2C3F8844101250021491C4629FCDB54
:102F40006D1EF9D2C3F884C101250021491C462910
:102F5000FCDB6D1EF9D2511CCAB2082ADDD330BC8D
:102F60007047000000080140000021420B4800B5F6
:102F7000016821F00F010160016841F00301016067
:102F8000074A012010605060042005F097FE0023DE
:102F90001360042005F092FE536000BD000801405C
:102FA000800121420C4800B5016821F00F01016049
:102FB000016841F003010160084A00205060106080
:102FC000042005F07BFE01205060106004205DF8B5
:102FD00004EB05F073BE00000008014080012142AF
:102FE00030B51F4C0022206820F00F0020602068C0
:102FF00040F0080020601B4B0125C3F88051284693
:1030000005F05CFEC3F88451012005F057FED3F8AB
:1030100000010021F8B1501CC2B2FA2A17D9206869
:1030200020F00F002060206840F003002060C3F80B
:103030008411C3F88011042005F040FEC3F88451C8
:10304000C3F88051042005F039FE012030BDD3F8CB
:1030500000010028DFD1C3F88411002030BD00003A
:10306000000801400000214202494CF6CC400860B3
:10307000704700000030004002494AF6AA2008606C
:103080007047000000300040014948607047000070
:103090000030004001498860704700000030004067
:1030A00001490860704700000030004002490A688A
:1030B0000860104670470000340200200449054AA9
:1030C0000968497C52F8211009690968084700001D
:1030D000E8000020000100209942C8BF70472DE998
:1030E000F84F07460A9EC0F30729DFF8ACB0DFF8B7
:1030F000ACA0300A984615460C4600901021504668
:10310000FDF7F3FC4FF480715846FDF7EEFC2A20E2
:1031100001F008FA4FF480715846FDF7E8FC484684
:1031200001F000FAF8B201F0FDF94FF48071584651
:10313000FDF7DBFC2B2001F0F5F94FF480715846C8
:10314000FDF7D5FCC4F3072001F0ECF9E0B201F083
:10315000E9F94FF480715846FDF7C7FC2C2001F0C7
:10316000E1F94FF480715846FDF7C1FC3B46AF4290
:1031700008DC009801F0D6F9F0B201F0D3F95B1C3D
:10318000AB42F6DD10215046FDF7B1FC641C44450E
:10319000B4DDBDE8F88F0000000C014000080140DC
:1031A0002DE9F04F05468DB07B48DDF860901A9C04
:1031B00000681E4617464FF0000A78B11B9B199A0B
:1031C000CDF808900593CDE90324DDE91623CDE978
:1031D0000023046833463A46284680E0DDE91602BB
:1031E00001EB060805EB070C1043A8F10108ACF150
:1031F000010C012806D0C9F10800059000200291B9
:103200000990C6E065480268B2F90A30581A0028E9
:1032100006DD361A002E63DD1946199B00FB0344B8
:10322000B2F90E00A8EB0000002802DD361A002ECD
:1032300056DDB2F90C00ACEB0000002800DD3F1AAF
:10324000B2F908300020AB4235DD581B3F1A4B461F
:10325000B9F1080F26D006DC012B0BD0022B11D0C0
:10326000042B28D116E0102B1ED0182B1FD0202B9A
:1032700021D11CE020F0070304EBE0041D4400F022
:10328000070018E020F0030304EBA0041D4400F045
:10329000030010E020F0010304EB60041D4400F083
:1032A000010008E0044404E004EB400401E004EB06
:1032B000800405440020002F12DD1B9BDDF864C054
:1032C000CDE90403CDE90069CDE902C4527C34485C
:1032D0003B4650F82200C26854680A462946A04777
:1032E0000DB0BDE8F08F1799029808440C902B4957
:1032F000401E00900A68B2F90A30834241DCB2F9FC
:103300000E10029881423CDB4FF0000BD84603952B
:103310000A9434E0BBF1000F05D10A984FF0080B76
:1033200010F801AB0A900599ABEB090B3AFA01F0E2
:103330000AFA09F101F0FF0A04D118490968097C69
:10334000890716D415490968C96B0A680B921B9A3C
:103350000AB152F82000086016990398009B4218A1
:10336000521E029900F0F2F80C490B980968C96BDB
:1033700008600399169808F1010808440390B845BD
:10338000C8DB0998401C09900C98029019980444D5
:103390000998B042A7DBA3E724010020E800002041
:1033A00000010020F0B40C4612490968B1F90A3056
:1033B000A3421CDCB1F90E30A34218DBB1F908308E
:1033C000834200DD1846B1F90C30934200DA1A4608
:1033D00082420CDB4B7C084951F8235013462246AD
:1033E000E9688E6801462846B446F0BC6047F0BCE8
:1033F00070470000E8000020000100200A4617493D
:1034000030B40968B1F90A30934225DCB1F90E30C5
:10341000934221DBB1F9083083421DDCB1F90C3055
:10342000834219DB0B7C0E4CDB0709D0497C54F836
:103430002130D968CC690146A44630BC18466047A3
:10344000CB6B497C1B6854F82140E1688D690146CB
:103450002046AC4630BC604730BC7047E8000020D6
:10346000000100202DE9F041214F0D46064614468B
:1034700010213846FDF739FBDFF87880B915404652
:10348000FDF733FB2A2001F04DF8B9154046FDF752
:103490002EFB300A01F046F8F0B201F043F8B915FE
:1034A0004046FDF722FB2B2001F03CF8B9154046C1
:1034B000FDF71DFB280A01F035F8E8B201F032F8FB
:1034C000B9154046FDF711FB2C2001F02BF8B9157A
:1034D0004046FDF70CFB200A01F024F8E0B201F0B1
:1034E00021F83846BDE8F0411021FDF700BB00008F
:1034F00000080140000C0140124B30B41B68B3F9C6
:10350000084084421CDCB3F90C40844218DBB3F958
:103510000A408C4200DD2146B3F90E40944200DAA5
:1035200022468A420CDB5C7C074B53F82440E3685C
:10353000DD6813460A4601462046AC4630BC60476B
:1035400030BC7047E80000200001002038B5134C63
:103550002468B4F90850854200DD2846B4F90C50BF
:10356000954200DA2A46824217DBB4F90A508D42AE
:1035700000DD2946B4F90E509D4200DA2B468B42FD
:103580000BDB0093647C064B53F82440E3681D6911
:1035900013460A4601462046A84738BDE8000020E9
:1035A00000010020082104F0C9B8000002480068AA
:1035B000806B006870470000E80000200248006847
:1035C000C06B006870470000E80000200248092135
:1035D0000068407C04F0B2B8E8000020092104F043
:1035E000ADB870B500252C462046FDF739FE00B178
:1035F0006D1C641C022CF7DB284670BD0248006875
:10360000407C00F003B80000E800002010B5FDF792
:1036100027FE002805D0C168CA6ABDE81040022113
:10362000104710BD02480E210068407C04F086B8A7
:10363000E8000020032104F081B8032004F0C2B8A0
:10364000042104F07BB80000024801210068407C9E
:1036500004F074B8E80000200148006870470000DA
:1036600034010020012104F069B8012004F0AAB857
:10367000024802210068407C04F060B8E8000020A5
:10368000014840687047000034010020022104F026
:1036900055B8022004F096B8AFF300802DE9F04150
:1036A000002809D0876837B10D4E716819B10468D8
:1036B000B4F5807F02DD0020BDE8F08130688442EF
:1036C00000DD0446002507E057F82500FFF7F6FC6B
:1036D000716841F825006D1CA542F5DB7068EBE7C9
:1036E000440100200449054A0968497C52F8211028
:1036F0000969496808470000E8000020000100202F
:103700007047704710B500F01F01074A074BC0F320
:103710004514C0F3C4201B5D105C515C00EB03201A
:1037200000EB014010BD000000E7000820E70008A2
:1037300010B50A4C606860B920688000FDF782FB14
:10374000606040B104F10801054808600846FFF7D1
:1037500021FB002010BD012010BD0000440100200D
:10376000E97B00082DE9F047FFF73BFF07460024FF
:10377000DFF860802AE02046FDF772FD28B3D8F814
:10378000000090F8119044742046FFF70BFF0828C2
:1037900017DC1148114950F824000069884210D004
:1037A0002046FFF71BFF0646002508E0E8B2FFF7BA
:1037B00099FF0246E9B2204600F0A2F96D1CB5421D
:1037C000F4DBD8F8001081F81190641CBC42D2DB05
:1037D000BDE8F087E800002000010020BCF00008F0
:1037E0002DE9F041234E0C46054610213046FDF7E9
:1037F0007CF9214FB1153846FDF777F92A2000F002
:1038000091FEB1153846FDF772F9280A00F08AFEDC
:10381000E8B200F087FEB1153846FDF766F92B20B7
:1038200000F080FEB1153846FDF761F9200A00F07E
:1038300079FEE0B200F076FEB1153846FDF755F995
:103840002E2000F06FFEB1153846FDF750F900202C
:1038500000F0FAFD4FF6FF7101EA0024002000F0AD
:10386000F3FD204484B210213046FDF740F9204694
:10387000BDE8F08100080140000C01402DE9FF4F38
:1038800083B01646DDE910408B46C0684769426A3E
:103890007AB1012111A8904705000AD00698CDE918
:1038A000000433465A4603991198A84707B0BDE86B
:1038B000F08F57480068407CFDF7FCFD82460828E1
:1038C00001DC012005E0BAF1100F01DC022000E06C
:1038D00004208046002596E04046B8F1010F05D04F
:1038E000022871D0B8F1040F25D17CE0BAF1090F9C
:1038F00021D2DFE80AF08605213F3F595959590086
:10390000039815E001465A461198B847C5F10701DA
:1039100088404FF67F722178EA40114001436D1CC8
:10392000217004EBE50425F00700054109F10100D1
:103930008146B042E6DD64E0039817E001465A464E
:103940001198B8470621A1EB450188406B004FF65E
:103950003F722178DA40114001436D1C217004EB65
:10396000A50425F00300054109F101008146B0429C
:10397000E4DD46E0039813E001465A461198B84743
:103980000421A1EB850188402178AB000F229A40E9
:103990001140014321702C4485F0010509F101001B
:1039A0008146B042E8DD2CE0DDF80C9007E00146EE
:1039B0005A461198B847207009F101094444484615
:1039C000B145F4DD1DE0FFE7DDF80C9007E00146AE
:1039D0005A461198B847208009F1010944444846E5
:1039E000B145F4DD0DE0DDF80C9007E001465A46E4
:1039F0001198B847206009F1010944444846B1458F
:103A0000F4DD0BF1010B06998B457FF765AF4DE7B0
:103A1000E800002010B50D4C0D492068407C51F89D
:103A2000200048B1C16811B10968042901D00068BB
:103A3000F7E708B1FDF7FCFB20680021016600F103
:103A400008014161BDE8104000F02EB8E8000020F8
:103A50000001002001490968496808474001002029
:103A6000044909680A7C520701D5C96B00E0896BDB
:103A700008607047E80000207CB5094C05462068C6
:103A8000417C084850F82100C1680A6B694690479C
:103A900020686A4629460830FFF789F87CBD000097
:103AA000E8000020000100200448016804484A7C26
:103AB000083150F82200C268126B1047E80000205D
:103AC00000010020014909680968084740010020F9
:103AD000044909680A7C520701D5896B00E0C96B6B
:103AE00008607047E8000020014AC2E90001704701
:103AF0003401002001490968896808474001002015
:103B0000F8B515460E460124FDF7AAFB009058B102
:103B1000C0681021426A68469047030004D02A46D4
:103B200031460098984700242046F8BDF8B5154660
:103B30000E460124FDF794FB009058B1C0680B219C
:103B4000426A68469047030004D02A4631460098EE
:103B5000984700242046F8BD38B50D460124FDF7EE
:103B60007FFB009050B1C0680921426A68469047C7
:103B7000020003D02946009890470024204638BD13
:103B8000F8B515460E460124FDF76AFB009058B1C2
:103B9000C0680A21426A68469047030004D02A465A
:103BA00031460098984700242046F8BD10B5074CD0
:103BB0002068006BFFF782FAFFF78AFF2068406BEE
:103BC000FFF77CFABDE81040FFF74ABFE80000208D
:103BD00010B500231A4613491348FDF7CFFAFFF733
:103BE00021FD60B1F0224FF4A0710020FFF79EFF8D
:103BF000F0224FF4A0710020FFF7C2FF0BE04FF45A
:103C0000A072F0210020FFF791FF4FF4A072F02185
:103C10000020FFF7B5FF0021BDE810400846FFF780
:103C20009BBF0000E8E600089CE6000870B5094D5F
:103C3000044610212846FCF758FFA9150648FCF752
:103C400056FFE0B200F06EFC2846BDE8704010213F
:103C5000FCF74DBF00080140000C014010B50729DA
:103C600080F01481DFE801F0FC04FBFBFBFBFB00B0
:103C700000F010F90A20FEF75DFB012000F07AF950
:103C80001E20FEF757FB282000F074F9CB2000F02F
:103C900071F93920FFF7CAFF2C20FFF7C7FF00207A
:103CA000FFF7C4FF3420FFF7C1FF0220FFF7BEFF7C
:103CB000CF2000F05FF90020FFF7B8FFC120FFF729
:103CC000B5FF3020FFF7B2FFE82000F053F9852060
:103CD000FFF7ACFF0020FFF7A9FF7820FFF7A6FF52
:103CE000EA2000F047F90020FFF7A0FF0020FFF7CF
:103CF0009DFFED2000F03EF96420FFF797FF0320C1
:103D0000FFF794FF1220FFF791FF8120FFF78EFF4E
:103D1000F72000F02FF92020FFF788FFC02000F0E7
:103D200029F92320FFF782FFC12000F023F910209A
:103D3000FFF77CFFC52000F01DF93E20FFF776FF5E
:103D40002820FFF773FFC72000F014F98620FFF743
:103D50006DFF362000F00EF94820FFF767FF3A208C
:103D600000F008F95520FFF761FFB12000F002F9DB
:103D70000020FFF75BFF1820FFF758FFB62000F088
:103D8000F9F80820FFF752FF8220FFF74FFF2720A6
:103D9000FFF74CFFF22000F0EDF80020FFF746FFA0
:103DA000262000F0E7F80120FFF740FFE02000F0B8
:103DB000E1F80F20FFF73AFF3120FFF737FF2B2004
:103DC000FFF734FF0C20FFF731FF0E20FFF72EFF27
:103DD0000820FFF72BFF4E20FFF728FFF120FFF709
:103DE00025FF3720FFF722FF0720FFF71FFF1020D6
:103DF000FFF71CFF0320FFF719FF0E20FFF716FF48
:103E00000920FFF713FF0020FFF710FFE12000F06B
:103E1000B1F80020FFF70AFF0E20FFF707FF14207C
:103E2000FFF704FF0320FFF701FF1120FFF7FEFE5D
:103E30000720FFF7FBFE3120FFF7F8FEC120FFF758
:103E4000F5FE4820FFF7F2FE0820FFF7EFFE0F20F7
:103E5000FFF7ECFE0C20FFF7E9FE312001E013E054
:103E600014E0FFF7E3FE3620FFF7E0FE0F20FFF738
:103E7000DDFE112000F07EF86420FEF75BFA2920B9
:103E800000F078F8002010BD002010BD4FF0FF308A
:103E900010BD0000F0B587B001211C2000F06AFAC7
:103EA0000121080300F066FAA020ADF800001820F8
:103EB0008DF803002C4E03248DF8024069463046ED
:103EC000FCF774FD1025ADF800508DF802408DF818
:103ED000035069463046FCF769FD10213046FCF777
:103EE00004FE2801ADF80000204F8DF802408DF847
:103EF000035069463846FCF759FD10213846FCF757
:103F0000F4FD0226ADF800608DF802408DF80350F4
:103F100069463846FCF74AFD02213846FCF7E7FDC2
:103F20000020ADF804004FF48271ADF80610ADF832
:103F300008000121ADF81000ADF80C10ADF812002A
:103F4000490207200A4CADF80E10ADF81400ADF888
:103F50000A6001A9204600F0BBFA0121204600F0CA
:103F6000A3FA07B0F0BD000000080140000C0140BA
:103F70000030014070B5094D044610212846FCF779
:103F8000B4FDA9150648FCF7B0FDE0B200F0CAFA8E
:103F90002846BDE870401021FCF7A9BD000801408B
:103FA000000C01402DE9FF4F8DB01746674ADDF840
:103FB00070901E9E209812681D4600248AB11D9B99
:103FC0001F98CDE90293CDE90460DDE91A03CDE93C
:103FD000000314682B463A460D98A04711B0BDE87F
:103FE000F08F0D9A01EB050802EB070CDDE91A23AF
:103FF0001A43A8F10108ACF1010C012A06D0C9F15D
:1040000008004FF0000B029105909CE0504A1268A6
:10401000B2F90A40631A002B06DDED1A002DDDDD32
:1040200021461D9C03FB0466B2F90E30A8EB030386
:10403000002B02DDED1A002DD0DDB2F90C30ACEB17
:104040000303002B00DDFF1A0D9B1C1AB2F9083088
:10405000A3420DDDA3EB040C0CEB0003181A20F0B7
:1040600007000444A7EB0C0706EBE30603F0070088
:10407000002FB3DDDDF874C01F9BCDE902C6CDE98A
:104080000403CDE90059527C32483B4650F82200E7
:10409000C26855680A462146A8479FE71B990298BF
:1040A00008440C902A49401E00900A68B2F90A3070
:1040B000834242DCB2F90E10029881423DDB4FF0A0
:1040C000000A0D980A96D046039034E0BAF1000F2A
:1040D00005D10A984FF0080A10F8014B0A9005998B
:1040E000AAEB090A34FA01F004FA09F4E4B204D1A3
:1040F00017490968097C890717D415490968C96BEC
:104100000A680B921F9A0AB152F8200008600399BE
:104110001A98009B0A18DDE90210521EFFF716FAE2
:104120000B490B980968C96B086003991A9808F144
:10413000010808440390B845C8DB0C9802901D980C
:104140000BF1010B0644AB45A8DB47E72401002037
:10415000E800002000010020002818D0410817D0F6
:10416000810817D0C10817D0010917D0410917D00D
:10417000010A17D0410A17D0010B15D0C10B13D07B
:10418000010C11D0810C11D0000E11D020207047ED
:1041900001207047022070470320704704207047B9
:1041A0000520704708207047102070471220704784
:1041B0001820704700B50022FFF7CEFF012804D079
:1041C000811E062903D808220BE0012209E0A0F194
:1041D0000901072901D8102203E011380F2800D85F
:1041E0002022104600BDFEE770474FF4A06000F0AB
:1041F0003DB8000030B4C27801784FF00F0C0124B4
:104200004FF0E02512B3174A126802F4E062C2F5DB
:10421000E062120AC2F104032CFA02F290F801C023
:104220000CFA03F390F802C00CEA02021A430E4B98
:104230001201CA54007800F01F0104FA01F140098C
:1042400005EB8000C0F8001130BC704701F01F0082
:1042500004FA00F0490905EB8101C1F8800130BC86
:10426000704700000CED00E000E400E0034940F07E
:10427000FD7040F080600860704700000CED00E0C9
:10428000704700002DE9F0414FF400512948FCF738
:1042900025FC294B00254FF0010C012804D09D631B
:1042A000987901280BD010E0DD63987968B9986B94
:1042B000401C9863102808BF83F806C005E0D86B3F
:1042C000401CD863102808BF9D719A791B480426AA
:1042D0001B4C8276D979052709B1B2B126E0002AB4
:1042E0001CBF80F818C0012020D000EB400101EB7A
:1042F000C00104EB4101401CCE74A1F814C081F848
:1043000012C04F743228F0DD10E003210176012045
:1043100000EB400101EBC00104EB4101401CCE74F5
:104320008D8281F812C04F743228F1DDDA71BDE858
:10433000F0810000000C01401800002074170020DC
:1043400004030020044A0029516914BF084321EAEC
:10435000000050617047000000100240044A00292C
:10436000D16914BF084321EA0000D0617047000002
:1043700000100240044A0029916914BF084321EA51
:10438000000090617047000000100240284A10B4FD
:104390005168284B11F00C0105D0042908BF2649AB
:1043A00018D0082901D0036019E05168536801F45E
:1043B00070114FF0020C13F4803F0CEB91410BD0C5
:1043C000536813F4003F0CBF1B4B1C4B594308BFF1
:1043D000016004D0016002E0194B5943016051684B
:1043E0000F23DFF860C003EA11111CF80110036805
:1043F00023FA01F141605368072404EA13231CF8EF
:10440000033021FA03F38360536804EAD3231CF8D2
:104410000330D940C1605268032303EA9232ACF101
:1044200004039A5CB1FBF2F1016110BC704700001B
:104430000010024000127A00001BB700808D5B0064
:1044400000093D000400002070B5164D064600240A
:104450000221284600F031F848B9601CC4B2C82CCB
:1044600013D80221284600F028F80028F5D031465C
:10447000284600F02BF800240121284600F01DF802
:1044800058B9601CC4B2C82C01D9002070BD0121EC
:10449000284600F012F80028F3D02846BDE8704006
:1044A00000F012B8003001400029018814BF41F02B
:1044B000400121F04001018070470246002012892E
:1044C0000A4218BF01207047808970478181704778
:1044D00010B402880B88B1F802C0CC8843EA0C0300
:1044E000B1F804C002F441524CEA040C43EA0C0354
:1044F000B1F808C043EA0C03B1F80AC043EA0C0360
:10450000B1F80CC043EA0C03B1F80EC043EA0C0347
:104510001A430280828B22F400628283098A01821C
:1045200010BC704706490A8912F0020FFBD088813F
:10453000088910F0010FFBD08889C0B270470000D5
:1045400000300140704700002DE9F047224F8946B6
:1045500080461D4614464FF400713846FCF7C7FAF2
:104560001E4E0021084686F8008086F80190B5703E
:10457000002D0BDD34F810207318120ADA7014F8CD
:104580001020891C401C1A718D42F3DCE81CC1B25A
:104590001248FBF7FFFF0146020A70190024C2709F
:1045A0006D1D0171002DC8BFDFF834800CDD315D59
:1045B000404600F0A7FC8021404600F004FC0028A3
:1045C000F9D0641CAC42F2DB3846BDE8F0474FF44A
:1045D0000071FCF78ABA0000000801403802002090
:1045E000004800402DE9F04100250446057540785B
:1045F0007A4E5A2806F6163703D05B287ED000F094
:10460000E6B80F212046FBF7C5FFE17BC0F3072288
:10461000914240F0DC80217CC0B2814240F0D780E2
:104620002078A17800EB400202EBC00006F81010E1
:10463000207840F6B83100EB400202EBC00006EBF8
:1046400040004180207800EB400101EBC00006EB08
:10465000400045702079E17800EB0121207800EBE3
:10466000400202EBC00006EB40008180A079617936
:1046700000EB0121207800EB400202EBC00006EBCA
:104680004000C180207800EB400101EBC00116F82A
:10469000111000EBC00007EB40004180207800EBD8
:1046A000400101EBC00106EB4101898800EBC0002D
:1046B00007EB40008180207800EB400101EBC00156
:1046C00006EB4101C98800EBC00007EB4000C18048
:1046D0002078E17900EBC00007EB400001812078F1
:1046E000217A00EBC00007EB40004181A07A617A9B
:1046F00000EB0121207800EBC00000E036E007EB82
:1047000040008181207BE17A00EB0121207800EBE1
:10471000C00007EB4000C181A07B617B00EB012161
:10472000207800EBC00007EB4000018220780121D7
:1047300000EBC00027F81010A07880B12178284A3B
:104740000020135C8B421CBF401C0428F9DB08BF0F
:10475000002004D1135C3BB1401C0428FADB214942
:104760004FF47A60888632E01154F8E7032120463E
:10477000FBF710FFE178C0F30722914227D121799E
:10478000C0B2814223D1207800EB400101EBC00090
:1047900006F81050207800EB400101EBC00006EB5A
:1047A00040004580207800EB400101EBC00006EBA3
:1047B00040004570207800EBC00100EB400207EBA1
:1047C000410102EBC00006EB4000C9888180002057
:1047D0002554401C1428FBDBBDE8F08104030020B5
:1047E00064000020180000202DE9F0410025044657
:1047F000057540786A4E032802D006281ED0C7E00F
:1048000006212046FBF7C6FEA179C0F3072291429C
:104810005ED1E179C0B281425AD1E078A17800EB53
:104820000121207800EBC00206EB420202EB4102BC
:1048300061794B006178FFF787FEA9E006212046E9
:10484000FBF7A8FEA179C0F30722914240D1E1799C
:10485000C0B281423CD1E078A178524A00EB0121FC
:104860002078012300EBC00006EB400000EB410183
:10487000861D4FF0020C8E422BD16179267901EB17
:104880000621C68889B28E4222D0C18020780326B4
:1048900000EB400707EBC00002EB4000C674207835
:1048A00000EB400606EBC00002EB4000818220785E
:1048B00000EB400101EBC00002EB40008374207864
:1048C00000EB400101EBC00002EB400080F811C09A
:1048D0005EE000F108068E422BD16179267901EB6A
:1048E0000621068989B28E4252D0C18020780426E2
:1048F00000EB400707EBC00002EB4000C6742078D5
:1049000000EB400606EBC00002EB400081822078FD
:1049100000EB400101EBC00002EB40008374207803
:1049200000EB400101EBC00002EB400080F811C039
:104930002EE000F10A068E422AD16179267901EB38
:104940000621468989B28E4222D0418120780526EF
:1049500000EB400707EBC00002EB4000C674207874
:1049600000EB400606EBC00002EB4000818220789D
:1049700000EB400101EBC00002EB400083742078A3
:1049800000EB400101EBC00002EB400080F811C0D9
:1049900000202554401C1428FBDBBDE8F0810000FA
:1049A0001A0E0020040300202DE9F0474FF4805137
:1049B0005D48FCF793F8DFF8748100270124012893
:1049C00006D0C8F8407098F8080001280FD017E00A
:1049D000C8F8447098F8080090B9D8F84000401C16
:1049E000C8F84000102808BF88F8084008E0D8F848
:1049F0004400401CC8F84400102808BF88F808701C
:104A000098F80820DFF828C14A4D02268CF81920B2
:104A100098F8090008B1EAB129E042B3ACF8127085
:104A20009CF8150018B38CF815708CF8184001210B
:104A30004FF0070901EB410000EBC10005EB40001E
:104A4000491C80F813900389838284744674322948
:104A5000F0DD0CE09CF81B0048B19CF808009CF8C5
:104A60000910C0EB001001EB8000ACF8120088F8D0
:104A70000920B8F81400401C80B2A8F81400B0F562
:104A80007A7F98BFBDE8F087A8F81470B8F81600D0
:104A900000281CBF401EA8F81600BCF81200002811
:104AA00008BFBDE8F087401E0004000CACF81200FF
:104AB00018BFBDE8F0878CF818608CF8154001200D
:104AC00000EB400101EBC00105EB4101401CCF733D
:104AD0003228F5DD012000EB400101EBC00105EBC0
:104AE0004101CA880B899A421CBFCA880A81401CAE
:104AF0003228F0DDBCF8021001204FF6FF7201EB06
:104B00008101062302EA410200EB400101EBC001F2
:104B100005EB4101401CCB748A828C744E743228A0
:104B2000F2DDBDE8F0870000000C01401800002015
:104B300074170020040300201E490868401C086008
:104B40000A2805DD1C480268521C0260002008602B
:104B50001A48C18A012231B1C18A491EC182C18A63
:104B6000002908BF4275C18D39B1C18D491EC1856B
:104B7000C18D002908BF80F82D20B0F8461051B132
:104B8000B0F84610491EA0F84610B0F846100029AB
:104B900008BF80F845200A48018811B10188491EE4
:104BA00001800848018811B10188491E018003F085
:104BB000BBBF000014000020D00000202C170020F4
:104BC0004600002048000020374882B0016841F0CC
:104BD000010101604268354911404160016821F4DA
:104BE000102121F080710160016821F480210160B1
:104BF000416821F4FE0141604FF41F0181600022F1
:104C000000920192016841F480310160016801F471
:104C1000003101910099491C0091019919B900993D
:104C2000B1F5A06FF2D1016811F4003F08BF019205
:104C300033D0012101911E490A6842F010020A6036
:104C40000A6822F003020A600A6842F002020A605F
:104C50004168416041684160416841F48061416060
:104C6000416821F47C114160416841F4E8114160E0
:104C7000016841F080710160016811F0007FFBD094
:104C8000416821F003014160416841F00201416047
:104C9000416801F00C010829FAD106494FF0006083
:104CA000086002B070470000001002400000FFF8EA
:104CB0000020024008ED00E010B50E4C40F22551F6
:104CC000204600F087F8002808BF10BD40F22551AB
:104CD000204600F068F8204600F010F906490A7DE9
:104CE0008854087D132802D2087D401C08750320D3
:104CF000C88210BD003801402C17002010B5114C9F
:104D000040F22551204600F065F8002808BF10BD8C
:104D100040F22551204600F046F8204600F0EEF81B
:104D2000094991F82C2001F11803D05491F82C0076
:104D3000132804D291F82C00401C81F82C00032089
:104D4000C88510BD004400402C17002010B5124C3F
:104D500040F22551204600F03DF8002808BF10BD64
:104D600040F22551204600F01EF8204600F0C6F81B
:104D70000A4991F8442001F13003D05491F84400DD
:104D8000132804D291F84400401C81F84400032009
:104D9000A1F8460010BD0000004800402C1700207C
:104DA000C94301807047090A012202FA01F1C9438F
:104DB000018070470029818914BF41F4005121F41A
:104DC0000051818170470246002012880A4218BFB4
:104DD0000120704710B401F01F020124C1F34213F7
:104DE00004FA02F24FF0000C012B04BF83891A4031
:104DF00004D0022B0CBF038A838A1A40090A008858
:104E000004FA01F10840002A1CBF00284FF0010CF1
:104E1000604610BC7047C1F3421301F01F014FF010
:104E2000010C0CFA01F1012B08BF0C3003D0022B4E
:104E30000CBF10301430002A026814BF114322EA5C
:104E4000010101607047000030B50446008A85B05A
:104E50000D464CF6FF710840E98808432082A0897E
:104E60004EF6F3110840A9882A8911436A89104334
:104E70000843A081A08A4FF6FF410840A989084352
:104E8000A0826846FFF782FAA4F18040B0F59C301A
:104E90000CBF03980298A18911F4004F00EBC001E8
:104EA00001EB0010296814BF49008900B0FBF1F044
:104EB000114A6FF0180CA2FB0031490909010B09D6
:104EC00003FB0CF300EB8300A38913F4004F4FF0B6
:104ED000320314BF03EBC00003EB0010A2FB002061
:104EE0004FEA501014BF00F0070000F00F00084315
:104EF000208105B030BD00001F85EB518088C0F3D4
:104F000008007047C1F3080181807047FEE7000088
:104F100002490120096881F854007047E800002028
:104F20002DE9F0418AB0040036D0FCF703F8019077
:104F3000D0E90012CDE90412876A056A01A8FCF7DE
:104F40001BF8204600F08CFC060025D0204600F01F
:104F5000CCF98046B80704D52A46414604A800F09B
:104F6000E5FD2046FBF7E6FF01904046FBF7E2FF38
:104F700006903046FBF7DEFF039005620698019A23
:104F8000C1691162C46101A8FBF7F6FF06A8FBF72F
:104F9000F3FF03A8FBF7F0FF0AB0BDE8F0810000C3
:104FA0002DE9FC5FDFF834A10746DDE90C54DAF89F
:104FB0001800DDF83CB0984691460E4604434DB9C2
:104FC000BAF8020048B346480AF144010068407C40
:104FD00051F82050681C0ED0FDB12846FBF7AAFFFF
:104FE0000190B0F90010B0F902200F441644B9F155
:104FF000000F02D006E000250FE0B0F90430591A86
:1050000001F10109B8F1000F04D1B0F90600801ACE
:1050100000F1010801A8FBF7AFFF0BF12C00FBF733
:10502000CEFE5FEA000B56D0BAF80200401CAAF888
:1050300002005846FBF77EFF0090078007EB09014E
:105040004680491E818006EB0801491EC1800E99E9
:105050000161244A816A2240114381626846FBF75C
:105060008BFFDAF810005E4650B1FBF79DFF074654
:105070003046FBF799FF0146786948617E6101E09F
:10508000CAF810B02946584600F080FCA00602D5A8
:10509000584600F0B1FAE00704D0DAF82410491CB1
:1050A000CAF82410600602D55846FFF739FFA0075A
:1050B0000DD55846FBF73EFF0090816A41F0020192
:1050C00081626846FBF758FF584600F0C6F9012197
:1050D000584600F0CCFE5846BDE8FC9F5401002025
:1050E000E80000209F3F3F0003490020096881F845
:1050F0005400FEF7D9BC0000E800002010B50446BB
:10510000C168D4E90020172A0DD004DC0E2A0CD087
:10511000142A07D104E0222A0CD0282A02D10CE05C
:1051200000F058FB0020E06010BD2146BDE81040B3
:1051300000F082BA6FF07040F5E7BDE8104000F073
:105140008CB938B504000BD0FBF7F4FE0090006872
:10515000FCF76EFF6846FBF70FFF2046FBF74AFEA1
:1051600038BD0000F8B505006CD000F0E3FC002865
:1051700068D0284600F086FB07460B21284600F041
:1051800076FE284600F0EDFA2846FBF7D3FE0090A5
:10519000406A08B1FCF700FB2B4C002104F15C02D3
:1051A0006163E06852F82030AB4201D142F8201030
:1051B000254A543252F82030AB4201D142F8201037
:1051C000606904E04368AB4200D141600068002898
:1051D000F8D10721284600F074F9009801F0BAF8D8
:1051E000284600F0E3FA20690DE000BFFBF7DCFE83
:1051F000064640692946A84205D10846FBF7D4FE79
:105200004069706101E00028F0D10098806AC10710
:1052100002D0616A491E6162800602D5A088401EE4
:10522000A0806846FBF7A8FE6088401E6080284684
:10523000FBF7E0FD002F05DB0348443050F8270062
:1052400000F0DAF9F8BD0000540100202DE9F0412A
:105250001A4C0025206B10B1804700E0012501F0B9
:10526000B7FF0028FAD1164E306890F8540038B1D4
:10527000A08828B1206A012720B10068804704E097
:10528000002702E00120FDF7BBFC306890F85400D5
:1052900038B1A08828B101F09FFEA08808B101258F
:1052A000F3E73FB1206A10B14068804702E0002078
:1052B000FDF7A6FC2846BDE8F0810000540100205F
:1052C000E8000020034804490068407C51F82000B1
:1052D00070470000E80000209801002010B5002869
:1052E00002D0FBF761FEC06910BD10B5002802D0E6
:1052F000FBF75AFE806910BD10B501004FF00000A9
:1053000004D00846FBF750FEB0F9000010BD0000C5
:105310002DE9FF5F2C4D6878002853D100272B48DA
:105320002F616F630068DFF8A8903C464764AF8048
:105330006F804FF0020A4FF0FF3B43F6FF7805F114
:1053400044062046FBF78CFF98B1CDE90297CDE9E2
:1053500000BA0021424643460846FFF721FE1A4A9A
:1053600046F824004C326FF0704142F8241000F0EF
:1053700074F8641C022CE4DB164FDFF85C80DFF865
:105380005C90002407EBC40000F0B4F908EBC40003
:1053900000F0B0F909EBC40000F0ACF9641C022C79
:1053A000F0DB306800F028F9FFF7B2FD0120064974
:1053B00068703C310A48086004B00846BDE8F05FF8
:1053C000FDF7E8BCBDE8FF9F54010020E800002085
:1053D000E5890008584500206845002078450020F0
:1053E000FD7B000870B586B00D4606002CD0FBF79B
:1053F000A1FD0090846AA10723D5D0E90010CDE972
:105400000110E00302D5304600F016FB5DB12868BC
:1054100003906868049003A9009800F073F903A949
:1054200001A8FDF7A7FB314601A800F073F940B1D0
:1054300040F601000440012C08D001A9304600F0DC
:10544000F7FA6846FBF798FD06B070BD0098026A4F
:10545000816901A800F06AFBF3E70021FFF7C2BFF2
:10546000FEB515460E4604001CD0FBF763FD024650
:10547000009090F82800800711D5314601A8FDF76B
:1054800096FB60B16846FBF777FD2A4601A92046E6
:1054900002F0F4FA2046FFF721FF04460CE06846CC
:1054A000FBF76AFDFEBD2A4601A92046FFF7D8FF9B
:1054B0002046FBF779FD046A002CF4D1FEBD00F014
:1054C0004BBB1FB5262203910092694600F0B4F849
:1054D0001FBD000010B50C4C0A4A0346246800208A
:1054E00086B052F82420002A0AD00E200090CDE980
:1054F000043104A803906946104600F087FC01209F
:1055000006B010BDB00100206001002070B5154646
:1055100006468AB00C4651EA05006BD0002E69D0D1
:105520003046FBF707FD0590D0E90012CDE90212E5
:10553000CDE906127CB1816A0A0607D5890505D432
:10554000BDF81810091BADF8181004E0BDF81C10C8
:105550002144ADF81C107DB1816ACA0507D5490503
:1055600005D4BDF81A10491BADF81A1004E0BDF8B7
:105570001E102944ADF81E10806AC00302D53046C3
:1055800000F05AFA05AB93E80700C0E9001290F862
:10559000280080070AD506AA02A908A8FCF719FC6A
:1055A0000598026A816908A800F0C0FABDF91E00DA
:1055B000BDF90E10401A0090BDF91C00BDF90C1089
:1055C000431ABDF91A00BDF90A10421ABDF91800B4
:1055D000BDF90810411A059800F050FC059901F139
:1055E0000800FDF7C7FA0521304600F040FC05A889
:1055F000FBF7C2FC0AB070BD70B50C4D0400286802
:10560000866C01D10A490C698464204600F0F4FBE1
:10561000FEF74AFA2046FBF7C7FC2968B0F90020DC
:10562000CA64B0F902000865304670BDE800002089
:105630005401002000F008BC70B50C00054609D0EC
:10564000FFF753FE002805D02146A560BDE8704055
:1056500000F0DCBB70BD000010B5FBF787F9024914
:1056600000200968486410BDE8000020F8B516461F
:105670000C46050018D0FBF75DFC0090B0F9041053
:10568000B0F90020891A641AB0F90610B0F90200C6
:10569000641E081A361A6846761EFBF76DFC324601
:1056A00021462846FFF732FFF8BD00000EB50E4830
:1056B000006890F8541009B10C4811E0806CFBF7B9
:1056C00039FC0090D0E90010CDE901106846FBF7E5
:1056D00053FC0748816A11B101A800F01BF801A82A
:1056E00002F03CFC0EBD0000E8000020D844002081
:1056F0005401002002490A680260086070470000F7
:10570000680100200B46B0F90220B0F900101846DD
:10571000FCF78BBB38B50C4605462046FBF70AFC68
:105720000146009090F82800800703D46846FBF7F4
:1057300023FC12E02846FDF71DFA0098806920B18D
:1057400004466846FBF718FCE7E76846FBF714FCDD
:10575000204600F009FE002801DA002038BD0120B3
:1057600038BDF8B505466846FCF784FC1AE001210F
:105770002046FCF76BFC009981B178B10846FBF735
:1057800013FC4068A84209D169462046009EFCF7F8
:1057900085FC04463046FFF7D4FC04E06946204609
:1057A000FCF77CFC0446002CE1D1F8BD38B504467A
:1057B000FBF7C0FB0090816941B1026A00F0B6F9C5
:1057C000204600F0F9FA0099002088616846FBF74E
:1057D000D3FB38BD38B50C4600280AD0002C08D0C1
:1057E000FBF7A8FB2146009000F004F86846FBF7A1
:1057F000C3FB38BD00224A800A8082880388D21AFF
:105800008A80C2884088101AC880704710B5FFF798
:105810006CFD002802D0FBF7C7FBC06910BD00007B
:105820000D4810B5006890F85400002806D00B4CC5
:105830006069012803DD401E6061002010BD206901
:10584000401C206101F07EFD18B1FFF72FFF012001
:1058500010BD6069EFE70000E8000020D0440020A0
:1058600070B50546FFF7D2FF08E0AC4201D1002435
:1058700006E0FBF799FB006AA84201D00400F4D1CE
:10588000204670BD10B50446FBF78EFB80690028EA
:10589000F9D12046BDE8104000F066BDF0B5384EA5
:1058A000074687B0306890F8541041B1354C6169B3
:1058B000491C6161012905DD012007B0F0BDFFF73A
:1058C000F5FEF9E7806CFBF735FB2F4D4FF0FF310C
:1058D00000902161297821B181680291C06803900C
:1058E00007E090F8281089073CD5D0E90010CDE9F1
:1058F00002101FB1394602A8FDF73CF93068406C30
:1059000078B3009804903068406C01680591406855
:105910000690A86A30B104A8FBF72EFBA86AFBF733
:1059200009FB049005A90498FFF7ECFE05A902A85D
:10593000FDF720F90DF11000FBF71EFBA96A19B164
:1059400002A8FFF7E7FEB0B13068816C02A8FFF74C
:10595000E1FE80B1DDE90201C4E90001FFF760FF6B
:10596000ABE706E06069401E60616846FBF704FB38
:1059700004E06846E0E76069401E606100209CE743
:10598000E8000020D044002054010020FEB50D00A6
:10599000044647D0FBF7CEFA0090002185610162F2
:1059A0002846FBF7C7FA00990290C56991F82810BC
:1059B00001F008062DB12846FBF7BCFA019036B17C
:1059C00015E0C4616846FBF7D7FA02A828E090F812
:1059D000280000070BD5009805620298C46168464C
:1059E000FBF7CAFA02A8FBF7C7FA01A818E002A859
:1059F000FBF7C2FA01A8FBF7BFFA2846FBF7D4FA77
:105A000011E004620BE02846FBF7CEFA5EB990F88D
:105A10002810090707D501980462009805626846B6
:105A2000FBF7AAFAFEBD0190056A002DEBD1E8E76D
:105A3000202202F023B8000038B5040022D0FBF782
:105A400079FA009090F82810890718D5406A40B17B
:105A50000D49C96AA14204D0FBF79EFE00990020BF
:105A600048622046FFF73AFC044606E02046FFF76E
:105A7000E3FF2046FBF798FA046A002CF6D168464B
:105A8000FBF77AFA38BD00005401002070B50646D5
:105A900015460C460846FBF787FA806AC00302D514
:105AA0004FF4804300E020232A4621463046BDE8DB
:105AB0007040AFF300802DE9FF4198461646074637
:105AC0000D0031D00846FBF735FA0090846A024693
:105AD000A00726D5394601A8FDF769F808B340F6B6
