:020000040800F2
:10000000604E002079CD00087DCD00087FCD00082E
:1000100081CD000883CD000885CD000800000000D8
:1000200000000000000000000000000087CD000874
:1000300089CD00080000000017CD0008F911000864
:100040008FCD00088FCD00088FCD00088FCD000820
:100050008FCD00088FCD00084B7000088FCD0008B1
:100060008FCD00088FCD00088FCD0008C37F00081A
:100070008FCD00088FCD00088FCD00088FCD0008F0
:100080008FCD00088FCD00088FCD00088FCD0008E0
:100090008FCD00088FCD00088FCD00088FCD0008D0
:1000A0008FCD00082F7000088FCD00088FCD00087D
:1000B000D76F0008F76F0008137000088FCD000895
:1000C0008FCD00088FCD00088FCD00088FCD0008A0
:1000D0008FCD0008411200088FCD00088FCD000899
:1000E0008FCD00088FCD00088FCD000800F002F8FA
:1000F00000F03AF80AA090E8000C82448344AAF188
:100100000107DA4501D100F02FF8AFF2090EBAE885
:100110000F0013F0010F18BFFB1A43F0010318473B
:100120000819010028190100103A24BF78C878C1C5
:10013000FAD8520724BF30C830C144BF04680C60ED
:10014000704700000023002400250026103A28BF35
:1001500078C1FBD8520728BF30C148BF0B60704739
:100160001FB51FBD10B510BD0EF0D2F91146FFF737
:10017000F7FF02F050FB0EF0F0F903B4FFF7F2FFC7
:1001800003BC0EF0F1F900001CB500210020002294
:1001900000920192F74A92F89A20032A04DAF54A6B
:1001A000B2F8A020002A72DDF24AB2F8A0100AE0EC
:1001B0004A1EF04BA23333F81230EE4AA23222F834
:1001C00011304A1E91B20029F2DCEA4A92F89A20D4
:1001D000032A74DBE74AB2F8A0200A2A06DAE54AC5
:1001E000B2F8A020521CE34BA3F8A020E14AB2F9D8
:1001F000062002EB82025000DE4AB2F85020121AAA
:1002000012B2ADF80020DB4AB2F8A0200A2A57D17A
:10021000BDF90020322A09DDBDF80020323A12B2C1
:10022000ADF804203222ADF8002012E0BDF9002024
:1002300012F1320F0ADABDF80020323212B2ADF8F4
:1002400004206FF03102ADF8002002E00022ADF88A
:100250000420BDF90020092A09DBBDF80020093A75
:1002600012B2ADF802200922ADF8002013E0BDF96A
:10027000002012F1090F0BDCBDF80020093212B288
:10028000ADF802206FF00802ADF8002003E0A7E00F
:100290000022ADF80220BDF90030032493FBF4F3F3
:1002A0000344BDF9022002EBD27403EB6403BDF8F2
:1002B000044023441BB2AF4CA4F8A2300AE01EE075
:1002C000BDF9002002EBD27300EB63031BB2A94C13
:1002D000A4F8A2300020002106E0A64AA23232F99A
:1002E000112010444A1C91B2A24AB2F8A0208A42BE
:1002F000F3DCA04AB2F8A02090FBF2F025E09D4A82
:10030000B2F8A020002A20DD9A4AB2F85020994B7A
:10031000A3F8A2200020002106E0964AA23232F97A
:10032000112010444A1C91B2924AB2F8A0208A428D
:10033000F3DC904AB2F8A02090FBF2F08D4AB2F8BC
:10034000A020521E8B4BA3F8A0208A4A928932B17A
:1003500000EBC002052392FBF3F202F5A070854A80
:100360009289CAB941F2883290420ADD0020814A5E
:1003700092F88C200B2A28DA0D227E4B83F88C20F1
:1003800023E07C4A92F88C200D2A1ED1794A1278FB
:10039000784B83F88C2018E042F2684290420ADDE4
:1003A0000020744A92F88C200D2A0EDA0D22714B2F
:1003B00083F88C2009E06F4A92F88C200D2A04D132
:1003C0006C4A12786B4B83F88C20002804DD02B253
:1003D000684BA3F8442003E00022664BA3F84420B6
:1003E0001CBD1CB500210020002200920192624A2F
:1003F00092F89A20032A04DA5F4AB2F8A020002A71
:1004000072DD5D4AB2F8A0100AE04A1E5A4BA233D0
:1004100033F81230584AA23222F811304A1E91B2F3
:100420000029F2DC544A92F89A20032A74DB524ADB
:10043000B2F8A0200A2A06DA4F4AB2F8A020521CCD
:100440004D4BA3F8A0204C4AB2F9062002EB8202E1
:100450005000494AB2F85020121A12B2ADF80020EA
:10046000454AB2F8A0200A2A57D1BDF90020322A05
:1004700009DDBDF80020323A12B2ADF80420322274
:10048000ADF8002012E0BDF9002012F1320F0ADAB7
:10049000BDF80020323212B2ADF804206FF0310204
:1004A000ADF8002002E00022ADF80420BDF90020E4
:1004B000092A09DBBDF80020093A12B2ADF8022082
:1004C0000922ADF8002013E0BDF9002012F1090F58
:1004D0000BDCBDF80020093212B2ADF802206FF03B
:1004E0000802ADF8002003E0BCE00022ADF80220D5
:1004F000BDF90030032493FBF4F30344BDF902205B
:1005000002EBD27403EB6403BDF8044023441BB236
:10051000194CA4F8A2300AE01EE0BDF9002002EB5D
:10052000D27300EB63031BB2134CA4F8A23000207B
:10053000002106E0104AA23232F9112010444A1C70
:1005400091B20D4AB2F8A0208A42F3DC0A4AB2F80E
:10055000A02090FBF2F02CE0074AB2F8A020002A7D
:1005600027DD054AB2F85020034BA3F8A220002053
:10057000002109E0B83A0020843B0020F94A32F912
:10058000112010444A1C91B2F64AA23AB2F8A020B7
:100590008A42F3DCF34AA23AB2F8A02090FBF2F0D0
:1005A000F04AA23AB2F8A020521EEE4BA23BA3F8AA
:1005B000A020EC4AA23A928932B100EBC002052396
:1005C00092FBF3F202F5A070E64AA23A9289F2B9E0
:1005D00041F2883290420CDD0020E24AA23A92F8C1
:1005E0008C200D2A31DA0D22DE4BA23B83F88C20C1
:1005F0002BE0DC4AA23A92F88C200D2A25D1D94A68
:10060000A23A1278D74BA23B83F88C201DE042F22D
:10061000684290420CDD0020D24AA23A92F88C2027
:100620000D2A12DA0D22CF4BA23B83F88C200CE06E
:10063000CC4AA23A92F88C200D2A06D1C94AA23A95
:100640001278C84BA23B83F88C20002805DD02B24B
:10065000C44BA23BA3F8442004E00022C14BA23BC0
:10066000A3F844201CBD1CB50021002000220092EC
:100670000192BD4A92F89A20032A04DABA4AB2F8E3
:10068000A020002A72DDB84AB2F8A0100AE04A1E83
:10069000B54BA23333F81230B34AA23222F81130EC
:1006A0004A1E91B20029F2DCAF4A92F89A20032A3E
:1006B00074DBAD4AB2F8A0200A2A06DAAA4AB2F8D8
:1006C000A020521CA84BA3F8A020A74AB2F90620EC
:1006D00002EB82025000A44AB2F85020121A12B261
:1006E000ADF80020A04AB2F8A0200A2A57D1BDF9DF
:1006F0000020322A09DDBDF80020323A12B2ADF8EE
:1007000004203222ADF8002012E0BDF9002012F1E1
:10071000320F0ADABDF80020323212B2ADF80420EE
:100720006FF03102ADF8002002E00022ADF80420A5
:10073000BDF90020092A09DBBDF80020093A12B2F0
:10074000ADF802200922ADF8002013E0BDF9002029
:1007500012F1090F0BDCBDF80020093212B2ADF81E
:1007600002206FF00802ADF8002003E0A7E00022AD
:10077000ADF80220BDF90030032493FBF4F30344E9
:10078000BDF9022002EBD27403EB6403BDF8044010
:1007900023441BB2744CA4F8A2300AE01EE0BDF959
:1007A000002002EBD27300EB63031BB26E4CA4F883
:1007B000A2300020002106E06B4AA23232F911205B
:1007C00010444A1C91B2684AB2F8A0208A42F3DC75
:1007D000654AB2F8A02090FBF2F025E0624AB2F838
:1007E000A020002A20DD604AB2F850205E4BA3F81A
:1007F000A2200020002106E05B4AA23232F911203B
:1008000010444A1C91B2584AB2F8A0208A42F3DC44
:10081000554AB2F8A02090FBF2F0534AB2F8A0205B
:10082000521E514BA3F8A0204F4A928932B100EBDF
:10083000C002052392FBF3F202F5A0704A4A9289A6
:10084000CAB941F2883290420ADD0020464A92F845
:100850008C200D2A28DA0D22434B83F88C2023E0CC
:10086000414A92F88C200D2A1ED13F4A12783E4B05
:1008700083F88C2018E042F2684290420ADD0020A2
:10088000394A92F88C200D2A0EDA0D22364B83F865
:100890008C2009E0344A92F88C200D2A04D1324A87
:1008A0001278314B83F88C20002804DD02B22E4BE5
:1008B000A3F8442003E000222B4BA3F844201CBDE6
:1008C0001CB500210020002200920192274A92F8D4
:1008D0009A20032A04DA254AB2F8A020002A78DDFB
:1008E000224AB2F8A0100AE04A1E204BA23333F885
:1008F00012301E4AA23222F811304A1E91B200294B
:10090000F2DC1A4A92F89A20032A7ADB174AB2F8E4
:10091000A0200A2A06DA154AB2F8A020521C134B6E
:10092000A3F8A020114AB2F9062002EB820250007F
:100930000E4AB2F85020121A12B2ADF800200B4A3B
:10094000B2F8A0200A2A5DD1BDF90020322A0FDDBD
:10095000BDF80020323A12B2ADF804203222ADF8D0
:10096000002018E0263C0020503C00201C3D0020C8
:10097000BDF9002012F1320F0ADABDF80020323240
:1009800012B2ADF804206FF03102ADF8002002E0A1
:100990000022ADF80420BDF90020092A09DBBDF8CA
:1009A0000020093A12B2ADF802200922ADF8002069
:1009B00013E0BDF9002012F1090F0BDCBDF8002097
:1009C000093212B2ADF802206FF00802ADF8002033
:1009D00003E0A7E00022ADF80220BDF900300324B7
:1009E00093FBF4F30344BDF9022002EBD27403EB52
:1009F0006403BDF8044023441BB2F84CA4F8A230B1
:100A00000AE01EE0BDF9002002EBD27300EB6303A5
:100A10001BB2F24CA4F8A2300020002106E0EF4AFD
:100A2000A23232F9112010444A1C91B2EB4AB2F8BA
:100A3000A0208A42F3DCE94AB2F8A02090FBF2F051
:100A400025E0E64AB2F8A020002A20DDE34AB2F809
:100A50005020E24BA3F8A2200020002106E0DF4A4C
:100A6000A23232F9112010444A1C91B2DB4AB2F88A
:100A7000A0208A42F3DCD94AB2F8A02090FBF2F021
:100A8000D64AB2F8A020521ED44BA3F8A020D34AD5
:100A9000928932B100EBC002052392FBF3F202F51A
:100AA000A070CE4A9289CAB941F2883290420ADDDA
:100AB0000020CA4A92F88C200D2A28DA0D22C74B52
:100AC00083F88C2023E0C54A92F88C200D2A1ED191
:100AD000C24A1278C14B83F88C2018E042F2684277
:100AE00090420ADD0020BD4A92F88C200D2A0EDAD1
:100AF0000D22BA4B83F88C2009E0B84A92F88C207A
:100B00000D2A04D1B54A1278B44B83F88C20002802
:100B100004DD02B2B14BA3F8442003E00022AF4B46
:100B2000A3F844201CBD10B50AF0CAFE4FF4803073
:100B30000AF0E5FE0AF022FF01282BD110200AF06E
:100B4000B9F802200AF0A0F800200AF060FF4FF484
:100B5000E0600AF06EFF4FF4E0600AF061FF4FF4CE
:100B60000021C8100AF036FF01200AF03FFF4FF4C1
:100B700080400AF078FF00BF39200AF0E3FE002829
:100B8000FAD002200AF035FF00BF0AF03BFF082828
:100B9000FBD101E000BFFEE700200AF06DFF10BDB1
:100BA00008B502208DF80200FF20ADF800000020FB
:100BB0008DF8030069468A480AF066FB4FF48060AE
:100BC000ADF8000004208DF80300694684480AF05F
:100BD0005BFB4FF40070ADF8000018208DF80300A7
:100BE00069467F480AF050FB4FF47940ADF80000A9
:100BF00028208DF80300694679480AF045FB40F645
:100C00000740ADF8000004208DF8030069467548E0
:100C10000AF03AFBE020ADF8000014208DF8030044
:100C2000694670480AF030FB4FF4E040ADF8000030
:100C300010208DF8030069466A480AF025FB48F247
:100C40001830ADF8000028208DF80300694665488B
:100C50000AF01AFB0120ADF8000000208DF8030017
:100C6000694661480AF010FB3E20ADF800004820BC
:100C70008DF8030069465C480AF006FB4FF4FE500D
:100C8000ADF8000010208DF80300694656480AF0C0
:100C9000FBFA4FF46040ADF8000048208DF80300E7
:100CA000694651480AF0F0FA0420ADF8000010201F
:100CB0008DF8030069464D480AF0E6FA4FF40071DA
:100CC00047480AF08BFB47F2E00146480AF086FBF2
:100CD0004FF4FE5144480AF083FB042143480AF0D4
:100CE0007FFB08BD00B585B025208DF810000020E1
:100CF0008DF811008DF8120001208DF813004FF4CB
:100D0000164000900020ADF80400ADF80600ADF8E4
:100D10000800ADF80C0004A80AF02BFC6946344822
:100D20000BF02BFE012132480BF095FE012240F220
:100D300025512F480BF09BFE012240F227712C48D1
:100D40000BF095FE05B000BD1FB519208DF80C0005
:100D500000208DF80D008DF80E0001208DF80F0099
:100D600003A80AF006FC44F62060ADF80400052054
:100D7000ADF800000020ADF80200ADF806008DF8D7
:100D8000080069461B480BF044F8002119480BF095
:100D9000C7FB1848008840F00C0016490880012164
:100DA00014480BF09EFD0122114612480BF0D2FAB6
:100DB0001FBD40B10E490C31098841F008010C4AB1
:100DC0000C32118008E00A490C3109884FF6F7729D
:100DD0001140074A0C321180704700001C3D002072
:100DE00000080140000C01400010014000140140C7
:100DF00000380140002C014030B1F849098841F029
:100E00000401F64A118006E0F44909884FF6FB72A6
:100E10001140F24A118070471FB51C208DF80C005C
:100E200000208DF80D008DF80E0001208DF80F00C8
:100E300044F62060ADF804000520ADF80000002065
:100E4000ADF80200ADF8060003A80AF092FB69466F
:100E50004FF080400AF0DDFF00214FF080400BF0A2
:100E60005FFB4FF08040008840F00C004FF0804165
:100E70000880012188070BF034FD012211469007FC
:100E80000BF068FA1FBD1FB51D208DF80C00002067
:100E90008DF80D008DF80E0001208DF80F0044F63E
:100EA0002060ADF804000520ADF800000020ADF88A
:100EB0000200ADF8060003A80AF05BFB6946C848CB
:100EC0000AF0A7FF0021C6480BF02AFBC44800889F
:100ED00040F00C00C24908800121C1480BF001FD1F
:100EE00001221146BE480BF035FA1FBD10B50A4667
:100EF000FF23BC4C237063700FE010F8013BB94C2A
:100F0000247883EA0401B74B5B78B74C645C634098
:100F1000B44C2370B54B5B5C63701300A2F101020B
:100F2000EBD110BD10B50446AE4804723930AD495E
:100F30004860052009F00EFAAA4840680178A948DF
:100F40004068401CA74B5860A4480C380BF0EBFDE0
:100F50001420FFF72EFF10BD2DE9F0470546884607
:100F600017461C46DDF8209000269E4880F8398000
:100F700080F83A70062F1FD1002180F83B1080F8CE
:100F80003C40601C84B235F814000112954880F88A
:100F90003D1015F8141080F83E1006213930FFF787
:100FA000A5FF9048017880F83F10417880F8401004
:100FB0000820FFF7B7FF3FE04FEA4960010E89487C
:100FC00080F83B1015E035F8140002123046711C11
:100FD000CEB2C01C834939310A542046611C8CB200
:100FE00015F810203046711CCEB2C01C7D49393135
:100FF0000A545FEA0900A9F1010101F0FF09E2D1F9
:10100000784890F83B00C11C76483930FFF76EFFF6
:10101000744802783046711CCEB2C01C7149393117
:101020000A5470484278F01C0A54393991F83B1040
:10103000491DC8B2FFF776FFBDE8F0871FB51E2037
:101040008DF80C0000208DF80D008DF80E000120A9
:101050008DF80F0044F62060ADF804000520ADF8CF
:1010600000000020ADF80200ADF8060003A80AF069
:1010700080FA69465E480AF0CCFE00215C480BF01D
:101080004FFA5B48008840F00C0059490880012164
:1010900057480BF026FC0122114655480BF05AF92F
:1010A0001FBD10B54FF496500AF0FAFD04200AF067
:1010B000E3FD01200AF0F8FD01200AF010FE10BD4A
:1010C0000EB5012009F0D7FD002101200AF0DFF95B
:1010D0000120019000208DF808000C208DF80900F7
:1010E00001208DF80A0001A809F04AFD01208DF8C1
:1010F000030000208DF8010001208DF80200062079
:101100008DF8000068460AF034FA0EBD00B585B0CF
:101110000020009001208DF804008DF805004FF4A8
:10112000602002900020039009208DF8100069468D
:10113000304809F00EFA0623012200212D4809F05B
:10114000A0FA0623022201212A4809F09AFA06236E
:1011500003220221274809F094FA062304220321DE
:10116000244809F08EFA062305220421214809F0BB
:1011700088FA06231A4605211E4809F082FA06233A
:10118000072219461B4809F07CFA0623082207218A
:10119000184809F076FA062309220A21154809F0B1
:1011A00070FA0121134809F000FA0121114809F0F1
:1011B00007FA104809F01BFA00BF0E4809F01CFAA4
:1011C0000028FAD10B4809F021FA00BF094809F0BC
:1011D00022FA0028FAD105B000BD00000C38014009
:1011E00000040040783E0020D2040108D205010826
:1011F000000800400024014010B5FA480078401C67
:10120000F8490870F848B0F87E0041F28831884209
:1012100006DAF548B0F87E00401CF349A1F87E00DC
:10122000F248408944F62061884204DAEF48408958
:10123000401CEE49488107F0C5FB07F0C8FA10BD15
:1012400070B50BF047FD054640F22551E8480BF01C
:10125000CDFC00283CD0E6480BF069FCC4B2E34862
:101260004089052805DDE14844740020DF494872C3
:1012700010E0DE48407A0A2804DADC48407A401C54
:10128000DA494872D948407A082803DAD748417ABF
:10129000113044540020D54948810846407A072837
:1012A00016D10846407CD0490978884203D0CF48FF
:1012B000407C1E280CD1CD48C07C48B9012006F0E6
:1012C000A9F90020C9494872CA49086808F0ACFB6E
:1012D00040F22771C6480BF089FCB0B1C348017ACF
:1012E000007A401EC14A107200290BDD104640688A
:1012F000017810464068401C13465860BC480BF00B
:1013000012FC02E00020FFF754FD28460BF0E6FC3B
:1013100070BD00B58DB0B84809F006FBB748029023
:10132000B14824300390002004900920059000204B
:1013300006908020079040000890800009902020AF
:101340000A9000020B9000200C9002A9AA4809F014
:1013500084FB0B208DF8040001208DF805008DF82A
:1013600006008DF8070001A80AF003F90122022106
:10137000A14809F0A8FB01219F4809F099FB0DB095
:1013800000BD10B54FF4FE519D480AF029F84FF406
:10139000E0419C480AF022F804219B480AF020F81A
:1013A000FFF7C1FB01214FF6FD700AF0F5FBFFF7D7
:1013B000F7FB012108460AF0E2FB012108460AF08A
:1013C000F8FB012102200AF0F4FB012104200AF0BD
:1013D000F0FBFFF7B9FCFFF71FFDFFF754FDFFF728
:1013E0002DFE10BD45F25552884B1A601A465060CA
:1013F00091604AF6AA221A604CF6CC421A607047F5
:101400002DE9F0410546002400260BF063FC074659
:101410002C79687900EB042084B2E8787C4931F8B3
:101420001060E87821F81040E878801E752880F078
:10143000AE86DFE810F07500A600F3002401550128
:1014400078019B01BE01E101EB01F501FF010902F9
:101450002B024D026F0291029B02A502AF02B9025C
:10146000C302CD02D702E102210355038903AC0672
:10147000AC06AC06AC06BD03C703D103DB03E50332
:10148000EF03F90303040D04170421042B043504AE
:101490004B04610477048D049704A104AB04B504E4
:1014A000BF04C904D304DD04E704FB0405050F05EC
:1014B000190523052D05370541054B0555055F0524
:1014C000690573057D05870591059B05A505AF0594
:1014D000B905C305CD05D705DA05DD05E005E3054A
:1014E000ED05F70501060B060C0615061606200687
:1014F0002A0634063E06AC06AC06AC06AC06AC06C4
:10150000AC06AC06AC06AC06AC06AC06AC064806AF
:1015100054065F066A06750680068B069606A106C7
:1015200020B23C49A1F87C000846808938B1A4F17A
:10153000200000EB8000092190FBF1F084B23548D7
:101540000078022807D1642060433249B1F92410A1
:1015500090FBF1F084B200202E4981F89A0021B26C
:101560002C48C180002302221146801D0BF019FD7A
:101570002849B1F9060006F021FD2649C1F880008E
:1015800015E320B22449A1F87C000846808938B1CF
:10159000A4F1200000EB8000092190FBF1F084B25F
:1015A0001D480078022807D1642060431A49B1F928
:1015B000241090FBF1F084B20020174981F89A00C2
:1015C00021B21548C180002342220221801D0BF068
:1015D000E8FC1149B1F9060006F0F0FC0E49C1F82B
:1015E0008000CDE71D000020FC370020783E002061
:1015F00000380140E8370020080002404C24014038
:1016000000100140000C0140001401400030004077
:1016100026390020B83A0020843B002020B2FE4941
:10162000A1F87C000846808938B1A4F1200000EBC5
:101630008000092190FBF1F084B2F748007802287D
:1016400007D164206043F449B1F9241090FBF1F014
:1016500084B20020F04981F89A0021B2EE48C1809E
:10166000002382220221801D0BF09BFCEA49B1F984
:10167000060006F0A3FCE849C1F8800080E720B22C
:10168000E649A1F87C000846808938B1A4F1200021
:1016900000EB8000092190FBF1F084B2DF48007874
:1016A000022807D164206043DC49B1F9241090FB83
:1016B000F1F084B20020D94981F89A0021B2D748CC
:1016C000C1800023C2220221801D0BF06AFCD34995
:1016D000B1F9060006F072FCD049C1F880004FE76E
:1016E00004F0010474B128781E280BD1CC4890F87E
:1016F0008E0018B921B2CA48018106E031B2C8484B
:10170000018102E021B2C6480181C5480089E9781B
:10171000C44A22F81100002304220221C0480830E4
:101720000BF03FFC2CE704F0010474B128781E286C
:101730000BD1BD4890F88E0018B921B2BA4801818A
:1017400006E031B2B848018102E021B2B648018119
:10175000B5480089E978B34A22F8110000234422F1
:101760000221B14808300BF01CFC09E704F0010429
:1017700074B128781E280BD1A74890F88E0018B9AC
:1017800021B2A548018106E031B2A348018102E0FF
:1017900021B2A1480181A0480089E978A14A22F834
:1017A00011000023842202219B4808300BF0F9FB32
:1017B000E6E604F0010474B128781E280BD197489E
:1017C00090F88E0018B921B29448018106E031B238
:1017D0009248018102E021B2904801818F4800893E
:1017E000E978904A22F811000023C42202218B4894
:1017F00008300BF0D6FBC3E621B2894841810023B3
:10180000062202210A300BF0CCFBB9E621B2864851
:1018100041810023462202210A300BF0C2FBAFE6D1
:1018200021B27D4841810023862202210A300BF03B
:10183000B8FBA5E621B2794841810023C6220221E6
:101840000A300BF0AEFB9BE621B27548818174B182
:10185000B0F9060000EBC000052190FBF1F020304C
:1018600000B26F49A1F87C006E49888006E06C48A0
:10187000C0886B49A1F87C006A498880002308224F
:10188000022167480C300BF08CFB79E621B26648E8
:10189000818174B1B0F9060000EBC000052190FB16
:1018A000F1F0203000B26049A1F87C005D49C880A9
:1018B00006E05D48C0885C49A1F87C005949C880B1
:1018C00000234822022158480C300BF06AFB57E6EF
:1018D00021B25148818174B1B0F9060000EBC0001B
:1018E000052190FBF1F0203000B24B49A1F87C00BB
:1018F0004C49088106E04848C0884749A1F87C0067
:101900004849088100238822022143480C300BF00B
:1019100048FB35E621B24148818174B1B0F9060037
:1019200000EBC000052190FBF1F0203000B23B49F4
:10193000A1F87C003B49488106E03848C088374917
:10194000A1F87C00374948810023C822022133488E
:101950000C300BF026FB13E621B23148C181002385
:101960000A2202210E300BF01CFB09E621B22E48A0
:10197000C18100234A2202210E300BF012FBFFE549
:1019800021B22548C18100238A2202210E300BF0AA
:1019900008FBFDE321B22148C1810023CA220221B4
:1019A0000E300BF0FEFAF3E321B21D480182002352
:1019B0000C22022110300BF0F4FAE9E321B21A48AC
:1019C000018200234C22022110300BF0EAFADFE3FF
:1019D00021B21148018200238C22022110300BF029
:1019E000E0FAD5E321B20D4801820023CC22022186
:1019F00010300BF0D6FACBE3022C26D10848007841
:101A000002281BD00648B0F97C000549B1F9241022
:101A1000484364210AE00000503C00201C3D0020A7
:101A2000B83A002026390020843B002090FBF1F0DA
:101A300000B2F949A1F87C00F8498880F648B0F86E
:101A40006C00F549A1F89C0013E0F34800780228E7
:101A50000FD1F148B0F97C0064214843EE49B1F957
:101A6000241090FBF1F000B2EB49A1F87C00EB49A7
:101A70008880E9490C708BE3022C1AD1E848007881
:101A800002280FD0E648B0F97C00E549B1F92410EE
:101A90004843642190FBF1F000B2E149A1F87C00D9
:101AA000DE49C880DE48B0F86C00DD49A1F89C0032
:101AB00013E0DB48007802280FD1D948B0F97C0048
:101AC00064214843D649B1F9241090FBF1F000B2EB
:101AD000D349A1F87C00D149C880D1490C7057E3A3
:101AE000022C1AD1CF48007802280FD0CD48B0F987
:101AF0007C00CC49B1F924104843642190FBF1F0FB
:101B000000B2C849A1F87C00C4490881C548B0F8B2
:101B10006C00C449A1F89C0013E0C2480078022878
:101B20000FD1C048B0F97C0064214843BD49B1F9E8
:101B3000241090FBF1F000B2BA49A1F87C00B7493B
:101B40000881B8490C7023E3022C1AD1B6480078FA
:101B500002280FD0B448B0F97C00B349B1F9241081
:101B60004843642190FBF1F000B2AF49A1F87C003A
:101B7000AA494881AC48B0F86C00AB49A1F89C0078
:101B800013E0A948007802280FD1A748B0F97C00DB
:101B900064214843A449B1F9241090FBF1F000B24C
:101BA000A149A1F87C009D4948819F490C70EFE252
:101BB00021B29948818200231022022114300BF0B7
:101BC000F0F9E5E221B296488182002350220221F9
:101BD00014300BF0E6F9DBE221B292488182002357
:101BE0009022022114300BF0DCF9D1E221B28E48B0
:101BF00081820023D022022114300BF0D2F9C7E2F7
:101C000021B28548C18200231222022116300BF036
:101C1000C8F9BDE221B28248C182002352220221CA
:101C200016300BF0BEF9B3E221B27E48C182002328
:101C30009222022116300BF0B4F9A9E221B27A48BF
:101C4000C1820023D222022116300BF0AAF99FE2B2
:101C500021B27148018300231422022118300BF0B5
:101C6000A0F995E221B26E4801830023542202219B
:101C700018300BF096F98BE221B26A4801830023F9
:101C80009422022118300BF08CF981E221B26648CF
:101C900001830023D422022118300BF082F977E26D
:101CA00021B25D484184B0F92200C0EB00104FF62C
:101CB000FF7101EA80005849A1F86C0000231E2240
:101CC0000221554822300BF06CF961E221B25448F0
:101CD0004184B0F92200C0EB00104FF6FF7101EA19
:101CE00080004F49A1F86C0000235E2202214C487D
:101CF00022300BF056F94BE221B24A484184B0F948
:101D00002200C0EB00104FF6FF7101EA8000454948
:101D1000A1F86C0000239E220221424822300BF0E1
:101D200040F935E221B240484184B0F92200C0EBCD
:101D300000104FF6FF7101EA80003B49A1F86C00EA
:101D40000023DE220221384822300BF02AF91FE25C
:101D500021B23148818400232022022124300BF05B
:101D600020F915E221B22E4881840023602202214D
:101D700024300BF016F90BE221B22A4881840023AB
:101D8000A022022124300BF00CF901E221B22648F6
:101D900081840023E022022124300BF002F9F7E1D4
:101DA00021B21D48C18300231A2202211E300BF0EC
:101DB000F8F8EDE121B21A48C18300235A2202212A
:101DC0001E300BF0EEF8E3E121B21648C183002388
:101DD0009A2202211E300BF0E4F8D9E121B2124818
:101DE000C1830023DA2202211E300BF0DAF8CFE1A2
:101DF00021B20948018400231C22022120300BF06B
:101E0000D0F8C5E121B20648018400235C220221FA
:101E100020300BF0C6F8BBE1B83A0020263900208C
:101E2000843B0020503C00201C3D002021B2FE4895
:101E3000018400239C22022120300BF0B2F8A7E19C
:101E400021B2FA4801840023DC22022120300BF069
:101E5000A8F89DE121B2F648418300231622022111
:101E60001A300BF09EF893E121B2F248418300232F
:101E7000562202211A300BF094F889E121B2EA4887
:101E800041830023962202211A300BF08AF87FE169
:101E900021B2E64841830023D62202211A300BF0FA
:101EA00080F875E121B2E2488183002318220221E3
:101EB0001C300BF076F86BE121B2DE488183002301
:101EC000582202211C300BF06CF861E121B2D64897
:101ED00081830023982202211C300BF062F857E125
:101EE00021B2D24881830023D82202211C300BF07A
:101EF00058F84DE121B2CE48C184002322220221AC
:101F000026300BF04EF843E121B2CA48C1840023C9
:101F10006222022126300BF044F839E121B2C24896
:101F2000C1840023A222022126300BF03AF82FE1CF
:101F300021B2BE48C1840023E222022126300BF0E8
:101F400030F825E121B2BA4801850023242202217C
:101F500028300BF026F81BE121B2B648018500239A
:101F60006422022128300BF01CF811E121B2AE48A6
:101F700001850023A422022128300BF012F807E18A
:101F800021B2AA4801850023E422022128300BF067
:101F900008F8FDE021B2A64841850023262202214F
:101FA0002A300AF0FEFFF3E021B2A2484185002367
:101FB000662202212A300AF0F4FFE9E021B29A48B1
:101FC00041850023A62202212A300AF0EAFFDFE041
:101FD00021B2964841850023E62202212A300AF0E8
:101FE000E0FFD5E092484480D2E092484480CFE0C0
:101FF0008D484480CCE08D484480C9E021B28C48B3
:1020000081850023282202212C300AF0CAFFBFE07C
:1020100021B2884881850023682202212C300AF0F1
:10202000C0FFB5E021B2804881850023A8220221AB
:102030002C300AF0B6FFABE021B27C48818500234A
:10204000E82202212C300AF0ACFFA1E0A0E07A489F
:10205000448000236A220221801C0AF0A2FF97E03C
:1020600096E021B27148C1850023EA2202212E3078
:102070000AF097FF8CE021B26D48018600232C22E4
:10208000022130300AF08DFF82E021B269480186DA
:1020900000236C22022130300AF083FF78E021B265
:1020A000614801860023AC22022130300AF079FF1A
:1020B0006EE021B25D4801860023EC22022130301F
:1020C0000AF06FFF64E020B25B49888000234FF480
:1020D000807202215848001D0AF063FF58E021B2C7
:1020E0005548C18000234FF481720221801D0AF0FF
:1020F00058FF4DE021B25048018100234FF4827215
:10210000022108300AF04DFF42E021B24A484181E5
:1021100000234FF4837202210A300AF042FF37E0B5
:1021200021B24548818100234FF4847202210C3092
:102130000AF037FF2CE021B23F48C18100234FF461
:10214000857202210E300AF02CFF21E021B23A48BC
:10215000018200234FF48672022110300AF021FF21
:1021600016E021B23448418200234FF487720221E5
:1021700012300AF016FF0BE021B22F4881820023B3
:102180004FF48872022114300AF00BFF00E000BF08
:1021900000BF38460AF0A2FDBDE8F0811FB500245B
:1021A00000BF1420FEF728FE55202449A1F80401A1
:1021B0004AF60A70A1F80601A8E0214903AA0868B6
:1021C000002107F07CFB002408E01E48005D01A907
:1021D000085500211B480155601CC4B2082CF4DBD3
:1021E000062101A8FEF782FE1648113800789DF8F6
:1021F0000A10884233D11348113840789DF80B10EB
:1022000088422CD19DF80700401CC0B28DF8070011
:102210009DF80500032836D19DF804000649097889
:1022200088421DD110E00000503C00201C3D0020E1
:10223000B83A0020843B0020FC37002026390020DB
:10224000E8370020893E00209DF8090000909DF8A5
:102250000730F74801780322F648FEF77DFE55E087
:10226000F3480078012851D19DF804001E284DD173
:102270009DF8090000909DF8073003221E21ED48CB
:10228000FEF76AFE42E09DF8050004280BD19DF898
:10229000090000909DF80730E54801780422E648DF
:1022A000FEF75AFE32E09DF8050006282ED19DF873
:1022B00004001E2815D10AF00DFD054600240AE091
:1022C00001A8FFF79DF89DF80700401CC0B28DF8EB
:1022D0000700601CC4B2042CF2DB28460AF0FEFCA6
:1022E00014E09DF80400D249097888420ED101A873
:1022F000FFF786F8012000909DF80700401E83B28A
:10230000CB4801780622CB48FEF726FE55E786B07B
:10231000142101A80CF0BEF800BF47F2305005F0C0
:10232000D7F805F067FAFEF7CBFEFEF7F2FFFEF7EF
:10233000EDFEFEF7B6FEFEF7D5FC002409E0002115
:10234000BB48483040F82410243020F81410601C9A
:10235000C4B2092CF3DB0121B84808F066F905F096
:10236000C9FD012007F01CFAB5490860002007F0FC
:1023700017FAB3494860002007F012FAB0498860A4
:10238000002007F00DFAAE49C860002007F008FAF7
:10239000AB4908610523AB4A0021AB4807F08CFC30
:1023A0000623AA4A0021AA4807F086FC0723A94A67
:1023B0000021A94807F080FC0823A84A0021A8486A
:1023C00007F07AFC0423A74A0021AFF22F2007F080
:1023D00073FC40F252310420FFF704F81AE201A81E
:1023E00000F03AFAFDF7D0FEFDF7FBFFFEF73BF9F0
:1023F000FEF766FA9C48006810F4006F0CD08C4819
:10240000B0F8800032280BDA8948B0F88000401C10
:102410008749A1F8800003E000208549A1F88000E9
:102420009148006810F4806F0CD08148B0F88200A9
:1024300032280BDA7E48B0F88200401C7C49A1F8B3
:10244000820003E000207A49A1F8820086480068F3
:1024500010F0040F0CD07648B0F8840032280BDA64
:102460007348B0F88400401C7149A1F8840003E06F
:1024700000206F49A1F884007B48006810F0020F2B
:102480000CD06B48B0F8860032280BDA6848B0F8F8
:102490008600401C6649A1F8860003E000206449DC
:1024A000A1F886007148B0F84400634988807048FC
:1024B000B0F84400C8806F48B0F8440008816E4806
:1024C000B0F8440048816948B0F8480088826848FC
:1024D000B0F84800C8826748B0F8480008836648EA
:1024E000B0F8480048835348B0F8B6005F49B1F9E6
:1024F00046104843642190FBF1F04F4988834D48D2
:10250000B0F8B6005A49B1F946104843642190FB2F
:10251000F1F04949C8834748B0F8B6005549B1F9C8
:1025200046104843642190FBF1F043490884414838
:10253000B0F8B6005049B1F946104843642190FB09
:10254000F1F03D4948844948008910B90120888547
:1025500047E04648007818B900203749888540E0B0
:10256000424890F88C000B2805DB404890F88C001E
:102570003149888535E03D48007801281ED13B4827
:1025800090F88D00012803D102202B49888528E08E
:10259000364890F88D00022804D0344890F88D0019
:1025A000042803D10420244988851AE02F4890F894
:1025B0008D00032815D12049888512E02B4800782A
:1025C000022803D105201C4988850AE027480078A5
:1025D000032803D106201849888502E00120164906
:1025E00088852348008918B901201349C8856AE005
:1025F0001F48007818B900200F49C88563E01C48BF
:1026000090F88C000B2805DB194890F88C000A49DB
:10261000C88558E016480078012845D1144890F83C
:102620008D0001282AD102200349C8854BE0000013
:10263000FC37002026390020D63800200024014035
:10264000E837002004090020373C00089C110020D6
:1026500037490008341A002011560008CC22002007
:10266000F9620008DC300020080C0140B83A002074
:10267000843B0020503C00201C3D00206E4890F818
:102680008D00022804D06C4890F88D00042803D1F6
:1026900004206A49C88516E0674890F88D00032831
:1026A00011D16649C8850EE063480078022803D13D
:1026B00005206249C88506E05F480078032802D1FA
:1026C00006205E49C8855E48008918B901205B492B
:1026D000088643E05A48007818B900205749088610
:1026E0003CE0574890F88C000B2805DB544890F8E4
:1026F0008C005249088631E05148007801281ED1EB
:102700004F4890F88D00012803D102204B490886DC
:1027100024E04B4890F88D00022804D0484890F8F7
:102720008D00042803D104204449088616E044485B
:1027300090F88D00032811D1404908860EE04048EA
:102740000078022803D105203C49088606E03C4871
:102750000078032802D106203849088639480089C4
:1027600018B901203549488643E03648007818B941
:102770000020324948863CE0324890F88C000B2813
:1027800005DB304890F88C002C49488631E02D4814
:10279000007801281ED12B4890F88D00012803D124
:1027A00002202649488624E0264890F88D00022819
:1027B00004D0244890F88D00042803D104201F4938
:1027C000488616E01F4890F88D00032811D11B4958
:1027D00048860EE01B480078022803D105201749DF
:1027E000488606E017480078032802D106201349DE
:1027F00048861548B0F88A001449A1F8B4000320AF
:1028000004F008FF4AF6AA201149086041F2883016
:1028100007F0A0FDE3E500BFFEF7B3FD05F0B3FF51
:102820000A230C4A0021AFF2195007F045FA06F0CE
:102830004AF800E0F0E7FDE7843B0020D6380020AE
:10284000503C00201C3D0020FC3700202639002091
:1028500000300040E43700202DE9F0470546002411
:1028600008270026A046FE4830F81700642801DA41
:10287000BDE8F0870AF02EFA8146F948243850F86E
:102880002760243030F817800021243840F82710C2
:10289000243020F8171048460AF020FA96FBF8F684
:1028A000EF486C38B0F9040070434FF4A571484309
:1028B000EC49212202FB161190FBF1F6002406E000
:1028C000601C35F8100025F81400601C44B2042C7C
:1028D000F6DB30460BF0A8FB28812889E24988877F
:1028E0000026002404E035F914000644601C44B2BC
:1028F000052CF8DB052096FBF0F000B2D8496C39C6
:1029000008830846B0F9180041F65831884203DDC3
:102910000846D3496C390883D1486C38B0F918009F
:10292000002814DDCE486C38B0F918004FF47A71E5
:1029300090FBF1F044B2CA486C38B0F9180090FB33
:10294000F1F201FB120018B1601C44B200E0012456
:10295000E2B2C3486C38B0F9181001200BF0C9FB83
:10296000BF496C39C861E2B20846B0F918100020BE
:102970000BF0BFFBBA496C39086200BF78E72DE95C
:10298000FE4F0025002400260027B54830F815002A
:10299000642801DABDE8FE8F0AF09CF98246B0484F
:1029A000243850F82560243030F815700021243880
:1029B00040F82510243020F8151050460AF08EF902
:1029C00096FBF7F0A949A1F87000A5486C38B0F95A
:1029D000060000FB07F4A64201DD361B00E00026DE
:1029E000C7EB07300DF0BEFA9D496C390290B1F982
:1029F00008000DF0B7FA019030460DF0B3FA9C498B
:102A000000900DF0FBFA834601990DF0F7FA81462C
:102A100002990DF0A9F980460DF084FA9349886770
:102A20000846B0F87800904988869048408930B1CF
:102A30008E48806F8A496C39C969441805E08B4813
:102A4000806F87496C39096A44188848B0F90A10C0
:102A500020460BF06AFB854948670846406F0A210B
:102A600090FBF1F001B28148A0F850100146496F87
:102A70000246D2F88420881A01D4014600E041427F
:102A8000042904DD7948406F7849C1F8840077480B
:102A900090F89A0003287CDA7448B0F8A000012866
:102AA0007FDA7248B0F95040808930B104EBC4003D
:102AB000052190FBF1F000F5A0746C48808988BB7B
:102AC00041F2883084421EDD00240120674981F8EC
:102AD0008E00084690F88C000D2802DA0D2081F84F
:102AE0008C006248008918B16048007803284BD1F7
:102AF0005E4890F88C000D2846D15C4800785B4910
:102B000081F88C0040E0594890F88C000D2804D1E1
:102B100056480078554981F88C000020534981F8C7
:102B20008E0031E0FFE742F2684084421EDD00245F
:102B300001204E4981F88E00084690F88C000D283F
:102B400002DA0D2081F88C004848008918B1474806
:102B50000078032818D1454890F88C000D2813D12F
:102B600042480078414981F88C000DE03F4890F8D8
:102B70008C000D2804D13D4800783C4981F88C0038
:102B800000203A4981F88E00002C06DD20B237493A
:102B900000E006E0A1F8440003E000203349A1F87A
:102BA000440000BFF6E62DE9FE4F01250024002673
:102BB00000272B4830F81500642801DABDE8FE8FA5
:102BC0000AF088F882462648243850F825602430D8
:102BD00030F815700021243840F82510243020F8F2
:102BE000151050460AF07AF896FBF7F02149A1F843
:102BF00070001B486C38B0F90A0000FB07F4A642CD
:102C000001DD361B00E00026C7EB07300DF0AAF906
:102C100013496C390290B1F90C000DF0A3F9019041
:102C200030460DF09FF9124900900DF0E7F9834608
:102C300001990DF0E3F9814602990DF095F880466F
:102C40000DF070F90B4988670846B0F8780006491E
:102C5000C8860848846F408990B10648806F0BE0B1
:102C600068380020E78F0100D6380020B83A0020ED
:102C700000000442843B0020FC49C969441804E078
:102C8000FB48806FF949096A4418F948B0F90A10FD
:102C900020460BF0B2FAF64948670846406F0A2111
:102CA00090FBF1F001B2F248A0F850100146496FD4
:102CB0000246D2F88420881A01D4014600E041423D
:102CC000042904DDEA48406FE949C1F88400E84876
:102CD00090F89A0003287CDAE548B0F8A0000128B3
:102CE0007FDAE348B0F95040808930B104EBC4008A
:102CF000052190FBF1F000F5A074DD48808988BBC8
:102D000041F2883084421EDD00240120D84981F838
:102D10008E00084690F88C000D2802DA0D2081F80C
:102D20008C00D348008918B1D148007803284BD1D2
:102D3000CF4890F88C000D2846D1CD480078CC497A
:102D400081F88C0040E0CA4890F88C000D2804D12E
:102D5000C7480078C64981F88C000020C44981F832
:102D60008E0031E0FFE742F2684084421EDD00241D
:102D70000120BF4981F88E00084690F88C000D288C
:102D800002DA0D2081F88C00B948008918B1B848E2
:102D90000078032818D1B64890F88C000D2813D17C
:102DA000B3480078B24981F88C000DE0B04890F843
:102DB0008C000D2804D1AE480078AD4981F88C0014
:102DC0000020AB4981F88E00002C06DD20B2A84916
:102DD00000E006E0A1F8440003E00020A449A1F8C7
:102DE000440000BFEAE62DE9FE4F0225002400263C
:102DF00000279E486C3030F81500642801DABDE8E1
:102E0000FE8F09F067FF82469848483050F82560E9
:102E1000243030F815700021243840F82510243073
:102E200020F81510504609F059FF96FBF7F091492C
:102E3000A1F870008D48B0F90E0000FB07F4A6421F
:102E400001DD361B00E00026C7EB07300DF08AF8E5
:102E500086490290B1F910000DF084F801903046D7
:102E60000DF080F8844900900DF0C8F88346019970
:102E70000DF0C4F8814602990CF076FF80460DF003
:102E800051F87C4988670846B0F878007B49088784
:102E90007848846F408928B17648806F7349C96942
:102EA000441804E07348806F7049096A44187148F7
:102EB000B0F90A1020460BF008FA6E494867084638
:102EC000406F0A2190FBF1F001B26A48A0F850105F
:102ED0000146496F0246D2F88420881A01D401467F
:102EE00000E04142042904DD6248406F6149C1F8B5
:102EF0008400604890F89A0003287CDA5D48B0F8B6
:102F0000A00001287FDA5B48B0F95040808930B1D9
:102F100004EBC400052190FBF1F000F5A0745548C6
:102F2000808988BB41F2883084421EDD0024012064
:102F3000504981F88E00084690F88C000D2802DA7E
:102F40000D2081F88C004B48008918B14948007861
:102F500003284BD1474890F88C000D2846D14548AE
:102F60000078444981F88C0040E0424890F88C0099
:102F70000D2804D13F4800783E4981F88C0000209C
:102F80003C4981F88E0031E0FFE742F2684084421C
:102F90001EDD00240120374981F88E00084690F894
:102FA0008C000D2802DA0D2081F88C003148008950
:102FB00018B130480078032818D12E4890F88C00BA
:102FC0000D2813D12B4800782A4981F88C000DE098
:102FD000284890F88C000D2804D12648007825490F
:102FE00081F88C000020234981F88E00002C06DD3A
:102FF00020B2204900E006E0A1F8440003E00020F0
:103000001C49A1F8440000BFF9E62DE9FE4F032555
:1030100000240026002715486C3030F8150064287D
:1030200001DABDE8FE8F09F055FE82460F484830B0
:1030300050F82560243030F815700021243840F80D
:103040002510243020F81510504609F047FE96FB55
:10305000F7F00B49A1F870000448B0F9120000FB2A
:1030600007F4A6420EDD361B0DE00000FC37002001
:10307000843B0020503C002000000442D638002051
:103080001C3D00200026C7EB07300CF06BFFFE490B
:103090000290B1F914000CF065FF019030460CF07D
:1030A00061FFFA4900900CF0A9FF834601990CF0EA
:1030B000A5FF814602990CF057FE80460CF032FFC6
:1030C000F34988670846B0F87800F2494887F04825
:1030D000408928B1EE48806FEB49C969441804E083
:1030E000EB48806FE849096A4418E948B0F90A10CA
:1030F00020460BF052F9E64948670846406F0A211E
:1031000090FBF1F001B2E248A0F850100146496F7F
:103110000246D2F88420881A01D4014600E04142D8
:10312000042904DDDA48406FD949C1F88400D84841
:1031300090F89A0003287CDAD548B0F8A00001285E
:103140007FDAD348B0F95040808930B104EBC40035
:10315000052190FBF1F000F5A074CD48808988BB73
:1031600041F2883084421EDD00240120C84981F8E4
:103170008E00084690F88C000D2802DA0D2081F8A8
:103180008C00C348008918B1C148007803284BD18E
:10319000BF4890F88C000D2846D1BD480078BC4946
:1031A00081F88C0040E0BA4890F88C000D2804D1DA
:1031B000B7480078B64981F88C000020B44981F8FE
:1031C0008E0031E0FFE742F2684084421EDD0024B9
:1031D0000120AF4981F88E00084690F88C000D2838
:1031E00002DA0D2081F88C00A948008918B1A8489E
:1031F0000078032818D1A64890F88C000D2813D128
:10320000A3480078A24981F88C000DE0A04890F80E
:103210008C000D2804D19E4800789D4981F88C00CF
:1032200000209B4981F88E00002C06DD20B29849D1
:1032300000E006E0A1F8440003E000209449A1F872
:10324000440000BFEDE62DE9F05F07244FF00009D0
:103250004FF0000A8C486C3030F81400642801DA12
:10326000BDE8F09F09F036FD83468748483050F8A6
:103270002490243030F814A00021243840F8241081
:10328000243020F81410584609F028FDC9EB4910E5
:1032900000EB80014FF47A700AFB00F0B1FBF0F014
:1032A00001B27D484180A0F14401B1F946000CF023
:1032B0005EF90746794A7A4B0CF0ACF905460CF0FA
:1032C00027F901B274484438A0F84610B0F8460017
:1032D00000EB8000400001B26F484438A0F846106F
:1032E00088B26C49888100BFBAE72DE9F05F0624F7
:1032F0004FF000094FF0000A63486C3030F81400BA
:10330000642801DABDE8F09F09F0E4FC83465E48DA
:10331000483050F82490243030F814A0002124388C
:1033200040F82410243020F81410584609F0D6FC38
:10333000C9EB491000EB80014FF47A700AFB00F0F2
:10334000B1FBF0F001B257484180A0F14401B1F95E
:1033500046000CF00CF90746504A514B0CF05AF954
:1033600005460CF0D5F801B24E484438A0F8461096
:10337000B0F8460000EB8000400001B249484438F4
:10338000A0F8461088B24349C88100BFBAE72DE9CA
:10339000F05F05244FF000094FF0000A3A486C3006
:1033A00030F81400642801DABDE8F09F09F092FCBF
:1033B00083463548483050F82490243030F814A023
:1033C0000021243840F82410243020F814105846E6
:1033D00009F084FCC9EB491000EB80014FF47A70CE
:1033E0000AFB00F0B1FBF0F001B22F484180A0F1E0
:1033F0004401B1F946000CF0BAF80746274A284BB9
:103400000CF008F905460CF083F801B22648443860
:10341000A0F84610B0F8460000EB8000400001B272
:1034200021484438A0F8461088B21A49088200BFE3
:10343000BAE72DE9F05F04244FF000094FF0000ACD
:1034400011486C3030F81400642801DABDE8F09FB0
:1034500009F040FC83460C48483050F82490243052
:1034600030F814A00021243840F82410243020F82B
:103470001410584609F032FCC9EB491000EB8001EA
:103480004FF47A7012E00000FC3700200000044284
:103490001C3D0020D6380020FC3A00209A999999CA
:1034A0009999E13FC83B0020943C00200AFB00F0C2
:1034B000B1FBF0F001B2FA484180A0F14401B1F94A
:1034C00046000CF054F80746F64AF74B0CF0A2F809
:1034D00005460CF01DF801B2F1484438A0F846103A
:1034E000B0F8460000EB8000400001B2EC484438E0
:1034F000A0F8461088B2ED49488200BFA6E710B593
:1035000000240021EA48A0F848100020E849A1F86A
:10351000900044F62060A1F89200A1F894004FF6C4
:10352000FF70A1F86E000846847B0121C1814FF431
:10353000FA6006F00FFFFFF786FEDD48B0F946009F
:1035400028280EDB41F2883006F004FFFFF77BFEEF
:10355000D748B0F94600282803DB1220D44981F867
:103560008C00FFF70CFAD24890F88C0012282CD06F
:1035700029E0CF48B0F84800401C01B2CC48A0F880
:1035800048100A2900DB1FE0C948008920B9002142
:10359000C748A0F8481017E040F6B83006F0DAFE49
:1035A000FFF751FEC248B0F94610B0F9480000EBF1
:1035B0008000642202EB4000814204DB1120BC4900
:1035C00081F88C0000E0D4E700BFFFF7D8F9B848D5
:1035D00090F88C0011282ADA27E0B548B0F94800A5
:1035E000642808DAB248B0F848000A3001B2B0489E
:1035F000A0F8481000E019E0AD48008920B900218A
:10360000AB48A0F8481011E040F6B83006F0A2FE32
:10361000FFF719FEA648B0F94600B0F57A7F04DD41
:103620001120A34981F88C0000E0D6E700BFA04834
:10363000C481C08920B19E4890F88C000B280FDB14
:1036400000219B48A0F8481000209949A1F890005B
:1036500044F62060A1F892000021012003F07EFFD3
:10366000FFF78DF910BD10B5002400219148A0F896
:10367000481000208F49A1F8900044F62060A1F87E
:103680009200A1F894004FF6FF70A1F86E00084672
:10369000847B0121C1814FF4FA6006F05BFEFFF7E5
:1036A00024FE8448B0F9460028280EDB41F2883019
:1036B00006F050FEFFF719FE7E48B0F946002828B4
:1036C00003DB12207B4981F88C00FFF76CFA794804
:1036D00090F88C0012282CD029E07648B0F84800E9
:1036E000401C01B27348A0F848100A2900DB1FE013
:1036F0007048008920B900216E48A0F8481017E0F2
:1037000040F6B83006F026FEFFF7EFFD6948B0F945
:103710004610B0F9480000EB8000642202EB400044
:10372000814204DB1120634981F88C0000E0D4E77A
:1037300000BFFFF738FA5F4890F88C0011282ADAAA
:1037400027E05C48B0F94800642808DA5948B0F826
:1037500048000A3001B25748A0F8481000E019E0CC
:103760005448008920B900215248A0F8481011E0BF
:1037700040F6B83006F0EEFDFFF7B7FD4D48B0F962
:103780004600B0F57A7F04DD11204A4981F88C00AB
:1037900000E0D6E700BF4748C481C08920B1454852
:1037A00090F88C000B2813DB00214248A0F8481049
:1037B00000204049A1F8900044F62060A1F8920052
:1037C0004FF6FF70A1F86E000021022003F0C6FE44
:1037D000FFF7E9F910BD10B5002400213648A0F824
:1037E000481000203449A1F8900044F62060A1F868
:1037F0009200A1F894004FF6FF70A1F86E00084601
:10380000847B0121C1814FF4FA6006F0A3FDFFF72C
:10381000BEFD2948B0F9460028280EDB41F2883069
:1038200006F098FDFFF7B3FD2348B0F946002828BD
:1038300003DB1220204981F88C00FFF7D4FA1E48E0
:1038400090F88C0012283BD038E01B48B0F84800B4
:10385000401C01B21848A0F848100A2900DB2EE0ED
:103860001548008920B900211348A0F8481026E027
:1038700040F6B83006F06EFDFFF789FD0E48B0F94E
:103880004610B0F9480000EB8000642202EB4000D3
:10389000814213DB1120084981F88C000FE0000001
:1038A000603D00209A9999999999E13FD638002076
:1038B000B83A0020843B0020503C0020C5E700BF00
:1038C000FFF791FAFE4890F88C0011282ADA27E0D9
:1038D000FB48B0F94800642808DAF948B0F8480015
:1038E0000A3001B2F648A0F8481000E019E0F448A8
:1038F000008920B90021F248A0F8481011E040F6F4
:10390000B83006F027FDFFF742FDED48B0F946005C
:10391000B0F57A7F04DD1120E94981F88C0000E0E0
:10392000D6E700BFE648C481C08920B1E44890F8DA
:103930008C000B2813DB0021E148A0F84810002080
:10394000DF49A1F8900044F62060A1F892004FF6FC
:10395000FF70A1F86E000021032003F0FFFDFFF7C8
:1039600042FA10BD10B500240021D648A0F8481036
:103970000020D449A1F8900044F62060A1F89200FC
:10398000A1F894004FF6FF70A1F86E000846847B02
:103990000121C1814FF4FA6006F0DCFCFFF749FD1C
:1039A000C848B0F9460028280EDB41F2883006F0FE
:1039B000D1FCFFF73EFDC348B0F94600282803DBE1
:1039C0001220C04981F88C00FFF71FFBBD4890F81A
:1039D0008C0012282CD029E0BA48B0F84800401CCE
:1039E00001B2B848A0F848100A2900DB1FE0B5482A
:1039F000008920B90021B348A0F8481017E040F62C
:103A0000B83006F0A7FCFFF714FDAE48B0F9461039
:103A1000B0F9480000EB8000642202EB40008142D4
:103A200004DB1120A74981F88C0000E0D4E700BF37
:103A3000FFF7EBFAA34890F88C0011282ADA27E068
:103A4000A048B0F94800642808DA9E48B0F8480059
:103A50000A3001B29B48A0F8481000E019E09948EC
:103A6000008920B900219748A0F8481011E040F6DD
:103A7000B83006F06FFCFFF7DCFC9248B0F9460066
:103A8000B0F57A7F04DD11208E4981F88C0000E0CA
:103A9000D6E700BF8B48C481C08920B1894890F81F
:103AA0008C000B2813DB00218648A0F8481000206A
:103AB0008449A1F8900044F62060A1F892004FF6E6
:103AC000FF70A1F86E000021042003F047FDFFF70E
:103AD0009CFA10BD7C48D0F880007C49086000202A
:103AE00088607B48C860002048827748D0F884000E
:103AF0000A2190FBF1F17548C161816141610020AB
:103B0000724981F82000032081F8210000206E49CD
:103B100081F89A0070476F48D0F880006E490860BD
:103B2000002088606A48C860002048826948D0F850
:103B300084000A2190FBF1F16748C1618161416114
:103B40000020654981F82000032081F82100002031
:103B5000604981F89A0070475948D0F880005F4961
:103B60000860002088605A48C86000204882544895
:103B7000D0F884000A2190FBF1F15848C1618161BD
:103B800041610020554981F8200081F821004C490D
:103B900081F89A0070474B48D0F88000504908607F
:103BA000002088604A48C860002048824548D0F814
:103BB00084000A2190FBF1F14948C16181614161B2
:103BC0000020474981F8200081F821003D4981F813
:103BD0009A0070472EE043480078401CC0B241492B
:103BE0000870042801DD012008703E480078012893
:103BF00006D0022809D003280CD0042814D10EE0E6
:103C00003949486805F010FF0FE03749886805F02A
:103C10000BFF0AE03449C86805F006FF05E03249A9
:103C2000086905F001FF00E000BF00BF40F6C210C8
:103C300006F090FBCFE78CB04FF05A0803200B90B2
:103C400041F2883500264FF0000900270020079038
:103C5000089009900A9000248246834606900590B9
:103C60000120049000BF184908702049888600BFD1
:103C700012E04FF4FA6006F06DFBFEF780FEFFF7EE
:103C8000E2FA08980990079808900F48406F07904B
:103C90000BF1010000F0FF0BBBF10A0FE9DB0A4852
:103CA000408BC0EB0010012101EB80000749088226
:103CB0000548B0F92200C0EB00104FF6FF7117E085
:103CC000503C00201C3D0020B83A0020E83D002078
:103CD000A0860100843B00200C3E0020303E0020E6
:103CE000543E002000000020E83700202639002044
:103CF00001EA8000F749A1F86C000846B0F86C00B2
:103D0000A1F89C00B1F9060004F058F9F149C1F896
:103D100080000846808B87B24FF47A7006F01AFB59
:103D20000923ED4A0021AFF2531005F0C5FFD8E397
:103D3000EA4903AA4868002105F0C1FD022003F00A
:103D400069FCE448B0F848001FFA80F9FEF717FE56
:103D5000E348C1698161DF48D0F88410E048C1615F
:103D600000F12101143003F08DFC09980A900898A5
:103D7000099007980890D748406F0790D548008968
:103D800070BB4FF6FF70D349A1F86E0044F6206077
:103D9000A1F890000846408BC0EB0010012101EB18
:103DA0008000CF490882CB48808B87B20021012058
:103DB00003F0D4FB0021C748A0F84810FFF78AFEA3
:103DC000FFF741FA0020C34981F88D00002101204E
:103DD00003F08CFB0021BF48818200200490A6E7FD
:103DE0000498B8B9BB480078BA4981F88C00012121
:103DF000084603F07BFBB748007801280AD1002071
:103E0000B4490870FFF77BFBB248007810B9012075
:103E1000B0490870AF48007A0490AE480078012895
:103E20007DD1AC4890F88D0008BBAA48406F00F6E1
:103E3000AC50A849D1F88010884214DD0420A5496F
:103E400081F88D000846D0F88000496F401AA149DA
:103E5000B1F92610484300EBD071029048100CF0E5
:103E600081F8824603E001209A4981F88D00994843
:103E700090F88D0001283ED19948008A40B340F265
:103E8000E330874202DA781D87B201E040F2E7377B
:103E900039B29048A0F848109148008A401E9049D5
:103EA00008828C48406F42F2D87108448949D1F8A1
:103EB0008010884203DD00208949088208E0854897
:103EC000406F42F21071884202DD0020844908826E
:103ED0008348008A78B97F48808B87B27D48D0F8C4
:103EE00084007F49086002207A4981F88D00012012
:103EF0007B4981F82000774890F88D0002287CD11A
:103F0000774890F82000012824D17248D0F8840026
:103F100073490968441A6F48D0F8800000E08DE2C8
:103F200004EB8401B0EB810F02DDB4F57A7F0CDB8A
:103F300002206B4981F82000002048824EF6602064
:103F400048606448D0F88400086040F2E731614876
:103F5000A0F84810624890F82000022857D10021AC
:103F60005C48A0F848105E48408A03284ADB59495B
:103F7000D1F884105A4A1268881A01D4014600E028
:103F80004142574A528A4DF2D8635A4392FBF1F4A8
:103F900053484068A04201DD5148446050484068A1
:103FA000A04208DB4E4890F8210020B14C4890F820
:103FB0002100022826D14748808A012802D1002109
:103FC000444881820420434981F88D0008204449F7
:103FD00081F82000486809F09DFF3E49C88401200F
:103FE00081F89B000846C08C3E49A1F88C00002354
:103FF000222206213748263000E008E008F0D1FFF1
:104000004FF0000A3648408A401C35494882314802
:1040100090F88D0003281ED1314890F82000D8B9BF
:104020002C48D0F880002B49D1F88410884205DD57
:1040300040F2E7312748A0F8481003E00021254866
:10404000A0F84810264890F821000128E3D10B2061
:10405000234981F82000FBE01E48D0F88010D0F8FA
:1040600084000A30814205DD40F2E7311948A0F8AA
:1040700048100BE01748D0F88410D0F880000A30C0
:10408000814203DD00211348A0F84810144890F83D
:1040900020000A287DDD124890F820000B2809D165
:1040A0000F4890F821000028D5D10C200C4981F848
:1040B0002000CDE00A4890F820000C2814D10848D0
:1040C00090F821000128C6D10D20054981F8200073
:1040D000BEE00000B83A0020D4290020E8370020D4
:1040E000E83D002026390020FE4890F820000D28E9
:1040F00009D1FC4890F821000028ACD10E20F949E4
:1041000081F82000A4E0F74890F820000E280DD197
:10411000F44890F82100012807D11020F14981F8D6
:104120002000F148D0F88400C86091E0ED4890F894
:10413000200010287ED1EB4890F8210020B1E948FA
:1041400090F82100022872D11120E64981F8200060
:104150000021E5488182E548A0F84410E248D0F803
:104160008400E04988600420DF4981F88D00002048
:1041700081F89A00DB4BDA689968588A09F0F5FEF5
:10418000D949C884B1F92620D649498A02EB4100B1
:1041900000E059E000EBD071C1F34F01D14A5182E8
:1041A0001046408A01B2D04801851146488AC1179D
:1041B00000EB91718910CC4A5185CA49488AC117D0
:1041C00000EB91718910A0EB8101022905DD1046F9
:1041D000408D401C01B210464185C348C08CC34984
:1041E000A1F88C00C048008DA1F89400BE48408D15
:1041F000A1F89C000120BC4981F89B0000232222E9
:104200000621B948263008F0CCFEB748D0F8800027
:10421000B549D1F88410401AB349B1F92610484382
:1042200000EBD071029048100BF09CFE8246AD4826
:10423000408A00E003E0401CAA49488208E00B20C5
:10424000A84981F8200003E00B20A64981F820004E
:10425000A54890F88D0004287ED1A348D0F88400AA
:1042600000EB80008100A048D0F88000B1EBC00FC7
:1042700007DA00209B4981F820009B4981F88D00D6
:1042800024E0994890F89B0000BB9748D0F8800044
:1042900000EB800101EBC0009349D1F8841001EBE1
:1042A0008101B0EB810F0ADC8F48D0F880008E4985
:1042B000D1F88410401A41F29411884206DD0020A2
:1042C000884981F82000884981F88D008648808AD5
:1042D00001280FD18448D0F880008349D1F8841098
:1042E000401AB0F5FA7F05DA03207F4981F88D0086
:1042F000FFF7F0FB7C4890F89A00E0B97A48406FED
:104300007949D1F88010884204DD0220764981F88D
:104310009A0032E07448406F7349D1F880108842A7
:1043200004DA0120704981F89A0026E003206E49E2
:1043300081F89A0021E06C4890F89A0001280CD18D
:104340006948406F6849D1F88010884215DB032026
:10435000654981F89A0010E00EE1634890F89A00F0
:1043600002280AD16048406F5F49D1F88010884226
:1043700003DC04205C4981F89A005B48D0F8840093
:10438000DFF864C10090DCF88030BCF92600DDE97C
:10439000071208F039FF514602900BF077FC824675
:1043A0005148D0F880005049D1F88410401A4E4945
:1043B000B1F9261000FB01F4002150460BF0EAFD94
:1043C0001ED24948D0F880004749D1F8841088426D
:1043D0000CDA20460BF0C6FD514602900BF0DAFED7
:1043E00006D220460BF0BEFD824601E04FF0000AE7
:1043F0003F4950460BF0CEFD0DD2DFF8F4A00AE0A5
:104400003948D0F88410D0F8800000F57A708142E5
:1044100001DD4FF0000A374950460BF0BBFE01D2D8
:10442000DFF8D0A0344950460BF09EFC02900BF010
:104430005DFD01B22C48A0F848109DE02A480078A4
:10444000022866D10020284981F89A000846B0F871
:104450009C10B0F89C00401E234AA2F89C00B9B101
:104460001046B0F944000A2190FBF1F01F498988F9
:10447000884204DB00211046A0F8481004E040F216
:10448000E7311948A0F8481000201749488073E028
:1044900000211548A0F8481001201349087000BFFA
:1044A0000020104981F820000F4981F88D00D1F8D3
:1044B00080100D4A526F891A0B4AB2F9262001FB6F
:1044C00002F00BF04FFD82460748B0F86C00064939
:1044D000A1F89C000846B0F97C00642148430249D9
:1044E0000CE026E2E83D0020B83A00202639002002
:1044F00000401CC60050C3470000C842B1F9241058
:1045000090FBF1F000B2F949A1F87C00F8498880ED
:1045100032E0F648007803281FD1F448408801B201
:10452000F248A0F848104FF0000A0020EF4981F847
:104530009A00F04981F82000EC4981F88D00D1F80B
:104540008010EA4A526F891AE84AB2F9262001FB24
:1045500002F00BF007FD82460EE00021E348A0F8D0
:1045600048108A460020E14981F89A00E14981F823
:104570002000DE4981F88D00DC48B0F948000028B1
:1045800004DA0021D948A0F848100AE0D748B0F969
:104590004800B0F57A7F04DB40F2E731D348A0F859
:1045A0004810D24890F88C000B38092823D2DFE855
:1045B00000F019220F0510220607110000BF00BFEE
:1045C0000021CA48A0F84810012002F08FFF17E030
:1045D00000BF00BF0021C548A0F84810012002F02C
:1045E00085FF0DE00021C148A0F8481001210846D0
:1045F00002F07CFF04E00121084602F077FF00BFD3
:1046000000BFBA48C08918B90020B849A1F8900085
:10461000FEF719FEB848806810F4004F02D1172049
:104620000B9009E00B98401E0004000C0B9003D186
:104630000E20AE4981F88C00AC48B0F94400B0F5CA
:104640007A7F34DAA8F101001FFA80F8A748B0F8A1
:104650007000A84202DDA548B0F87050A348B0F839
:104660007000B04202DAA148B0F8706040F2DE306B
:10467000814502DBA81B092804DD4FF05A080025FC
:1046800042F22836B8F1000F16D1A81B0A2808DA22
:10469000964890F88C000F2803DA0F20934981F890
:1046A0008C004FF05A0842F22836002504E04FF003
:1046B0005A08002542F2283607990A98401AB0F5A0
:1046C000FA6F20DDDDE9091088421CDBDDE9081006
:1046D000884218DBDDE90710884214DB834890F834
:1046E0008C000D280FDA05210A9890FBF1F0079A4B
:1046F0000A99891A884206DA01207C4981F89800D3
:10470000142081F89900794890F89800012827D161
:10471000764890F8990018B3744890F89900401EB4
:1047200010F0FF00714981F8990001D181F89800DB
:104730006E4890F88C000D2812DA7048B0F9180015
:1047400000EB80004FF47A7101EB4000079988423A
:1047500006DD0020654981F898000F2081F88C0063
:10476000624890F88C000F2810D16448B0F9180006
:1047700000EB80004FF47A7101EB4000079988420A
:1047800004DA5A480078594981F88C00B9F5FA7F63
:1047900018DB5648B0F84600A0B9544890F88C0091
:1047A0000D280CDA0698052804DD10204F4981F801
:1047B0008C0009E00698401CC0B2069004E000207E
:1047C000069001E000200690484890F88C001028E0
:1047D00008D14648B0F8460020B144480078434923
:1047E00081F88C00414890F88C000D2829DA3F4868
:1047F000B0F94610B0F91E00814203DD11203B499B
:1048000081F88C003948B0F8480078B93748B0F9D9
:1048100046002D280ADB0598401CC0B205901028E0
:1048200006D11220314981F88C0001E0002005906A
:104830003248B0F88000052803DB13202B4981F8AB
:104840008C002A4890F88D00042834D1274890F82D
:104850009A0003282FDB2548007801282BD1234814
:1048600090F88C000B2826DA2048B0F916001F4972
:10487000B1F97C1001EB810100EB41001B49B1F95A
:104880004410884204DA0B20184981F88C004FE06C
:104890001648B0F94410B0F9180008441349B1F9AA
:1048A0007C1001EB8101B0EB410F41DA0C200F4984
:1048B00081F88C003CE00D4890F88C000B281FD14B
:1048C0000A48B0F916000949B1F97C1001EB8101E1
:1048D00000EB41000549B1F94410884228DB034848
:1048E0000078024981F88C0022E00000B83A0020EC
:1048F00026390020E83D002000100140FC37002050
:10490000FE4890F88C000C2812D1FC48B0F94410F5
:10491000B0F918000844F949B1F97C1001EB8101A4
:10492000B0EB410F04DBF5480078F44981F88C00C6
:1049300000BFFFF7FDB98CB04FF05A0803200B9071
:1049400041F2883500264FF000090027002007902B
:10495000089009900A9000248246834606900590AC
:104960000120049000BFE6490870E649C88600BFF0
:1049700012E04FF4FA6005F0EDFCFEF714F9FEF7D3
:10498000B4FC0898099007980890DD48406F07909C
:104990000BF1010000F0FF0BBBF10A0FE9DBD84877
:1049A000408BC0EB0010012101EB8000D64908824A
:1049B000D348B0F92200C0EB00104FF6FF7101EAB6
:1049C0008000CF49A1F86C000846B0F86C00A1F84F
:1049D0009C00B1F9060003F0F1FAC949C1F8800062
:1049E0000846808B87B24FF47A7005F0B3FCFDE384
:1049F000C64903AA8868002104F061FFC048B0F8E6
:104A000048001FFA80F9FEF7CEF8BF48C1698161FE
:104A1000BB48D0F88410BC48C16100F121011430BA
:104A200002F030FE09980A900898099007980890BB
:104A3000B348406F0790B248008970BB4FF6FF70D3
:104A4000AF49A1F86E0044F62060A1F89000084636
:104A5000408BC0EB0010012101EB8000AA490882C5
:104A6000A748808B87B20021022002F077FD002149
:104A7000A348A0F84810FFF74EF8FEF736FC0020D8
:104A80009F4981F88D000021022002F02FFD0021B6
:104A90009B48818200200490A9E7FFE70498B8B9F9
:104AA00097480078964981F88C000121022002F095
:104AB0001DFD9348007801280AD100209049087014
:104AC000FEF7D1FD8E48007810B901208C4908709E
:104AD0008B48007A04908A4A0799D2F88020881A75
:104AE00001D4014600E04142B1F57A7F03DD0020A8
:104AF000834981F89A008248007801287DD1804856
:104B000090F88D0008BB7E48406F00F6AC507C49A1
:104B1000D1F88010884214DD0420794981F88D0095
:104B20000846D0F88000496F401A7549B1F926103F
:104B3000484300EBD071029048100BF013FA824604
:104B400003E001206E4981F88D006D4890F88D00DA
:104B500001283ED16C48008A40B340F2E3308742DE
:104B600002DA781D87B201E040F2E73739B26448D3
:104B7000A0F848106448008A401E634908826048D3
:104B8000406F42F2D87108445D49D1F880108842E4
:104B900003DD00205C49088208E05948406F42F27A
:104BA0001071884202DD0020574908825648008A69
:104BB00078B95348808B87B25148D0F88400524965
:104BC000086002204E4981F88D0001204E4981F88D
:104BD00020004B4890F88D0002287CD14A4890F87C
:104BE0002000012824D14648D0F8840046490968AD
:104BF000441A4348D0F8800000E09AE204EB8401B4
:104C0000B0EB810F02DDB4F57A7F0CDB02203E4968
:104C100081F82000002048824EF660204860384825
:104C2000D0F88400086040F2E7313548A0F8481019
:104C3000354890F82000022857D100213048A0F8CC
:104C400048103148408A03284ADB2D49D1F88410A6
:104C50002D4A1268881A01D4014600E041422A4ACE
:104C6000528A4DF2D8635A4392FBF1F426484068C9
:104C7000A04201DD2448446023484068A04208DB8C
:104C8000214890F8210020B11F4890F82100022807
:104C900026D11B48808A012802D100211848818230
:104CA0000420174981F88D000820174981F8200059
:104CB000486809F02FF91249C884012081F89B0047
:104CC0000846C08C0F49A1F88E00002362220621FD
:104CD0000B48263000E008E008F063F94FF0000AC6
:104CE0000948408A401C08494882054890F88D00D0
:104CF000032829D1044890F8200009E0B83A0020A0
:104D0000843B0020263900200C3E0020E83700209C
:104D1000D8B9FE48D0F88000FC49D1F88410884208
:104D200005DD40F2E731F948A0F8481003E0002122
:104D3000F648A0F84810F64890F821000128D8D18C
:104D40000B20F34981F82000F0E0F048D0F8801003
:104D5000D0F884000A30814205DD40F2E731EB48AB
:104D6000A0F848100BE0E948D0F88410D0F8800093
:104D70000A30814203DD0021E448A0F84810E448ED
:104D800090F820000A287DDDE14890F820000B28EB
:104D900009D1DF4890F821000028D5D10C20DC494A
:104DA00081F82000C2E0DA4890F820000C2809D1F0
:104DB000D74890F821000128C6D10D20D44981F8A8
:104DC0002000B3E0D24890F820000D2809D1D04847
:104DD00090F821000028B7D10E20CD4981F820009D
:104DE000A4E0CB4890F820000E280DD1C84890F8D8
:104DF0002100012807D11020C54981F82000C348AF
:104E0000D0F88400C86091E0C14890F820001028D4
:104E10007ED1BF4890F8210020B1BD4890F8210014
:104E2000022872D11120BA4981F820000021B74828
:104E30008182B848A0F84610B448D0F88400B4493C
:104E400088600420B14981F88D00002081F89A0023
:104E5000AF4BDA689968588A09F087F8AB49C8847B
:104E6000B1F92620AA49498A02EB410000EBD07132
:104E7000C1F34F01A64A51821046408A01B2A348AD
:104E8000018500E04EE01146488AC11700EB9171A0
:104E900089109E4A51859E49488AC11700EB91713D
:104EA0008910A0EB8101022905DD1046408D401CD0
:104EB00001B2104641859548C08C9649A1F88E00F4
:104EC0009248008DA1F896009048408DA1F89E0070
:104ED00001208E4981F89B000023622206218B4825
:104EE000263008F05EF88948D0F880008749D1F86C
:104EF0008410401A8549B1F92610484300EBD0715F
:104F0000029048100BF02EF882468148408A00E05B
:104F100003E0401C7E49488208E00B207C4981F870
:104F2000200003E00B207A4981F82000774890F8B0
:104F30008D0004287ED17548D0F8840000EB8000F5
:104F400081007248D0F88000B1EBC00F07DA002072
:104F50006F4981F820006D4981F88D0024E06B488D
:104F600090F89B0000BB6948D0F8800000EB8001FE
:104F700001EBC0006549D1F8841001EB8101B0EB71
:104F8000810F0ADC6148D0F880006049D1F88410B4
:104F9000401A41F29411884206DD00205C4981F8F4
:104FA00020005A4981F88D005848808A01280FD185
:104FB0005648D0F880005549D1F88410401AB0F511
:104FC000FA7F05DA0320514981F88D00FEF7A3FD31
:104FD0004E4890F89A00E0B94C48406F4B49D1F8E0
:104FE0008010884204DD0220484981F89A0032E0AE
:104FF0004648406F4549D1F88010884204DA0120C4
:10500000424981F89A0026E00320404981F89A003D
:1050100021E03E4890F89A0001280CD13B48406FAF
:105020003A49D1F88010884215DB0320374981F8CE
:105030009A0010E00EE1354890F89A0002280AD153
:105040003248406F3149D1F88010884203DC042097
:105050002E4981F89A002D48D0F88400DFF8ACC0C2
:105060000090DCF88030BCF92600DDE9071208F07A
:1050700050FA514602900AF009FE82462348D0F8C1
:1050800080002249D1F88410401A2049B1F9261035
:1050900000FB01F4002150460AF07CFF1ED21B48A1
:1050A000D0F880001949D1F8841088420CDA2046E3
:1050B0000AF058FF514602900BF06CF806D22046D9
:1050C0000AF050FF824601E04FF0000A12495046B4
:1050D0000AF060FF0DD2DFF840A00AE00B48D0F8DC
:1050E0008410D0F8800000F57A70814201DD4FF025
:1050F000000A0A4950460BF04DF801D2DFF81CA017
:10510000074950460AF030FE02900BE0843B002035
:105110000C3E00202639002000401CC60050C3472A
:105120000000C8420AF0E2FE01B2F748A0F84810B9
:1051300090E0F5480078022859D10020F24981F822
:105140009A000846B0F89C10B0F89C00401EEE4A49
:10515000A2F89C00B9B11046B0F944000A2190FBB6
:10516000F1F0EA49C988884204DB00211046A0F822
:10517000481004E040F2E731E348A0F8481000206E
:10518000E149488066E00021DF48A0F8481001208E
:10519000DD49087000BF0020DD4981F82000DA49B0
:1051A00081F88D00D1F88010D74A526F891AD64AFB
:1051B000B2F9262001FB02F00AF0D4FE8246D24862
:1051C000B0F86C00D049A1F89C000846B0F97C000A
:1051D00064214843CC49B1F9241090FBF1F000B2AE
:1051E000C949A1F87C00C949C88033E00EE2C6482D
:1051F000007803281FD1C448408801B2C248A0F8F3
:1052000048104FF0000A0020BF4981F89A00C049B9
:1052100081F82000BC4981F88D00D1F88010BA4A8D
:10522000526F891AB84AB2F9262001FB02F00AF03F
:1052300099FE82460EE00021B348A0F848108A4645
:105240000020B14981F89A00B14981F82000AE49A7
:1052500081F88D00AC48B0F94800002804DA00213C
:10526000A948A0F848100AE0A748B0F94800B0F5EE
:105270007A7F04DB40F2E731A348A0F84810A24847
:1052800090F88C000B38092823D2DFE800F01922AF
:105290000F0510220607110000BF00BF00219A4829
:1052A000A0F84810022002F021F917E000BF00BF6B
:1052B00000219548A0F84810022002F017F90DE0EF
:1052C00000219148A0F848100121022002F00EF9B7
:1052D00004E00121022002F009F900BF00BF8A4862
:1052E000C08918B900208849A1F89000FDF7FDFF9A
:1052F0008848806810F4804F02D117200B9009E095
:105300000B98401E0004000C0B9003D10E207E4928
:1053100081F88C007C48B0F94400B0F57A7F34DA2B
:10532000A8F101001FFA80F87748B0F87000A84291
:1053300002DD7548B0F870507348B0F87000B042A4
:1053400002DA7148B0F8706040F2DE30814502DB6D
:10535000A81B092804DD4FF05A08002542F2283620
:10536000B8F1000F16D1A81B0A2808DA664890F891
:105370008C000F2803DA0F20634981F88C004FF06E
:105380005A0842F22836002504E04FF05A0800255A
:1053900042F2283607990A98401AB0F5FA6F20DDD4
:1053A000DDE9091088421CDBDDE90810884218DBC2
:1053B000DDE90710884214DB534890F88C0013286D
:1053C0000FDA05210A9890FBF1F0079A0A99891AD9
:1053D000884206DA01204C4981F89800142081F8AF
:1053E0009900494890F89800012827D1464890F83C
:1053F000990018B3444890F89900401E10F0FF003F
:10540000414981F8990001D181F898003E4890F80F
:105410008C00132812DA4048B0F9180000EB800025
:105420004FF47A7101EB40000799884206DD0020B5
:10543000354981F898000F2081F88C00324890F8A7
:105440008C000F2810D13448B0F9180000EB800010
:105450004FF47A7101EB40000799884204DA2A4838
:105460000078294981F88C00B9F5FA7F18DB2648C5
:10547000B0F84600A0B9244890F88C0013280CDA44
:105480000698052804DD10201F4981F88C0009E0EA
:105490000698401CC0B2069004E00020069001E08F
:1054A00000200690184890F88C00102808D1164863
:1054B000B0F8460020B114480078134981F88C00F8
:1054C000114890F88C00132833DA0F48B0F94610D1
:1054D000B0F91E00814203DD11200B4981F88C00D8
:1054E0000948B0F84800C8B90748B0F946002D2867
:1054F00014DB0598401CC0B20590102810D1122072
:10550000014981F88C000BE0843B00202639002003
:105510000C3E002000100140FC37002000200590C8
:10552000FE48B0F88200052803DB1320FC4981F80F
:105530008C00FB4890F88D00042834D1F84890F88E
:105540009A0003282FDBF648007801282BD1F44875
:1055500090F88C000B2826DAF148B0F91600F049D3
:10556000B1F97C1001EB810100EB4100EC49B1F98C
:105570004410884204DA0B20E94981F88C0044E0A9
:10558000E748B0F94410B0F918000844E449B1F90B
:105590007C1001EB8101B0EB410F36DA0C20E049C1
:1055A00081F88C0031E0DE4890F88C000B2814D193
:1055B000DB48B0F91600DA49B1F97C1001EB810142
:1055C00000EB4100D649B1F9441088421DDBD448B4
:1055D0000078D34981F88C0017E0D14890F88C000E
:1055E0000C2812D1CE48B0F94410B0F91800084484
:1055F000CB49B1F97C1001EB8101B0EB410F04DB29
:10560000C7480078C64981F88C0000BFFFF7F0B9A1
:105610008CB04FF05A0803200B9041F288350026D9
:105620004FF00009002700200790089009900A9089
:10563000002482468346069005900120049000BF16
:10564000B8490870B849088700BF12E04FF4FA6003
:1056500004F080FEFDF7C7FBFDF799FE089809905E
:1056600007980890AF48406F07900BF1010000F0D9
:10567000FF0BBBF10A0FE9DBAA48408BC0EB00101F
:10568000012101EB8000A9490882A648B0F9220057
:10569000C0EB00104FF6FF7101EA8000A149A1F8AC
:1056A0006C000846B0F86C00A1F89C00B1F9060047
:1056B00002F084FC9B49C1F880000846808B87B2C9
:1056C0004FF47A7004F046FEFAE3994903AAC868D9
:1056D000002104F0F4F89348B0F848001FFA80F96C
:1056E000FDF781FB9148C16981618E48D0F8841033
:1056F0008E48C16100F12101143001F0C3FF099807
:105700000A9008980990079808908648406F07907B
:105710008448008970BB4FF6FF708249A1F86E0083
:1057200044F62060A1F890000846408BC0EB0010C2
:10573000012101EB80007D4908827A48808B87B285
:105740000021032001F00AFF00217648A0F848104C
:10575000FEF702FAFDF71BFE0020724981F88D006A
:105760000021032001F0C2FE00216E48818200204A
:105770000490A9E70498B8B96A480078694981F8A3
:105780008C000121032001F0B1FE66480078012859
:105790000AD1002063490870FEF71DF861480078BF
:1057A00010B901205F4908705E48007A04905D4A94
:1057B0000799D2F88020881A01D4014600E04142BE
:1057C000B1F57A7F03DD0020564981F89A005548EB
:1057D000007801287DD1534890F88D0008BB5148CE
:1057E000406F00F6AC504F49D1F88010884214DD6C
:1057F00004204C4981F88D000846D0F88000496F9C
:10580000401A4849B1F92610484300EBD071029084
:1058100048100AF0A7FB824603E00120414981F8C5
:105820008D00404890F88D0001283ED13F48008A05
:1058300040B340F2E330874202DA781D87B201E0DC
:1058400040F2E73739B23748A0F848103748008AA5
:10585000401E364908823348406F42F2D8710844EE
:105860003049D1F88010884203DD00202F4908829A
:1058700008E02C48406F42F21071884202DD00209F
:105880002A4908822948008A78B92648808B87B23D
:105890002448D0F88400254908600220214981F875
:1058A0008D000120214981F820001E4890F88D00CC
:1058B00002287DD11D4890F82000012824D11948E4
:1058C000D0F8840019490968441A1648D0F88000B5
:1058D00000E098E204EB8401B0EB810F02DDB4F547
:1058E0007A7F0CDB0220114981F8200000204882D9
:1058F0004EF6602048600B48D0F88400086040F203
:10590000E7310848A0F84810084890F8200002281D
:1059100064D100210348A0F848100BE0FC370020B8
:10592000843B0020503C002026390020303E0020DF
:10593000E8370020F748408A03284ADBF649D1F8C7
:105940008410F44A1268881A01D4014600E04142EA
:10595000F04A528A4DF2D8635A4392FBF1F4ED4873
:105960004068A04201DDEB484460EA484068A0423C
:1059700008DBE84890F8210020B1E64890F82100C3
:10598000022826D1E448808A012802D10021E24879
:1059900081820420E04981F88D000820DD4981F8EA
:1059A0002000486808F0B6FADB49C884012000E00E
:1059B00014E081F89B000846C08CD849A1F89000FB
:1059C0000023A2220621D448263007F0EAFA4FF03D
:1059D000000AD048408A401CCE494882CE4890F800
:1059E0008D0003281ED1CB4890F82000D8B9CA48B2
:1059F000D0F88000CA49D1F88410884205DD40F211
:105A0000E731C548A0F8481003E00021C248A0F8DB
:105A10004810C04890F821000128E3D10B20BD496F
:105A200081F82000F0E0BC48D0F88010D0F8840065
:105A30000A30814205DD40F2E731B748A0F848104E
:105A40000BE0B548D0F88410D0F880000A308142CD
:105A500003DD0021B048A0F84810AE4890F82000BF
:105A60000A287DDDAB4890F820000B2809D1A94811
:105A700090F821000028D5D10C20A64981F82000FB
:105A8000C2E0A44890F820000C2809D1A14890F861
:105A900021000128C6D10D209E4981F82000B3E0E5
:105AA0009C4890F820000D2809D19A4890F82100D0
:105AB0000028B7D10E20974981F82000A4E095482E
:105AC00090F820000E280DD1924890F8210001286E
:105AD00007D110208F4981F820008F48D0F884002A
