:020000040800F2
:10000000604E002099CC00089DCC00089FCC0008D1
:10001000A1CC0008A3CC0008A5CC0008000000007B
:10002000000000000000000000000000A7CC000855
:10003000A9CC00080000000037CC0008F911000826
:10004000AFCC0008AFCC0008AFCC0008AFCC0008A4
:10005000AFCC0008AFCC0008676F0008AFCC000839
:10006000AFCC0008AFCC0008AFCC0008E37E00089E
:10007000AFCC0008AFCC0008AFCC0008AFCC000874
:10008000AFCC0008AFCC0008AFCC0008AFCC000864
:10009000AFCC0008AFCC0008AFCC0008AFCC000854
:1000A000AFCC00084B6F0008AFCC0008AFCC000805
:1000B000F36E0008136F00082F6F0008AFCC000824
:1000C000AFCC0008AFCC0008AFCC0008AFCC000824
:1000D000AFCC000841120008AFCC0008AFCC00083C
:1000E000AFCC0008AFCC0008AFCC000800F002F89D
:1000F00000F03AF80AA090E8000C82448344AAF188
:100100000107DA4501D100F02FF8AFF2090EBAE885
:100110000F0013F0010F18BFFB1A43F0010318473B
:100120002818010048180100103A24BF78C878C187
:10013000FAD8520724BF30C830C144BF04680C60ED
:10014000704700000023002400250026103A28BF35
:1001500078C1FBD8520728BF30C148BF0B60704739
:100160001FB51FBD10B510BD0EF062F91146FFF7A7
:10017000F7FF02F046FB0EF080F903B4FFF7F2FF41
:1001800003BC0EF081F900001CB500210020002204
:1001900000920192F74A92F89A20032A04DAF54A6B
:1001A000B2F8A020002A72DDF24AB2F8A0100AE0EC
:1001B0004A1EF04BA23333F81230EE4AA23222F834
:1001C00011304A1E91B20029F2DCEA4A92F89A20D4
:1001D000032A74DBE74AB2F8A0200A2A06DAE54AC5
:1001E000B2F8A020521CE34BA3F8A020E14AB2F9D8
:1001F000062002EB82025000DE4AB2F85020121AAA
:1002000012B2ADF80020DB4AB2F8A0200A2A57D17A
:10021000BDF90020322A09DDBDF80020323A12B2C1
:10022000ADF804203222ADF8002012E0BDF9002024
:1002300012F1320F0ADABDF80020323212B2ADF8F4
:1002400004206FF03102ADF8002002E00022ADF88A
:100250000420BDF90020092A09DBBDF80020093A75
:1002600012B2ADF802200922ADF8002013E0BDF96A
:10027000002012F1090F0BDCBDF80020093212B288
:10028000ADF802206FF00802ADF8002003E0A7E00F
:100290000022ADF80220BDF90030032493FBF4F3F3
:1002A0000344BDF9022002EBD27403EB6403BDF8F2
:1002B000044023441BB2AF4CA4F8A2300AE01EE075
:1002C000BDF9002002EBD27300EB63031BB2A94C13
:1002D000A4F8A2300020002106E0A64AA23232F99A
:1002E000112010444A1C91B2A24AB2F8A0208A42BE
:1002F000F3DCA04AB2F8A02090FBF2F025E09D4A82
:10030000B2F8A020002A20DD9A4AB2F85020994B7A
:10031000A3F8A2200020002106E0964AA23232F97A
:10032000112010444A1C91B2924AB2F8A0208A428D
:10033000F3DC904AB2F8A02090FBF2F08D4AB2F8BC
:10034000A020521E8B4BA3F8A0208A4A928932B17A
:1003500000EBC002052392FBF3F202F5A070854A80
:100360009289CAB941F2883290420ADD0020814A5E
:1003700092F88C200B2A28DA0D227E4B83F88C20F1
:1003800023E07C4A92F88C200D2A1ED1794A1278FB
:10039000784B83F88C2018E042F2684290420ADDE4
:1003A0000020744A92F88C200D2A0EDA0D22714B2F
:1003B00083F88C2009E06F4A92F88C200D2A04D132
:1003C0006C4A12786B4B83F88C20002804DD02B253
:1003D000684BA3F8442003E00022664BA3F84420B6
:1003E0001CBD1CB500210020002200920192624A2F
:1003F00092F89A20032A04DA5F4AB2F8A020002A71
:1004000072DD5D4AB2F8A0100AE04A1E5A4BA233D0
:1004100033F81230584AA23222F811304A1E91B2F3
:100420000029F2DC544A92F89A20032A74DB524ADB
:10043000B2F8A0200A2A06DA4F4AB2F8A020521CCD
:100440004D4BA3F8A0204C4AB2F9062002EB8202E1
:100450005000494AB2F85020121A12B2ADF80020EA
:10046000454AB2F8A0200A2A57D1BDF90020322A05
:1004700009DDBDF80020323A12B2ADF80420322274
:10048000ADF8002012E0BDF9002012F1320F0ADAB7
:10049000BDF80020323212B2ADF804206FF0310204
:1004A000ADF8002002E00022ADF80420BDF90020E4
:1004B000092A09DBBDF80020093A12B2ADF8022082
:1004C0000922ADF8002013E0BDF9002012F1090F58
:1004D0000BDCBDF80020093212B2ADF802206FF03B
:1004E0000802ADF8002003E0BCE00022ADF80220D5
:1004F000BDF90030032493FBF4F30344BDF902205B
:1005000002EBD27403EB6403BDF8044023441BB236
:10051000194CA4F8A2300AE01EE0BDF9002002EB5D
:10052000D27300EB63031BB2134CA4F8A23000207B
:10053000002106E0104AA23232F9112010444A1C70
:1005400091B20D4AB2F8A0208A42F3DC0A4AB2F80E
:10055000A02090FBF2F02CE0074AB2F8A020002A7D
:1005600027DD054AB2F85020034BA3F8A220002053
:10057000002109E0B83A0020843B0020F94A32F912
:10058000112010444A1C91B2F64AA23AB2F8A020B7
:100590008A42F3DCF34AA23AB2F8A02090FBF2F0D0
:1005A000F04AA23AB2F8A020521EEE4BA23BA3F8AA
:1005B000A020EC4AA23A928932B100EBC002052396
:1005C00092FBF3F202F5A070E64AA23A9289F2B9E0
:1005D00041F2883290420CDD0020E24AA23A92F8C1
:1005E0008C200D2A31DA0D22DE4BA23B83F88C20C1
:1005F0002BE0DC4AA23A92F88C200D2A25D1D94A68
:10060000A23A1278D74BA23B83F88C201DE042F22D
:10061000684290420CDD0020D24AA23A92F88C2027
:100620000D2A12DA0D22CF4BA23B83F88C200CE06E
:10063000CC4AA23A92F88C200D2A06D1C94AA23A95
:100640001278C84BA23B83F88C20002805DD02B24B
:10065000C44BA23BA3F8442004E00022C14BA23BC0
:10066000A3F844201CBD1CB50021002000220092EC
:100670000192BD4A92F89A20032A04DABA4AB2F8E3
:10068000A020002A72DDB84AB2F8A0100AE04A1E83
:10069000B54BA23333F81230B34AA23222F81130EC
:1006A0004A1E91B20029F2DCAF4A92F89A20032A3E
:1006B00074DBAD4AB2F8A0200A2A06DAAA4AB2F8D8
:1006C000A020521CA84BA3F8A020A74AB2F90620EC
:1006D00002EB82025000A44AB2F85020121A12B261
:1006E000ADF80020A04AB2F8A0200A2A57D1BDF9DF
:1006F0000020322A09DDBDF80020323A12B2ADF8EE
:1007000004203222ADF8002012E0BDF9002012F1E1
:10071000320F0ADABDF80020323212B2ADF80420EE
:100720006FF03102ADF8002002E00022ADF80420A5
:10073000BDF90020092A09DBBDF80020093A12B2F0
:10074000ADF802200922ADF8002013E0BDF9002029
:1007500012F1090F0BDCBDF80020093212B2ADF81E
:1007600002206FF00802ADF8002003E0A7E00022AD
:10077000ADF80220BDF90030032493FBF4F30344E9
:10078000BDF9022002EBD27403EB6403BDF8044010
:1007900023441BB2744CA4F8A2300AE01EE0BDF959
:1007A000002002EBD27300EB63031BB26E4CA4F883
:1007B000A2300020002106E06B4AA23232F911205B
:1007C00010444A1C91B2684AB2F8A0208A42F3DC75
:1007D000654AB2F8A02090FBF2F025E0624AB2F838
:1007E000A020002A20DD604AB2F850205E4BA3F81A
:1007F000A2200020002106E05B4AA23232F911203B
:1008000010444A1C91B2584AB2F8A0208A42F3DC44
:10081000554AB2F8A02090FBF2F0534AB2F8A0205B
:10082000521E514BA3F8A0204F4A928932B100EBDF
:10083000C002052392FBF3F202F5A0704A4A9289A6
:10084000CAB941F2883290420ADD0020464A92F845
:100850008C200D2A28DA0D22434B83F88C2023E0CC
:10086000414A92F88C200D2A1ED13F4A12783E4B05
:1008700083F88C2018E042F2684290420ADD0020A2
:10088000394A92F88C200D2A0EDA0D22364B83F865
:100890008C2009E0344A92F88C200D2A04D1324A87
:1008A0001278314B83F88C20002804DD02B22E4BE5
:1008B000A3F8442003E000222B4BA3F844201CBDE6
:1008C0001CB500210020002200920192274A92F8D4
:1008D0009A20032A04DA254AB2F8A020002A78DDFB
:1008E000224AB2F8A0100AE04A1E204BA23333F885
:1008F00012301E4AA23222F811304A1E91B200294B
:10090000F2DC1A4A92F89A20032A7ADB174AB2F8E4
:10091000A0200A2A06DA154AB2F8A020521C134B6E
:10092000A3F8A020114AB2F9062002EB820250007F
:100930000E4AB2F85020121A12B2ADF800200B4A3B
:10094000B2F8A0200A2A5DD1BDF90020322A0FDDBD
:10095000BDF80020323A12B2ADF804203222ADF8D0
:10096000002018E0263C0020503C00201C3D0020C8
:10097000BDF9002012F1320F0ADABDF80020323240
:1009800012B2ADF804206FF03102ADF8002002E0A1
:100990000022ADF80420BDF90020092A09DBBDF8CA
:1009A0000020093A12B2ADF802200922ADF8002069
:1009B00013E0BDF9002012F1090F0BDCBDF8002097
:1009C000093212B2ADF802206FF00802ADF8002033
:1009D00003E0A7E00022ADF80220BDF900300324B7
:1009E00093FBF4F30344BDF9022002EBD27403EB52
:1009F0006403BDF8044023441BB2F84CA4F8A230B1
:100A00000AE01EE0BDF9002002EBD27300EB6303A5
:100A10001BB2F24CA4F8A2300020002106E0EF4AFD
:100A2000A23232F9112010444A1C91B2EB4AB2F8BA
:100A3000A0208A42F3DCE94AB2F8A02090FBF2F051
:100A400025E0E64AB2F8A020002A20DDE34AB2F809
:100A50005020E24BA3F8A2200020002106E0DF4A4C
:100A6000A23232F9112010444A1C91B2DB4AB2F88A
:100A7000A0208A42F3DCD94AB2F8A02090FBF2F021
:100A8000D64AB2F8A020521ED44BA3F8A020D34AD5
:100A9000928932B100EBC002052392FBF3F202F51A
:100AA000A070CE4A9289CAB941F2883290420ADDDA
:100AB0000020CA4A92F88C200D2A28DA0D22C74B52
:100AC00083F88C2023E0C54A92F88C200D2A1ED191
:100AD000C24A1278C14B83F88C2018E042F2684277
:100AE00090420ADD0020BD4A92F88C200D2A0EDAD1
:100AF0000D22BA4B83F88C2009E0B84A92F88C207A
:100B00000D2A04D1B54A1278B44B83F88C20002802
:100B100004DD02B2B14BA3F8442003E00022AF4B46
:100B2000A3F844201CBD10B50AF05AFE4FF48030E3
:100B30000AF075FE0AF0B2FE01282BD110200AF04F
:100B400049F802200AF030F800200AF0F0FE4FF4D5
:100B5000E0600AF0FEFE4FF4E0600AF0F1FE4FF4B0
:100B60000021C8100AF0C6FE01200AF0CFFE4FF4A3
:100B700080400AF008FF00BF39200AF073FE002809
:100B8000FAD002200AF0C5FE00BF0AF0CBFE08280A
:100B9000FBD101E000BFFEE700200AF0FDFE10BD22
:100BA00008B502208DF80200FF20ADF800000020FB
:100BB0008DF8030069468A480AF0F6FA4FF480601F
:100BC000ADF8000004208DF80300694684480AF05F
:100BD000EBFA4FF40070ADF8000018208DF8030018
:100BE00069467F480AF0E0FA4FF47940ADF800001A
:100BF00028208DF80300694679480AF0D5FA40F6B6
:100C00000740ADF8000004208DF8030069467548E0
:100C10000AF0CAFAE020ADF8000014208DF80300B5
:100C2000694670480AF0C0FA4FF4E040ADF80000A1
:100C300010208DF8030069466A480AF0B5FA48F2B8
:100C40001830ADF8000028208DF80300694665488B
:100C50000AF0AAFA0120ADF8000000208DF8030088
:100C6000694661480AF0A0FA3E20ADF8000048202D
:100C70008DF8030069465C480AF096FA4FF4FE507E
:100C8000ADF8000010208DF80300694656480AF0C0
:100C90008BFA4FF46040ADF8000048208DF8030057
:100CA000694651480AF080FA0420ADF8000010208F
:100CB0008DF8030069464D480AF076FA4FF400714A
:100CC00047480AF01BFB47F2E00146480AF016FBD2
:100CD0004FF4FE5144480AF013FB042143480AF044
:100CE0000FFB08BD00B585B025208DF81000002051
:100CF0008DF811008DF8120001208DF813004FF4CB
:100D0000164000900020ADF80400ADF80600ADF8E4
:100D10000800ADF80C0004A80AF0BBFB6946344893
:100D20000BF0BBFD012132480BF025FE012240F201
:100D300025512F480BF02BFE012240F227712C4841
:100D40000BF025FE05B000BD1FB519208DF80C0075
:100D500000208DF80D008DF80E0001208DF80F0099
:100D600003A80AF096FB44F62060ADF804000520C5
:100D7000ADF800000020ADF80200ADF806008DF8D7
:100D8000080069461B480AF0D4FF002119480BF0FF
:100D900057FB1848008840F00C00164908800121D4
:100DA00014480BF02EFD0122114612480BF062FA96
:100DB0001FBD40B10E490C31098841F008010C4AB1
:100DC0000C32118008E00A490C3109884FF6F7729D
:100DD0001140074A0C321180704700001C3D002072
:100DE00000080140000C01400010014000140140C7
:100DF00000380140002C014030B1F849098841F029
:100E00000401F64A118006E0F44909884FF6FB72A6
:100E10001140F24A118070471FB51C208DF80C005C
:100E200000208DF80D008DF80E0001208DF80F00C8
:100E300044F62060ADF804000520ADF80000002065
:100E4000ADF80200ADF8060003A80AF022FB6946DF
:100E50004FF080400AF06DFF00214FF080400BF012
:100E6000EFFA4FF08040008840F00C004FF08041D6
:100E70000880012188070BF0C4FC0122114690076D
:100E80000BF0F8F91FBD1FB51D208DF80C000020D8
:100E90008DF80D008DF80E0001208DF80F0044F63E
:100EA0002060ADF804000520ADF800000020ADF88A
:100EB0000200ADF8060003A80AF0EBFA6946C8483C
:100EC0000AF037FF0021C6480BF0BAFAC448008880
:100ED00040F00C00C24908800121C1480BF091FC90
:100EE00001221146BE480BF0C5F91FBD10B50A46D8
:100EF000FF23BC4C237063700FE010F8013BB94C2A
:100F0000247883EA0401B74B5B78B74C645C634098
:100F1000B44C2370B54B5B5C63701300A2F101020B
:100F2000EBD110BD10B50446AE4804723930AD495E
:100F30004860052009F09EF9AA4840680178A94850
:100F40004068401CA74B5860A4480C380BF07BFD50
:100F50001420FFF72EFF10BD2DE9F0470546884607
:100F600017461C46DDF8209000269E4880F8398000
:100F700080F83A70062F1FD1002180F83B1080F8CE
:100F80003C40601C84B235F814000112954880F88A
:100F90003D1015F8141080F83E1006213930FFF787
:100FA000A5FF9048017880F83F10417880F8401004
:100FB0000820FFF7B7FF3FE04FEA4960010E89487C
:100FC00080F83B1015E035F8140002123046711C11
:100FD000CEB2C01C834939310A542046611C8CB200
:100FE00015F810203046711CCEB2C01C7D49393135
:100FF0000A545FEA0900A9F1010101F0FF09E2D1F9
:10100000784890F83B00C11C76483930FFF76EFFF6
:10101000744802783046711CCEB2C01C7149393117
:101020000A5470484278F01C0A54393991F83B1040
:10103000491DC8B2FFF776FFBDE8F0871FB51E2037
:101040008DF80C0000208DF80D008DF80E000120A9
:101050008DF80F0044F62060ADF804000520ADF8CF
:1010600000000020ADF80200ADF8060003A80AF069
:1010700010FA69465E480AF05CFE00215C480BF0FD
:10108000DFF95B48008840F00C00594908800121D5
:1010900057480BF0B6FB0122114655480BF0EAF811
:1010A0001FBD10B54FF496500AF08AFD04200AF0D7
:1010B00073FD01200AF088FD01200AF0A0FD10BD9B
:1010C0000EB5012009F067FD002101200AF06FF93B
:1010D0000120019000208DF808000C208DF80900F7
:1010E00001208DF80A0001A809F0DAFC01208DF832
:1010F000030000208DF8010001208DF80200062079
:101100008DF8000068460AF0C4F90EBD00B585B040
:101110000020009001208DF804008DF805004FF4A8
:10112000602002900020039009208DF8100069468D
:10113000304809F09EF90623012200212D4809F0CC
:1011400030FA0623022201212A4809F02AFA06234E
:1011500003220221274809F024FA0623042203214E
:10116000244809F01EFA062305220421214809F02B
:1011700018FA06231A4605211E4809F012FA06231A
:10118000072219461B4809F00CFA062308220721FA
:10119000184809F006FA062309220A21154809F021
:1011A00000FA0121134809F090F90121114809F0D2
:1011B00097F9104809F0ABF900BF0E4809F0ACF9F7
:1011C0000028FAD10B4809F0B1F900BF094809F02D
:1011D000B2F90028FAD105B000BD00000C3801407A
:1011E00000040040783E0020F2030108F2040108E8
:1011F000000800400024014010B5FA480078401C67
:10120000F8490870F848B0F87E0041F28831884209
:1012100006DAF548B0F87E00401CF349A1F87E00DC
:10122000F248408944F62061884204DAEF48408958
:10123000401CEE49488107F055FB07F058FA10BDF5
:1012400070B50BF0D7FC054640F22551E8480BF08D
:101250005DFC00283CD0E6480BF0F9FBC4B2E34843
:101260004089052805DDE14844740020DF494872C3
:1012700010E0DE48407A0A2804DADC48407A401C54
:10128000DA494872D948407A082803DAD748417ABF
:10129000113044540020D54948810846407A072837
:1012A00016D10846407CD0490978884203D0CF48FF
:1012B000407C1E280CD1CD48C07C48B9012006F0E6
:1012C0003DF90020C9494872CA49086808F03CFB4A
:1012D00040F22771C6480BF019FCB0B1C348017A3F
:1012E000007A401EC14A107200290BDD104640688A
:1012F000017810464068401C13465860BC480BF00B
:10130000A2FB02E00020FFF754FD28460BF076FC1C
:1013100070BD00B58DB0B84809F096FAB748029094
:10132000B14824300390002004900920059000204B
:1013300006908020079040000890800009902020AF
:101340000A9000020B9000200C9002A9AA4809F014
:1013500014FB0B208DF8040001208DF805008DF89A
:1013600006008DF8070001A80AF093F80122022177
:10137000A14809F038FB01219F4809F029FB0DB075
:1013800000BD10B54FF4FE519D4809F0B9FF4FF470
:10139000E0419C4809F0B2FF04219B4809F0B0FFEE
:1013A000FFF7C1FB01214FF6FD700AF085FBFFF747
:1013B000F7FB012108460AF072FB012108460AF0FA
:1013C00088FB012102200AF084FB012104200AF09D
:1013D00080FBFFF7B9FCFFF71FFDFFF754FDFFF798
:1013E0002DFE10BD45F25552884B1A601A465060CA
:1013F00091604AF6AA221A604CF6CC421A607047F5
:101400002DE9F0410546002400260BF0F3FB0746CA
:101410002C79687900EB042084B2E8787C4931F8B3
:101420001060E87821F81040E878801E752880F078
:10143000A586DFE810F07500A600F3002401550131
:1014400078019B01BE01E101EB01F501FF010902F9
:101450002B024D026F0291029B02A502AF02B9025C
:10146000C302CD02D702E102210355038903A3067B
:10147000A306A306A306BD03C703D103DB03E5034D
:10148000EF03F90303040D04170421042B043504AE
:101490004B04610477048D049704A104AB04B504E4
:1014A000BF04C904D304DD04E704FB0405050F05EC
:1014B000190523052D05370541054B0555055F0524
:1014C000690573057D05870591059B05A505AF0594
:1014D000B905C305CD05D705DA05DD05E005E3054A
:1014E000ED05F70501060B060C0615061606170690
:1014F00021062B063506A306A306A306A306A3060C
:10150000A306A306A306A306A306A306A3063F06F7
:101510004B06560661066C06770682068D0698060F
:1015200020B23C49A1F87C000846808938B1A4F17A
:10153000200000EB8000092190FBF1F084B23548D7
:101540000078022807D1642060433249B1F92410A1
:1015500090FBF1F084B200202E4981F89A0021B26C
:101560002C48C180002302221146801D0BF0A9FCEB
:101570002849B1F9060006F0B1FC2649C1F88000FF
:10158000E1E220B22449A1F87C000846808938B104
:10159000A4F1200000EB8000092190FBF1F084B25F
:1015A0001D480078022807D1642060431A49B1F928
:1015B000241090FBF1F084B20020174981F89A00C2
:1015C00021B21548C180002342220221801D0BF068
:1015D00078FC1149B1F9060006F080FC0E49C1F80B
:1015E0008000CDE71D000020FC370020783E002061
:1015F00000380140E8370020080002404C24014038
:1016000000100140000C0140001401400030004077
:1016100026390020B83A0020843B002020B2FE4941
:10162000A1F87C000846808938B1A4F1200000EBC5
:101630008000092190FBF1F084B2F748007802287D
:1016400007D164206043F449B1F9241090FBF1F014
:1016500084B20020F04981F89A0021B2EE48C1809E
:10166000002382220221801D0BF02BFCEA49B1F9F4
:10167000060006F033FCE849C1F8800080E720B29C
:10168000E649A1F87C000846808938B1A4F1200021
:1016900000EB8000092190FBF1F084B2DF48007874
:1016A000022807D164206043DC49B1F9241090FB83
:1016B000F1F084B20020D94981F89A0021B2D748CC
:1016C000C1800023C2220221801D0BF0FAFBD34906
:1016D000B1F9060006F002FCD049C1F880004FE7DE
:1016E00004F0010474B128781E280BD1CC4890F87E
:1016F0008E0018B921B2CA48018106E031B2C8484B
:10170000018102E021B2C6480181C5480089E9781B
:10171000C44A22F81100002304220221C0480830E4
:101720000BF0CFFB2CE704F0010474B128781E28DD
:101730000BD1BD4890F88E0018B921B2BA4801818A
:1017400006E031B2B848018102E021B2B648018119
:10175000B5480089E978B34A22F8110000234422F1
:101760000221B14808300BF0ACFB09E704F001049A
:1017700074B128781E280BD1A74890F88E0018B9AC
:1017800021B2A548018106E031B2A348018102E0FF
:1017900021B2A1480181A0480089E978A14A22F834
:1017A00011000023842202219B4808300BF089FBA2
:1017B000E6E604F0010474B128781E280BD197489E
:1017C00090F88E0018B921B29448018106E031B238
:1017D0009248018102E021B2904801818F4800893E
:1017E000E978904A22F811000023C42202218B4894
:1017F00008300BF066FBC3E621B289484181002323
:10180000062202210A300BF05CFBB9E621B28648C1
:1018100041810023462202210A300BF052FBAFE641
:1018200021B27D4841810023862202210A300BF03B
:1018300048FBA5E621B2794841810023C622022156
:101840000A300BF03EFB9BE621B27548818174B1F2
:10185000B0F9060000EBC000052190FBF1F020304C
:1018600000B26F49A1F87C006E49888006E06C48A0
:10187000C0886B49A1F87C006A498880002308224F
:10188000022167480C300BF01CFB79E621B2664858
:10189000818174B1B0F9060000EBC000052190FB16
:1018A000F1F0203000B26049A1F87C005D49C880A9
:1018B00006E05D48C0885C49A1F87C005949C880B1
:1018C00000234822022158480C300BF0FAFA57E660
:1018D00021B25148818174B1B0F9060000EBC0001B
:1018E000052190FBF1F0203000B24B49A1F87C00BB
:1018F0004C49088106E04848C0884749A1F87C0067
:101900004849088100238822022143480C300BF00B
:10191000D8FA35E621B24148818174B1B0F90600A8
:1019200000EBC000052190FBF1F0203000B23B49F4
:10193000A1F87C003B49488106E03848C088374917
:10194000A1F87C00374948810023C822022133488E
:101950000C300BF0B6FA13E621B23148C1810023F6
:101960000A2202210E300BF0ACFA09E621B22E4811
:10197000C18100234A2202210E300BF0A2FAFEE3BD
:1019800021B22548C18100238A2202210E300BF0AA
:1019900098FAF4E321B22148C1810023CA2202212E
:1019A0000E300BF08EFAEAE321B21D4801820023CB
:1019B0000C22022110300BF084FAE0E321B21A4825
:1019C000018200234C22022110300BF07AFAD6E378
:1019D00021B21148018200238C22022110300BF029
:1019E00070FACCE321B20D4801820023CC220221FF
:1019F00010300BF066FAC2E3022C26D108480078BA
:101A000002281BD00648B0F97C000549B1F9241022
:101A1000484364210AE00000503C00201C3D0020A7
:101A2000B83A002026390020843B002090FBF1F0DA
:101A300000B2F949A1F87C00F8498880F648B0F86E
:101A40006C00F549A1F89C0013E0F34800780228E7
:101A50000FD1F148B0F97C0064214843EE49B1F957
:101A6000241090FBF1F000B2EB49A1F87C00EB49A7
:101A70008880E9490C7082E3022C1AD1E84800788A
:101A800002280FD0E648B0F97C00E549B1F92410EE
:101A90004843642190FBF1F000B2E149A1F87C00D9
:101AA000DE49C880DE48B0F86C00DD49A1F89C0032
:101AB00013E0DB48007802280FD1D948B0F97C0048
:101AC00064214843D649B1F9241090FBF1F000B2EB
:101AD000D349A1F87C00D149C880D1490C704EE3AC
:101AE000022C1AD1CF48007802280FD0CD48B0F987
:101AF0007C00CC49B1F924104843642190FBF1F0FB
:101B000000B2C849A1F87C00C4490881C548B0F8B2
:101B10006C00C449A1F89C0013E0C2480078022878
:101B20000FD1C048B0F97C0064214843BD49B1F9E8
:101B3000241090FBF1F000B2BA49A1F87C00B7493B
:101B40000881B8490C701AE3022C1AD1B648007803
:101B500002280FD0B448B0F97C00B349B1F9241081
:101B60004843642190FBF1F000B2AF49A1F87C003A
:101B7000AA494881AC48B0F86C00AB49A1F89C0078
:101B800013E0A948007802280FD1A748B0F97C00DB
:101B900064214843A449B1F9241090FBF1F000B24C
:101BA000A149A1F87C009D4948819F490C70E6E25B
:101BB00021B29948818200231022022114300BF0B7
:101BC00080F9DCE221B29648818200235022022172
:101BD00014300BF076F9D2E221B2924881820023D0
:101BE0009022022114300BF06CF9C8E221B28E4829
:101BF00081820023D022022114300BF062F9BEE270
:101C000021B28548C18200231222022116300BF036
:101C100058F9B4E221B28248C18200235222022143
:101C200016300BF04EF9AAE221B27E48C1820023A1
:101C30009222022116300BF044F9A0E221B27A4838
:101C4000C1820023D222022116300BF03AF996E22B
:101C500021B27148018300231422022118300BF0B5
:101C600030F98CE221B26E48018300235422022114
:101C700018300BF026F982E221B26A480183002372
:101C80009422022118300BF01CF978E221B2664848
:101C900001830023D422022118300BF012F96EE2E6
:101CA00021B25D484184B0F92200C0EB00104FF62C
:101CB000FF7101EA80005849A1F86C0000231E2240
:101CC0000221554822300BF0FCF858E221B254486A
:101CD0004184B0F92200C0EB00104FF6FF7101EA19
:101CE00080004F49A1F86C0000235E2202214C487D
:101CF00022300BF0E6F842E221B24A484184B0F9C2
:101D00002200C0EB00104FF6FF7101EA8000454948
:101D1000A1F86C0000239E220221424822300BF0E1
:101D2000D0F82CE221B240484184B0F92200C0EB47
:101D300000104FF6FF7101EA80003B49A1F86C00EA
:101D40000023DE220221384822300BF0BAF816E2D6
:101D500021B23148818400232022022124300BF05B
:101D6000B0F80CE221B22E488184002360220221C7
:101D700024300BF0A6F802E221B22A488184002325
:101D8000A022022124300BF09CF8F8E121B2264871
:101D900081840023E022022124300BF092F8EEE14E
:101DA00021B21D48C18300231A2202211E300BF0EC
:101DB00088F8E4E121B21A48C18300235A220221A3
:101DC0001E300BF07EF8DAE121B21648C183002301
:101DD0009A2202211E300BF074F8D0E121B2124891
:101DE000C1830023DA2202211E300BF06AF8C6E11B
:101DF00021B20948018400231C22022120300BF06B
:101E000060F8BCE121B20648018400235C22022173
:101E100020300BF056F8B2E1B83A00202639002005
:101E2000843B0020503C00201C3D002021B2FE4895
:101E3000018400239C22022120300BF042F89EE115
:101E400021B2FA4801840023DC22022120300BF069
:101E500038F894E121B2F64841830023162202218A
:101E60001A300BF02EF88AE121B2F24841830023A8
:101E7000562202211A300BF024F880E121B2EA4800
:101E800041830023962202211A300BF01AF876E1E2
:101E900021B2E64841830023D62202211A300BF0FA
:101EA00010F86CE121B2E24881830023182202215C
:101EB0001C300BF006F862E121B2DE48818300237A
:101EC000582202211C300AF0FCFF58E121B2D6480A
:101ED00081830023982202211C300AF0F2FF4EE198
:101EE00021B2D24881830023D82202211C300AF07B
:101EF000E8FF44E121B2CE48C1840023222202211E
:101F000026300AF0DEFF3AE121B2CA48C18400233C
:101F10006222022126300AF0D4FF30E121B2C24809
:101F2000C1840023A222022126300AF0CAFF26E142
:101F300021B2BE48C1840023E222022126300AF0E9
:101F4000C0FF1CE121B2BA480185002324220221EE
:101F500028300AF0B6FF12E121B2B648018500230D
:101F60006422022128300AF0ACFF08E121B2AE4819
:101F700001850023A422022128300AF0A2FFFEE0FE
:101F800021B2AA4801850023E422022128300AF068
:101F900098FFF4E021B2A6484185002326220221C1
:101FA0002A300AF08EFFEAE021B2A24841850023E0
:101FB000662202212A300AF084FFE0E021B29A482A
:101FC00041850023A62202212A300AF07AFFD6E0BA
:101FD00021B2964841850023E62202212A300AF0E8
:101FE00070FFCCE092484480C9E092484480C6E04B
:101FF0008D484480C3E08D484480C0E021B28C48C5
:1020000081850023282202212C300AF05AFFB6E0F5
:1020100021B2884881850023682202212C300AF0F1
:1020200050FFACE021B2804881850023A822022124
:102030002C300AF046FFA2E021B27C4881850023C3
:10204000E82202212C300AF03CFF98E097E07A4821
:10205000448000236A220221801C0AF032FF8EE0B5
:102060008DE08CE021B27248018600232C220221EF
:1020700030300AF026FF82E021B26E48018600234C
:102080006C22022130300AF01CFF78E021B2664851
:1020900001860023AC22022130300AF012FF6EE0EC
:1020A00021B2624801860023EC22022130300AF07E
:1020B00008FF64E020B26049888000234FF48072FA
:1020C00002215D48001D0AF0FCFE58E021B25A488A
:1020D000C18000234FF481720221801D0AF0F1FEBD
:1020E0004DE021B25448018100234FF48272022155
:1020F00008300AF0E6FE42E021B24F484181002359
:102100004FF4837202210A300AF0DBFE37E021B27D
:102110004948818100234FF4847202210C300AF077
:10212000D0FE2CE021B24448C18100234FF48572D7
:1021300002210E300AF0C5FE21E021B23E480182A4
:1021400000234FF48672022110300AF0BAFE16E026
:1021500021B23948418200234FF4877202211230A4
:102160000AF0AFFE0BE021B23348818200234FF426
:102170008872022114300AF0A4FE00E000BF00BF04
:1021800038460AF03BFDBDE8F0811FB5002400BFD2
:102190001420FEF731FE55202849A1F804014AF623
:1021A0000A70A1F80601A8E0254903AA08680021E1
:1021B00007F015FB002408E02248005D01A908553E
:1021C000002120480155601CC4B2082CF4DB062114
:1021D00001A8FEF78BFE1B48113800789DF80A1005
:1021E000884233D11748113840789DF80B10884247
:1021F0002CD19DF80700401CC0B28DF807009DF857
:102200000500032836D19DF804000B49097888425F
:102210001DD19DF8090000909DF80730064801780F
:102220000322064810E00000503C00201C3D002026
:10223000B83A0020843B0020FC37002026390020DB
:10224000E8370020893E0020FEF786FE55E0FA4878
:102250000078012851D19DF804001E284DD19DF829
:10226000090000909DF8073003221E21F348FEF775
:1022700073FE42E09DF8050004280BD19DF809008B
:1022800000909DF80730EC4801780422EC48FEF7F6
:1022900063FE32E09DF8050006282ED19DF804006B
:1022A0001E2815D10AF0A6FC054600240AE001A864
:1022B000FFF7A6F89DF80700401CC0B28DF8070094
:1022C000601CC4B2042CF2DB28460AF097FC14E030
:1022D0009DF80400D849097888420ED101A8FFF77B
:1022E0008FF8012000909DF80700401E83B2D2486D
:1022F00001780622D148FEF72FFE55E786B014215B
:1023000001A80CF057F800BF47F2305005F074F800
:1023100005F004FAFEF7D4FEFEF7FBFFFEF7F6FE2B
:10232000FEF7BFFEFEF7DEFC002409E00021C248F4
:10233000483040F82410243020F81410601CC4B237
:10234000092CF3DB0121BF4808F0FFF805F062FD1E
:10235000012007F0B5F9BC490860002007F0B0F98A
:10236000B9494860002007F0ABF9B7498860002000
:1023700007F0A6F9B449C860002007F0A1F9B249F6
:1023800008610523B14A0021B14807F025FC062366
:10239000B04A0021B04807F01FFC0723AF4A0021D4
:1023A000AF4807F019FC0823AE4A0021AE4807F0F9
:1023B00013FC0423AD4A0021AFF2312007F00CFCDE
:1023C00040F252310420FFF70DF819E201A800F0A5
:1023D00039FAFDF7D9FEFEF704F8FEF744F9FEF7E7
:1023E0006FFAA348006810F4006F0CD09248B0F860
:1023F000800032280BDA9048B0F88000401C8E49EB
:10240000A1F8800003E000208B49A1F880009848E3
:10241000006810F4806F0CD08748B0F88200322832
:102420000BDA8548B0F88200401C8349A1F882008D
:1024300003E000208049A1F882008D48006810F078
:10244000040F0CD07C48B0F8840032280BDA7A48AC
:10245000B0F88400401C7849A1F8840003E0002013
:102460007549A1F884008248006810F0020F0CD072
:102470007148B0F8860032280BDA6F48B0F8860051
:10248000401C6D49A1F8860003E000206A49A1F8CC
:1024900086007848B0F84400694988807648B0F8EA
:1024A0004400C8807548B0F8440008817448B0F80A
:1024B000440048816F48B0F8480088826E48B0F800
:1024C0004800C8826D48B0F8480008836C48B0F8EE
:1024D000480048835948B0F8B6006649B1F946103B
:1024E0004843642190FBF1F0554988835348B0F884
:1024F000B6006149B1F946104843642190FBF1F000
:102500004F49C8834D48B0F8B6005C49B1F9461050
:102510004843642190FBF1F0494908844748B0F8EA
:10252000B6005749B1F946104843642190FBF1F0D9
:10253000434948844F48008910B90120888547E005
:102540004C48007818B900203D49888540E049484A
:1025500090F88C000B2805DB464890F88C00384931
:10256000888535E04348007801281ED1414890F81D
:102570008D00012803D102203149888528E03D489B
:1025800090F88D00022804D03A4890F88D00042875
:1025900003D104202A4988851AE0364890F88D0036
:1025A000032815D12649888512E032480078022890
:1025B00003D10520224988850AE02E4800780328A7
:1025C00003D106201E49888502E001201C49888528
:1025D0002948008918B901201949C88569E02648A9
:1025E000007818B900201649C88562E0224890F8A2
:1025F0008C000B2805DB204890F88C001049C8851A
:1026000057E01D480078012844D11B4890F88D0000
:10261000012803D102200A49C8854AE0164890F8EB
:102620008D00022804D0144890F88D00042829D188
:1026300004200349C8853CE0FC37002026390020EF
:10264000D638002000240140E8370020040900208B
:10265000993B00089C11002059480008341A0020BA
:1026600019550008CC220020D7610008DC3000207A
:10267000080C0140B83A0020843B0020503C002068
:102680001C3D0020674890F88D00032811D1664951
:10269000C8850EE063480078022803D1052062490E
:1026A000C88506E05F480078032802D106205E490D
:1026B000C8855E48008918B901205B49088643E057
:1026C0005A48007818B90020574908863CE0574816
:1026D00090F88C000B2805DB544890F88C00524988
:1026E000088631E05148007801281ED14F4890F803
:1026F0008D00012803D102204B49088624E04B4875
:1027000090F88D00022804D0484890F88D000428E5
:1027100003D104204449088616E0444890F88D000F
:10272000032811D1404908860EE04048007802286D
:1027300003D105203C49088606E03C480078032880
:1027400002D10620384908863948008918B9012085
:102750003549488643E03648007818B900203249A8
:1027600048863CE0324890F88C000B2805DB304866
:1027700090F88C002C49488631E02D4800780128DB
:102780001ED12B4890F88D00012803D10220264944
:10279000488624E0264890F88D00022804D024487A
:1027A00090F88D00042803D104201F49488616E0C4
:1027B0001F4890F88D00032811D11B4948860EE070
:1027C0001B480078022803D105201749488606E0F7
:1027D00017480078032802D1062013494886154877
:1027E000B0F88A001449A1F8B400032004F0A6FE52
:1027F0004AF6AA201149086041F2883007F03AFDF4
:10280000E4E500BFFEF7BDFD05F04DFF0A230C4ACD
:102810000021AFF2175007F0DFF905F0E4FF00E008
:10282000F0E7FDE7843B0020D6380020503C002034
:102830001C3D0020FC3700202639002000300040DD
:10284000E43700202DE9F04705460024082700263C
:10285000A046FE4830F81700642801DABDE8F0878A
:102860000AF0C8F98146F948243850F82760243026
:1028700030F817800021243840F82710243020F841
:10288000171048460AF0BAF996FBF8F6EF486C388C
:10289000B0F9040070434FF4A5714843EC4921227C
:1028A00002FB161190FBF1F6002406E0601C35F8DF
:1028B000100025F81400601C44B2042CF6DB3046EE
:1028C0000BF042FB28812889E249888700260024F2
:1028D00004E035F914000644601C44B2052CF8DB12
:1028E000052096FBF0F000B2D8496C390883084601
:1028F000B0F9180041F65831884203DD0846D34943
:102900006C390883D1486C38B0F91800002814DD00
:10291000CE486C38B0F918004FF47A7190FBF1F0A2
:1029200044B2CA486C38B0F9180090FBF1F201FBD0
:10293000120018B1601C44B200E00124E2B2C348A6
:102940006C38B0F9181001200BF063FBBF496C39EB
:10295000C861E2B20846B0F9181000200BF059FB2C
:10296000BA496C39086200BF78E72DE9FE4F0025AF
:10297000002400260027B54830F81500642801DA45
:10298000BDE8FE8F0AF036F98246B048243850F888
:102990002560243030F815700021243840F82510C7
:1029A000243020F8151050460AF028F996FBF7F06D
:1029B000A949A1F87000A5486C38B0F9060000FBE1
:1029C00007F4A64201DD361B00E00026C7EB073006
:1029D0000DF058FA9D496C390290B1F908000DF0DC
:1029E00051FA019030460DF04DFA9C4900900DF0DF
:1029F00095FA834601990DF091FA814602990DF0FE
:102A000043F980460DF01EFA934988670846B0F8EE
:102A10007800904988869048408930B18E48806F10
:102A20008A496C39C969441805E08B48806F874929
:102A30006C39096A44188848B0F90A1020460BF02E
:102A400004FB854948670846406F0A2190FBF1F076
:102A500001B28148A0F850100146496F0246D2F8F1
:102A60008420881A01D4014600E04142042904DD93
:102A70007948406F7849C1F88400774890F89A0007
:102A800003287CDA7448B0F8A00001287FDA724885
:102A9000B0F95040808930B104EBC400052190FBAF
:102AA000F1F000F5A0746C48808988BB41F2883051
:102AB00084421EDD00240120674981F88E0008460B
:102AC00090F88C000D2802DA0D2081F88C00624805
:102AD000008918B16048007803284BD15E4890F80F
:102AE0008C000D2846D15C4800785B4981F88C0049
:102AF00040E0594890F88C000D2804D156480078E1
:102B0000554981F88C000020534981F88E0031E04E
:102B1000FFE742F2684084421EDD002401204E4956
:102B200081F88E00084690F88C000D2802DA0D20FE
:102B300081F88C004848008918B14748007803287C
:102B400018D1454890F88C000D2813D142480078E0
:102B5000414981F88C000DE03F4890F88C000D2829
:102B600004D13D4800783C4981F88C0000203A4966
:102B700081F88E00002C06DD20B2374900E006E027
:102B8000A1F8440003E000203349A1F8440000BF4D
:102B9000F6E62DE9FE4F01250024002600272B48EC
:102BA00030F81500642801DABDE8FE8F0AF022F83B
:102BB00082462648243850F82560243030F81570B5
:102BC0000021243840F82510243020F815105046F4
:102BD0000AF014F896FBF7F02149A1F870001B48A1
:102BE0006C38B0F90A0000FB07F4A64201DD361B81
:102BF00000E00026C7EB07300DF044F913496C39AB
:102C00000290B1F90C000DF03DF9019030460DF045
:102C100039F9124900900DF081F9834601990DF0C0
:102C20007DF9814602990DF02FF880460DF00AF9E2
:102C30000B4988670846B0F878000649C8860848F6
:102C4000846F408990B10648806F0BE0683800209F
:102C5000E78F0100D6380020B83A00200000044277
:102C6000843B0020FC49C969441804E0FB48806F9C
:102C7000F949096A4418F948B0F90A1020460BF0DE
:102C80004CFAF64948670846406F0A2190FBF1F07C
:102C900001B2F248A0F850100146496F0246D2F83E
:102CA0008420881A01D4014600E04142042904DD51
:102CB000EA48406FE949C1F88400E84890F89A0072
:102CC00003287CDAE548B0F8A00001287FDAE34861
:102CD000B0F95040808930B104EBC400052190FB6D
:102CE000F1F000F5A074DD48808988BB41F288309E
:102CF00084421EDD00240120D84981F88E00084658
:102D000090F88C000D2802DA0D2081F88C00D34851
:102D1000008918B1D148007803284BD1CF4890F8EA
:102D20008C000D2846D1CD480078CC4981F88C0024
:102D300040E0CA4890F88C000D2804D1C7480078BC
:102D4000C64981F88C000020C44981F88E0031E02A
:102D5000FFE742F2684084421EDD00240120BF49A3
:102D600081F88E00084690F88C000D2802DA0D20BC
:102D700081F88C00B948008918B1B8480078032858
:102D800018D1B64890F88C000D2813D1B3480078BC
:102D9000B24981F88C000DE0B04890F88C000D2805
:102DA00004D1AE480078AD4981F88C000020AB49D1
:102DB00081F88E00002C06DD20B2A84900E006E074
:102DC000A1F8440003E00020A449A1F8440000BF9A
:102DD000EAE62DE9FE4F02250024002600279E4842
:102DE0006C3030F81500642801DABDE8FE8F09F078
:102DF00001FF82469848483050F82560243030F86A
:102E000015700021243840F82510243020F81510C2
:102E1000504609F0F3FE96FBF7F09149A1F87000D7
:102E20008D48B0F90E0000FB07F4A64201DD361B09
:102E300000E00026C7EB07300DF024F88649029029
:102E4000B1F910000DF01EF8019030460DF01AF89F
:102E5000844900900DF062F8834601990DF05EF808
:102E6000814602990CF010FF80460CF0EBFF7C4984
:102E700088670846B0F878007B4908877848846FEF
:102E8000408928B17648806F7349C969441804E0C5
:102E90007348806F7049096A44187148B0F90A1084
:102EA00020460BF0A2F96E4948670846406F0A2198
:102EB00090FBF1F001B26A48A0F850100146496F4A
:102EC0000246D2F88420881A01D4014600E041422B
:102ED000042904DD6248406F6149C1F884006048FC
:102EE00090F89A0003287CDA5D48B0F8A000012829
:102EF0007FDA5B48B0F95040808930B104EBC40000
:102F0000052190FBF1F000F5A0745548808988BB3D
:102F100041F2883084421EDD00240120504981F8AE
:102F20008E00084690F88C000D2802DA0D2081F8FA
:102F30008C004B48008918B14948007803284BD1D0
:102F4000474890F88C000D2846D145480078444900
:102F500081F88C0040E0424890F88C000D2804D1A4
:102F60003F4800783E4981F88C0000203C4981F8B8
:102F70008E0031E0FFE742F2684084421EDD00240B
:102F80000120374981F88E00084690F88C000D2802
:102F900002DA0D2081F88C003148008918B13048E0
:102FA0000078032818D12E4890F88C000D2813D1F2
:102FB0002B4800782A4981F88C000DE0284890F8C9
:102FC0008C000D2804D126480078254981F88C0012
:102FD0000020234981F88E00002C06DD20B2204914
:102FE00000E006E0A1F8440003E000201C49A1F83D
:102FF000440000BFF9E62DE9FE4F0325002400261A
:10300000002715486C3030F81500642801DABDE857
:10301000FE8F09F0EFFD82460F48483050F82560DA
:10302000243030F815700021243840F82510243061
:1030300020F81510504609F0E1FD96FBF7F00B491A
:10304000A1F870000448B0F9120000FB07F4A64292
:103050000EDD361B0DE00000FC370020843B002015
:10306000503C002000000442D63800201C3D0020C7
:103070000026C7EB07300CF005FFFE490290B1F9BE
:1030800014000CF0FFFE019030460CF0FBFEFA49F4
:1030900000900CF043FF834601990CF03FFF8146FE
:1030A00002990CF0F1FD80460CF0CCFEF3498867E4
:1030B0000846B0F87800F2494887F048408928B1BE
:1030C000EE48806FEB49C969441804E0EB48806F13
:1030D000E849096A4418E948B0F90A1020460BF09B
:1030E000ECF8E64948670846406F0A2190FBF1F08A
:1030F00001B2E248A0F850100146496F0246D2F8EA
:103100008420881A01D4014600E04142042904DDEC
:10311000DA48406FD949C1F88400D84890F89A003D
:1031200003287CDAD548B0F8A00001287FDAD3481C
:10313000B0F95040808930B104EBC400052190FB08
:10314000F1F000F5A074CD48808988BB41F2883049
:1031500084421EDD00240120C84981F88E00084603
:1031600090F88C000D2802DA0D2081F88C00C348FD
:10317000008918B1C148007803284BD1BF4890F8A6
:103180008C000D2846D1BD480078BC4981F88C00E0
:1031900040E0BA4890F88C000D2804D1B748007878
:1031A000B64981F88C000020B44981F88E0031E0E6
:1031B000FFE742F2684084421EDD00240120AF494F
:1031C00081F88E00084690F88C000D2802DA0D2058
:1031D00081F88C00A948008918B1A8480078032814
:1031E00018D1A64890F88C000D2813D1A348007878
:1031F000A24981F88C000DE0A04890F88C000D28C1
:1032000004D19E4800789D4981F88C0000209B499C
:1032100081F88E00002C06DD20B2984900E006E01F
:10322000A1F8440003E000209449A1F8440000BF45
:10323000EDE62DE9F05F07244FF000094FF0000A9A
:103240008C486C3030F81400642801DABDE8F09F37
:1032500009F0D0FC83468748483050F82490243049
:1032600030F814A00021243840F82410243020F82D
:103270001410584609F0C2FCC9EB491000EB80015C
:103280004FF47A700AFB00F0B1FBF0F001B27D4818
:103290004180A0F14401B1F946000CF0F8F807466E
:1032A000794A7A4B0CF046F905460CF0C1F801B2A8
:1032B00074484438A0F84610B0F8460000EB80008F
:1032C000400001B26F484438A0F8461088B26C49FB
:1032D000888100BFBAE72DE9F05F06244FF00009AE
:1032E0004FF0000A63486C3030F81400642801DAAB
:1032F000BDE8F09F09F07EFC83465E48483050F8F8
:103300002490243030F814A00021243840F82410F0
:10331000243020F81410584609F070FCC9EB49100D
:1033200000EB80014FF47A700AFB00F0B1FBF0F083
:1033300001B257484180A0F14401B1F946000CF0B8
:10334000A6F80746504A514B0CF0F4F805460CF02D
:103350006FF801B24E484438A0F84610B0F8460065
:1033600000EB8000400001B249484438A0F8461004
:1033700088B24349C88100BFBAE72DE9F05F052450
:103380004FF000094FF0000A3A486C3030F8140052
:10339000642801DABDE8F09F09F02CFC834635482B
:1033A000483050F82490243030F814A000212438FC
:1033B00040F82410243020F81410584609F01EFC60
:1033C000C9EB491000EB80014FF47A700AFB00F062
:1033D000B1FBF0F001B22F484180A0F14401B1F9F6
:1033E00046000CF054F80746274A284B0CF0A2F888
:1033F00005460CF01DF801B226484438A0F84610E6
:10340000B0F8460000EB8000400001B2214844388B
:10341000A0F8461088B21A49088200BFBAE72DE921
:10342000F05F04244FF000094FF0000A11486C309F
:1034300030F81400642801DABDE8F09F09F0DAFBE7
:1034400083460C48483050F82490243030F814A0BB
:103450000021243840F82410243020F81410584655
:1034600009F0CCFBC9EB491000EB80014FF47A70F6
:1034700012E00000FC370020000004421C3D002048
:10348000D6380020FC3A00209A9999999999E13F01
:10349000C83B0020943C00200AFB00F0B1FBF0F098
:1034A00001B2F9484180A0F14401B1F946000BF0A6
:1034B000EEFF0746F54AF64B0CF03CF805460BF0DC
:1034C000B7FF01B2F0484438A0F84610B0F8460003
:1034D00000EB8000400001B2EB484438A0F84610F1
:1034E00088B2EC49488200BFA6E710B5002400214D
:1034F000E948A0F848100020E749A1F8900044F6F8
:103500002060A1F89200A1F894004FF6FF70A1F896
:103510006E000846847B0121C1814FF4FA6006F0F9
:10352000A9FEFFF786FEDC48B0F946001E2805DB41
:1035300041F2883006F09EFEFFF77BFEFFF715FA9A
:10354000D54890F88C00122828D025E0D248B0F851
:103550004800401C01B2D048A0F848100A2900DBFE
:103560001BE0CD48008920B90021CB48A0F84810C5
:1035700013E040F6B83006F07DFEFFF75AFEC6486D
:10358000B0F94610B0F9480000EB8000642202EB6D
:103590004000814200DB00E0D8E700BFFFF7E5F91B
:1035A000BD4890F88C00112826DA23E0BA48B0F91B
:1035B0004800642808DAB848B0F848000A3001B278
:1035C000B548A0F8481000E015E0B348008920B9DC
:1035D0000021B148A0F848100DE040F6B83006F0E0
:1035E00049FEFFF726FEAC48B0F94600B0F57A7FF9
:1035F00000DD00E0DAE700BFA748C481C08920B140
:10360000A54890F88C000B280FDB0021A248A0F8F9
:1036100048100020A049A1F8900044F62060A1F8CD
:1036200092000021012003F02DFFFFF79EF910BD4D
:1036300010B5002400219948A0F8481000209749AF
:10364000A1F8900044F62060A1F89200A1F894003F
:103650004FF6FF70A1F86E000846847B0121C181FE
:103660004FF4FA6006F006FEFFF735FE8B48B0F91E
:1036700046001E2805DB41F2883006F0FBFDFFF70F
:103680002AFEFFF786FA854890F88C00122828D089
:1036900025E08248B0F84800401C01B27F48A0F8FD
:1036A00048100A2900DB1BE07C48008920B9002172
:1036B0007A48A0F8481013E040F6B83006F0DAFD7A
:1036C000FFF709FE7548B0F94610B0F9480000EB65
:1036D0008000642202EB4000814200DB00E0D8E77A
:1036E00000BFFFF756FA6D4890F88C00112826DAD3
:1036F00023E06A48B0F94800642808DA6748B0F85F
:1037000048000A3001B26548A0F8481000E015E012
:103710006248008920B900216048A0F848100DE0F7
:1037200040F6B83006F0A6FDFFF7D5FD5B48B0F9CE
:103730004600B0F57A7F00DD00E0DAE700BF5748C9
:10374000C481C08920B1554890F88C000B2813DB48
:1037500000215248A0F8481000205049A1F89000DC
:1037600044F62060A1F892004FF6FF70A1F86E00B9
:103770000021022003F086FEFFF70BFA10BD10B502
:10378000002400214648A0F8481000204449A1F830
:10379000900044F62060A1F89200A1F894004FF642
:1037A000FF70A1F86E000846847B0121C1814FF4AF
:1037B000FA6006F05FFDFFF7E0FD3948B0F946001A
:1037C0001E2805DB41F2883006F054FDFFF7D5FDD9
:1037D000FFF7FFFA324890F88C00122828D025E035
:1037E0002F48B0F84800401C01B22D48A0F84810FE
:1037F0000A2900DB1BE02A48008920B9002128485B
:10380000A0F8481013E040F6B83006F033FDFFF79B
:10381000B4FD2348B0F94610B0F9480000EB800031
:10382000642202EB4000814200DB00E0D8E700BFE9
:10383000FFF7CFFA1A4890F88C00112834DA31E0FB
:103840001748B0F94800642808DA1548B0F848006D
:103850000A3001B21248A0F8481000E023E01048F6
:10386000008920B900210E48A0F848101BE040F65E
:10387000B83006F0FFFCFFF780FD0948B0F94600BC
:10388000B0F57A7F0EDD0EE0603D00209A9999999F
:103890009999E13FD6380020B83A0020843B0020B7
:1038A000503C0020CCE700BFFE48C481C08920B155
:1038B000FC4890F88C000B2813DB0021F948A0F895
:1038C00048100020F749A1F8900044F62060A1F8C4
:1038D00092004FF6FF70A1F86E000021032003F064
:1038E000D1FDFFF776FA10BD10B500240021EE4897
:1038F000A0F848100020EC49A1F8900044F62060A0
:10390000A1F89200A1F894004FF6FF70A1F86E00A4
:103910000846847B0121C1814FF4FA6006F0AAFCBD
:10392000FFF77DFDE048B0F946001E2805DB41F2B7
:10393000883006F09FFCFFF772FDFFF75CFBDA486A
:1039400090F88C00122828D025E0D748B0F848001D
:10395000401C01B2D448A0F848100A2900DB1BE043
:10396000D148008920B90021CF48A0F8481013E0C1
:1039700040F6B83006F07EFCFFF751FDCA48B0F9BA
:103980004610B0F9480000EB8000642202EB4000D2
:10399000814200DB00E0D8E700BFFFF72CFBC24804
:1039A00090F88C00112826DA23E0BF48B0F94800CF
:1039B000642808DABC48B0F848000A3001B2BA48B6
:1039C000A0F8481000E015E0B748008920B90021B0
:1039D000B548A0F848100DE040F6B83006F04AFCB3
:1039E000FFF71DFDB048B0F94600B0F57A7F00DD65
:1039F00000E0DAE700BFAC48C481C08920B1AA4822
:103A000090F88C000B2813DB0021A748A0F8481081
:103A10000020A549A1F8900044F62060A1F892008A
:103A20004FF6FF70A1F86E000021042003F02AFD7C
:103A3000FFF7E1FA10BD9D48D0F880009C4908606E
:103A4000002088609B48C860002048829748D0F8D2
:103A500084000A2190FBF1F19548C16181614161C7
:103A60000020934981F82000032081F821000020E4
:103A70008E4981F89A0070478F48D0F880008F49AE
:103A80000860002088608B48C860002048828A480F
:103A9000D0F884000A2190FBF1F18848C16181616E
:103AA00041610020854981F82000032081F8210030
:103AB0000020814981F89A0070477A48D0F8800048
:103AC0007F490860002088607A48C86000204882EA
:103AD0007448D0F884000A2190FBF1F17848C16164
:103AE000816141610020764981F8200081F8210040
:103AF0006C4981F89A0070476B48D0F88000714992
:103B00000860002088606B48C860002048826648D2
:103B1000D0F884000A2190FBF1F16A48C16181610B
:103B200041610020674981F8200081F821005E4949
:103B300081F89A0070472EE063480078401CC0B2BC
:103B400061490870042801DD012008705E48007892
:103B5000012806D0022809D003280CD0042814D14B
:103B60000EE05A49486805F0EFFE0FE057498868B3
:103B700005F0EAFE0AE05549C86805F0E5FE05E0F3
:103B80005249086905F0E0FE00E000BF00BF40F6C2
:103B9000C21006F06FFBCFE78AB04FF05A0800BFA3
:103BA00041F2883500264FF00009002700200690DA
:103BB000079008900990002482468346059004905F
:103BC0000120039000BF394908704149888600BF31
:103BD00012E04FF4FA6006F04DFBFEF7C6FEFFF769
:103BE00028FB07980890069807903048406F069089
:103BF0000BF1010000F0FF0BBBF10A0FE9DB2B48D2
:103C0000408BC0EB0010012101EB800028490882A5
:103C10002648B0F92200C0EB00104FF6FF7101EA10
:103C200080002249A1F86C000846B0F86C00A1F8A9
:103C30009C00B1F9060004F051F91C49C1F880005C
:103C40000846808B87B24FF47A7006F013FB092385
:103C5000204A0021AFF2211005F0BEFFF9E31B4915
:103C600002AA4868002105F0BAFD022003F066FCB4
:103C70000E48B0F848001FFA80F9FEF776FE0C48AF
:103C8000C16981610948D0F884100948C16100F117
:103C90002101143003F08AFC0898099007980890D5
:103CA000069819E0503C00201C3D0020B83A002046
:103CB000E83D0020A0860100843B00200C3E00204F
:103CC000303E0020543E002000000020E837002055
:103CD00026390020D42900200790FE48406F069026
:103CE000FC48008970BB4FF6FF70FA49A1F86E00DE
:103CF00044F62060A1F890000846408BC0EB00100D
:103D0000012101EB8000F4490882F248808B87B2E0
:103D10000021012003F0B6FB0021EE48A0F8481076
:103D2000FFF789FEFFF785FA0020EA4981F88D0048
:103D30000021012003F06EFB0021E6488182002073
:103D400003908BE70398B8B9E2480078E14981F81D
:103D50008C000121084603F05DFBDE480078012855
:103D60000AD10020DB490870FFF7BFFBD948007873
:103D700010B90120D7490870D648007A0390D54879
:103D8000007801287DD1D34890F88D0008BBD14838
:103D9000406F00F6AC50CF49D1F88010884214DD56
:103DA0000420CC4981F88D000846D0F88000496F86
:103DB000401AC849B1F92610484300EBD071019070
:103DC00048100CF05FF8824603E00120C14981F8F9
:103DD0008D00C04890F88D0001283ED1BE48008A71
:103DE00040B340F2E330874202DA781D87B201E047
:103DF00040F2E73739B2B748A0F84810B648008A11
:103E0000401EB5490882B348406F42F2D871084459
:103E1000B049D1F88010884203DD0020AE49088205
:103E200008E0AC48406F42F21071884202DD002089
:103E3000A9490882A848008A78B9A648808B87B229
:103E4000A448D0F88400A44908600220A14981F860
:103E50008D000120A04981F820009E4890F88D0037
:103E600002287CD19C4890F82000012824D1994850
:103E7000D0F8840098490968441A9648D0F8800020
:103E800000E089E204EB8401B0EB810F02DDB4F5C0
:103E90007A7F0CDB0220904981F8200000204882C4
:103EA0004EF6602048608B48D0F88400086040F2ED
:103EB000E7318848A0F84810874890F82000022889
:103EC00057D100218348A0F848108348408A03282E
:103ED0004ADB8049D1F884107F4A1268881A01D4DD
:103EE000014600E041427C4A528A4DF2D8635A436F
:103EF00092FBF1F478484068A04201DD76484460C6
:103F000075484068A04208DB734890F8210020B152
:103F1000714890F82100022826D16E48808A012835
:103F200002D100216B48818204206A4981F88D000A
:103F30000820694981F82000486809F07BFF65493D
:103F4000C884012081F89B000846C08C6349A1F811
:103F50008C000023222206215E48263000E008E083
:103F600008F0AFFF4FF0000A5B48408A401C5A49F6
:103F70004882584890F88D0003281ED1564890F882
:103F80002000D8B95348D0F880005249D1F88410A5
:103F9000884205DD40F2E7314E48A0F8481003E0C2
:103FA00000214C48A0F848104B4890F82100012807
:103FB000E3D10B20484981F82000F7E04548D0F8CC
:103FC0008010D0F884000A30814205DD40F2E731EC
:103FD0004048A0F848100BE03E48D0F88410D0F8D4
:103FE00080000A30814203DD00213A48A0F84810E1
:103FF000394890F820000A2872DD374890F82000F0
:104000000B2809D1344890F821000028D5D10C2084
:10401000314981F82000C9E02F4890F820000C2891
:1040200009D12D4890F821000128C6D10D202A4938
:1040300081F82000BAE0284890F820000D2809D126
:10404000254890F821000028B7D10E20224981F898
:104050002000ABE0204890F820000E280DD11E482B
:1040600090F82100012807D110201B4981F8200079
:104070001848D0F88400C86098E0174890F82000ED
:1040800010287DD1144890F8210020B1124890F8F2
:10409000210002287BD111200F4981F82000002146
:1040A0000C4881820D48A0F844100A48D0F88400DA
:1040B000094988600420074981F88D00002081F8B3
:1040C0009A00054BDA689968588A09F0DEFE0149C2
:1040D000C88406E0B83A0020E83D002026390020D8
:1040E00060E0B1F92620FA49498A02EB410000EB71
:1040F000D071C1F34F01F64A51821046408A01B295
:10410000F44801851146488AC11700EB9171891066
:10411000F04A5185EE49488AC11700EB9171891028
:10412000A0EB8101022905DD1046408D401C01B243
:1041300010464185E748C08CE749A1F88C00E54866
:10414000008DA1F89400E348408DA1F89C00012067
:10415000E04981F89B00002322220621DD48263019
:1041600008F0AFFEDB48D0F88000DA49D1F88410BF
:10417000401AD849B1F92610484300EBD07101E04C
:104180000BE004E0019048100BF07CFE8246D04822
:10419000408A401CCE49488208E00B20CC4981F877
:1041A000200003E00B20CA4981F82000C94890F89C
:1041B0008D0004287ED1C748D0F8840000EB800031
:1041C0008100C448D0F88000B1EBC00F07DA0020AE
:1041D000BF4981F82000BF4981F88D0024E0BD4827
:1041E00090F89B0000BBBB48D0F8800000EB80013A
:1041F00001EBC000B749D1F8841001EB8101B0EBAD
:10420000810F0ADCB348D0F88000B249D1F884109D
:10421000401A41F29411884206DD0020AC4981F831
:104220002000AC4981F88D00AA48808A01280FD16E
:10423000A848D0F88000A749D1F88410401AB0F5FA
:10424000FA7F05DA0320A34981F88D00FFF7F3FB1D
:10425000A04890F89A00E0B99E48406F9D49D1F877
:104260008010884204DD02209A4981F89A0032E0E9
:104270009848406F9749D1F88010884204DA0120AD
:10428000944981F89A0026E00320924981F89A0027
:1042900021E0904890F89A0001280CD18D48406F99
:1042A0008C49D1F88010884215DB0320894981F8B8
:1042B0009A0010E001E1874890F89A0002280AD19C
:1042C0008448406F8349D1F88010884203DC042081
:1042D000804981F89A007F48D0F88400DFF8F4C163
:1042E0000090DCF88030BCF92600DDE9061208F009
:1042F0001BFF514601900BF059FC82467548D0F8DF
:1043000080007449D1F88410401A7249B1F926101E
:1043100000FB01F4002150460BF0CCFD1ED26D488D
:10432000D0F880006B49D1F8841088420CDA20461E
:104330000BF0A8FD514601900BF0BCFE06D22046C2
:104340000BF0A0FD824601E04FF0000A63495046A1
:104350000BF0B0FD0DD2DFF884A10AE05D48D0F883
:104360008410D0F8800000F57A70814201DD4FF0B2
:10437000000A5B4950460BF09DFE01D2DFF860A1B8
:10438000584950460BF080FC01900BF03FFD01B204
:104390005048A0F8481090E04E480078022859D1C3
:1043A00000204C4981F89A000846B0F89C10B0F8FB
:1043B0009C00401E474AA2F89C00B9B11046B0F9D3
:1043C00044000A2190FBF1F043498988884204DBCC
:1043D00000211046A0F8481004E040F2E7313D48C3
:1043E000A0F8481000203B49488066E00021394889
:1043F000A0F8481001203749087000BF0020344958
:1044000081F82000334981F88D00D1F88010314ABD
:10441000526F891A2F4AB2F9262001FB02F00BF0E5
:1044200031FD82462B48B0F86C002A49A1F89C0067
:104430000846B0F97C00642148432649B1F92410AC
:1044400090FBF1F000B22349A1F87C00224988805A
:1044500033E0FFE11F48007803281FD11D48408842
:1044600001B21C48A0F848104FF0000A002019497A
:1044700081F89A00164981F82000164981F88D00CC
:10448000D1F88010134A526F891A124AB2F92620C5
:1044900001FB02F00BF0F6FC82460EE000210D4815
:1044A000A0F848108A4600200A4981F89A00084975
:1044B00081F82000074981F88D000648B0F94800CE
:1044C000002811DA00210348A0F8481017E0000086
:1044D000E83D0020B83A00202639002000401CC6E4
:1044E0000050C3470000C842FE48B0F94800B0F58C
:1044F0007A7F04DB40F2E731FA48A0F84810F94827
:1045000090F88C000B38092823D2DFE800F019223C
:104510000F0510220607110000BF00BF0021F1485F
:10452000A0F84810012002F075FF17E000BF00BF9F
:104530000021EC48A0F84810012002F06BFF0DE0CC
:104540000021E848A0F848100121084602F062FF67
:1045500004E00121084602F05DFF00BF00BFE14812
:10456000C08918B90020DF49A1F89000FEF761FE6C
:10457000DC48B0F94400B0F57A7F34DAA8F10100E4
:104580001FFA80F8D748B0F87000A84202DDD5487D
:10459000B0F87050D348B0F87000B04202DAD14899
:1045A000B0F8706040F2DE30814502DBA81B0928BC
:1045B00004DD4FF05A08002542F22836B8F1000F0A
:1045C00016D1A81B0A2808DAC64890F88C000F28D4
:1045D00003DA0F20C34981F88C004FF05A0842F2E9
:1045E0002836002504E04FF05A08002542F228360C
:1045F00006990998401AB0F5FA6F20DDDDE9081038
:1046000088421CDBDDE90710884218DBDDE9061073
:10461000884214DBB34890F88C000D280FDA05218E
:10462000099890FBF1F0069A0999891A884206DAEE
:104630000120AC4981F89800142081F89900A9481C
:1046400090F89800012827D1A64890F8990018B34F
:10465000A44890F89900401E10F0FF00A14981F88D
:10466000990001D181F898009E4890F88C000D289F
:1046700012DA9D48B0F9180000EB80004FF47A710F
:1046800001EB40000699884206DD0020954981F83B
:1046900098000F2081F88C00924890F88C000F2829
:1046A00010D19148B0F9180000EB80004FF47A71F6
:1046B00001EB40000699884204DA8A48007889496B
:1046C00081F88C00B9F5FA7F18DB8648B0F846000F
:1046D000A0B9844890F88C000D280CDA05980528BC
:1046E00004DD10207F4981F88C0009E00598401C0A
:1046F000C0B2059004E00020059001E00020059084
:10470000784890F88C00102808D17648B0F8460018
:1047100020B174480078734981F88C00714890F892
:104720008C000D2829DA6F48B0F94610B0F91E0048
:10473000814203DD11206B4981F88C006948B0F893
:10474000480078B96748B0F946002D280ADB04987C
:10475000401CC0B20490102806D11220614981F893
:104760008C0001E0002004905F48B0F8800005282C
:1047700003DB13205B4981F88C005A4890F88D00C8
:10478000042834D1574890F89A0003282FDB554865
:10479000007801282BD1534890F88C000B2826DA9A
:1047A0005048B0F916004F49B1F97C1001EB810176
:1047B00000EB41004B49B1F94410884204DA0B2068
:1047C000484981F88C0044E04648B0F94410B0F9FB
:1047D000180008444349B1F97C1001EB8101B0EBAA
:1047E000410F36DA0C203F4981F88C0031E03D481A
:1047F00090F88C000B2814D13A48B0F916003949CA
:10480000B1F97C1001EB810100EB41003549B1F9B0
:10481000441088421DDB33480078324981F88C000F
:1048200017E0304890F88C000C2812D12D48B0F9D0
:104830004410B0F9180008442A49B1F97C1001EB82
:104840008101B0EB410F04DB26480078254981F84F
:104850008C0000BFFFF703BA8AB04FF05A0800BFC0
:1048600041F2883500264FF000090027002006900D
:104870000790089009900024824683460590049092
:104880000120039000BF194908701949C88600BF6C
:1048900012E04FF4FA6005F0EDFCFEF77AF9FEF74E
:1048A0001AFD07980890069807901048406F0690E8
:1048B0000BF1010000F0FF0BBBF10A0FE9DB0B4825
:1048C000408BC0EB0010012101EB800009490882F8
:1048D0000648B0F92200C0EB00104FF6FF7101EA64
:1048E000800009E0B83A0020FC370020843B00201B
:1048F000263900200C3E0020FA49A1F86C00084639
:10490000B0F86C00A1F89C00B1F9060003F0E6FADB
:10491000F449C1F880000846808B87B24FF47A7062
:1049200005F0A8FCE3E3F04902AA8868002104F03E
:1049300056FFEC48B0F848001FFA80F9FEF729F955
:10494000EA48C1698161E748D0F88410E748C1614D
:1049500000F12101143002F029FE0898099007980F
:10496000089006980790DF48406F0690DD48008960
:1049700070BB4FF6FF70DB49A1F86E0044F6206073
:10498000A1F890000846408BC0EB0010012101EB1C
:104990008000D6490882D348808B87B2002102204C
:1049A00002F070FD0021CF48A0F84810FFF764F82E
:1049B000FEF791FC0020CB4981F88D0000210220F8
:1049C00002F028FD0021C748818200200390A9E75A
:1049D0000398B8B9C3480078C24981F88C00012116
:1049E000022002F017FDBF48007801280AD10020FC
:1049F000BC490870FEF71CFEBA48007810B90120C7
:104A0000B8490870B748007A0390B64A0699D2F8B8
:104A10008020881A01D4014600E04142B1F57A7F36
:104A200003DD0020AF4981F89A00AE4800780128E4
:104A30007DD1AC4890F88D0008BBAA48406F00F6C5
:104A4000AC50A849D1F88010884214DD0420A54953
:104A500081F88D000846D0F88000496F401AA149BE
:104A6000B1F92610484300EBD071019048100BF0CB
:104A700009FA824603E001209A4981F88D0099489D
:104A800090F88D0001283ED19848008A40B340F24A
:104A9000E330874202DA781D87B201E040F2E7375F
:104AA00039B29048A0F848109048008A401E8F49BB
:104AB00008828C48406F42F2D87108448949D1F885
:104AC0008010884203DD00208849088208E085487C
:104AD000406F42F21071884202DD00208349088253
:104AE0008248008A78B97F48808B87B27D48D0F8A9
:104AF00084007E49086002207A4981F88D000120F7
:104B00007A4981F82000774890F88D0002287CD1FE
:104B1000764890F82000012824D17248D0F884000B
:104B200072490968441A6F48D0F8800000E08BE2AF
:104B300004EB8401B0EB810F02DDB4F57A7F0CDB6E
:104B400002206A4981F82000002048824EF6602049
:104B500048606448D0F88400086040F2E73161485A
:104B6000A0F84810614890F82000022857D1002191
:104B70005C48A0F848105D48408A03284ADB594940
:104B8000D1F88410594A1268881A01D4014600E00D
:104B90004142564A528A4DF2D8635A4392FBF1F48D
:104BA00052484068A04201DD504844604F48406888
:104BB000A04208DB4D4890F8210020B14B4890F806
:104BC0002100022826D14748808A012802D10021ED
:104BD000444881820420434981F88D0008204349DC
:104BE00081F82000486809F025F93E49C884012071
:104BF00081F89B000846C08C3D49A1F88E00002337
:104C0000622206213748263000E008E008F059F912
:104C10004FF0000A3548408A401C344948823148E8
:104C200090F88D0003281ED1304890F82000D8B9A4
:104C30002C48D0F880002B49D1F88410884205DD3B
:104C400040F2E7312748A0F8481003E0002125484A
:104C5000A0F84810254890F821000128E3D10B2046
:104C6000224981F82000F9E01E48D0F88010D0F8E1
:104C700084000A30814205DD40F2E7311948A0F88E
:104C800048100BE01748D0F88410D0F880000A30A4
:104C9000814203DD00211348A0F84810134890F822
:104CA00020000A287DDD114890F820000B2809D14A
:104CB0000E4890F821000028D5D10C200B4981F82E
:104CC0002000CBE0094890F820000C2812D10748BA
:104CD00090F821000128C6D10D20044981F8200058
:104CE000BCE00000843B0020E83700200C3E0020A0
:104CF00026390020FE4890F820000D2809D1FC48F4
:104D000090F821000028AED10E20F94981F820004A
:104D1000A4E0F74890F820000E280DD1F44890F850
:104D20002100012807D11020F14981F82000F14825
:104D3000D0F88400C86091E0ED4890F82000102879
:104D40007ED1EB4890F8210020B1E94890F821008D
:104D5000022872D11120E64981F820000021E5489F
:104D60008182E548A0F84610E248D0F88400E04986
:104D700088600420DF4981F88D00002081F89A00C6
:104D8000DB4BDA689968588A09F07FF8D949C884FA
:104D9000B1F92620D649498A02EB410000EBD071D7
:104DA00000E057E0C1F34F01D14A51821046408ADA
:104DB00001B2D04801851146488AC11700EB9171B4
:104DC0008910CC4A5185CA49488AC11700EB9171B4
:104DD0008910A0EB8101022905DD1046408D401CA1
:104DE00001B210464185C348C08CC349A1F88E006A
:104DF000C048008DA1F89600BE48408DA1F89E00E5
:104E00000120BC4981F89B00002362220621B94899
:104E1000263008F056F8B748D0F88000B549D1F8E8
:104E20008410401AB349B1F92610484300EBD07101
:104E3000019048100BF026F88246AD48408A00E009
:104E400003E0401CAA49488208E00B20A84981F8E9
:104E5000200003E00B20A64981F82000A54890F827
:104E60008D0004287ED1A348D0F8840000EB800098
:104E70008100A048D0F88000B1EBC00F07DA002015
:104E80009B4981F820009B4981F88D0024E09948D6
:104E900090F89B0000BB9748D0F8800000EB8001A1
:104EA00001EBC0009349D1F8841001EB8101B0EB14
:104EB000810F0ADC8F48D0F880008E49D1F8841029
:104EC000401A41F29411884206DD0020884981F899
:104ED0002000884981F88D008648808A01280FD1FA
:104EE0008448D0F880008349D1F88410401AB0F586
:104EF000FA7F05DA03207F4981F88D00FEF7BCFDBB
:104F00007C4890F89A00E0B97A48406F7949D1F826
:104F10008010884204DD0220764981F89A0032E050
:104F20007448406F7349D1F88010884204DA012038
:104F3000704981F89A0026E003206E4981F89A00B2
:104F400021E06C4890F89A0001280CD16948406F24
:104F50006849D1F88010884215DB0320654981F843
:104F60009A0010E00EE1634890F89A0002280AD1F6
:104F70006048406F5F49D1F88010884203DC04200C
:104F80005C4981F89A005B48D0F88400DFF864C17E
:104F90000090DCF88030BCF92600DDE9061208F04C
:104FA00048FA514601900AF001FE82465148D0F875
:104FB00080005049D1F88410401A4E49B1F92610AA
:104FC00000FB01F4002150460AF074FF1ED249484C
:104FD000D0F880004749D1F8841088420CDA204686
:104FE0000AF050FF514601900BF064F806D22046BB
:104FF0000AF048FF824601E04FF0000A3F49504660
:105000000AF058FF0DD2DFF8F4A00AE03948D0F8D2
:105010008410D0F8800000F57A70814201DD4FF0F5
:10502000000A374950460BF045F801D2DFF8D0A00E
:10503000344950460AF028FE01900AF0E7FE01B21A
:105040002C48A0F848109DE02A480078022866D134
:105050000020284981F89A000846B0F89C10B0F862
:105060009C00401E234AA2F89C00B9B11046B0F93A
:1050700044000A2190FBF1F01F49C988884204DBF3
:1050800000211046A0F8481004E040F2E73119482A
:10509000A0F8481000201749488073E00021154807
:1050A000A0F8481001201349087000BF00201049E3
:1050B00081F820000F4981F88D00D1F880100D4A49
:1050C000526F891A0B4AB2F9262001FB02F00AF04E
:1050D000D9FE82460748B0F86C000649A1F89C004A
:1050E0000846B0F97C006421484302490CE009E21B
:1050F0000C3E0020843B00202639002000401CC6C6
:105100000050C3470000C842B1F9241090FBF1F0F1
:1051100000B2FD49A1F87C00FC49C88032E0FA48A1
:10512000007803281FD1F848408801B2F648A0F85B
:1051300048104FF0000A0020F34981F89A00F44922
:1051400081F82000F04981F88D00D1F88010EE4AF6
:10515000526F891AEC4AB2F9262001FB02F00AF0DC
:1051600091FE82460EE00021E748A0F848108A46EA
:105170000020E54981F89A00E54981F82000E249DC
:1051800081F88D00E048B0F94800002804DA0021D9
:10519000DD48A0F848100AE0DB48B0F94800B0F557
:1051A0007A7F04DB40F2E731D748A0F84810D648B0
:1051B00090F88C000B38092823D2DFE800F0192280
:1051C0000F0510220607110000BF00BF0021CE48C6
:1051D000A0F84810022002F01DF917E000BF00BF40
:1051E0000021C948A0F84810022002F013F90DE090
:1051F0000021C548A0F848100121022002F00AF958
:1052000004E00121022002F005F900BF00BFBE4802
:10521000C08918B90020BC49A1F89000FEF75BF8DE
:10522000B948B0F94400B0F57A7F34DAA8F101004A
:105230001FFA80F8B448B0F87000A84202DDB24806
:10524000B0F87050B048B0F87000B04202DAAE4822
:10525000B0F8706040F2DE30814502DBA81B0928FF
:1052600004DD4FF05A08002542F22836B8F1000F4D
:1052700016D1A81B0A2808DAA34890F88C000F283A
:1052800003DA0F20A04981F88C004FF05A0842F24F
:105290002836002504E04FF05A08002542F228364F
:1052A00006990998401AB0F5FA6F20DDDDE908107B
:1052B00088421CDBDDE90710884218DBDDE90610B7
:1052C000884214DB904890F88C0013280FDA0521EF
:1052D000099890FBF1F0069A0999891A884206DA32
:1052E0000120894981F89800142081F899008648A6
:1052F00090F89800012827D1834890F8990018B3B6
:10530000814890F89900401E10F0FF007E4981F816
:10531000990001D181F898007B4890F88C001328FF
:1053200012DA7C48B0F9180000EB80004FF47A7173
:1053300001EB40000699884206DD0020724981F8A1
:1053400098000F2081F88C006F4890F88C000F288F
:1053500010D17048B0F9180000EB80004FF47A715A
:1053600001EB40000699884204DA674800786649F4
:1053700081F88C00B9F5FA7F18DB6348B0F8460075
:10538000A0B9614890F88C0013280CDA059805281C
:1053900004DD10205C4981F88C0009E00598401C70
:1053A000C0B2059004E00020059001E000200590C7
:1053B000554890F88C00102808D15348B0F84600A2
:1053C00020B151480078504981F88C004E4890F83F
:1053D0008C00132829DA4C48B0F94610B0F91E00A9
:1053E000814203DD1120484981F88C004648B0F81D
:1053F000480078B94448B0F946002D280ADB0498E3
:10540000401CC0B20490102806D112203E4981F8F9
:105410008C0001E0002004903E48B0F8820005288E
:1054200003DB1320384981F88C00374890F88D0051
:10543000042834D1344890F89A0003282FDB3248EE
:10544000007801282BD1304890F88C000B2826DA00
:105450002D48B0F916002C49B1F97C1001EB8101FF
:1054600000EB41002849B1F94410884204DA0B20CE
:10547000254981F88C0044E02348B0F94410B0F984
:10548000180008442049B1F97C1001EB8101B0EB10
:10549000410F36DA0C201C4981F88C0031E01A48A3
:1054A00090F88C000B2814D11748B0F91600164953
:1054B000B1F97C1001EB810100EB41001249B1F917
:1054C000441088421DDB104800780F4981F88C0099
:1054D00017E00D4890F88C000C2812D10A48B0F95A
:1054E0004410B0F9180008440749B1F97C1001EBE9
:1054F0008101B0EB410F04DB03480078024981F8D9
:105500008C0000BFFFF70FBA843B00202639002033
:105510000C3E0020FC3700208AB04FF05A0800BF34
:1055200041F2883500264FF0000900270020069040
:1055300007900890099000248246834605900490C5
:105540000120039000BFFA490870FA49088700BF9C
:1055500012E04FF4FA6004F08DFEFDF73AFCFDF71F
:105560000CFF0798089006980790F148406F069046
:105570000BF1010000F0FF0BBBF10A0FE9DBEC4877
:10558000408BC0EB0010012101EB8000EA4908824A
:10559000E748B0F92200C0EB00104FF6FF7101EAB6
:1055A0008000E349A1F86C000846B0F86C00A1F84F
:1055B0009C00B1F9060002F091FCDD49C1F88000C1
:1055C0000846808B87B24FF47A7004F053FEFDE3F7
:1055D000DA4902AAC868002104F001F9D448B0F8F9
:1055E00048001FFA80F9FDF7F4FBD348C1698161D7
:1055F000CF48D0F88410D048C16100F121011430A7
:1056000001F0D4FF08980990079808900698079031
:10561000C748406F0690C648008970BB4FF6FF70C0
:10562000C349A1F86E0044F62060A1F89000084636
:10563000408BC0EB0010012101EB8000BE490882C5
:10564000BB48808B87B20021032001F01BFF0021A3
:10565000B748A0F84810FEF730FAFDF78EFE00209C
:10566000B34981F88D000021032001F0D3FE002111
:10567000AF48818200200390A9E7FFE70398B8B9FB
:10568000AB480078AA4981F88C000121032001F081
:10569000C1FEA748007801280AD10020A44908705B
:1056A000FEF76DF8A248007810B90120A0490870F3
:1056B0009F48007A03909E4A0699D2F88020881A63
:1056C00001D4014600E04142B1F57A7F03DD0020BC
:1056D000974981F89A009648007801287DD194482E
:1056E00090F88D0008BB9248406F00F6AC5090498E
:1056F000D1F88010884214DD04208D4981F88D0096
:105700000846D0F88000496F401A8949B1F926103F
:10571000484300EBD071019048100AF0B3FB824679
:1057200003E00120824981F88D00814890F88D00C6
:1057300001283ED18048008A40B340F2E3308742DE
:1057400002DA781D87B201E040F2E73739B27848D3
:10575000A0F848107848008A401E774908827448AB
:10576000406F42F2D87108447149D1F880108842E4
:1057700003DD00207049088208E06D48406F42F266
:105780001071884202DD00206B4908826A48008A55
:1057900078B96748808B87B26548D0F8840066493D
:1057A00008600220624981F88D000120624981F879
:1057B00020005F4890F88D0002287CD15E4890F868
:1057C0002000012824D15A48D0F884005A49096899
:1057D000441A5748D0F8800000E08DE204EB8401C1
:1057E000B0EB810F02DDB4F57A7F0CDB0220524969
:1057F00081F82000002048824EF6602048604C4826
:10580000D0F88400086040F2E7314948A0F8481019
:10581000494890F82000022857D100214448A0F8B8
:1058200048104548408A03284ADB4149D1F8841092
:10583000414A1268881A01D4014600E041423E4ABA
:10584000528A4DF2D8635A4392FBF1F43A484068C9
:10585000A04201DD3848446037484068A04208DB78
:10586000354890F8210020B1334890F821000228F3
:1058700026D12F48808A012802D100212C4881821C
:1058800004202B4981F88D0008202B4981F8200045
:10589000486808F0CFFA2649C884012081F89B00A7
:1058A0000846C08C2349A1F890000023A2220621BB
:1058B0001F48263000E008E007F003FB4FF0000A25
:1058C0001D48408A401C1C494882194890F88D00A8
:1058D00003281ED1184890F82000D8B91448D0F8F1
:1058E00080001749D1F88410884205DD40F2E73185
:1058F0000F48A0F8481003E000210D48A0F8481018
:105900000D4890F821000128E3D10B200A4981F8C5
:105910002000FAE00648D0F88010D0F884000A3061
:1059200081420FDD40F2E7310148A0F8481015E050
:10593000503C002026390020303E0020E83700206F
:10594000843B0020FD48D0F88410D0F880000A3055
:10595000814203DD0021F948A0F84810F84890F88A
:1059600020000A287EDDF64890F820000B2809D197
:10597000F34890F821000028CBD10C20F04981F8A1
:105980002000C2E0EE4890F820000C2809D1EC4835
:1059900090F821000128BCD10D20E94981F82000B0
:1059A000B3E0E74890F820000D2809D1E44890F8CA
:1059B00021000028ADD10E20E14981F82000A4E0AB
:1059C000DF4890F820000E280DD1DD4890F8210026
:1059D000012807D11020DA4981F82000D748D0F8F3
:1059E0008400C86091E0D64890F8200010287DD14E
:1059F000D34890F8210020B1D14890F82100022826
:105A000072D11120CE4981F820000021CB4881823B
:105A1000CC48A0F84810C948D0F88400C84988602C
:105A20000420C64981F88D00002081F89A00C44BFB
:105A3000DA689968588A08F028FAC049C884B1F928
:105A40002620BF49498A02EB410000EBD071C1F327
:105A50004F01BB4A51821046408A01B2B7480185C6
:105A6000114600E04DE0488AC11700EB91718910A2
:105A7000B24A5185B249488AC11700EB9171891029
:105A8000A0EB8101022905DD1046408D401C01B2CA
:105A900010464185A948C08CAA49A1F89000A748A2
:105AA000008DA1F89800A548408DA1F8A000012024
:105AB000A24981F89B000023A22206219F4826309C
:105AC00007F0FFF99D48D0F880009F49D1F8841075
:105AD000401A9A49B1F92610484300EBD071019061
