:020000040800F2
:10000000704E00200DD4000811D4000813D400084D
:1000100015D4000817D4000819D400080000000007
:100020000000000000000000000000001BD40008D9
:100030001DD4000800000000ABD30008F91100082F
:1000400023D4000823D4000823D4000823D40008B4
:1000500023D4000823D40008F575000823D4000831
:1000600023D4000823D4000823D400084D860008B8
:1000700023D4000823D4000823D4000823D4000884
:1000800023D4000823D4000823D4000823D4000874
:1000900023D4000823D4000823D4000823D4000864
:1000A00023D40008D975000823D4000823D40008FD
:1000B00081750008A1750008BD75000823D40008EB
:1000C00023D4000823D4000823D4000823D4000834
:1000D00023D400084112000823D4000823D40008C8
:1000E00023D4000823D4000823D4000800F002F829
:1000F00000F03AF80AA090E8000C82448344AAF188
:100100000107DA4501D100F02FF8AFF2090EBAE885
:100110000F0013F0010F18BFFB1A43F0010318473B
:10012000A01F0100C01F0100103A24BF78C878C189
:10013000FAD8520724BF30C830C144BF04680C60ED
:10014000704700000023002400250026103A28BF35
:1001500078C1FBD8520728BF30C148BF0B60704739
:100160001FB51FBD10B510BD0EF01CFD1146FFF7E9
:10017000F7FF02F0B9FC0EF03AFD03B4FFF7F2FF0F
:1001800003BC0EF03BFD00001CB500210020002246
:1001900000920192F74A92F89A20032A04DAF54A6B
:1001A000B2F8A020002A72DDF24AB2F8A0100AE0EC
:1001B0004A1EF04BA23333F81230EE4AA23222F834
:1001C00011304A1E91B20029F2DCEA4A92F89A20D4
:1001D000032A74DBE74AB2F8A0200A2A06DAE54AC5
:1001E000B2F8A020521CE34BA3F8A020E14AB2F9D8
:1001F000062002EB82025000DE4AB2F85020121AAA
:1002000012B2ADF80020DB4AB2F8A0200A2A57D17A
:10021000BDF90020322A09DDBDF80020323A12B2C1
:10022000ADF804203222ADF8002012E0BDF9002024
:1002300012F1320F0ADABDF80020323212B2ADF8F4
:1002400004206FF03102ADF8002002E00022ADF88A
:100250000420BDF90020092A09DBBDF80020093A75
:1002600012B2ADF802200922ADF8002013E0BDF96A
:10027000002012F1090F0BDCBDF80020093212B288
:10028000ADF802206FF00802ADF8002003E0A7E00F
:100290000022ADF80220BDF90030032493FBF4F3F3
:1002A0000344BDF9022002EBD27403EB6403BDF8F2
:1002B000044023441BB2AF4CA4F8A2300AE01EE075
:1002C000BDF9002002EBD27300EB63031BB2A94C13
:1002D000A4F8A2300020002106E0A64AA23232F99A
:1002E000112010444A1C91B2A24AB2F8A0208A42BE
:1002F000F3DCA04AB2F8A02090FBF2F025E09D4A82
:10030000B2F8A020002A20DD9A4AB2F85020994B7A
:10031000A3F8A2200020002106E0964AA23232F97A
:10032000112010444A1C91B2924AB2F8A0208A428D
:10033000F3DC904AB2F8A02090FBF2F08D4AB2F8BC
:10034000A020521E8B4BA3F8A0208A4A928932B17A
:1003500000EBC002052392FBF3F202F5A070854A80
:100360009289CAB941F2883290420ADD0020814A5E
:1003700092F88C200B2A28DA0D227E4B83F88C20F1
:1003800023E07C4A92F88C200D2A1ED1794A1278FB
:10039000784B83F88C2018E042F2684290420ADDE4
:1003A0000020744A92F88C200D2A0EDA0D22714B2F
:1003B00083F88C2009E06F4A92F88C200D2A04D132
:1003C0006C4A12786B4B83F88C20002804DD02B253
:1003D000684BA3F8442003E00022664BA3F84420B6
:1003E0001CBD1CB500210020002200920192624A2F
:1003F00092F89A20032A04DA5F4AB2F8A020002A71
:1004000072DD5D4AB2F8A0100AE04A1E5A4BA233D0
:1004100033F81230584AA23222F811304A1E91B2F3
:100420000029F2DC544A92F89A20032A74DB524ADB
:10043000B2F8A0200A2A06DA4F4AB2F8A020521CCD
:100440004D4BA3F8A0204C4AB2F9062002EB8202E1
:100450005000494AB2F85020121A12B2ADF80020EA
:10046000454AB2F8A0200A2A57D1BDF90020322A05
:1004700009DDBDF80020323A12B2ADF80420322274
:10048000ADF8002012E0BDF9002012F1320F0ADAB7
:10049000BDF80020323212B2ADF804206FF0310204
:1004A000ADF8002002E00022ADF80420BDF90020E4
:1004B000092A09DBBDF80020093A12B2ADF8022082
:1004C0000922ADF8002013E0BDF9002012F1090F58
:1004D0000BDCBDF80020093212B2ADF802206FF03B
:1004E0000802ADF8002003E0BCE00022ADF80220D5
:1004F000BDF90030032493FBF4F30344BDF902205B
:1005000002EBD27403EB6403BDF8044023441BB236
:10051000194CA4F8A2300AE01EE0BDF9002002EB5D
:10052000D27300EB63031BB2134CA4F8A23000207B
:10053000002106E0104AA23232F9112010444A1C70
:1005400091B20D4AB2F8A0208A42F3DC0A4AB2F80E
:10055000A02090FBF2F02CE0074AB2F8A020002A7D
:1005600027DD054AB2F85020034BA3F8A220002053
:10057000002109E0B83A0020843B0020F94A32F912
:10058000112010444A1C91B2F64AA23AB2F8A020B7
:100590008A42F3DCF34AA23AB2F8A02090FBF2F0D0
:1005A000F04AA23AB2F8A020521EEE4BA23BA3F8AA
:1005B000A020EC4AA23A928932B100EBC002052396
:1005C00092FBF3F202F5A070E64AA23A9289F2B9E0
:1005D00041F2883290420CDD0020E24AA23A92F8C1
:1005E0008C200D2A31DA0D22DE4BA23B83F88C20C1
:1005F0002BE0DC4AA23A92F88C200D2A25D1D94A68
:10060000A23A1278D74BA23B83F88C201DE042F22D
:10061000684290420CDD0020D24AA23A92F88C2027
:100620000D2A12DA0D22CF4BA23B83F88C200CE06E
:10063000CC4AA23A92F88C200D2A06D1C94AA23A95
:100640001278C84BA23B83F88C20002805DD02B24B
:10065000C44BA23BA3F8442004E00022C14BA23BC0
:10066000A3F844201CBD1CB50021002000220092EC
:100670000192BD4A92F89A20032A04DABA4AB2F8E3
:10068000A020002A72DDB84AB2F8A0100AE04A1E83
:10069000B54BA23333F81230B34AA23222F81130EC
:1006A0004A1E91B20029F2DCAF4A92F89A20032A3E
:1006B00074DBAD4AB2F8A0200A2A06DAAA4AB2F8D8
:1006C000A020521CA84BA3F8A020A74AB2F90620EC
:1006D00002EB82025000A44AB2F85020121A12B261
:1006E000ADF80020A04AB2F8A0200A2A57D1BDF9DF
:1006F0000020322A09DDBDF80020323A12B2ADF8EE
:1007000004203222ADF8002012E0BDF9002012F1E1
:10071000320F0ADABDF80020323212B2ADF80420EE
:100720006FF03102ADF8002002E00022ADF80420A5
:10073000BDF90020092A09DBBDF80020093A12B2F0
:10074000ADF802200922ADF8002013E0BDF9002029
:1007500012F1090F0BDCBDF80020093212B2ADF81E
:1007600002206FF00802ADF8002003E0A7E00022AD
:10077000ADF80220BDF90030032493FBF4F30344E9
:10078000BDF9022002EBD27403EB6403BDF8044010
:1007900023441BB2744CA4F8A2300AE01EE0BDF959
:1007A000002002EBD27300EB63031BB26E4CA4F883
:1007B000A2300020002106E06B4AA23232F911205B
:1007C00010444A1C91B2684AB2F8A0208A42F3DC75
:1007D000654AB2F8A02090FBF2F025E0624AB2F838
:1007E000A020002A20DD604AB2F850205E4BA3F81A
:1007F000A2200020002106E05B4AA23232F911203B
:1008000010444A1C91B2584AB2F8A0208A42F3DC44
:10081000554AB2F8A02090FBF2F0534AB2F8A0205B
:10082000521E514BA3F8A0204F4A928932B100EBDF
:10083000C002052392FBF3F202F5A0704A4A9289A6
:10084000CAB941F2883290420ADD0020464A92F845
:100850008C200D2A28DA0D22434B83F88C2023E0CC
:10086000414A92F88C200D2A1ED13F4A12783E4B05
:1008700083F88C2018E042F2684290420ADD0020A2
:10088000394A92F88C200D2A0EDA0D22364B83F865
:100890008C2009E0344A92F88C200D2A04D1324A87
:1008A0001278314B83F88C20002804DD02B22E4BE5
:1008B000A3F8442003E000222B4BA3F844201CBDE6
:1008C0001CB500210020002200920192274A92F8D4
:1008D0009A20032A04DA254AB2F8A020002A78DDFB
:1008E000224AB2F8A0100AE04A1E204BA23333F885
:1008F00012301E4AA23222F811304A1E91B200294B
:10090000F2DC1A4A92F89A20032A7ADB174AB2F8E4
:10091000A0200A2A06DA154AB2F8A020521C134B6E
:10092000A3F8A020114AB2F9062002EB820250007F
:100930000E4AB2F85020121A12B2ADF800200B4A3B
:10094000B2F8A0200A2A5DD1BDF90020322A0FDDBD
:10095000BDF80020323A12B2ADF804203222ADF8D0
:10096000002018E0263C0020503C00201C3D0020C8
:10097000BDF9002012F1320F0ADABDF80020323240
:1009800012B2ADF804206FF03102ADF8002002E0A1
:100990000022ADF80420BDF90020092A09DBBDF8CA
:1009A0000020093A12B2ADF802200922ADF8002069
:1009B00013E0BDF9002012F1090F0BDCBDF8002097
:1009C000093212B2ADF802206FF00802ADF8002033
:1009D00003E0A7E00022ADF80220BDF900300324B7
:1009E00093FBF4F30344BDF9022002EBD27403EB52
:1009F0006403BDF8044023441BB2F84CA4F8A230B1
:100A00000AE01EE0BDF9002002EBD27300EB6303A5
:100A10001BB2F24CA4F8A2300020002106E0EF4AFD
:100A2000A23232F9112010444A1C91B2EB4AB2F8BA
:100A3000A0208A42F3DCE94AB2F8A02090FBF2F051
:100A400025E0E64AB2F8A020002A20DDE34AB2F809
:100A50005020E24BA3F8A2200020002106E0DF4A4C
:100A6000A23232F9112010444A1C91B2DB4AB2F88A
:100A7000A0208A42F3DCD94AB2F8A02090FBF2F021
:100A8000D64AB2F8A020521ED44BA3F8A020D34AD5
:100A9000928932B100EBC002052392FBF3F202F51A
:100AA000A070CE4A9289CAB941F2883290420ADDDA
:100AB0000020CA4A92F88C200D2A28DA0D22C74B52
:100AC00083F88C2023E0C54A92F88C200D2A1ED191
:100AD000C24A1278C14B83F88C2018E042F2684277
:100AE00090420ADD0020BD4A92F88C200D2A0EDAD1
:100AF0000D22BA4B83F88C2009E0B84A92F88C207A
:100B00000D2A04D1B54A1278B44B83F88C20002802
:100B100004DD02B2B14BA3F8442003E00022AF4B46
:100B2000A3F844201CBD10B50BF014FA4FF480302C
:100B30000BF02FFA0BF06CFA01282BD110200AF0E1
:100B400003FC02200AF0EAFB00200BF0AAFA4FF4A3
:100B5000E0600BF0B8FA4FF4E0600BF0ABFA4FF442
:100B60000021C8100BF080FA01200BF089FA4FF435
:100B700080400BF0C2FA00BF39200BF02DFA00289C
:100B8000FAD002200BF07FFA00BF0BF085FA08289C
:100B9000FBD101E000BFFEE700200BF0B7FA10BD6B
:100BA00008B502208DF80200FF20ADF800000020FB
:100BB0008DF8030069468A480AF0B0FE4FF4806061
:100BC000ADF8000004208DF80300694684480AF05F
:100BD000A5FE4FF40070ADF8000018208DF803005A
:100BE00069467F480AF09AFE4FF47940ADF800005C
:100BF00028208DF80300694679480AF08FFE40F6F8
:100C00000740ADF8000004208DF8030069467548E0
:100C10000AF084FEE020ADF8000014208DF80300F7
:100C2000694670480AF07AFE4FF4E040ADF80000E3
:100C300010208DF8030069466A480AF06FFE48F2FA
:100C40001830ADF8000028208DF80300694665488B
:100C50000AF064FE0120ADF8000000208DF80300CA
:100C6000694661480AF05AFE3E20ADF8000048206F
:100C70008DF8030069465C480AF050FE4FF4FE50C0
:100C8000ADF8000010208DF80300694656480AF0C0
:100C900045FE4FF46040ADF8000048208DF8030099
:100CA000694651480AF03AFE0420ADF800001020D1
:100CB0008DF8030069464D480AF030FE4FF400718C
:100CC00047480AF0D5FE47F2E00146480AF0D0FE58
:100CD0004FF4FE5144480AF0CDFE042143480AF087
:100CE000C9FE08BD00B585B025208DF81000002094
:100CF0008DF811008DF8120001208DF813004FF4CB
:100D0000164000900020ADF80400ADF80600ADF8E4
:100D10000800ADF80C0004A80AF075FF69463448D5
:100D20000CF075F9012132480CF0DFF9012240F294
:100D300025512F480CF0E5F9012240F227712C488B
:100D40000CF0DFF905B000BD1FB519208DF80C00BF
:100D500000208DF80D008DF80E0001208DF80F0099
:100D600003A80AF050FF44F62060ADF80400052007
:100D7000ADF800000020ADF80200ADF806008DF8D7
:100D8000080069461B480BF08EFB002119480BF048
:100D900011FF1848008840F00C0016490880012116
:100DA00014480CF0E8F80122114612480BF01CFE22
:100DB0001FBD40B10E490C31098841F008010C4AB1
:100DC0000C32118008E00A490C3109884FF6F7729D
:100DD0001140074A0C321180704700001C3D002072
:100DE00000080140000C01400010014000140140C7
:100DF00000380140002C014030B1F849098841F029
:100E00000401F64A118006E0F44909884FF6FB72A6
:100E10001140F24A118070471FB51C208DF80C005C
:100E200000208DF80D008DF80E0001208DF80F00C8
:100E300044F62060ADF804000520ADF80000002065
:100E4000ADF80200ADF8060003A80AF0DCFE694622
:100E50004FF080400BF027FB00214FF080400BF05B
:100E6000A9FE4FF08040008840F00C004FF0804118
:100E70000880012188070CF07EF8012211469007B6
:100E80000BF0B2FD1FBD1FB51D208DF80C0000201A
:100E90008DF80D008DF80E0001208DF80F0044F63E
:100EA0002060ADF804000520ADF800000020ADF88A
:100EB0000200ADF8060003A80AF0A5FE6946C8487E
:100EC0000BF0F1FA0021C6480BF074FEC44800880C
:100ED00040F00C00C24908800121C1480CF04BF8D9
:100EE00001221146BE480BF07FFD1FBD10B50A461A
:100EF000FF23BC4C237063700FE010F8013BB94C2A
:100F0000247883EA0401B74B5B78B74C645C634098
:100F1000B44C2370B54B5B5C63701300A2F101020B
:100F2000EBD110BD10B50446AE4804723930AD495E
:100F30004860052009F058FDAA4840680178A94892
:100F40004068401CA74B5860A4480C380CF035F999
:100F50001420FFF72EFF10BD2DE9F0470546884607
:100F600017461C46DDF8209000269E4880F8398000
:100F700080F83A70062F1FD1002180F83B1080F8CE
:100F80003C40601C84B235F814000112954880F88A
:100F90003D1015F8141080F83E1006213930FFF787
:100FA000A5FF9048017880F83F10417880F8401004
:100FB0000820FFF7B7FF3FE04FEA4960010E89487C
:100FC00080F83B1015E035F8140002123046711C11
:100FD000CEB2C01C834939310A542046611C8CB200
:100FE00015F810203046711CCEB2C01C7D49393135
:100FF0000A545FEA0900A9F1010101F0FF09E2D1F9
:10100000784890F83B00C11C76483930FFF76EFFF6
:10101000744802783046711CCEB2C01C7149393117
:101020000A5470484278F01C0A54393991F83B1040
:10103000491DC8B2FFF776FFBDE8F0871FB51E2037
:101040008DF80C0000208DF80D008DF80E000120A9
:101050008DF80F0044F62060ADF804000520ADF8CF
:1010600000000020ADF80200ADF8060003A80AF069
:10107000CAFD69465E480BF016FA00215C480BF089
:1010800099FD5B48008840F00C0059490880012117
:1010900057480BF070FF0122114655480BF0A4FC95
:1010A0001FBD10B54FF496500BF044F904200BF01F
:1010B0002DF901200BF042F901200BF05AF910BD77
:1010C0000EB501200AF021F9002101200AF029FDC6
:1010D0000120019000208DF808000C208DF80900F7
:1010E00001208DF80A0001A80AF094F801208DF87B
:1010F000030000208DF8010001208DF80200062079
:101100008DF8000068460AF07EFD0EBD00B585B082
:101110000020009001208DF804008DF805004FF4A8
:10112000602002900020039009208DF8100069468D
:10113000304809F058FD0623012200212D4809F00E
:10114000EAFD0623022201212A4809F0E4FD0623D4
:1011500003220221274809F0DEFD06230422032191
:10116000244809F0D8FD062305220421214809F06E
:10117000D2FD06231A4605211E4809F0CCFD0623A0
:10118000072219461B4809F0C6FD0623082207213D
:10119000184809F0C0FD062309220A21154809F064
:1011A000BAFD0121134809F04AFD0121114809F057
:1011B00051FD104809F065FD00BF0E4809F066FDBD
:1011C0000028FAD10B4809F06BFD00BF094809F06F
:1011D0006CFD0028FAD105B000BD00000C380140BC
:1011E00000040040783E0020660B0108660C0108F0
:1011F000000800400024014010B58E480078401CD3
:101200008C4908708C48B0F87E0041F288318842E1
:1012100006DA8948B0F87E00401C8749A1F87E00B4
:101220008648408944F62061884204DA8348408930
:10123000401C8249488107F00FFF07F012FE10BDE5
:1012400070B50CF091F8054640F225517C480CF041
:1012500017F800283CD07A480BF0B3FFC4B27748A7
:101260004089052805DD754844740020734948729B
:1012700010E07248407A0A2804DA7048407A401C2C
:101280006E4948726D48407A082803DA6B48417A03
:10129000113044540020694948810846407A0728A3
:1012A00016D10846407C64490978884203D06348D7
:1012B000407C1E280CD16148C07C48B9012006F052
:1012C00081FC00205D4948725E49086808F0F6FE1E
:1012D00040F227715A480BF0D3FFB0B15748017A5A
:1012E000007A401E554A107200290BDD10464068F6
:1012F000017810464068401C1346586050480BF077
:101300005CFF02E00020FFF754FD28460CF030F8A7
:1013100070BD00B58DB04C4809F050FE4B480290AE
:1013200045482430039000200490092005900020B7
:1013300006908020079040000890800009902020AF
:101340000A9000020B9000200C9002A93E4809F080
:10135000CEFE0B208DF8040001208DF805008DF8DD
:1013600006008DF8070001A80AF04DFC01220221B9
:10137000354809F0F2FE0121334809F0E3FE0DB0D3
:1013800000BD10B54FF4FE5131480AF073FB4FF425
:10139000E04130480AF06CFB04212F480AF06AFB58
:1013A000FFF7C1FB01214FF6FD700AF03FFFFFF789
:1013B000F7FB012108460AF02CFF012108460AF03C
:1013C00042FF012102200AF03EFF012104200AF021
:1013D0003AFFFFF7B9FCFFF71FFDFFF754FDFFF7DA
:1013E0002DFE10BD45F255521C4B1A601A46506036
:1013F00091604AF6AA221A604CF6CC421A607047F5
:101400002DE9F0410546002400260BF0ADFF07460C
:101410002C79687900EB042084B2E878104931F81F
:101420001060E87821F81040E878801E862880F067
:10143000F28717E01D000020FC370020783E0020D6
:1014400000380140E8370020080002404C240140E9
:1014500000100140000C0140001401400030004029
:1014600026390020830000BF7B445B689F44000056
:10147000180200007C020000DE02000040030000B1
:10148000A2030000E80300002E0400007404000022
:10149000BA040000CE040000E2040000F6040000DC
:1014A0000A0500004E05000092050000D605000068
:1014B0002E06000042060000560600006A060000E4
:1014C0007E06000092060000A6060000BA06000094
:1014D000CE060000360700009E0700000608000048
:1014E000A60F0000A60F0000A60F0000A60F000028
:1014F0006E0800008208000096080000AA0800009C
:10150000BE080000D2080000E6080000FA0800004B
:101510000E09000022090000360900004A090000F7
:101520005E0900008A090000B6090000E209000017
:10153000260A00003A0A00004E0A0000620A000073
:10154000760A00008A0A00009E0A0000B20A000023
:10155000C60A0000DA0A0000EE0A0000020B0000D2
:10156000160B00002A0B00003E0B0000520B00007F
:10157000660B00007A0B00008E0B0000A20B00002F
:10158000B60B0000CA0B0000DE0B0000F20B0000DF
:10159000060C00001A0C00002E0C0000420C00008B
:1015A000560C00006A0C00007E0C0000920C00003B
:1015B000A60C0000AC0C0000B20C0000B80C00003F
:1015C000BE0C0000D20C0000E60C0000FA0C00007B
:1015D0000E0D0000100D0000220D0000240D000073
:1015E000380D00004C0D0000600D0000740D00006F
:1015F000A60F0000A60F0000A60F0000A60F000017
:10160000A60F0000A60F0000A60F0000A60F000006
:10161000A60F0000A60F0000A60F0000A60F0000F6
:10162000880D0000A00D0000B60D0000CC0D0000DC
:10163000E20D0000F80D0000240E00003A0E00003C
:10164000500E0000A60F0000660E00007A0E00008B
:101650008E0E0000A20E0000B60E0000D20E00009A
:10166000EE0E00000A0F0000260F00003A0F0000E7
:101670004E0F0000620F0000760F0000820F000086
:101680008E0F00009A0F000020B2F849A1F87C00EC
:101690000846808938B1A4F1200000EB80000921C0
:1016A00090FBF1F084B2F1480078022807D1642061
:1016B0006043EE49B1F9241090FBF1F084B20020B0
:1016C000EA4981F89A0021B2E848C1800023022249
:1016D0001146801D0BF0AFFFE449B1F9060006F09A
:1016E000B2FFE249C1F8800000F096BE20B2E049A6
:1016F000A1F87C000846808938B1A4F1200000EBF5
:101700008000092190FBF1F084B2D94800780228CA
:1017100007D164206043D649B1F9241090FBF1F061
:1017200084B20020D24981F89A0021B2D048C18009
:10173000002342220221801D0BF07DFFCC49B1F92C
:10174000060006F080FFCA49C1F88000CCE720B24D
:10175000C849A1F87C000846808938B1A4F120006E
:1017600000EB8000092190FBF1F084B2C1480078C1
:10177000022807D164206043BE49B1F9241090FBD0
:10178000F1F084B20020BB4981F89A0021B2B94837
:10179000C180002382220221801D0BF04CFFB5493D
:1017A000B1F9060006F04FFFB249C1F880009BE78F
:1017B00020B2B149A1F87C000846808938B1A4F173
:1017C000200000EB8000092190FBF1F084B2AA48D0
:1017D0000078022807D164206043A749B1F924109A
:1017E00090FBF1F084B20020A34981F89A0021B265
:1017F000A148C1800023C2220221801D0BF01BFFE3
:101800009D49B1F9060006F01EFF9B49C1F8800012
:101810006AE704F0010474B128781E280BD19348BC
:1018200090F88E0018B921B29048018106E031B2DB
:101830008E48018102E021B28C4801818B480089E9
:10184000E9788E4A22F811000023042202218748F9
:1018500008300BF0F0FE47E704F0010474B128787B
:101860001E280BD1824890F88E0018B921B280480A
:10187000018106E031B27E48018102E021B27C485C
:1018800001817B480089E9787C4A22F81100002315
:1018900044220221764808300BF0CDFE24E704F004
:1018A000010474B128781E280BD1724890F88E007C
:1018B00018B921B26F48018106E031B26D4801814B
:1018C00002E021B26B4801816A480089E9786B4ADD
:1018D00022F81100002384220221664808300BF010
:1018E000AAFE01E704F0010474B128781E280BD188
:1018F000614890F88E0018B921B25F48018106E076
:1019000031B25D48018102E021B25B4801815A4851
:101910000089E978594A22F811000023C4220221E3
:10192000554808300BF087FEDEE621B24F48418172
:101930000023062202210A300BF07DFED4E621B2FC
:101940004B4841810023462202210A300BF073FEEE
:10195000CAE621B2474841810023862202210A308B
:101960000BF069FEC0E621B2434841810023C62244
:1019700002210A300BF05FFEB6E621B23B488181BE
:1019800074B1B0F9060000EBC000052190FBF1F046
:10199000203000B23549A1F87C003849888006E043
:1019A0003248C0883149A1F87C003449888000233E
:1019B000082202212D480C300BF03DFE94E621B2A6
:1019C0002B48818174B1B0F9060000EBC0000521FD
:1019D00090FBF1F0203000B22549A1F87C002749A6
:1019E000C88006E02248C0882149A1F87C0023492C
:1019F000C8800023482202211D480C300BF01BFE3A
:101A000072E621B21B48818174B1B0F9060000EB87
:101A1000C000052190FBF1F0203000B21549A1F87B
:101A20007C001649088106E01248C0881149A1F8D7
:101A30007C00124908810023882202210D480C30C5
:101A40000BF0F9FD50E621B20B488181C4B1B0F929
:101A5000060000EBC000052190FBF1F0203000B241
:101A60000549A1F87C000549488110E0B83A0020FA
:101A7000843B0020503C00201C3D002026390020E3
:101A8000FE48C088FD49A1F87C00FD49488100233B
:101A9000C8220221F9480C300BF0CDFD24E621B21A
:101AA000F848C18100230A2202210E300BF0C3FD49
:101AB0001AE621B2F448C18100234A2202210E30E5
:101AC0000BF0B9FD10E621B2F048C18100238A2253
:101AD00002210E300BF0AFFD06E621B2E748C181CE
:101AE0000023CA2202210E300BF0A5FDFCE521B235
:101AF000E448018200230C22022110300BF09BFDF0
:101B0000F2E521B2E048018200234C22022110308C
:101B10000BF091FDE8E521B2DC48018200238C2224
:101B2000022110300BF087FDDEE521B2D34801829F
:101B30000023CC22022110300BF07DFDD4E5022CD5
:101B40001AD1D048007802280FD0CE48B0F97C00D6
:101B5000CC49B1F924104843642190FBF1F000B264
:101B6000C849A1F87C00C6498880C648B0F86C0016
:101B7000C449A1F89C0013E0C248007802280FD1A4
:101B8000C048B0F97C0064214843BE49B1F9241033
:101B900090FBF1F000B2BB49A1F87C00B849888005
:101BA000B8490C70A0E5022C1AD1B7480078022879
:101BB0000FD0B548B0F97C00B349B1F924104843BF
:101BC000642190FBF1F000B2AF49A1F87C00AC4970
:101BD000C880AD48B0F86C00AB49A1F89C0013E098
:101BE000A948007802280FD1A748B0F97C006421E9
:101BF0004843A549B1F9241090FBF1F000B2A24985
:101C0000A1F87C009E49C8809F490C706CE5022CAD
:101C10001AD19E48007802280FD09C48B0F97C0069
:101C20009A49B1F924104843642190FBF1F000B2C5
:101C30009649A1F87C00924908819448B0F86C005C
:101C40009249A1F89C0013E09048007802280FD137
:101C50008E48B0F97C00642148438C49B1F92410C6
:101C600090FBF1F000B28949A1F87C008449088119
:101C700086490C70D0E3022C1AD1804800780228E3
:101C80000FD07E48B0F97C007C49B1F9241048435C
:101C9000642190FBF1F000B27849A1F87C0078490A
:101CA00048817648B0F86C007449A1F89C0013E0B4
:101CB0007248007802280FD17048B0F97C00642186
:101CC00048436E49B1F9241090FBF1F000B26B4922
:101CD000A1F87C006A49488168490C709CE321B2F4
:101CE0006848818200231022022114300BF0A3FCEB
:101CF00092E321B2644881820023502202211430F1
:101D00000BF099FC88E321B2604881820023902285
:101D1000022114300BF08FFC7EE321B25748818200
:101D20000023D022022114300BF085FC74E321B291
:101D30005448C18200231222022116300BF07BFC92
:101D40006AE321B25048C182002352220221163098
:101D50000BF071FC60E321B24C48C1820023922257
:101D6000022116300BF067FC56E321B24348C182D2
:101D70000023D222022116300BF05DFC4CE321B28D
:101D80004048018300231422022118300BF053FC39
:101D900042E321B23C48018300235422022118303F
:101DA0000BF049FC38E321B2384801830023942228
:101DB000022118300BF03FFC2EE321B22F480183A3
:101DC0000023D422022118300BF035FC24E321B289
:101DD0002C484184B0F92200C0EB00104FF6FF718F
:101DE00001EA80002749A1F86C0000231E2202218D
:101DF000244822300BF01FFC0EE321B2224841841C
:101E0000B0F92200C0EB00104FF6FF7101EA80002C
:101E10001D49A1F86C0000235E2202211A482230DD
:101E20000BF009FCF8E221B218484184B0F9220015
:101E3000C0EB00104FF6FF7101EA80001349A1F8D2
:101E40006C0000239E220221104822300BF0F3FB8D
:101E5000E2E221B209484184B0F92200C0EB00104F
:101E60004FF6FF7101EA80000449A1F86C000023DD
:101E7000DE220221014822300AE000001C3D002041
:101E800026390020B83A0020843B0020503C002036
:101E90000BF0D1FBC0E221B2F9488184002320225B
:101EA000022124300BF0C7FBB6E221B2F548818451
:101EB00000236022022124300BF0BDFBACE221B2F2
:101EC000F14881840023A022022124300BF0B3FBCF
:101ED000A2E221B2ED4881840023E02202212430D5
:101EE0000BF0A9FB98E221B2E548C18300231A2236
:101EF00002211E300BF09FFB8EE221B2E148C1832C
:101F000000235A2202211E300BF095FB84E221B2FD
:101F1000DD48C18300239A2202211E300BF08BFB87
:101F20007AE221B2D948C1830023DA2202211E308D
:101F30000BF081FB70E221B2D148018400231C2206
:101F4000022120300BF077FB66E221B2CD480184FC
:101F500000235C22022120300BF06DFB5CE221B2F9
:101F6000C948018400239C22022120300BF063FB2E
:101F700052E221B2C54801840023DC220221203034
:101F80000BF059FB48E221B2BD48418300231622E1
:101F900002211A300BF04FFB3EE221B2B9484183D7
:101FA0000023562202211A300BF045FB34E221B205
:101FB000B54841830023962202211A300BF03BFBE7
:101FC0002AE221B2B14841830023D62202211A30ED
:101FD0000BF031FB20E221B2A948818300231822B3
:101FE00002211C300BF027FB16E221B2A5488183A9
:101FF0000023582202211C300BF01DFB0CE221B201
:10200000A14881830023982202211C300BF013FB8E
:1020100002E221B29D4881830023D82202211C3094
:102020000BF009FBF8E121B29548C184002322227C
:10203000022126300BF0FFFAEEE121B29148C18473
:1020400000236222022126300BF0F5FAE4E121B2EE
:102050008D48C1840023A222022126300BF0EBFA26
:10206000DAE121B28948C1840023E222022126302C
:102070000BF0E1FAD0E121B281480185002324224E
:10208000022128300BF0D7FAC6E121B27D48018544
:1020900000236422022128300BF0CDFABCE121B2EA
:1020A000794801850023A422022128300BF0C3FACD
:1020B000B2E121B2754801850023E42202212830D3
:1020C0000BF0B9FAA8E121B26D4841850023262220
:1020D00002212A300BF0AFFA9EE121B26948418516
:1020E0000023662202212A300BF0A5FA94E121B2E6
:1020F000654841850023A62202212A300BF09BFA75
:102100008AE121B2614841850023E62202212A307A
:102110000BF091FA80E15A4844807DE159484480AF
:102120007AE15948448077E15848448074E121B20B
:10213000534881850023282202212C300BF07BFAA2
:102140006AE121B24F4881850023682202212C30A8
:102150000BF071FA60E121B24B4881850023A8227F
:1021600002212C300BF067FA56E121B247488185F5
:102170000023E82202212C300BF05DFA4CE14BE108
:102180004348448000236A220221801C0BF053FA4A
:1021900042E141E121B23D48C1850023EA2202210A
:1021A0002E300BF048FA37E121B235480186002382
:1021B0002C22022130300BF03EFA2DE121B23148C1
:1021C000018600236C22022130300BF034FA23E127
:1021D00021B22D4801860023AC22022130300BF0C1
:1021E0002AFA19E121B2294801860023EC220221B2
:1021F00030300BF020FA0FE120B22549888000230F
:102200004FF4807202212248001D0BF014FA03E102
:1022100021B21F48C18000234FF481720221801D2A
:102220000BF009FAF8E021B21948018100234FF4BC
:102230008272022108300BF0FEF9EDE021B2144861
:10224000418100234FF4837202210A300BF0F3F92D
:10225000E2E021B20E48818100234FF48472022112
:102260000C300BF0E8F9D7E021B20948C181002316
:102270004FF4857202210E300BF0DDF9CCE0000046
:10228000B83A0020843B0020503C00201C3D002038
:10229000FC37002021B2F948018200234FF48672F6
:1022A000022110300BF0C7F9B6E021B2F3484182A9
:1022B00000234FF48772022112300BF0BCF9ABE01F
:1022C00021B2EE48818200234FF48872022114303B
:1022D0000BF0B1F9A0E021B2E948418600232E229B
:1022E000022132300BF0A7F996E021B2E548418691
:1022F00000236E22022132300BF09DF98CE021B2D6
:10230000E14841860023AE22022132300BF093F9DE
:1023100082E021B2DD4841860023EE2202213230E4
:102320000BF089F978E021B2D548818688B2D84986
:102330000880002330220221D14834300BF07BF991
:102340006AE021B2CF48818688B2D14988800023D3
:1023500070220221CB4834300BF06DF95CE021B2E1
:10236000C948818688B2CA4908810023B022022167
:10237000C54834300BF05FF94EE021B2C348818686
:1023800088B2C34988810023F0220221BF4834303B
:102390000BF051F940E021B2B948C1860023322246
:1023A000022136300BF047F936E021B2B548C1863C
:1023B00000237222022136300BF03DF92CE021B2CD
:1023C000B148C1860023B222022136300BF033F926
:1023D00022E021B2AD48C1860023F222022136302C
:1023E0000BF029F918E0AA484480AA48A0F808414F
:1023F00012E0A748C480A748A0F80A410CE0A4480E
:102400004481A448A0F80C4106E0A148C481A14839
:10241000A0F80E4100E000BF00BF38460AF0A8FF58
:10242000BDE8F0811FB5002400BF1420FEF7E4FCD6
:1024300055209849A1F804014AF60A70A1F806014E
:1024400096E0954903AA0868002107F082FD002460
:1024500008E09248005D01A9085500218F48015508
:10246000601CC4B2082CF4DB062101A8FEF73EFD77
:102470008A48113800789DF80A10884278D1874838
:10248000113840789DF80B10884271D19DF80700F3
:10249000401CC0B28DF807009DF80500032824D128
:1024A0009DF804007549097888420BD19DF8090010
:1024B00000909DF807307148017803227548FEF7B7
:1024C0004BFD55E06D480078012851D19DF804007E
:1024D0001E284DD19DF8090000909DF80730032279
:1024E0001E216C48FEF738FD42E09DF805000428E7
:1024F0000BD19DF8090000909DF807305F480178E6
:1025000004226748FEF728FD32E09DF80500062802
:102510002ED19DF804001E2815D10AF025FF05468E
:1025200000240AE001A8FEF76BFF9DF80700401C9D
:10253000C0B28DF80700601CC4B2042CF2DB284640
:102540000AF016FF14E09DF804004C49097888420F
:102550000ED101A8FEF754FF012000909DF807005E
:10256000401E83B24548017806224A48FEF7F4FC33
:1025700067E786B0142101A80CF0D6FA00BF47F235
:10258000305005F07DFA05F026FCFEF799FDFEF7C8
:10259000C0FEFEF7BBFDFEF784FDFEF7A3FB0024A3
:1025A00009E000213548483040F82410243020F854
:1025B0001410601CC4B2092CF3DB0121394808F067
:1025C0007EFB05F0DCFF012007F034FC3249086097
:1025D000002007F02FFC30494860002007F02AFC5B
:1025E0002D498860002007F025FC2B49C860002099
:1025F00007F020FC2849086105232B4A00212B48BD
:1026000007F0A4FE06232A4A00212A4807F09EFE6E
:102610000723294A0021294807F098FE0823284A61
:102620000021284807F092FE0423274A0021AFF238
:102630000B2007F08BFE40F252310420FEF7D2FE51
:102640003DE201A800F064FAFDF79EFDFDF7C9FE2A
:10265000FEF709F8FEF734F91C48006810F4006F23
:1026600036D00648B0F88000322835DA0348B0F892
:102670008000401C0149A1F880002DE0FC370020BB
:10268000B83A0020843B0020503C00201C3D002034
:102690007C3F002026390020E8370020893E0020BA
:1026A000D63800200024014004090020AF3E000875
:1026B0009C110020774C0008341A0020155A00089D
:1026C000CC220020C7670008DC300020080C014045
:1026D0000020FB49A1F88000FA48006810F4806FE0
:1026E0000CD0F748B0F8820032280BDAF448B0F882
:1026F0008200401CF249A1F8820003E00020F0496A
:10270000A1F88200EF48006810F0040F0CD0EC48EC
:10271000B0F8840032280BDAE948B0F88400401C95
:10272000E749A1F8840003E00020E549A1F884000E
:10273000E448006810F0020F0CD0E148B0F88600C1
:1027400032280BDADE48B0F88600401CDC49A1F8DC
:10275000860003E00020DA49A1F88600DA48B0F8E4
:102760004400DA498880DA48B0F84400C880D94883
:10277000B0F844000881D848B0F844004881D248F5
:10278000B0F848008882D248B0F84800C882D148E2
:10279000B0F848000883D048B0F848004883CF48D4
:1027A000B0F8B600C849B1F946104843642190FB1F
:1027B000F1F0C6498883C948B0F8B600C449B1F9F8
:1027C00046104843642190FBF1F0C049C883C348D8
:1027D000B0F8B600BF49B1F946104843642190FBF8
:1027E000F1F0BA490884BD48B0F8B600BA49B1F969
:1027F00046104843642190FBF1F0B4494884B24844
:10280000008910B9012088854CE0AF48007818B9DC
:102810000020AE49888545E0AB4890F88C000B2835
:1028200005DBA94890F88C00A84988853AE0A648BD
:102830000078012823D1A44890F88D00012803D105
:102840000220A24988852DE09F4890F88D0002283B
:1028500004D09D4890F88D00042808D1A0484088F5
:1028600008B1072000E00420984988851AE09648BE
:1028700090F88D00032815D19449888512E092487C
:102880000078022803D10520904988850AE08E4807
:102890000078032803D106208C49888502E00120B6
:1028A0008A4988858A48008918B901208749C885DE
:1028B0004CE08748007818B900208449C88545E075
:1028C000834890F88C000B2805DB814890F88C0039
:1028D0007E49C8853AE07E480078012823D17C48AB
:1028E00090F88D00012803D102207849C8852DE099
:1028F000774890F88D00022804D0754890F88D0034
:10290000042808D17648C08808B1072000E00420D8
:102910006E49C8851AE06E4890F88D00032815D1DD
:102920006A49C88512E06A480078022803D1052068
:102930006649C8850AE066480078032803D1062066
:102940006249C88502E001206049C8856148008964
:1029500018B901205D4908864CE05E48007818B936
:1029600000205A49088645E05A4890F88C000B2808
:1029700005DB584890F88C00544908863AE05548E1
:102980000078012823D1534890F88D00012803D105
:1029900002204E4908862DE04E4890F88D0002280E
:1029A00004D04C4890F88D00042808D14C48408948
:1029B00008B1072000E00420444908861AE0454891
:1029C00090F88D00032815D14049088612E041484F
:1029D0000078022803D105203C4908860AE03D48DA
:1029E0000078032803D106203849088602E0012038
:1029F000364908863848008918B901203349488685
:102A00004CE03548007818B900203049488645E048
:102A1000314890F88C000B2805DB2F4890F88C008B
:102A20002A4948863AE02C480078012823D12A48D0
:102A300090F88D00012803D10220244948862DE01A
:102A4000254890F88D00022804D0234890F88D0086
:102A5000042808D12248C08908B1072000E00420DA
:102A60001A4948861AE01C4890F88D00032815D1B1
:102A70001649488612E018480078022803D105203C
:102A8000124948860AE014480078032803D106203A
:102A90000E49488602E001200C4948860848B0F8F3
:102AA0008A000E49A1F8B400032005F08BF84AF61D
:102AB000AA200C49086041F2883007F095FFC0E574
:102AC000FC370020080C0140B83A0020D63800201E
:102AD000843B0020503C00201C3D00202639002073
:102AE0007C3F00200030004000BFFEF74AFC06F0AB
:102AF00094F90A23054A0021AFF2895007F026FC19
:102B000006F02BFA00E0F0E7FDE70000E4370020D4
:102B10002DE9F0470546002408270026A046FE4878
:102B200030F81700642801DABDE8F0870AF01CFCD1
:102B30008146F948243850F82760243030F817804F
:102B40000021243840F82710243020F81710484678
:102B50000AF00EFC96FBF8F6EF486C38B0F904006A
:102B600070434FF4A5714843EC49212202FB161132
:102B700090FBF1F6002406E0601C35F8100025F803
:102B80001400601C44B2042CF6DB30460BF096FDBA
:102B900028812889E24988870026002404E035F945
:102BA00014000644601C44B2052CF8DB052096FB9B
:102BB000F0F000B2D8496C3908830846B0F9180023
:102BC00041F65831884203DD0846D3496C39088301
:102BD000D1486C38B0F91800002814DDCE486C38A4
:102BE000B0F918004FF47A7190FBF1F044B2CA4882
:102BF0006C38B0F9180090FBF1F201FB120018B12B
:102C0000601C44B200E00124E2B2C3486C38B0F961
:102C1000181001200BF0B7FDBF496C39C861E2B252
:102C20000846B0F9181000200BF0ADFDBA496C3918
:102C3000086200BF78E72DE9FE4F0025002400263A
:102C40000027B54830F81500642801DABDE8FE8F8A
:102C50000AF08AFB8246B048243850F825602430B8
:102C600030F815700021243840F82510243020F861
:102C7000151050460AF07CFB96FBF7F0A949A1F825
:102C80007000A5486C38B0F9060000FB07F4A642B6
:102C900001DD361B00E00026C7EB07300DF0ACFC71
:102CA0009D496C390290B1F908000DF0A5FC019026
:102CB00030460DF0A1FC9C4900900DF0E9FC8346E4
:102CC00001990DF0E5FC814602990DF097FB8046D5
:102CD0000DF072FC934988670846B0F87800904977
:102CE00088869048408930B18E48806F8A496C3917
:102CF000C969441805E08B48806F87496C39096AB7
:102D000044188848B0F90A1020460BF058FD854950
:102D100048670846406F0A2190FBF1F001B28148F4
:102D2000A0F850100146496F0246D2F88420881A54
:102D300001D4014600E04142042904DD7948406F96
:102D40007849C1F88400774890F89A0003287CDA23
:102D50007448B0F8A00001287FDA7248B0F95040FA
:102D6000808930B104EBC400052190FBF1F000F53F
:102D7000A0746C48808988BB41F2883084421EDD93
:102D800000240120674981F88E00084690F88C00E5
:102D90000D2802DA0D2081F88C006248008918B1F4
:102DA0006048007803284BD15E4890F88C000D28CD
:102DB00046D15C4800785B4981F88C0040E0594876
:102DC00090F88C000D2804D156480078554981F8B8
:102DD0008C000020534981F88E0031E0FFE742F279
:102DE000684084421EDD002401204E4981F88E0097
:102DF000084690F88C000D2802DA0D2081F88C002E
:102E00004848008918B147480078032818D1454838
:102E100090F88C000D2813D142480078414981F880
:102E20008C000DE03F4890F88C000D2804D13D48FF
:102E300000783C4981F88C0000203A4981F88E00E6
:102E4000002C06DD20B2374900E006E0A1F844007E
:102E500003E000203349A1F8440000BFF6E62DE965
:102E6000FE4F01250024002600272B4830F81500CE
:102E7000642801DABDE8FE8F0AF076FA8246264819
:102E8000243850F82560243030F81570002124389B
:102E900040F82510243020F8151050460AF068FA42
:102EA00096FBF7F02149A1F870001B486C38B0F987
:102EB0000A0000FB07F4A64201DD361B00E00026F5
:102EC000C7EB07300DF098FB13496C390290B1F94C
:102ED0000C000DF091FB019030460DF08DFB124976
:102EE00000900DF0D5FB834601990DF0D1FB814692
:102EF00002990DF083FA80460DF05EFB0B4988675E
:102F00000846B0F878000649C8860848846F4089AA
:102F100090B10648806F0BE068380020E78F010011
:102F2000D6380020B83A002000000442843B00203C
:102F3000FC49C969441804E0FB48806FF949096AF3
:102F40004418F948B0F90A1020460BF0A0FCF649E5
:102F500048670846406F0A2190FBF1F001B2F24841
:102F6000A0F850100146496F0246D2F88420881A12
:102F700001D4014600E04142042904DDEA48406FE3
:102F8000E949C1F88400E84890F89A0003287CDAFF
:102F9000E548B0F8A00001287FDAE348B0F95040D6
:102FA000808930B104EBC400052190FBF1F000F5FD
:102FB000A074DD48808988BB41F2883084421EDDE0
:102FC00000240120D84981F88E00084690F88C0032
:102FD0000D2802DA0D2081F88C00D348008918B141
:102FE000D148007803284BD1CF4890F88C000D28A9
:102FF00046D1CD480078CC4981F88C0040E0CA48E1
:1030000090F88C000D2804D1C7480078C64981F893
:103010008C000020C44981F88E0031E0FFE742F2C5
:10302000684084421EDD00240120BF4981F88E00E3
:10303000084690F88C000D2802DA0D2081F88C00EB
:10304000B948008918B1B8480078032818D1B648A3
:1030500090F88C000D2813D1B3480078B24981F85C
:103060008C000DE0B04890F88C000D2804D1AE48DB
:103070000078AD4981F88C000020AB4981F88E00C2
:10308000002C06DD20B2A84900E006E0A1F84400CB
:1030900003E00020A449A1F8440000BFEAE62DE9BE
:1030A000FE4F02250024002600279E486C3030F891
:1030B0001500642801DABDE8FE8F0AF055F9824652
:1030C0009848483050F82560243030F815700021B9
:1030D000243840F82510243020F8151050460AF006
:1030E00047F996FBF7F09149A1F870008D48B0F9C7
:1030F0000E0000FB07F4A64201DD361B00E00026AF
:10310000C7EB07300DF078FA86490290B1F910004C
:103110000DF072FA019030460DF06EFA844900907D
:103120000DF0B6FA834601990DF0B2FA8146029984
:103130000DF064F980460DF03FFA7C498867084637
:10314000B0F878007B4908877848846F408928B1B7
:103150007648806F7349C969441804E07348806FEA
:103160007049096A44187148B0F90A1020460BF0FA
:10317000F6FB6E4948670846406F0A2190FBF1F064
:1031800001B26A48A0F850100146496F0246D2F8D1
:103190008420881A01D4014600E04142042904DD5C
:1031A0006248406F6149C1F88400604890F89A0015
:1031B00003287CDA5D48B0F8A00001287FDA5B487C
:1031C000B0F95040808930B104EBC400052190FB78
:1031D000F1F000F5A0745548808988BB41F2883031
:1031E00084421EDD00240120504981F88E000846EB
:1031F00090F88C000D2802DA0D2081F88C004B48E5
:10320000008918B14948007803284BD1474890F805
:103210008C000D2846D145480078444981F88C003F
:1032200040E0424890F88C000D2804D13F480078D7
:103230003E4981F88C0000203C4981F88E0031E045
:10324000FFE742F2684084421EDD00240120374936
:1032500081F88E00084690F88C000D2802DA0D20C7
:1032600081F88C003148008918B130480078032873
:1032700018D12E4890F88C000D2813D12B480078D7
:103280002A4981F88C000DE0284890F88C000D2820
:1032900004D126480078254981F88C000020234974
:1032A00081F88E00002C06DD20B2204900E006E007
:1032B000A1F8440003E000201C49A1F8440000BF2D
:1032C000F9E62DE9FE4F03250024002600271548C6
:1032D0006C3030F81500642801DABDE8FE8F0AF082
:1032E00043F882460F48483050F82560243030F8C3
:1032F00015700021243840F82510243020F81510CE
:1033000050460AF035F896FBF7F00B49A1F870002B
:103310000448B0F9120000FB07F4A6420EDD361B8C
:103320000DE00000FC370020843B0020503C0020D2
:1033300000000442D63800201C3D00200026C7EBC8
:1033400007300DF059F9FE490290B1F914000DF063
:1033500053F9019030460DF04FF9FA4900900DF005
:1033600097F9834601990DF093F9814602990DF082
:1033700045F880460DF020F9F34988670846B0F813
:103380007800F2494887F048408928B1EE48806FBC
:10339000EB49C969441804E0EB48806FE849096AC1
:1033A0004418E948B0F90A1020460BF040FBE64902
:1033B00048670846406F0A2190FBF1F001B2E248ED
:1033C000A0F850100146496F0246D2F88420881AAE
:1033D00001D4014600E04142042904DDDA48406F8F
:1033E000D949C1F88400D84890F89A0003287CDABB
:1033F000D548B0F8A00001287FDAD348B0F9504092
:10340000808930B104EBC400052190FBF1F000F598
:10341000A074CD48808988BB41F2883084421EDD8B
:1034200000240120C84981F88E00084690F88C00DD
:103430000D2802DA0D2081F88C00C348008918B1EC
:10344000C148007803284BD1BF4890F88C000D2864
:1034500046D1BD480078BC4981F88C0040E0BA48AC
:1034600090F88C000D2804D1B7480078B64981F84F
:103470008C000020B44981F88E0031E0FFE742F271
:10348000684084421EDD00240120AF4981F88E008F
:10349000084690F88C000D2802DA0D2081F88C0087
:1034A000A948008918B1A8480078032818D1A6486F
:1034B00090F88C000D2813D1A3480078A24981F818
:1034C0008C000DE0A04890F88C000D2804D19E4897
:1034D00000789D4981F88C0000209B4981F88E007E
:1034E000002C06DD20B2984900E006E0A1F8440077
:1034F00003E000209449A1F8440000BFEDE62DE967
:10350000F05F07244FF000094FF0000A8C486C3040
:1035100030F81400642801DABDE8F09F09F024FFB8
:1035200083468748483050F82490243030F814A05F
:103530000021243840F82410243020F81410584674
:1035400009F016FFC9EB491000EB80014FF47A70C7
:103550000AFB00F0B1FBF0F001B27D484180A0F120
:103560004401B1F946000CF04CFB0746794A7A4B0E
:103570000CF09AFB05460CF015FB01B27448443878
:10358000A0F84610B0F8460000EB8000400001B201
:103590006F484438A0F8461088B26C49888100BF53
:1035A000BAE72DE9F05F06244FF000094FF0000A5A
:1035B00063486C3030F81400642801DABDE8F09FED
:1035C00009F0D2FE83465E48483050F824902430FB
:1035D00030F814A00021243840F82410243020F8BA
:1035E0001410584609F0C4FEC9EB491000EB8001E5
:1035F0004FF47A700AFB00F0B1FBF0F001B25748CB
:103600004180A0F14401B1F946000CF0FAFA0746F6
:10361000504A514B0CF048FB05460CF0C3FA01B27E
:103620004E484438A0F84610B0F8460000EB800041
:10363000400001B249484438A0F8461088B24349D6
:10364000C88100BFBAE72DE9F05F05244FF00009FB
:103650004FF0000A3A486C3030F81400642801DA60
:10366000BDE8F09F09F080FE83463548483050F8A9
:103670002490243030F814A00021243840F824107D
:10368000243020F81410584609F072FEC9EB491096
:1036900000EB80014FF47A700AFB00F0B1FBF0F010
:1036A00001B22F484180A0F14401B1F946000CF06D
:1036B000A8FA0746274A284B0CF0F6FA05460CF004
:1036C00071FA01B226484438A0F84610B0F8460016
:1036D00000EB8000400001B221484438A0F84610B9
:1036E00088B21A49088200BFBAE72DE9F05F0424C6
:1036F0004FF000094FF0000A11486C3030F8140008
:10370000642801DABDE8F09F09F02EFE83460C48DC
:10371000483050F82490243030F814A00021243888
:1037200040F82410243020F81410584609F020FEE8
:10373000C9EB491000EB80014FF47A7012E00000F1
:10374000FC370020000004421C3D0020D638002039
:10375000FC3A00209A9999999999E13FC83B002039
:10376000943C00200AFB00F0B1FBF0F001B2FC48F1
:103770004180A0F14401B1F946000CF042FA07463D
:10378000F84AF94B0CF090FA05460CF00BFA01B22E
:10379000F3484438A0F84610B0F8460000EB80002B
:1037A000400001B2EE484438A0F8461088B2EF4914
:1037B000488200BFA6E710B500240021EC48A0F81D
:1037C00048100020EA49A1F8900044F62060A1F8D2
:1037D0009200A1F894004FF6FF70A1F86E00084621
:1037E000847B0121C1814FF4FA6007F0FDF8FFF7F7
:1037F00086FEDF48B0F9460028280EDB41F288300B
:1038000007F0F2F8FFF77BFED948B0F94600282808
:1038100003DB1220D64981F88C00FFF70CFAD4485C
:1038200090F88C00122828D025E0D148B0F8480044
:10383000401C01B2CE48A0F848100A2900DB1BE06A
:10384000CB48008920B90021C948A0F8481013E0EE
:1038500040F6B83007F0C8F8FFF751FEC448B0F999
:103860004610B0F9480000EB8000642202EB4000F3
:10387000814200DB00E0D8E700BFFFF7DCF9BC487D
:1038800090F88C00112826DA23E0B948B0F94800F6
:10389000642808DAB648B0F848000A3001B2B448E3
:1038A000A0F8481000E015E0B148008920B90021D7
:1038B000AF48A0F848100DE040F6B83007F094F893
:1038C000FFF71DFEAA48B0F94600B0F57A7F00DD8B
:1038D00000E0DAE700BFA648C481C08920B1A4484F
:1038E00090F88C000B280FDB0021A148A0F84810AD
:1038F00000209F49A1F8900044F62060A1F89200B2
:103900000021012004F002F9FFF795F910BD10B570
:10391000002400219748A0F8481000209549A1F8FC
:10392000900044F62060A1F89200A1F894004FF6B0
:10393000FF70A1F86E000846847B0121C1814FF41D
:10394000FA6007F051F8FFF72CFE8A48B0F94600FC
:1039500028280EDB41F2883007F046F8FFF721FEF9
:103960008448B0F94600282803DB1220814981F8F9
:103970008C00FFF774FA7F4890F88C00122828D04A
:1039800025E07C48B0F84800401C01B27948A0F816
:1039900048100A2900DB1BE07648008920B9002185
:1039A0007448A0F8481013E040F6B83007F01CF84F
:1039B000FFF7F7FD6F48B0F94610B0F9480000EB8B
:1039C0008000642202EB4000814200DB00E0D8E787
:1039D00000BFFFF744FA674890F88C00112826DAF8
:1039E00023E06448B0F94800642808DA6148B0F878
:1039F00048000A3001B25F48A0F8481000E015E026
:103A00005C48008920B900215A48A0F848100DE010
:103A100040F6B83006F0E8FFFFF7C3FD5548B0F9AF
:103A20004600B0F57A7F00DD00E0DAE700BF5148DC
:103A3000C481C08920B14F4890F88C000B2813DB5B
:103A400000214C48A0F8481000204A49A1F89000F5
:103A500044F62060A1F892004FF6FF70A1F86E00C6
:103A60000021022004F052F8FFF7F9F910BD10B55B
:103A7000002400214048A0F8481000203E49A1F849
:103A8000900044F62060A1F89200A1F894004FF64F
:103A9000FF70A1F86E000846847B0121C1814FF4BC
:103AA000FA6006F0A1FFFFF7CEFD3348B0F94600FB
:103AB00028280EDB41F2883006F096FFFFF7C3FDA1
:103AC0002D48B0F94600282803DB12202A4981F846
:103AD0008C00FFF7E4FA284890F88C00122828D0D0
:103AE00025E02548B0F84800401C01B22248A0F863
:103AF00048100A2900DB1BE01F48008920B900217B
:103B00001D48A0F8481013E040F6B83006F06CFFEE
:103B1000FFF799FD1848B0F94610B0F9480000EBDE
:103B20008000642202EB4000814200DB00E0D8E725
:103B300000BFFFF7B4FA104890F88C00112835DA6E
:103B400032E00D48B0F94800642817DA0A48B0F8A6
:103B500048000A3001B20848A0F848100FE0000001
:103B6000603D00209A9999999999E13FD6380020B3
:103B7000B83A0020843B0020503C002015E0FE486D
:103B8000008920B90021FC48A0F848100DE040F65B
:103B9000B83006F029FFFFF756FDF748B0F94600A8
:103BA000B0F57A7F00DD00E0CBE700BFF248C481CA
:103BB000C08920B1F04890F88C000B2813DB00215D
:103BC000ED48A0F848100020EB49A1F8900044F619
:103BD0002060A1F892004FF6FF70A1F86E0000215E
:103BE000032003F093FFFFF75AFA10BD10B500242D
:103BF0000021E248A0F848100020E049A1F8900018
:103C000044F62060A1F89200A1F894004FF6FF70EE
:103C1000A1F86E000846847B0121C1814FF4FA604F
:103C200006F0E2FEFFF761FDD448B0F9460028280F
:103C30000EDB41F2883006F0D7FEFFF756FDCF4885
:103C4000B0F94600282803DB1220CC4981F88C000B
:103C5000FFF737FBC94890F88C00122828D025E0E0
:103C6000C648B0F84800401C01B2C448A0F848104B
:103C70000A2900DB1BE0C148008920B90021BF48A8
:103C8000A0F8481013E040F6B83006F0ADFEFFF79C
:103C90002CFDBA48B0F94610B0F9480000EB80009E
:103CA000642202EB4000814200DB00E0D8E700BF65
:103CB000FFF707FBB14890F88C00112826DA23E0C3
:103CC000AE48B0F94800642808DAAC48B0F84800BB
:103CD0000A3001B2A948A0F8481000E015E0A74852
:103CE000008920B90021A548A0F848100DE040F651
:103CF000B83006F079FEFFF7F8FCA048B0F94600AE
:103D0000B0F57A7F00DD00E0DAE700BF9B48C481B0
:103D1000C08920B1994890F88C000B2813DB002152
:103D20009648A0F8481000209449A1F8900044F665
:103D30002060A1F892004FF6FF70A1F86E000021FC
:103D4000042003F0E3FEFFF7BCFA10BD8C48D0F866
:103D500080008C490860002088608B48C860002083
:103D600048828748D0F884000A2190FBF1F1854809
:103D7000C161816141610020824981F820000320F6
:103D800081F8210000207E4981F89A0070477F4821
:103D9000D0F880007E490860002088607A48C860BA
:103DA000002048827948D0F884000A2190FBF1F184
:103DB0007748C161816141610020754981F8200027
:103DC000032081F821000020704981F89A00704793
:103DD0006948D0F880006F490860002088606A4810
:103DE000C860002048826448D0F884000A2190FB13
:103DF000F1F16848C161816141610020654981F844
:103E0000200081F821005C4981F89A0070475B48E6
:103E1000D0F8800060490860002088605A48C86077
:103E2000002048825548D0F884000A2190FBF1F127
:103E30005948C161816141610020574981F82000E2
:103E400081F821004D4981F89A0070472EE05348CF
:103E50000078401CC0B251490870042801DD0120DF
:103E600008704E480078012806D0022809D003289F
:103E70000CD0042814D10EE04949486806F01EF918
:103E80000FE04749886806F019F90AE04449C86814
:103E900006F014F905E04249086906F00FF900E060
:103EA00000BF00BF40F6C21006F09EFDCFE790B005
:103EB0004FF05A0A03200F9041F2883500264FF048
:103EC000000B002700200B900C900D900E9000240A
:103ED0000A900990089007900120069000BF284999
:103EE0000870304988860020099012E04FF4FA608B
:103EF00006F07AFDFEF79FFEFFF701FB0C980D9090
:103F00000B980C901E48406F0B900998401CC0B253
:103F1000099009980A28E9DB1948408BC0EB00108A
:103F2000012101EB8000174908821548B0F92200F1
:103F3000C0EB00104FF6FF7101EA80001049A1F8B4
:103F40006C000846B0F86C00A1F89C00B1F90600BE
:103F500004F079FB0A49C1F880000846808B87B2DB
:103F60004FF47A7006F040FD09230F4A0021AFF2AA
:103F7000231006F0EBF9FDE3503C00201C3D00202F
:103F8000B83A0020E83D0020A0860100843B0020D4
:103F90000C3E0020303E0020543E00200000002057
:103FA000E837002026390020D4290020FA4905AA44
:103FB0004868002105F0CDFF022003F003FEF7481A
:103FC000B0F848001FFA80FBFEF735FEF44890F881
:103FD0000280049801280AD1B8F1000F07D1EF48F8
:103FE000808E80B2EE490880EE49A1F8F800CDF845
:103FF0001080EA4890F808900398012808D1B9F198
:10400000000F05D10020E6494880E649A1F80801E3
:10401000CDF80C90E2484088C8B3E14800880028F9
:1040200026DDDF480088DF49A1F8F800DC48008879
:10403000401EDB490880D948008970B1D748B0F9E3
:104040004410B0F9320000EB8000B1EB400F04DA0D
:10405000D248C18EA0F8481003E00021CF48A0F854
:104060004810002301221946184606F0ECFC0DE02A
:104070000020CB494880CB49A1F80801C748808E71
:1040800080B2C7490880C749A1F8F80073E7FFE785
:10409000C548C1698161C148D0F88410C248C16176
:1040A00000F12101143003F0C5FD0D980E900C981D
:1040B0000D900B980C90B948406F0B90B748008951
:1040C00070BB4FF6FF70B549A1F86E0044F6206052
:1040D000A1F890000846408BC0EB0010012101EBD5
:1040E0008000B1490882AD48808B87B20021012051
:1040F00003F00CFD0021A948A0F84810FFF726FEA8
:10410000FFF7FDF90020A54981F88D00002101206D
:1041100003F0C4FC0021A1488182002006902AE718
:104120000698B8B99D4800789C4981F88C00012117
:10413000084603F0B3FC9948007801280AD1002012
:1041400096490870FFF737FB9448007810B90120B2
:10415000924908709148007A0690904800780128AA
:104160007DD18E4890F88D0008BB8C48406F00F6DA
:10417000AC508A49D1F88010884214DD0420874968
:1041800081F88D000846D0F88000496F401A8349B5
:10419000B1F92610484300EBD071029048100CF0A2
:1041A0002BFA0A9003E001207C4981F88D007B48BE
:1041B00090F88D0001283ED17B48008A40B340F240
:1041C000E330874202DA781D87B201E040F2E73738
:1041D00039B27248A0F848107348008A401E7249EC
:1041E00008826E48406F42F2D87108446B49D1F89A
:1041F0008010884203DD00206B49088208E0674890
:10420000406F42F21071884202DD00206649088248
:104210006548008A78B96148808B87B25F48D0F8DA
:1042200084006149086002205C4981F88D0001200A
:104230005D4981F82000594890F88D0002287CD112
:10424000594890F82000012824D15448D0F884001F
:1042500055490968441A5148D0F8800000E08FE2BF
:1042600004EB8401B0EB810F02DDB4F57A7F0CDB47
:1042700002204D4981F82000002048824EF660203F
:1042800048604648D0F88400086040F2E73143486F
:10429000A0F84810444890F82000022857D1002187
:1042A0003E48A0F848104048408A03284ADB3B4972
:1042B000D1F884103C4A1268881A01D4014600E003
:1042C0004142394A528A4DF2D8635A4392FBF1F483
:1042D00035484068A04201DD3348446032484068B8
:1042E000A04208DB304890F8210020B12E4890F819
:1042F0002100022826D12948808A012802D10021E4
:10430000264881820420254981F88D00082026490D
:1043100081F8200048680AF047F92049C884012044
:1043200081F89B000846C08C1E49A1F88C00002330
:10433000222206211948263000E008E009F07BF926
:1043400000200A901848408A401C174948821348A8
:1043500090F88D0003281ED1134890F8200028BB48
:104360000E48D0F880000D49D1F88410884205DD50
:1043700040F2E7310948A0F8481003E0002107485F
:10438000A0F84810084890F821000128E3D10B203C
:10439000054981F82000FAE0E8370020B83A00200B
:1043A0007C3F002026390020E83D0020FE48D0F860
:1043B0008010D0F884000A30814205DD40F2E731F8
:1043C000F948A0F848100BE0F748D0F88410D0F86E
:1043D00080000A30814203DD0021F348A0F8481034
:1043E000F24890F820000A287EDDF04890F820007E
:1043F0000B2809D1ED4890F821000028CBD10C20E2
:10440000EA4981F82000C2E0E84890F820000C2832
:1044100009D1E64890F821000128BCD10D20E349DC
:1044200081F82000B3E0E14890F820000D2809D180
:10443000DE4890F82100002803D10E20DB4981F8E6
:104440002000A4E0D94890F820000E280DD1D748CC
:1044500090F82100012807D11020D44981F82000CC
:10446000D148D0F88400C86091E0D04890F820008E
:1044700010287DD1CD4890F8210020B1CB4890F88C
:104480002100022872D11120C84981F820000021A2
:10449000C5488182C648A0F84410C348D0F88400BB
:1044A000C24988600420C04981F88D00002081F84D
:1044B0009A00BE4BDA689968588A0AF0A0F8BA499F
:1044C000C884B1F92620B949498A02EB410000EBC2
:1044D000D071C1F34F01B54A51821046408A01B2F2
:1044E000B1480185114600E04DE0488AC11700EB54
:1044F00091718910AC4A5185AC49488AC11700EBCB
:1045000091718910A0EB8101022905DD1046408DD3
:10451000401C01B210464185A348C08CA449A1F8B3
:104520008C00A148008DA1F894009F48408DA1F80F
:104530009C0001209C4981F89B0000232222062137
:104540009948263009F077F89748D0F880009649C6
:10455000D1F88410401A9449B1F92610484300EB71
:10456000D071029048100CF047F80A908F4800E094
:1045700004E0408A401C8D49488208E00B208B49AA
:1045800081F8200003E00B20884981F8200086484C
:1045900090F88D0004287CD18348D0F8840000EB8B
:1045A000800081008048D0F88000B1EBC00F07DAAE
:1045B00000207E4981F820007B4981F88D0024E0AD
:1045C000794890F89B0000BB7748D0F8800000EB5A
:1045D000800101EBC0007449D1F8841001EB810126
:1045E000B0EB810F0ADC7048D0F880006E49D1F83A
:1045F0008410401A41F29411884206DD00206B4974
:1046000081F82000684981F88D006748808A012878
:104610000FD16548D0F880006349D1F88410401A62
:10462000B0F5FA7F05DA03205F4981F88D00FFF7C6
:104630008DFB5D4890F89A00E0B95B48406F5A499D
:10464000D1F88010884204DD0220574981F89A0091
:1046500033E05548406F5449D1F88010884204DA5D
:104660000120514981F89A0027E003204E4981F842
:104670009A0022E04C4890F89A0001280DD14A484F
:10468000406F4949D1F88010884216DB0320464923
:1046900000E011E181F89A000FE0434890F89A0099
:1046A00002280AD14048406F3F49D1F88010884223
:1046B00003DC04203C4981F89A003B48D0F8840090
:1046C000DFF8E4C00090DCF88030BCF92600DDE9BA
:1046D0000B1209F0E3F802900A990BF021FE0A9000
:1046E0003148D0F880003049D1F88410401A2E4962
:1046F000B1F9261000FB01F400210A980BF094FF99
:104700001ED22948D0F880002749D1F88410884269
:104710000CDA20460BF070FF02900A990CF084F836
:1047200006D220460BF068FF0A9001E000200A90B4
:1047300020490A980BF078FF0DD21E480A900AE033
:104740001948D0F88410D0F8800000F57A708142C2
:1047500001DD00200A9018490A980CF065F801D292
:1047600015480A9015490A980BF048FE02900BF084
:1047700007FF00E07DE201B20B48A0F848109BE083
:1047800009480078022865D10020074981F89A007D
:104790000846B0F89C10B0F89C00401E024AA2F8EF
:1047A0009C0021B310460BE0B83A0020E83D002001
:1047B0002639002000401CC60050C3470000C842F4
:1047C000B0F944000A2190FBF1F0FE498988884243
:1047D00004DB00211046A0F8481004E040F2E73165
:1047E000F948A0F848100020F749488064E000210B
:1047F000F548A0F848100120F349087000BF0020D8
:10480000F24981F82000F04981F88D00D1F880103C
:10481000ED4A526F891AEC4AB2F9262001FB02F0E8
:104820000BF0EAFE0A90E848B0F86C00E649A1F8FF
:104830009C000846B0F97C0064214843E249B1F984
:10484000241090FBF1F000B2DF49A1F87C00DD49B3
:10485000888031E0DC48007803281ED1DA4840889F
:1048600001B2D948A0F8481000200A90D64981F832
:104870009A00D64981F82000D34981F88D00D1F8FB
:104880008010D14A526F891ACF4AB2F9262001FB13
:1048900002F00BF0B1FE0A900EE00021CA48A0F829
:1048A000481000200A90C84981F89A00C74981F849
:1048B0002000C54981F88D00C348B0F948000028A0
:1048C00004DA0021C048A0F848100AE0BE48B0F958
:1048D0004800B0F57A7F04DB40F2E731BA48A0F82F
:1048E0004810B94890F88C000B38092823D2DFE82B
:1048F00000F019220F0510220607110000BF00BFAB
:104900000021B148A0F84810012003F0C7F817E0D3
:1049100000BF00BF0021AC48A0F84810012003F000
:10492000BDF80DE00021A848A0F848100121084674
:1049300003F0B4F804E00121084603F0AFF800BF2B
:1049400000BFA148C08918B900209F49A1F8900074
:10495000FEF7D5FD9E48806810F4004F02D1172065
:104960000F9009E00F98401E0004000C0F9003D137
:104970000E20954981F88C009348B0F94400B0F5B9
:104980007A7F34DAAAF101001FFA80FA8E48B0F873
:104990007000A84202DD8C48B0F870508A48B0F828
:1049A0007000B04202DA8848B0F8706040F2DE3041
:1049B000834502DBA81B092804DD4FF05A0A0025B5
:1049C00042F22836BAF1000F16D1A81B0A2808DADD
:1049D0007D4890F88C000F2803DA0F207A4981F87F
:1049E0008C004FF05A0A42F22836002504E04FF0BE
:1049F0005A0A002542F228360B990E98401AB0F553
:104A0000FA6F20DDDDE90D1088421CDBDDE90C10BA
:104A1000884218DBDDE90B10884214DB6A4890F805
:104A20008C000D280FDA05210E9890FBF1F00B9AFF
:104A30000E99891A884206DA0120634981F89800A4
:104A4000142081F89900604890F89800012827D137
:104A50005D4890F8990018B35B4890F89900401EA3
:104A600010F0FF00584981F8990001D181F89800B1
:104A7000554890F88C000D2812DA5648B0F9180005
:104A800000EB80004FF47A7101EB40000B998842F3
:104A900006DD00204C4981F898000F2081F88C0039
:104AA000494890F88C000F2810D14A48B0F91800F6
:104AB00000EB80004FF47A7101EB40000B998842C3
:104AC00004DA41480078404981F88C00BBF5FA7F50
:104AD00018DB3D48B0F84600A0B93B4890F88C0080
:104AE0000D280CDA0898052804DD1020364981F8D5
:104AF0008C0009E00898401CC0B2089004E0002037
:104B0000089001E0002008902F4890F88C001028B1
:104B100008D12D48B0F8460020B12B4800782A492A
:104B200081F88C00284890F88C000D2829DA264856
:104B3000B0F94610B0F91E00814203DD1120224970
:104B400081F88C002048B0F8480078B91E48B0F9C8
:104B500046002D280ADB0798401CC0B20790102899
:104B600006D11220184981F88C0001E0002007903E
:104B70001848B0F88000052803DB1320124981F89B
:104B80008C00114890F88D0004283FD10E4890F811
:104B90009A0003283ADB0C480078012836D10A48ED
:104BA00090F88C000B2831DA0748B0F91600064956
:104BB000B1F97C1001EB810100EB41000249B1F930
:104BC000441009E026390020B83A0020E83D0020D2
:104BD00000100140FC370020884204DA0B20FE4917
:104BE00081F88C0044E0FC48B0F94410B0F918009A
:104BF0000844F949B1F97C1001EB8101B0EB410F98
:104C000036DA0C20F44981F88C0031E0F24890F853
:104C10008C000B2814D1F048B0F91600EE49B1F918
:104C20007C1001EB810100EB4100EB49B1F944102C
:104C300088421DDBE8480078E74981F88C0017E0DE
:104C4000E54890F88C000C2812D1E348B0F94410E4
:104C5000B0F918000844E049B1F97C1001EB81017A
:104C6000B0EB410F04DBDC480078DB4981F88C00B5
:104C700000BFFFF79BB990B04FF05A0A03200F9086
:104C800041F2883500264FF0000B002700200B90E2
:104C90000C900D900E9000240A90099008900790B7
:104CA0000120069000BFCD490870CD49C88600207C
:104CB000099012E04FF4FA6005F096FEFEF7CFF887
:104CC000FEF76FFC0C980D900B980C90C348406F4A
:104CD0000B900998401CC0B2099009980A28E9DB9A
:104CE000BE48408BC0EB0010012101EB8000BD49A4
:104CF0000882BA48B0F92200C0EB00104FF6FF71ED
:104D000001EA8000B549A1F86C000846B0F86C00D3
:104D1000A1F89C00B1F9060003F095FCAF49C1F879
:104D200080000846808B87B24FF47A7005F05CFEF5
:104D3000FCE3AD4905AA8868002105F00AF9A748F7
:104D4000B0F848001FFA80FBFEF789F8A74890F8F2
:104D50000680049801280AD1B8F1000F07D19F48B6
:104D6000808E80B2A14988809D49A1F8FA00CDF8D3
:104D700010809A4890F808900398012808D1B9F15A
:104D8000000F05D100219948C1809548A0F80A116B
:104D9000CDF80C909548C088C8B394488088002806
:104DA00026DD924880888E49A1F8FA008F488088D5
:104DB000401E8E4988808948008970B18748B0F9C3
:104DC0004410B0F9320000EB8000B1EB400F04DA80
:104DD0008248C18EA0F8481003E000217F48A0F867
:104DE0004810002301221946184605F02CFE0DE05C
:104DF00000217E48C1807A48A0F80A117748808E49
:104E000080B27A4988807649A1F8FA0090E7FFE7F6
:104E10007448C16981617148D0F884107148C161DA
:104E200000F12101143002F005FF0D980E900C984E
:104E30000D900B980C906948406F0B906748008963
:104E400070BB4FF6FF706549A1F86E0044F6206014
:104E5000A1F890000846408BC0EB0010012101EB47
:104E60008000604908825D48808B87B20021022063
:104E700002F04CFE00215948A0F84810FEF787FFC9
:104E8000FEF78FFB0020554981F88D00002102209C
:104E900002F004FE0021514881820020069047E77D
:104EA0000698B8B94D4800784C4981F88C0001212A
:104EB000022002F0F3FD4948007801280AD10020C1
:104EC00046490870FEF723FD4448007810B90120D8
:104ED000424908704148007A0690404A0B99D2F83E
:104EE0008020881A01D4014600E04142B1F57A7F62
:104EF00003DD0020394981F89A00384800780128FC
:104F000076D1364890F88D0008BB3448406F00F6E3
:104F1000AC503249D1F88010884214DD04202F496A
:104F200081F88D000846D0F88000496F401A2B495F
:104F3000B1F92610484300EBD071029048100BF0F5
:104F40005BFB0A9003E00120244981F88D0023488F
:104F500090F88D0001283ED12248008A40B340F2EB
:104F6000E330874202DA781D87B201E040F2E7378A
:104F700039B21A48A0F848101A48008A401E194948
:104F800008821648406F42F2D87108441349D1F89C
:104F90008010884203DD00201249088208E00F4893
:104FA000406F42F21071884202DD00200D490882F4
:104FB0000C48008A78B90948808B87B20748D0F836
:104FC0008400084908600220044981F88D0001200E
:104FD000044981F820000CE0B83A0020843B00200E
:104FE000263900200C3E0020E83700207C3F0020BE
:104FF0009DE2FE4890F88D0002287DD1FC4890F893
:105000002000012822D1F948D0F88400F849096825
:10501000441AF648D0F8800004EB8401B0EB810F0D
:1050200002DDB4F57A7F0CDB0220F14981F8200023
:10503000002048824EF660204860EC48D0F884009A
:10504000086040F2E731E948A0F84810E84890F8D5
:105050002000022857D10021E448A0F84810E44875
:10506000408A03284ADBE149D1F88410E04A1268FB
:10507000881A01D4014600E04142DD4A528A4DF2CD
:10508000D8635A4392FBF1F4D9484068A04201DD4D
:10509000D7484460D6484068A04208DBD44890F81E
:1050A000210020B1D24890F82100022826D1CF4813
:1050B000808A012802D10021CC4881820420CB497A
:1050C00081F88D000820CA4981F82000486809F05D
:1050D0006BFAC649C884012081F89B000846C08C41
:1050E000C449A1F88E00002362220621BF48263061
:1050F00008F0A1FA002000E005E00A90BC48408AD0
:10510000401CBB494882B94890F88D0003281ED145
:10511000B74890F82000D8B9B448D0F88000B34917
:10512000D1F88410884205DD40F2E731AF48A0F89D
:10513000481003E00021AD48A0F84810AC4890F8B2
:1051400021000128E3D10B20A94981F82000F0E0DB
:10515000A648D0F88010D0F884000A30814205DDDE
:1051600040F2E731A148A0F848100BE09F48D0F882
:105170008410D0F880000A30814203DD00219B4872
:10518000A0F848109A4890F820000A287EDD984838
:1051900090F820000B2809D1954890F821000028AC
:1051A000D5D10C20924981F82000C2E0904890F8B7
:1051B00020000C2809D18E4890F821000128C6D182
:1051C0000D208B4981F82000B3E0894890F8200039
:1051D0000D2809D1864890F82100002803D10E201F
:1051E000834981F82000A4E0814890F820000E282F
:1051F0000DD17F4890F82100012807D110207C496B
:1052000081F820007948D0F88400C86091E078489F
:1052100090F8200010287DD1754890F8210020B129
:10522000734890F82100022872D11120704981F84A
:10523000200000216D4881826E48A0F846106B481E
:10524000D0F884006A4988600420684981F88D009C
:10525000002081F89A00664BDA689968588A09F04C
:10526000CEF96249C884B1F926206149498A02EB26
:10527000410000EBD071C1F34F015D4A51821046ED
:10528000408A01B259480185114600E04DE0488A44
:10529000C11700EB91718910544A51855449488ACD
:1052A000C11700EB91718910A0EB8101022905DD86
:1052B0001046408D401C01B2104641854B48C08CC1
:1052C0004C49A1F88E004948008DA1F89600474846
:1052D000408DA1F89E000120444981F89B000023E5
:1052E000622206214148263008F0A5F93F48D0F84F
:1052F00080003E49D1F88410401A3C49B1F926108B
:10530000484300EBD071029048100BF075F90A90F9
:10531000374800E004E0408A401C3549488208E0F4
:105320000B20334981F8200003E00B20304981F83D
:1053300020002E4890F88D0004286FD12B48D0F81B
:10534000840000EB800081002848D0F88000B1EB99
:10535000C00F07DA0020264981F82000234981F890
:105360008D0024E0214890F89B0000BB1F48D0F836
:10537000800000EB800101EBC0001C49D1F88410D3
:1053800001EB8101B0EB810F0ADC1848D0F88000F6
:105390001649D1F88410401A41F29411884206DD72
:1053A0000020134981F82000104981F88D000F4832
:1053B000808A01280FD10D48D0F880000B49D1F820
:1053C0008410401AB0F5FA7F05DA0320074981F806
:1053D0008D00FEF7DCFC054890F89A0020BB0348DE
:1053E000406F0249D1F88010884205E0843B0020DC
:1053F0000C3E00202639002004DD0220FE4981F801
:105400009A0032E0FC48406FFB49D1F88010884296
:1054100005DA0120F84981F89A0026E016E1032018
:10542000F54981F89A0020E0F34890F89A000128A5
:105430000BD1F148406FF049D1F88010884214DB5D
:105440000320ED4981F89A000FE0EB4890F89A00AC
:1054500002280AD1E848406FE749D1F88010884215
:1054600003DC0420E44981F89A00E348D0F8840082
:10547000DFF884C30090DCF88030BCF92600DDE959
:105480000B1208F090FB02900A990AF049FF0A906B
:10549000D948D0F88000D849D1F88410401AD649AC
:1054A000B1F9261000FB01F400210A980BF0BCF8BA
:1054B0001ED2D148D0F88000CF49D1F8841088425C
:1054C0000CDA20460BF098F802900A990BF0ACF930
:1054D00006D220460BF090F80A9001E000200A90D6
:1054E000C6490A980BF0A0F80DD2C4480A900AE009
:1054F000C148D0F88410D0F8800000F57A7081425D
:1055000001DD00200A90BE490A980BF08DF901D206
:10551000BB480A90BB490A980AF070FF02900BF052
:105520002FF801B2B448A0F848108FE070E2B248FA
:105530000078022858D10020AF4981F89A00084627
:10554000B0F89C10B0F89C00401EAB4AA2F89C003A
:10555000B9B11046B0F944000A2190FBF1F0AA4914
:10556000C988884204DB00211046A0F8481004E0F6
:1055700040F2E731A048A0F8481000209E4948803A
:1055800064E000219C48A0F8481001209A49087066
:1055900000BF00209D4981F82000974981F88D00C7
:1055A000D1F88010944A526F891A934AB2F9262092
:1055B00001FB02F00BF020F80A908F48B0F86C0065
:1055C0008D49A1F89C000846B0F97C00642148434D
:1055D0008949B1F9241090FBF1F000B28649A1F895
:1055E0007C008949C88031E08348007803281ED1B7
:1055F0008148408801B28048A0F8481000200A90F5
:105600007D4981F89A00814981F820007A4981F822
:105610008D00D1F88010784A526F891A764AB2F913
:10562000262001FB02F00AF0E7FF0A900EE00021BD
:105630007148A0F8481000200A906F4981F89A003C
:10564000724981F820006C4981F88D006A48B0F9F0
:105650004800002804DA00216748A0F848100AE052
:105660006548B0F94800B0F57A7F04DB40F2E731D5
:105670006148A0F84810604890F88C000B38092861
:1056800023D2DFE800F019220F05102206071100CF
:1056900000BF00BF00215848A0F84810022002F0C7
:1056A000FDF917E000BF00BF00215348A0F84810E3
:1056B000022002F0F3F90DE000214F48A0F8481055
:1056C0000121022002F0EAF904E00121022002F0A7
:1056D000E5F900BF00BF4848C08918B90020464915
:1056E000A1F89000FDF75DFF4948806810F4804FF5
:1056F00002D117200F9009E00F98401E0004000C03
:105700000F9003D10E203C4981F88C003A48B0F943
:105710004400B0F57A7F34DAAAF101001FFA80FA6A
:105720003548B0F87000A84202DD3348B0F8705038
:105730003148B0F87000B04202DA2F48B0F870601B
:1057400040F2DE30834502DBA81B092804DD4FF060
:105750005A0A002542F22836BAF1000F16D1A81BCA
:105760000A2808DA244890F88C000F2803DA0F2062
:10577000214981F88C004FF05A0A42F22836002560
:1057800004E04FF05A0A002542F228360B990E9891
:10579000401AB0F5FA6F20DDDDE90D1088421CDB00
:1057A000DDE90C10884218DBDDE90B10884214DBC0
:1057B000114890F88C0013280FDA05210E9890FB01
:1057C000F1F00B9A0E99891A884206DA01200A49EB
:1057D00081F89800142081F89900074890F8980003
:1057E000012837D1044890F8990098B3024890F8FE
:1057F0009900401E0EE00000843B002000401CC6C3
:105800000050C3470000C842263900200C3E00204B
:105810000010014010F0FF00FE4981F8990001D10D
:1058200081F89800FB4890F88C00132812DAFA48A7
:10583000B0F9180000EB80004FF47A7101EB4000E2
:105840000B99884206DD0020F24981F898000F206C
:1058500081F88C00EF4890F88C000F2810D1EE48AA
:10586000B0F9180000EB80004FF47A7101EB4000B2
:105870000B99884204DAE7480078E64981F88C0001
:10588000BBF5FA7F18DBE348B0F84600A0B9E14861
:1058900090F88C0013280CDA0898052804DD1020F5
:1058A000DC4981F88C0009E00898401CC0B20890DF
:1058B00004E00020089001E000200890D54890F80E
:1058C0008C00102808D1D348B0F8460020B1D14848
:1058D0000078D04981F88C00CE4890F88C001328CD
:1058E00029DACC48B0F94610B0F91E00814203DD38
:1058F0001120C84981F88C00C648B0F8480078B932
:10590000C448B0F946002D280ADB0798401CC0B2F5
:105910000790102806D11220BE4981F88C0001E0C2
:1059200000200790BC48B0F88200052803DB132054
:10593000B84981F88C00B74890F88D00042834D11C
:10594000B44890F89A0003282FDBB2480078012869
:105950002BD1B04890F88C000B2826DAAD48B0F96E
:105960001600AC49B1F97C1001EB810100EB41005C
:10597000A849B1F94410884204DA0B20A54981F8FE
:105980008C0044E0A348B0F94410B0F91800084472
:10599000A049B1F97C1001EB8101B0EB410F36DA7F
:1059A0000C209C4981F88C0031E09A4890F88C00DA
:1059B0000B2814D19748B0F916009649B1F97C101C
:1059C00001EB810100EB41009249B1F9441088429A
:1059D0001DDB904800788F4981F88C0017E08D48D6
:1059E00090F88C000C2812D18A48B0F94410B0F914
:1059F000180008448749B1F97C1001EB8101B0EB34
:105A0000410F04DB83480078824981F88C0000BF95
:105A1000FFF78FB990B04FF05A0A03200F9041F270
:105A2000883500264FF0000B002700200B900C90CB
:105A30000D900E9000240A90099008900790012084
:105A4000069000BF754908707549088700200990C5
:105A500012E04FF4FA6004F0C7FFFDF720FBFDF7FA
:105A6000F2FD0C980D900B980C906C48406F0B90C9
:105A70000998401CC0B2099009980A28E9DB6748D8
:105A8000408BC0EB0010012101EB800065490882CA
:105A90006248B0F92200C0EB00104FF6FF7101EA36
:105AA00080005E49A1F86C000846B0F86C00A1F8CF
:105AB0009C00B1F9060002F0C6FD5849C1F880000B
:105AC0000846808B87B24FF47A7004F08DFFFDE3B7
:105AD000554905AAC868002104F03BFA4F48B0F8C0
