:020000040800F2
:100000000007002001010008113F0008413B0008E3
:10001000CD3C0008A10C0008356F0008000000006E
:10002000000000000000000000000000294500085A
:100030000D26000800000000D13F0008A14D000877
:100040001B0100081B0100081B0100081B01000820
:100050001B0100081B0100081B0100081B01000810
:100060001B0100081B0100081B0100087514000893
:100070001B0100081B0100081B0100081B010008F0
:100080001B0100081B0100081B0100081B010008E0
:100090001B0100081B0100081B010008892D000836
:1000A0001B0100081B0100081B0100081B010008C0
:1000B000B54E00081B0100081B0100081B010008C9
:1000C0001B0100081B0100081B0100081B010008A0
:1000D0001B010008116400081B0100081B01000837
:1000E0001B0100081B0100081B010008DFF80CD0F1
:1000F00000F016FC004800470574000800070020C7
:100100000648804706480047FEE7FEE7FEE7FEE7B1
:10011000FEE7FEE7FEE7FEE7FEE7FEE7554E0008D6
:10012000ED000008F0B480EA0102D40F4200B2EB07
:10013000410F02D20246084611464A0042D0C30D82
:10014000DDB2C1F3C752AD1A202D35DAC1F3160165
:1001500041F4000204B15242C5F1200602FA06F150
:100160002A411044B3EBD05F23D0C4B1012DA0EBE2
:10017000C35009DCF0BC4FF0004202EAC35200F564
:100180000000DBB200F014BB400000F1807000EB17
:10019000C350A0F1807040EAD170490009E04908DD
:1001A00041EAC071A0EBC35000F50000400800EB2D
:1001B000C350F0BC00F0F3BA6142012202EB4101EE
:1001C000001BF6E7F0BC704781F00041AAE780F021
:1001D0000040A7E780EA010210B502F000434000AA
:1001E00026D04A0023D04FEA106101EB1261C0F320
:1001F0005600C2F3560240F4000042F40002A0FB95
:100200000220A1F17F014FEA0040140401D000F167
:10021000010050EA124001D44000491EC2B20C064F
:1002200004EBD010401C4008802A02D003E00020DC
:1002300010BD20F00100002900DA0020184310BD95
:1002400030B480EA010202F0004530F0004221F0B3
:10025000004015D0A0B1C0F3C753C2F3C754C2F3D6
:100260001601C0F31600E41A41F4000140F4000244
:100270007D34914201D3641C00E04900002C02DA75
:1002800030BC002070474FF400000023914201D39E
:10029000891A034340084FEA4101F7D151B1914215
:1002A00002D14FF0004105E002D24FF0010101E020
:1002B0006FF0010103EBC450284430BC00F06FBA6A
:1002C0002DE9FE4F804681EA0300C00F0C460090E6
:1002D00021F0004123F00045B8EB0200A94105D20E
:1002E0004046214690461C460B46024623F00040FD
:1002F000104304D14046214603B0BDE8F08F270DDE
:10030000C7F30A00C3F30A510290401A0190402833
:1003100066DAC3F3130040F4801B0098924620B1C4
:100320000023D2EB030A63EB0B0B01985946C0F193
:100330004002504600F002FA06460D465046594625
:10034000019A00F01AFA10EB08006141002487EAD4
:10035000115284EAE7731A433BD0009A3AB3019AE8
:10036000012A4FEA075210DC001B61EB02014FF03B
:10037000004202EA0752CDE90042001C41F580111B
:1003800032462B4600F04EFAB6E7001B61EB020145
:10039000001C41F5801300185B412018A2F50017DE
:1003A00047EB030140EAD570B6196D4111E06D08C5
:1003B0004FEA360645EAC0754FEA0752001B61EB6B
:1003C0000201001C41F5801149084FEA3000001974
:1003D000514132462B4603B0BDE8F04F00F015BA4C
:1003E0000098012240000023D0EB020263EBE0738F
:1003F000009821464FEAE074B8EB000061EB04017D
:10040000E9E783F000435BE781F0004158E72DE91D
:10041000FE4F81EA030404F0004421F000410094FF
:100420004FF0000B23F0004350EA010402D052EADF
:10043000030404D10020014603B0BDE8F08FC3F3EC
:100440000A54C1F30A552C44A4F2F3340194A0FBDE
:100450000254C1F3130141F48011C3F3130343F4B5
:10046000801301FB024400FB034E840A970A44EA0E
:10047000815447EA8357A4FB076802958D0A05FB60
:1004800007854FEA932C04FB0C542705029D4FEA85
:10049000065847EA1637B5EB08056EEB070C870ED2
:1004A000920E47EA811742EA8312A7FB0201B6EBDC
:1004B0000B0164EB00042B0D43EA0C335E1844EB94
:1004C0001C50DA465146E7FB0201C5F313044FEA1C
:1004D0000B3343EA14534FEA0432019C43EA060308
:1004E000A4F10C040294009CCDE900B400F09AF948
:1004F000A2E72DE9F04D81EA030404F0004B21F05E
:10050000004514464FF0000A23F0004150EA05026E
:1005100020D054EA01021DD0C5F30A570246C5F3A4
:100520001303C1F31300C1F30A5640F4801543F4DA
:100530008013A7EB0608101BD64608F2FD3873EBB4
:10054000050002D308F1010801E092185B41B8F1FF
:10055000000F03DA00200146BDE8F08D00204FF4C3
:100560008011064684460EE0171B73EB050705D382
:10057000121B63EB050306434CEA010C49084FEAE2
:10058000300092185B4150EA0107EDD152EA0300B6
:1005900012D082EA040083EA0501084303D1002255
:1005A0004FF0004308E0101BAB4102D201220023B0
:1005B00002E06FF0010253101AEB06004CEB0851F9
:1005C00010EB0A0041EB0B01BDE8F04D00F01DB946
:1005D000C10F80EAE0700844CA079623002100F0AA
:1005E000E7B80EB5C10F80EAE0700844CA070021E1
:1005F00040F233438DE80E000A460B4600F012F934
:1006000003B000BD0EB540F2334102910021CDE9A7
:1006100000110A460B4600F005F903B000BD20F0BA
:100620000040C10DC0F3160040F400007F2901DA3C
:1006300000207047962903DCC1F19601C84070473D
:1006400096398840704770B5C1F30A5201F00045F1
:100650000024C1F3130140F2FF3341F480119A42A8
:1006600001DA002070BD40F233439A42A2F23342D5
:1006700003DC524200F071F800E090402C43F1D0CE
:10068000404270BDC1F30A5210B5C1F3130140F2EC
:10069000FF3341F480119A4201DA002010BD40F28C
:1006A00033439A42A2F2334203DC524200F055F83F
:1006B00010BD904010BD00F0004230F000400AD064
:1006C000C10D01F56071C0F3160042EA0151C20884
:1006D00040071143704700200146704701F0004376
:1006E00030B421F0004150EA010206D00A0DA2F513
:1006F0006072C1F31301002A02DC30BC0020704795
:10070000440F44EAC104C100E01830BC00EBC25001
:1007100000F045B8002801DBC0F10040002901DBF2
:10072000C1F1004181427047002801DBC0F1004067
:10073000002901DBC1F1004188427047202A04DB17
:10074000203A00FA02F1002070479140C2F12003E4
:1007500020FA03F3194390407047202A04DB203A23
:1007600021FA02F00021704721FA02F3D040C2F1D1
:1007700020029140084319467047202A06DBCB1718
:10078000203A41FA02F043EAE07306E041FA02F34C
:10079000D040C2F120029140084319467047002919
:1007A000A8BF7047401C490008BF20F001007047F7
:1007B00010B4B0FA80FC00FA0CF050EA010404BF57
:1007C00010BC704749B1CCF1200421FA04F411FAAD
:1007D0000CF118BF012121430843A3EB0C01CB1DF1
:1007E0000106000A002BBEBF002010BC704700EBC2
:1007F000C35010440029A4BF10BC7047401C4900DE
:1008000008BF20F0010010BC704710B5002B08DABB
:10081000401C41F1000192185B411A4301D120F0C4
:10082000010010BD2DE9F04D92469B4611B1B1FA81
:1008300081F202E0B0FA80F220329046FFF77EFFAC
:1008400004460F4640EA0A0041EA0B0153465A4665
:10085000084303D120463946BDE8F08D114653EADE
:10086000010015D0C8F140025046FFF776FF05465B
:100870000E46504659464246FFF760FF084301D0F6
:10088000012000E00020054346EAE0762C43374390
:100890000A984FEA4453A0EB08004FEAD4240A30E8
:1008A0004FF0000244EA47544FEAD72502D5002012
:1008B0000146D1E7010510196941DDE90845001934
:1008C0006941BDE8F04DA0E770B521F00043034356
:1008D0000CD0C1F30A550024D5EB040564EB0403E6
:1008E000D617AD1AB34102DB0020014670BD2018B7
:1008F00041EB025170BD000030B5002904DB4FF020
:100900000044404264EB0101002B04DB4FF0004443
:10091000524264EB0303994208BF904230BD00008D
:10092000064C074D06E0E06840F0010394E807003C
:1009300098471034AC42F6D3FFF7DCFB089A000866
:10094000289A00082DE9F04D00231A461B1A8A4107
:1009500003DB00200146BDE8F08DC1F30A52C1F36C
:10096000130141F480154FF0000BD10702D100189C
:100970006D41521E0027044640F2FF11384601EB3C
:10098000620A3E468046024600204FF48011FFF77F
:10099000E4FEC2197141BB1846EB0100B4EB030C35
:1009A00075EB000C04D3E41A65EB000517460E4600
:1009B000241908F101006D4180463428E3DDF9195E
:1009C00046EB0600091BA84103D24FF0FF32134645
:1009D00001E0002213461BEB070046EB0A51BDE87D
:1009E000F04DFFF712BF21B1826842F00102826030
:1009F00003E0826822F001028260704700B585B092
:100A000001214FF4017003F015FB0020009001203C
:100A10008DF804008DF805004FF46020029000204E
:100A2000039003208DF810006946184800F050F834
:100A3000062301220321154800F072F80623022242
:100A40000421124800F06CF80623032205210F4808
:100A500000F066F801210D4800F01AF801210B485A
:100A6000FFF7C1FF094800F0B7F800BF074800F0E2
:100A700024F80028FAD1054800F0BEF800BF03486A
:100A800000F011F80028FAD105B000BD00240140A3
:100A900021B1826842F48072826003E0826822F4AD
:100AA000807282607047014600208A6812F0040F4D
:100AB00001D0012000E000207047014600208A6834
:100AC00012F0080F01D0012000E000207047000064
:100AD00030B502460020002350680F4C20400D79AD
:100AE0000C6844EA05242043506090680B4C204079
:100AF000D1E902542C434D7944EA450420439060E7
:100B0000D06A20F470000C7C641EE4B2234340EAF7
:100B10000350D06230BD0000FFFEF0FFFDF7F1FF93
:100B2000F0B504460D4600200021092D11DDE068D6
:100B3000A5F10A0606EB4607072606FA07F18843E1
:100B4000A5F10A0606EB460603FA06F10843E06043
:100B50000CE0206905EB4507072606FA07F18843F4
:100B600005EB450603FA06F108432061072A0FDA70
:100B7000606B561E06EB86071F2606FA07F18843B0
:100B8000561E06EB860605FA06F10843606322E06E
:100B90000D2A0FDA206BD61F06EB86071F2606FAF2
:100BA00007F18843D61F06EB860605FA06F10843CF
:100BB000206310E0E06AA2F10D0606EB86071F260F
:100BC00006FA07F18843A2F10D0606EB860605FA40
:100BD00006F10843E062F0BD816841F008018160E0
:100BE000704721B1826842F4A002826003E082680B
:100BF00022F4A00282607047816841F004018160A4
:100C00007047000070B504F0CFF84FF4A06003F017
:100C1000BBF902F00DFA05F0BFFB02F08DF900F010
:100C20006DFCFFF7EBFE01211848FFF7DAFF07F034
:100C300081FC1748006842F21072B0FBF2F1B1F18A
:100C4000807F00D31DE021F07F40401E4FF0E02266
:100C5000506150170F22002807DA13071D0E0D4BA5
:100C600000F00F04241F1D5503E013071C0E0A4B50
:100C70001C5400BF00204FF0E0229061072010615B
:100C800000BF01200549087070BD0000002401402C
:100C9000A400002018ED00E000E400E03E00002089
:100CA00000BFFEE7012803D1C102044A116004E03D
:100CB0004FF40061014A121D11607047100C014091
:100CC000D0E90021914211DD0268816891420DDD79
:100CD000D0E90112914202DD8168016001E04168C2
:100CE00001600121134A82F8291021E0D0E90012A5
:100CF000914211DD8268016891420DDDD0E9011257
:100D0000914202DD4168016001E0816801600021DB
:100D1000084A82F829100BE0D0E90012914207D16D
:100D200082680168914203D10321024A82F82910A6
:100D300070470000C40100202DE9FC5F8046894611
:100D400017469A46002001900025022000900026B8
:100D500014E13C46FF2C02DCA020019028E0B4F511
:100D6000007F02DAA220019022E0B4F5407F02DA8F
:100D7000A42001901CE0B4F5806F02DAA620019057
:100D800016E0B4F5A06F02DAA820019010E0B4F5E7
:100D9000C06F02DAAA2001900AE0B4F5E06F02DA2F
:100DA000AC20019004E0B4F5006F01DAAE200190B0
:100DB000464609F0FF0B0025BAF1000F5BD052E068
:100DC000FF2C02DCA020019028E0B4F5007F02DABD
:100DD000A220019022E0B4F5407F02DAA420019025
:100DE0001CE0B4F5806F02DAA620019016E0B4F59D
:100DF000A06F02DAA820019010E0B4F5C06F02DA0B
:100E0000AA2001900AE0B4F5E06F02DAAC2001906C
:100E100004E0B4F5006F01DAAE20019003F008FDA4
:100E2000019803F083FB03F0BBF92844C5B2E0B29C
:100E300003F07CFB03F0B4F92844C5B203F0F8FCDE
:100E40000199491CC8B203F071FB03F0A9F92844C9
:100E5000C5B203F0D1F906F8010B601C84B203F0AF
:100E60009DF803F0DBFD5FEA0B00ABF1010101F03F
:100E7000FF0BA5D180E003F0DBFC2844C5B201984C
:100E800003F054FB03F08CF92844C5B2E0B203F040
:100E90004DFB03F085F92844C5B204203D490860A4
:100EA00053E016F8010B03F041FB03F079F92844F5
:100EB000C5B2601C84B2E11704EB11710911B4EBE7
:100EC000011142D103F0AAFD0A2001F0A0FBFF2C82
:100ED00002DCA020019028E0B4F5007F02DAA22015
:100EE000019022E0B4F5407F02DAA42001901CE0DA
:100EF000B4F5806F02DAA620019016E0B4F5A06F79
:100F000002DAA820019010E0B4F5C06F02DAAA203E
:100F100001900AE0B4F5E06F02DAAC20019004E041
:100F2000B4F5006F01DAAE20019003F081FC019866
:100F300003F0FCFA03F034F92844C5B2E0B203F040
:100F4000F5FA03F02DF92844C5B2ABF10100C0B2A7
:100F50005FEA000BA5D116F8010B03F0E7FA03F0E6
:100F60001FF92844C5B203F059FD04200949091F9F
:100F700008600A2001F04BFB05B906E00098411E0D
:100F8000C9B2009100287FF4E4AE00BFB046284605
:100F9000BDE8FC9F1408014030B5034613B94FF675
:100FA000FF7024E0D2B1642909D140F2E734E41A99
:100FB0000F4D35F8244004F54874A0B217E040F214
:100FC000E734E41A0A4D55F8244004F5487404EB5C
:100FD00084040625B4FBF5F4A0B208E040F2ED3439
:100FE000E41A4C434FF47A7594FBF5F4A0B230BD8B
:100FF0003C86000878B50024009442F21074A042A8
:1010000000DB601E33B18F4CA48A1CB90A2490FB0C
:10101000F4F4A0B24FF47A7490FBF4F40A2594FB34
:10102000F5F605FB16443034E4B28DF80040642434
:1010300090FBF4F494FBF5F605FB16443034E4B26F
:101040008DF801400A2490FBF4F494FBF5F605FBBF
:1010500016443034E4B28DF802400A2490FBF4F5D3
:1010600004FB15043034E4B28DF80340012A35D175
:10107000744C64888CBB9DF80040302C04D1724CB9
:10108000B4F840400C8005E09DF800406E4D35F806
:1010900014400C809DF80140302C0AD10C886A4D18
:1010A000B5F84050AC4204D1674CB4F840404C8095
:1010B00005E09DF80140644D35F814404C809DF8E2
:1010C0000240614D35F8144044F400448C809DF892
:1010D000034035F81440CC80B2E0FFE7022A24D167
:1010E000584C64880CBB9DF80040302C04D1564C01
:1010F000B4F840400C8005E09DF80040524D35F8B2
:1011000014400C809DF801404F4D35F8144044F4D4
:1011100000444C809DF8024035F814408C809DF8C6
:10112000034035F81440CC808AE0032A1AD1454C9C
:101130006488BCB99DF80040434D35F8144044F430
:1011400000440C809DF8014035F814404C809DF817
:10115000024035F814408C809DF8034035F8144067
:10116000CC806DE0374CA47814F0F00F29D09DF8B6
:101170000040354D35F814400C809DF8014035F89D
:1011800014404C809DF8024035F814408C809DF846
:10119000034035F81440CC80012A04D18C8844F4F3
:1011A00000448C804CE0022A04D14C8844F4004472
:1011B0004C8045E0032A43D10C8844F400440C8061
:1011C0003EE09DF80040302C04D11F4CB4F8404064
:1011D0000C8005E09DF800401B4D35F814400C8054
:1011E0009DF80140302C0AD10C88174DB5F84050BD
:1011F000AC4204D1144CB4F840404C8005E09DF85A
:101200000140114D35F814404C809DF80240302CBF
:101210000AD14C880C4DB5F84050AC4204D10A4C70
:10122000B4F840408C8005E09DF80240064D35F84A
:1012300014408C809DF80340034D35F81440CC8059
:1012400078BD0000BC0000203C85000878B5002473
:10125000009423B11AB90A2490FBF4F4A0B24FF41D
:101260007A7490FBF4F40A2594FBF5F605FB16441A
:101270003034E4B28DF80040642490FBF4F494FB25
:10128000F5F605FB16443034E4B28DF801400A242B
:1012900090FBF4F494FBF5F605FB16443034E4B20D
:1012A0008DF802400A2490FBF4F504FB1504303459
:1012B000E4B28DF80340012A31D19DF80040302C72
:1012C00004D1494CB4F840400C8005E09DF8004042
:1012D000454D35F814400C809DF80140302C0AD162
:1012E0000C88414DB5F84050AC4204D13E4CB4F8A6
:1012F00040404C8005E09DF801403B4D35F81440DE
:101300004C809DF80240384D35F8144044F40044B8
:101310008C809DF8034035F81440CC8062E0022AAE
:1013200021D19DF80040302C04D12F4CB4F840401E
:101330000C8005E09DF800402B4D35F814400C80E2
:101340009DF80140284D35F8144044F400444C8089
:101350009DF8024035F814408C809DF8034035F824
:101360001440CC803EE09DF80040302C04D11E4C4F
:10137000B4F840400C8005E09DF800401A4D35F867
:1013800014400C809DF80140302C0AD10C88164D79
:10139000B5F84050AC4204D1134CB4F840404C80F6
:1013A00005E09DF80140104D35F814404C809DF843
:1013B0000240302C0AD14C880B4DB5F84050AC425D
:1013C00004D1094CB4F840408C8005E09DF80240FF
:1013D000054D35F814408C809DF80340024D35F8DA
:1013E0001440CC8078BD00003C85000818B502464A
:1013F0000B464FF6FF70009010E012F8010B9DF8BD
:10140000004080EA04019DF80100094C645C6040E2
:101410008DF800000748405C8DF801001800A3F12A
:101420000104E3B2E9D1BDF80040204618BD000038
:10143000789700087898000801460C4A116000234C
:101440000B4AC2F8CC300022094BA3F8E02000BFC1
:10145000064A1268002AFBD1054AD2F8CC20044B78
:10146000B3F8E030B2FBF3F290B2704734000020E2
:10147000BC0000201948D0F8C4001849B1F8BC10CD
:1014800008441649C1F8C4000846D0F8C810B0F89E
:10149000BE0001441148C0F8C810D0F8CC10B0F814
:1014A000C00001440D48C0F8CC10B0F8DC00401C6E
:1014B0000A49A1F8DC000846B0F8DE00401CA1F89B
:1014C000DE000846B0F8E000401CA1F8E000044847
:1014D000406840F00100024948607047BC000020AD
:1014E0000000024021B1026842F00102026004E003
:1014F00002684FF6FE731A400260704700B58DB067
:101500000121084602F066FD1A4800F039F81A4831
:1015100002901A48039000200490032005900020B8
:1015200006908020079040000890800009902020BD
:101530000A9000020B9000200C9002A90D4800F0C8
:10154000CEF80B208DF8040001208DF805008DF8F1
:1015500006008DF8070001A802F0DCFC0122022140
:10156000044800F0B3F801210248FFF7BBFF0DB0BB
:1015700000BD0000080002404C240140780100201A
:1015800001684FF6FE721140016000210160416068
:101590008160C1604B49884208D14A49083949688D
:1015A00041F00F01474A083A51608AE04549143139
:1015B000884208D143490839496841F0F001414A5D
:1015C000083A51607DE03F492831884208D13D49C1
:1015D0000839496841F470613A4A083A516070E04C
:1015E00038493C31884208D136490839496841F4C4
:1015F0007041344A083A516063E0324950318842C0
:1016000008D130490839496841F470212D4A083A17
:10161000516056E02B496431884208D12949083984
:10162000496841F47001274A083A516049E0254968
:101630007831884208D123490839496841F07061FE
:10164000204A083A51603CE01F49884206D1011FF8
:10165000096841F00F01021F116032E01A4914318C
:10166000884208D11849091F096841F0F001164A5B
:10167000121F116025E014492831884208D112490F
:10168000091F096841F470610F4A121F116018E0C8
:101690000D493C31884208D10B49091F096841F4C2
:1016A0007041094A121F11600BE00749503188420E
:1016B00007D10549091F096841F47021024A121F28
:1016C0001160704708000240080402401AB1036824
:1016D0000B43036002E003688B430360704710B55F
:1016E0000022026847F6F0739A430C6A8B68234322
:1016F0000C6923434C6923438C692343CC692343FE
:101700004C6A23438C6A23431A430260CB684360CC
:101710000B6883604B68C36010BD00002DE9F04F7B
:1017200097B007460D4614461E46DDF88090301BE4
:1017300001D4014600E0414207F164025143C8224E
:1017400091FBF2F8B44204DDA54202DD4FF000083F
:1017500005E0B44203DAA54201DA4FF00008B8F51B
:101760007A7F14DA4046FEF73CFFAE4AAE4BCDE935
:101770000E0106F03FF80022AC4BCDE91001FEF758
:1017800043FECDE91201FEF75EFF824610E0A8F5A8
:101790007A70FEF726FF0022A54BCDE9100106F076
:1017A00029F881F00041CDE91201FEF74CFF824695
:1017B0000AF5FA5840F6B830804500DA804608FB52
:1017C00007F014909B48006815909B4908EB0100B6
:1017D000FEF7FEFE1290601B139001D4139901E0F6
:1017E000139949420846FEF7F3FE0790FEF763FFA0
:1017F000924A934BCDE9080105F0FCFFCDE90C01BD
:10180000904907FB01F0FEF7ECFECDE90A01DDE9A6
:101810000C23FEF7FCFDCDE90E01FEF75FFF1190F2
:101820001299FEF70DFD83490860AC4204DA0846C0
:10183000006880F00040086083491598FEF7CAFCF4
:1018400012907C4801681298FEF76CFC7F49139057
:10185000FEF7F6FC77490860764815990068FEF7B0
:10186000B3FC8346B14506DDA54204DDB8F1000FA7
:1018700001DD4FF00008A6EB090AB6EB090001D420
:10188000014600E041428A464E453FDD07F128000F
:10189000032190FBF1F038440990FEF7A2FECDE958
:1018A0000C013846FEF79DFECDE908015046FEF7D3
:1018B0008FFE0190FEF7FFFE4FF06632644BCDE9DC
:1018C000020105F097FF0022624BCDE90401FEF70B
:1018D000F7FCCDE90601DDE90823FEF798FDCDE927
:1018E0000A01DDE90C23FEF704FECDE9100158469C
:1018F000FEF7E1FECDE90E01DDE91023FEF7E0FC85
:10190000CDE91201FEF7EAFE834640E04E453EDA9D
:1019100007F12800032190FBF1F038440990FEF70D
:1019200060FECDE90C013846FEF75BFECDE908010B
:101930005046FEF74DFE0190FEF7BDFE4FF06632B9
:10194000434BCDE9020105F055FF0022424BCDE9A2
:101950000401FEF759FDCDE90601DDE90823FEF794
:1019600056FDCDE90A01DDE90C23FEF7C2FDCDE904
:1019700010015846FEF79FFECDE90E01DDE9102368
:10198000FEF79EFCCDE91201FEF7A8FE8346AC42AD
:1019900022DB1498FEF725FECDE90E01601BFEF751
:1019A00020FE4FF033322D4BCDE90A0105F022FF26
:1019B000CDE90C01DDE90E23FEF729FDCDE910018B
:1019C000FEF78CFE26491290FEF73AFC594613901A
:1019D000FEF7A8FB834621E01498FEF702FECDE94E
:1019E0000E01281BFEF7FDFD4FF033321B4BCDE9F6
:1019F0000A0105F0FFFECDE90C01DDE90E23FEF73B
:101A000006FDCDE91001FEF769FE16491290FEF7BA
:101A100017FC59461390FEF785FB8346584617B0CE
:101A2000BDE8F08FD7A3703D0AD7F33F0078B440EC
:101A30000000F03F4C000020A08601009A9999997F
:101A40009999E93FC0C62D000000A0400000C040A9
:101A50006666EE3F00002440000024C03333F33FAD
:101A600000606A4600606AC6F0B50546F748B0F9FE
:101A7000744041F2883084420ADD0024F34890F833
:101A8000BA0003281DDA0320F04981F8BA0018E0F3
:101A9000EE4890F8BA00032803D10020EB4981F802
:101AA000BA00EA48408A38B104EBC400052190FB33
:101AB000F1F000F5A07004B2E448808A08B9601D16
:101AC00004B2CB2D7ED027DC672D7CD011DC042D19
:101AD0007AD007DC95B3012D77D0022D76D0032D77
:101AE00075D108E1642D73D0652D72D0662DF7D1C4
:101AF000B2E16C2D6ED008DC682D6CD0692D6BD0F6
:101B00006A2D6AD06B2DEBD19BE2C82D66D0C92D12
:101B10007ED0CA2DE4D13BE340F22D11681A8D42EC
:101B200077D014DCD02D75D009DCCC2D73D0CD2D21
:101B300072D0CE2D71D0CF2DD2D1D3E318E0D12DDC
:101B40006CD0D22D6BD0B5F5967FC9D1FEE363285A
:101B500066D006DC01287DD002287CD00328BFD1C6
:101B6000F5E3642878D0652877D06628B8D1EFE30C
:101B7000261E01DB314600E0714288B2B3490A7D7E
:101B80000123B349FFF762FB002C04DAB148B0F837
:101B90005A00AF490880AD4890F8BA00032809D12F
:101BA000AA48007830B94FF48070A949C88088806D
:101BB00048800880A5490A7DB1F8AC1088B201239D
:101BC000A3490CE004E372E1C2E00CE04CE0F5E371
:101BD000EEE00FE17AE29BE1CDE1FFE196E2083130
:101BE000FFF708FA2CE2261E01DB314600E07142C5
:101BF00088B296490A7D01239549FFF727FB002CFF
:101C000004DA9448B0F85A00914908808F4808E0F7
:101C10009EE2F6E386E3FBE220E343E3A6E3BCE3D4
:101C2000F0E390F8BA00032809D18848007830B969
:101C30004FF480708649C880888048800880834936
:101C4000B1F8821088B20023012281490831FFF7E0
:101C5000D1F903E0E9E3FAE3FAE3FAE37D48B0F807
:101C60009E007B490881BDE7261E01DB314600E06E
:101C7000714288B275490A7D01237549FFF7E6FA7A
:101C8000002C04DA7348B0F85A00714908806F4894
:101C900090F8BA00032809D16C48007830B94FF4A5
:101CA00080706B49C8808880488008806748B0F998
:101CB0008000B0F57A7F0EDB6448B0F980000A211D
:101CC00090FBF1F086B200230122614908313046D1
:101CD000FFF790F909E05D49B1F8801088B2002360
:101CE00002225B490831FFF785F95A48B0F88600AF
:101CF0005749088176E7261E01DB314600E0714234
:101D000088B252490A7D01235149FFF79FFA002CFE
:101D100004DA5048B0F85A004D4908804B4890F812
:101D2000BA00032809D14948007830B94FF48070CF
:101D30004749C88088804880088044490A7DB1F8B6
:101D4000761088B2012342490831FFF753F949E779
:101D5000261E01DB314600E0714288B23B490A7D14
:101D600001233B49FFF772FA002C04DA3948B0F836
:101D70005A0037490880354890F8BA00032809D13D
:101D80003248007830B94FF480703149C88088807B
:101D9000488008802D498889002301222C49083178
:101DA000FFF728F92B48B0F8820029490881E1E3C0
:101DB0002848B0F8BE00264908802648B0F8A6009A
:101DC00048802448B0F88A0088802248B0F8A800EB
:101DD000C8802048B0F8400008811E48B0F8400094
:101DE00048811C48B0F8400088811A48B0F8620069
:101DF000C881BFE31748B0F840001549088015486E
:101E0000B0F8400048801348B0F89200888011482C
:101E1000B0F89C00C8800F48B0F8400008810D4819
:101E2000B0F8400048810B48B0F84000888107486E
:101E3000008A20B10748B0F89600C88104E0054840
:101E4000B0F894000249C88194E30000BC0000206F
:101E5000640200203C850008FD48B0F84000FD49C0
:101E60000880FB48B0F886004880F948B0F85A006E
:101E70008880F748B0F88C00C880F548B0F840007A
:101E80000881F348B0F840004881F148B0F84000BC
:101E90008881F148408A20B1ED48B0F88C00C881B3
:101EA00004E0EB48B0F88600EA49C88162E3E848FC
:101EB000B0F8AA00E7490880E548B0F89C004880DF
:101EC000E348B0F892008880E148B0F8A800C880E4
:101ED000DF48B0F840000881DD48B0F84000488194
:101EE000DD48808A50B1DA48B0F8600040F4004024
:101EF0008881D748B0F86200C88108E0D448B0F8BB
:101F00006200D4498881D248B0F86000C88131E3CA
:101F1000CF48B0F89000CF490880CD48B0F8A6006F
:101F20004880CB48B0F886008880C948B0F8920055
:101F3000C880C748B0F840000881C748C08A60B16F
:101F4000C348B0F8A6004881C148B0F8A60088810F
:101F5000BF48B0F8A400C8810CE0BD48B0F8A000AC
:101F6000BC494881BA48B0F8AE008881B848B0F89A
:101F70009A00C881FEE2B648B0F8A800B5490880CA
:101F8000B348B0F8AA004880B148B0F8A4008880EF
:101F9000AF48B0F89C00C880AD48B0F84000088158
:101FA000AD48008B60B1AA48B0F840004881A8480D
:101FB000B0F89E008881A648B0F89C00C8810CE06B
:101FC000A348B0F89E00A3494881A148B0F88C000E
:101FD00088819F48B0F88C00C881CBE29C48B0F85B
:101FE00084009C4908809A48B0F8AA004880984824
:101FF000B0F8B40088809648B0F8B400C88094481F
:10200000B0F8400008819448408B60B19048B0F827
:10201000400048818E48B0F89E0088818C48B0F816
:102020009C00C8810CE08A48B0F89E00894948812C
:102030008748B0F88C0088818548B0F88C00C8814A
:1020400098E28348B0F84000824908808048B0F8A0
:10205000980048807E48B0F89E0088807C48B0F8A0
:102060008600C8807A48B0F8400008817A48808BA2
:1020700060B97748B0F89E0048817548B0F88C0088
:1020800088817348B0F88C00C8811EE07248808B4C
:1020900001280DD16E48B0F89E006E4948816C4809
:1020A000B0F89C0088816A48B0F86200C8810CE0F2
:1020B0006748B0F89E00674948816548B0F89C00C1
:1020C00088816348B0F86400C88153E26048B0F882
:1020D0004000604908805E48B0F8400048805C4895
:1020E000B0F8920088805A48B0F88800C8805A49F1
:1020F000C98B88B200231A4656490831FEF77AFF89
:102100005348B0F840005349088133E25048B0F8D2
:10211000BE00504908804E48B0F8A60048804C48A0
:10212000B0F88A0088804A48B0F8A800C8804848BB
:10213000B0F8400008814648B0F840004881444863
:10214000B0F8400088814248B0F86400C88111E2CC
:102150003F48B0F882003F4908803D48B0F89800F9
:1021600048803B48B0F85A0088803948B0F8900061
:10217000C8803949098C88B20023012235490831C9
:10218000FEF738FF3248B0F8400032490881F1E1EB
:102190002F48B0F882002F4908802D48B0F89800E9
:1021A00048802B48B0F85A0088802948B0F8980039
:1021B000C8802949498C88B2002301222549083169
:1021C000FEF718FF2248B0F85A0022490881D1E1F1
:1021D0001F48B0F890001F4908801D48B0F88600DD
:1021E00048801B48B0F85A0088801948B0F8900021
:1021F000C8801949898C88B2002301221549083109
:10220000FEF7F8FE1248B0F8860012490881B1E1E5
:102210000F48B0F890000F4908800D48B0F88600CC
:1022200048800B48B0F85A0088800948B0F89800F8
:10223000C8800949C98C88B20023012205490831A8
:10224000FEF7D8FE0248B0F886000249088191E105
:102250003C85000864020020BC000020C648B0F89D
:10226000A600C6490880C448B0F89E004880C2480D
:10227000B0F88C008880C048B0F8A800C880C04979
:10228000098D88B200231A46BC490831FEF7B2FE18
:10229000B948B0F8A800B9490881B748B0F840007B
:1022A000488167E1B448B0F8A600B4490880B24854
:1022B000B0F89E004880B048B0F88C008880AE48E6
:1022C000B0F8A800C880AE49498D88B20023012229
:1022D000AA490831FEF78EFEA748B0F88200A74948
:1022E000088147E1A448B0F8A600A4490880A248A4
:1022F000B0F8A8004880A048B0F8840088809E48C4
:10230000B0F8B200C8809E49898D88B200230222AD
:102310009A490831FEF76EFE9748B0F8A800974931
:10232000088127E19448B0F8A600944908809248B3
:10233000B0F8A80048809048B0F8840088808E48A3
:10234000B0F8B200C8808E49C98D02E037E082E063
:10235000D2E088B20023022288490831FEF74AFE03
:102360008548B0F8A0008549088103E18248B0F8AB
:102370005A00824908808048B0F88A0048807E4828
:10238000B0F8A40088807C48B0F85A00C8807C4926
:1023900091F8420000F058FAECE000231A46774921
:1023A00078480088FEF726FE7549098E88B200231A
:1023B0001A4672490831FEF71DFEDBE0D9E06E488F
:1023C000B0F8BE006D4908806B48B0F8A6004880A0
:1023D0006948B0F88A0088806748B0F8A800C880CB
:1023E0006548B0F8400008816348B0F84000488173
:1023F0006148B0F8400088815F48B0F86600C88145
:10240000B8E000E028E05C48B0F840005B49088094
:102410005948B0F8400048805748B0F840008880DC
:102420005548B0F86200C880A4E05348B0F84000B6
:10243000524908805048B0F8400048804E48B0F8F3
:10244000400088804C48B0F86400C88092E001E009
:1024500024E03AE08EE08DE04748B0F8BE004749FE
:1024600008804548B0F8A60048804348B0F88A0084
:1024700088804148B0F8A800C8803F48B0F84000C4
:1024800008813D48B0F8400048813B48B0F8400022
:1024900088813948B0F86800C8816BE03848D0F8C6
:1024A000D4000A21B0FBF1F086B2002302223349A6
:1024B0003046FEF7CBFE3249C98E88B200231A4659
:1024C0002E490831FEF796FD54E02D48D0F8D4008F
:1024D0000A21B0FBF1F086B20023022227493046E0
:1024E000FEF7B4FE2649098F88B200230322234950
:1024F0000831FEF77FFD3DE02148B0F97C000A215C
:1025000090FBF1F6002E01DB304600E0704287B20E
:102510000023012219493846FEF76CFD1848B0F92E
:102520007C00002816DA1648B0F97C00642190FB84
:10253000F1F6002E01DB304600E0704287B2002346
:102540001A460E493846FEF755FD0B48B0F85A00BA
:102550000A4948800848B0F88A00084908800849B4
:10256000498F88B200231A4604490831FEF742FD1C
:1025700000E000BF00BFF0BD3C8500086402002001
:10258000BC0000203000002010B5002400211E48AF
:1025900001834FF4487141870021C1864FF47A715D
:1025A00001871421018601218182418300218183D9
:1025B0004FF4FA61C187891001844184A02181848C
:1025C0000221C18401210185C821418564218185C1
:1025D0003221C1850021C18300BF08E0002204F13F
:1025E0001B0009490E3121F81020601CC4B2142CC4
:1025F000F4DBAA200449C88100231A46642102485A
:102600000E30FEF799FB10BDBC000020704701465C
:1026100005E0002001E0421CD0B2FF28FBDB0A00ED
:10262000A1F1010399B2F4D1704700000D2874D2D2
:10263000DFE800F0734F6107B0C4741F37889CD87F
:10264000EC007E49897A022912D07D49B1F8A810A0
:102650007C4A11807A49B1F8861041F400415180DA
:102660007749B1F89E1091807549B1F8A010D180DA
:10267000E1E07249897A022912D07149B1F8A810B3
:10268000704A11806E49B1F8861041F400415180C2
:102690006B49B1F8A61091806949B1F8A810D180B2
:1026A000C9E06649897A022912D06549B1F8A810B3
:1026B000644A11806249B1F8861041F400415180AA
:1026C0005F49B1F8A41091805D49B1F88A10D180BA
:1026D000B1E05B49B1F882105A4A11805849B1F80B
:1026E000981051805649B1F85A1091805449B1F868
:1026F0009010D1809FE05249B1F88210514A118068
:102700004F49B1F8981051804D49B1F85A10918055
:102710004B49B1F89810D1808DE08BE04849B1F871
:102720009010484A11804649B1F8A81041F4004180
:1027300051804349B1F89E1091804149B1F8A010F1
:10274000D18078E03E49B1F890103E4A11803C4972
:10275000B1F8A81041F4004151803949B1F8A610F0
:1027600091803749B1F8A810D18064E03449B1F8BC
:10277000A810344A11803249B1F8A41041F4004144
:1027800051802F49B1F8A61091802D49B1F8A810B9
:10279000D18050E02A49B1F88C102A4A118028498A
:1027A000B1F8AA1041F4004151802549B1F85A10FE
:1027B00091802349B1F86210D1803CE02049B1F802
:1027C0008C10204A11801E49B1F8AA1041F4004132
:1027D00051801B49B1F85A1091801949B1F8641021
:1027E000D18028E01649B1F89010164A118014499A
:1027F000B1F8861041F4004151801149B1F8A4109C
:1028000091800F49B1F88A10D18014E00C49B1F8D9
:1028100086100C4A11800A49B1F8901041F4004129
:1028200051800749B1F8961091800549B1F85A10C6
:10283000D18000E000BF00BF70470000BC00002056
:102840003C8500086402002010B5002100220A2304
:1028500090FBF3F33033D9B20A2390FBF3F403FB7C
:1028600014033033DAB21B4B33F811301A4C238186
:10287000184B33F812306381164BB3F85A30A381EA
:1028800000F11A03D9B2154B33F911300A2B04DDCC
:10289000104BB3F86030E3811BE0104B33F811307C
:1028A0000A2B0DD10B4BB3F85A300A4CB4F86240E6
:1028B0002343094CA381074BB3F86030E38108E060
:1028C000064B33F911303033024C34F81330024CDC
:1028D000E38110BD3C85000864020020CA0000208E
:1028E000F8B504460025022C74D10020F8498880F0
:1028F00008464078097801EBC10202EB011100EBB8
:102900008100CC2867D017DC6C287DD00BDC042834
:102910007BD003DC48B3032878D181E0642876D0EB
:102920006B28F9D1DCE0C82872D0C92871D0CA2838
:1029300070D0CB28F0D13BE1B0F5967F6BD008DCAE
:10294000A0F1CD00052861D2DFE800F0FBFAF9F82C
:10295000F700B0F5C87F7CD0A0F58070913879D0B1
:10296000012878D00228D7D1F5E1D948808B0228F8
:1029700003D10320D649C88001E2D548408A88B9EE
:1029800000200090D248B0F8AC0082B2012341F29E
:1029900094114FF4C87003F039FF00B2CC49A1F88C
:1029A000AC0010E000200090C948B0F8AC0082B242
:1029B000012342F2E4014FF4826003F027FF00B2EA
:1029C000C349A1F8AC00C248408A28B9C048B0F950
:1029D000AC500CE0D4E103E1BD48B0F9AC00A0F587
:1029E000A07000EB8000092190FBF1F005B2B8481F
:1029F000C5871820B64908813220B6490880B448F6
:102A000090F8E200032807E081E04FE0B6E15AE0E9
:102A100098E09BE0B3E072E101D101F013FCAEE17C
:102A2000AB48808B18B10320A949C880A7E1A8480A
:102A3000408AF8B9A648B0F9AC0000EB401000EBB2
:102A40004000642190FBF1F086B200200090A04885
:102A500002E058E15BE16BE1B0F8760082B201235D
:102A600031464FF4C87003F0D1FE01B29848A0F887
:102A700076101AE09648B0F9AC0000EB401000EB7D
:102A80004000642190FBF1F086B200200090904855
:102A9000B0F8760082B2012331464FF4826003F031
:102AA000B5FE01B28A48A0F8761068E100200090D7
:102AB00087488289012340F2E731002003F0A6FE17
:102AC000834988815BE18248C08BB0F55E7F03D18A
:102AD00004207F49087002E002207D4908704EE121
:102AE0007B48408840F0F000794948800846808B58
:102AF00030B10846808B401E01B27548818302E0E8
:102B000002217348818307207149088137E17048A9
:102B1000808B18B103206E49C88030E100200090FE
:102B20006B48C08B82B200234FF47A71184603F0D1
:102B30006DFE01B26648C18321E1CDE0B0E098E0CE
:102B40007EE065E001206249087018E16048808BF2
:102B500018B103205E49C88011E1002000905C4854
:102B6000008C82B2002340F2E7311E2003F04EFEBB
:102B700001B257480184092055490881FFE05448B3
:102B8000808B18B103205249C880F8E001200090E2
:102B90004F48408C82B2002340F2E7311E2003F000
:102BA00035FE01B24A4841840A2049490881E6E0DD
:102BB0004748808B18B103204549C880DFE00020DA
:102BC00000904348808C82B20023FA21642003F0F5
:102BD0001DFE01B23E4881840B203D490881CEE0B4
:102BE0003B48808B18B103203949C880C7E00020DA
:102BF00000903748C08C82B200230A21184603F0A7
:102C000005FE01B23248C1840C2031490881B6E08A
:102C10002F48808B18B103202D49C880AFE00020D9
:102C200000902B48008D82B200231E21184603F02D
:102C3000EDFD01B2264801850D20254908819EE061
:102C40002348808B18B103202149C88097E00020D9
:102C500000901F48408D82B200234FF4FA71642027
:102C600003F0D4FD01B21A4841850E2018490881AD
:102C700085E01748808B18B103201549C8807EE095
:102C80001348808D82B2002340F2BF31184603F012
:102C90006FFD01B20E4881850F200D4908816EE05D
:102CA0000B48808B18B103200949C88067E00020D9
:102CB00000900748C08D82B200236321184603F0BC
:102CC000A5FD01B20248C18510200149088156E0E6
:102CD000BC00002040000020002000902948B0F8EF
:102CE000420082B200231421012003F08FFD01B2C3
:102CF0002448A0F842100020224948803FE00220EA
:102D0000204908703BE002201E49087037E000208F
:102D100000901C48C08E82B20023C821184603F0E0
:102D200075FD01B21748C18614201649088126E0B6
:102D3000002000901348008F82B200234FF4966168
:102D40004FF4487003F062FD01B20E480187152070
:102D50000C49088113E0002000900A48408F82B29D
:102D6000002340F214514FF42F7003F04FFD01B2D5
:102D70000448418716200349088100E000BF00BFD6
:102D8000F8BD0000BC00002010B56348006810F0DA
:102D9000400F7DD04020604908606048C08A18B16B
:102DA0005F480078642831DA5C48B0F9820040F26C
:102DB000E731884224DA4FF08040808A40F00100F9
:102DC0004FF080418882554AB2F8EC10B2F8822068
:102DD00090B20122FEF7E0F84FF0804188854FF66F
:102DE000FE7008824D48B0F8820020B10846008885
:102DF00040F0010008804FF480704A49086037E0D5
:102E00004FF480704749091F086031E04348B0F82B
:102E1000EE0078B9414AB2F8EC10B2F8822090B2D4
:102E20000022FEF7B9F83D49A1F8F2004FF4807096
:102E30003C4908603948B0F8EE10B0F8EE00401C8C
:102E4000364AA2F8EE001046B0F8F200814204D1F2
:102E50004FF480703349091F08604FF08040808A2A
:102E600040F001004FF0804188824FF6FE700882EA
:102E70002A4890F8EA0064284CDA284890F8E800DC
:102E8000401CC0B2254981F8E8000A2842D100E080
:102E900040E0084690F8EA000A2810DDB1F8E41096
:102EA000214A92FBF1F11D4AB2F8EC20881800EBA0
:102EB000D071C1F34F01194AA2F8EC1008E017488D
:102EC000B0F8E400184991FBF0F01449A1F8EC00C7
:102ED0001248B0F8EC006E2804DC64200F49A1F819
:102EE000EC0003E078200D49A1F8EC000B48B0F8A5
:102EF000EC00052190FBF1F00849A1F8F600084626
:102F000090F8EA00401C81F8EA000020A1F8E400F3
:102F100081F8E80010BD000014040140BC0000204E
:102F200027000020140C0140A08601000149086020
:102F300070470000140401400EB50121084601F05D
:102F400079F80621002000F013F94020FFF7EEFF8A
:102F50004020019000208DF8080008208DF809001D
:102F600001208DF80A0001A800F018F80A4800684E
:102F700020F040000849086017208DF8000000206C
:102F80008DF8010001208DF802008DF803006846DD
:102F900000F0C0FF0EBD00000404014000212349E1
:102FA0008279002A3AD00A46126803689A430B468F
:102FB0001A600A1D126803689A430B1D1A60027991
:102FC00011440A6803681A430A60184A08321268F2
:102FD00003689A43154B08331A601A1D1268036878
:102FE0009A43124B0C331A604279102A0ED11A1FE1
:102FF000126803681A430D4B08331A601A1D1268D1
:1030000003681A43094B0C331A600DE007494279F3
:1030100011440A6803681A430A6005E00279114402
:103020000A6803689A430A60704700000004014080
:1030300008B50121084600F0FDFF4848406800F04F
:10304000E060464948600846406840F000704860CB
:103050000121082000F0EEFF02208DF802004FF45D
:10306000C850ADF8000010208DF8030069463C48B8
:1030700000F09EF840F23E60ADF8000048208DF868
:1030800003006946364800F093F80121042000F05F
:10309000D1FF0720ADF8000014208DF80300694629
:1030A000304800F085F83820ADF8000000208DF899
:1030B000030069462B4800F07BF84FF40640ADF85A
:1030C000000048208DF803006946264800F070F89B
:1030D0004FF48650ADF8000004208DF803006946D7
:1030E000204800F065F84FF41060ADF800001020A3
:1030F0008DF8030069461B4800F05AF801211020A2
:1031000000F098FF4FF6FF70ADF8000010208DF82A
:1031100003006946144800F04BF80721114800F0FD
:103120001BF90121202000F085FF0420ADF80000EC
:1031300048208DF8030069460C4800F039F84FF438
:103140008051074800F006F94FF48071044800F000
:1031500001F90021044800F001F908BD0000014018
:10316000000C014000080140001001400014014023
:1031700030B500228B071C0F0F2303FA04F20B4B10
:103180008C1053F824309343084C8D1044F82530AC
:1031900023468C1053F824308C07240F00FA04F4D3
:1031A0002343024C8D1044F8253030BD0800014007
:1031B0002DE9F041024600250026002000230024CE
:1031C000002791F803C00CF00F0591F803C01CF024
:1031D000100F03D091F802C04CEA050591F800C029
:1031E000BCF1000F31D0146800202BE04FF0010C2F
:1031F0000CFA00F3B1F800C00CEA03069E4220D19D
:1032000083004FF00F0C0CFA03F7BC4305FA03FCE4
:103210004CEA040491F803C0BCF1280F06D14FF02A
:10322000010C0CFA00FCC2F814C00AE091F803C0CB
:10323000BCF1480F05D14FF0010C0CFA00FCC2F8AC
:1032400010C0401C0828D1D31460B1F800C0BCF1F4
:10325000FF0F34DD546800202EE000F1080C4FF021
:10326000010808FA0CF3B1F800C00CEA03069E420C
:1032700021D183004FF00F0C0CFA03F7BC4305FA81
:1032800003FC4CEA040491F803C0BCF1280F05D1FB
:1032900000F1080C08FA0CF8C2F8148091F803C089
:1032A000BCF1480F07D100F1080C4FF0010808FAF3
:1032B0000CF8C2F81080401C0828CED35460BDE83A
:1032C000F0810000F0B50A4600230024002100250B
:1032D00000F00046B6F1004F02D11D4EF16901E049
:1032E0001B4E7168C0F3034583B200F44016B6F577
:1032F000401F08D121F07061154E766826F0706687
:10330000134F7E6012E000F48016B6F5801F06D1E0
:10331000032606FA05F4A14341F0706106E0460D6C
:10332000360103FA06F6B14341F0706122B1460D51
:10333000360103FA06F6314300F00046B6F1004FBD
:1033400002D1034EF16101E0014E7160F0BD000059
:10335000000001404161704701617047C1607047E2
:1033600010B5014600223148314B1B6850F823004C
:1033700088421CD300BF17E02D480068202803D1E5
:103380002A48D0F8801011E02848294B1B6850F8D3
:103390002300884205D326480068401C244B18604F
:1033A00000E003E0501C42B2212AE5DB1EE00022CF
:1033B00014E01E481E4B1B6850F82300884205D8B5
:1033C0001B480068401E1A4B186000E008E01848CF
:1033D0000068012800D103E0501C42B2212AE8DB3A
:1033E00000BF13480068401C114B1860104800686B
:1033F000401E0E4B53F820000D4C246853F8243027
:10340000C31A0A480A4C246850F82400081A4FF4DA
:10341000FA746043B0FBF3F3054800686043A0F51D
:1034200098508838C11A08B210BD0000F496000800
:103430004400002030B5044600230CB90B4B00E0DB
:103440000B4B33F81250501E33F81000281A4FF46B
:103450007A7555436D1A68434FF47A7590FBF5F011
:1034600033F81250281A01B2084630BDDC95000826
:103470006896000870B50B460BB9314900E0314938
:10348000314C246831F81440844222DC00221DE0D3
:103490002D4C246831F81440844205DC2A4C246801
:1034A000641C294D2C6005E0274C2468641E264DC1
:1034B0002C600DE0244C2468452C05DDB1F88A0011
:1034C0004524214D2C6003E0541CE2B2462ADFDB88
:1034D0001BE0002216E01C4C2468012C03DA0124B6
:1034E000194D2C6010E0184C246831F814408442C7
:1034F00005DB154C2468641E134D2C6000E003E0CE
:10350000541CE2B2462AE6DB00BF0F4C246831F8B7
:1035100014500D4C2468641E31F814402D1B0A4CC5
:10352000246831F81440241A42F21076744394FB54
:10353000F5F5054C246836117443C5EB041070BDD5
:10354000DC95000868960008480000202DE9F0414D
:103550001D48D0F8CC001C49B1F8E0104900B0FB80
:10356000F1F084B2072C01DA002401E0E01F84B2FC
:10357000B4F5E17F0FDA2046FDF744F80546134A1B
:10358000134BFCF744FF0746FDF75DF801B20E4808
:10359000A0F880100EE02046FDF734F805460D4AED
:1035A0000D4BFCF734FF0746FDF74DF801B2064816
:1035B000A0F8801000210448C0F8CC100020024977
:1035C000A1F8E000BDE8F081BC000020713D0AD701
:1035D000A370F53F5C8FC2F5285CF33F2DE9F04105
:1035E00006460024002500274948D0F8C850B0F806
:1035F000DE70642F05DD0021A0F8DE10C0F8C810D1
:1036000001E0BDE8F08195FBF7F54148B0F93A00DB
:10361000684300EB8000400040F61E41491B90FBD0
:10362000F1F5002406E0601C36F8100026F81400BE
:10363000601C44B2092CF6DB2846FFF791FE70822D
:10364000718A3348A0F87C100025002404E036F984
:1036500014000544601C44B20A2CF8DB0A2095FBD8
:10366000F0F52B48B0F97A00A84208DA2848B0F8FB
:103670007A00801C01B22648A0F87A100CE0244899
:10368000B0F97A00A84207DD2148B0F87A00801E20
:1036900001B21F48A0F87A101D48B0F97A0041F62F
:1036A0009021884203DD1A48A0F87A100AE01848F1
:1036B000B0F97A0010F5FA6F04DA4FF630011448C9
:1036C000A0F87A101248B0F97A00002812DD1048EC
:1036D000B0F97A004FF47A7190FBF1F044B20C48E3
:1036E000B0F97A0090FBF1F201FB120018B1601CF6
:1036F00044B200E00124E2B2054BB3F97A10B3F909
:103700001000FFF797FE0249C1F8D00000BF78E72C
:10371000BC0000202DE9F04F89B00646002008903B
:103720000590069007900025834600248146824636
:10373000F148D0F8C490B0F8DCA0BAF1640F06DD0F
:103740000020ED49A1F8DC00C1F8C40002E009B096
:10375000BDE8F08F99FBFAF0E749A1F8AE00084602
:10376000B0F9360000FB0AF4A14502DDA9EB04091B
:1037700001E04FF000094FEA0A30FCF729FFDE496B
:103780000490B1F93800FCF723FF03904846FCF79A
:103790001FFF4FF084410190FCF71CFD029003993C
:1037A000FCF718FD80460499FCF74AFD0746FCF734
:1037B00036FFD149C1F8D4000846D0F8D400D1F87A
:1037C000D0104418002506E0681C56F8200046F882
:1037D0002500681C45B2042DF6DBC748B0F910106F
:1037E0002046FFF747FE30610024002504E056F82C
:1037F00025000444681C45B2052DF8DB322094FBFB
:10380000F0F4BD48C0F8A0400146D1F8A810601AF5
:1038100001D4014600E04142042902DDB648C0F867
:10382000A840B548B0F97840D0F8A8000A2190FB2C
:10383000F1F001B2B048A0F878100146B1F9741067
:10384000081B01D4014600E041420C46642C00DD17
:1038500064244FFA84FBA84890F8E200042833D18E
:10386000A548B0F93E00A549B1F90010884206D03C
:103870000120A34908700020A249087027E09E4853
:10388000B0F93E00A049B1F90010884206DC9A4820
:10389000B0F97810B0F93E0081420EDD9648B0F9DB
:1038A0003E009949B1F90010884210DB9248B0F906
:1038B0007810B0F93E00814209DB0120934908707D
:1038C00002209049087002E001208D4908708A4862
:1038D000B0F878008C4908808748C08F87490880F5
:1038E0008549B1F97820B1F93E10501A01D401464A
:1038F00000E041420C46322C09DD0120804908706D
:1039000080480078022802D101207E490870642C8A
:103910000CDD7949B1F97800FCF75AFE7C49086062
:1039200000207A49087076490870D2E0744800781F
:10393000012831D1BBF1020F20DD0BF10500FCF7AE
:1039400047FE6D490490B1F9781001EB8100FCF756
:103950003FFE03905846FCF73BFE02906C4801681E
:103960000298FCF737FC80460399FCF7DBFB07461F
:103970000499FCF765FC6649086009E05E49B1F905
:103980007800FCF725FE6249086000205C49087059
:1039900000205E4908709CE0574890F8E200042837
:1039A00072D15A48007880B35348B0F97810B0F912
:1039B0003E00081A05900598322805DD0598323832
:1039C0000790322005900CE0059810F1320F06DACE
:1039D0000598323007906FF03100059001E000202B
:1039E000079005980A2805DB05980A3806900A20F2
:1039F00005900DE0059810F10A0F07DC05980A30D4
:103A000006906FF00900059002E011E0002006909A
:103A10000521059890FBF1F00322069991FBF2F144
:103A20000844079901443448B0F93E000C1802E0FC
:103A30003148B0F978403049B1F97410081B01D40D
:103A4000014600E0414205910598052803DD4FF04D
:103A50007A5008900DE00598032802DD2D48089063
:103A600007E00598022802DD2B48089001E02B486A
:103A700008902448007840B91F49B1F97800FCF754
:103A8000A7FD2349086024E019E01B48B0F9740041
:103A9000A04207DD1E4808990068FCF795FB1C4909
:103AA000086016E01448B0F97400A04211DA184812
:103AB00008990068FCF736FB1549086009E00E49D3
:103AC000B1F97800FCF784FD1149086000200F4926
:103AD00008700F480068FCF7EEFD0746104A114BCE
:103AE000FCF7EEFBCDE90201FCF7ADFD01B20248A7
:103AF000A0F8741000BF2AE6BC000020520000208D
:103B00001F0000201E000020540000202000002084
:103B100058000020CDCC4C3E9A99193ECDCCCC3DDE
:103B20009A9999999999E93F0448B0F93E0000EBB8
:103B3000800040000149C1F8A4007047BC0000208B
:103B400000BFFEE710B5044674B94FF480510E482B
:103B5000FFF700FC4FF4FA500C49086000BF0B4817
:103B600000680028FBD10EE0012C0CD1210306488F
:103B7000FFF7F2FB4FF4FA500449086000BF034816
:103B800000680028FBD110BD000C0140340000206B
:103B90000A2001E0411EC8B20028FBD1704770B571
:103BA00005460C4645F2555000F028F8284600F02E
:103BB00019F8204600F01CF800F00CF800F002F8AC
:103BC00070BD00004CF6CC40014908607047000011
:103BD000003000404AF6AA20014908607047000002
:103BE000003000400149486070470000003000404C
:103BF00001498860704700000030004001490860BA
:103C0000704700000030004010B500202E49A1F898
:103C1000EE0044F62060A1F8F000A1F8F200642064
:103C2000A1F8EC0001230022022127480E30FDF705
:103C300083F868B92448C089AA2807D10123002243
:103C4000642121480E30FDF777F801E0FEF79CFC77
:103C50001D48B0F91E00FF2802DD00211A48C1836B
:103C6000002119480183B0F92C00642190FBF1F088
:103C70004FF4616148431449B1F92C10642291FB5F
:103C8000F2F302FB1311C1EB011100EB810080B2D2
:103C90000D49A1F89A00A1F89A000846408A20B977
:103CA0000846C08FA1F8AC000DE00748B0F93E000F
:103CB00000EBC000052190FBF1F000F5A07000B210
:103CC0000149A1F8AC0010BDBC00002000BFFEE718
:103CD0002DE9FC4782460AF11900FCF782FC0646F2
:103CE0000022114B03F086FD044600224FF0804372
:103CF000FCF78DFB804600220C4BFCF782FBCDE9E4
:103D00000001FCF7A0FC8246BAF1960F02DD4FF0ED
:103D1000960A04E0BAF10A0F01DA4FF00A0A0FFA24
:103D20008AF0BDE8FC8700000000E03F000024406E
:103D30002DE9FF5F044689469246A9EB0A0101F589
:103D4000C870FCF745FC04F10A0101EB8101019008
:103D50008800FCF73DFC00900199FCF771FA83465E
:103D6000FCF7A9FC0022084BCDE9020103F042FD5B
:103D700007460022054BFCF74AFB0546FCF763FCAF
:103D800000B204B0BDE8F09F0000E03F0000344006
:103D9000322809D10021054A9180518011460978C5
:103DA00011B901211170517070470000BC00002052
:103DB00002287BDD282879DA00213D4A9180518054
:103DC0001146097831B101293CD0022948D0042993
:103DD0006AD15AE03649897A0A2291FBF2F302FB52
:103DE000131169B932494978022905DA304949780D
:103DF000491C2F4A517024E000212D4A517020E0C7
:103E00002B49897A0A2291FBF2F302FB1311012953
:103E100003D10321264A517013E02549897A0A22E9
:103E200091FBF2F302FB131102290AD120494978D0
:103E3000042903D102211E4A517002E004211C4AC8
:103E4000517032E01A494978082905DA1849497849
:103E5000491C174A517002E00021154A517024E0B4
:103E6000134949780A290CDA11494978491CC9B221
:103E70000F4A5170082907D101220D49A1F84220AB
:103E800002E000210A4A51700FE0094949780329EC
:103E900006DA07494978491C054A517003E005E0F4
:103EA0000021034A517000E000BF00BF70470000CE
:103EB000BC00002003281BD10021144A91805180AE
:103EC0001146097809B3002111701146897A11B998
:103ED000002151700AE00D49897A012903D103219B
:103EE0000A4A517002E00421084A5170FF200CE098
:103EF00032280AD10549097839B90221034A1170DB
:103F0000012151700021918051807047BC00002038
:103F10007047000070B5002100230F22C4780CB355
:103F2000164C246804F4E064C4F5E064210AC1F18D
:103F30000403CA40447804FA03F18478144021430E
:103F400009010F4C0678A155047804F01F050124DF
:103F5000AC4005786D114FF0E02606EB8505C5F8FD
:103F6000004109E0047804F01F050124AC40054D30
:103F70000678761145F8264070BD00000CED00E093
:103F800000E400E080E100E002490143024A1160E0
:103F9000704700000000FA050CED00E000B50220BB
:103FA0000A490860FFF7F4FD01200849091F08606D
:103FB000FFF7EEFD02200549091F0860FFF7E8FD45
:103FC000022002490860FFF7E3FD00BD140801402C
:103FD0007047000029B1064A52690243044B5A61F6
:103FE00004E0034A52698243014B5A617047000062
:103FF0000010024029B1064AD2690243044BDA613B
:1040000004E0034AD2698243014BDA617047000041
:104010000010024029B1064A12690243044B1A619A
:1040200004E0034A12698243014B1A6170470000A1
:104030000010024029B1064A92690243044B9A617A
:1040400004E0034A92698243014B9A617047000081
:104050000010024029B1064AD2680243044BDA60DC
:1040600004E0034AD2688243014BDA6070470000E3
:10407000001002400348406A40F0807001494862E5
:10408000704700000010024030B5002100220024DB
:1040900000232D4D6D6805F00C0121B1042905D0D8
:1040A000082923D105E0294D056022E0284D05604F
:1040B0001FE0254D6D6805F47012234D6D6805F401
:1040C0008034022505EB92421CB9224D5543056010
:1040D0000BE01D4D6D6815F4003F03D01E4D554398
:1040E000056002E01A4D5543056002E0174D05607A
:1040F00000BF00BF144D6D6805F0F0010909174DB0
:104100006B5C0568DD4045600F4D6D6805F4E0614E
:10411000090A124D6B5C4568DD4085600A4D6D688B
:1041200005F46051C90A0D4D6B5C4568DD40C56002
:10413000054D6D6805F44041890B094D6B5CC56800
:10414000B5FBF3F5056130BD0010024000127A00A6
:10415000001BB70000093D00808D5B008F00002030
:104160009F00002010B501460022002300204A11C4
:10417000012A02D1094C236806E0022A02D1074C29
:10418000236A01E0054C636A01F01F020124944098
:104190001C4201D0012000E0002010BD00100240B0
:1041A00010B5E124022013490860FFF7F1FC01205B
:1041B0001049091F0860FFF7EBFC02200D49091F99
:1041C0000860FFF7E5FC07E0601EC0B2040003D101
:1041D00000F024FC012010BD06480C38006810F0E7
:1041E000010FF1D1022003490860FFF7D1FC002044
:1041F000F1E700001408014000B50022082314E094
:104200005006020E02200E490860FFF7C1FC022092
:104210000B49091F0860FFF7BBFC09480C38006810
:1042200010F0010F01D042F001021800A3F10101CA
:10423000CBB2E5D1022002490860104600BD000063
:104240001408014000200E4948608860C860086179
:10425000C88208830B48D0F8A8000A2190FBF1F12E
:10426000074841620162C1610020054981F82800C8
:104270000420054981F8290000200449087070478E
:1042800000020020BC000020C40100201E0000200D
:1042900038B5002400209E490870084640789D49A2
:1042A000097888427ED19C480088012806D10022E6
:1042B0005B219848007802F0F5FE20E19448807870
:1042C0005C2838D104219248401CFDF78FF80090FB
:1042D0008F4840799DF801108842EED18C48807952
:1042E0009DF800108842E8D1894800798849C9784A
:1042F00000EB012084B289480088B8B98848408A18
:1043000050B9B4F5C87F11DB41F2941084420DDC42
:1043100021B28348C18709E0B4F5826F06DB42F21F
:10432000E400844202DC21B27D48C18779480078EC
:1043300003F050FFE3E076488078AA2816D10221E6
:104340007348401CFDF752F800907148C0789DF802
:1043500001108842B1D16E4800799DF80010884262
:10436000ABD16C48007803F035FFC8E0684880782E
:10437000AB28A2D105216648401CFDF737F8009014
:10438000634880799DF80110884296D16048C079D1
:104390009DF80010884290D15D48C078032808D06D
:1043A000042800E06EE02ED0052834D0072862D122
:1043B0003DE0574840795649097900EB012084B225
:1043C0005748408A78B9B4F5C87F1BDB41F2941096
:1043D000844217DC21B25248A0F8AC10C1871820E3
:1043E0004F4908810EE0B4F5826F0BDB42F2E40026
:1043F000844207DC21B24A48A0F8AC10C1871820DB
:104400004749088138E0424844790CB1012C01D178
:1044100044490C7030E03E4844790CB1012C05D180
:1044200021B23F48418202203D49088124E03848BA
:1044300040793749097900EB012084B23848408A35
:1044400060B9B4F5C87F15DB41F29410844211DCE9
:1044500021B23348A0F8AC10C1870BE0B4F5826FED
:1044600008DB42F2E400844204DC21B22C48A0F8CC
:10447000AC10C18700E000BF00BF2648007803F001
:10448000A9FE3CE022488078AB2838D1052120489D
:10449000401CFCF7ABFF00901D4880799DF801108F
:1044A00088422CD11A48C0799DF80010884226D144
:1044B0001748C078062822D115484079144909794F
:1044C00000EB012084B21648408A60B9B4F5C87F79
:1044D00015DB41F29410844211DC21B21048A0F89F
:1044E000AC10C1870BE0B4F5826F08DB42F2E40048
:1044F000844204DC21B20A48A0F8AC10C187002530
:1045000003E00020024948556D1C0A2DF9DB38BD37
:10451000A0020020380000202E00002040000020D3
:10452000BC0000203E0000207047000000B502469D
:10453000082319E0022011490860FFF729FB12F057
:10454000800F04D001200D49091F086002E00120FE
:104550000A490860FFF71CFB5006020E02200749BB
:10456000091F0860FFF714FB1800A3F10101CBB28B
:10457000E0D102200149086000BD0000140801409C
:1045800010B500F001F810BD0CB5002001900090AE
:104590003648006840F480303449086000BF334832
:1045A000006800F4003000900198401C01900098D1
:1045B00018B90198B0F5A06FF1D12C48006810F43B
:1045C000003F02D00120009001E000200090009800
:1045D000012849D12648006840F0100024490860AD
:1045E0000846006820F0030008600846006840F0B4
:1045F000020008601D4840681C4948600846406841
:1046000040F4605048600846406840F4E06048600C
:104610000846406840F4804048600846406820F4FE
:104620007C1048600846406840F410204860084606
:10463000006840F08070086000BF0C48006810F00F
:10464000007FFAD00948406820F00300074948601D
:104650000846406840F00200486000BF03484068D8
:1046600000F00C000828F9D10CBD00000010024039
:1046700000200240322834D11A49097829BB002190
:10468000184A918051801146897A022914DA11461C
:10469000897A491CC9B29172012910D11146B1F928
:1046A0003E10B2F92E205143642291FBF2F10AB27E
:1046B0000C49A1F8762002E000210A4A91720949CA
:1046C000897A19B90021074A51700AE00549897AA7
:1046D000012903D10321034A517002E00421014A58
:1046E00051707047BC000020022876DD282874DA5B
:1046F0004D490978012906D100214B4A11704B4AD6
:1047000082F8BA1070470021484A918011464978D2
:10471000127802EBC20303EB021201EB8201CC29F7
:104720004FD00FDC6C2950D005DCF1B103291DD02E
:10473000042974D141E0C92940D0CA293FD0CB29EE
:104740006DD13DE0D0293FD006DCCD295AD0CE290D
:1047500038D0CF2963D136E0A1F58071913906D0E8
:10476000012905D002295AD103E000BF00BF00BFD4
:1047700000BF2E494988802903D140212B4A51800E
:104780001AE02A494988402903D12021274A51802B
:1047900012E026494988202903D11021234A51805B
:1047A0000AE022494988102903D180211F4A5180FB
:1047B00002E040211D4A518032E000BF00BF00BF2F
:1047C00000BF00BF00BF00BF00BF18494988802953
:1047D00004D14021154A518013E022E01349498851
:1047E000402903D12021114A51800AE00F4949880C
:1047F000202903D180210D4A518002E040210B4A3B
:1048000051800DE009494988402904D18021074A97
:10481000518003E003E04021044A518000E000BFE2
:1048200000BF00BF6EE700003F000020BC0000207A
:1048300000B5012017490860642002F059FC0220ED
:1048400014490860642002F053FC124808380068DC
:1048500008B9012000E0002010F0010F01D0012074
:1048600000BD01200B49091D0860642002F040FCD6
:1048700008480838006810F0010F01D00120EFE768
:1048800002200449091D0860642002F031FC002068
:10489000E6E700001008014010B500245A48B0F8BF
:1048A00092005A4908805848B0F886004880564817
:1048B000B0F85A0088805648008A20B15248B0F8B3
:1048C0009600C88004E05048B0F894004F49C88072
:1048D0004F48C08AB8B14C48B0F840004B490881F5
:1048E0004948B0F8A60040F4004048814648B0F876
:1048F000A60040F4004088814348B0F8A40040F48A
:104900000040C88116E04048B0F840003F490881A7
:104910003D48B0F8A00040F4004048813A48B0F863
:10492000AE0040F4004088813748B0F89A0040F467
:104930000040C881002410E040F6D860FDF767FE13
:104940003448FEF74BFE3248B0F87C10A0F87A10DD
:104950003148FEF7DFFE601CC4B20A2CECDB2A48AB
:10496000B0F88600294908802748B0F890004880B0
:104970002748B0F91E000A2190FBF1F0C0B2303098
:10498000214931F81000214988802148B0F91E00E2
:104990000A2190FBF1F201FB1200C0B230301A493B
:1049A00031F810001949C8801748B0F8860008810E
:1049B0001548B0F88C0048811348B0F85A00888137
:1049C0001348408A20B11048B0F88C00C88104E038
:1049D0000D48B0F886000D49C881002410E040F66B
:1049E000D860FDF714FE0B48FEF7F8FD0848B0F854
:1049F0007C10A0F87A100848FEF78CFE601CC4B248
:104A00000A2CECDB10BD00003C8500087802002079
:104A1000BC000020DC020020C802002000B50220FB
:104A20000C490860642002F063FB0120094908601A
:104A3000642002F05DFB02200649091F0860642023
:104A400002F056FB01200349091F0860642002F0B0
:104A50004FFB00BD1408014010B5BC480088002879
:104A600004DDBA480088401EB8490880B84800688C
:104A700020B1B7480068401EB5490860B5480088B5
:104A8000002809DDB3480088401EB2490880084666
:104A9000008808B9FFF7FCFBAF480078002875DDF7
:104AA000AE480088322869D017DC17284AD00BDCC2
:104AB0000A2833D003DC28B3032868D12AE00D2864
:104AC00034D01428F9D135E01E283FD0212845D014
:104AD000282847D03128F0D14CE04F2871D008DC8D
:104AE0003B2855D03C2857D045285DD04628E4D1F6
:104AF0005EE0502869D0532871D05A2877D05C28BE
:104B0000DBD182E0964800889649C86096480088C4
:104B10000861B9E000209349C860B5E0904840883A
:104B20009049C860904840880861ADE000208D49F8
:104B3000C860A9E08A4880888A49C8608A48808815
:104B40000861A1E000208749C8609DE08448C088D2
:104B50008449C8608448C088086195E00020814984
:104B6000C86091E07E4800897E49C8607E4800891F
:104B7000086189E000207B49C86085E07848408969
:104B80007849C8607848408908617DE08BE07AE028
:104B900000207449C86077E0714880897149C86015
:104BA0007148808908616FE000206E49C8606BE041
:104BB0006B48C0896B49C8606B48C089086163E075
:104BC000FFE700206749C8605EE06548008A6549E4
:104BD000C86088156549086056E000E007E00020DD
:104BE0006049C86088156149091D08604CE05D484E
:104BF00040686FF30F005B4948600846406844F224
:104C000044410843574948603EE05648806810F4E4
:104C1000807F03D001205649087002E000205449EB
:104C200008705048806810F4007F03D0012051497B
:104C3000087002E000204F4908704A48806810F46C
:104C4000806F03D001204C49087002E000204A49DF
:104C500008704448806810F4006F03D00120474971
:104C6000087002E00020454908703E4840686FF334
:104C70000F003C4948600846406842F22221084340
:104C80003849486000E000BF00BF344800885C2815
:104C900003DB00203149088012E030480088401CC6
:104CA0002E4908800CE04FF480713548FEF752FB26
:104CB00000212C48FEF752FB00213248A0F8821058
:104CC0003148007800B910BD3048008844F62061B2
:104CD000884204DA2D480088401C2C490880294865
:104CE000B0F8E40042F20F71884206DA2548B0F8C5
:104CF000E400401C2349A1F8E40025480088B0F5F1
:104D0000967F05DA22480088401C2149088004E08B
:104D100000201F49088001F0D3F81E48006810F0F9
:104D2000040F0BD01C480078401CC0B21A49087010
:104D3000062808DD01201949088004E000201649F2
:104D400008701649088000BFBDE700002A00002057
:104D5000340000202C0000203E000020160000201F
:104D600078020020001001400200002010080140DD
:104D70002200002023000020210000202400002029
:104D8000000C0140BC000020000000201A000020A0
:104D90001C00002008140140140000202E000020F8
:104DA00010B5FFF759FE10BD10B5002100200022FC
:104DB000214B5B6803F00C0121B1042906D00829BE
:104DC00028D107E01D4B1E4C236027E01D4B1C4CD7
:104DD000236023E0184B5B6803F47010164B5B688C
:104DE00003F48032022303EB904022B9164B434375
:104DF000134C23600DE0104B5B6813F4003F04D0AC
:104E0000124B43430E4C236003E00E4B43430C4CC8
:104E1000236003E0094B0A4C236000BF00BF064B30
:104E20005B68C3F303130A4CE15C054B1B68CB4082
:104E3000034C236010BD00000010024000127A00F5
:104E4000A4000020001BB70000093D00808D5B001E
:104E5000A800002010B51348006840F00100114977
:104E6000086008464068104908400E4948600846F6
:104E700000680E4908400B4908600846006820F4A5
:104E8000802008600846406820F4FE0048604FF427
:104E90001F008860FFF774FB4FF000600449086052
:104EA00010BD0000001002400000FFF8FFFFF6FEFA
:104EB00008ED00E04FF08040008A10F0010F27D08D
:104EC00014480088002813DD4FF4807012490860F0
:104ED00010480088401E0F4908800846008818B90D
:104EE00000210E48A0F8821007200D4908800AE032
:104EF0000C480078012803D100020749086002E04D
:104F00000120084908704FF6FE704FF0804108827A
:104F10007047000028000020100C0140BC00002059
:104F20002A0000205000002021B1028842F08002B7
:104F3000028004E002884FF67F731A4002807047B7
:104F4000CA43028270471AB183890B43838102E00E
:104F500083898B4383817047002202881D4B9842CE
:104F60000ED01D4B98420BD0B0F1804F08D01B4B98
:104F7000984205D01A4B984202D01A4B984204D15D
:104F80004FF68F731A404B881A43174B984207D03D
:104F9000164B984204D04FF6FF431A40CB881A4371
:104FA00002808B8883850B8803850A4B98420BD03F
:104FB000094B984208D00E4B984205D00D4B9842B1
:104FC00002D00D4B984201D10B7A038601238382D4
:104FD00070470000002C01400034014000040040F4
:104FE00000080040000C0040001000400014004089
:104FF0000040014000440140004801402DE9F84FC5
:10500000FE48007864287DDAFC480078401CFB49A3
:10501000087008460078012802D1FEF797FACFE021
:10502000F64800780228FAD0F448007803280FD117
:10503000FEF78CFAF248B0F98000B0F5967FEEDB0F
:105040000A20EF4981F8BA002020EC490870B7E047
:10505000EA4800781E282BDAFEF778FAE848B0F91B
:1050600082000A2808DAE648B0F88200401C01B243
:10507000E348A0F88210A3E0E148B0F98200642878
:1050800008DADF48B0F882000A3001B2DC48A0F844
:10509000821095E01E20D9490870D948B0F88000E8
:1050A0000028BCD14FF4FA71D548A0F8821087E0EF
:1050B000D2480078202802D1FEF748FA80E0CF4895
:1050C000007821280DD1FEF741FACE484068CD493D
:1050D0008860084600684860C948D0F8A0000860A9
:1050E0006EE0C648007822280FD1FEF72FFAC54897
:1050F0004068C4498860084600684860C048D0F8E5
:10510000A00000E06BE008605AE0BC48007823286B
:1051100030D1BC484068BB49886008460068486098
:10512000B748D0F8A00008600020B7490870B4481C
:10513000008DC0EB0010800000EB8000401CB349E4
:105140008882AF48B0F89A0000EB8000B049088030
:10515000FEF7FCF9AA48B0F8A000AE490880A848BC
:10516000B0F88200AC49088040F2E731A448A0F8CA
:10517000821025E0A1480078272821D1FEF7E6F922
:105180009F49B1F98000FBF723FA8246FBF793FAB7
:1051900080460022A14BFBF73AF906460022A04BBD
:1051A000FBF7A7F90446FBF76DFA9E4908809A4879
:1051B000008801B29248A0F8821064208F490870DC
:1051C0009948FEF70BFA8E48B0F87C10A0F87A10D8
:1051D0009648FEF79FFA002095490870F4E3874847
:1051E00000786428FADBFEF79FFC8548B0F882005F
:1051F000904908808C48FEF7F1F98C48FEF78AFA4E
:105200008D48007804280AD17E4840687D4988602E
:105210000846006848607A48D0F8A00008608648D0
:105220000078032817D17948416A01620146496A2A
:10523000734AD2F8A820881A01D4014600E04142FE
:10524000092904DD6E48D0F8A810704841626F4803
:105250001C30FBF735FD6A48807A00287ED168480B
:1052600090F8E200C8B96648D0F8A4006449D1F8C3
:10527000A810401A40F2DC5188420ADC0420604940
:1052800081F8E2000020614981F829006B4908603B
:1052900003E001205A4981F8E200594890F8E20001
:1052A00000287DD0564890F8E200012869D157487F
:1052B000808A90B35248B0F9820040F2E7318842C8
:1052C00011DA5248808A052190FBF1F14C48008D9B
:1052D000C0EB0010C1EB80014948408D084401B289
:1052E0004748A0F882104948808A401E4749888272
:1052F0004348D0F8A410D0F8A800B1EB400F02DC6E
:105300000020424988823E48D0F8A80042F210713D
:10531000884202DD00203D4988823C48808A50BB9B
:105320003748D0F8A410D0F8A800B1EB400F11DC3A
:105330000120364981F828000220314981F8E20035
:105340000846D0F8A8003E49086040F2E7312C48F2
:10535000A0F882102A48B0F9820000E04CE340F245
:10536000E631884208DA2648B0F88200801C01B293
:105370002348A0F8821004E040F2E7312048A0F86A
:1053800082101F4890F8E20002287DD11F4890F853
:10539000280001282AD11A48D0F8A800284900E09E
:1053A00051E20968401A274908601548D0F8A4005E
:1053B000096801EB8101B0EB810F04DD2148006831
:1053C000B0F57A7F0DDB0220104981F8280000201B
:1053D0001B4988844EF66020C8600948D0F8A800B0
:1053E000086040F2E7310648A0F88210074890F8BC
:1053F000280002287ED10021014825E02700002056
:10540000BC000020F00200201F000020C40100208A
:105410006C000020600000207400002000806B40C1
:105420000000594030000020DC020020C8020020AB
:105430001E0000205E0000206E000020640000209E
:105440003C02002068000020A0F88210FE48808CFA
:105450000F287DDBFD49D1F8A810FB4A1268881A95
:1054600001D4014600E04142F74A928C42F6F8230B
:105470005A4392FBF1F1F64A1160F348C0681146B5
:105480000968884205D900E071E010460068EE49DD
:10549000C860ED48C068EE490968884208D3ED4805
:1054A00090F8290020B1EB4890F82900032858D142
:1054B000E648008B012802D10021E4480183042042
:1054C000E24981F8E2000820E24981F82800DE493B
:1054D000C868FEF7FDFBDD490886012081F8E3007E
:1054E000DD480088B0F5967F10DAB1F93000FBF79F
:1054F00078F800E0ABE006460022D84BFAF787FFC9
:105500000446FBF7A0F801B2D0480186D2480088D3
:10551000B0F52F7F17DACD49B1F93000FBF761F80C
:1055200006464FF06632CE4BFAF771FF0446FBF7A2
:105530008AF801B2C5480186B0F930001E2802DDA4
:105540001C21C2480186002322220221BF4800E01C
:1055500007E03030FBF7F0FB0020BB49C884C149AD
:105560000860B948808C401CB74988841AE1B74864
:1055700090F8E2000328F9D1BB4890F82800D8B988
:10558000B248D0F8A400B149D1F8A810884205DD8E
:1055900040F2E731AD48A0F8821003E00021AB48AB
:1055A000A0F88210AB4890F829000128DED10B202A
:1055B000AD4981F82800F5E0A448D0F8A410D0F84F
:1055C000A8000A30814205DD40F2E7319F48A0F88B
:1055D00082100BE09D48D0F8A810D0F8A4000A3043
:1055E000814203DD00219948A0F882109E4890F87E
:1055F00028000A287EDD9C4890F828000B2809D155
:10560000944890F829000028B0D10C20964981F8E0
:105610002800C7E0944890F828000C2809D18D484C
:1056200090F829000128A1D10D208F4981F8280088
:10563000B8E08D4890F828000D2809D1854890F8E9
:105640002900002803D10E20874981F82800A9E00D
:10565000854890F828000E280DD17E4890F8290042
:10566000012807D11020804981F828007748D0F818
:10567000A800C86096E07C4890F8280010287CD1EB
:105680007948C08A401C7849C882724890F829003D
:10569000002873D1112081F8280000216B48018374
:1056A000D0F8A800704948600420684981F8E200F9
:1056B0000846008E6D4908806B4BDA685968D88AB5
:1056C000FEF736FB61490886012081F8E300624855
:1056D0000088B0F5967F10DAB1F93000FAF781FF53
:1056E000064600225D4BFAF792FE0446FAF7ABFF3E
:1056F00001B200E052E05548018657480088B0F5F5
:105700002F7F17DA5149B1F93000FAF76AFF0646E0
:105710004FF03332564BFAF77AFE0446FAF793FF0E
:1057200001B24A480186B0F930001E2802DD1C2172
:10573000464801864548008E40B14448B0F93000E3
:105740004A49098801EB4101884204DD4748008845
:1057500001B23E4801860023222202213B4830301C
:10576000FBF7EAFA3948D0F8A4003849D1F8A81074
:10577000401A3649B1F9301001E00AE012E000FBAE
:1057800001F404EBD4714810FAF722FF35490860A0
:1057900008E00B20344981F8280003E00B2032494F
:1057A00081F82800294890F8E20004284BD12748C6
:1057B000D0F8A410D0F8A800B1EB400F07DD00200E
:1057C000244981F82800214981F8E20024E01F489B
:1057D00090F8E30000BB1D48D0F8A40000EB800166
:1057E00001EBC0001949D1F8A81001EB8101B0EB21
:1057F000810F0ADC1548D0F8A4001449D1F8A8108C
:10580000401A41F29411884206DD0020114981F8C6
:1058100028000E4981F8E2000C48008B01282CD1A9
:105820000A48D0F8A4000949D1F8A810401AB0F5E8
:10583000FA7F22DA0320054981F8E200FEF702FD33
:105840000020044916E09AE03C020020BC00002041
:1058500068000020C4010020300000200000E03F6C
:105860006666E63F6400002000020020760000200B
:105870003333E33F81F82A00B6E0FB480078042880
:105880007DD1FA48D0F8A800F84D0090D5F8A430A2
:10589000F74D6A682968F54DB5F93000FBF73EFF12
:1058A0000446F44801682046FAF73CFCF1490860D8
:1058B0002846D0F8A4002946D1F8A810401A294655
:1058C000B1F930104843EC4908600021E94800680C
:1058D000FAF720FF26D22846D0F8A4002946D1F8AE
:1058E000A810884211DAE4480068FAF771FE04460D
:1058F000E04801682046FAF717FF09D2DE48006841
:10590000FAF766FEDB49086002E00020D94908602A
:10591000DA49D8480068FAF7FDFE0FD2D748D549D2
:1059200008600BE0D148D0F8A810D0F8A40000F52A
:105930007A70814202DD0020CE490860D049CD480E
:105940000068FAF7F1FE02D2CD48CA490860C7489C
:10595000D0F8A400C549D1F8A810401AC949086078
:105960000968C94A1268891AC04AB2F9302001FB95
:1059700002F0FAF736FE82460022C44B00E033E024
:10598000FAF745FD06460F46BA480068FAF793FE57
:10599000804632463B46FAF793FC0446FAF753FE3C
:1059A000BB49086008460068642190FBF1F001B231
:1059B000AE48A0F88210B0F98200002805DA002174
:1059C000AA48A0F882100BE01BE2A848B0F98200B8
:1059D000B0F57A7F04DB40F2E731A448A0F88210EA
:1059E000A8480068A8490860A048B0F89A0000EBF1
:1059F0008000A84908806DE09C48807A012831D158
:105A0000A44801880088401EA24A1080A1B197488E
:105A1000B0F97810B0F97600814204DB0021934898
:105A2000A0F8821004E040F2E7319048A0F882101C
:105A300000208E49888107E000208C498872084642
:105A4000007808B90020487000208A49086092490F
:105A500081F8280081F82A00844981F8E20085490C
:105A6000086037E08148807A022826D17F48808903
:105A700001B27E48A0F8821000207E490860864965
:105A800081F8280081F82A00784981F8E2007949F4
:105A90000860764890F8BA00032809D0734890F857
:105AA000BA00072804D0714890F8BA00082811D12C
:105AB00000206E4981F8BA000CE000216B48A0F884
:105AC000821000206B490860734981F828006749FB
:105AD00081F8E200654890F8BA000B2820D2DFE890
